{"abi":[{"type":"constructor","inputs":[{"name":"_name","type":"string","internalType":"string"},{"name":"_symbol","type":"string","internalType":"string"},{"name":"_decimals","type":"uint8","internalType":"uint8"},{"name":"_underlying","type":"address","internalType":"address"},{"name":"_router","type":"address","internalType":"address"}],"stateMutability":"nonpayable"},{"type":"function","name":"DELAY","inputs":[],"outputs":[{"name":"","type":"uint256","internalType":"uint256"}],"stateMutability":"view"},{"type":"function","name":"allowance","inputs":[{"name":"","type":"address","internalType":"address"},{"name":"","type":"address","internalType":"address"}],"outputs":[{"name":"","type":"uint256","internalType":"uint256"}],"stateMutability":"view"},{"type":"function","name":"applyAdmin","inputs":[],"outputs":[],"stateMutability":"nonpayable"},{"type":"function","name":"applyMinter","inputs":[],"outputs":[],"stateMutability":"nonpayable"},{"type":"function","name":"approve","inputs":[{"name":"spender","type":"address","internalType":"address"},{"name":"value","type":"uint256","internalType":"uint256"}],"outputs":[{"name":"","type":"bool","internalType":"bool"}],"stateMutability":"nonpayable"},{"type":"function","name":"balanceOf","inputs":[{"name":"","type":"address","internalType":"address"}],"outputs":[{"name":"","type":"uint256","internalType":"uint256"}],"stateMutability":"view"},{"type":"function","name":"burn","inputs":[{"name":"from","type":"address","internalType":"address"},{"name":"amount","type":"uint256","internalType":"uint256"}],"outputs":[{"name":"","type":"bool","internalType":"bool"}],"stateMutability":"nonpayable"},{"type":"function","name":"decimals","inputs":[],"outputs":[{"name":"","type":"uint8","internalType":"uint8"}],"stateMutability":"view"},{"type":"function","name":"delayAdmin","inputs":[],"outputs":[{"name":"","type":"uint256","internalType":"uint256"}],"stateMutability":"view"},{"type":"function","name":"delayMinter","inputs":[],"outputs":[{"name":"","type":"uint256","internalType":"uint256"}],"stateMutability":"view"},{"type":"function","name":"deposit","inputs":[{"name":"amount","type":"uint256","internalType":"uint256"},{"name":"to","type":"address","internalType":"address"}],"outputs":[{"name":"","type":"uint256","internalType":"uint256"}],"stateMutability":"nonpayable"},{"type":"function","name":"deposit","inputs":[{"name":"amount","type":"uint256","internalType":"uint256"}],"outputs":[{"name":"","type":"uint256","internalType":"uint256"}],"stateMutability":"nonpayable"},{"type":"function","name":"deposit","inputs":[],"outputs":[{"name":"","type":"uint256","internalType":"uint256"}],"stateMutability":"nonpayable"},{"type":"function","name":"depositVault","inputs":[{"name":"amount","type":"uint256","internalType":"uint256"},{"name":"to","type":"address","internalType":"address"}],"outputs":[{"name":"","type":"uint256","internalType":"uint256"}],"stateMutability":"nonpayable"},{"type":"function","name":"getAllMinters","inputs":[],"outputs":[{"name":"","type":"address[]","internalType":"address[]"}],"stateMutability":"view"},{"type":"function","name":"isMinter","inputs":[{"name":"","type":"address","internalType":"address"}],"outputs":[{"name":"","type":"bool","internalType":"bool"}],"stateMutability":"view"},{"type":"function","name":"mint","inputs":[{"name":"to","type":"address","internalType":"address"},{"name":"amount","type":"uint256","internalType":"uint256"}],"outputs":[{"name":"","type":"bool","internalType":"bool"}],"stateMutability":"nonpayable"},{"type":"function","name":"minters","inputs":[{"name":"","type":"uint256","internalType":"uint256"}],"outputs":[{"name":"","type":"address","internalType":"address"}],"stateMutability":"view"},{"type":"function","name":"name","inputs":[],"outputs":[{"name":"","type":"string","internalType":"string"}],"stateMutability":"view"},{"type":"function","name":"owner","inputs":[],"outputs":[{"name":"","type":"address","internalType":"address"}],"stateMutability":"view"},{"type":"function","name":"pendingAdmin","inputs":[],"outputs":[{"name":"","type":"address","internalType":"address"}],"stateMutability":"view"},{"type":"function","name":"pendingMinter","inputs":[],"outputs":[{"name":"","type":"address","internalType":"address"}],"stateMutability":"view"},{"type":"function","name":"revokeMinter","inputs":[{"name":"_minter","type":"address","internalType":"address"}],"outputs":[],"stateMutability":"nonpayable"},{"type":"function","name":"router","inputs":[],"outputs":[{"name":"","type":"address","internalType":"address"}],"stateMutability":"view"},{"type":"function","name":"setAdmin","inputs":[{"name":"_router","type":"address","internalType":"address"}],"outputs":[],"stateMutability":"nonpayable"},{"type":"function","name":"setMinter","inputs":[{"name":"_minter","type":"address","internalType":"address"}],"outputs":[],"stateMutability":"nonpayable"},{"type":"function","name":"symbol","inputs":[],"outputs":[{"name":"","type":"string","internalType":"string"}],"stateMutability":"view"},{"type":"function","name":"totalSupply","inputs":[],"outputs":[{"name":"","type":"uint256","internalType":"uint256"}],"stateMutability":"view"},{"type":"function","name":"transfer","inputs":[{"name":"to","type":"address","internalType":"address"},{"name":"value","type":"uint256","internalType":"uint256"}],"outputs":[{"name":"","type":"bool","internalType":"bool"}],"stateMutability":"nonpayable"},{"type":"function","name":"transferFrom","inputs":[{"name":"from","type":"address","internalType":"address"},{"name":"to","type":"address","internalType":"address"},{"name":"value","type":"uint256","internalType":"uint256"}],"outputs":[{"name":"","type":"bool","internalType":"bool"}],"stateMutability":"nonpayable"},{"type":"function","name":"underlying","inputs":[],"outputs":[{"name":"","type":"address","internalType":"address"}],"stateMutability":"view"},{"type":"function","name":"underlyingIsMinted","inputs":[],"outputs":[{"name":"","type":"bool","internalType":"bool"}],"stateMutability":"view"},{"type":"function","name":"withdraw","inputs":[{"name":"amount","type":"uint256","internalType":"uint256"},{"name":"to","type":"address","internalType":"address"}],"outputs":[{"name":"","type":"uint256","internalType":"uint256"}],"stateMutability":"nonpayable"},{"type":"function","name":"withdraw","inputs":[{"name":"amount","type":"uint256","internalType":"uint256"}],"outputs":[{"name":"","type":"uint256","internalType":"uint256"}],"stateMutability":"nonpayable"},{"type":"function","name":"withdraw","inputs":[],"outputs":[{"name":"","type":"uint256","internalType":"uint256"}],"stateMutability":"nonpayable"},{"type":"function","name":"withdrawVault","inputs":[{"name":"from","type":"address","internalType":"address"},{"name":"amount","type":"uint256","internalType":"uint256"},{"name":"to","type":"address","internalType":"address"}],"outputs":[{"name":"","type":"uint256","internalType":"uint256"}],"stateMutability":"nonpayable"},{"type":"event","name":"Approval","inputs":[{"name":"owner","type":"address","indexed":true,"internalType":"address"},{"name":"spender","type":"address","indexed":true,"internalType":"address"},{"name":"value","type":"uint256","indexed":false,"internalType":"uint256"}],"anonymous":false},{"type":"event","name":"LogSwapin","inputs":[{"name":"txhash","type":"bytes32","indexed":true,"internalType":"bytes32"},{"name":"account","type":"address","indexed":true,"internalType":"address"},{"name":"amount","type":"uint256","indexed":false,"internalType":"uint256"}],"anonymous":false},{"type":"event","name":"LogSwapout","inputs":[{"name":"account","type":"address","indexed":true,"internalType":"address"},{"name":"bindaddr","type":"address","indexed":true,"internalType":"address"},{"name":"amount","type":"uint256","indexed":false,"internalType":"uint256"}],"anonymous":false},{"type":"event","name":"Transfer","inputs":[{"name":"from","type":"address","indexed":true,"internalType":"address"},{"name":"to","type":"address","indexed":true,"internalType":"address"},{"name":"value","type":"uint256","indexed":false,"internalType":"uint256"}],"anonymous":false},{"type":"error","name":"AddressEmptyCode","inputs":[{"name":"target","type":"address","internalType":"address"}]},{"type":"error","name":"AddressInsufficientBalance","inputs":[{"name":"account","type":"address","internalType":"address"}]},{"type":"error","name":"FailedInnerCall","inputs":[]},{"type":"error","name":"SafeERC20FailedOperation","inputs":[{"name":"token","type":"address","internalType":"address"}]}],"bytecode":{"object":"0x60c0604090808252346200050c57620020ef803803809162000022828562000511565b833981019060a0818303126200050c5780516001600160401b0392908381116200050c57816200005491840162000535565b9060209081840151908582116200050c576200007291850162000535565b6200007f868501620005ac565b936200009c60806200009460608401620005bb565b9201620005bb565b95620151806005558451818111620004f6576000938454916001978884811c94168015620004eb575b88851014620004d7578190601f9485811162000484575b5088908583116001146200042057889262000414575b5050600019600383901b1c191690881b1785555b8051928311620004005786548781811c91168015620003f5575b87821014620003e157908183859493116200038c575b5086918311600114620003285785926200031c575b5050600019600383901b1c191690851b1784555b846080528060a05260ff19956004958588885416178755868560018060a01b03809516806200024f575b50505050169360018060a01b0319958587600854161760085585835260068452848884209182541617905560075493680100000000000000008510156200023c578401806007558410156200022957506007815220019182541617905551611b1e9081620005d1823960805181610bc9015260a051818181610308015281816104e201528181610a2001528181610a840152818161149d01526114ff0152f35b634e487b7160e01b825260329052602490fd5b634e487b7160e01b835260418252602483fd5b8b5163313ce56760e01b815292839182905afa90811562000312578591620002cd575b5060ff8091169116036200028a573886858262000189565b875162461bcd60e51b8152808701859052601d60248201527f5468656961546f6b656e3a20646563696d616c73206469736d617463680000006044820152606490fd5b90508581813d83116200030a575b620002e7818362000511565b81010312620003065760ff620002fe8192620005ac565b915062000272565b8480fd5b503d620002db565b8a513d87823e3d90fd5b0151905038806200014b565b8786528686208894509190601f198416875b898282106200037557505084116200035b575b505050811b0184556200015f565b015160001960f88460031b161c191690553880806200034d565b8385015186558b979095019493840193016200033a565b909192508786528686208380860160051c820192898710620003d7575b9186958b929594930160051c01915b828110620003c857505062000136565b8881558695508a9101620003b8565b92508192620003a9565b634e487b7160e01b86526022600452602486fd5b90607f169062000120565b634e487b7160e01b85526041600452602485fd5b015190503880620000f2565b8880528989208b94509190601f1984168a5b8c8282106200046d575050841162000453575b505050811b01855562000106565b015160001960f88460031b161c1916905538808062000445565b8385015186558e9790950194938401930162000432565b9091508780528888208580850160051c8201928b8610620004cd575b918c91869594930160051c01915b828110620004be575050620000dc565b8a81558594508c9101620004ae565b92508192620004a0565b634e487b7160e01b87526022600452602487fd5b93607f1693620000c5565b634e487b7160e01b600052604160045260246000fd5b600080fd5b601f909101601f19168101906001600160401b03821190821017620004f657604052565b919080601f840112156200050c578251906001600160401b038211620004f6576040519160209162000571601f8301601f191684018562000511565b8184528282870101116200050c5760005b8181106200059857508260009394955001015290565b858101830151848201840152820162000582565b519060ff821682036200050c57565b51906001600160a01b03821682036200050c5756fe60406080815260048036101561001457600080fd5b600091823560e01c91826239d6ec14611135578262f714ce1461110c57826306fdde0314611050578263095ea7b314610fd15782630d707df814610ea257826311756bd114610e8357826318160ddd14610e6457826323b872dd14610c455782632678224714610c105782632e1a7d4d14610bed578263313ce56714610baf5782633ccfd60b14610b8557826340c10f1914610b565782634e67428d14610acd57826369b4117014610aae5782636e553f6514610a445782636f307dc3146109f3578263704b6c021461096d57826370a08231146109295782638623ec7b146108d95782638da5cb5b146108a457826391c5df491461086f57826395d89b41146107355782639dc29fac146106ef578263a045442c14610610578263a9059cbb14610550578263aa271e1a14610507578263b6b55f25146104aa578263bebbf4d01461045f578263c308124014610440578263cfbd4885146103cd578263d0e30db0146102df57508163d6c79751146102c4578163dd62ed3e1461026e578163f887ea4014610235575063fca3b5aa146101ad57600080fd5b34610232576020600319360112610232576101c6611193565b73ffffffffffffffffffffffffffffffffffffffff906101eb8260085416331461131a565b166101f781151561137f565b7fffffffffffffffffffffffff0000000000000000000000000000000000000000600954161760095561022c600554426113e4565b600a5580f35b80fd5b90503461026a578160031936011261026a5760209073ffffffffffffffffffffffffffffffffffffffff600854169051908152f35b5080fd5b90503461026a578060031936011261026a578060209261028c611193565b6102946111bb565b73ffffffffffffffffffffffffffffffffffffffff9182168352600d865283832091168252845220549051908152f35b90503461026a578160031936011261026a5751908152602090f35b90833461023257806003193601126102325773ffffffffffffffffffffffffffffffffffffffff7f000000000000000000000000000000000000000000000000000000000000000016928251907f70a082310000000000000000000000000000000000000000000000000000000082523390820152602081602481875afa9182156103c257809261038c575b6020846103858561037e8130338c611898565b3390611485565b9051908152f35b9091506020823d82116103ba575b816103a7602093836111de565b810103126102325750518261037e61036b565b3d915061039a565b8351903d90823e3d90fd5b83823461026a57602060031936011261026a576103e8611193565b73ffffffffffffffffffffffffffffffffffffffff9061040d8260085416331461131a565b168252600660205281207fffffffffffffffffffffffffffffffffffffffffffffffffffffffffffffff00815416905580f35b83823461026a578160031936011261026a57602090600a549051908152f35b908334610232578160031936011261023257506103856020926104806111bb565b906104a473ffffffffffffffffffffffffffffffffffffffff60085416331461131a565b35611485565b90833461023257602060031936011261023257506103856020923561037e81303373ffffffffffffffffffffffffffffffffffffffff7f000000000000000000000000000000000000000000000000000000000000000016611898565b83823461026a57602060031936011261026a5760ff8160209373ffffffffffffffffffffffffffffffffffffffff61053d611193565b1681526006855220541690519015158152f35b83823461026a578060031936011261026a5761056a611193565b73ffffffffffffffffffffffffffffffffffffffff1660243581151580610606575b156106025782602094338152600286526105b583838320546105b08282101561180d565b611671565b3382526002875282822055838152206105cf8282546113e4565b905582519081527fddf252ad1be2c89b69c2b068fc378daa952ba7f163c4a11628f55a4df523b3ef843392a35160018152f35b8380fd5b503082141561058c565b5082346102325780600319360112610232579080519182906007549182855260208095018093600784527fa66cc928b5edb82af9bd49922954155ab7b0942694bea4ce44661d9a8736c68890845b8181106106c557505050816106749103826111de565b83519485948186019282875251809352850193925b82811061069857505050500390f35b835173ffffffffffffffffffffffffffffffffffffffff1685528695509381019392810192600101610689565b825473ffffffffffffffffffffffffffffffffffffffff168452928801926001928301920161065e565b83823461026a578060031936011261026a5761072e60209261072560ff84610715611193565b9333815260068852205416611420565b6024359061167e565b5160018152f35b91503461086b578260031936011261086b5780519183600180549182821c928281168015610861575b602095868610821461083557508488529081156107f5575060011461079d575b610799868661078f828b03836111de565b519182918261124e565b0390f35b9295508083527fb10e2d527612073b26eecdfd717e6a320cf44b4afac2b0732d9fcbe2b7fa0cf65b8284106107e257505050826107999461078f92820101943861077e565b80548685018801529286019281016107c5565b7fffffffffffffffffffffffffffffffffffffffffffffffffffffffffffffff001687860152505050151560051b830101925061078f826107993861077e565b8360226024927f4e487b7100000000000000000000000000000000000000000000000000000000835252fd5b93607f169361075e565b8280fd5b83823461026a578160031936011261026a5760209073ffffffffffffffffffffffffffffffffffffffff600954169051908152f35b83823461026a578160031936011261026a5760209073ffffffffffffffffffffffffffffffffffffffff600854169051908152f35b9091503461086b57602060031936011261086b573591600754831015610232575073ffffffffffffffffffffffffffffffffffffffff61091a6020936112b4565b92905490519260031b1c168152f35b83823461026a57602060031936011261026a578060209273ffffffffffffffffffffffffffffffffffffffff61095d611193565b1681526002845220549051908152f35b833461023257602060031936011261023257610987611193565b73ffffffffffffffffffffffffffffffffffffffff906109ac8260085416331461131a565b166109b881151561137f565b7fffffffffffffffffffffffff0000000000000000000000000000000000000000600b541617600b556109ed600554426113e4565b600c5580f35b83823461026a578160031936011261026a576020905173ffffffffffffffffffffffffffffffffffffffff7f0000000000000000000000000000000000000000000000000000000000000000168152f35b9083346102325781600319360112610232575061038560209235610a666111bb565b90610aa981303373ffffffffffffffffffffffffffffffffffffffff7f000000000000000000000000000000000000000000000000000000000000000016611898565b611485565b83823461026a578160031936011261026a576020906005549051908152f35b833461023257806003193601126102325760085473ffffffffffffffffffffffffffffffffffffffff610b03818316331461131a565b600b5490811680151580610b4a575b15610602577fffffffffffffffffffffffff00000000000000000000000000000000000000008093161760085516600b5580600c5580f35b50600c54421015610b12565b83823461026a578060031936011261026a5761072e602092610b7c60ff84610715611193565b602435906115a0565b83823461026a578160031936011261026a57610385602092338152600284528233912054336114e5565b83823461026a578160031936011261026a576020905160ff7f0000000000000000000000000000000000000000000000000000000000000000168152f35b9083346102325760206003193601126102325750610385602092339035336114e5565b83823461026a578160031936011261026a5760209073ffffffffffffffffffffffffffffffffffffffff600b54169051908152f35b9091503461086b57606060031936011261086b57610c61611193565b90610c6a6111bb565b6044359073ffffffffffffffffffffffffffffffffffffffff8091169384151580610e5a575b15610e56571691338303610d0b575b5060207fddf252ad1be2c89b69c2b068fc378daa952ba7f163c4a11628f55a4df523b3ef9185878584995260028452610ce283838320546105b08282101561180d565b868252600285528282205586815220610cfc8282546113e4565b90558551908152a35160018152f35b828652602090600d8252858720338852825285872054907fffffffffffffffffffffffffffffffffffffffffffffffffffffffffffffffff8203610d51575b5050610c9f565b838210610dd4575091856020978893867f8c5be1e5ebec7d5bd14f71427d1e84f3dd0314c0f7b2291e5b200ac8c7c3b925610dad867fddf252ad1be2c89b69c2b068fc378daa952ba7f163c4a11628f55a4df523b3ef99611671565b92828552600d81528585203386528152838686205585519384523393a39750819350610d4a565b608490838851917f08c379a0000000000000000000000000000000000000000000000000000000008352820152602560248201527f546865696145524332303a2072657175657374206578636565647320616c6c6f60448201527f77616e63650000000000000000000000000000000000000000000000000000006064820152fd5b8680fd5b5030851415610c90565b83823461026a578160031936011261026a576020906003549051908152f35b83823461026a578160031936011261026a57602090600c549051908152f35b9091503461086b578260031936011261086b5773ffffffffffffffffffffffffffffffffffffffff91610eda8360085416331461131a565b82600954168015801580610fc5575b15610fc157610fbd5784526006602052832060017fffffffffffffffffffffffffffffffffffffffffffffffffffffffffffffff008254161790558160095416906007549068010000000000000000821015610f915750806001610f5092016007556112b4565b909283549160031b92831b921b19161790557fffffffffffffffffffffffff00000000000000000000000000000000000000006009541660095580600a5580f35b8460416024927f4e487b7100000000000000000000000000000000000000000000000000000000835252fd5b8480fd5b8580fd5b50600a54421015610ee9565b83823461026a578060031936011261026a5760209181610fef611193565b91602435918291338152600d875273ffffffffffffffffffffffffffffffffffffffff8282209516948582528752205582519081527f8c5be1e5ebec7d5bd14f71427d1e84f3dd0314c0f7b2291e5b200ac8c7c3b925843392a35160018152f35b91503461086b578260031936011261086b578051918380549060019082821c928281168015611102575b602095868610821461083557508488529081156107f557506001146110aa57610799868661078f828b03836111de565b8080949750527f290decd9548b62a8d60345a988386fc84ba6bc95484008f6362f93160ef3e5635b8284106110ef57505050826107999461078f92820101943861077e565b80548685018801529286019281016110d2565b93607f169361107a565b9083346102325781600319360112610232575061038560209261112d6111bb565b9035336114e5565b83823461026a57606060031936011261026a57611150611193565b6044359273ffffffffffffffffffffffffffffffffffffffff9081851685036102325750926103859161118a60209560085416331461131a565b602435906114e5565b6004359073ffffffffffffffffffffffffffffffffffffffff821682036111b657565b600080fd5b6024359073ffffffffffffffffffffffffffffffffffffffff821682036111b657565b90601f7fffffffffffffffffffffffffffffffffffffffffffffffffffffffffffffffe0910116810190811067ffffffffffffffff82111761121f57604052565b7f4e487b7100000000000000000000000000000000000000000000000000000000600052604160045260246000fd5b60208082528251818301819052939260005b8581106112a0575050507fffffffffffffffffffffffffffffffffffffffffffffffffffffffffffffffe0601f8460006040809697860101520116010190565b818101830151848201604001528201611260565b6007548110156112eb5760076000527fa66cc928b5edb82af9bd49922954155ab7b0942694bea4ce44661d9a8736c6880190600090565b7f4e487b7100000000000000000000000000000000000000000000000000000000600052603260045260246000fd5b1561132157565b60646040517f08c379a000000000000000000000000000000000000000000000000000000000815260206004820152601560248201527f546865696145524332303a206e6f742041646d696e00000000000000000000006044820152fd5b1561138657565b60646040517f08c379a000000000000000000000000000000000000000000000000000000000815260206004820152601660248201527f546865696145524332303a2061646472657373283029000000000000000000006044820152fd5b919082018092116113f157565b7f4e487b7100000000000000000000000000000000000000000000000000000000600052601160045260246000fd5b1561142757565b60646040517f08c379a000000000000000000000000000000000000000000000000000000000815260206004820152601660248201527f546865696145524332303a206e6f74204d696e746572000000000000000000006044820152fd5b9073ffffffffffffffffffffffffffffffffffffffff7f00000000000000000000000000000000000000000000000000000000000000001680151590816114da575b50156111b657816114d7916115a0565b90565b9050301415386114c7565b909173ffffffffffffffffffffffffffffffffffffffff807f0000000000000000000000000000000000000000000000000000000000000000169283151580611596575b156111b657846115389161167e565b604051917fa9059cbb00000000000000000000000000000000000000000000000000000000602084015216602482015282604482015260448152608081019181831067ffffffffffffffff84111761121f576114d792604052611916565b5030841415611529565b73ffffffffffffffffffffffffffffffffffffffff16908115611613577fddf252ad1be2c89b69c2b068fc378daa952ba7f163c4a11628f55a4df523b3ef6020826115ef6000946003546113e4565b60035584845260028252604084206116088282546113e4565b9055604051908152a3565b60646040517f08c379a000000000000000000000000000000000000000000000000000000000815260206004820152601f60248201527f45524332303a206d696e7420746f20746865207a65726f2061646472657373006044820152fd5b919082039182116113f157565b73ffffffffffffffffffffffffffffffffffffffff1680156117895780600052600260205260406000205491808310611705576020816116e17fddf252ad1be2c89b69c2b068fc378daa952ba7f163c4a11628f55a4df523b3ef93600096611671565b8486526002835260408620556116f981600354611671565b600355604051908152a3565b60846040517f08c379a000000000000000000000000000000000000000000000000000000000815260206004820152602260248201527f45524332303a206275726e20616d6f756e7420657863656564732062616c616e60448201527f63650000000000000000000000000000000000000000000000000000000000006064820152fd5b60846040517f08c379a000000000000000000000000000000000000000000000000000000000815260206004820152602160248201527f45524332303a206275726e2066726f6d20746865207a65726f2061646472657360448201527f73000000000000000000000000000000000000000000000000000000000000006064820152fd5b1561181457565b60846040517f08c379a000000000000000000000000000000000000000000000000000000000815260206004820152602b60248201527f546865696145524332303a207472616e7366657220616d6f756e74206578636560448201527f6564732062616c616e63650000000000000000000000000000000000000000006064820152fd5b9290604051927f23b872dd00000000000000000000000000000000000000000000000000000000602085015273ffffffffffffffffffffffffffffffffffffffff809216602485015216604483015260648201526064815260a081019181831067ffffffffffffffff84111761121f5761191492604052611916565b565b73ffffffffffffffffffffffffffffffffffffffff1690600080826020829451910182865af13d15611a3c573d9067ffffffffffffffff8211611a0f579061199e916040519161198e60207fffffffffffffffffffffffffffffffffffffffffffffffffffffffffffffffe0601f84011601846111de565b82523d84602084013e5b84611a48565b9081519182151592836119e7575b5050506119b65750565b602490604051907f5274afe70000000000000000000000000000000000000000000000000000000082526004820152fd5b81929350906020918101031261026a57602001519081159182150361023257503880806119ac565b6024837f4e487b710000000000000000000000000000000000000000000000000000000081526041600452fd5b61199e90606090611998565b90611a875750805115611a5d57805190602001fd5b60046040517f1425ea42000000000000000000000000000000000000000000000000000000008152fd5b81511580611adf575b611a98575090565b60249073ffffffffffffffffffffffffffffffffffffffff604051917f9996b315000000000000000000000000000000000000000000000000000000008352166004820152fd5b50803b15611a9056fea26469706673582212203480e3dbfab8fad9363a58bef5ff43427003f763337317438b635c682f521eb464736f6c63430008140033","linkReferences":{}},"methodIdentifiers":{"DELAY()":"69b41170","allowance(address,address)":"dd62ed3e","applyAdmin()":"4e67428d","applyMinter()":"0d707df8","approve(address,uint256)":"095ea7b3","balanceOf(address)":"70a08231","burn(address,uint256)":"9dc29fac","decimals()":"313ce567","delayAdmin()":"11756bd1","delayMinter()":"c3081240","deposit()":"d0e30db0","deposit(uint256)":"b6b55f25","deposit(uint256,address)":"6e553f65","depositVault(uint256,address)":"bebbf4d0","getAllMinters()":"a045442c","isMinter(address)":"aa271e1a","mint(address,uint256)":"40c10f19","minters(uint256)":"8623ec7b","name()":"06fdde03","owner()":"8da5cb5b","pendingAdmin()":"26782247","pendingMinter()":"91c5df49","revokeMinter(address)":"cfbd4885","router()":"f887ea40","setAdmin(address)":"704b6c02","setMinter(address)":"fca3b5aa","symbol()":"95d89b41","totalSupply()":"18160ddd","transfer(address,uint256)":"a9059cbb","transferFrom(address,address,uint256)":"23b872dd","underlying()":"6f307dc3","underlyingIsMinted()":"d6c79751","withdraw()":"3ccfd60b","withdraw(uint256)":"2e1a7d4d","withdraw(uint256,address)":"00f714ce","withdrawVault(address,uint256,address)":"0039d6ec"},"id":35}