{"abi":[{"type":"function","name":"FROM_CHAIN_PAY","inputs":[],"outputs":[{"name":"","type":"uint256","internalType":"uint256"}],"stateMutability":"view"},{"type":"function","name":"TO_CHAIN_PAY","inputs":[],"outputs":[{"name":"","type":"uint256","internalType":"uint256"}],"stateMutability":"view"},{"type":"function","name":"_fromFeeConfigs","inputs":[{"name":"","type":"uint256","internalType":"uint256"}],"outputs":[{"name":"MaximumSwapFee","type":"uint256","internalType":"uint256"},{"name":"MinimumSwapFee","type":"uint256","internalType":"uint256"},{"name":"SwapFeeRatePerMillion","type":"uint256","internalType":"uint256"}],"stateMutability":"view"},{"type":"function","name":"_toFeeConfigs","inputs":[{"name":"","type":"uint256","internalType":"uint256"}],"outputs":[{"name":"MaximumSwapFee","type":"uint256","internalType":"uint256"},{"name":"MinimumSwapFee","type":"uint256","internalType":"uint256"},{"name":"SwapFeeRatePerMillion","type":"uint256","internalType":"uint256"}],"stateMutability":"view"},{"type":"function","name":"getSwapInFeeConfig","inputs":[{"name":"fromChainID","type":"uint256","internalType":"uint256"}],"outputs":[{"name":"","type":"uint256","internalType":"uint256"},{"name":"","type":"uint256","internalType":"uint256"},{"name":"","type":"uint256","internalType":"uint256"}],"stateMutability":"view"},{"type":"function","name":"getSwapOutFeeConfig","inputs":[{"name":"toChainID","type":"uint256","internalType":"uint256"}],"outputs":[{"name":"","type":"uint256","internalType":"uint256"},{"name":"","type":"uint256","internalType":"uint256"},{"name":"","type":"uint256","internalType":"uint256"}],"stateMutability":"view"}],"bytecode":{"object":"0x6080806040523461001657610321908161001c8239f35b600080fdfe608060408181526004918236101561001657600080fd5b600092833560e01c91826313b1e4d51461028a575081633b598e07146102255781633bdde5f4146101eb5781637b99f4871461015e5781637ee3969e146100a3575063eb77f2ad1461006757600080fd5b3461009f57817ffffffffffffffffffffffffffffffffffffffffffffffffffffffffffffffffc36011261009f576020905160028152f35b5080fd5b82843461015b5760207ffffffffffffffffffffffffffffffffffffffffffffffffffffffffffffffffc36011261015b57823581528060205281812091805191606083019083821067ffffffffffffffff83111761012f575081528254808352600184015460208085018290526002909501549383018490529151908152928301526040820152606090f35b806041877f4e487b71000000000000000000000000000000000000000000000000000000006024945252fd5b80fd5b82843461015b5760207ffffffffffffffffffffffffffffffffffffffffffffffffffffffffffffffffc36011261015b5782358152600160205281812091805191606083019083821067ffffffffffffffff83111761012f575081528254808352600184015460208085018290526002909501549383018490529151908152928301526040820152606090f35b50503461009f57817ffffffffffffffffffffffffffffffffffffffffffffffffffffffffffffffffc36011261009f576020905160018152f35b9050346102865760207ffffffffffffffffffffffffffffffffffffffffffffffffffffffffffffffffc3601126102865735825260016020818152928290208054918101546002909101549251918252928101929092526040820152606090f35b8280fd5b929150346102e75760207ffffffffffffffffffffffffffffffffffffffffffffffffffffffffffffffffc3601126102e7573583526020838152922080546001820154600290920154908352928201526040810191909152606090f35b8380fdfea264697066735822122014f0fec441cac14ba4db569ca389e5d8bcc2c7342bce73a9e77b626a7c60e4ba64736f6c63430008140033","linkReferences":{}},"methodIdentifiers":{"FROM_CHAIN_PAY()":"3bdde5f4","TO_CHAIN_PAY()":"eb77f2ad","_fromFeeConfigs(uint256)":"13b1e4d5","_toFeeConfigs(uint256)":"3b598e07","getSwapInFeeConfig(uint256)":"7ee3969e","getSwapOutFeeConfig(uint256)":"7b99f487"},"id":0}