{"abi":[{"type":"constructor","inputs":[],"stateMutability":"nonpayable"},{"type":"function","name":"addOperator","inputs":[{"name":"_op","type":"address","internalType":"address"}],"outputs":[],"stateMutability":"nonpayable"},{"type":"function","name":"admin","inputs":[],"outputs":[{"name":"","type":"address","internalType":"address"}],"stateMutability":"view"},{"type":"function","name":"applyGov","inputs":[],"outputs":[],"stateMutability":"nonpayable"},{"type":"function","name":"calcCallerEncode","inputs":[{"name":"from","type":"address","internalType":"address"},{"name":"dappID","type":"uint256","internalType":"uint256"},{"name":"to","type":"string","internalType":"string"},{"name":"toChainID","type":"string","internalType":"string"},{"name":"data","type":"bytes","internalType":"bytes"}],"outputs":[{"name":"","type":"bytes","internalType":"bytes"}],"stateMutability":"view"},{"type":"function","name":"calcCallerUUID","inputs":[{"name":"from","type":"address","internalType":"address"},{"name":"dappID","type":"uint256","internalType":"uint256"},{"name":"to","type":"string","internalType":"string"},{"name":"toChainID","type":"string","internalType":"string"},{"name":"data","type":"bytes","internalType":"bytes"}],"outputs":[{"name":"","type":"bytes32","internalType":"bytes32"}],"stateMutability":"view"},{"type":"function","name":"changeGov","inputs":[{"name":"_gov","type":"address","internalType":"address"}],"outputs":[],"stateMutability":"nonpayable"},{"type":"function","name":"completedSwapin","inputs":[{"name":"","type":"bytes32","internalType":"bytes32"}],"outputs":[{"name":"","type":"bool","internalType":"bool"}],"stateMutability":"view"},{"type":"function","name":"currentNonce","inputs":[],"outputs":[{"name":"","type":"uint256","internalType":"uint256"}],"stateMutability":"view"},{"type":"function","name":"genUUID","inputs":[{"name":"dappID","type":"uint256","internalType":"uint256"},{"name":"to","type":"string","internalType":"string"},{"name":"toChainID","type":"string","internalType":"string"},{"name":"data","type":"bytes","internalType":"bytes"}],"outputs":[{"name":"uuid","type":"bytes32","internalType":"bytes32"}],"stateMutability":"nonpayable"},{"type":"function","name":"getAllOperators","inputs":[],"outputs":[{"name":"","type":"address[]","internalType":"address[]"}],"stateMutability":"view"},{"type":"function","name":"gov","inputs":[],"outputs":[{"name":"","type":"address","internalType":"address"}],"stateMutability":"view"},{"type":"function","name":"isCompleted","inputs":[{"name":"uuid","type":"bytes32","internalType":"bytes32"}],"outputs":[{"name":"","type":"bool","internalType":"bool"}],"stateMutability":"view"},{"type":"function","name":"isOperator","inputs":[{"name":"","type":"address","internalType":"address"}],"outputs":[{"name":"","type":"bool","internalType":"bool"}],"stateMutability":"view"},{"type":"function","name":"isUUIDExist","inputs":[{"name":"uuid","type":"bytes32","internalType":"bytes32"}],"outputs":[{"name":"","type":"bool","internalType":"bool"}],"stateMutability":"view"},{"type":"function","name":"operators","inputs":[{"name":"","type":"uint256","internalType":"uint256"}],"outputs":[{"name":"","type":"address","internalType":"address"}],"stateMutability":"view"},{"type":"function","name":"pendingGov","inputs":[],"outputs":[{"name":"","type":"address","internalType":"address"}],"stateMutability":"view"},{"type":"function","name":"registerUUID","inputs":[{"name":"uuid","type":"bytes32","internalType":"bytes32"}],"outputs":[],"stateMutability":"nonpayable"},{"type":"function","name":"revokeOperator","inputs":[{"name":"_op","type":"address","internalType":"address"}],"outputs":[],"stateMutability":"nonpayable"},{"type":"function","name":"revokeSwapin","inputs":[{"name":"uuid","type":"bytes32","internalType":"bytes32"}],"outputs":[],"stateMutability":"nonpayable"},{"type":"function","name":"uuid2Nonce","inputs":[{"name":"","type":"bytes32","internalType":"bytes32"}],"outputs":[{"name":"","type":"uint256","internalType":"uint256"}],"stateMutability":"view"},{"type":"event","name":"ApplyGov","inputs":[{"name":"oldGov","type":"address","indexed":true,"internalType":"address"},{"name":"newGov","type":"address","indexed":true,"internalType":"address"},{"name":"timestamp","type":"uint256","indexed":false,"internalType":"uint256"}],"anonymous":false},{"type":"event","name":"ChangeGov","inputs":[{"name":"oldGov","type":"address","indexed":true,"internalType":"address"},{"name":"newGov","type":"address","indexed":true,"internalType":"address"},{"name":"timestamp","type":"uint256","indexed":false,"internalType":"uint256"}],"anonymous":false},{"type":"event","name":"Initialized","inputs":[{"name":"version","type":"uint64","indexed":false,"internalType":"uint64"}],"anonymous":false},{"type":"error","name":"InvalidInitialization","inputs":[]},{"type":"error","name":"NotInitializing","inputs":[]}],"bytecode":{"object":"0x60808060405234610157577ff0c57e16840df040f15088dc2f81fe391c3923bec73e23a9662efc9c229c6a0080549091604082901c60ff161591906001600160401b0382168015908161014f575b6001149081610145575b15908161013c575b5061012d57506001600160401b03198116600117835581610110575b503360018060a01b0319600054161760005560405142815260007fff88f8815b3f9faf85529ba09d2f7ff0d9c726c11cc863fd245156986014259060203393a36100cf575b604051611229908161015d8239f35b68ff00000000000000001981541690557fc7f505b2f371ae2175ee4913f4499e1f2633a7b5936321eed1cdaeb6115181d2602060405160018152a1386100c0565b6001600160481b031916680100000000000000011782553861007b565b63f92ee8a960e01b8152600490fd5b9050153861005f565b303b159150610057565b84915061004d565b600080fdfe608060409080825260048036101561001657600080fd5b600092833560e01c9283630b68f72114610c725750826312cab5451461078057826312d43a5114610c3f5782631547d53214610c175782632524081014610be2578263459c769514610af557826362ae45ab14610a8d5782636d70f7ae14610a4457826382e7a58a146109995782639870d7fe146107ad5782639bc4fe6914610780578263a962ef1e146106e9578263adb610a3146106ca578263ae74db05146105a9578263d911c632146104cb578263e28d49061461047c578263f1a9bff91461026e578263f2c271841461017e578263f851a4401461014b57505063fad8b32a1461010257600080fd5b346101485760206003193601126101485761014561011e610c99565b61014073ffffffffffffffffffffffffffffffffffffffff8454163314610de0565b610f11565b80f35b80fd5b83346101485780600319360112610148575073ffffffffffffffffffffffffffffffffffffffff60209254169051908152f35b83903461026a5761018e36610cef565b93919092600799979996959654926001840180941161023e57896101c497989a9b9c5051998a986020809e469130908d0161117f565b036101f57fffffffffffffffffffffffffffffffffffffffffffffffffffffffffffffffe091828101855284610e45565b8351948592818452845191828186015281955b8387106102265750508394508582601f949501015201168101030190f35b86810182015189880189015295810195889550610208565b60248960118e7f4e487b7100000000000000000000000000000000000000000000000000000000835252fd5b5080fd5b9091503461044a57608060031936011261044a5767ffffffffffffffff9260243584811161026a576102a39036908501610cc1565b94604435818111610478576102bb9036908701610cc1565b9160643590811161047457906102d8879594939236908701610cc1565b73ffffffffffffffffffffffffffffffffffffffff8697929754163314801561045f575b610305906110db565b60075461031190610eb5565b968760075587895195869560209d8e8801998a97354633306103329b61117f565b037fffffffffffffffffffffffffffffffffffffffffffffffffffffffffffffffe0810182526103629082610e45565b5190209383517f0b68f7210000000000000000000000000000000000000000000000000000000081528582820152868130815a91602492fa90811561045557839161041b575b506103bf5750808484925260068652205551908152f35b606490868551917f08c379a0000000000000000000000000000000000000000000000000000000008352820152601260248201527f7575696420616c726561647920657869737400000000000000000000000000006044820152fd5b90508681813d831161044e575b6104328183610e45565b8101031261044a5751801515810361044a57386103a8565b8280fd5b503d610428565b85513d85823e3d90fd5b5033865260026020528786205460ff166102fc565b8480fd5b8380fd5b91503461044a57602060031936011261044a573591600354831015610148575073ffffffffffffffffffffffffffffffffffffffff6104bc602093610d7a565b90549060031b1c169051908152f35b83346101485780600319360112610148579080519182906003549182855260208095018093600384527fc2575a0e9e593c00f959f8c92f12db2869c3395a3b0502d05e2516446f71f85b90845b81811061057f575050508161052e910382610e45565b83519485948186019282875251809352850193925b82811061055257505050500390f35b835173ffffffffffffffffffffffffffffffffffffffff1685528695509381019392810192600101610543565b825473ffffffffffffffffffffffffffffffffffffffff1684529288019260019283019201610518565b91503461044a57602060031936011261044a5780359073ffffffffffffffffffffffffffffffffffffffff845416331480156106b5575b6105e9906110db565b818452600560205260ff8385205416610632575082526005602052812060017fffffffffffffffffffffffffffffffffffffffffffffffffffffffffffffff0082541617905580f35b60849060208451917f08c379a0000000000000000000000000000000000000000000000000000000008352820152602160248201527f43335377617049444b65657065723a207575696420697320636f6d706c65746560448201527f64000000000000000000000000000000000000000000000000000000000000006064820152fd5b5033845260026020528284205460ff166105e0565b83903461026a578160031936011261026a576020906007549051908152f35b83903461026a57602060031936011261026a57610704610c99565b7fd098c548c6851f1e61d4e1364996748b40477bb1abe90254bd71352396b2b7be602073ffffffffffffffffffffffffffffffffffffffff808654169361074c853314610de0565b1693847fffffffffffffffffffffffff0000000000000000000000000000000000000000600154161760015551428152a380f35b91503461044a57602060031936011261044a578160209360ff923581526005855220541690519015158152f35b83903461026a576020908160031936011261044a576107ca610c99565b9173ffffffffffffffffffffffffffffffffffffffff6107ee818654163314610de0565b8316801561093e578085526002825260ff83862054166108bc57845260029052822080547fffffffffffffffffffffffffffffffffffffffffffffffffffffffffffffff0016600117905560035492680100000000000000008410156108905750610863836001610145949501600355610d7a565b90919082549060031b9173ffffffffffffffffffffffffffffffffffffffff809116831b921b1916179055565b8260416024927f4e487b7100000000000000000000000000000000000000000000000000000000835252fd5b608486838551917f08c379a0000000000000000000000000000000000000000000000000000000008352820152602160248201527f433343616c6c65723a204f70657261746f7220616c726561647920657869737460448201527f73000000000000000000000000000000000000000000000000000000000000006064820152fd5b60648683808651927f08c379a000000000000000000000000000000000000000000000000000000000845283015260248201527f433343616c6c65723a204f70657261746f7220697320616464726573732830296044820152fd5b8334610148576109a836610cef565b9496979290936007549360018501809511610a18575060209a5091610a0e969593916109e295938b51998a988e8a01809d4691309061117f565b037fffffffffffffffffffffffffffffffffffffffffffffffffffffffffffffffe08101835282610e45565b5190209051908152f35b8060118d7f4e487b71000000000000000000000000000000000000000000000000000000006024945252fd5b83903461026a57602060031936011261026a5760ff8160209373ffffffffffffffffffffffffffffffffffffffff610a7a610c99565b1681526002855220541690519015158152f35b91503461044a57602060031936011261044a57610ac273ffffffffffffffffffffffffffffffffffffffff8454163314610de0565b358252600560205281207fffffffffffffffffffffffffffffffffffffffffffffffffffffffffffffff00815416905580f35b83823461026a578160031936011261026a5760015473ffffffffffffffffffffffffffffffffffffffff8116918215610b855750602083947fff88f8815b3f9faf85529ba09d2f7ff0d9c726c11cc863fd2451569860142590927fffffffffffffffffffffffff00000000000000000000000000000000000000009085828854161787551660015551428152a380f35b60649060208651917f08c379a0000000000000000000000000000000000000000000000000000000008352820152601760248201527f4333476f763a20656d7074792070656e64696e67476f760000000000000000006044820152fd5b83903461026a578160031936011261026a5760209073ffffffffffffffffffffffffffffffffffffffff600154169051908152f35b91503461044a57602060031936011261044a5760209282913581526006845220549051908152f35b83903461026a578160031936011261026a5773ffffffffffffffffffffffffffffffffffffffff60209254169051908152f35b92509034610478576020600319360112610478579260209335815260068452205415158152f35b6004359073ffffffffffffffffffffffffffffffffffffffff82168203610cbc57565b600080fd5b9181601f84011215610cbc5782359167ffffffffffffffff8311610cbc5760208381860195010111610cbc57565b9060a0600319830112610cbc5760043573ffffffffffffffffffffffffffffffffffffffff81168103610cbc57916024359167ffffffffffffffff604435818111610cbc5783610d4191600401610cc1565b93909392606435838111610cbc5782610d5c91600401610cc1565b93909392608435918211610cbc57610d7691600401610cc1565b9091565b600354811015610db15760036000527fc2575a0e9e593c00f959f8c92f12db2869c3395a3b0502d05e2516446f71f85b0190600090565b7f4e487b7100000000000000000000000000000000000000000000000000000000600052603260045260246000fd5b15610de757565b60646040517f08c379a000000000000000000000000000000000000000000000000000000000815260206004820152600f60248201527f4333476f763a206f6e6c7920476f7600000000000000000000000000000000006044820152fd5b90601f7fffffffffffffffffffffffffffffffffffffffffffffffffffffffffffffffe0910116810190811067ffffffffffffffff821117610e8657604052565b7f4e487b7100000000000000000000000000000000000000000000000000000000600052604160045260246000fd5b7fffffffffffffffffffffffffffffffffffffffffffffffffffffffffffffffff8114610ee25760010190565b7f4e487b7100000000000000000000000000000000000000000000000000000000600052601160045260246000fd5b73ffffffffffffffffffffffffffffffffffffffff809116906000828152600260205260ff6040822054161561107d578281526002602052604081207fffffffffffffffffffffffffffffffffffffffffffffffffffffffffffffff008154169055600390815490805b828110610f8a57505050505050565b8585610f9583610d7a565b905490871b1c1614610faf57610faa90610eb5565b610f7b565b9091929394507fffffffffffffffffffffffffffffffffffffffffffffffffffffffffffffffff92838101908111611050579061086386610ff2610fff94610d7a565b905490881b1c1691610d7a565b82549081156110235750019161101483610d7a565b9091825491841b1b1916905555565b807f4e487b7100000000000000000000000000000000000000000000000000000000602492526031600452fd5b6024837f4e487b710000000000000000000000000000000000000000000000000000000081526011600452fd5b60646040517f08c379a000000000000000000000000000000000000000000000000000000000815260206004820152601c60248201527f433343616c6c65723a204f70657261746f72206e6f7420666f756e64000000006044820152fd5b156110e257565b60646040517f08c379a000000000000000000000000000000000000000000000000000000000815260206004820152601460248201527f4333476f763a206f6e6c79204f70657261746f720000000000000000000000006044820152fd5b601f82602094937fffffffffffffffffffffffffffffffffffffffffffffffffffffffffffffffe0938186528686013760008582860101520116010190565b969491936111cf936111dd97926111f09d9b9c9a9673ffffffffffffffffffffffffffffffffffffffff8092168b521660208a015260408901526060880152610100806080890152870191611140565b9184830360a0860152611140565b9360c082015260e0818503910152611140565b9056fea2646970667358221220fe60aaea851407881a665aa3cd467b4ab39cb1f4de41c4afb71a6047a08ff9bf64736f6c63430008140033","linkReferences":{}},"methodIdentifiers":{"addOperator(address)":"9870d7fe","admin()":"f851a440","applyGov()":"459c7695","calcCallerEncode(address,uint256,string,string,bytes)":"f2c27184","calcCallerUUID(address,uint256,string,string,bytes)":"82e7a58a","changeGov(address)":"a962ef1e","completedSwapin(bytes32)":"9bc4fe69","currentNonce()":"adb610a3","genUUID(uint256,string,string,bytes)":"f1a9bff9","getAllOperators()":"d911c632","gov()":"12d43a51","isCompleted(bytes32)":"12cab545","isOperator(address)":"6d70f7ae","isUUIDExist(bytes32)":"0b68f721","operators(uint256)":"e28d4906","pendingGov()":"25240810","registerUUID(bytes32)":"ae74db05","revokeOperator(address)":"fad8b32a","revokeSwapin(bytes32)":"62ae45ab","uuid2Nonce(bytes32)":"1547d532"},"id":18}