{"abi":[{"type":"function","name":"UPGRADE_INTERFACE_VERSION","inputs":[],"outputs":[{"name":"","type":"string","internalType":"string"}],"stateMutability":"view"},{"type":"function","name":"addOperator","inputs":[{"name":"_op","type":"address","internalType":"address"}],"outputs":[],"stateMutability":"nonpayable"},{"type":"function","name":"applyGov","inputs":[],"outputs":[],"stateMutability":"nonpayable"},{"type":"function","name":"c3Fallback","inputs":[{"name":"_dappID","type":"uint256","internalType":"uint256"},{"name":"_message","type":"tuple","internalType":"struct C3CallerStructLib.C3EvmMessage","components":[{"name":"uuid","type":"bytes32","internalType":"bytes32"},{"name":"to","type":"address","internalType":"address"},{"name":"fromChainID","type":"string","internalType":"string"},{"name":"sourceTx","type":"string","internalType":"string"},{"name":"fallbackTo","type":"string","internalType":"string"},{"name":"data","type":"bytes","internalType":"bytes"}]}],"outputs":[],"stateMutability":"nonpayable"},{"type":"function","name":"c3broadcast","inputs":[{"name":"_dappID","type":"uint256","internalType":"uint256"},{"name":"_to","type":"string[]","internalType":"string[]"},{"name":"_toChainIDs","type":"string[]","internalType":"string[]"},{"name":"_data","type":"bytes","internalType":"bytes"}],"outputs":[],"stateMutability":"nonpayable"},{"type":"function","name":"c3call","inputs":[{"name":"_dappID","type":"uint256","internalType":"uint256"},{"name":"_to","type":"string","internalType":"string"},{"name":"_toChainID","type":"string","internalType":"string"},{"name":"_data","type":"bytes","internalType":"bytes"},{"name":"_extra","type":"bytes","internalType":"bytes"}],"outputs":[],"stateMutability":"nonpayable"},{"type":"function","name":"c3call","inputs":[{"name":"_dappID","type":"uint256","internalType":"uint256"},{"name":"_to","type":"string","internalType":"string"},{"name":"_toChainID","type":"string","internalType":"string"},{"name":"_data","type":"bytes","internalType":"bytes"}],"outputs":[],"stateMutability":"nonpayable"},{"type":"function","name":"c3callWithVersion","inputs":[{"name":"_dappID","type":"uint256","internalType":"uint256"},{"name":"_version","type":"uint256","internalType":"uint256"},{"name":"_to","type":"string","internalType":"string"},{"name":"_toChainID","type":"string","internalType":"string"},{"name":"_data","type":"bytes","internalType":"bytes"}],"outputs":[],"stateMutability":"nonpayable"},{"type":"function","name":"c3caller","inputs":[],"outputs":[{"name":"","type":"address","internalType":"address"}],"stateMutability":"view"},{"type":"function","name":"c3callerWithVersion","inputs":[{"name":"","type":"uint256","internalType":"uint256"}],"outputs":[{"name":"","type":"address","internalType":"address"}],"stateMutability":"view"},{"type":"function","name":"changeGov","inputs":[{"name":"_gov","type":"address","internalType":"address"}],"outputs":[],"stateMutability":"nonpayable"},{"type":"function","name":"context","inputs":[],"outputs":[{"name":"swapID","type":"bytes32","internalType":"bytes32"},{"name":"fromChainID","type":"string","internalType":"string"},{"name":"sourceTx","type":"string","internalType":"string"}],"stateMutability":"view"},{"type":"function","name":"execute","inputs":[{"name":"_dappID","type":"uint256","internalType":"uint256"},{"name":"_message","type":"tuple","internalType":"struct C3CallerStructLib.C3EvmMessage","components":[{"name":"uuid","type":"bytes32","internalType":"bytes32"},{"name":"to","type":"address","internalType":"address"},{"name":"fromChainID","type":"string","internalType":"string"},{"name":"sourceTx","type":"string","internalType":"string"},{"name":"fallbackTo","type":"string","internalType":"string"},{"name":"data","type":"bytes","internalType":"bytes"}]}],"outputs":[],"stateMutability":"nonpayable"},{"type":"function","name":"getAllOperators","inputs":[],"outputs":[{"name":"","type":"address[]","internalType":"address[]"}],"stateMutability":"view"},{"type":"function","name":"gov","inputs":[],"outputs":[{"name":"","type":"address","internalType":"address"}],"stateMutability":"view"},{"type":"function","name":"initialize","inputs":[{"name":"_c3caller","type":"address","internalType":"address"}],"outputs":[],"stateMutability":"nonpayable"},{"type":"function","name":"isCaller","inputs":[{"name":"sender","type":"address","internalType":"address"}],"outputs":[{"name":"","type":"bool","internalType":"bool"}],"stateMutability":"view"},{"type":"function","name":"isExecutor","inputs":[{"name":"sender","type":"address","internalType":"address"}],"outputs":[{"name":"","type":"bool","internalType":"bool"}],"stateMutability":"view"},{"type":"function","name":"isOperator","inputs":[{"name":"","type":"address","internalType":"address"}],"outputs":[{"name":"","type":"bool","internalType":"bool"}],"stateMutability":"view"},{"type":"function","name":"operators","inputs":[{"name":"","type":"uint256","internalType":"uint256"}],"outputs":[{"name":"","type":"address","internalType":"address"}],"stateMutability":"view"},{"type":"function","name":"owner","inputs":[],"outputs":[{"name":"","type":"address","internalType":"address"}],"stateMutability":"view"},{"type":"function","name":"pendingGov","inputs":[],"outputs":[{"name":"","type":"address","internalType":"address"}],"stateMutability":"view"},{"type":"function","name":"proxiableUUID","inputs":[],"outputs":[{"name":"","type":"bytes32","internalType":"bytes32"}],"stateMutability":"view"},{"type":"function","name":"renounceOwnership","inputs":[],"outputs":[],"stateMutability":"nonpayable"},{"type":"function","name":"revokeOperator","inputs":[{"name":"_op","type":"address","internalType":"address"}],"outputs":[],"stateMutability":"nonpayable"},{"type":"function","name":"setCallerVersion","inputs":[{"name":"version","type":"uint256","internalType":"uint256"},{"name":"caller","type":"address","internalType":"address"}],"outputs":[],"stateMutability":"nonpayable"},{"type":"function","name":"transferOwnership","inputs":[{"name":"newOwner","type":"address","internalType":"address"}],"outputs":[],"stateMutability":"nonpayable"},{"type":"function","name":"upgradeToAndCall","inputs":[{"name":"newImplementation","type":"address","internalType":"address"},{"name":"data","type":"bytes","internalType":"bytes"}],"outputs":[],"stateMutability":"payable"},{"type":"event","name":"ApplyGov","inputs":[{"name":"oldGov","type":"address","indexed":true,"internalType":"address"},{"name":"newGov","type":"address","indexed":true,"internalType":"address"},{"name":"timestamp","type":"uint256","indexed":false,"internalType":"uint256"}],"anonymous":false},{"type":"event","name":"ChangeGov","inputs":[{"name":"oldGov","type":"address","indexed":true,"internalType":"address"},{"name":"newGov","type":"address","indexed":true,"internalType":"address"},{"name":"timestamp","type":"uint256","indexed":false,"internalType":"uint256"}],"anonymous":false},{"type":"event","name":"Initialized","inputs":[{"name":"version","type":"uint64","indexed":false,"internalType":"uint64"}],"anonymous":false},{"type":"event","name":"OwnershipTransferred","inputs":[{"name":"previousOwner","type":"address","indexed":true,"internalType":"address"},{"name":"newOwner","type":"address","indexed":true,"internalType":"address"}],"anonymous":false},{"type":"event","name":"Upgraded","inputs":[{"name":"implementation","type":"address","indexed":true,"internalType":"address"}],"anonymous":false},{"type":"error","name":"AddressEmptyCode","inputs":[{"name":"target","type":"address","internalType":"address"}]},{"type":"error","name":"ERC1967InvalidImplementation","inputs":[{"name":"implementation","type":"address","internalType":"address"}]},{"type":"error","name":"ERC1967NonPayable","inputs":[]},{"type":"error","name":"FailedInnerCall","inputs":[]},{"type":"error","name":"InvalidInitialization","inputs":[]},{"type":"error","name":"NotInitializing","inputs":[]},{"type":"error","name":"OwnableInvalidOwner","inputs":[{"name":"owner","type":"address","internalType":"address"}]},{"type":"error","name":"OwnableUnauthorizedAccount","inputs":[{"name":"account","type":"address","internalType":"address"}]},{"type":"error","name":"UUPSUnauthorizedCallContext","inputs":[]},{"type":"error","name":"UUPSUnsupportedProxiableUUID","inputs":[{"name":"slot","type":"bytes32","internalType":"bytes32"}]}],"bytecode":{"object":"0x60a0806040523461002a573060805261220590816100308239608051818181610fe001526110a30152f35b600080fdfe6040608081526004908136101561001557600080fd5b600091823560e01c91826306757cbc146116cd57826312d43a511461169a57826325240810146116655783836327a63fd8146115335783633179bd961461145257508263459c76951461135d5782634f1ef2861461105557826352d1902d14610fb75782636d70f7ae14610f81578263715018a614610ee05782637ac07dcc14610e9d578383637c6fe7aa14610dca575082638da5cb5b14610d7657826398011f3e14610cff5782639870d7fe14610b13578263a962ef1e14610a7c578263ad3cb1cc146109e057838363ba44c73a1461094a57508263c4d66de81461061d578263d0496d6a1461050b578263d2f09c59146104d8578263d4524e561461049a578263d911c632146103bc579083918363debfda301461036f578363e28d49061461031d578363ec6a8b7d146101d5575050508063f2fde38b146101ab5763fad8b32a1461016257600080fd5b346101a85760206003193601126101a8576101a561017e6118f0565b6101a073ffffffffffffffffffffffffffffffffffffffff8454163314611a10565b611d8b565b80f35b80fd5b50346101a85760206003193601126101a8576101a56101c86118f0565b6101d0612066565b611fa3565b82935034610319576003196080813601126103145767ffffffffffffffff906024358281116103105761020b90369086016119df565b60449291923584811161030c5761022590369088016119df565b90946064359081116103085761023e90369089016117bd565b97909573ffffffffffffffffffffffffffffffffffffffff82541694853b15610304576102b9998b986102c96102d8948b978d519e8f9c8d9b8c9a7feea2d657000000000000000000000000000000000000000000000000000000008c528035908c01523360248c015260a060448c015260a48b0191611bb7565b91868984030160648a0152611bb7565b92858403016084860152611a75565b03925af19081156102fb57506102eb5750f35b6102f4906117eb565b6101a85780f35b513d84823e3d90fd5b8a80fd5b8880fd5b8780fd5b8580fd5b505050fd5b5050fd5b903461036b57602060031936011261036b5735916003548310156101a8575073ffffffffffffffffffffffffffffffffffffffff61035c602093611979565b90549060031b1c169051908152f35b8280fd5b9050346103b85760206003193601126103b85760ff8160209373ffffffffffffffffffffffffffffffffffffffff6103a56118f0565b1681526002855220541690519015158152f35b5080fd5b83346101a857806003193601126101a8579080519182906003549182855260208095018093600384527fc2575a0e9e593c00f959f8c92f12db2869c3395a3b0502d05e2516446f71f85b90845b818110610470575050508161041f91038261182e565b83519485948186019282875251809352850193925b82811061044357505050500390f35b835173ffffffffffffffffffffffffffffffffffffffff1685528695509381019392810192600101610434565b825473ffffffffffffffffffffffffffffffffffffffff1684529288019260019283019201610409565b91503461036b57602060031936011261036b578160209373ffffffffffffffffffffffffffffffffffffffff92358152600585522054169051908152f35b83346101a857806003193601126101a8575073ffffffffffffffffffffffffffffffffffffffff60209254169051908152f35b9091503461036b578260031936011261036b578273ffffffffffffffffffffffffffffffffffffffff8354168251938480927fd0496d6a0000000000000000000000000000000000000000000000000000000082525afa80156106135783928480926105a5575b5050906105a19161059482519586958652606060208701526060860190611936565b9184830390850152611936565b0390f35b93509350503d8083853e6105b9818561182e565b830160608482031261036b5783519360208101519067ffffffffffffffff9182811161031057836105eb918301611b22565b94848201519283116101a8575091610608916105a1949301611b22565b939293909138610572565b81513d85823e3d90fd5b91503461036b57602060031936011261036b576106386118f0565b7ff0c57e16840df040f15088dc2f81fe391c3923bec73e23a9662efc9c229c6a008054909267ffffffffffffffff8083169383871c60ff161593851580610943575b60018097149081610939575b159081610930575b50610908577fffffffffffffffffffffffffffffffffffffffffffffffff00000000000000009085878383161789556108d3575b5086549060ff828a1c161593821687811591826108cb575b1490816108c1575b1590816108b8575b506108905781168617875573ffffffffffffffffffffffffffffffffffffffff91908361085b575b507fffffffffffffffffffffffff00000000000000000000000000000000000000009233848b5416178a5588514281528a7fff88f8815b3f9faf85529ba09d2f7ff0d9c726c11cc863fd245156986014259060203393a3610807575b169082541617905561077e6120d6565b6107866120d6565b61078e6120d6565b61079733611fa3565b61079f612066565b6107a833611fa3565b6107b0578380f35b7fc7f505b2f371ae2175ee4913f4499e1f2633a7b5936321eed1cdaeb6115181d292827fffffffffffffffffffffffffffffffffffffffffffffff00ffffffffffffffff6020945416905551908152a13880808380f35b7fffffffffffffffffffffffffffffffffffffffffffffff00ffffffffffffffff87541687557fc7f505b2f371ae2175ee4913f4499e1f2633a7b5936321eed1cdaeb6115181d260208951888152a161076e565b7fffffffffffffffffffffffffffffffffffffffffffffff000000000000000000166801000000000000000117875538610712565b8489517ff92ee8a9000000000000000000000000000000000000000000000000000000008152fd5b905015386106ea565b303b1591506106e2565b8692506106da565b7fffffffffffffffffffffffffffffffffffffffffffffff0000000000000000001668010000000000000001178755386106c2565b8388517ff92ee8a9000000000000000000000000000000000000000000000000000000008152fd5b9050153861068e565b303b159150610686565b508461067a565b9250346103195761095a36611787565b73ffffffffffffffffffffffffffffffffffffffff80865416331480156109cb575b61098590611c38565b845416803b15610310576102d8948680948651978895869485937f9d40ae4400000000000000000000000000000000000000000000000000000000855233918501611c9d565b5033865260026020528386205460ff1661097c565b83346101a857806003193601126101a8575080519080820182811067ffffffffffffffff821117610a4e576105a193508152600582527f352e302e30000000000000000000000000000000000000000000000000000000602083015251918291602083526020830190611936565b6041847f4e487b71000000000000000000000000000000000000000000000000000000006000525260246000fd5b8390346103b85760206003193601126103b857610a976118f0565b7fd098c548c6851f1e61d4e1364996748b40477bb1abe90254bd71352396b2b7be602073ffffffffffffffffffffffffffffffffffffffff8086541693610adf853314611a10565b1693847fffffffffffffffffffffffff0000000000000000000000000000000000000000600154161760015551428152a380f35b8390346103b8576020908160031936011261036b57610b306118f0565b9173ffffffffffffffffffffffffffffffffffffffff610b54818654163314611a10565b83168015610ca4578085526002825260ff8386205416610c2257845260029052822080547fffffffffffffffffffffffffffffffffffffffffffffffffffffffffffffff001660011790556003549268010000000000000000841015610bf65750610bc98360016101a5949501600355611979565b90919082549060031b9173ffffffffffffffffffffffffffffffffffffffff809116831b921b1916179055565b8260416024927f4e487b7100000000000000000000000000000000000000000000000000000000835252fd5b608486838551917f08c379a0000000000000000000000000000000000000000000000000000000008352820152602160248201527f433343616c6c65723a204f70657261746f7220616c726561647920657869737460448201527f73000000000000000000000000000000000000000000000000000000000000006064820152fd5b60648683808651927f08c379a000000000000000000000000000000000000000000000000000000000845283015260248201527f433343616c6c65723a204f70657261746f7220697320616464726573732830296044820152fd5b9091503461036b578060031936011261036b576024359173ffffffffffffffffffffffffffffffffffffffff8316809303610d7157610d3c612066565b35835260056020528220907fffffffffffffffffffffffff000000000000000000000000000000000000000082541617905580f35b600080fd5b8390346103b857816003193601126103b85760209073ffffffffffffffffffffffffffffffffffffffff7f9016d09d72d40fdae2fd8ceac6b6234c7706214fd39c1cd1e609a0528c19930054169051908152f35b9250346103195760806003193601126103195767ffffffffffffffff91602435838111610e9957610dfe90369083016117bd565b90604435858111610e9557610e1690369085016117bd565b91909560643590811161030c57610e3090369086016117bd565b9473ffffffffffffffffffffffffffffffffffffffff81541693843b15610e9157899687936102d8928a519b8c998a9889977f27ab5b7b00000000000000000000000000000000000000000000000000000000895233908035908a01611ab4565b8980fd5b8680fd5b8480fd5b91503461036b57602060031936011261036b5760209250610ebc6118f0565b9073ffffffffffffffffffffffffffffffffffffffff809154169116149051908152f35b83346101a857806003193601126101a857610ef9612066565b600073ffffffffffffffffffffffffffffffffffffffff7f9016d09d72d40fdae2fd8ceac6b6234c7706214fd39c1cd1e609a0528c1993008054907fffffffffffffffffffffffff000000000000000000000000000000000000000082169055167f8be0079c531659141344cd1fd0a4f28419497f9722a3daafe3b4186f6b6457e08280a380f35b8390346103b85760206003193601126103b85760ff8160209373ffffffffffffffffffffffffffffffffffffffff6103a56118f0565b83346101a857806003193601126101a8575073ffffffffffffffffffffffffffffffffffffffff7f000000000000000000000000000000000000000000000000000000000000000016300361102f57602090517f360894a13ba1a3210667c828492db98dca3e2076cc3735a920a3ca505d382bbc8152f35b517fe07c8dba000000000000000000000000000000000000000000000000000000008152fd5b8091925060031936011261036b5761106b6118f0565b9060243567ffffffffffffffff8111610e995761108b90369085016118a9565b73ffffffffffffffffffffffffffffffffffffffff807f00000000000000000000000000000000000000000000000000000000000000001680301490811561132f575b506113075780865416331480156112f2575b6110e990611c38565b8316928251907f52d1902d00000000000000000000000000000000000000000000000000000000825260209182818881895afa8891816112c3575b5061115857602487878751917f4c9c8ce3000000000000000000000000000000000000000000000000000000008352820152fd5b7f360894a13ba1a3210667c828492db98dca3e2076cc3735a920a3ca505d382bbc969295919396908181036112945750833b156112655780547fffffffffffffffffffffffff0000000000000000000000000000000000000000168217905583518792917fbc7cd75a20ee27fd9adebab32041f755214dbc6bffa90cc0225b39da2e5c2d3b8480a286511561122f57505080858561122197519101845af4913d15611225573d61121361120a8261186f565b9251928361182e565b81528581943d92013e61212f565b5080f35b506060925061212f565b945094505050503461124057505080f35b7fb398979f000000000000000000000000000000000000000000000000000000008152fd5b602483838751917f4c9c8ce3000000000000000000000000000000000000000000000000000000008352820152fd5b836024918751917faa1d49a4000000000000000000000000000000000000000000000000000000008352820152fd5b9091508381813d83116112eb575b6112db818361182e565b8101031261030857519038611124565b503d6112d1565b5033865260026020528286205460ff166110e0565b8483517fe07c8dba000000000000000000000000000000000000000000000000000000008152fd5b9050817f360894a13ba1a3210667c828492db98dca3e2076cc3735a920a3ca505d382bbc54161415386110ce565b8382346103b857816003193601126103b8576001549073ffffffffffffffffffffffffffffffffffffffff82169081156113f5575060207fff88f8815b3f9faf85529ba09d2f7ff0d9c726c11cc863fd2451569860142590918480968154957fffffffffffffffffffffffff00000000000000000000000000000000000000009084828916178455166001555194428652161792a380f35b60649060208651917f08c379a0000000000000000000000000000000000000000000000000000000008352820152601760248201527f4333476f763a20656d7074792070656e64696e67476f760000000000000000006044820152fd5b9250346103195760a06003193601126103195767ffffffffffffffff91604435838111610e995761148690369083016117bd565b90606435858111610e955761149e90369085016117bd565b91909560843590811161030c576114b890369086016117bd565b9473ffffffffffffffffffffffffffffffffffffffff6114dc818b54163314611a10565b6024358a526005602052878a20541693843b15610e9157899687936102d8928a519b8c998a9889977f27ab5b7b00000000000000000000000000000000000000000000000000000000895233908035908a01611ab4565b9250346103195760031960a0813601126103145767ffffffffffffffff6024358181116103105761156790369086016117bd565b60449291923582811161030c5761158190369088016117bd565b96606435848111610e915761159990369083016117bd565b969094608435908111610304576115b390369084016118a9565b9073ffffffffffffffffffffffffffffffffffffffff83541695863b15611661578b9889958b519c8d9a8b998a987f27ab5b7b000000000000000000000000000000000000000000000000000000008a528035908a01523360248a01526044890160c0905260c489019061162692611a75565b908588830301606489015261163a92611a75565b908386830301608487015261164e92611a75565b908382030160a48401526102d891611936565b8b80fd5b8390346103b857816003193601126103b85760209073ffffffffffffffffffffffffffffffffffffffff600154169051908152f35b8390346103b857816003193601126103b85773ffffffffffffffffffffffffffffffffffffffff60209254169051908152f35b9091503461036b57826116df36611787565b909373ffffffffffffffffffffffffffffffffffffffff8084541633148015611772575b61170c90611c38565b81541690813b1561176e5783611751968651978895869485937f04700cc400000000000000000000000000000000000000000000000000000000855233918501611c9d565b03925af19081156102fb5750611765575080f35b6101a5906117eb565b8380fd5b5033845260026020528484205460ff16611703565b90600319604081840112610d7157600435926024359167ffffffffffffffff8311610d71578260c092030112610d715760040190565b9181601f84011215610d715782359167ffffffffffffffff8311610d715760208381860195010111610d7157565b67ffffffffffffffff81116117ff57604052565b7f4e487b7100000000000000000000000000000000000000000000000000000000600052604160045260246000fd5b90601f7fffffffffffffffffffffffffffffffffffffffffffffffffffffffffffffffe0910116810190811067ffffffffffffffff8211176117ff57604052565b67ffffffffffffffff81116117ff57601f017fffffffffffffffffffffffffffffffffffffffffffffffffffffffffffffffe01660200190565b81601f82011215610d71578035906118c08261186f565b926118ce604051948561182e565b82845260208383010111610d7157816000926020809301838601378301015290565b6004359073ffffffffffffffffffffffffffffffffffffffff82168203610d7157565b60005b8381106119265750506000910152565b8181015183820152602001611916565b907fffffffffffffffffffffffffffffffffffffffffffffffffffffffffffffffe0601f60209361197281518092818752878088019101611913565b0116010190565b6003548110156119b05760036000527fc2575a0e9e593c00f959f8c92f12db2869c3395a3b0502d05e2516446f71f85b0190600090565b7f4e487b7100000000000000000000000000000000000000000000000000000000600052603260045260246000fd5b9181601f84011215610d715782359167ffffffffffffffff8311610d71576020808501948460051b010111610d7157565b15611a1757565b60646040517f08c379a000000000000000000000000000000000000000000000000000000000815260206004820152600f60248201527f4333476f763a206f6e6c7920476f7600000000000000000000000000000000006044820152fd5b601f82602094937fffffffffffffffffffffffffffffffffffffffffffffffffffffffffffffffe0938186528686013760008582860101520116010190565b969491611b03936020999573ffffffffffffffffffffffffffffffffffffffff611af593611b119a958c52168b8b015260c060408b015260c08a0191611a75565b918783036060890152611a75565b918483036080860152611a75565b9060a0818303910152600081520190565b81601f82011215610d71578051611b388161186f565b92611b46604051948561182e565b81845260208284010111610d7157611b649160208085019101611913565b90565b90357fffffffffffffffffffffffffffffffffffffffffffffffffffffffffffffffe182360301811215610d7157016020813591019167ffffffffffffffff8211610d71578136038313610d7157565b9082818152602080910193818360051b82010194846000925b858410611be1575050505050505090565b909192939495968580611c27837fffffffffffffffffffffffffffffffffffffffffffffffffffffffffffffffe08660019603018852611c218c88611b67565b90611a75565b990194019401929594939190611bd0565b15611c3f57565b60646040517f08c379a000000000000000000000000000000000000000000000000000000000815260206004820152601460248201527f4333476f763a206f6e6c79204f70657261746f720000000000000000000000006044820152fd5b929190835273ffffffffffffffffffffffffffffffffffffffff809116602084015260606040840152813560608401526020820135908116809103610d715782610100916080611b64950152611d0b611cf96040850185611b67565b60c060a0850152610120840191611a75565b90611d7c611d71611d54611d226060880188611b67565b7fffffffffffffffffffffffffffffffffffffffffffffffffffffffffffffffa09691878784030160c0880152611a75565b611d616080880188611b67565b90868684030160e0870152611a75565b9460a0810190611b67565b93909282860301910152611a75565b73ffffffffffffffffffffffffffffffffffffffff80911690600090828252600260205260ff60408320541615611f45578282526002602052604082207fffffffffffffffffffffffffffffffffffffffffffffffffffffffffffffff00815416905560038054835b818110611e0357505050505050565b8584611e0e83611979565b905490861b1c1614611e76577fffffffffffffffffffffffffffffffffffffffffffffffffffffffffffffffff8114611e4957600101611df4565b6024857f4e487b710000000000000000000000000000000000000000000000000000000081526011600452fd5b909294507fffffffffffffffffffffffffffffffffffffffffffffffffffffffffffffffff93919392838101908111611f185790610bc986611eba611ec794611979565b905490881b1c1691611979565b8254908115611eeb57500191611edc83611979565b9091825491841b1b1916905555565b807f4e487b7100000000000000000000000000000000000000000000000000000000602492526031600452fd5b6024837f4e487b710000000000000000000000000000000000000000000000000000000081526011600452fd5b60646040517f08c379a000000000000000000000000000000000000000000000000000000000815260206004820152601c60248201527f433343616c6c65723a204f70657261746f72206e6f7420666f756e64000000006044820152fd5b73ffffffffffffffffffffffffffffffffffffffff809116908115612035577f9016d09d72d40fdae2fd8ceac6b6234c7706214fd39c1cd1e609a0528c199300805490837fffffffffffffffffffffffff00000000000000000000000000000000000000008316179055167f8be0079c531659141344cd1fd0a4f28419497f9722a3daafe3b4186f6b6457e0600080a3565b60246040517f1e4fbdf700000000000000000000000000000000000000000000000000000000815260006004820152fd5b73ffffffffffffffffffffffffffffffffffffffff7f9016d09d72d40fdae2fd8ceac6b6234c7706214fd39c1cd1e609a0528c199300541633036120a657565b60246040517f118cdaa7000000000000000000000000000000000000000000000000000000008152336004820152fd5b60ff7ff0c57e16840df040f15088dc2f81fe391c3923bec73e23a9662efc9c229c6a005460401c161561210557565b60046040517fd7e6bcf8000000000000000000000000000000000000000000000000000000008152fd5b9061216e575080511561214457805190602001fd5b60046040517f1425ea42000000000000000000000000000000000000000000000000000000008152fd5b815115806121c6575b61217f575090565b60249073ffffffffffffffffffffffffffffffffffffffff604051917f9996b315000000000000000000000000000000000000000000000000000000008352166004820152fd5b50803b1561217756fea26469706673582212208dfb51103521f9d41b9ce8a031805eeefac691f4c6e10615a808293f786cd55264736f6c63430008140033","linkReferences":{}},"methodIdentifiers":{"UPGRADE_INTERFACE_VERSION()":"ad3cb1cc","addOperator(address)":"9870d7fe","applyGov()":"459c7695","c3Fallback(uint256,(bytes32,address,string,string,string,bytes))":"06757cbc","c3broadcast(uint256,string[],string[],bytes)":"ec6a8b7d","c3call(uint256,string,string,bytes)":"7c6fe7aa","c3call(uint256,string,string,bytes,bytes)":"27a63fd8","c3callWithVersion(uint256,uint256,string,string,bytes)":"3179bd96","c3caller()":"d2f09c59","c3callerWithVersion(uint256)":"d4524e56","changeGov(address)":"a962ef1e","context()":"d0496d6a","execute(uint256,(bytes32,address,string,string,string,bytes))":"ba44c73a","getAllOperators()":"d911c632","gov()":"12d43a51","initialize(address)":"c4d66de8","isCaller(address)":"7ac07dcc","isExecutor(address)":"debfda30","isOperator(address)":"6d70f7ae","operators(uint256)":"e28d4906","owner()":"8da5cb5b","pendingGov()":"25240810","proxiableUUID()":"52d1902d","renounceOwnership()":"715018a6","revokeOperator(address)":"fad8b32a","setCallerVersion(uint256,address)":"98011f3e","transferOwnership(address)":"f2fde38b","upgradeToAndCall(address,bytes)":"4f1ef286"},"id":3}