{"abi":[{"type":"function","name":"getFallbackCallData","inputs":[{"name":"_dappID","type":"uint256","internalType":"uint256"},{"name":"_data","type":"bytes","internalType":"bytes"},{"name":"result","type":"bytes","internalType":"bytes"}],"outputs":[{"name":"","type":"bytes","internalType":"bytes"}],"stateMutability":"pure"}],"bytecode":{"object":"0x60808060405234610016576102db908161001c8239f35b600080fdfe6080604052600436101561001257600080fd5b6000803560e01c63e643efff1461002857600080fd5b346101565760607ffffffffffffffffffffffffffffffffffffffffffffffffffffffffffffffffc3601126101565767ffffffffffffffff602435818111610159576100789036906004016101cd565b91604435918211610156576101526100e261013e8561011261009d36600489016101cd565b6040519485937fb121f51d0000000000000000000000000000000000000000000000000000000060208601526004356024860152606060448601526084850190610247565b907fffffffffffffffffffffffffffffffffffffffffffffffffffffffffffffffdc848303016064850152610247565b037fffffffffffffffffffffffffffffffffffffffffffffffffffffffffffffffe0810183528261015d565b604051918291602083526020830190610247565b0390f35b80fd5b8280fd5b90601f7fffffffffffffffffffffffffffffffffffffffffffffffffffffffffffffffe0910116810190811067ffffffffffffffff82111761019e57604052565b7f4e487b7100000000000000000000000000000000000000000000000000000000600052604160045260246000fd5b81601f820112156102425780359067ffffffffffffffff821161019e576040519261022060207fffffffffffffffffffffffffffffffffffffffffffffffffffffffffffffffe0601f860116018561015d565b8284526020838301011161024257816000926020809301838601378301015290565b600080fd5b919082519283825260005b8481106102915750507fffffffffffffffffffffffffffffffffffffffffffffffffffffffffffffffe0601f8460006020809697860101520116010190565b60208183018101518483018201520161025256fea2646970667358221220b3783ce366bcc5e144d6057bdf64dffcae73905f83d88ad151b6bbf715e5bd3b64736f6c63430008140033","linkReferences":{}},"methodIdentifiers":{"getFallbackCallData(uint256,bytes,bytes)":"e643efff"},"id":2}