{"abi":[{"type":"constructor","inputs":[],"stateMutability":"nonpayable"},{"type":"function","name":"addDappAddr","inputs":[{"name":"_dappID","type":"uint256","internalType":"uint256"},{"name":"_whitelist","type":"string[]","internalType":"string[]"}],"outputs":[],"stateMutability":"nonpayable"},{"type":"function","name":"addOperator","inputs":[{"name":"_op","type":"address","internalType":"address"}],"outputs":[],"stateMutability":"nonpayable"},{"type":"function","name":"addTxSender","inputs":[{"name":"_dappID","type":"uint256","internalType":"uint256"},{"name":"_addrs","type":"string[]","internalType":"string[]"},{"name":"_pubkeys","type":"string[]","internalType":"string[]"}],"outputs":[],"stateMutability":"nonpayable"},{"type":"function","name":"applyGov","inputs":[],"outputs":[],"stateMutability":"nonpayable"},{"type":"function","name":"changeGov","inputs":[{"name":"_gov","type":"address","internalType":"address"}],"outputs":[],"stateMutability":"nonpayable"},{"type":"function","name":"charging","inputs":[{"name":"_dappIDs","type":"uint256[]","internalType":"uint256[]"},{"name":"_tokens","type":"address[]","internalType":"address[]"},{"name":"_amounts","type":"uint256[]","internalType":"uint256[]"}],"outputs":[],"stateMutability":"nonpayable"},{"type":"function","name":"dappID","inputs":[],"outputs":[{"name":"","type":"uint256","internalType":"uint256"}],"stateMutability":"view"},{"type":"function","name":"dappStakePool","inputs":[{"name":"","type":"uint256","internalType":"uint256"},{"name":"","type":"address","internalType":"address"}],"outputs":[{"name":"","type":"uint256","internalType":"uint256"}],"stateMutability":"view"},{"type":"function","name":"delWhitelists","inputs":[{"name":"_dappID","type":"uint256","internalType":"uint256"},{"name":"_whitelist","type":"string[]","internalType":"string[]"}],"outputs":[],"stateMutability":"nonpayable"},{"type":"function","name":"deposit","inputs":[{"name":"_dappID","type":"uint256","internalType":"uint256"},{"name":"_token","type":"address","internalType":"address"},{"name":"_amount","type":"uint256","internalType":"uint256"}],"outputs":[],"stateMutability":"nonpayable"},{"type":"function","name":"disableFeeCurrency","inputs":[{"name":"_token","type":"address","internalType":"address"}],"outputs":[],"stateMutability":"nonpayable"},{"type":"function","name":"feeCurrencies","inputs":[{"name":"","type":"address","internalType":"address"}],"outputs":[{"name":"","type":"uint256","internalType":"uint256"}],"stateMutability":"view"},{"type":"function","name":"getAllOperators","inputs":[],"outputs":[{"name":"","type":"address[]","internalType":"address[]"}],"stateMutability":"view"},{"type":"function","name":"getTxSenders","inputs":[{"name":"_dappID","type":"uint256","internalType":"uint256"}],"outputs":[{"name":"","type":"string[]","internalType":"string[]"}],"stateMutability":"view"},{"type":"function","name":"gov","inputs":[],"outputs":[{"name":"","type":"address","internalType":"address"}],"stateMutability":"view"},{"type":"function","name":"initDappConfig","inputs":[{"name":"_feeToken","type":"address","internalType":"address"},{"name":"_appDomain","type":"string","internalType":"string"},{"name":"_email","type":"string","internalType":"string"},{"name":"_whitelist","type":"string[]","internalType":"string[]"}],"outputs":[],"stateMutability":"nonpayable"},{"type":"function","name":"isOperator","inputs":[{"name":"","type":"address","internalType":"address"}],"outputs":[{"name":"","type":"bool","internalType":"bool"}],"stateMutability":"view"},{"type":"function","name":"operators","inputs":[{"name":"","type":"uint256","internalType":"uint256"}],"outputs":[{"name":"","type":"address","internalType":"address"}],"stateMutability":"view"},{"type":"function","name":"pause","inputs":[],"outputs":[],"stateMutability":"nonpayable"},{"type":"function","name":"paused","inputs":[],"outputs":[{"name":"","type":"bool","internalType":"bool"}],"stateMutability":"view"},{"type":"function","name":"pendingGov","inputs":[],"outputs":[{"name":"","type":"address","internalType":"address"}],"stateMutability":"view"},{"type":"function","name":"removeTxSender","inputs":[{"name":"_dappID","type":"uint256","internalType":"uint256"},{"name":"_addrs","type":"string[]","internalType":"string[]"}],"outputs":[],"stateMutability":"nonpayable"},{"type":"function","name":"resetAdmin","inputs":[{"name":"_dappID","type":"uint256","internalType":"uint256"},{"name":"_newAdmin","type":"address","internalType":"address"}],"outputs":[],"stateMutability":"nonpayable"},{"type":"function","name":"revokeOperator","inputs":[{"name":"_op","type":"address","internalType":"address"}],"outputs":[],"stateMutability":"nonpayable"},{"type":"function","name":"setBlacklists","inputs":[{"name":"_dappID","type":"uint256","internalType":"uint256"},{"name":"_flag","type":"bool","internalType":"bool"}],"outputs":[],"stateMutability":"nonpayable"},{"type":"function","name":"setFeeCurrencies","inputs":[{"name":"_tokens","type":"address[]","internalType":"address[]"},{"name":"_callfee","type":"uint256[]","internalType":"uint256[]"}],"outputs":[],"stateMutability":"nonpayable"},{"type":"function","name":"setSpeFeeConfigByChain","inputs":[{"name":"_token","type":"address","internalType":"address"},{"name":"_chain","type":"string","internalType":"string"},{"name":"_callfee","type":"uint256","internalType":"uint256"}],"outputs":[],"stateMutability":"nonpayable"},{"type":"function","name":"speChainFees","inputs":[{"name":"","type":"string","internalType":"string"},{"name":"","type":"address","internalType":"address"}],"outputs":[{"name":"","type":"uint256","internalType":"uint256"}],"stateMutability":"view"},{"type":"function","name":"unpause","inputs":[],"outputs":[],"stateMutability":"nonpayable"},{"type":"function","name":"updateDAppConfig","inputs":[{"name":"_dappID","type":"uint256","internalType":"uint256"},{"name":"_feeToken","type":"address","internalType":"address"},{"name":"_appID","type":"string","internalType":"string"},{"name":"_email","type":"string","internalType":"string"}],"outputs":[],"stateMutability":"nonpayable"},{"type":"function","name":"updateDappByGov","inputs":[{"name":"_dappID","type":"uint256","internalType":"uint256"},{"name":"_feeToken","type":"address","internalType":"address"},{"name":"_discount","type":"uint256","internalType":"uint256"}],"outputs":[],"stateMutability":"nonpayable"},{"type":"function","name":"withdraw","inputs":[{"name":"_dappID","type":"uint256","internalType":"uint256"},{"name":"_token","type":"address","internalType":"address"},{"name":"_amount","type":"uint256","internalType":"uint256"}],"outputs":[],"stateMutability":"nonpayable"},{"type":"function","name":"withdrawFees","inputs":[{"name":"_tokens","type":"address[]","internalType":"address[]"}],"outputs":[],"stateMutability":"nonpayable"},{"type":"function","name":"withdrawFeesTo","inputs":[{"name":"_tokens","type":"address[]","internalType":"address[]"},{"name":"to","type":"address","internalType":"address"}],"outputs":[],"stateMutability":"nonpayable"},{"type":"event","name":"AddMpcAddr","inputs":[{"name":"dappID","type":"uint256","indexed":true,"internalType":"uint256"},{"name":"addr","type":"string","indexed":false,"internalType":"string"},{"name":"pubkey","type":"string","indexed":false,"internalType":"string"}],"anonymous":false},{"type":"event","name":"ApplyGov","inputs":[{"name":"oldGov","type":"address","indexed":true,"internalType":"address"},{"name":"newGov","type":"address","indexed":true,"internalType":"address"},{"name":"timestamp","type":"uint256","indexed":false,"internalType":"uint256"}],"anonymous":false},{"type":"event","name":"ChangeGov","inputs":[{"name":"oldGov","type":"address","indexed":true,"internalType":"address"},{"name":"newGov","type":"address","indexed":true,"internalType":"address"},{"name":"timestamp","type":"uint256","indexed":false,"internalType":"uint256"}],"anonymous":false},{"type":"event","name":"Charging","inputs":[{"name":"dappID","type":"uint256","indexed":true,"internalType":"uint256"},{"name":"token","type":"address","indexed":true,"internalType":"address"},{"name":"bill","type":"uint256","indexed":false,"internalType":"uint256"},{"name":"amount","type":"uint256","indexed":false,"internalType":"uint256"},{"name":"left","type":"uint256","indexed":false,"internalType":"uint256"}],"anonymous":false},{"type":"event","name":"DelMpcAddr","inputs":[{"name":"dappID","type":"uint256","indexed":true,"internalType":"uint256"},{"name":"addr","type":"string","indexed":false,"internalType":"string"},{"name":"pubkey","type":"string","indexed":false,"internalType":"string"}],"anonymous":false},{"type":"event","name":"Deposit","inputs":[{"name":"dappID","type":"uint256","indexed":true,"internalType":"uint256"},{"name":"token","type":"address","indexed":true,"internalType":"address"},{"name":"amount","type":"uint256","indexed":false,"internalType":"uint256"},{"name":"left","type":"uint256","indexed":false,"internalType":"uint256"}],"anonymous":false},{"type":"event","name":"Initialized","inputs":[{"name":"version","type":"uint64","indexed":false,"internalType":"uint64"}],"anonymous":false},{"type":"event","name":"Paused","inputs":[{"name":"account","type":"address","indexed":false,"internalType":"address"}],"anonymous":false},{"type":"event","name":"SetBlacklists","inputs":[{"name":"dappID","type":"uint256","indexed":false,"internalType":"uint256"},{"name":"flag","type":"bool","indexed":false,"internalType":"bool"}],"anonymous":false},{"type":"event","name":"SetDAppAddr","inputs":[{"name":"dappID","type":"uint256","indexed":true,"internalType":"uint256"},{"name":"addresses","type":"string[]","indexed":false,"internalType":"string[]"}],"anonymous":false},{"type":"event","name":"SetDAppConfig","inputs":[{"name":"dappID","type":"uint256","indexed":true,"internalType":"uint256"},{"name":"appAdmin","type":"address","indexed":true,"internalType":"address"},{"name":"feeToken","type":"address","indexed":true,"internalType":"address"},{"name":"appDomain","type":"string","indexed":false,"internalType":"string"},{"name":"email","type":"string","indexed":false,"internalType":"string"}],"anonymous":false},{"type":"event","name":"SetFeeConfig","inputs":[{"name":"token","type":"address","indexed":true,"internalType":"address"},{"name":"chain","type":"string","indexed":false,"internalType":"string"},{"name":"callPerByteFee","type":"uint256","indexed":false,"internalType":"uint256"}],"anonymous":false},{"type":"event","name":"Unpaused","inputs":[{"name":"account","type":"address","indexed":false,"internalType":"address"}],"anonymous":false},{"type":"event","name":"Withdraw","inputs":[{"name":"dappID","type":"uint256","indexed":true,"internalType":"uint256"},{"name":"token","type":"address","indexed":true,"internalType":"address"},{"name":"amount","type":"uint256","indexed":false,"internalType":"uint256"},{"name":"left","type":"uint256","indexed":false,"internalType":"uint256"}],"anonymous":false},{"type":"error","name":"AddressEmptyCode","inputs":[{"name":"target","type":"address","internalType":"address"}]},{"type":"error","name":"AddressInsufficientBalance","inputs":[{"name":"account","type":"address","internalType":"address"}]},{"type":"error","name":"EnforcedPause","inputs":[]},{"type":"error","name":"ExpectedPause","inputs":[]},{"type":"error","name":"FailedInnerCall","inputs":[]},{"type":"error","name":"InvalidInitialization","inputs":[]},{"type":"error","name":"NotInitializing","inputs":[]},{"type":"error","name":"SafeERC20FailedOperation","inputs":[{"name":"token","type":"address","internalType":"address"}]}],"bytecode":{"object":"0x608080604052346200016e576004805460ff191690557ff0c57e16840df040f15088dc2f81fe391c3923bec73e23a9662efc9c229c6a0080549091604082901c60ff161591906001600160401b0382168015908162000165575b60011490816200015a575b15908162000150575b506200014157506001600160401b0319811660011783558162000123575b503360018060a01b0319600054161760005560405142815260007fff88f8815b3f9faf85529ba09d2f7ff0d9c726c11cc863fd245156986014259060203393a3620000e1575b6040516135689081620001748239f35b68ff00000000000000001981541690557fc7f505b2f371ae2175ee4913f4499e1f2633a7b5936321eed1cdaeb6115181d2602060405160018152a138620000d1565b6001600160481b03191668010000000000000001178255386200008b565b63f92ee8a960e01b8152600490fd5b905015386200006d565b303b15915062000064565b84915062000059565b600080fdfe6080604052600436101561001257600080fd5b60003560e01c80630947cc6e146123da57806312d43a51146123a657806325240810146123725780632cb766e7146122a957806337f5a3941461216c578063393888ce146121255780633f4ba83a1461206a5780634522902b14611fa7578063459c769514611ebb578063476acb8414611ae95780635c975abb14611ac65780636d70f7ae14611a7a5780637f41c6c9146119fb5780638456cb591461193d5780639870d7fe146117755780639d06df3414611507578063a00f247314611402578063a697b8c7146113a9578063a962ef1e14611312578063b84542f61461128c578063bb03a47e146111ec578063bc157ac114610ecc578063c516ad1114610eae578063d5e7010314610d68578063d911c63214610c86578063da0be4f614610bfd578063e14eb527146109d8578063e28d49061461098a578063e594cd7014610934578063e63697c81461069d578063e72394a2146105ef578063eae704851461035f578063fad8b32a146103195763fc6cd7401461019257600080fd5b34610314576101a0366127cc565b9080600052602060068152604060002091610220604051936101c185612658565b8054855273ffffffffffffffffffffffffffffffffffffffff61020a60019682888501541690606060038983019684885286600282015416604085015201549101521515612b6a565b80600054163314918215610306575b5050612bcf565b6000835b610261575b60007f6e806e4274e1ae2fda14f84ae0177d6248dd126572ee44f546d4645c41ee2f7761025c87604051918291826125a1565b0390a2005b8451811015610301578161027e6102788388612a87565b5161280d565b54036102a35780600061029761027861029d9489612a87565b55612916565b83610224565b606483604051907f08c379a00000000000000000000000000000000000000000000000000000000082526004820152601360248201527f43334d3a2061646472206e6f74206578697374000000000000000000000000006044820152fd5b610229565b909150511633143880610219565b600080fd5b346103145760206003193601126103145761035d610335612496565b61035873ffffffffffffffffffffffffffffffffffffffff6000541633146128b1565b613195565b005b3461031457606060031936011261031457600435602467ffffffffffffffff81358181116103145761039590369060040161250a565b939091604435908111610314576103b090369060040161250a565b9490918060005260209460068652604060002091604051926103d184612658565b8054845273ffffffffffffffffffffffffffffffffffffffff61041a60019582878501541690606060038d83019684885286600282015416604085015201549101521515612b6a565b89860361059257908161043b92600054163314918215610584575050612bcf565b60005b84811061044757005b61047d610455828b89612d4c565b9084600052600d8b526104788a610472868b604060002093612d4c565b906129a3565b612e08565b81600052600e8852604060002061049582878a612d4c565b918054906801000000000000000082101561055657906104b9918882018155612899565b610528578b8961051b61050e876105068f97998e6104fd829b6105239d7f5d9994a3de8f7f639b3ab61295e70425c258281ab88e6fc650afe50d0d2bd16c9b612e08565b60055499612d4c565b959094612d4c565b9060405194859485612a60565b0390a2612916565b61043e565b857f4e487b710000000000000000000000000000000000000000000000000000000060005260006004526000fd5b867f4e487b710000000000000000000000000000000000000000000000000000000060005260416004526000fd5b909150511633148a80610219565b606489601486604051927f08c379a000000000000000000000000000000000000000000000000000000000845260048401528201527f43334d3a206c656e677468206469736d617463680000000000000000000000006044820152fd5b3461031457604060031936011261031457600435602435801515809103610314577fb0528bd87f705864882397ee2ca86e93f9687d0699c096ea3b7db1a3fac0b30c9160409161065873ffffffffffffffffffffffffffffffffffffffff6000541633146128b1565b816000526008602052826000207fffffffffffffffffffffffffffffffffffffffffffffffffffffffffffffff0081541660ff831617905582519182526020820152a1005b34610314576106ab36612621565b826000939293526020600a815260406000209373ffffffffffffffffffffffffffffffffffffffff8091169485600052825282604060002054106108b0576040517f70a082310000000000000000000000000000000000000000000000000000000081523060048201528281602481895afa80156108a4578491600091610873575b50106107f0579160409161079f7fb0ecf14e184effded5473bba77dcfab32b094b77ac1fbb36beec2aef55587970948660005260068352846000206060600387519261077884612658565b80548452846001820154169485888601526002820154168985015201549101523314612bcf565b6107aa82338861335f565b84600052600a815282600020866000528152826000206107cb838254612f25565b905584600052600a8152826000208660005281528260002054908351928352820152a3005b608482604051907f08c379a000000000000000000000000000000000000000000000000000000000825260048201526024808201527f43334d3a20696e73756666696369656e7420616d6f756e7420666f722072657160448201527f75657374000000000000000000000000000000000000000000000000000000006064820152fd5b809250848092503d831161089d575b61088c8183612674565b81010312610314578390518761072d565b503d610882565b6040513d6000823e3d90fd5b608482604051907f08c379a00000000000000000000000000000000000000000000000000000000082526004820152602160248201527f43334d3a20696e73756666696369656e7420616d6f756e7420666f722064617060448201527f70000000000000000000000000000000000000000000000000000000000000006064820152fd5b346103145760406003193601126103145761094d6124b9565b600435600052600a60205273ffffffffffffffffffffffffffffffffffffffff604060002091166000526020526020604060002054604051908152f35b34610314576020600319360112610314576004356003548110156103145773ffffffffffffffffffffffffffffffffffffffff6109c8602092612833565b90549060031b1c16604051908152f35b34610314576080600319360112610314576109f1612496565b67ffffffffffffffff60243581811161031457610a129036906004016124dc565b909160443581811161031457610a2c9036906004016124dc565b9260643592831161031457610a5a73ffffffffffffffffffffffffffffffffffffffff93369060040161250a565b9390961695866000526009602052610a7860406000205415156129fb565b8115610b9f578415610b41577fe16335fd7ccb686d02c1c6f5400a23f29fdafb67372e60497f1f387a9663328e93610ab1600554612916565b80600555806000526006602052604060002090815588600260018301927fffffffffffffffffffffffff0000000000000000000000000000000000000000933385825416179055019182541617905580610b22575b5050610b1d60055494604051938493339885612a60565b0390a4005b610b34610b3a9260055492369161275c565b90612a9b565b8680610b06565b60646040517f08c379a000000000000000000000000000000000000000000000000000000000815260206004820152601060248201527f43334d3a20656d61696c20656d707479000000000000000000000000000000006044820152fd5b60646040517f08c379a000000000000000000000000000000000000000000000000000000000815260206004820152601460248201527f43334d3a20617070446f6d61696e20656d7074790000000000000000000000006044820152fd5b346103145760406003193601126103145760043567ffffffffffffffff811161031457610c2e90369060040161273e565b73ffffffffffffffffffffffffffffffffffffffff610c646020610c506124b9565b93816040519382858094519384920161253b565b8101600b81520301902091166000526020526020604060002054604051908152f35b3461031457600060031936011261031457604051806003548083526020809301809160036000527fc2575a0e9e593c00f959f8c92f12db2869c3395a3b0502d05e2516446f71f85b9060005b86828210610d3e578686610ce882880383612674565b604051928392818401908285525180915260408401929160005b828110610d1157505050500390f35b835173ffffffffffffffffffffffffffffffffffffffff1685528695509381019392810192600101610d02565b835473ffffffffffffffffffffffffffffffffffffffff1685529093019260019283019201610cd2565b346103145760406003193601126103145767ffffffffffffffff60043581811161031457610d9a90369060040161250a565b909160243590811161031457610db490369060040161250a565b92909173ffffffffffffffffffffffffffffffffffffffff92610ddc846000541633146128b1565b60005b828110610de857005b80610df7610ea9928885612972565b3586610e0c610e0784888a612972565b612982565b16600052602090600982526040600020557f8f06ca262cd4190f9fe75dbb69e13e8a186420263604404c442d52cf7009f2d0610e4c610e0784888a612972565b610e57848b88612972565b358960405192839260408452610e9b60408501604090600181527f300000000000000000000000000000000000000000000000000000000000000060208201520190565b9684015216930390a2612916565b610ddf565b34610314576000600319360112610314576020600554604051908152f35b3461031457610eda36612621565b826000939293526020926006845260406000209060405191610efb83612658565b805480845273ffffffffffffffffffffffffffffffffffffffff936060600386600186015416948a840195865287600282015416604085015201549101521561118e5751821633036111305716928360005260098152610f6160406000205415156129fb565b604051907f70a0823100000000000000000000000000000000000000000000000000000000928383523060048401528183602481895afa9283156108a457600093611101575b506040517f23b872dd00000000000000000000000000000000000000000000000000000000838201523360248201523060448201528160648201526064815260a081019080821067ffffffffffffffff8311176110d25761100b91604052876133ba565b6040519384523060048501528184602481895afa9384156108a4576000946110a3575b5082841015908161108f575b50156103145761106d6040927fd36a2f67d06d285786f61a32b052b9ace6b0b7abef5177b54358abdc83a0b69b94612f25565b9084600052600a815282600020866000528152826000206107cb8382546130cd565b61109a9150836130cd565b8311158661103a565b9093508181813d83116110cb575b6110bb8183612674565b810103126103145751928661102e565b503d6110b1565b7f4e487b7100000000000000000000000000000000000000000000000000000000600052604160045260246000fd5b9092508181813d8311611129575b6111198183612674565b8101031261031457519186610fa7565b503d61110f565b606485604051907f08c379a00000000000000000000000000000000000000000000000000000000082526004820152600e60248201527f43334d3a20666f7262696464656e0000000000000000000000000000000000006044820152fd5b606486604051907f08c379a00000000000000000000000000000000000000000000000000000000082526004820152601360248201527f43334d3a2064617070206e6f74206578697374000000000000000000000000006044820152fd5b346103145761035d6111fd366127cc565b90806000526006602052611279604060002060405161121b81612658565b8154815261126473ffffffffffffffffffffffffffffffffffffffff91826001850154169060606003602083019684885286600282015416604085015201549101521515612b6a565b8060005416331491821561127e575050612bcf565b612a9b565b909150511633148580610219565b346103145760406003193601126103145760043567ffffffffffffffff8111610314576112c061035d91369060040161250a565b6112c86124b9565b9173ffffffffffffffffffffffffffffffffffffffff60005416331480156112f9575b6112f490613068565b6130da565b503360009081526002602052604090205460ff166112eb565b346103145760206003193601126103145761132b612496565b73ffffffffffffffffffffffffffffffffffffffff8060005416916113518333146128b1565b1690817fffffffffffffffffffffffff000000000000000000000000000000000000000060015416176001557fd098c548c6851f1e61d4e1364996748b40477bb1abe90254bd71352396b2b7be6020604051428152a3005b346103145760206003193601126103145760043567ffffffffffffffff8111610314576113dd61035d91369060040161250a565b73ffffffffffffffffffffffffffffffffffffffff60005416916112f48333146128b1565b346103145761141036612621565b73ffffffffffffffffffffffffffffffffffffffff928360005416331480156114ee575b61143d90613068565b600052600660205260036040600020938060018601541693611460851515612b6a565b169384600052600960205261147b60406000205415156129fb565b60028101857fffffffffffffffffffffffff000000000000000000000000000000000000000082541617905501556005547fe16335fd7ccb686d02c1c6f5400a23f29fdafb67372e60497f1f387a9663328e608060405160408152600060408201526060602082015260006060820152a4005b503360009081526002602052604090205460ff16611434565b34610314576060806003193601126103145767ffffffffffffffff6004358181116103145761153a90369060040161250a565b9290916024358181116103145761155590369060040161250a565b9390916044359081116103145761157090369060040161250a565b73ffffffffffffffffffffffffffffffffffffffff94919480600054163314801561175c575b61159f90613068565b86881480611753575b156116f55760005b8881106115b957005b8087877fb236b8705745943bf2b2fe9a3c35c02ce90bce881735d55efd7ad8aa0f519fde8761160a858f8f610e07838f926115fd8f959d6116af9e61160496612972565b3599612972565b96612972565b35836000528c600a916020918383528a6040600020981697886000528352888c83604060002054116000146116b457611681928960005286865260406000208b6000528652604060002061165f868254612f25565b90555b8a600052600c8652604060002061167a8682546130cd565b9055612972565b35928660005282526040600020876000528252604060002054916040519384528301526040820152a3612916565b6115b0565b505050508460005281815260406000208660005281528d611681888c604060002054938960005286865260406000208b600052865260006040812055611662565b60646040517f08c379a000000000000000000000000000000000000000000000000000000000815260206004820152601460248201527f43334d3a206c656e677468206d69736d617463680000000000000000000000006044820152fd5b508188146115a8565b503360009081526002602052604090205460ff16611596565b34610314576020806003193601126103145761178f612496565b9073ffffffffffffffffffffffffffffffffffffffff6117b4816000541633146128b1565b821680156118e057806000526002825260ff6040600020541661185c579060029160005252604060002060017fffffffffffffffffffffffffffffffffffffffffffffffffffffffffffffff0082541617905560035490680100000000000000008210156110d25761182f82600161035d9401600355612833565b90919082549060031b9173ffffffffffffffffffffffffffffffffffffffff809116831b921b1916179055565b608482604051907f08c379a00000000000000000000000000000000000000000000000000000000082526004820152602160248201527f433343616c6c65723a204f70657261746f7220616c726561647920657869737460448201527f73000000000000000000000000000000000000000000000000000000000000006064820152fd5b606482604051907f08c379a000000000000000000000000000000000000000000000000000000000825280600483015260248201527f433343616c6c65723a204f70657261746f7220697320616464726573732830296044820152fd5b346103145760006003193601126103145761197173ffffffffffffffffffffffffffffffffffffffff6000541633146128b1565b60045460ff81166119d1577fffffffffffffffffffffffffffffffffffffffffffffffffffffffffffffff0060019116176004557f62e78cea01bee320cd4e420270b5ea74000d11b0c9f74754ebdbfc544b05a2586020604051338152a1005b60046040517fd93c0665000000000000000000000000000000000000000000000000000000008152fd5b346103145760208060031936011261031457600435600052600e815260406000208054611a27816126b5565b91611a356040519384612674565b8183526000908152838120938084015b838310611a5e5760405180611a5a87826125a1565b0390f35b6001828192611a6c89612c87565b815201960192019194611a45565b346103145760206003193601126103145773ffffffffffffffffffffffffffffffffffffffff611aa8612496565b166000526002602052602060ff604060002054166040519015158152f35b3461031457600060031936011261031457602060ff600454166040519015158152f35b34610314576040600319360112610314576024600435813567ffffffffffffffff811161031457611b1e90369060040161250a565b826000526006602052611b996040600020604051611b3b81612658565b81548152611b8473ffffffffffffffffffffffffffffffffffffffff91826001850154169060606003602083019684885286600282015416604085015201549101521515612b6a565b80600054163314918215611ead575050612bcf565b6000905b808210611ba657005b83600052600d9485602052611bcc611bc76040600020610472868689612d4c565b612c87565b9585600052602052611be76040600020610472858588612d4c565b611bf18154612c34565b9081611e6e575b505060005b85600052600e8060205260406000208054831015611e5957611c2283611c2892612899565b50612c87565b611c3d611c3687878a612d4c565b3691612707565b81518151908181149384611e43575b50505050611c64575b50611c5f90612916565b611bfd565b8660005280602052604060002054907fffffffffffffffffffffffffffffffffffffffffffffffffffffffffffffffff91828101908111611e1557611cb59089600052826020526040600020612899565b508860005281602052611ccc846040600020612899565b6105285790611cda91612f32565b8760005260205260406000209081548015611de7570190611cfb8282612899565b611db9579081611d10611c5f95949354612c34565b9081611d7a575b5050556005547f9beb6b2bfbab6fc54f5133871992c897e22bd54fd799d7d8f1e0a8512b6555b3611d4987878a612d4c565b611d71611d636040519384936040855260408501916129bc565b82810360208401528d61255e565b0390a290611c55565b600091601f808211600114611d94575050555b8a80611d17565b91611db284929382845260208420940160051c840160018501612dac565b5555611d8d565b847f4e487b710000000000000000000000000000000000000000000000000000000060005260006004526000fd5b847f4e487b710000000000000000000000000000000000000000000000000000000060005260316004526000fd5b847f4e487b710000000000000000000000000000000000000000000000000000000060005260116004526000fd5b6020929394508201209201201489808080611c4c565b505050945090611e6890612916565b90611b9d565b600091601f808211600114611e88575050555b8680611bf8565b91611ea684929382845260208420940160051c840160018501612dac565b5555611e81565b909150511633148680610219565b346103145760006003193601126103145760015473ffffffffffffffffffffffffffffffffffffffff81168015611f49576000917fffffffffffffffffffffffff0000000000000000000000000000000000000000908282855416178455166001557fff88f8815b3f9faf85529ba09d2f7ff0d9c726c11cc863fd24515698601425906020604051428152a3005b60646040517f08c379a000000000000000000000000000000000000000000000000000000000815260206004820152601760248201527f4333476f763a20656d7074792070656e64696e67476f760000000000000000006044820152fd5b3461031457604060031936011261031457611fc06124b9565b60043560005260066020526001604060002001907fffffffffffffffffffffffff000000000000000000000000000000000000000082549173ffffffffffffffffffffffffffffffffffffffff9061203b82851661201f811515612b6a565b83600054163314908115612050575b8115612046575b50612bcf565b169116179055600080f35b9050331487612035565b905033600052600260205260ff604060002054169061202e565b346103145760006003193601126103145761209e73ffffffffffffffffffffffffffffffffffffffff6000541633146128b1565b60045460ff8116156120fb577fffffffffffffffffffffffffffffffffffffffffffffffffffffffffffffff00166004557f5db9ee0a495bf2e6ff9c91a7834c1ba4fdd244a5e8aa4e537bd38aeae4b073aa6020604051338152a1005b60046040517f8dfc202b000000000000000000000000000000000000000000000000000000008152fd5b346103145760206003193601126103145773ffffffffffffffffffffffffffffffffffffffff612153612496565b1660005260096020526020604060002054604051908152f35b34610314576080600319360112610314576121856124b9565b67ffffffffffffffff604435818111610314576121a69036906004016124dc565b929091606435908111610314576121c19036906004016124dc565b919060043560005260066020526040600020946040516121e081612658565b8654815273ffffffffffffffffffffffffffffffffffffffff9384918260018a01541660208201918183528460028c0154169a604082019b8c52600301549060600152151561222e90612b6a565b82600054163314801596612269927fe16335fd7ccb686d02c1c6f5400a23f29fdafb67372e60497f1f387a9663328e9861229b575050612bcf565b16809681600052600960205261228560406000205415156129fb565b52610b1d60055494604051938493339885612a60565b90915051163314838b610219565b34610314576060600319360112610314576122c2612496565b60243567ffffffffffffffff8111610314576123037f8f06ca262cd4190f9fe75dbb69e13e8a186420263604404c442d52cf7009f2d09136906004016124dc565b60443573ffffffffffffffffffffffffffffffffffffffff61232a816000541633146128b1565b60405183858237602081858101600b81520301902095169485600052602052806040600020556123676040519384936040855260408501916129bc565b9060208301520390a2005b3461031457600060031936011261031457602073ffffffffffffffffffffffffffffffffffffffff60015416604051908152f35b3461031457600060031936011261031457602073ffffffffffffffffffffffffffffffffffffffff60005416604051908152f35b34610314576020600319360112610314576123f3612496565b73ffffffffffffffffffffffffffffffffffffffff90612418826000541633146128b1565b16806000526009602052600060408120557f8f06ca262cd4190f9fe75dbb69e13e8a186420263604404c442d52cf7009f2d0604051604081528061248a60408201604090600181527f300000000000000000000000000000000000000000000000000000000000000060208201520190565b600060208301520390a2005b6004359073ffffffffffffffffffffffffffffffffffffffff8216820361031457565b6024359073ffffffffffffffffffffffffffffffffffffffff8216820361031457565b9181601f840112156103145782359167ffffffffffffffff8311610314576020838186019501011161031457565b9181601f840112156103145782359167ffffffffffffffff8311610314576020808501948460051b01011161031457565b60005b83811061254e5750506000910152565b818101518382015260200161253e565b907fffffffffffffffffffffffffffffffffffffffffffffffffffffffffffffffe0601f60209361259a8151809281875287808801910161253b565b0116010190565b602080820190808352835180925260408301928160408460051b8301019501936000915b8483106125d55750505050505090565b9091929394958480612611837fffffffffffffffffffffffffffffffffffffffffffffffffffffffffffffffc086600196030187528a5161255e565b98019301930191949392906125c5565b6003196060910112610314576004359060243573ffffffffffffffffffffffffffffffffffffffff81168103610314579060443590565b6080810190811067ffffffffffffffff8211176110d257604052565b90601f7fffffffffffffffffffffffffffffffffffffffffffffffffffffffffffffffe0910116810190811067ffffffffffffffff8211176110d257604052565b67ffffffffffffffff81116110d25760051b60200190565b67ffffffffffffffff81116110d257601f017fffffffffffffffffffffffffffffffffffffffffffffffffffffffffffffffe01660200190565b929192612713826126cd565b916127216040519384612674565b829481845281830111610314578281602093846000960137010152565b9080601f830112156103145781602061275993359101612707565b90565b92919092612769846126b5565b916127776040519384612674565b829480845260208094019060051b8301928284116103145780915b8483106127a157505050505050565b823567ffffffffffffffff81116103145786916127c1868493860161273e565b815201920191612792565b90604060031983011261031457600435916024359067ffffffffffffffff82116103145780602383011215610314578160246127599360040135910161275c565b602061282691816040519382858094519384920161253b565b8101600781520301902090565b60035481101561286a5760036000527fc2575a0e9e593c00f959f8c92f12db2869c3395a3b0502d05e2516446f71f85b0190600090565b7f4e487b7100000000000000000000000000000000000000000000000000000000600052603260045260246000fd5b805482101561286a5760005260206000200190600090565b156128b857565b60646040517f08c379a000000000000000000000000000000000000000000000000000000000815260206004820152600f60248201527f4333476f763a206f6e6c7920476f7600000000000000000000000000000000006044820152fd5b7fffffffffffffffffffffffffffffffffffffffffffffffffffffffffffffffff81146129435760010190565b7f4e487b7100000000000000000000000000000000000000000000000000000000600052601160045260246000fd5b919081101561286a5760051b0190565b3573ffffffffffffffffffffffffffffffffffffffff811681036103145790565b6020919283604051948593843782019081520301902090565b601f82602094937fffffffffffffffffffffffffffffffffffffffffffffffffffffffffffffffe0938186528686013760008582860101520116010190565b15612a0257565b60646040517f08c379a000000000000000000000000000000000000000000000000000000000815260206004820152601c60248201527f43334d3a2066656520746f6b656e206e6f7420737570706f72746564000000006044820152fd5b9290612a799061275995936040865260408601916129bc565b9260208185039101526129bc565b805182101561286a5760209160051b010190565b91909160005b8351811015612b3157612ab76102788286612a87565b54612ad3578082610297610278612ace9488612a87565b612aa1565b60646040517f08c379a000000000000000000000000000000000000000000000000000000000815260206004820152601760248201527f43334d3a206164647220616c72656164792065786973740000000000000000006044820152fd5b509091612b657f6e806e4274e1ae2fda14f84ae0177d6248dd126572ee44f546d4645c41ee2f7791604051918291826125a1565b0390a2565b15612b7157565b60646040517f08c379a000000000000000000000000000000000000000000000000000000000815260206004820152601260248201527f43334d3a20617070206e6f7420657869737400000000000000000000000000006044820152fd5b15612bd657565b60646040517f08c379a000000000000000000000000000000000000000000000000000000000815260206004820152600b60248201527f43334d3a20666f726269640000000000000000000000000000000000000000006044820152fd5b90600182811c92168015612c7d575b6020831014612c4e57565b7f4e487b7100000000000000000000000000000000000000000000000000000000600052602260045260246000fd5b91607f1691612c43565b9060405191826000825492612c9b84612c34565b908184526001948581169081600014612d0a5750600114612cc7575b5050612cc592500383612674565b565b9093915060005260209081600020936000915b818310612cf2575050612cc593508201013880612cb7565b85548884018501529485019487945091830191612cda565b9050612cc59550602093507fffffffffffffffffffffffffffffffffffffffffffffffffffffffffffffff0091501682840152151560051b8201013880612cb7565b919081101561286a5760051b810135907fffffffffffffffffffffffffffffffffffffffffffffffffffffffffffffffe18136030182121561031457019081359167ffffffffffffffff8311610314576020018236038113610314579190565b818110612db7575050565b60008155600101612dac565b9190601f8111612dd257505050565b612cc5926000526020600020906020601f840160051c83019310612dfe575b601f0160051c0190612dac565b9091508190612df1565b90929167ffffffffffffffff81116110d257612e2e81612e288454612c34565b84612dc3565b6000601f8211600114612e855781929394600092612e7a575b50507fffffffffffffffffffffffffffffffffffffffffffffffffffffffffffffffff8260011b9260031b1c1916179055565b013590503880612e47565b7fffffffffffffffffffffffffffffffffffffffffffffffffffffffffffffffe08216948382526020918281209281905b888210612f0d57505083600195969710612ed5575b505050811b019055565b7fffffffffffffffffffffffffffffffffffffffffffffffffffffffffffffffff60f88560031b161c19910135169055388080612ecb565b80600184968294958701358155019501920190612eb6565b9190820391821161294357565b9080821461306457612f448154612c34565b9067ffffffffffffffff82116110d2578190612f6a82612f648654612c34565b86612dc3565b600090601f8311600114612fbd57600092612fb25750507fffffffffffffffffffffffffffffffffffffffffffffffffffffffffffffffff8260011b9260031b1c1916179055565b015490503880612e47565b917fffffffffffffffffffffffffffffffffffffffffffffffffffffffffffffffe016918152602091828220908583528383209383905b82821061304b57505090846001959493921061301457505050811b019055565b01547fffffffffffffffffffffffffffffffffffffffffffffffffffffffffffffffff60f88460031b161c19169055388080612ecb565b8495819295850154815560018091019601940190612ff4565b5050565b1561306f57565b60646040517f08c379a000000000000000000000000000000000000000000000000000000000815260206004820152601460248201527f4333476f763a206f6e6c79204f70657261746f720000000000000000000000006044820152fd5b9190820180921161294357565b9160005b8281106130eb5750505050565b61313a908373ffffffffffffffffffffffffffffffffffffffff80613114610e0785858b612972565b16600052600c6020818152604092858a856000205461313f575b50505050505050612916565b6130de565b82613163610e07848a8461315c610e076131749960009f8a612972565b1695612972565b16875284845289868820549161335f565b613182610e07878b8d612972565b168452528120558338808080858a61312e565b73ffffffffffffffffffffffffffffffffffffffff809116906000828152600260205260ff60408220541615613301578281526002602052604081207fffffffffffffffffffffffffffffffffffffffffffffffffffffffffffffff008154169055600390815490805b82811061320e57505050505050565b858561321983612833565b905490871b1c16146132335761322e90612916565b6131ff565b9091929394507fffffffffffffffffffffffffffffffffffffffffffffffffffffffffffffffff928381019081116132d4579061182f8661327661328394612833565b905490881b1c1691612833565b82549081156132a75750019161329883612833565b9091825491841b1b1916905555565b807f4e487b7100000000000000000000000000000000000000000000000000000000602492526031600452fd5b6024837f4e487b710000000000000000000000000000000000000000000000000000000081526011600452fd5b60646040517f08c379a000000000000000000000000000000000000000000000000000000000815260206004820152601c60248201527f433343616c6c65723a204f70657261746f72206e6f7420666f756e64000000006044820152fd5b612cc59273ffffffffffffffffffffffffffffffffffffffff604051937fa9059cbb0000000000000000000000000000000000000000000000000000000060208601521660248401526044830152604482526133ba82612658565b73ffffffffffffffffffffffffffffffffffffffff1690613412600080836020829551910182875af13d1561348a573d906133f4826126cd565b916134026040519384612674565b82523d84602084013e5b84613492565b90815191821515928361345b575b50505061342a5750565b602490604051907f5274afe70000000000000000000000000000000000000000000000000000000082526004820152fd5b8192935090602091810103126134865760200151908115918215036134835750388080613420565b80fd5b5080fd5b60609061340c565b906134d157508051156134a757805190602001fd5b60046040517f1425ea42000000000000000000000000000000000000000000000000000000008152fd5b81511580613529575b6134e2575090565b60249073ffffffffffffffffffffffffffffffffffffffff604051917f9996b315000000000000000000000000000000000000000000000000000000008352166004820152fd5b50803b156134da56fea2646970667358221220b3bc95e2aa9308ed51eaec07f05fda571827037cecbdd061d6526ada4b217d6364736f6c63430008140033","linkReferences":{}},"methodIdentifiers":{"addDappAddr(uint256,string[])":"bb03a47e","addOperator(address)":"9870d7fe","addTxSender(uint256,string[],string[])":"eae70485","applyGov()":"459c7695","changeGov(address)":"a962ef1e","charging(uint256[],address[],uint256[])":"9d06df34","dappID()":"c516ad11","dappStakePool(uint256,address)":"e594cd70","delWhitelists(uint256,string[])":"fc6cd740","deposit(uint256,address,uint256)":"bc157ac1","disableFeeCurrency(address)":"0947cc6e","feeCurrencies(address)":"393888ce","getAllOperators()":"d911c632","getTxSenders(uint256)":"7f41c6c9","gov()":"12d43a51","initDappConfig(address,string,string,string[])":"e14eb527","isOperator(address)":"6d70f7ae","operators(uint256)":"e28d4906","pause()":"8456cb59","paused()":"5c975abb","pendingGov()":"25240810","removeTxSender(uint256,string[])":"476acb84","resetAdmin(uint256,address)":"4522902b","revokeOperator(address)":"fad8b32a","setBlacklists(uint256,bool)":"e72394a2","setFeeCurrencies(address[],uint256[])":"d5e70103","setSpeFeeConfigByChain(address,string,uint256)":"2cb766e7","speChainFees(string,address)":"da0be4f6","unpause()":"3f4ba83a","updateDAppConfig(uint256,address,string,string)":"37f5a394","updateDappByGov(uint256,address,uint256)":"a00f2473","withdraw(uint256,address,uint256)":"e63697c8","withdrawFees(address[])":"a697b8c7","withdrawFeesTo(address[],address)":"b84542f6"},"id":15}