{"abi":[{"type":"constructor","inputs":[],"stateMutability":"nonpayable"},{"type":"function","name":"CLOCK_MODE","inputs":[],"outputs":[{"name":"","type":"string","internalType":"string"}],"stateMutability":"view"},{"type":"function","name":"LIQUIDATION_PENALTY","inputs":[],"outputs":[{"name":"","type":"uint256","internalType":"uint256"}],"stateMutability":"view"},{"type":"function","name":"UPGRADE_INTERFACE_VERSION","inputs":[],"outputs":[{"name":"","type":"string","internalType":"string"}],"stateMutability":"view"},{"type":"function","name":"approve","inputs":[{"name":"_approved","type":"address","internalType":"address"},{"name":"_tokenId","type":"uint256","internalType":"uint256"}],"outputs":[],"stateMutability":"nonpayable"},{"type":"function","name":"balanceOf","inputs":[{"name":"_owner","type":"address","internalType":"address"}],"outputs":[{"name":"","type":"uint256","internalType":"uint256"}],"stateMutability":"view"},{"type":"function","name":"balanceOfAtNFT","inputs":[{"name":"_tokenId","type":"uint256","internalType":"uint256"},{"name":"_block","type":"uint256","internalType":"uint256"}],"outputs":[{"name":"","type":"uint256","internalType":"uint256"}],"stateMutability":"view"},{"type":"function","name":"balanceOfNFT","inputs":[{"name":"_tokenId","type":"uint256","internalType":"uint256"}],"outputs":[{"name":"","type":"uint256","internalType":"uint256"}],"stateMutability":"view"},{"type":"function","name":"balanceOfNFTAt","inputs":[{"name":"_tokenId","type":"uint256","internalType":"uint256"},{"name":"_t","type":"uint256","internalType":"uint256"}],"outputs":[{"name":"","type":"uint256","internalType":"uint256"}],"stateMutability":"view"},{"type":"function","name":"baseURI","inputs":[],"outputs":[{"name":"","type":"string","internalType":"string"}],"stateMutability":"view"},{"type":"function","name":"checkpoint","inputs":[],"outputs":[],"stateMutability":"nonpayable"},{"type":"function","name":"checkpoints","inputs":[{"name":"account","type":"address","internalType":"address"},{"name":"pos","type":"uint32","internalType":"uint32"}],"outputs":[{"name":"","type":"tuple","internalType":"struct ArrayCheckpoints.CheckpointArray","components":[{"name":"_key","type":"uint256","internalType":"uint256"},{"name":"_values","type":"uint256[]","internalType":"uint256[]"}]}],"stateMutability":"view"},{"type":"function","name":"clock","inputs":[],"outputs":[{"name":"","type":"uint48","internalType":"uint48"}],"stateMutability":"view"},{"type":"function","name":"create_lock","inputs":[{"name":"_value","type":"uint256","internalType":"uint256"},{"name":"_lock_duration","type":"uint256","internalType":"uint256"}],"outputs":[{"name":"","type":"uint256","internalType":"uint256"}],"stateMutability":"nonpayable"},{"type":"function","name":"create_lock_for","inputs":[{"name":"_value","type":"uint256","internalType":"uint256"},{"name":"_lock_duration","type":"uint256","internalType":"uint256"},{"name":"_to","type":"address","internalType":"address"}],"outputs":[{"name":"","type":"uint256","internalType":"uint256"}],"stateMutability":"nonpayable"},{"type":"function","name":"create_nonvoting_lock_for","inputs":[{"name":"_value","type":"uint256","internalType":"uint256"},{"name":"_lock_duration","type":"uint256","internalType":"uint256"},{"name":"_to","type":"address","internalType":"address"}],"outputs":[{"name":"","type":"uint256","internalType":"uint256"}],"stateMutability":"nonpayable"},{"type":"function","name":"decimals","inputs":[],"outputs":[{"name":"","type":"uint8","internalType":"uint8"}],"stateMutability":"view"},{"type":"function","name":"delegate","inputs":[{"name":"delegatee","type":"address","internalType":"address"}],"outputs":[],"stateMutability":"nonpayable"},{"type":"function","name":"delegateBySig","inputs":[{"name":"delegatee","type":"address","internalType":"address"},{"name":"nonce","type":"uint256","internalType":"uint256"},{"name":"expiry","type":"uint256","internalType":"uint256"},{"name":"v","type":"uint8","internalType":"uint8"},{"name":"r","type":"bytes32","internalType":"bytes32"},{"name":"s","type":"bytes32","internalType":"bytes32"}],"outputs":[],"stateMutability":"nonpayable"},{"type":"function","name":"delegates","inputs":[{"name":"account","type":"address","internalType":"address"}],"outputs":[{"name":"","type":"address","internalType":"address"}],"stateMutability":"view"},{"type":"function","name":"deposit_for","inputs":[{"name":"_tokenId","type":"uint256","internalType":"uint256"},{"name":"_value","type":"uint256","internalType":"uint256"}],"outputs":[],"stateMutability":"nonpayable"},{"type":"function","name":"enableLiquidations","inputs":[],"outputs":[],"stateMutability":"nonpayable"},{"type":"function","name":"epoch","inputs":[],"outputs":[{"name":"","type":"uint256","internalType":"uint256"}],"stateMutability":"view"},{"type":"function","name":"getApproved","inputs":[{"name":"_tokenId","type":"uint256","internalType":"uint256"}],"outputs":[{"name":"","type":"address","internalType":"address"}],"stateMutability":"view"},{"type":"function","name":"getPastTotalSupply","inputs":[{"name":"timepoint","type":"uint256","internalType":"uint256"}],"outputs":[{"name":"","type":"uint256","internalType":"uint256"}],"stateMutability":"view"},{"type":"function","name":"getPastVotes","inputs":[{"name":"account","type":"address","internalType":"address"},{"name":"timepoint","type":"uint256","internalType":"uint256"}],"outputs":[{"name":"","type":"uint256","internalType":"uint256"}],"stateMutability":"view"},{"type":"function","name":"getVotes","inputs":[{"name":"account","type":"address","internalType":"address"}],"outputs":[{"name":"","type":"uint256","internalType":"uint256"}],"stateMutability":"view"},{"type":"function","name":"get_last_user_slope","inputs":[{"name":"_tokenId","type":"uint256","internalType":"uint256"}],"outputs":[{"name":"","type":"int128","internalType":"int128"}],"stateMutability":"view"},{"type":"function","name":"governor","inputs":[],"outputs":[{"name":"","type":"address","internalType":"address"}],"stateMutability":"view"},{"type":"function","name":"increase_amount","inputs":[{"name":"_tokenId","type":"uint256","internalType":"uint256"},{"name":"_value","type":"uint256","internalType":"uint256"}],"outputs":[],"stateMutability":"nonpayable"},{"type":"function","name":"increase_unlock_time","inputs":[{"name":"_tokenId","type":"uint256","internalType":"uint256"},{"name":"_lock_duration","type":"uint256","internalType":"uint256"}],"outputs":[],"stateMutability":"nonpayable"},{"type":"function","name":"initialize","inputs":[{"name":"token_addr","type":"address","internalType":"address"},{"name":"base_uri","type":"string","internalType":"string"}],"outputs":[],"stateMutability":"nonpayable"},{"type":"function","name":"isApprovedForAll","inputs":[{"name":"_owner","type":"address","internalType":"address"},{"name":"_operator","type":"address","internalType":"address"}],"outputs":[{"name":"","type":"bool","internalType":"bool"}],"stateMutability":"view"},{"type":"function","name":"isApprovedOrOwner","inputs":[{"name":"_spender","type":"address","internalType":"address"},{"name":"_tokenId","type":"uint256","internalType":"uint256"}],"outputs":[{"name":"","type":"bool","internalType":"bool"}],"stateMutability":"view"},{"type":"function","name":"liquidate","inputs":[{"name":"_tokenId","type":"uint256","internalType":"uint256"}],"outputs":[],"stateMutability":"nonpayable"},{"type":"function","name":"liquidationsEnabled","inputs":[],"outputs":[{"name":"","type":"bool","internalType":"bool"}],"stateMutability":"view"},{"type":"function","name":"liquidityProvided","inputs":[{"name":"","type":"uint256","internalType":"uint256"},{"name":"","type":"address","internalType":"address"},{"name":"","type":"uint256","internalType":"uint256"}],"outputs":[{"name":"","type":"uint256","internalType":"uint256"}],"stateMutability":"view"},{"type":"function","name":"locked","inputs":[{"name":"","type":"uint256","internalType":"uint256"}],"outputs":[{"name":"amount","type":"int128","internalType":"int128"},{"name":"end","type":"uint256","internalType":"uint256"}],"stateMutability":"view"},{"type":"function","name":"locked__end","inputs":[{"name":"_tokenId","type":"uint256","internalType":"uint256"}],"outputs":[{"name":"","type":"uint256","internalType":"uint256"}],"stateMutability":"view"},{"type":"function","name":"merge","inputs":[{"name":"_from","type":"uint256","internalType":"uint256"},{"name":"_to","type":"uint256","internalType":"uint256"}],"outputs":[],"stateMutability":"nonpayable"},{"type":"function","name":"name","inputs":[],"outputs":[{"name":"","type":"string","internalType":"string"}],"stateMutability":"view"},{"type":"function","name":"nonVoting","inputs":[{"name":"","type":"uint256","internalType":"uint256"}],"outputs":[{"name":"","type":"bool","internalType":"bool"}],"stateMutability":"view"},{"type":"function","name":"ownerOf","inputs":[{"name":"_tokenId","type":"uint256","internalType":"uint256"}],"outputs":[{"name":"","type":"address","internalType":"address"}],"stateMutability":"view"},{"type":"function","name":"ownership_change","inputs":[{"name":"","type":"uint256","internalType":"uint256"}],"outputs":[{"name":"","type":"uint256","internalType":"uint256"}],"stateMutability":"view"},{"type":"function","name":"point_history","inputs":[{"name":"","type":"uint256","internalType":"uint256"}],"outputs":[{"name":"bias","type":"int128","internalType":"int128"},{"name":"slope","type":"int128","internalType":"int128"},{"name":"ts","type":"uint256","internalType":"uint256"},{"name":"blk","type":"uint256","internalType":"uint256"}],"stateMutability":"view"},{"type":"function","name":"proxiableUUID","inputs":[],"outputs":[{"name":"","type":"bytes32","internalType":"bytes32"}],"stateMutability":"view"},{"type":"function","name":"rewards","inputs":[],"outputs":[{"name":"","type":"address","internalType":"address"}],"stateMutability":"view"},{"type":"function","name":"safeTransferFrom","inputs":[{"name":"_from","type":"address","internalType":"address"},{"name":"_to","type":"address","internalType":"address"},{"name":"_tokenId","type":"uint256","internalType":"uint256"}],"outputs":[],"stateMutability":"nonpayable"},{"type":"function","name":"safeTransferFrom","inputs":[{"name":"_from","type":"address","internalType":"address"},{"name":"_to","type":"address","internalType":"address"},{"name":"_tokenId","type":"uint256","internalType":"uint256"},{"name":"_data","type":"bytes","internalType":"bytes"}],"outputs":[],"stateMutability":"nonpayable"},{"type":"function","name":"setApprovalForAll","inputs":[{"name":"_operator","type":"address","internalType":"address"},{"name":"_approved","type":"bool","internalType":"bool"}],"outputs":[],"stateMutability":"nonpayable"},{"type":"function","name":"setBaseURI","inputs":[{"name":"_baseURI","type":"string","internalType":"string"}],"outputs":[],"stateMutability":"nonpayable"},{"type":"function","name":"setGovernor","inputs":[{"name":"_governor","type":"address","internalType":"address"}],"outputs":[],"stateMutability":"nonpayable"},{"type":"function","name":"setTheiaRouter","inputs":[{"name":"_theiaRouter","type":"address","internalType":"address"}],"outputs":[],"stateMutability":"nonpayable"},{"type":"function","name":"setTreasury","inputs":[{"name":"_treasury","type":"address","internalType":"address"}],"outputs":[],"stateMutability":"nonpayable"},{"type":"function","name":"setUp","inputs":[{"name":"_governor","type":"address","internalType":"address"},{"name":"_stagingVault","type":"address","internalType":"address"},{"name":"_rewards","type":"address","internalType":"address"},{"name":"_treasury","type":"address","internalType":"address"}],"outputs":[],"stateMutability":"nonpayable"},{"type":"function","name":"slope_changes","inputs":[{"name":"","type":"uint256","internalType":"uint256"}],"outputs":[{"name":"","type":"int128","internalType":"int128"}],"stateMutability":"view"},{"type":"function","name":"split","inputs":[{"name":"_tokenId","type":"uint256","internalType":"uint256"},{"name":"_extraction","type":"uint256","internalType":"uint256"}],"outputs":[{"name":"","type":"uint256","internalType":"uint256"}],"stateMutability":"nonpayable"},{"type":"function","name":"stagingVault","inputs":[],"outputs":[{"name":"","type":"address","internalType":"address"}],"stateMutability":"view"},{"type":"function","name":"supportsInterface","inputs":[{"name":"_interfaceID","type":"bytes4","internalType":"bytes4"}],"outputs":[{"name":"","type":"bool","internalType":"bool"}],"stateMutability":"view"},{"type":"function","name":"symbol","inputs":[],"outputs":[{"name":"","type":"string","internalType":"string"}],"stateMutability":"view"},{"type":"function","name":"theiaRouter","inputs":[],"outputs":[{"name":"","type":"address","internalType":"address"}],"stateMutability":"view"},{"type":"function","name":"token","inputs":[],"outputs":[{"name":"","type":"address","internalType":"address"}],"stateMutability":"view"},{"type":"function","name":"tokenIdsDelegatedTo","inputs":[{"name":"account","type":"address","internalType":"address"}],"outputs":[{"name":"","type":"uint256[]","internalType":"uint256[]"}],"stateMutability":"view"},{"type":"function","name":"tokenIdsDelegatedToAt","inputs":[{"name":"account","type":"address","internalType":"address"},{"name":"timepoint","type":"uint256","internalType":"uint256"}],"outputs":[{"name":"","type":"uint256[]","internalType":"uint256[]"}],"stateMutability":"view"},{"type":"function","name":"tokenOfOwnerByIndex","inputs":[{"name":"_owner","type":"address","internalType":"address"},{"name":"_tokenIndex","type":"uint256","internalType":"uint256"}],"outputs":[{"name":"","type":"uint256","internalType":"uint256"}],"stateMutability":"view"},{"type":"function","name":"tokenURI","inputs":[{"name":"_tokenId","type":"uint256","internalType":"uint256"}],"outputs":[{"name":"","type":"string","internalType":"string"}],"stateMutability":"view"},{"type":"function","name":"totalPower","inputs":[],"outputs":[{"name":"","type":"uint256","internalType":"uint256"}],"stateMutability":"view"},{"type":"function","name":"totalPowerAt","inputs":[{"name":"_block","type":"uint256","internalType":"uint256"}],"outputs":[{"name":"","type":"uint256","internalType":"uint256"}],"stateMutability":"view"},{"type":"function","name":"totalPowerAtT","inputs":[{"name":"t","type":"uint256","internalType":"uint256"}],"outputs":[{"name":"","type":"uint256","internalType":"uint256"}],"stateMutability":"view"},{"type":"function","name":"totalSupply","inputs":[],"outputs":[{"name":"","type":"uint256","internalType":"uint256"}],"stateMutability":"view"},{"type":"function","name":"transferFrom","inputs":[{"name":"_from","type":"address","internalType":"address"},{"name":"_to","type":"address","internalType":"address"},{"name":"_tokenId","type":"uint256","internalType":"uint256"}],"outputs":[],"stateMutability":"nonpayable"},{"type":"function","name":"treasury","inputs":[],"outputs":[{"name":"","type":"address","internalType":"address"}],"stateMutability":"view"},{"type":"function","name":"upgradeToAndCall","inputs":[{"name":"newImplementation","type":"address","internalType":"address"},{"name":"data","type":"bytes","internalType":"bytes"}],"outputs":[],"stateMutability":"payable"},{"type":"function","name":"user_point_epoch","inputs":[{"name":"","type":"uint256","internalType":"uint256"}],"outputs":[{"name":"","type":"uint256","internalType":"uint256"}],"stateMutability":"view"},{"type":"function","name":"user_point_history","inputs":[{"name":"","type":"uint256","internalType":"uint256"},{"name":"","type":"uint256","internalType":"uint256"}],"outputs":[{"name":"bias","type":"int128","internalType":"int128"},{"name":"slope","type":"int128","internalType":"int128"},{"name":"ts","type":"uint256","internalType":"uint256"},{"name":"blk","type":"uint256","internalType":"uint256"}],"stateMutability":"view"},{"type":"function","name":"user_point_history__ts","inputs":[{"name":"_tokenId","type":"uint256","internalType":"uint256"},{"name":"_idx","type":"uint256","internalType":"uint256"}],"outputs":[{"name":"","type":"uint256","internalType":"uint256"}],"stateMutability":"view"},{"type":"function","name":"version","inputs":[],"outputs":[{"name":"","type":"string","internalType":"string"}],"stateMutability":"view"},{"type":"function","name":"withdraw","inputs":[{"name":"_tokenId","type":"uint256","internalType":"uint256"}],"outputs":[],"stateMutability":"nonpayable"},{"type":"event","name":"Approval","inputs":[{"name":"owner","type":"address","indexed":true,"internalType":"address"},{"name":"approved","type":"address","indexed":true,"internalType":"address"},{"name":"tokenId","type":"uint256","indexed":true,"internalType":"uint256"}],"anonymous":false},{"type":"event","name":"ApprovalForAll","inputs":[{"name":"owner","type":"address","indexed":true,"internalType":"address"},{"name":"operator","type":"address","indexed":true,"internalType":"address"},{"name":"approved","type":"bool","indexed":false,"internalType":"bool"}],"anonymous":false},{"type":"event","name":"DelegateChanged","inputs":[{"name":"delegator","type":"address","indexed":true,"internalType":"address"},{"name":"fromDelegate","type":"address","indexed":true,"internalType":"address"},{"name":"toDelegate","type":"address","indexed":true,"internalType":"address"}],"anonymous":false},{"type":"event","name":"DelegateVotesChanged","inputs":[{"name":"delegate","type":"address","indexed":true,"internalType":"address"},{"name":"previousVotes","type":"uint256","indexed":false,"internalType":"uint256"},{"name":"newVotes","type":"uint256","indexed":false,"internalType":"uint256"}],"anonymous":false},{"type":"event","name":"Deposit","inputs":[{"name":"provider","type":"address","indexed":true,"internalType":"address"},{"name":"tokenId","type":"uint256","indexed":false,"internalType":"uint256"},{"name":"value","type":"uint256","indexed":false,"internalType":"uint256"},{"name":"locktime","type":"uint256","indexed":true,"internalType":"uint256"},{"name":"deposit_type","type":"uint8","indexed":false,"internalType":"enum VotingEscrow.DepositType"},{"name":"ts","type":"uint256","indexed":false,"internalType":"uint256"}],"anonymous":false},{"type":"event","name":"Initialized","inputs":[{"name":"version","type":"uint64","indexed":false,"internalType":"uint64"}],"anonymous":false},{"type":"event","name":"Liquidate","inputs":[{"name":"_tokenId","type":"uint256","indexed":true,"internalType":"uint256"},{"name":"_value","type":"uint256","indexed":false,"internalType":"uint256"},{"name":"_penalty","type":"uint256","indexed":false,"internalType":"uint256"}],"anonymous":false},{"type":"event","name":"Merge","inputs":[{"name":"_fromId","type":"uint256","indexed":true,"internalType":"uint256"},{"name":"_toId","type":"uint256","indexed":true,"internalType":"uint256"}],"anonymous":false},{"type":"event","name":"Split","inputs":[{"name":"_tokenId","type":"uint256","indexed":true,"internalType":"uint256"},{"name":"_extractionId","type":"uint256","indexed":true,"internalType":"uint256"},{"name":"_extractionValue","type":"uint256","indexed":false,"internalType":"uint256"}],"anonymous":false},{"type":"event","name":"Supply","inputs":[{"name":"prevSupply","type":"uint256","indexed":false,"internalType":"uint256"},{"name":"supply","type":"uint256","indexed":false,"internalType":"uint256"}],"anonymous":false},{"type":"event","name":"Transfer","inputs":[{"name":"from","type":"address","indexed":true,"internalType":"address"},{"name":"to","type":"address","indexed":true,"internalType":"address"},{"name":"tokenId","type":"uint256","indexed":true,"internalType":"uint256"}],"anonymous":false},{"type":"event","name":"Upgraded","inputs":[{"name":"implementation","type":"address","indexed":true,"internalType":"address"}],"anonymous":false},{"type":"event","name":"Withdraw","inputs":[{"name":"provider","type":"address","indexed":true,"internalType":"address"},{"name":"tokenId","type":"uint256","indexed":false,"internalType":"uint256"},{"name":"value","type":"uint256","indexed":false,"internalType":"uint256"},{"name":"ts","type":"uint256","indexed":false,"internalType":"uint256"}],"anonymous":false},{"type":"error","name":"AddressEmptyCode","inputs":[{"name":"target","type":"address","internalType":"address"}]},{"type":"error","name":"CheckpointUnorderedInsertion","inputs":[]},{"type":"error","name":"ECDSAInvalidSignature","inputs":[]},{"type":"error","name":"ECDSAInvalidSignatureLength","inputs":[{"name":"length","type":"uint256","internalType":"uint256"}]},{"type":"error","name":"ECDSAInvalidSignatureS","inputs":[{"name":"s","type":"bytes32","internalType":"bytes32"}]},{"type":"error","name":"ERC1967InvalidImplementation","inputs":[{"name":"implementation","type":"address","internalType":"address"}]},{"type":"error","name":"ERC1967NonPayable","inputs":[]},{"type":"error","name":"ERC5805FutureLookup","inputs":[{"name":"timepoint","type":"uint256","internalType":"uint256"},{"name":"clock","type":"uint48","internalType":"uint48"}]},{"type":"error","name":"ERC6372InconsistentClock","inputs":[]},{"type":"error","name":"FailedInnerCall","inputs":[]},{"type":"error","name":"InvalidAccountNonce","inputs":[{"name":"account","type":"address","internalType":"address"},{"name":"currentNonce","type":"uint256","internalType":"uint256"}]},{"type":"error","name":"InvalidInitialization","inputs":[]},{"type":"error","name":"NotApproved","inputs":[{"name":"_spender","type":"address","internalType":"address"},{"name":"_tokenId","type":"uint256","internalType":"uint256"}]},{"type":"error","name":"NotInitializing","inputs":[]},{"type":"error","name":"SafeCastOverflowedIntDowncast","inputs":[{"name":"bits","type":"uint8","internalType":"uint8"},{"name":"value","type":"int256","internalType":"int256"}]},{"type":"error","name":"SafeCastOverflowedUintDowncast","inputs":[{"name":"bits","type":"uint8","internalType":"uint8"},{"name":"value","type":"uint256","internalType":"uint256"}]},{"type":"error","name":"SafeCastOverflowedUintToInt","inputs":[{"name":"value","type":"uint256","internalType":"uint256"}]},{"type":"error","name":"SameTimestamp","inputs":[]},{"type":"error","name":"UUPSUnauthorizedCallContext","inputs":[]},{"type":"error","name":"UUPSUnsupportedProxiableUUID","inputs":[{"name":"slot","type":"bytes32","internalType":"bytes32"}]},{"type":"error","name":"VotesExpiredSignature","inputs":[{"name":"expiry","type":"uint256","internalType":"uint256"}]}],"bytecode":{"object":"0x60a08060405234620000d157306080527ff0c57e16840df040f15088dc2f81fe391c3923bec73e23a9662efc9c229c6a009081549060ff8260401c16620000c257506001600160401b036002600160401b0319828216016200007c575b6040516172109081620000d78239608051818181611159015261129f0152f35b6001600160401b031990911681179091556040519081527fc7f505b2f371ae2175ee4913f4499e1f2633a7b5936321eed1cdaeb6115181d290602090a13880806200005c565b63f92ee8a960e01b8152600490fd5b600080fdfe6080604052600436101561001257600080fd5b60003560e01c806301ffc9a7146104e757806306fdde03146104e2578063081812fc146104dd578063095ea7b3146104d85780630c340a24146104d35780631376f3da146104ce57806315a3d33b146104c957806316e0f8bf146104c457806318160ddd146104bf5780631c984bc3146104ba57806323b872dd146104b55780632b6f27ee146104b05780632e1a7d4d146104ab5780632f745c59146104a6578063313ce567146104a15780633a46b1a81461049c578063415f12401461049757806342842e0e14610492578063430c20811461048d578063461f711c146104885780634b19becc146104835780634bf5d7e91461047e5780634f1ef2861461047957806352d1902d1461047457806354fd4d501461046f57806355f804b31461046a5780635601903f14610465578063587cde1e146104605780635c19a95c1461045b57806361d027b3146104565780636352211e1461045157806365fc38731461044c5780636c0360eb146104475780636f5488371461044257806370a082311461043d57806371197484146104385780637a5a75581461043357806380ffde321461042e57806381cc50b914610429578063853633c714610424578063896bdfd01461041f5780638c2c9baf1461041a5780638e539e8c14610415578063900cf0cf1461041057806391ddadf41461040b57806395d89b41146104065780639ab24eb0146104015780639b8621d5146103fc5780639ec5a894146103f7578063a183af52146103f2578063a22cb465146103ed578063a4d855df146103e8578063ad3cb1cc146103e3578063b24fcb3e146103de578063b45a3c0e146103d9578063b88d4fde146103d4578063c2c4c5c1146103cf578063c3cda520146103ca578063c42cf535146103c5578063c87b56dd146103c0578063d1c2babb146103bb578063d1febfb9146103b6578063d4e54c3b146103b1578063db3ad22c146103ac578063e0514aba146103a7578063e441135c146103a2578063e7e242d41461039d578063e985e9c514610398578063ee99fe2814610393578063f0f442601461038e578063f1127ed814610389578063f399e22e14610384578063f8a057631461037f578063fc0c546a1461037a578063fe7f0e8b14610375578063feb91f47146103705763ff0162021461036b57600080fd5b612e55565b612e3c565b612d19565b612cf2565b612cc3565b612abc565b612a33565b6129d3565b612955565b6128f3565b6128d5565b6128a9565b612888565b612859565b61281f565b612794565b612641565b61252d565b6124bd565b6122cf565b61200b565b611fbc565b611f84565b611f61565b611f03565b611e1d565b611d79565b611cdc565b611cb5565b611c98565b611c4d565b611bef565b611bcc565b611bae565b611b1f565b611afe565b611ab0565b611a55565b611a10565b611821565b6117c1565b611792565b611758565b61172c565b611710565b611582565b61154d565b611526565b611504565b6114c9565b611493565b611344565b611328565b611284565b61111a565b611075565b610f7b565b610f36565b610f05565b610edd565b610df5565b610d45565b610d29565b610ce1565b610b8a565b610b59565b610b3e565b610ace565b610ab0565b610a89565b610a2c565b6109be565b61094c565b61081d565b610790565b61075c565b61051b565b7fffffffff0000000000000000000000000000000000000000000000000000000081160361051657565b600080fd5b34610516576020600319360112610516577fffffffff00000000000000000000000000000000000000000000000000000000600435610559816104ec565b166000526018602052602060ff604060002054166040519015158152f35b7f4e487b7100000000000000000000000000000000000000000000000000000000600052604160045260246000fd5b6040810190811067ffffffffffffffff8211176105c257604052565b610577565b6080810190811067ffffffffffffffff8211176105c257604052565b6020810190811067ffffffffffffffff8211176105c257604052565b90601f7fffffffffffffffffffffffffffffffffffffffffffffffffffffffffffffffe0910116810190811067ffffffffffffffff8211176105c257604052565b6040519061064d826105a6565b565b6040519061064d826105c7565b67ffffffffffffffff81116105c257601f017fffffffffffffffffffffffffffffffffffffffffffffffffffffffffffffffe01660200190565b604051906106a3826105e3565b60008252565b604051906106b6826105a6565b601382527f566f74696e6720457363726f77205468656961000000000000000000000000006020830152565b60005b8381106106f55750506000910152565b81810151838201526020016106e5565b907fffffffffffffffffffffffffffffffffffffffffffffffffffffffffffffffe0601f602093610741815180928187528780880191016106e2565b0116010190565b906020610759928181520190610705565b90565b346105165760006003193601126105165761078c6107786106a9565b604051918291602083526020830190610705565b0390f35b3461051657602060031936011261051657600435600052601360205260206001600160a01b0360406000205416604051908152f35b600435906001600160a01b038216820361051657565b602435906001600160a01b038216820361051657565b604435906001600160a01b038216820361051657565b606435906001600160a01b038216820361051657565b34610516576040600319360112610516576108366107c5565b60243560009181835260126020526001600160a01b03806040852054169081156109485780831692828414610944576108ce61091592610880876000526012602052604060002090565b5416331460ff6108bf336108a7886001600160a01b03166000526017602052604060002090565b906001600160a01b0316600052602052604060002090565b5416811561093c575b50613271565b6108e2856000526013602052604060002090565b906001600160a01b03167fffffffffffffffffffffffff0000000000000000000000000000000000000000825416179055565b7f8c5be1e5ebec7d5bd14f71427d1e84f3dd0314c0f7b2291e5b200ac8c7c3b9258480a480f35b9050386108c8565b8580fd5b8480fd5b346105165760006003193601126105165760206001600160a01b0360015416604051908152f35b7f4e487b7100000000000000000000000000000000000000000000000000000000600052603260045260246000fd5b90633b9aca008110156109b9576003020190600090565b610973565b3461051657604060031936011261051657602435600435600052600f602052604060002090633b9aca00811015610516576109f8916109a2565b508054600182015460029092015460408051600f84810b8252608094851d900b602082015290810193909352606083015290f35b3461051657606060031936011261051657610a70610a486107db565b600435600052601a6020526040600020906001600160a01b0316600052602052604060002090565b6044356000526020526020604060002054604051908152f35b346105165760006003193601126105165760206001600160a01b0360035416604051908152f35b34610516576000600319360112610516576020600b54604051908152f35b3461051657604060031936011261051657600435600052600f60205260206001610afe60243560406000206109a2565b500154604051908152f35b6003196060910112610516576001600160a01b0390600435828116810361051657916024359081168103610516579060443590565b3461051657610b57610b4f36610b09565b9033926150d7565b005b34610516576020600319360112610516576004356000526019602052602060ff604060002054166040519015158152f35b3461051657602060031936011261051657600435600854600160ff8216036105165760ff1960029116176008556001600160a01b03908160045416916040517f1772188e000000000000000000000000000000000000000000000000000000008152826004820152602081602481600080985af18015610cae57610c16918591610cb3575b5015613639565b600354169082600a546024604051809581937f842386b200000000000000000000000000000000000000000000000000000000835260048301525afa918215610cae57610c7492610c6f918591610c89575b5015613834565b61528b565b610c86600160ff196008541617600855565b80f35b610ca591503d8087833e610c9d81836105ff565b810190613745565b91505038610c68565b61362d565b610cd4915060203d8111610cda575b610ccc81836105ff565b81019061361e565b38610c0f565b503d610cc2565b34610516576040600319360112610516576001600160a01b03610d026107c5565b16600052601560205260406000206024356000526020526020604060002054604051908152f35b3461051657600060031936011261051657602060405160128152f35b3461051657604060031936011261051657610d5e6107c5565b60243590610d6b826170ec565b65ffffffffffff80421691169281841015610db2576020610daa856001600160a01b038616600052601c8352610da5816040600020614352565b616534565b604051908152f35b6040517fecd3f81e000000000000000000000000000000000000000000000000000000008152600481019190915265ffffffffffff919091166024820152604490fd5b3461051657602060031936011261051657600435600854600160ff8216036105165760ff1960029116176008556001600160a01b03908160045416916040517f1772188e000000000000000000000000000000000000000000000000000000008152826004820152602081602481600080985af18015610cae57610e80918591610cb3575015613639565b600354169082600a546024604051809581937f842386b200000000000000000000000000000000000000000000000000000000835260048301525afa918215610cae57610c7492610ed8918591610c89575015613834565b613f26565b3461051657610b57610eee36610b09565b9060405192610efc846105e3565b60008452615859565b34610516576040600319360112610516576020610f2c610f236107c5565b602435906163de565b6040519015158152f35b346105165760206003193601126105165760043560005260106020526020610f6b604060002054600f835260406000206109a2565b505460801d60405190600f0b8152f35b34610516576040600319360112610516576004356001600160a01b036000602082600454166024604051809481937f1772188e0000000000000000000000000000000000000000000000000000000083528860048401525af18015610cae57610fec91600091610cb3575015613639565b60035416906000600a546024604051809581937f842386b200000000000000000000000000000000000000000000000000000000835260048301525afa908115610cae576110496110529261078c94600091611062575015613834565b60243590613dce565b6040519081529081906020820190565b610ca5913d8091833e610c9d81836105ff565b346105165760006003193601126105165761078c604051611095816105a6565b600e81527f6d6f64653d74696d657374616d700000000000000000000000000000000000006020820152604051918291602083526020830190610705565b81601f82011215610516578035906110ea8261065c565b926110f860405194856105ff565b8284526020838301011161051657816000926020809301838601378301015290565b60406003193601126105165761112e6107c5565b60243567ffffffffffffffff81116105165761114e9036906004016110d3565b6001600160a01b03807f000000000000000000000000000000000000000000000000000000000000000016803014908115611256575b5061122c57611198816001541633146141c4565b8216156111a857610b5791616b44565b60846040517f08c379a000000000000000000000000000000000000000000000000000000000815260206004820152602960248201527f4e657720696d706c656d656e746174696f6e2063616e6e6f74206265207a657260448201527f6f206164647265737300000000000000000000000000000000000000000000006064820152fd5b60046040517fe07c8dba000000000000000000000000000000000000000000000000000000008152fd5b9050817f360894a13ba1a3210667c828492db98dca3e2076cc3735a920a3ca505d382bbc5416141538611184565b34610516576000600319360112610516576001600160a01b037f000000000000000000000000000000000000000000000000000000000000000016300361122c5760206040517f360894a13ba1a3210667c828492db98dca3e2076cc3735a920a3ca505d382bbc8152f35b604051906112fc826105a6565b600582527f312e302e300000000000000000000000000000000000000000000000000000006020830152565b346105165760006003193601126105165761078c6107786112ef565b34610516576020806003193601126105165767ffffffffffffffff90600435828111610516576113789036906004016110d3565b906001916113916001600160a01b0384541633146141c4565b80519384116105c2576113ae846113a9600754611601565b612ea9565b81601f85116001146113eb57506000918491826113de575b505060001991921b9260031b1c191617600755600080f35b01519150600019386113c6565b9190847fffffffffffffffffffffffffffffffffffffffffffffffffffffffffffffffe08195961661143f60076000527fa66cc928b5edb82af9bd49922954155ab7b0942694bea4ce44661d9a8736c68890565b946000905b888383106114795750505010611460575b505050811b01600755005b015160001960f88460031b161c19169055388080611455565b858701518855909601959485019487935090810190611444565b3461051657602060031936011261051657600654600052600e6020526020610daa6004356114c4604060002061427d565b6162c6565b346105165760206003193601126105165760206001600160a01b03806114ed6107c5565b16600052601b825260406000205416604051908152f35b3461051657602060031936011261051657610b576115206107c5565b33614e8d565b346105165760006003193601126105165760206001600160a01b0360025416604051908152f35b3461051657602060031936011261051657600435600052601260205260206001600160a01b0360406000205416604051908152f35b3461051657604060031936011261051657600854600160ff82160361051657602090600260ff198092161760085560016115c1336024356004356145c2565b916008541617600855604051908152f35b7f4e487b7100000000000000000000000000000000000000000000000000000000600052600060045260246000fd5b90600182811c9216801561164a575b602083101461161b57565b7f4e487b7100000000000000000000000000000000000000000000000000000000600052602260045260246000fd5b91607f1691611610565b604051906000826007549161166883611601565b808352926001908181169081156116ee575060011461168f575b5061064d925003836105ff565b6007600090815291507fa66cc928b5edb82af9bd49922954155ab7b0942694bea4ce44661d9a8736c6885b8483106116d3575061064d935050810160200138611682565b81935090816020925483858a010152019101909185926116ba565b6020935061064d95925060ff1991501682840152151560051b82010138611682565b346105165760006003193601126105165761078c610778611654565b3461051657602060031936011261051657600435600052600d6020526020604060002054604051908152f35b34610516576020600319360112610516576001600160a01b036117796107c5565b1660005260146020526020604060002054604051908152f35b346105165760206003193601126105165760043560005260116020526020604060002054600f0b604051908152f35b34610516576020600319360112610516576117da6107c5565b6001600160a01b03906117f2826001541633146141c4565b167fffffffffffffffffffffffff00000000000000000000000000000000000000006005541617600555600080f35b346105165760806003193601126105165761183a6107c5565b6118426107db565b9061184b6107f1565b611853610807565b926118c36118696001546001600160a01b031690565b6001600160a01b03946118878683168015908115611a065750613271565b8086166119d057506001600160a01b03167fffffffffffffffffffffffff00000000000000000000000000000000000000006001541617600155565b8083166119c757506119146118e06003546001600160a01b031690565b6001600160a01b03167fffffffffffffffffffffffff00000000000000000000000000000000000000006003541617600355565b8082166119be57506119656119316004546001600160a01b031690565b6001600160a01b03167fffffffffffffffffffffffff00000000000000000000000000000000000000006004541617600455565b81166119b55750610b576119816002546001600160a01b031690565b6001600160a01b03167fffffffffffffffffffffffff00000000000000000000000000000000000000006002541617600255565b610b5790611981565b61196590611931565b611914906118e0565b90506001600160a01b03167fffffffffffffffffffffffff00000000000000000000000000000000000000006001541617600155565b90503314386108c8565b3461051657600080600319360112611a52576001600160a01b03611a39816001541633146141c4565b6002541615611a5257600160ff19601e541617601e5580f35b80fd5b346105165760006003193601126105165760206001600160a01b0360055416604051908152f35b90815180825260208080930193019160005b828110611a9c575050505090565b835185529381019392810192600101611a8e565b34610516576020600319360112610516576001600160a01b03611ad16107c5565b16600052601c60205261078c611aea6040600020614303565b604051918291602083526020830190611a7c565b34610516576040600319360112610516576020610daa6024356004356160e9565b3461051657602060031936011261051657600435611b3c816170ec565b65ffffffffffff90814216918291161015611b6e576020610daa83600654600052600e83526114c4604060002061427d565b6040517fecd3f81e000000000000000000000000000000000000000000000000000000008152600481019290925265ffffffffffff166024820152604490fd5b34610516576000600319360112610516576020600654604051908152f35b3461051657600060031936011261051657602060405165ffffffffffff42168152f35b346105165760006003193601126105165761078c604051611c0f816105a6565b600781527f76655448454941000000000000000000000000000000000000000000000000006020820152604051918291602083526020830190610705565b34610516576020600319360112610516576001600160a01b03611c6e6107c5565b16600052601c6020526020610daa611c896040600020614303565b65ffffffffffff421690616534565b3461051657600060031936011261051657602060405161c3508152f35b346105165760006003193601126105165760206001600160a01b0360045416604051908152f35b3461051657604060031936011261051657600435602435600854600160ff8216036105165760ff1916600217600855611d15823361645a565b600091808352600c602052604083209160405191611d32836105a6565b8460018554600f0b958686520154602085019081528315611d6b57611d5e611d6692610c749713613299565b5142106132fe565b614772565b5080fd5b8015150361051657565b3461051657604060031936011261051657611d926107c5565b602435611d9e81611d6f565b611dde6001600160a01b03831692611db833851415613a81565b3360005260176020526040600020906001600160a01b0316600052602052604060002090565b9015159060ff1981541660ff83161790556040519081527f17307eab39ab6107e8899845ad3d59bd9653f200f220920489ca2b5937696c3160203392a3005b346105165760406003193601126105165760085460043560001960ff83160161051657600260ff19611ef1931617600855611e58813361645a565b80600052600c602052604060002090600160405192611e76846105a6565b8054600f0b845201549060208301918252611ed8611eaa611ea5611e9c602435426133ea565b62093a80900490565b613430565b92611eb74282511161348a565b611ed06000611ec78751600f0b90565b600f0b136134ef565b518311613554565b611eec611ee4426133b7565b8311156135b9565b61495d565b610b57600160ff196008541617600855565b346105165760006003193601126105165761078c604051611f23816105a6565b600581527f352e302e300000000000000000000000000000000000000000000000000000006020820152604051918291602083526020830190610705565b3461051657600060031936011261051657602060ff601e54166040519015158152f35b3461051657602060031936011261051657600435600052600c60205260408060002060018154600f0b91015482519182526020820152f35b3461051657608060031936011261051657611fd56107c5565b611fdd6107db565b6064359167ffffffffffffffff831161051657612001610b579336906004016110d3565b9160443591615859565b3461051657600080600319360112611a52576040519061202a826105a6565b808252806020809301528082604051612042816105a6565b828152015261204f61599e565b5061205861599e565b506006549161206561064f565b908282528281830152426040830152606091438382015291846122ab575b6040830191825192859284421161227a575b9693906120a962093a808395949504613430565b9787985b60ff8a106120dd575b88610c86896120d88a6120c881600655565b600052600e602052604060002090565b6159da565b6120e789916133da565b93818988874281111561223a575061212b97509161214b61214461215a9361213f61213761216197612131429e8f925b86019b6121258d51600f0b90565b93613a74565b600f0b90565b906159c3565b9151600f0b90565b613d87565b600f0b8d52565b8351600f0b61472b565b61472b565b600f0b8252565b8161217061212b8b51600f0b90565b12612232575b8161218561212b8351600f0b90565b1261222a575b505082948383526121cf828901976121c889516121c26121b46121ae8a80613a74565b8b613477565b670de0b6b3a7640000900490565b906133ea565b89526133cc565b994285036121f65750505050505050610c8692936120d891439052908493388080806120b6565b61221e9192939495969750612219896120d88d600052600e602052604060002090565b6145b3565b989592919094936120ad565b52873861218b565b818952612176565b612161935061214461215a9361213f6121378c61213161212b61227461226d61214b996000526011602052604060002090565b54600f0b90565b98612117565b92506122a561229461228f8588015143613a74565b61345f565b61229f835142613a74565b906133f7565b92612095565b91506122c96122c485600052600e602052604060002090565b61427d565b91612083565b346105165760c0600319360112610516576122e86107c5565b6024359060643560443560ff821682036105165780421161248a579061233061240e926123136106a9565b61231b6112ef565b604051938491602083019330914691866144c5565b03926123627fffffffffffffffffffffffffffffffffffffffffffffffffffffffffffffffe0948581018352826105ff565b519020916123ca60405191826123be60208201958b8b886060919493926001600160a01b0360808301967fe48329057bfd03d55e49b547132e39cffd9c1820ad7b9d4c5307691425d15adf845216602083015260408201520152565b039081018352826105ff565b519020604051917f190100000000000000000000000000000000000000000000000000000000000083526002830152602282015260a4359160426084359220616df9565b61242b816001600160a01b0316600052601d602052604060002090565b80549384916001830190550361244557610b579250614e8d565b6040517f752d88c00000000000000000000000000000000000000000000000000000000081526001600160a01b03919091166004820152602481019290925250604490fd5b6040517f4683af0e0000000000000000000000000000000000000000000000000000000081526004810191909152602490fd5b34610516576020600319360112610516576124d66107c5565b600154906001600160a01b038083168015908115612523575b5015610516577fffffffffffffffffffffffff00000000000000000000000000000000000000009116911617600155600080f35b90503314386124ef565b34610516576020600319360112610516576004358060005260126020526001600160a01b0360406000205416156125e357612566611654565b8051156125d1576125c56125939161259961258361078c956165f1565b604051948593602085019061441e565b9061441e565b037fffffffffffffffffffffffffffffffffffffffffffffffffffffffffffffffe081018352826105ff565b60405191829182610748565b505061078c6125de610696565b6125c5565b60646040517f08c379a000000000000000000000000000000000000000000000000000000000815260206004820152601b60248201527f517565727920666f72206e6f6e6578697374656e7420746f6b656e00000000006044820152fd5b346105165760406003193601126105165760048035906024356001600160a01b03928383541693604051907f1772188e00000000000000000000000000000000000000000000000000000000808352838684015260209081846024816000809c5af1908115610cae576126be83928a96879161277d575015613639565b60248489541691604051968793849283528a8c8401525af18015610cae5787936126f1928592612760575b505015613639565b600354600a546040517f842386b20000000000000000000000000000000000000000000000000000000081529687015285916024918391165afa928315610cae57610c869361274791869161274c575015613834565b613ab7565b610ca591503d8088833e610c9d81836105ff565b6127769250803d10610cda57610ccc81836105ff565b38806126e9565b610cd49150843d8611610cda57610ccc81836105ff565b3461051657602060031936011261051657600435600052600e6020526040600020805461078c600260018401549301546040519383859460801d90600f0b85909493926060926080830196600f0b8352600f0b602083015260408201520152565b60031960609101126105165760043590602435906044356001600160a01b03811681036105165790565b346105165761282d366127f5565b919060085491600160ff841603610516576020936001926115c192600260ff19809716176008556145c2565b3461051657600060031936011261051657600654600052600e6020526020610daa426114c4604060002061427d565b34610516576040600319360112610516576020610daa602435600435616034565b346105165760206003193601126105165760043560005260106020526020604060002054604051908152f35b34610516576020600319360112610516576020610daa60043561424f565b3461051657604060031936011261051657602060ff6129496129136107c5565b6001600160a01b036129236107db565b9116600052601784526040600020906001600160a01b0316600052602052604060002090565b54166040519015158152f35b3461051657604060031936011261051657600435602435600854600160ff8216036105165760ff196002911617600855600091808352600c6020526040832091604051916129a2836105a6565b8460018554600f0b958686520154602085019081528315611d6b57611d5e6129ce92610c749713613299565b614a40565b34610516576020600319360112610516576129ec6107c5565b6001600160a01b0390612a04826001541633146141c4565b167fffffffffffffffffffffffff00000000000000000000000000000000000000006002541617600255600080f35b3461051657604060031936011261051657612a4c6107c5565b60243563ffffffff8116810361051657612a92612a98916001600160a01b03602094612a76614435565b5016600052601c84526040600020612a8c614435565b50614336565b5061444f565b61078c60405192839281845280518285015201516040808401526060830190611a7c565b3461051657604060031936011261051657612ad56107c5565b67ffffffffffffffff9060243582811161051657612af79036906004016110d3565b7ff0c57e16840df040f15088dc2f81fe391c3923bec73e23a9662efc9c229c6a00549260ff8460401c1615931680159081612cbb575b6001149081612cb1575b159081612ca8575b50612c7e57612ba19183612b987ff0c57e16840df040f15088dc2f81fe391c3923bec73e23a9662efc9c229c6a0060017fffffffffffffffffffffffffffffffffffffffffffffffff0000000000000000825416179055565b612c2257612f0a565b612ba757005b612bf37ff0c57e16840df040f15088dc2f81fe391c3923bec73e23a9662efc9c229c6a007fffffffffffffffffffffffffffffffffffffffffffffff00ffffffffffffffff8154169055565b604051600181527fc7f505b2f371ae2175ee4913f4499e1f2633a7b5936321eed1cdaeb6115181d290602090a1005b612c797ff0c57e16840df040f15088dc2f81fe391c3923bec73e23a9662efc9c229c6a00680100000000000000007fffffffffffffffffffffffffffffffffffffffffffffff00ffffffffffffffff825416179055565b612f0a565b60046040517ff92ee8a9000000000000000000000000000000000000000000000000000000008152fd5b90501538612b3f565b303b159150612b37565b849150612b2d565b3461051657602060031936011261051657600435600052600c6020526020600160406000200154604051908152f35b346105165760006003193601126105165760206001600160a01b0360005416604051908152f35b346105165760206003193601126105165761078c611052600435612d3f43821115613a81565b612da6600654612d4f81846164b1565b92612d676122c485600052600e602052604060002090565b93600092811015612df0576122c46120c8612d81926133cc565b60608501908151606082019384518203612dac575b50505050505b60408301516133ea565b906162c6565b612de6955091612dd66040612dc8612ddc9461229f9796613a74565b92015160408a015190613a74565b90613477565b9251905190613a74565b3880808080612d96565b506060840190815190438203612e09575b505050612d9c565b612e349350612e1e61229f92612e2c92613a74565b612dd6604088015142613a74565b915143613a74565b388080612e01565b34610516576020610daa612e4f366127f5565b91614474565b34610516576040600319360112610516576001600160a01b03612e766107c5565b16600052601c60205261078c611aea6024356040600020614352565b818110612e9d575050565b60008155600101612e92565b90601f8211612eb6575050565b61064d9160076000527fa66cc928b5edb82af9bd49922954155ab7b0942694bea4ce44661d9a8736c688906020601f840160051c83019310612f00575b601f0160051c0190612e92565b9091508190612ef3565b9190916001600160a01b03600091167fffffffffffffffffffffffff0000000000000000000000000000000000000000825416178155825167ffffffffffffffff81116105c257612f60816113a9600754611601565b602080601f83116001146131c857508293948293926131bd575b50506000198260011b9260031b1c1916176007555b437fe710864318d4a32f37d6ce54cb3fadbef648dd12d8dbdf53973564d56b7f881e55427fe710864318d4a32f37d6ce54cb3fadbef648dd12d8dbdf53973564d56b7f881d557f01ffc9a70000000000000000000000000000000000000000000000000000000060005260186020526130307f7870b45acb18b072b8f477632bb6360a123dfe426f9bfb9ebf368ab0b6a8505f5b600160ff19825416179055565b7f80ac58cd0000000000000000000000000000000000000000000000000000000060005260186020526130827fbf8097e11fbe55e62283cbb89d064d64d4732959e6e218da57a9f4f7b7582e91613023565b7f5b5e139f0000000000000000000000000000000000000000000000000000000060005260186020526130d47f6a897876102a9bb6da5bcde1022507015d90bf773d3e5daeac34d8cb99f63880613023565b7fe90fb3f60000000000000000000000000000000000000000000000000000000060005260186020526131267fff428cea1a24f6e6bc9759a5c41da62c5997034965d58f1722e6ee0e57b61ff3613023565b7fda287a1d0000000000000000000000000000000000000000000000000000000060005260186020526131787f7328e0ec0d33b0e8259c6184e9681ed35d70d6020bdd75da2a94998ffc229b17613023565b61318a600160ff196008541617600855565b600a54907fddf252ad1be2c89b69c2b068fc378daa952ba7f163c4a11628f55a4df523b3ef823083838180a430908280a4565b015190503880612f7a565b907fffffffffffffffffffffffffffffffffffffffffffffffffffffffffffffffe083169561321960076000527fa66cc928b5edb82af9bd49922954155ab7b0942694bea4ce44661d9a8736c68890565b9285905b88821061325957505083600195969710613240575b505050811b01600755612f8f565b015160001960f88460031b161c19169055388080613232565b8060018596829496860151815501950193019061321d565b1561051657565b90604051613285816105a6565b6020600182948054600f0b84520154910152565b156132a057565b60646040517f08c379a000000000000000000000000000000000000000000000000000000000815260206004820152601660248201527f4e6f206578697374696e67206c6f636b20666f756e64000000000000000000006044820152fd5b1561330557565b60846040517f08c379a0000000000000000000000000000000000000000000000000000000008152602060048201526024808201527f43616e6e6f742061646420746f2065787069726564206c6f636b2e205769746860448201527f64726177000000000000000000000000000000000000000000000000000000006064820152fd5b7f4e487b7100000000000000000000000000000000000000000000000000000000600052601160045260246000fd5b9062f099c082018092116133c757565b613388565b90600182018092116133c757565b9062093a8082018092116133c757565b919082018092116133c757565b8115613401570490565b7f4e487b7100000000000000000000000000000000000000000000000000000000600052601260045260246000fd5b9062093a80918281029281840414901517156133c757565b9061c350918281029281840414901517156133c757565b90670de0b6b3a764000091808302928304036133c757565b818102929181159184041417156133c757565b1561349157565b60646040517f08c379a000000000000000000000000000000000000000000000000000000000815260206004820152600c60248201527f4c6f636b206578706972656400000000000000000000000000000000000000006044820152fd5b156134f657565b60646040517f08c379a000000000000000000000000000000000000000000000000000000000815260206004820152601160248201527f4e6f7468696e67206973206c6f636b65640000000000000000000000000000006044820152fd5b1561355b57565b60646040517f08c379a000000000000000000000000000000000000000000000000000000000815260206004820152601f60248201527f43616e206f6e6c7920696e637265617365206c6f636b206475726174696f6e006044820152fd5b156135c057565b60646040517f08c379a000000000000000000000000000000000000000000000000000000000815260206004820152601e60248201527f566f74696e67206c6f636b2063616e2062652034207965617273206d617800006044820152fd5b90816020910312610516575190565b6040513d6000823e3d90fd5b1561364057565b60846040517f08c379a000000000000000000000000000000000000000000000000000000000815260206004820152603860248201527f766554484549413a20436c61696d2072657761726473206265666f726520696e60448201527f746572616374696e67207769746820746f6b656e2049442e00000000000000006064820152fd5b67ffffffffffffffff81116105c25760051b60200190565b81601f82011215610516578051916136f3836136c4565b9261370160405194856105ff565b808452602092838086019260051b820101928311610516578301905b82821061372b575050505090565b8151815290830190830161371d565b519061064d82611d6f565b90916060828403126105165781519267ffffffffffffffff9384811161051657830181601f820112156105165780519461377e866136c4565b60409261378d845192836105ff565b878252602097888084019160051b8301019186831161051657898101915b8383106137d757505050509585015190811161051657610759926137d09186016136dc565b930161373a565b82518681116105165782019088603f83011215610516578b820151906137fc8261065c565b6138088a5191826105ff565b8281528a8a8486010111610516576138298e949385948c86850191016106e2565b8152019201916137ab565b1561383b57565b60846040517f08c379a000000000000000000000000000000000000000000000000000000000815260206004820152603060248201527f766554484549413a20746f6b656e4964207374696c6c2068617320736f6d652060448201527f7374616b6564206c6971756964697479000000000000000000000000000000006064820152fd5b156138c657565b60a46040517f08c379a000000000000000000000000000000000000000000000000000000000815260206004820152604160248201527f766543544d3a204d657267696e67206265747765656e20766f74696e6720616e60448201527f64206e6f6e2d766f74696e6720746f6b656e204944206e6f7420616c6c6f776560648201527f64000000000000000000000000000000000000000000000000000000000000006084820152fd5b9060206001916139bc8151600f0b85907fffffffffffffffffffffffffffffffff00000000000000000000000000000000825416906fffffffffffffffffffffffffffffffff16179055565b0151910155565b604051906139d0826105a6565b6001825260203681840137565b6040516139e9816105e3565b60008152906000368137565b906139ff826136c4565b613a0c60405191826105ff565b8281527fffffffffffffffffffffffffffffffffffffffffffffffffffffffffffffffe0613a3a82946136c4565b0190602036910137565b8051156109b95760200190565b80518210156109b95760209160051b010190565b9060001982019182116133c757565b919082039182116133c757565b15613a8857565b7f4e487b7100000000000000000000000000000000000000000000000000000000600052600160045260246000fd5b613adc613ad8613ad1836000526019602052604060002090565b5460ff1690565b1590565b80613d67575b8015613d27575b613af2906138bf565b613afe82821415613271565b613b08813361645a565b613b12823361645a565b613b2681600052600d602052604060002090565b5465ffffffffffff4216809114908115613d09575b50613cdf577f78229c368fd1968ee0b5c695d7bf34d9fa963dd6dcd7c9b32b62fac9f4433424613c86613cdb613b8b613b7e856000526012602052604060002090565b546001600160a01b031690565b613bc4613bb4613ba8613b7e886000526012602052604060002090565b6001600160a01b031690565b6001600160a01b03831614613271565b613cd2613ccd60095492613cc5613bed613be88a600052600c602052604060002090565b613278565b613c04613be88c600052600c602052604060002090565b90613cb5613c1661212b8351600f0b90565b94613c9c8d613c55613c2c61212b8851600f0b90565b61229f613c4e613c4060208a01518d613477565b6121c260208c015185613477565b918b6133ea565b94613c5e610640565b9160009e8f93848152846020820152613c8183600052600c602052604060002090565b613970565b613c8e610640565b928084526020840152615a8e565b613ca46139c3565b908d613caf83613a44565b52614f6a565b613cbe8b6156be565b838c614b8f565b600954613a74565b600955565b60095414613a81565b80a3565b60046040517f9435749b000000000000000000000000000000000000000000000000000000008152fd5b9050613d1f83600052600d602052604060002090565b541438613b3b565b50613d3f613ad1826000526019602052604060002090565b8015613ae95750613af2613d60613ad1846000526019602052604060002090565b9050613ae9565b50613d82613ad8613ad1846000526019602052604060002090565b613ae2565b90600f0b90600f0b03906f7fffffffffffffffffffffffffffffff82137fffffffffffffffffffffffffffffffff800000000000000000000000000000008312176133c757565b9061105291613ddd813361645a565b7fcf0974dfd867840133a0d4b02f1672f24017796fb8892d1e0d587692e4da90ab613ef8613e18613b7e846000526012602052604060002090565b93613e30613be885600052600c602052604060002090565b613e61613e3e8251600f0b90565b613e4f613e4a8561717f565b617137565b9061213f81600f0b83600f0b12613271565b95613ebe600954976020840193613e9c8551613e7b610640565b600f85900b8152906020820152613c818b600052600c602052604060002090565b8451613eb3613ea9610640565b938490600f0b9052565b602083015288615a8e565b613ed5613ad1876000526019602052604060002090565b15613efe57613ee5915183614474565b9586955b613cd2613ccd84600954613a74565b0390a390565b613f099151836145c2565b958695613ee9565b90816020910312610516575161075981611d6f565b613f3a613f35601e5460ff1690565b613271565b613f44813361645a565b613f5b613b7e826000526012602052604060002090565b613f72613be883600052600c602052604060002090565b906020808301514210156141b857613f8e61212b8451600f0b90565b90613f9f64174876e8008311613271565b613fbd613fb4613faf4288616034565b613448565b620186a0900490565b92613fc9841515613a81565b61401d613fd4610640565b95613ff76000978881528886820152613c818a600052600c602052604060002090565b614006613ccd86600954613a74565b61400e610640565b90878252878583015288615a8e565b614034613ba8613ba887546001600160a01b031690565b9461403f8585613a74565b6040517fa9059cbb000000000000000000000000000000000000000000000000000000008082526001600160a01b03851660048301526024820192909252909684908290604490829086905af18015610cae576140ff976140aa88928794869161419b575b50613a81565b6140c1613ba8613ba886546001600160a01b031690565b90846140d56002546001600160a01b031690565b6040519283526001600160a01b031660048301526024820193909352988992839182906044820190565b03925af18015610cae577f199c51a8cd3b6aa8f80abc4f5c713f20c111837887163a1bbaa2dd5f61a554ab9661415394614140939261416e575b5050613a81565b6141486139c3565b9086613caf83613a44565b61415c846156be565b604080519182526020820192909252a2565b61418d9250803d10614194575b61418581836105ff565b810190613f11565b3880614139565b503d61417b565b6141b29150853d87116141945761418581836105ff565b386140a4565b50505061064d9061528b565b156141cb57565b60846040517f08c379a000000000000000000000000000000000000000000000000000000000815260206004820152603260248201527f766554484549413a204f6e6c7920476f7665726e6f722063616e20706572666f60448201527f726d2074686973206f7065726174696f6e2e00000000000000000000000000006064820152fd5b80600052600d60205260406000205465ffffffffffff42161461427757610759904290616034565b50600090565b9060405161428a816105c7565b606060028294805480600f0b855260801d600f0b6020850152600181015460408501520154910152565b9060405191828154918282526020928383019160005283600020936000905b8282106142e95750505061064d925003836105ff565b8554845260019586019588955093810193909101906142d3565b8054806143145750506107596139dd565b60001981019081116133c75761432f60019161075993614336565b50016142b4565b80548210156109b95760005260206000209060011b0190600090565b8054600081600581116143db575b509290925b8381106143955750508161437d5750506107596139dd565b61432f60019161438f61075994613a65565b90614336565b9092808216906001818418811c83018093116133c757856143b68487614336565b505411156143c8575050925b90614365565b9094925081018091116133c757906143c2565b90916143e682616fa5565b82039182116133c7576143f98285614336565b505485101561440b5750905b38614360565b9150600181018091111561440557613388565b90614431602092828151948592016106e2565b0190565b60405190614442826105a6565b6060602083600081520152565b9060405161445c816105a6565b602061446f6001839580548552016142b4565b910152565b909160085492600160ff8516036105165761449a92600260ff19809616176008556145c2565b9081600052601960205260016040600020918254161790559061064d600160ff196008541617600855565b92949361451c60809361450e6001600160a01b03947f8b73c3c69bb8fe3d512ecc4cf759cc79239f7b179b0ffacaa9a75d522b39400f885260a0602089015260a0880190610705565b908682036040880152610705565b95606085015216910152565b1561452f57565b60846040517f08c379a000000000000000000000000000000000000000000000000000000000815260206004820152602660248201527f43616e206f6e6c79206c6f636b20756e74696c2074696d6520696e207468652060448201527f66757475726500000000000000000000000000000000000000000000000000006064820152fd5b60001981146133c75760010190565b904201908142116133c7576145de62093a806146479304613430565b6145e9821515613271565b6145f4428211614528565b614608614600426133b7565b8211156135b9565b61461b614616600a546145b3565b600a55565b614628600a548095615666565b50614640613be885600052600c602052604060002090565b9184614d46565b61465e613b7e826000526012602052604060002090565b6001600160a01b03614686613b7e836001600160a01b0316600052601b602052604060002090565b16614695578061075991614e8d565b610759906146cc613b7e6146a76139c3565b92856146b285613a44565b526001600160a01b0316600052601b602052604060002090565b614fd4565b604051906146de826105a6565b60006020838281520152565b600f0b907fffffffffffffffffffffffffffffffff8000000000000000000000000000000082126f7fffffffffffffffffffffffffffffff8313176133c757565b90600f0b90600f0b01907fffffffffffffffffffffffffffffffff8000000000000000000000000000000082126f7fffffffffffffffffffffffffffffff8313176133c757565b919060095491614785613ccd83856133ea565b6147f66147906146d1565b9161479c8151600f0b90565b926147b56020830194855160208401528290600f0b9052565b6147d86147d16147c7613e4a8861717f565b8451600f0b61472b565b600f0b8352565b6147f082613c8189600052600c602052604060002090565b86615a8e565b81151580614955575b614893575b5160408051948552602085018390526002908501524260608501527f5e2aa66efd74cce82b21852e317e5490d9ecc9e6bb953ae24d90851258cc2f5c9361487a92919033907fff04ccafc360e16b67d682d17bd9503c4c6b9a131f6be6325762dc9ffc7de6249080608081015b0390a3826133ea565b604080519283526020830191909152819081015b0390a1565b906148ac613ba8613ba86000546001600160a01b031690565b6040517f23b872dd000000000000000000000000000000000000000000000000000000008152336004820152306024820152604481018390529490602090869060649082906000905af1928315610cae5761493361487a947f5e2aa66efd74cce82b21852e317e5490d9ecc9e6bb953ae24d90851258cc2f5c9760009161493d5750613a81565b9192509350614804565b6141b2915060203d81116141945761418581836105ff565b5060016147ff565b917f5e2aa66efd74cce82b21852e317e5490d9ecc9e6bb953ae24d90851258cc2f5c9261488e926149de600954936149936146d1565b815193602083019485516020840152600f0b82526149b48351600f0b6146ea565b600f0b835280614a38575b506149d882613c8187600052600c602052604060002090565b84615a8e565b519060405190815260006020820152600360408201524260608201527fff04ccafc360e16b67d682d17bd9503c4c6b9a131f6be6325762dc9ffc7de62460803392a360408051828152602081019290925290918291820190565b8452386149bf565b919060095491614a53613ccd83856133ea565b614a5e6147906146d1565b81151580614b87575b614add575b5160408051948552602085018390526000908501524260608501527f5e2aa66efd74cce82b21852e317e5490d9ecc9e6bb953ae24d90851258cc2f5c9361487a92919033907fff04ccafc360e16b67d682d17bd9503c4c6b9a131f6be6325762dc9ffc7de624908060808101614871565b90614af6613ba8613ba86000546001600160a01b031690565b6040517f23b872dd000000000000000000000000000000000000000000000000000000008152336004820152306024820152604481018390529490602090869060649082906000905af1928315610cae57614b7d61487a947f5e2aa66efd74cce82b21852e317e5490d9ecc9e6bb953ae24d90851258cc2f5c9760009161493d5750613a81565b9192509350614a6c565b506001614a67565b9291614c0d60095493614ba5613ccd85876133ea565b614bad6146d1565b8151600f0b93614bcb6020840195865160208501528390600f0b9052565b614bee614be7614bdd613e4a8961717f565b8551600f0b61472b565b600f0b8452565b80614d3e575b506147f082613c8189600052600c602052604060002090565b81151580614d36575b614c8c575b5160408051948552602085018390526004908501524260608501527f5e2aa66efd74cce82b21852e317e5490d9ecc9e6bb953ae24d90851258cc2f5c9361487a92919033907fff04ccafc360e16b67d682d17bd9503c4c6b9a131f6be6325762dc9ffc7de624908060808101614871565b90614ca5613ba8613ba86000546001600160a01b031690565b6040517f23b872dd000000000000000000000000000000000000000000000000000000008152336004820152306024820152604481018390529490602090869060649082906000905af1928315610cae57614d2c61487a947f5e2aa66efd74cce82b21852e317e5490d9ecc9e6bb953ae24d90851258cc2f5c9760009161493d5750613a81565b9192509350614c1b565b506000614c16565b845238614bf4565b9291614d5c60095493614ba5613ccd85876133ea565b81151580614e85575b614ddb575b5160408051948552602085018390526001908501524260608501527f5e2aa66efd74cce82b21852e317e5490d9ecc9e6bb953ae24d90851258cc2f5c9361487a92919033907fff04ccafc360e16b67d682d17bd9503c4c6b9a131f6be6325762dc9ffc7de624908060808101614871565b90614df4613ba8613ba86000546001600160a01b031690565b6040517f23b872dd000000000000000000000000000000000000000000000000000000008152336004820152306024820152604481018390529490602090869060649082906000905af1928315610cae57614e7b61487a947f5e2aa66efd74cce82b21852e317e5490d9ecc9e6bb953ae24d90851258cc2f5c9760009161493d5750613a81565b9192509350614d6a565b506001614d65565b91906001600160a01b03809316906000828152602090601b825260409081812096614eea85828a541699906001600160a01b03167fffffffffffffffffffffffff0000000000000000000000000000000000000000825416179055565b841687867f3134e8a2e6d97e929a7e54011ea5485d7d196dd5f0ba4d4ef95803e8e3fc257f8480a4601483528181205492614f24846139f5565b95825b858110614f3e5750505050505061064d929361505a565b614f659082855260158452858520818652845285852054614f5f828b613a51565b526145b3565b614f27565b6001600160a01b03169081151580614f8157505050565b614f89575050565b614fc17fdec2bacdd2f05b59de34da9b523dff8be42e5e38e818c82fdb0bae774387a7249183600052601c6020526040600020616741565b60408051928352602083019190915290a2565b906001600160a01b0382169182151580614fef575b50505050565b614ffa575b80614fe9565b7fdec2bacdd2f05b59de34da9b523dff8be42e5e38e818c82fdb0bae774387a7249161503c615041926001600160a01b0316600052601c602052604060002090565b616861565b60408051928352602083019190915290a2388080614ff4565b91906001600160a01b0380821693168381036150765750505050565b80615088575b5082614ffa5780614fe9565b80600052601c6020527fdec2bacdd2f05b59de34da9b523dff8be42e5e38e818c82fdb0bae774387a7246150c0846040600020616741565b60408051928352602083019190915290a23861507c565b909192836150e49161645a565b6150ec6139c3565b918251156109b95783602084015261510e84600052600d602052604060002090565b549265ffffffffffff4216809414613cdf577fddf252ad1be2c89b69c2b068fc378daa952ba7f163c4a11628f55a4df523b3ef916151946001600160a01b03928361516c876001600160a01b0316600052601b602052604060002090565b54168461518c856001600160a01b0316600052601b602052604060002090565b54169061505a565b60009486865260126020526151d68784604089205416966151b9868216809914613a81565b81895260136020526040892080548781166151fb575b50506154f9565b6151e08783615447565b6151f487600052600d602052604060002090565b55169280a4565b7fffffffffffffffffffffffff000000000000000000000000000000000000000016905538806151cf565b1561522d57565b60646040517f08c379a000000000000000000000000000000000000000000000000000000000815260206004820152601660248201527f546865206c6f636b206469646e277420657870697265000000000000000000006044820152fd5b615295813361645a565b6152ac613be882600052600c602052604060002090565b6020916152be83830151421015615226565b6152cc61212b8351600f0b90565b6152e3613b7e836000526012602052604060002090565b916152ec610640565b9461530f6000968781528783820152613c8184600052600c602052604060002090565b61533a60095495615323613ccd8689613a74565b61532b610640565b90888252888483015284615a8e565b615351613ba8613ba888546001600160a01b031690565b6040517fa9059cbb0000000000000000000000000000000000000000000000000000000081526001600160a01b03861660048201526024810185905291908190839060449082908b905af1948515610cae5761540361487a967f02f25270a4d87bea75db541cdfe559334a275b4a233520ed6c0a2429667cca94946001600160a01b03947f5e2aa66efd74cce82b21852e317e5490d9ecc9e6bb953ae24d90851258cc2f5c9b9261416e575050613a81565b61541f61540e6139c3565b8561541882613a44565b5282614f6a565b615428846156be565b604080519485526020850186905242908501521691606090a282613a74565b6154eb9160008181526020906012825260166001600160a01b039260409361547481868620541615613a81565b8584526012825284842080547fffffffffffffffffffffffff0000000000000000000000000000000000000000166001600160a01b03891617905586168352601481528383205494601582528484208685528252808585205583525220556001600160a01b03166000526014602052604060002090565b6154f581546133cc565b9055565b600082815260126020526001600160a01b0361552081604084205416918416809214613a81565b8382526012602052615557604083207fffffffffffffffffffffffff00000000000000000000000000000000000000008154169055565b81526014602052604081205460001981019081116133c75783826155886155ef966000526016602052604060002090565b548381036155f957506155c46155d5936155b5876001600160a01b03166000526015602052604060002090565b90600052602052604060002090565b556000526016602052604060002090565b556001600160a01b03166000526014602052604060002090565b6154f58154613a65565b836155c4916156486156256155d5976155b58b6001600160a01b03166000526015602052604060002090565b54806155c4846155b58d6001600160a01b03166000526015602052604060002090565b556155b5876001600160a01b03166000526015602052604060002090565b615685826001600160a01b03831692615680841515613a81565b615447565b615690600b546145b3565b600b5560007fddf252ad1be2c89b69c2b068fc378daa952ba7f163c4a11628f55a4df523b3ef8180a4600190565b6156c8813361645a565b600081815260126020526001600160a01b03806040832054169081156157e15733906156fe856000526012602052604060002090565b54161460ff615724336108a7856001600160a01b03166000526017602052604060002090565b541681156157d9575b5015611d6b5761577261574a846000526013602052604060002090565b7fffffffffffffffffffffffff00000000000000000000000000000000000000008154169055565b8282827f8c5be1e5ebec7d5bd14f71427d1e84f3dd0314c0f7b2291e5b200ac8c7c3b9258280a46157a383826154f9565b600b5480156133c75760001901600b557fddf252ad1be2c89b69c2b068fc378daa952ba7f163c4a11628f55a4df523b3ef8280a4565b90503861572d565b8280fd5b908160209103126105165751610759816104ec565b909261075994936080936001600160a01b03809216845216602083015260408201528160608201520190610705565b3d15615854573d9061583a8261065c565b9161584860405193846105ff565b82523d6000602084013e565b606090565b919290615868338583866150d7565b803b6158745750505050565b6158bc9360006001600160a01b03602095604051978896879586937f150b7a0200000000000000000000000000000000000000000000000000000000855233600486016157fa565b0393165af19081615970575b50615967576158d5615829565b80519081615962576040517f08c379a000000000000000000000000000000000000000000000000000000000815260206004820152603260248201527f4552433732313a207472616e7366657220746f206e6f6e20455243373231526560448201527f63656976657220696d706c656d656e74657200000000000000000000000000006064820152608490fd5b602001fd5b38808080614fe9565b6159909060203d8111615997575b61598881836105ff565b8101906157e5565b50386158c8565b503d61597e565b604051906159ab826105c7565b60006060838281528260208201528260408201520152565b90600f0b90600f0b029081600f0b9182036133c757565b906060600291615a268151600f0b85907fffffffffffffffffffffffffffffffff00000000000000000000000000000000825416906fffffffffffffffffffffffffffffffff16179055565b60208101516fffffffffffffffffffffffffffffffff7fffffffffffffffffffffffffffffffff0000000000000000000000000000000086549260801b169116178455604081015160018501550151910155565b9190615a895761064d916159da565b6115d2565b9091615a9861599e565b91615aa161599e565b9260009182600654908215159485615ef0575b615abc61064f565b9560008752602093600085890152426040890152606097438982015281615ed3575b85604082018051906000918c814211615eb6575b615b0562093a8083989695949804613430565b966000975b60ff8910615d77575b5050505050615b469350906120d8918d8b87615b2e85600655565b615cce575b505050600052600e602052604060002090565b615b56575b505050505050505050565b82615bd997615bd4968280615bdf9d019542875111615c6f575b5050500191825190428211615bed575b5050505050615ba2615b9c826000526010602052604060002090565b546133cc565b9283615bb8836000526010602052604060002090565b554260408701524390860152600052600f602052604060002090565b6109a2565b90615a7a565b388080808080808080615b4b565b5110615bfb575b8080615b80565b615c18615c2a91615c12615c67958b0151600f0b90565b90613d87565b91516000526011602052604060002090565b907fffffffffffffffffffffffffffffffff00000000000000000000000000000000825416906fffffffffffffffffffffffffffffffff16179055565b388080615bf4565b615c82615c8892615caf940151600f0b90565b9061472b565b80848d81860151895114615cb7575b505050615c2a86516000526011602052604060002090565b388281615b70565b0151615cc69250600f0b615c12565b38848d615c97565b615d1e615d2891615c1261213785615d17615d10615d01615cf58b615d2f9b0151600f0b90565b878c0151600f0b615c12565b998d01996121558b51600f0b90565b600f0b8952565b51600f0b90565b8651600f0b61472b565b600f0b8552565b6000615d3f61212b8351600f0b90565b12615d6d575b506000615d5661212b8551600f0b90565b12615d64575b878d8b615b33565b60008352615d5c565b6000905238615d45565b615d80906133da565b6000939042811115615e825750615dc161215a61212b9561214b615dba8c61213f6121378d612131429d8e9286019b6121258d51600f0b90565b600f0b8c52565b6000615dd161212b8a51600f0b90565b12615e79575b6000615de761212b8351600f0b90565b12615e6f575b50615e1b8392848352880196615e1488516121c26121b4615e0e8980613a74565b8a613477565b88526133cc565b97428403615e4157505050505050615b46926120d89143905290508638808c8180615b13565b615e6391929394959650612219886120d88b600052600e602052604060002090565b96949392908e91615b0a565b6000905238615ded565b60008852615dd7565b9350615dc161215a8761214b615dba8c61213f6121378b61213161212b61227461226d846000526011602052604060002090565b615ecc91935061228f6122949187015143613a74565b918c615af2565b50615eeb6122c482600052600e602052604060002090565b615ade565b6020890189815142108061601e575b615fdd575b5087896020820194428651119081615fc6575b50615f77575b5050615f3761226d82516000526011602052604060002090565b92519081615f47575b5050615ab4565b519091508103615f5b5750805b3880615f40565b61226d615f72916000526011602052604060002090565b615f54565b615faa615fb891615d176020615fa0615f94615fbf9751600f0b90565b62f099c090600f0b0590565b600f0b9201918252565b61213161212b428851613a74565b600f0b8a52565b8789615f1d565b9050615fd661212b8451600f0b90565b1338615f17565b616011616003615ff4615f946160189451600f0b90565b600f0b60208a01908152615d17565b61213161212b428651613a74565b600f0b8752565b89615f04565b508361602e61212b8351600f0b90565b13615eff565b600081815260106020526040812054909291816160515750505090565b61607291615bd461606c92600052600f602052604060002090565b5061427d565b61608060208201519261717f565b926040820151938185820395128186128116918613901516176133c7576160c46147d16160ba61212b9561075997600f0b90600f0b6159c3565b8451600f0b613d87565b806160d08351600f0b90565b600f0b126160e1575b5051600f0b90565b8152386160d9565b6160f543831115613a81565b60009061610c816000526010602052604060002090565b5482905b60808210616251575b505061215a6161d961614361606c6161e39695615bd4615d1796600052600f602052604060002090565b936006549061615282826164b1565b6161696122c482600052600e602052604060002090565b9281101561622d576122c46120c8616180926133cc565b906161a760406161996060850151606087015190613a74565b930151604085015190613a74565b905b60408401519383616204575b5050505061213161212b6161cd6020880151600f0b90565b92604088015190613a74565b8351600f0b613d87565b6000600f82900b12614277576fffffffffffffffffffffffffffffffff1690565b6121c292612dd6616224969593606061621f94015190613a74565b6133f7565b388080806161b5565b5061623c606083015143613a74565b9061624b604084015142613a74565b906161a9565b9092818110156162c05761627661627061626b84846133ea565b6133cc565b60011c90565b9085600261629284615bd488600052600f602052604060002090565b500154116162ab57506162a590936145b3565b90616110565b9391506162ba6162a591613a65565b916145b3565b92616119565b90604082016162dc611ea5825162093a80900490565b906000915b60ff8310616332575b5050505061631461631482600061630861212b6107599651600f0b90565b126163295751600f0b90565b6fffffffffffffffffffffffffffffffff1690565b60008152615d17565b61633b906133da565b6000929080858111156163bf57505083925b602086019061638561637e6163746163668551600f0b90565b61213161212b89518b613a74565b8951600f0b613d87565b600f0b8852565b8585146163b857816163a36163aa926121556163b2969551600f0b90565b600f0b9052565b8383526145b3565b916162e1565b50506162ea565b6163d991945061226d906000526011602052604060002090565b61634d565b9060005260126020526001600160a01b039060ff61643883604060002054169284811680851495601360205260406000205416149360005260176020526040600020906001600160a01b0316600052602052604060002090565b5416908215616452575b50811561644d575090565b905090565b915038616442565b61646482826163de565b1561646d575050565b6040517fce99e4c20000000000000000000000000000000000000000000000000000000081526001600160a01b039190911660048201526024810191909152604490fd5b60009182915b608083106164c6575b50505090565b9091928281101561652e578281018082116133c75760018082018092116133c7571c9082600261650084600052600e602052604060002090565b015411616519575061651290936145b3565b91906164b7565b93925061652861651291613a65565b926145b3565b926164c0565b91600091825b845160ff808616918210156165a2576165538288613a51565b5160005260196020526040600020541661659b578261657561657b9288613a51565b51616034565b81018091116133c757925b60ff8091169081146133c7576001019261653a565b5092616586565b5050925050915090565b906165b68261065c565b6165c360405191826105ff565b8281527fffffffffffffffffffffffffffffffffffffffffffffffffffffffffffffffe0613a3a829461065c565b806000917a184f03e93ff9f4daa797ed6e38ed64bf6a1f01000000000000000080821015616733575b506d04ee2d6d415b85acef810000000080831015616724575b50662386f26fc1000080831015616715575b506305f5e10080831015616706575b50612710808310156166f7575b5060648210156166e7575b600a809210156166dd575b6001908160216166888287016165ac565b95860101905b61669a575b5050505090565b600019019083907f30313233343536373839616263646566000000000000000000000000000000008282061a8353049182156166d85791908261668e565b616693565b9160010191616677565b919060646002910491019161666c565b60049193920491019138616661565b60089193920491019138616654565b60109193920491019138616645565b60209193920491019138616633565b60409350810491503861661a565b61674a8161690c565b5090504214613cdf579161675d83614303565b61676a8151845190613a74565b9161677e61677883516139f5565b936139f5565b90600080965b86518810156167ed57815b85518110156167d4576167bc906167a68a8a613a51565b516167b18289613a51565b51146167c1576145b3565b61678f565b6122196167ce828a613a51565b60019052565b5091966167e3909391936145b3565b9691929092616784565b95509550929092855b82518110156168455780616819613ad86168136168229487613a51565b51151590565b616827576145b3565b6167f6565b6168318186613a51565b51614f5f61683e8a6145b3565b9988613a51565b509450505061685d9165ffffffffffff421690616a78565b9091565b9061686b8261690c565b5090504214613cdf5761687d82614303565b90815193815185018086116133c757616895906139f5565b9260005b8681106168ee57505060005b82518110156168d7576168b88184613a51565b5190808701918288116133c757614f5f6168d29387613a51565b6168a5565b5093505061685d9165ffffffffffff421690616a78565b806168fc6169079284613a51565b51614f5f8288613a51565b616899565b8054908161692757505061691e6139dd565b60009160009190565b60001982019182116133c75761694091612a9291614336565b8051602090910151600192565b81519167ffffffffffffffff83116105c2576801000000000000000083116105c25781548383558084106169ae575b50602080910191600052806000209060005b84811061699c575050505050565b8351838201559281019260010161698e565b6169c690836000528460206000209182019101612e92565b3861697c565b908154906801000000000000000091828110156105c2576169f4906001948582018155614336565b615a8957839082518155019060208091015180519367ffffffffffffffff85116105c25784116105c25781908354858555808610616a5b575b500191600052806000209060005b848110616a4a57505050505050565b835183820155928101928501616a3b565b616a72908560005286846000209182019101612e92565b38616a2d565b805492939291908215616b2057616a9a612a92616a9485613a65565b83614336565b9180835111616af657602093818792855114600014616ad55750616ac6616acd9361438f600193613a65565b500161694d565b015151915190565b915050616af191616ae4610640565b91825286858301526169cc565b616acd565b60046040517f2520601d000000000000000000000000000000000000000000000000000000008152fd5b616b3e9250616b30949394610640565b9182528360208301526169cc565b51600091565b9091604051927f52d1902d0000000000000000000000000000000000000000000000000000000084526020846004816001600160a01b0387165afa60009481616c2d575b50616bc7576040517f4c9c8ce30000000000000000000000000000000000000000000000000000000081526001600160a01b0384166004820152602490fd5b90917f360894a13ba1a3210667c828492db98dca3e2076cc3735a920a3ca505d382bbc8403616bfb5761064d929350616c4d565b6040517faa1d49a400000000000000000000000000000000000000000000000000000000815260048101859052602490fd5b616c4691955060203d8111610cda57610ccc81836105ff565b9338616b88565b90813b15616d13576001600160a01b0382167f360894a13ba1a3210667c828492db98dca3e2076cc3735a920a3ca505d382bbc817fffffffffffffffffffffffff00000000000000000000000000000000000000008254161790557fbc7cd75a20ee27fd9adebab32041f755214dbc6bffa90cc0225b39da2e5c2d3b600080a2805115616ce057616cdd91616d4d565b50565b505034616ce957565b60046040517fb398979f000000000000000000000000000000000000000000000000000000008152fd5b6024826001600160a01b03604051917f4c9c8ce3000000000000000000000000000000000000000000000000000000008352166004820152fd5b60008061075993602081519101845af4616d65615829565b9190616da55750805115616d7b57805190602001fd5b60046040517f1425ea42000000000000000000000000000000000000000000000000000000008152fd5b81511580616df0575b616db6575090565b6024906001600160a01b03604051917f9996b315000000000000000000000000000000000000000000000000000000008352166004820152fd5b50803b15616dae565b916107599391616e0893616e11565b90929192616ece565b91907f7fffffffffffffffffffffffffffffff5d576e7357a4501ddfe92f46681b20a08411616e8957926020929160ff608095604051948552168484015260408301526060820152600092839182805260015afa15610cae5780516001600160a01b03811615616e8057918190565b50809160019190565b50505060009160039190565b60041115616e9f57565b7f4e487b7100000000000000000000000000000000000000000000000000000000600052602160045260246000fd5b616ed781616e95565b80616ee0575050565b616ee981616e95565b60018103616f1b5760046040517ff645eedf000000000000000000000000000000000000000000000000000000008152fd5b616f2481616e95565b60028103616f5e576040517ffce698f700000000000000000000000000000000000000000000000000000000815260048101839052602490fd5b80616f6a600392616e95565b14616f725750565b6040517fd78bce0c0000000000000000000000000000000000000000000000000000000081526004810191909152602490fd5b8015614277578061707861707161706761705d61705361704961703f61703560016107599a6000908b60801c806170d3575b508060401c806170c6575b508060201c806170b9575b508060101c806170ac575b508060081c8061709f575b508060041c80617092575b508060021c80617085575b50821c61707e575b811c1b61702e818b6133f7565b0160011c90565b61702e818a6133f7565b61702e81896133f7565b61702e81886133f7565b61702e81876133f7565b61702e81866133f7565b61702e81856133f7565b80926133f7565b906170df565b8101617021565b6002915091019038617019565b600491509101903861700e565b6008915091019038617003565b6010915091019038616ff8565b6020915091019038616fed565b6040915091019038616fe2565b91505060809038616fd7565b908082101561644d575090565b65ffffffffffff908181116170ff571690565b604490604051907f6dfcc650000000000000000000000000000000000000000000000000000000008252603060048301526024820152fd5b9081600f0b918083036171475750565b604490604051907f327269a7000000000000000000000000000000000000000000000000000000008252608060048301526024820152fd5b7f7fffffffffffffffffffffffffffffffffffffffffffffffffffffffffffffff81116171a95790565b602490604051907f24775e060000000000000000000000000000000000000000000000000000000082526004820152fdfea264697066735822122063946cf5eb2ef3e5fa0d13d79d3518566ae2bab8bbe98665af5d93e53eca2bb664736f6c63430008140033","linkReferences":{}},"methodIdentifiers":{"CLOCK_MODE()":"4bf5d7e9","LIQUIDATION_PENALTY()":"9b8621d5","UPGRADE_INTERFACE_VERSION()":"ad3cb1cc","approve(address,uint256)":"095ea7b3","balanceOf(address)":"70a08231","balanceOfAtNFT(uint256,uint256)":"8c2c9baf","balanceOfNFT(uint256)":"e7e242d4","balanceOfNFTAt(uint256,uint256)":"e0514aba","baseURI()":"6c0360eb","checkpoint()":"c2c4c5c1","checkpoints(address,uint32)":"f1127ed8","clock()":"91ddadf4","create_lock(uint256,uint256)":"65fc3873","create_lock_for(uint256,uint256,address)":"d4e54c3b","create_nonvoting_lock_for(uint256,uint256,address)":"feb91f47","decimals()":"313ce567","delegate(address)":"5c19a95c","delegateBySig(address,uint256,uint256,uint8,bytes32,bytes32)":"c3cda520","delegates(address)":"587cde1e","deposit_for(uint256,uint256)":"ee99fe28","enableLiquidations()":"81cc50b9","epoch()":"900cf0cf","getApproved(uint256)":"081812fc","getPastTotalSupply(uint256)":"8e539e8c","getPastVotes(address,uint256)":"3a46b1a8","getVotes(address)":"9ab24eb0","get_last_user_slope(uint256)":"461f711c","governor()":"0c340a24","increase_amount(uint256,uint256)":"a183af52","increase_unlock_time(uint256,uint256)":"a4d855df","initialize(address,string)":"f399e22e","isApprovedForAll(address,address)":"e985e9c5","isApprovedOrOwner(address,uint256)":"430c2081","liquidate(uint256)":"415f1240","liquidationsEnabled()":"b24fcb3e","liquidityProvided(uint256,address,uint256)":"15a3d33b","locked(uint256)":"b45a3c0e","locked__end(uint256)":"f8a05763","merge(uint256,uint256)":"d1c2babb","name()":"06fdde03","nonVoting(uint256)":"2b6f27ee","ownerOf(uint256)":"6352211e","ownership_change(uint256)":"6f548837","point_history(uint256)":"d1febfb9","proxiableUUID()":"52d1902d","rewards()":"9ec5a894","safeTransferFrom(address,address,uint256)":"42842e0e","safeTransferFrom(address,address,uint256,bytes)":"b88d4fde","setApprovalForAll(address,bool)":"a22cb465","setBaseURI(string)":"55f804b3","setGovernor(address)":"c42cf535","setTheiaRouter(address)":"7a5a7558","setTreasury(address)":"f0f44260","setUp(address,address,address,address)":"80ffde32","slope_changes(uint256)":"71197484","split(uint256,uint256)":"4b19becc","stagingVault()":"16e0f8bf","supportsInterface(bytes4)":"01ffc9a7","symbol()":"95d89b41","theiaRouter()":"853633c7","token()":"fc0c546a","tokenIdsDelegatedTo(address)":"896bdfd0","tokenIdsDelegatedToAt(address,uint256)":"ff016202","tokenOfOwnerByIndex(address,uint256)":"2f745c59","tokenURI(uint256)":"c87b56dd","totalPower()":"db3ad22c","totalPowerAt(uint256)":"fe7f0e8b","totalPowerAtT(uint256)":"5601903f","totalSupply()":"18160ddd","transferFrom(address,address,uint256)":"23b872dd","treasury()":"61d027b3","upgradeToAndCall(address,bytes)":"4f1ef286","user_point_epoch(uint256)":"e441135c","user_point_history(uint256,uint256)":"1376f3da","user_point_history__ts(uint256,uint256)":"1c984bc3","version()":"54fd4d50","withdraw(uint256)":"2e1a7d4d"},"id":43}