{"abi":[{"type":"constructor","inputs":[],"stateMutability":"nonpayable"},{"type":"function","name":"UPGRADE_INTERFACE_VERSION","inputs":[],"outputs":[{"name":"","type":"string","internalType":"string"}],"stateMutability":"view"},{"type":"function","name":"addOperator","inputs":[{"name":"_auth","type":"address","internalType":"address"}],"outputs":[],"stateMutability":"nonpayable"},{"type":"function","name":"applyMPC","inputs":[],"outputs":[],"stateMutability":"nonpayable"},{"type":"function","name":"c3Fallback","inputs":[{"name":"_dappID","type":"uint256","internalType":"uint256"},{"name":"_uuid","type":"bytes32","internalType":"bytes32"},{"name":"_to","type":"address","internalType":"address"},{"name":"_fromChainID","type":"string","internalType":"string"},{"name":"_sourceTx","type":"string","internalType":"string"},{"name":"_data","type":"bytes","internalType":"bytes"},{"name":"_reason","type":"bytes","internalType":"bytes"}],"outputs":[],"stateMutability":"nonpayable"},{"type":"function","name":"c3broadcast","inputs":[{"name":"_dappID","type":"uint256","internalType":"uint256"},{"name":"_caller","type":"address","internalType":"address"},{"name":"_to","type":"string[]","internalType":"string[]"},{"name":"_toChainIDs","type":"string[]","internalType":"string[]"},{"name":"_data","type":"bytes","internalType":"bytes"}],"outputs":[],"stateMutability":"nonpayable"},{"type":"function","name":"c3call","inputs":[{"name":"_dappID","type":"uint256","internalType":"uint256"},{"name":"_caller","type":"address","internalType":"address"},{"name":"_to","type":"string","internalType":"string"},{"name":"_toChainID","type":"string","internalType":"string"},{"name":"_data","type":"bytes","internalType":"bytes"}],"outputs":[],"stateMutability":"nonpayable"},{"type":"function","name":"c3caller","inputs":[],"outputs":[{"name":"","type":"address","internalType":"address"}],"stateMutability":"view"},{"type":"function","name":"changeMPC","inputs":[{"name":"_mpc","type":"address","internalType":"address"}],"outputs":[],"stateMutability":"nonpayable"},{"type":"function","name":"context","inputs":[],"outputs":[{"name":"swapID","type":"bytes32","internalType":"bytes32"},{"name":"fromChainID","type":"string","internalType":"string"},{"name":"sourceTx","type":"string","internalType":"string"},{"name":"reason","type":"bytes","internalType":"bytes"}],"stateMutability":"view"},{"type":"function","name":"execute","inputs":[{"name":"_dappID","type":"uint256","internalType":"uint256"},{"name":"_uuid","type":"bytes32","internalType":"bytes32"},{"name":"_to","type":"address","internalType":"address"},{"name":"_fromChainID","type":"string","internalType":"string"},{"name":"_sourceTx","type":"string","internalType":"string"},{"name":"_fallback","type":"string","internalType":"string"},{"name":"_data","type":"bytes","internalType":"bytes"}],"outputs":[],"stateMutability":"nonpayable"},{"type":"function","name":"getAllOperators","inputs":[],"outputs":[{"name":"","type":"address[]","internalType":"address[]"}],"stateMutability":"view"},{"type":"function","name":"getFallbackCallData","inputs":[{"name":"_dappID","type":"uint256","internalType":"uint256"},{"name":"_data","type":"bytes","internalType":"bytes"},{"name":"result","type":"bytes","internalType":"bytes"}],"outputs":[{"name":"","type":"bytes","internalType":"bytes"}],"stateMutability":"pure"},{"type":"function","name":"getMPC","inputs":[],"outputs":[{"name":"","type":"address","internalType":"address"}],"stateMutability":"view"},{"type":"function","name":"initialize","inputs":[{"name":"_mpc","type":"address","internalType":"address"},{"name":"_swapIDKeeper","type":"address","internalType":"address"}],"outputs":[],"stateMutability":"nonpayable"},{"type":"function","name":"isCaller","inputs":[{"name":"sender","type":"address","internalType":"address"}],"outputs":[{"name":"","type":"bool","internalType":"bool"}],"stateMutability":"view"},{"type":"function","name":"isExecutor","inputs":[{"name":"sender","type":"address","internalType":"address"}],"outputs":[{"name":"","type":"bool","internalType":"bool"}],"stateMutability":"view"},{"type":"function","name":"isOperator","inputs":[{"name":"","type":"address","internalType":"address"}],"outputs":[{"name":"","type":"bool","internalType":"bool"}],"stateMutability":"view"},{"type":"function","name":"mpc","inputs":[],"outputs":[{"name":"","type":"address","internalType":"address"}],"stateMutability":"view"},{"type":"function","name":"operators","inputs":[{"name":"","type":"uint256","internalType":"uint256"}],"outputs":[{"name":"","type":"address","internalType":"address"}],"stateMutability":"view"},{"type":"function","name":"pendingMPC","inputs":[],"outputs":[{"name":"","type":"address","internalType":"address"}],"stateMutability":"view"},{"type":"function","name":"proxiableUUID","inputs":[],"outputs":[{"name":"","type":"bytes32","internalType":"bytes32"}],"stateMutability":"view"},{"type":"function","name":"revokeOperator","inputs":[{"name":"_auth","type":"address","internalType":"address"}],"outputs":[],"stateMutability":"nonpayable"},{"type":"function","name":"swapIDKeeper","inputs":[],"outputs":[{"name":"","type":"address","internalType":"address"}],"stateMutability":"view"},{"type":"function","name":"upgradeToAndCall","inputs":[{"name":"newImplementation","type":"address","internalType":"address"},{"name":"data","type":"bytes","internalType":"bytes"}],"outputs":[],"stateMutability":"payable"},{"type":"event","name":"ApplyMPC","inputs":[{"name":"oldMPC","type":"address","indexed":true,"internalType":"address"},{"name":"newMPC","type":"address","indexed":true,"internalType":"address"},{"name":"timestamp","type":"uint256","indexed":false,"internalType":"uint256"}],"anonymous":false},{"type":"event","name":"ChangeMPC","inputs":[{"name":"oldMPC","type":"address","indexed":true,"internalType":"address"},{"name":"newMPC","type":"address","indexed":true,"internalType":"address"},{"name":"timestamp","type":"uint256","indexed":false,"internalType":"uint256"}],"anonymous":false},{"type":"event","name":"Initialized","inputs":[{"name":"version","type":"uint64","indexed":false,"internalType":"uint64"}],"anonymous":false},{"type":"event","name":"LogC3Call","inputs":[{"name":"dappID","type":"uint256","indexed":true,"internalType":"uint256"},{"name":"uuid","type":"bytes32","indexed":true,"internalType":"bytes32"},{"name":"caller","type":"address","indexed":false,"internalType":"address"},{"name":"toChainID","type":"string","indexed":false,"internalType":"string"},{"name":"to","type":"string","indexed":false,"internalType":"string"},{"name":"data","type":"bytes","indexed":false,"internalType":"bytes"}],"anonymous":false},{"type":"event","name":"LogExecCall","inputs":[{"name":"dappID","type":"uint256","indexed":true,"internalType":"uint256"},{"name":"to","type":"address","indexed":true,"internalType":"address"},{"name":"success","type":"bool","indexed":true,"internalType":"bool"},{"name":"uuid","type":"bytes32","indexed":false,"internalType":"bytes32"},{"name":"fromChainID","type":"string","indexed":false,"internalType":"string"},{"name":"sourceTx","type":"string","indexed":false,"internalType":"string"},{"name":"data","type":"bytes","indexed":false,"internalType":"bytes"},{"name":"reasons","type":"bytes","indexed":false,"internalType":"bytes"}],"anonymous":false},{"type":"event","name":"LogExecFallback","inputs":[{"name":"dappID","type":"uint256","indexed":true,"internalType":"uint256"},{"name":"to","type":"address","indexed":true,"internalType":"address"},{"name":"success","type":"bool","indexed":true,"internalType":"bool"},{"name":"uuid","type":"bytes32","indexed":false,"internalType":"bytes32"},{"name":"fromChainID","type":"string","indexed":false,"internalType":"string"},{"name":"sourceTx","type":"string","indexed":false,"internalType":"string"},{"name":"fallbackReason","type":"bytes","indexed":false,"internalType":"bytes"},{"name":"data","type":"bytes","indexed":false,"internalType":"bytes"},{"name":"reasons","type":"bytes","indexed":false,"internalType":"bytes"}],"anonymous":false},{"type":"event","name":"LogFallbackCall","inputs":[{"name":"dappID","type":"uint256","indexed":true,"internalType":"uint256"},{"name":"uuid","type":"bytes32","indexed":true,"internalType":"bytes32"},{"name":"to","type":"string","indexed":false,"internalType":"string"},{"name":"data","type":"bytes","indexed":false,"internalType":"bytes"}],"anonymous":false},{"type":"event","name":"Upgraded","inputs":[{"name":"implementation","type":"address","indexed":true,"internalType":"address"}],"anonymous":false},{"type":"error","name":"AddressEmptyCode","inputs":[{"name":"target","type":"address","internalType":"address"}]},{"type":"error","name":"ERC1967InvalidImplementation","inputs":[{"name":"implementation","type":"address","internalType":"address"}]},{"type":"error","name":"ERC1967NonPayable","inputs":[]},{"type":"error","name":"FailedInnerCall","inputs":[]},{"type":"error","name":"InvalidInitialization","inputs":[]},{"type":"error","name":"NotInitializing","inputs":[]},{"type":"error","name":"UUPSUnauthorizedCallContext","inputs":[]},{"type":"error","name":"UUPSUnsupportedProxiableUUID","inputs":[{"name":"slot","type":"bytes32","internalType":"bytes32"}]}],"bytecode":{"object":"0x60a080604052346100cd57306080527ff0c57e16840df040f15088dc2f81fe391c3923bec73e23a9662efc9c229c6a009081549060ff8260401c166100be57506001600160401b036002600160401b031982821601610079575b6040516130909081620000d38239608051818181610c180152610d6b0152f35b6001600160401b031990911681179091556040519081527fc7f505b2f371ae2175ee4913f4499e1f2633a7b5936321eed1cdaeb6115181d290602090a1388080610059565b63f92ee8a960e01b8152600490fd5b600080fdfe6080604052600436101561001257600080fd5b60003560e01c80630c26defe1461018d578063299c44251461012e57806338f1fd7814610188578063485cc955146101835780634f1ef2861461017e57806352d1902d146101795780635b7b018c146101745780636d70f7ae146101475780637ac07dcc1461016f5780639870d7fe1461016a578063ad3cb1cc14610165578063b262abd914610160578063b63b38d01461015b578063d0496d6a14610156578063d2f09c5914610151578063d911c6321461014c578063debfda3014610147578063e28d490614610142578063e411a2701461013d578063e643efff14610138578063eea2d65714610133578063f75c26641461012e578063f830e7b4146101295763fad8b32a1461012457600080fd5b611bd7565b611ba3565b6103e1565b611984565b61187b565b611836565b6117cf565b610e52565b611683565b61164f565b6114f6565b6112bb565b611015565b610fa0565b610eda565b610e9e565b610dbb565b610d43565b610bcc565b61089d565b6104c0565b61020b565b6024359073ffffffffffffffffffffffffffffffffffffffff821682036101b557565b600080fd5b6004359073ffffffffffffffffffffffffffffffffffffffff821682036101b557565b9181601f840112156101b55782359167ffffffffffffffff83116101b557602083818601950101116101b557565b346101b55760a06003193601126101b557600435610227610192565b9067ffffffffffffffff906044358281116101b55761024a9036906004016101dd565b9290936064358281116101b5576102659036906004016101dd565b9590926084359081116101b5576102809036906004016101dd565b95869261028e871515612529565b61029982151561258e565b6102a48915156125f3565b6102af841515612658565b60095473ffffffffffffffffffffffffffffffffffffffff1673ffffffffffffffffffffffffffffffffffffffff16838a896040519b8c9384937ff1a9bff90000000000000000000000000000000000000000000000000000000085528c8989600488019661031d976126fc565b03815a602094600091f19788156103d157600098610373575b509061036e9392917f2074205b2acdda95fc2a518526af428cd0531423009ce72c46a8083b1333e4669798996040519788978861273c565b0390a3005b7f2074205b2acdda95fc2a518526af428cd0531423009ce72c46a8083b1333e466979850906103be61036e9594939260203d81116103ca575b6103b68183610adc565b810190611c1b565b98975090919293610336565b503d6103ac565b611c2a565b60009103126101b557565b346101b55760006003193601126101b557602073ffffffffffffffffffffffffffffffffffffffff60045416604051908152f35b9060e06003198301126101b557600435916024359160443573ffffffffffffffffffffffffffffffffffffffff811681036101b5579167ffffffffffffffff906064358281116101b5578161046c916004016101dd565b939093926084358181116101b55783610487916004016101dd565b9390939260a4358381116101b557826104a2916004016101dd565b9390939260c4359182116101b5576104bc916004016101dd565b9091565b346101b5576104ce36610415565b9392959499989997919690973360005260076020526104f460ff60406000205416612861565b6104ff851515612658565b604051907fc516ad11000000000000000000000000000000000000000000000000000000008252602082600481600073ffffffffffffffffffffffffffffffffffffffff89165af180156103d1578b610565916105df9460009161087e575b50146128c6565b60208c6105a661058d61058d60095473ffffffffffffffffffffffffffffffffffffffff1690565b73ffffffffffffffffffffffffffffffffffffffff1690565b60405180809681947f549d8bb1000000000000000000000000000000000000000000000000000000008352600483019190602083019252565b03915afa9687156103d1578a978c9360009161084f575b501561060190612943565b610609610b1d565b8d8152610617368387610b77565b6020820152610627368885610b77565b6040820152610634610f1e565b606082015261064290612d84565b6040518d908681610654818c8e612ef3565b035a9260008094938194f19688610669611e75565b9d8e92610674610b1d565b60008152610680610f1e565b602082015261068d610f1e565b604082015261069a610f1e565b60608201526106a890612d84565b6040519687968c15159b73ffffffffffffffffffffffffffffffffffffffff169a6106d39789612f01565b037fa7b8f1a85312632c2496e639eae798652e3558376ca98b846b238d242c25846a91a46107008661303f565b9082610847575b508161083c575b50156107a25750505050505061073f61058d61058d60095473ffffffffffffffffffffffffffffffffffffffff1690565b803b156101b5576040517f9e2bf6e400000000000000000000000000000000000000000000000000000000815260048101929092526000908290602490829084905af180156103d15761078f575b005b8061079c61078d92610ac3565b806103d6565b61083061036e926108047f2cf6a6b7a7ce1b44a4300a01a69b11482d0b66cedea3228fe5701cb93b1ce552976040519485937fb121f51d0000000000000000000000000000000000000000000000000000000060208601528b60248601612f53565b037fffffffffffffffffffffffffffffffffffffffffffffffffffffffffffffffe08101835282610adc565b60405193849384612f7f565b60019150143861070e565b915038610707565b610871915060203d602011610877575b6108698183610adc565b81019061292b565b386105f6565b503d61085f565b610897915060203d6020116103ca576103b68183610adc565b3861055e565b346101b55760406003193601126101b5576108b66101ba565b6108be610192565b907ff0c57e16840df040f15088dc2f81fe391c3923bec73e23a9662efc9c229c6a00549167ffffffffffffffff60ff8460401c1615931680159081610a8c575b6001149081610a82575b159081610a79575b50610a4f5761097291836109697ff0c57e16840df040f15088dc2f81fe391c3923bec73e23a9662efc9c229c6a0060017fffffffffffffffffffffffffffffffffffffffffffffffff0000000000000000825416179055565b6109f357611f5e565b61097857005b6109c47ff0c57e16840df040f15088dc2f81fe391c3923bec73e23a9662efc9c229c6a007fffffffffffffffffffffffffffffffffffffffffffffff00ffffffffffffffff8154169055565b604051600181527fc7f505b2f371ae2175ee4913f4499e1f2633a7b5936321eed1cdaeb6115181d290602090a1005b610a4a7ff0c57e16840df040f15088dc2f81fe391c3923bec73e23a9662efc9c229c6a00680100000000000000007fffffffffffffffffffffffffffffffffffffffffffffff00ffffffffffffffff825416179055565b611f5e565b60046040517ff92ee8a9000000000000000000000000000000000000000000000000000000008152fd5b90501538610910565b303b159150610908565b8491506108fe565b7f4e487b7100000000000000000000000000000000000000000000000000000000600052604160045260246000fd5b67ffffffffffffffff8111610ad757604052565b610a94565b90601f7fffffffffffffffffffffffffffffffffffffffffffffffffffffffffffffffe0910116810190811067ffffffffffffffff821117610ad757604052565b604051906080820182811067ffffffffffffffff821117610ad757604052565b67ffffffffffffffff8111610ad757601f017fffffffffffffffffffffffffffffffffffffffffffffffffffffffffffffffe01660200190565b929192610b8382610b3d565b91610b916040519384610adc565b8294818452818301116101b5578281602093846000960137010152565b9080601f830112156101b557816020610bc993359101610b77565b90565b60406003193601126101b557610be06101ba565b60243567ffffffffffffffff81116101b557610c00903690600401610bae565b73ffffffffffffffffffffffffffffffffffffffff807f000000000000000000000000000000000000000000000000000000000000000016803014908115610d15575b50610ceb57610c5781600454163314611feb565b821615610c675761078d91611c36565b60846040517f08c379a000000000000000000000000000000000000000000000000000000000815260206004820152602960248201527f4e657720696d706c656d656e746174696f6e2063616e6e6f74206265207a657260448201527f6f206164647265737300000000000000000000000000000000000000000000006064820152fd5b60046040517fe07c8dba000000000000000000000000000000000000000000000000000000008152fd5b9050817f360894a13ba1a3210667c828492db98dca3e2076cc3735a920a3ca505d382bbc5416141538610c43565b346101b55760006003193601126101b55773ffffffffffffffffffffffffffffffffffffffff7f0000000000000000000000000000000000000000000000000000000000000000163003610ceb5760206040517f360894a13ba1a3210667c828492db98dca3e2076cc3735a920a3ca505d382bbc8152f35b346101b55760206003193601126101b557610dd46101ba565b73ffffffffffffffffffffffffffffffffffffffff806004541691610dfa833314611feb565b1690817fffffffffffffffffffffffff000000000000000000000000000000000000000060055416176005557f587ad0bc9a6955b6c850bc4f90ab8c66b32e2a6919d4244e459ac74ffa4a88846020604051428152a3005b346101b55760206003193601126101b55773ffffffffffffffffffffffffffffffffffffffff610e806101ba565b166000526007602052602060ff604060002054166040519015158152f35b346101b55760206003193601126101b5576020610eb96101ba565b6040519073ffffffffffffffffffffffffffffffffffffffff309116148152f35b346101b55760206003193601126101b55761078d610ef66101ba565b610f1973ffffffffffffffffffffffffffffffffffffffff600454163314611feb565b6120db565b604051906020820182811067ffffffffffffffff821117610ad75760405260008252565b919082519283825260005b848110610f8c5750507fffffffffffffffffffffffffffffffffffffffffffffffffffffffffffffffe0601f8460006020809697860101520116010190565b602081830181015184830182015201610f4d565b346101b55760006003193601126101b557604051604081019080821067ffffffffffffffff831117610ad75761101191604052600581527f352e302e300000000000000000000000000000000000000000000000000000006020820152604051918291602083526020830190610f42565b0390f35b346101b55761102336610415565b6110bd60009b9398949b9a99959697929a9b8c99338b526020916007835261105260ff6040809e205416612861565b61105d821515612658565b828d8d61108561058d61058d60095473ffffffffffffffffffffffffffffffffffffffff1690565b905180809881947f549d8bb1000000000000000000000000000000000000000000000000000000008352600483019190602083019252565b03915afa9485156103d1578f9e8f9b8f96978f988e9161129e575b50156110e390612943565b8d6110ec610b1d565b888152906110fb368c8f610b77565b8883015282369061110b92610b77565b818a015261111a368585610b77565b606082015261112890612d84565b8c808d8a51828161113a818c8c612ef3565b03925af19d8e98611149611e75565b9e8f986111558c612fa5565b61115d610b1d565b918252611168610f1e565b90820152611174610f1e565b82820152611180610f1e565b606082015261118e90612d84565b51998a9915159d73ffffffffffffffffffffffffffffffffffffffff169c6111b6998b612fdb565b037ff86e20952f837867c94be8abe66d2d88aa168080ef281dd898a992b12606cca891a46111e39061303f565b9082611296575b508161128b575b506111fa575050f35b61121f61058d61058d60095473ffffffffffffffffffffffffffffffffffffffff1690565b803b1561128657839261126492519485809481937f9e2bf6e4000000000000000000000000000000000000000000000000000000008352600483019190602083019252565b03925af180156103d157611276575080f35b8061079c61128392610ac3565b80f35b505050fd5b6001915014386111f1565b9150386111ea565b6112b59150873d8911610877576108698183610adc565b386110d8565b346101b5576000806003193601126113565760055473ffffffffffffffffffffffffffffffffffffffff908181168033036113525780600454937fa2e29fe96457476993f3188189d22408c86df0c977ec90a31b979c899800d065602060405192428452871692a37fffffffffffffffffffffffff0000000000000000000000000000000000000000809316176004551660055580f35b8380fd5b80fd5b90600182811c921680156113a2575b602083101461137357565b7f4e487b7100000000000000000000000000000000000000000000000000000000600052602260045260246000fd5b91607f1691611368565b600254600092916113bc82611359565b8082529160019081811690811561143357506001146113da57505050565b9192935060026000527f405787fa12a823e0f2b7631cc41b3ba8828b3321ca811111fa75cd3aa3bb5ace916000925b84841061141b57505060209250010190565b80546020858501810191909152909301928101611409565b905060209495507fffffffffffffffffffffffffffffffffffffffffffffffffffffffffffffff0091509291921683830152151560051b010190565b6003546000929161147f82611359565b80825291600190818116908115611433575060011461149d57505050565b9192935060036000527fc2575a0e9e593c00f959f8c92f12db2869c3395a3b0502d05e2516446f71f85b916000925b8484106114de57505060209250010190565b805460208585018101919091529093019281016114cc565b346101b557600080600319360112611356578054604051918281600180549361151e85611359565b8085529482811690811561160c57506001146115b0575b505061154392500383610adc565b61101160405161155d81611556816113ac565b0382610adc565b6115a260405191611578836115718161146f565b0384610adc565b6115946040519687968752608060208801526080870190610f42565b908582036040870152610f42565b908382036060850152610f42565b91508082527fb10e2d527612073b26eecdfd717e6a320cf44b4afac2b0732d9fcbe2b7fa0cf65b8483106115f1575061154393505081016020013880611535565b81935090816020925483858a010152019101909185926115d7565b9050602093506115439592507fffffffffffffffffffffffffffffffffffffffffffffffffffffffffffffff0091501682840152151560051b8201013880611535565b346101b55760006003193601126101b557602073ffffffffffffffffffffffffffffffffffffffff60065416604051908152f35b346101b5576000806003193601126113565760405180916008549081835260208093018092600883527ff3f7a9fe364faab93b216da50a3214154f22a0a2b415b23a84c8169e8b636ee390835b81811061173a57505050846116e6910385610adc565b60405193838594850191818652518092526040850193925b82811061170d57505050500390f35b835173ffffffffffffffffffffffffffffffffffffffff16855286955093810193928101926001016116fe565b825473ffffffffffffffffffffffffffffffffffffffff16845292860192600192830192016116d0565b7f4e487b7100000000000000000000000000000000000000000000000000000000600052603260045260246000fd5b6008548110156117ca5760086000527ff3f7a9fe364faab93b216da50a3214154f22a0a2b415b23a84c8169e8b636ee30190600090565b611764565b346101b55760206003193601126101b5576004356008548110156101b55773ffffffffffffffffffffffffffffffffffffffff60209160086000527ff3f7a9fe364faab93b216da50a3214154f22a0a2b415b23a84c8169e8b636ee3015416604051908152f35b346101b55760006003193601126101b557602073ffffffffffffffffffffffffffffffffffffffff60095416604051908152f35b906020610bc9928181520190610f42565b346101b55760606003193601126101b55767ffffffffffffffff6024358181116101b5576118ad903690600401610bae565b6044359182116101b557611947611917916108046118d2611011953690600401610bae565b6040519485937fb121f51d0000000000000000000000000000000000000000000000000000000060208601526004356024860152606060448601526084850190610f42565b907fffffffffffffffffffffffffffffffffffffffffffffffffffffffffffffffdc848303016064850152610f42565b6040519182918261186a565b9181601f840112156101b55782359167ffffffffffffffff83116101b5576020808501948460051b0101116101b557565b346101b55760a06003193601126101b557600480356119a1610192565b67ffffffffffffffff906044358281116101b5576119c29036908601611953565b93906064358481116101b5576119db9036908801611953565b9390946084359081116101b5576119f590369089016101dd565b9097611a02851515612529565b611a0d88151561258e565b611a188615156125f3565b611a23821515612658565b611a2e868314612776565b60005b868110611a3a57005b80866000848b898f968f818f92611a7a90611a8293611a7461058d61058d60095473ffffffffffffffffffffffffffffffffffffffff1690565b96612801565b939095612801565b959093611ac48c60409b8c51998a98899788967ff1a9bff900000000000000000000000000000000000000000000000000000000885260209e8f9d89016126fc565b03925af19081156103d15788888f8f908f96918f998f96611b439b8b918f9660009b611b48575b505081611b26611b3b9796959493611b2e937f2074205b2acdda95fc2a518526af428cd0531423009ce72c46a8083b1333e4669c9d9e612801565b949099612801565b929091519788978861273c565b0390a361227f565b611a31565b7f2074205b2acdda95fc2a518526af428cd0531423009ce72c46a8083b1333e4669a9b5083611b2e93611b93611b3b9a999897969484611b2695903d106103ca576103b68183610adc565b9d9c509350939495969750611aeb565b346101b55760006003193601126101b557602073ffffffffffffffffffffffffffffffffffffffff60055416604051908152f35b346101b55760206003193601126101b55761078d611bf36101ba565b611c1673ffffffffffffffffffffffffffffffffffffffff600454163314611feb565b612395565b908160209103126101b5575190565b6040513d6000823e3d90fd5b9091604051927f52d1902d00000000000000000000000000000000000000000000000000000000845260208460048173ffffffffffffffffffffffffffffffffffffffff87165afa60009481611d3b575b50611cd3576040517f4c9c8ce300000000000000000000000000000000000000000000000000000000815273ffffffffffffffffffffffffffffffffffffffff84166004820152602490fd5b90917f360894a13ba1a3210667c828492db98dca3e2076cc3735a920a3ca505d382bbc8403611d0957611d07929350611d5b565b565b6040517faa1d49a400000000000000000000000000000000000000000000000000000000815260048101859052602490fd5b611d5491955060203d81116103ca576103b68183610adc565b9338611c87565b90813b15611e2e5773ffffffffffffffffffffffffffffffffffffffff82167f360894a13ba1a3210667c828492db98dca3e2076cc3735a920a3ca505d382bbc817fffffffffffffffffffffffff00000000000000000000000000000000000000008254161790557fbc7cd75a20ee27fd9adebab32041f755214dbc6bffa90cc0225b39da2e5c2d3b600080a2805115611dfb57611df891611ea5565b50565b505034611e0457565b60046040517fb398979f000000000000000000000000000000000000000000000000000000008152fd5b60248273ffffffffffffffffffffffffffffffffffffffff604051917f4c9c8ce3000000000000000000000000000000000000000000000000000000008352166004820152fd5b3d15611ea0573d90611e8682610b3d565b91611e946040519384610adc565b82523d6000602084013e565b606090565b600080610bc993602081519101845af4611ebd611e75565b9190611efd5750805115611ed357805190602001fd5b60046040517f1425ea42000000000000000000000000000000000000000000000000000000008152fd5b81511580611f55575b611f0e575090565b60249073ffffffffffffffffffffffffffffffffffffffff604051917f9996b315000000000000000000000000000000000000000000000000000000008352166004820152fd5b50803b15611f06565b73ffffffffffffffffffffffffffffffffffffffff908181169283156101b557611fbd927fffffffffffffffffffffffff00000000000000000000000000000000000000009185836004541617600455169060095416176009556120db565b60007fa2e29fe96457476993f3188189d22408c86df0c977ec90a31b979c899800d0656020604051428152a3565b15611ff257565b60646040517f08c379a000000000000000000000000000000000000000000000000000000000815260206004820152601260248201527f433343616c6c65723a206f6e6c79204d504300000000000000000000000000006044820152fd5b60085468010000000000000000811015610ad75760018101806008558110156117ca5773ffffffffffffffffffffffffffffffffffffffff9060086000527ff3f7a9fe364faab93b216da50a3214154f22a0a2b415b23a84c8169e8b636ee30191167fffffffffffffffffffffffff0000000000000000000000000000000000000000825416179055565b73ffffffffffffffffffffffffffffffffffffffff811680156121f257600052600760205260ff6040600020541661216e578061216961213e611d079373ffffffffffffffffffffffffffffffffffffffff166000526007602052604060002090565b60017fffffffffffffffffffffffffffffffffffffffffffffffffffffffffffffff00825416179055565b612050565b60846040517f08c379a000000000000000000000000000000000000000000000000000000000815260206004820152602160248201527f433343616c6c65723a204f70657261746f7220616c726561647920657869737460448201527f73000000000000000000000000000000000000000000000000000000000000006064820152fd5b60646040517f08c379a000000000000000000000000000000000000000000000000000000000815260206004820152602060248201527f433343616c6c65723a204f70657261746f7220697320616464726573732830296044820152fd5b7f4e487b7100000000000000000000000000000000000000000000000000000000600052601160045260246000fd5b7fffffffffffffffffffffffffffffffffffffffffffffffffffffffffffffffff81146122ac5760010190565b612250565b907fffffffffffffffffffffffffffffffffffffffffffffffffffffffffffffffff82019182116122ac57565b6008548015612366577fffffffffffffffffffffffffffffffffffffffffffffffffffffffffffffffff810190808210156117ca577ff3f7a9fe364faab93b216da50a3214154f22a0a2b415b23a84c8169e8b636ee2906008600052017fffffffffffffffffffffffff00000000000000000000000000000000000000008154169055600855565b7f4e487b7100000000000000000000000000000000000000000000000000000000600052603160045260246000fd5b73ffffffffffffffffffffffffffffffffffffffff908181169081600052600760205260ff60406000205416156124cb576123f361241b9173ffffffffffffffffffffffffffffffffffffffff166000526007602052604060002090565b7fffffffffffffffffffffffffffffffffffffffffffffffffffffffffffffff008154169055565b6008549060005b82811061242f5750505050565b818461245d61243d84611793565b905473ffffffffffffffffffffffffffffffffffffffff9160031b1c1690565b16146124715761246c9061227f565b612422565b916124c39350612496915061243d61248b612490926122b1565b611793565b91611793565b90919082549060031b9173ffffffffffffffffffffffffffffffffffffffff809116831b921b1916179055565b611d076122de565b60646040517f08c379a000000000000000000000000000000000000000000000000000000000815260206004820152601c60248201527f433343616c6c65723a204f70657261746f72206e6f7420666f756e64000000006044820152fd5b1561253057565b60646040517f08c379a000000000000000000000000000000000000000000000000000000000815260206004820152601660248201527f433343616c6c65723a20656d70747920646170704944000000000000000000006044820152fd5b1561259557565b60646040517f08c379a000000000000000000000000000000000000000000000000000000000815260206004820152601360248201527f433343616c6c65723a20656d707479205f746f000000000000000000000000006044820152fd5b156125fa57565b60646040517f08c379a000000000000000000000000000000000000000000000000000000000815260206004820152601960248201527f433343616c6c65723a20656d70747920746f436861696e4944000000000000006044820152fd5b1561265f57565b60646040517f08c379a000000000000000000000000000000000000000000000000000000000815260206004820152601860248201527f433343616c6c65723a20656d7074792063616c6c6461746100000000000000006044820152fd5b601f82602094937fffffffffffffffffffffffffffffffffffffffffffffffffffffffffffffffe0938186528686013760008582860101520116010190565b9593916127209061272e94610bc99997938952608060208a015260808901916126bd565b9186830360408801526126bd565b9260608185039101526126bd565b9593916127209061272e9473ffffffffffffffffffffffffffffffffffffffff610bc99a9894168952608060208a015260808901916126bd565b1561277d57565b60846040517f08c379a000000000000000000000000000000000000000000000000000000000815260206004820152602260248201527f433343616c6c65723a2063616c6c64617461206c656e677468206d69736d617460448201527f63680000000000000000000000000000000000000000000000000000000000006064820152fd5b91908110156117ca5760051b810135907fffffffffffffffffffffffffffffffffffffffffffffffffffffffffffffffe1813603018212156101b557019081359167ffffffffffffffff83116101b55760200182360381136101b5579190565b1561286857565b60646040517f08c379a000000000000000000000000000000000000000000000000000000000815260206004820152601860248201527f433343616c6c65723a204155544820464f5242494444454e00000000000000006044820152fd5b156128cd57565b60646040517f08c379a000000000000000000000000000000000000000000000000000000000815260206004820152601960248201527f433343616c6c65723a20646170704944206d69736d61746368000000000000006044820152fd5b908160209103126101b5575180151581036101b55790565b1561294a57565b60646040517f08c379a000000000000000000000000000000000000000000000000000000000815260206004820152601b60248201527f433343616c6c65723a20616c726561647920636f6d706c6574656400000000006044820152fd5b90601f82116129b5575050565b6001916000908382527fb10e2d527612073b26eecdfd717e6a320cf44b4afac2b0732d9fcbe2b7fa0cf6906020601f850160051c83019410612a12575b601f0160051c01915b828110612a085750505050565b81815583016129fb565b90925082906129f2565b601f8111612a28575050565b600090600282527f405787fa12a823e0f2b7631cc41b3ba8828b3321ca811111fa75cd3aa3bb5ace906020601f850160051c83019410612a83575b601f0160051c01915b828110612a7857505050565b818155600101612a6c565b9092508290612a63565b601f8111612a99575050565b600090600382527fc2575a0e9e593c00f959f8c92f12db2869c3395a3b0502d05e2516446f71f85b906020601f850160051c83019410612af4575b601f0160051c01915b828110612ae957505050565b818155600101612add565b9092508290612ad4565b90815167ffffffffffffffff8111610ad757612b2481612b1f600254611359565b612a1c565b602080601f8311600114612b7d5750819293600092612b72575b50507fffffffffffffffffffffffffffffffffffffffffffffffffffffffffffffffff8260011b9260031b1c191617600255565b015190503880612b3e565b907fffffffffffffffffffffffffffffffffffffffffffffffffffffffffffffffe0831694612bce60026000527f405787fa12a823e0f2b7631cc41b3ba8828b3321ca811111fa75cd3aa3bb5ace90565b926000905b878210612c29575050836001959610612bf2575b505050811b01600255565b01517fffffffffffffffffffffffffffffffffffffffffffffffffffffffffffffffff60f88460031b161c19169055388080612be7565b80600185968294968601518155019501930190612bd3565b90815167ffffffffffffffff8111610ad757612c6781612c62600354611359565b612a8d565b602080601f8311600114612cc05750819293600092612cb5575b50507fffffffffffffffffffffffffffffffffffffffffffffffffffffffffffffffff8260011b9260031b1c191617600355565b015190503880612c81565b907fffffffffffffffffffffffffffffffffffffffffffffffffffffffffffffffe0831694612d1160036000527fc2575a0e9e593c00f959f8c92f12db2869c3395a3b0502d05e2516446f71f85b90565b926000905b878210612d6c575050836001959610612d35575b505050811b01600355565b01517fffffffffffffffffffffffffffffffffffffffffffffffffffffffffffffffff60f88460031b161c19169055388080612d2a565b80600185968294968601518155019501930190612d16565b90815160005560209182810151805167ffffffffffffffff8111610ad757600191612db882612db38554611359565b6129a8565b85601f8311600114612e2957509080611d0795966060959493600092612e1e575b50507fffffffffffffffffffffffffffffffffffffffffffffffffffffffffffffffff82841b9260031b1c19161790555b612e176040820151612afe565b0151612c41565b015190503880612dd9565b600160005295907fffffffffffffffffffffffffffffffffffffffffffffffffffffffffffffffe083167fb10e2d527612073b26eecdfd717e6a320cf44b4afac2b0732d9fcbe2b7fa0cf6976000905b828210612edc5750509684939192606096959383611d07999a10612ea5575b505050811b019055612e0a565b01517fffffffffffffffffffffffffffffffffffffffffffffffffffffffffffffffff60f88460031b161c19169055388080612e98565b838501518a55988601989384019390810190612e79565b908092918237016000815290565b969294612f29612f3793612f4597610bc99b9997948b5260a060208c015260a08b01916126bd565b9188830360408a01526126bd565b9185830360608701526126bd565b916080818403910152610f42565b9291610bc99492612f719285526060602086015260608501916126bd565b916040818403910152610f42565b91610bc99391612f97916040855260408501916126bd565b916020818403910152610f42565b15612fac57565b7f4e487b7100000000000000000000000000000000000000000000000000000000600052600160045260246000fd5b989493613023946130076130319994610bc99d9b999660c08e61301597815281602082015201916126bd565b918b830360408d01526126bd565b9188830360608a01526126bd565b9185830360808701526126bd565b9160a0818403910152610f42565b60208151106130515760200151600191565b5060009060009056fea2646970667358221220cc6bc83b2a6154628bc88914a811208c7aeaf3e5bd69f10c747a31faa4265a4b64736f6c63430008140033","linkReferences":{}},"methodIdentifiers":{"UPGRADE_INTERFACE_VERSION()":"ad3cb1cc","addOperator(address)":"9870d7fe","applyMPC()":"b63b38d0","c3Fallback(uint256,bytes32,address,string,string,bytes,bytes)":"b262abd9","c3broadcast(uint256,address,string[],string[],bytes)":"eea2d657","c3call(uint256,address,string,string,bytes)":"0c26defe","c3caller()":"d2f09c59","changeMPC(address)":"5b7b018c","context()":"d0496d6a","execute(uint256,bytes32,address,string,string,string,bytes)":"38f1fd78","getAllOperators()":"d911c632","getFallbackCallData(uint256,bytes,bytes)":"e643efff","getMPC()":"299c4425","initialize(address,address)":"485cc955","isCaller(address)":"7ac07dcc","isExecutor(address)":"debfda30","isOperator(address)":"6d70f7ae","mpc()":"f75c2664","operators(uint256)":"e28d4906","pendingMPC()":"f830e7b4","proxiableUUID()":"52d1902d","revokeOperator(address)":"fad8b32a","swapIDKeeper()":"e411a270","upgradeToAndCall(address,bytes)":"4f1ef286"},"id":122}