{"abi":[{"type":"constructor","inputs":[{"name":"_mpc","type":"address","internalType":"address"}],"stateMutability":"nonpayable"},{"type":"function","name":"addSupportedCaller","inputs":[{"name":"caller","type":"address","internalType":"address"}],"outputs":[],"stateMutability":"nonpayable"},{"type":"function","name":"admin","inputs":[],"outputs":[{"name":"","type":"address","internalType":"address"}],"stateMutability":"view"},{"type":"function","name":"calcCallerEncode","inputs":[{"name":"from","type":"address","internalType":"address"},{"name":"dappID","type":"uint256","internalType":"uint256"},{"name":"to","type":"string","internalType":"string"},{"name":"toChainID","type":"string","internalType":"string"},{"name":"data","type":"bytes","internalType":"bytes"}],"outputs":[{"name":"","type":"bytes","internalType":"bytes"}],"stateMutability":"view"},{"type":"function","name":"calcCallerUUID","inputs":[{"name":"from","type":"address","internalType":"address"},{"name":"dappID","type":"uint256","internalType":"uint256"},{"name":"to","type":"string","internalType":"string"},{"name":"toChainID","type":"string","internalType":"string"},{"name":"data","type":"bytes","internalType":"bytes"}],"outputs":[{"name":"","type":"bytes32","internalType":"bytes32"}],"stateMutability":"view"},{"type":"function","name":"calcSwapID","inputs":[{"name":"token","type":"address","internalType":"address"},{"name":"from","type":"address","internalType":"address"},{"name":"to","type":"string","internalType":"string"},{"name":"amount","type":"uint256","internalType":"uint256"},{"name":"toChainID","type":"string","internalType":"string"},{"name":"sender","type":"address","internalType":"address"},{"name":"dapp","type":"string","internalType":"string"},{"name":"data","type":"bytes","internalType":"bytes"}],"outputs":[{"name":"","type":"bytes32","internalType":"bytes32"}],"stateMutability":"view"},{"type":"function","name":"changeMPC","inputs":[{"name":"newMPC","type":"address","internalType":"address"}],"outputs":[{"name":"","type":"bool","internalType":"bool"}],"stateMutability":"nonpayable"},{"type":"function","name":"completedSwapin","inputs":[{"name":"","type":"bytes32","internalType":"bytes32"}],"outputs":[{"name":"","type":"bool","internalType":"bool"}],"stateMutability":"view"},{"type":"function","name":"currentSwapoutNonce","inputs":[],"outputs":[{"name":"","type":"uint256","internalType":"uint256"}],"stateMutability":"view"},{"type":"function","name":"genUUID","inputs":[{"name":"dappID","type":"uint256","internalType":"uint256"},{"name":"to","type":"string","internalType":"string"},{"name":"toChainID","type":"string","internalType":"string"},{"name":"data","type":"bytes","internalType":"bytes"}],"outputs":[{"name":"uuid","type":"bytes32","internalType":"bytes32"}],"stateMutability":"nonpayable"},{"type":"function","name":"getAllSupportedCallers","inputs":[],"outputs":[{"name":"","type":"address[]","internalType":"address[]"}],"stateMutability":"view"},{"type":"function","name":"isSupportedCaller","inputs":[{"name":"","type":"address","internalType":"address"}],"outputs":[{"name":"","type":"bool","internalType":"bool"}],"stateMutability":"view"},{"type":"function","name":"isSwapCompleted","inputs":[{"name":"uuid","type":"bytes32","internalType":"bytes32"}],"outputs":[{"name":"","type":"bool","internalType":"bool"}],"stateMutability":"view"},{"type":"function","name":"isSwapoutIDExist","inputs":[{"name":"uuid","type":"bytes32","internalType":"bytes32"}],"outputs":[{"name":"","type":"bool","internalType":"bool"}],"stateMutability":"view"},{"type":"function","name":"registerSwapin","inputs":[{"name":"uuid","type":"bytes32","internalType":"bytes32"}],"outputs":[],"stateMutability":"nonpayable"},{"type":"function","name":"registerSwapout","inputs":[{"name":"dappID","type":"uint256","internalType":"uint256"},{"name":"token","type":"address","internalType":"address"},{"name":"from","type":"address","internalType":"address"},{"name":"to","type":"string","internalType":"string"},{"name":"amount","type":"uint256","internalType":"uint256"},{"name":"toChainID","type":"string","internalType":"string"},{"name":"data","type":"bytes","internalType":"bytes"}],"outputs":[{"name":"uuid","type":"bytes32","internalType":"bytes32"}],"stateMutability":"nonpayable"},{"type":"function","name":"removeSupportedCaller","inputs":[{"name":"caller","type":"address","internalType":"address"}],"outputs":[],"stateMutability":"nonpayable"},{"type":"function","name":"revokeSwapin","inputs":[{"name":"uuid","type":"bytes32","internalType":"bytes32"}],"outputs":[],"stateMutability":"nonpayable"},{"type":"function","name":"supportedCallers","inputs":[{"name":"","type":"uint256","internalType":"uint256"}],"outputs":[{"name":"","type":"address","internalType":"address"}],"stateMutability":"view"},{"type":"function","name":"swapoutNonce","inputs":[{"name":"","type":"bytes32","internalType":"bytes32"}],"outputs":[{"name":"","type":"uint256","internalType":"uint256"}],"stateMutability":"view"}],"bytecode":{"object":"0x60803461008957601f6113f238819003918201601f19168301916001600160401b0383118484101761008e5780849260209460405283398101031261008957516001600160a01b03811690819003610089578060018060a01b0319600054161760005560005260016020526040600020600160ff1982541617905560405161134d90816100a58239f35b600080fd5b634e487b7160e01b600052604160045260246000fdfe608060405260048036101561001357600080fd5b600090813560e01c90816308cb277f14610d80578163336611ca14610b8c5781633c65f5f1146109b85781634fda04ca1461098f578163549d8bb114610610578163580e70d51461088e5781635b7b018c1461077357816362ae45ab1461070957816382e7a58a14610689578163975e95bb1461063f5781639bc4fe69146106105781639e2bf6e414610512578163bce39350146104c3578163be6adb8714610498578163c36cec9c1461047a578163d726d0611461039a578163f1a9bff914610214578163f2c2718414610127575063f851a440146100f257600080fd5b3461012457806003193601126101245773ffffffffffffffffffffffffffffffffffffffff6020915416604051908152f35b80fd5b82346101245761013636610e3d565b9391909260059897989695965492600184018094116101e85760405160209b50998a9861016a9890914690308f8d016112a3565b0361019b7fffffffffffffffffffffffffffffffffffffffffffffffffffffffffffffffe091828101855284610fb8565b604051938492818452845191828186015281955b8387106101cf5750506040945090601f9185828601015201168101030190f35b86810182015188880160400152958101958795506101af565b60248960118d7f4e487b7100000000000000000000000000000000000000000000000000000000835252fd5b9050346103965760806003193601126103965767ffffffffffffffff60243581811161038e576102479036908401610e0f565b9390604435838111610392576102609036908601610e0f565b909360643590811161038e578592916102c66102826102f29336908701610e0f565b9033885260209a8b946001865261029f60ff60408c205416610f2e565b6102aa600554611028565b9a8b9283600555604051998a9889019b35468d339030906112a3565b037fffffffffffffffffffffffffffffffffffffffffffffffffffffffffffffffe08101835282610fb8565b519020926040517fbe6adb8700000000000000000000000000000000000000000000000000000000815284828201528581602481305afa908115610383578392916103479160409591610356575b501561123e565b84825285522055604051908152f35b6103769150883d8a1161037c575b61036e8183610fb8565b810190611226565b38610340565b503d610364565b6040513d85823e3d90fd5b8380fd5b8280fd5b5080fd5b823461012457806003193601126101245760405180916002549081835260208093018092600283527f405787fa12a823e0f2b7631cc41b3ba8828b3321ca811111fa75cd3aa3bb5ace90835b81811061045057505050846103fc910385610fb8565b60405193838594850191818652518092526040850193925b82811061042357505050500390f35b835173ffffffffffffffffffffffffffffffffffffffff1685528695509381019392810192600101610414565b825473ffffffffffffffffffffffffffffffffffffffff16845292860192600192830192016103e6565b82346101245780600319360112610124576020600554604051908152f35b9050346103965760206003193601126103965760209181604092358252835220541515604051908152f35b90503461039657602060031936011261039657359060025482101561012457602073ffffffffffffffffffffffffffffffffffffffff61050284610ec8565b9190546040519260031b1c168152f35b90503461039657602060031936011261039657803590338352600160205261054060ff604085205416610f2e565b818352600360205260ff60408420541661058c5750815260036020526040812060017fffffffffffffffffffffffffffffffffffffffffffffffffffffffffffffff0082541617905580f35b6084906020604051917f08c379a0000000000000000000000000000000000000000000000000000000008352820152602160248201527f43335377617049444b65657065723a207575696420697320636f6d706c65746560448201527f64000000000000000000000000000000000000000000000000000000000000006064820152fd5b90503461039657602060031936011261039657604060209260ff92358152600384522054166040519015158152f35b82346101245760206003193601126101245760ff604060209273ffffffffffffffffffffffffffffffffffffffff610675610dc4565b168152600184522054166040519015158152f35b82346101245761069836610e3d565b94969792909360055493600185018095116106dd5760208a8a6106d28b6102c68c8c8c8c8c8c604051998a988d8a01809d469130906112a3565b519020604051908152f35b8060118c7f4e487b71000000000000000000000000000000000000000000000000000000006024945252fd5b9050346103965760206003193601126103965761073e73ffffffffffffffffffffffffffffffffffffffff8354163314610f2e565b3581526003602052604081207fffffffffffffffffffffffffffffffffffffffffffffffffffffffffffffff00815416905580f35b82346101245760206003193601126101245761078d610dc4565b73ffffffffffffffffffffffffffffffffffffffff80835416916107b2338414610f2e565b169283156108305750816040916001935282602052818120937fffffffffffffffffffffffffffffffffffffffffffffffffffffffffffffff0094858154169055807fffffffffffffffffffffffff000000000000000000000000000000000000000083541617825581522091825416179055602060405160018152f35b6064906020604051917f08c379a0000000000000000000000000000000000000000000000000000000008352820152601a60248201527f43335377617049444b65657065723a20616464726573732830290000000000006044820152fd5b8234610124576020600319360112610124576108a8610dc4565b73ffffffffffffffffffffffffffffffffffffffff6108cb818454163314610f2e565b81168252600160205260408220805460ff811661038e577fffffffffffffffffffffffffffffffffffffffffffffffffffffffffffffff0016600117905560025492680100000000000000008410156109635750610933836001610960949501600255610ec8565b90919082549060031b9173ffffffffffffffffffffffffffffffffffffffff809116831b921b1916179055565b80f35b8260416024927f4e487b7100000000000000000000000000000000000000000000000000000000835252fd5b905034610396576020600319360112610396576020918160409235825283522054604051908152f35b9050346103965760e0600319360112610396576109d3610dec565b6044359273ffffffffffffffffffffffffffffffffffffffff918285168095036103965767ffffffffffffffff9460643586811161038e57610a189036908701610e0f565b91909660a435818111610b8857610a329036908901610e0f565b93909160c435908111610b845788959493929190610a539036908801610e0f565b909233895260209b8c956001875260408b205460ff16610a7290610f2e565b600554610a7e90611028565b9b8c600555604051998a9889019b308d523360408b01524660608b01523560808a01521660a088015260c0870152610160938460e0880152610180870190610ac5926111e7565b6084356101008701528a6101208701527fffffffffffffffffffffffffffffffffffffffffffffffffffffffffffffffe0968787830301610140880152610b0b926111e7565b91858584030190850152610b1e926111e7565b039081018252610b2e9082610fb8565b519020926040517fbe6adb870000000000000000000000000000000000000000000000000000000081528482820152858130815a91602492fa90811561038357839291610347916040959161035657501561123e565b8680fd5b8580fd5b82346101245761010060031936011261012457610ba7610dc4565b91610bb0610dec565b67ffffffffffffffff929060443584811161039257610bd29036908501610e0f565b919094608435818111610d7c57610bec9036908701610e0f565b969060a4359673ffffffffffffffffffffffffffffffffffffffff8816809803610b845760c435848111610d7857610c279036908301610e0f565b93909460e435908111610d7457610c419036908401610e0f565b9690986005549360018501809511610d485750506040519b8c9a3060208d015260408c01524660608c015273ffffffffffffffffffffffffffffffffffffffff1660808b015273ffffffffffffffffffffffffffffffffffffffff1660a08a0152610160968760c08b01526101808a0190610cbb926111e7565b9060643560e08a01526101008901527fffffffffffffffffffffffffffffffffffffffffffffffffffffffffffffffe09889898303016101208a0152610d00926111e7565b908787830301610140880152610d15926111e7565b91858584030190850152610d28926111e7565b039081018252610d389082610fb8565b8051602091820120604051908152f35b9060116024927f4e487b7100000000000000000000000000000000000000000000000000000000835252fd5b8880fd5b8780fd5b8480fd5b823461012457602060031936011261012457610960610d9d610dc4565b610dbf73ffffffffffffffffffffffffffffffffffffffff8454163314610f2e565b611084565b6004359073ffffffffffffffffffffffffffffffffffffffff82168203610de757565b600080fd5b6024359073ffffffffffffffffffffffffffffffffffffffff82168203610de757565b9181601f84011215610de75782359167ffffffffffffffff8311610de75760208381860195010111610de757565b9060a0600319830112610de75760043573ffffffffffffffffffffffffffffffffffffffff81168103610de757916024359167ffffffffffffffff604435818111610de75783610e8f91600401610e0f565b93909392606435838111610de75782610eaa91600401610e0f565b93909392608435918211610de757610ec491600401610e0f565b9091565b600254811015610eff5760026000527f405787fa12a823e0f2b7631cc41b3ba8828b3321ca811111fa75cd3aa3bb5ace0190600090565b7f4e487b7100000000000000000000000000000000000000000000000000000000600052603260045260246000fd5b15610f3557565b60846040517f08c379a0000000000000000000000000000000000000000000000000000000008152602060048201526024808201527f43335377617049444b65657065723a206e6f7420737570706f7274656420636160448201527f6c6c6572000000000000000000000000000000000000000000000000000000006064820152fd5b90601f7fffffffffffffffffffffffffffffffffffffffffffffffffffffffffffffffe0910116810190811067ffffffffffffffff821117610ff957604052565b7f4e487b7100000000000000000000000000000000000000000000000000000000600052604160045260246000fd5b7fffffffffffffffffffffffffffffffffffffffffffffffffffffffffffffffff81146110555760010190565b7f4e487b7100000000000000000000000000000000000000000000000000000000600052601160045260246000fd5b73ffffffffffffffffffffffffffffffffffffffff80911690600091808352600160205260408320805460ff811615610d7c577fffffffffffffffffffffffffffffffffffffffffffffffffffffffffffffff001690556002908154845b8181106110f157505050505050565b84836110fc83610ec8565b929054600393841b1c161461111a575061111590611028565b6110e2565b959394937fffffffffffffffffffffffffffffffffffffffffffffffffffffffffffffffff9350918381019081116111ba57906109338561115d61116a94610ec8565b9054908a1b1c1691610ec8565b835490811561118d5750019261117f84610ec8565b81939154921b1b1916905555565b807f4e487b7100000000000000000000000000000000000000000000000000000000602492526031600452fd5b6024837f4e487b710000000000000000000000000000000000000000000000000000000081526011600452fd5b601f82602094937fffffffffffffffffffffffffffffffffffffffffffffffffffffffffffffffe0938186528686013760008582860101520116010190565b90816020910312610de757518015158103610de75790565b1561124557565b60646040517f08c379a000000000000000000000000000000000000000000000000000000000815260206004820152601260248201527f7575696420616c726561647920657869737400000000000000000000000000006044820152fd5b969491936112f39361130197926113149d9b9c9a9673ffffffffffffffffffffffffffffffffffffffff8092168b521660208a0152604089015260608801526101008060808901528701916111e7565b9184830360a08601526111e7565b9360c082015260e08185039101526111e7565b9056fea264697066735822122098b579f8d2d8f3dbc56772e65f202fe41f20dcf18d241715482b62588a93963064736f6c63430008140033","linkReferences":{}},"methodIdentifiers":{"addSupportedCaller(address)":"580e70d5","admin()":"f851a440","calcCallerEncode(address,uint256,string,string,bytes)":"f2c27184","calcCallerUUID(address,uint256,string,string,bytes)":"82e7a58a","calcSwapID(address,address,string,uint256,string,address,string,bytes)":"336611ca","changeMPC(address)":"5b7b018c","completedSwapin(bytes32)":"9bc4fe69","currentSwapoutNonce()":"c36cec9c","genUUID(uint256,string,string,bytes)":"f1a9bff9","getAllSupportedCallers()":"d726d061","isSupportedCaller(address)":"975e95bb","isSwapCompleted(bytes32)":"549d8bb1","isSwapoutIDExist(bytes32)":"be6adb87","registerSwapin(bytes32)":"9e2bf6e4","registerSwapout(uint256,address,address,string,uint256,string,bytes)":"3c65f5f1","removeSupportedCaller(address)":"08cb277f","revokeSwapin(bytes32)":"62ae45ab","supportedCallers(uint256)":"bce39350","swapoutNonce(bytes32)":"4fda04ca"},"id":105}