{"abi":[{"type":"constructor","inputs":[],"stateMutability":"nonpayable"},{"type":"function","name":"addOperator","inputs":[{"name":"_op","type":"address","internalType":"address"}],"outputs":[],"stateMutability":"nonpayable"},{"type":"function","name":"applyGov","inputs":[],"outputs":[],"stateMutability":"nonpayable"},{"type":"function","name":"changeGov","inputs":[{"name":"_gov","type":"address","internalType":"address"}],"outputs":[],"stateMutability":"nonpayable"},{"type":"function","name":"doGov","inputs":[{"name":"_nonce","type":"bytes32","internalType":"bytes32"},{"name":"offset","type":"uint256","internalType":"uint256"}],"outputs":[],"stateMutability":"nonpayable"},{"type":"function","name":"getAllOperators","inputs":[],"outputs":[{"name":"","type":"address[]","internalType":"address[]"}],"stateMutability":"view"},{"type":"function","name":"getProposalData","inputs":[{"name":"_nonce","type":"bytes32","internalType":"bytes32"},{"name":"offset","type":"uint256","internalType":"uint256"}],"outputs":[{"name":"","type":"bytes","internalType":"bytes"},{"name":"","type":"bool","internalType":"bool"}],"stateMutability":"view"},{"type":"function","name":"gov","inputs":[],"outputs":[{"name":"","type":"address","internalType":"address"}],"stateMutability":"view"},{"type":"function","name":"isOperator","inputs":[{"name":"","type":"address","internalType":"address"}],"outputs":[{"name":"","type":"bool","internalType":"bool"}],"stateMutability":"view"},{"type":"function","name":"operators","inputs":[{"name":"","type":"uint256","internalType":"uint256"}],"outputs":[{"name":"","type":"address","internalType":"address"}],"stateMutability":"view"},{"type":"function","name":"pendingGov","inputs":[],"outputs":[{"name":"","type":"address","internalType":"address"}],"stateMutability":"view"},{"type":"function","name":"revokeOperator","inputs":[{"name":"_op","type":"address","internalType":"address"}],"outputs":[],"stateMutability":"nonpayable"},{"type":"function","name":"sendMultiParams","inputs":[{"name":"_data","type":"bytes[]","internalType":"bytes[]"},{"name":"_nonce","type":"bytes32","internalType":"bytes32"}],"outputs":[],"stateMutability":"nonpayable"},{"type":"function","name":"sendParams","inputs":[{"name":"_data","type":"bytes","internalType":"bytes"},{"name":"_nonce","type":"bytes32","internalType":"bytes32"}],"outputs":[],"stateMutability":"nonpayable"},{"type":"function","name":"version","inputs":[],"outputs":[{"name":"","type":"uint256","internalType":"uint256"}],"stateMutability":"pure"},{"type":"event","name":"ApplyGov","inputs":[{"name":"oldGov","type":"address","indexed":true,"internalType":"address"},{"name":"newGov","type":"address","indexed":true,"internalType":"address"},{"name":"timestamp","type":"uint256","indexed":false,"internalType":"uint256"}],"anonymous":false},{"type":"event","name":"C3GovernorLog","inputs":[{"name":"nonce","type":"bytes32","indexed":true,"internalType":"bytes32"},{"name":"toChainID","type":"uint256","indexed":true,"internalType":"uint256"},{"name":"to","type":"string","indexed":false,"internalType":"string"},{"name":"toData","type":"bytes","indexed":false,"internalType":"bytes"}],"anonymous":false},{"type":"event","name":"ChangeGov","inputs":[{"name":"oldGov","type":"address","indexed":true,"internalType":"address"},{"name":"newGov","type":"address","indexed":true,"internalType":"address"},{"name":"timestamp","type":"uint256","indexed":false,"internalType":"uint256"}],"anonymous":false},{"type":"event","name":"Initialized","inputs":[{"name":"version","type":"uint64","indexed":false,"internalType":"uint64"}],"anonymous":false},{"type":"event","name":"NewProposal","inputs":[{"name":"uuid","type":"bytes32","indexed":true,"internalType":"bytes32"}],"anonymous":false},{"type":"error","name":"InvalidInitialization","inputs":[]},{"type":"error","name":"NotInitializing","inputs":[]}],"bytecode":{"object":"0x6080806040523462000164577ff0c57e16840df040f15088dc2f81fe391c3923bec73e23a9662efc9c229c6a0080549091604082901c60ff161591906001600160401b038216801590816200015b575b600114908162000150575b15908162000146575b506200013757506001600160401b0319811660011783558162000119575b503360018060a01b0319600054161760005560405142815260007fff88f8815b3f9faf85529ba09d2f7ff0d9c726c11cc863fd245156986014259060203393a3620000d7575b604051611caf90816200016a8239f35b68ff00000000000000001981541690557fc7f505b2f371ae2175ee4913f4499e1f2633a7b5936321eed1cdaeb6115181d2602060405160018152a138620000c7565b6001600160481b031916680100000000000000011782553862000081565b63f92ee8a960e01b8152600490fd5b9050153862000063565b303b1591506200005a565b8491506200004f565b600080fdfe6080604052600436101561001257600080fd5b60003560e01c806312d43a51146100f757806325240810146100f257806330a893a7146100ed578063459c7695146100e857806354fd4d50146100e35780636d70f7ae146100de5780639870d7fe146100d9578063a335337b146100d4578063a962ef1e146100cf578063b846f81f146100ca578063d911c632146100c5578063e28d4906146100c0578063fad8b32a146100bb5763fdc66b23146100b657600080fd5b610a86565b610a4d565b6109e6565b610882565b61078f565b610703565b610688565b610501565b6104c0565b610475565b610302565b61025a565b610130565b3461012b57600060031936011261012b57602073ffffffffffffffffffffffffffffffffffffffff60005416604051908152f35b600080fd5b3461012b57600060031936011261012b57602073ffffffffffffffffffffffffffffffffffffffff60015416604051908152f35b7f4e487b7100000000000000000000000000000000000000000000000000000000600052604160045260246000fd5b90601f7fffffffffffffffffffffffffffffffffffffffffffffffffffffffffffffffe0910116810190811067ffffffffffffffff8211176101d457604052565b610164565b67ffffffffffffffff81116101d457601f017fffffffffffffffffffffffffffffffffffffffffffffffffffffffffffffffe01660200190565b81601f8201121561012b5780359061022a826101d9565b926102386040519485610193565b8284526020838301011161012b57816000926020809301838601378301015290565b3461012b57604060031936011261012b5760043567ffffffffffffffff80821161012b573660238301121561012b578160040135918183116101d4578260051b90604051926020946102ae86850186610193565b845284840190602480948401019236841161012b57848101925b8484106102dc576102da8635886112d5565b005b833583811161012b5788916102f78392893691870101610213565b8152019301926102c8565b3461012b576000806003193601126104725773ffffffffffffffffffffffffffffffffffffffff80600154168015610414576103799073ffffffffffffffffffffffffffffffffffffffff167fffffffffffffffffffffffff00000000000000000000000000000000000000006000541617600055565b6103a67fffffffffffffffffffffffff000000000000000000000000000000000000000060015416600155565b815473ffffffffffffffffffffffffffffffffffffffff16907fff88f8815b3f9faf85529ba09d2f7ff0d9c726c11cc863fd24515698601425906103ff60015473ffffffffffffffffffffffffffffffffffffffff1690565b6040514281529083169390921691602090a380f35b60646040517f08c379a000000000000000000000000000000000000000000000000000000000815260206004820152601760248201527f4333476f763a20656d7074792070656e64696e67476f760000000000000000006044820152fd5b80fd5b3461012b57600060031936011261012b57602060405160018152f35b600319602091011261012b5760043573ffffffffffffffffffffffffffffffffffffffff8116810361012b5790565b3461012b5773ffffffffffffffffffffffffffffffffffffffff6104e336610491565b166000526002602052602060ff604060002054166040519015158152f35b3461012b5761050f36610491565b73ffffffffffffffffffffffffffffffffffffffff61053381600054163314610b46565b81169081156105c4576102da91600052600260205261056761056261055e604060002060ff90541690565b1590565b610bab565b6105bf6105948273ffffffffffffffffffffffffffffffffffffffff166000526002602052604060002090565b60017fffffffffffffffffffffffffffffffffffffffffffffffffffffffffffffff00825416179055565b610c36565b60646040517f08c379a000000000000000000000000000000000000000000000000000000000815260206004820152602060248201527f433343616c6c65723a204f70657261746f7220697320616464726573732830296044820152fd5b60005b8381106106355750506000910152565b8181015183820152602001610625565b907fffffffffffffffffffffffffffffffffffffffffffffffffffffffffffffffe0601f60209361068181518092818752878088019101610622565b0116010190565b3461012b5760408060031936011261012b57600435906106de60ff6106d56024358560005260046020526106bf81866000206109ce565b5095600052600460205260018560002001611284565b929054946114d0565b936106f28451958587968752860190610645565b9260031b1c16151560208301520390f35b3461012b5761071136610491565b73ffffffffffffffffffffffffffffffffffffffff806000541691610737833314610b46565b1690817fffffffffffffffffffffffff000000000000000000000000000000000000000060015416176001557fd098c548c6851f1e61d4e1364996748b40477bb1abe90254bd71352396b2b7be6020604051428152a3005b3461012b57604060031936011261012b576004356024358160005260046020526040600020548110156107fe57816107f96107f36107e68460016107e06102da986000526004602052604060002090565b01611284565b905460ff9160031b1c1690565b15611445565b61177c565b60846040517f08c379a000000000000000000000000000000000000000000000000000000000815260206004820152603960248201527f4333476f7665726e6f723a2052656164696e67206265796f6e6420746865206c60448201527f656e677468206f6620746865206f6666736574206172726179000000000000006064820152fd5b3461012b576000806003193601126104725760405180916003549081835260208093018092600383527fc2575a0e9e593c00f959f8c92f12db2869c3395a3b0502d05e2516446f71f85b90835b81811061093957505050846108e5910385610193565b60405193838594850191818652518092526040850193925b82811061090c57505050500390f35b835173ffffffffffffffffffffffffffffffffffffffff16855286955093810193928101926001016108fd565b825473ffffffffffffffffffffffffffffffffffffffff16845292860192600192830192016108cf565b7f4e487b7100000000000000000000000000000000000000000000000000000000600052603260045260246000fd5b6003548110156109c95760036000527fc2575a0e9e593c00f959f8c92f12db2869c3395a3b0502d05e2516446f71f85b0190600090565b610963565b80548210156109c95760005260206000200190600090565b3461012b57602060031936011261012b5760043560035481101561012b5773ffffffffffffffffffffffffffffffffffffffff60209160036000527fc2575a0e9e593c00f959f8c92f12db2869c3395a3b0502d05e2516446f71f85b015416604051908152f35b3461012b576102da610a5e36610491565b610a8173ffffffffffffffffffffffffffffffffffffffff600054163314610b46565b610e06565b3461012b57604060031936011261012b5760043567ffffffffffffffff811161012b57610ab7903690600401610213565b610b43602435610b02600093610ae573ffffffffffffffffffffffffffffffffffffffff8654163314610b46565b610af181511515610f9c565b8285526004602052604085206110ce565b8083526004602052610b19600160408520016112a4565b807f2fa055ed2a16bf675cb77388be42cc263fd4f3feaac282dbcce8ae28691c960b8480a261168a565b80f35b15610b4d57565b60646040517f08c379a000000000000000000000000000000000000000000000000000000000815260206004820152600f60248201527f4333476f763a206f6e6c7920476f7600000000000000000000000000000000006044820152fd5b15610bb257565b60846040517f08c379a000000000000000000000000000000000000000000000000000000000815260206004820152602160248201527f433343616c6c65723a204f70657261746f7220616c726561647920657869737460448201527f73000000000000000000000000000000000000000000000000000000000000006064820152fd5b600354680100000000000000008110156101d45760018101806003558110156109c95773ffffffffffffffffffffffffffffffffffffffff9060036000527fc2575a0e9e593c00f959f8c92f12db2869c3395a3b0502d05e2516446f71f85b0191167fffffffffffffffffffffffff0000000000000000000000000000000000000000825416179055565b7f4e487b7100000000000000000000000000000000000000000000000000000000600052601160045260246000fd5b7fffffffffffffffffffffffffffffffffffffffffffffffffffffffffffffffff8114610d1d5760010190565b610cc1565b907fffffffffffffffffffffffffffffffffffffffffffffffffffffffffffffffff8201918211610d1d57565b6003548015610dd7577fffffffffffffffffffffffffffffffffffffffffffffffffffffffffffffffff810190808210156109c9577fc2575a0e9e593c00f959f8c92f12db2869c3395a3b0502d05e2516446f71f85a906003600052017fffffffffffffffffffffffff00000000000000000000000000000000000000008154169055600355565b7f4e487b7100000000000000000000000000000000000000000000000000000000600052603160045260246000fd5b73ffffffffffffffffffffffffffffffffffffffff908181169081600052600260205260ff6040600020541615610f3e57610e64610e8c9173ffffffffffffffffffffffffffffffffffffffff166000526002602052604060002090565b7fffffffffffffffffffffffffffffffffffffffffffffffffffffffffffffff008154169055565b6003549060005b828110610ea05750505050565b8184610ece610eae84610992565b905473ffffffffffffffffffffffffffffffffffffffff9160031b1c1690565b1614610ee257610edd90610cf0565b610e93565b91610f349350610f079150610eae610efc610f0192610d22565b610992565b91610992565b90919082549060031b9173ffffffffffffffffffffffffffffffffffffffff809116831b921b1916179055565b610f3c610d4f565b565b60646040517f08c379a000000000000000000000000000000000000000000000000000000000815260206004820152601c60248201527f433343616c6c65723a204f70657261746f72206e6f7420666f756e64000000006044820152fd5b15610fa357565b60846040517f08c379a000000000000000000000000000000000000000000000000000000000815260206004820152602160248201527f4333476f7665726e6f723a204e6f206461746120746f2073656e64506172616d60448201527f73000000000000000000000000000000000000000000000000000000000000006064820152fd5b90600182811c92168015611070575b602083101461104157565b7f4e487b7100000000000000000000000000000000000000000000000000000000600052602260045260246000fd5b91607f1691611036565b90601f811161108857505050565b600091825260208220906020601f850160051c830194106110c4575b601f0160051c01915b8281106110b957505050565b8181556001016110ad565b90925082906110a4565b908154680100000000000000008110156101d4576110f39060019384820181556109ce565b9290926112405781519167ffffffffffffffff83116101d4576111208361111a8654611027565b8661107a565b60209081601f8511600114611198575060009184918261116d575b50507fffffffffffffffffffffffffffffffffffffffffffffffffffffffffffffffff91921b9260031b1c1916179055565b015191507fffffffffffffffffffffffffffffffffffffffffffffffffffffffffffffffff3861113b565b9190847fffffffffffffffffffffffffffffffffffffffffffffffffffffffffffffffe0819596166111cf88600052602060002090565b946000905b8883831061122657505050106111ef575b505050811b019055565b01517fffffffffffffffffffffffffffffffffffffffffffffffffffffffffffffffff60f88460031b161c191690553880806111e5565b8587015188559096019594850194879350908101906111d4565b7f4e487b7100000000000000000000000000000000000000000000000000000000600052600060045260246000fd5b8054156109c957600052602060002090600090565b91909180548310156109c957600052601f60206000208360051c01921690565b8054680100000000000000008110156101d4576112c691600182018155611284565b60ff82549160031b1b19169055565b91906112fa73ffffffffffffffffffffffffffffffffffffffff600054163314610b46565b61130683511515610f9c565b60005b83518110156114065761131c8185611431565b5151156113825761137d9061134f61133e846000526004602052604060002090565b6113488388611431565b51906110ce565b61136e6001611368856000526004602052604060002090565b016112a4565b611378818461177c565b610cf0565b611309565b60846040517f08c379a000000000000000000000000000000000000000000000000000000000815260206004820152602860248201527f4333476f7665726e6f723a204e6f20646174612070617373656420746f20736560448201527f6e64506172616d730000000000000000000000000000000000000000000000006064820152fd5b509091507f2fa055ed2a16bf675cb77388be42cc263fd4f3feaac282dbcce8ae28691c960b600080a2565b80518210156109c95760209160051b010190565b1561144c57565b60846040517f08c379a000000000000000000000000000000000000000000000000000000000815260206004820152602c60248201527f4333476f7665726e6f723a20446f206e6f7420726573656e642069662069742060448201527f646964206e6f74206661696c00000000000000000000000000000000000000006064820152fd5b90604051918260008254926114e484611027565b908184526001948581169081600014611551575060011461150e575b5050610f3c92500383610193565b9093915060005260209081600020936000915b818310611539575050610f3c93508201013880611500565b85548884018501529485019487945091830191611521565b9050610f3c9550602093507fffffffffffffffffffffffffffffffffffffffffffffffffffffffffffffff0091501682840152151560051b8201013880611500565b909291926115a0816101d9565b916115ae6040519384610193565b82948284528282011161012b576020610f3c930190610622565b909160608284031261012b57815192602083015167ffffffffffffffff9081811161012b57840182601f8201121561012b578281602061160a93519101611593565b93604081015191821161012b57019080601f8301121561012b57815161163292602001611593565b90565b909161164c61163293604084526040840190610645565b916020818403910152610645565b3d15611685573d9061166b826101d9565b916116796040519384610193565b82523d6000602084013e565b606090565b6000908082526004602052604082208054156109c95782526116c06116b1602084206114d0565b602080825183010191016115c8565b90939146810361172857506116d6829394611893565b82602083519301915af16116e861165a565b506116f05750565b611712600161170c610f3c936000526004602052604060002090565b0161126f565b81549060031b9060ff6001831b921b1916179055565b937f7066190a2751b8d939d2c201f8eb1ea9fa04b8616d0c26b6dcdee152cbdb36089250611768611712600161170c876000526004602052604060002090565b61177760405192839283611635565b0390a3565b80600052600460205261179f6116b16117998460406000206109ce565b506114d0565b914681036117ed57506000916117b58392611893565b82602083519301915af16117c761165a565b506117d0575050565b610f3c9160016107e0611712936000526004602052604060002090565b93906117686117127f7066190a2751b8d939d2c201f8eb1ea9fa04b8616d0c26b6dcdee152cbdb3608949360016107e0886000526004602052604060002090565b1561183557565b60646040517f08c379a000000000000000000000000000000000000000000000000000000000815260206004820152601560248201527f746f416464726573735f6f75744f66426f756e647300000000000000000000006044820152fd5b9081516118af6001916118a8838216156119ac565b821c6119b3565b906000938185905b6118da575b50505060219192506118d260158251101561182e565b015160601c90565b815160011c8110156119a7578061198f61196761194461193f61193a61193461190e6119086119a199611a02565b8a611a32565b517fff000000000000000000000000000000000000000000000000000000000000001690565b60f81c90565b611aed565b611a43565b61196161193a61193461190e61190861195c89611a02565b611a58565b90611a77565b60f81b7fff000000000000000000000000000000000000000000000000000000000000001690565b871a61199b8287611a32565b53610cf0565b826118b7565b6118bc565b1561012b57565b906119bd826101d9565b6119ca6040519182610193565b8281527fffffffffffffffffffffffffffffffffffffffffffffffffffffffffffffffe06119f882946101d9565b0190602036910137565b908160011b917f7fffffffffffffffffffffffffffffffffffffffffffffffffffffffffffffff811603610d1d57565b9081518110156109c9570160200190565b60041b90610ff060f0831692168203610d1d57565b9060018201809211610d1d57565b60ff16600a019060ff8211610d1d57565b9060ff8091169116019060ff8211610d1d57565b60ff7fffffffffffffffffffffffffffffffffffffffffffffffffffffffffffffff9f9116019060ff8211610d1d57565b60ff7fffffffffffffffffffffffffffffffffffffffffffffffffffffffffffffffbf9116019060ff8211610d1d57565b7fff000000000000000000000000000000000000000000000000000000000000008160f81b167f300000000000000000000000000000000000000000000000000000000000000081101580611c4f575b611c1d577f610000000000000000000000000000000000000000000000000000000000000081101580611bf3575b611be1577f41000000000000000000000000000000000000000000000000000000000000008110159081611bb6575b50611ba55750600090565b611bb161163291611a66565b611abc565b7f46000000000000000000000000000000000000000000000000000000000000009150111538611b9a565b50611bee61163291611a66565b611a8b565b507f6600000000000000000000000000000000000000000000000000000000000000811115611b6b565b5060ff7fffffffffffffffffffffffffffffffffffffffffffffffffffffffffffffffd091160160ff8111610d1d5790565b507f3900000000000000000000000000000000000000000000000000000000000000811115611b3d56fea26469706673582212204e9a3acc6640f89a515687d4be193bc727f1acc866993ed62a9c52aa47113c3f64736f6c63430008140033","linkReferences":{}},"methodIdentifiers":{"addOperator(address)":"9870d7fe","applyGov()":"459c7695","changeGov(address)":"a962ef1e","doGov(bytes32,uint256)":"b846f81f","getAllOperators()":"d911c632","getProposalData(bytes32,uint256)":"a335337b","gov()":"12d43a51","isOperator(address)":"6d70f7ae","operators(uint256)":"e28d4906","pendingGov()":"25240810","revokeOperator(address)":"fad8b32a","sendMultiParams(bytes[],bytes32)":"30a893a7","sendParams(bytes,bytes32)":"fdc66b23","version()":"54fd4d50"},"id":17}