{"abi":[{"type":"function","name":"approve","inputs":[{"name":"spender","type":"address","internalType":"address"},{"name":"id","type":"uint256","internalType":"uint256"}],"outputs":[],"stateMutability":"nonpayable"},{"type":"function","name":"balanceOf","inputs":[{"name":"owner","type":"address","internalType":"address"}],"outputs":[{"name":"","type":"uint256","internalType":"uint256"}],"stateMutability":"view"},{"type":"function","name":"getApproved","inputs":[{"name":"","type":"uint256","internalType":"uint256"}],"outputs":[{"name":"","type":"address","internalType":"address"}],"stateMutability":"view"},{"type":"function","name":"initialize","inputs":[{"name":"_name","type":"string","internalType":"string"},{"name":"_symbol","type":"string","internalType":"string"}],"outputs":[],"stateMutability":"nonpayable"},{"type":"function","name":"isApprovedForAll","inputs":[{"name":"","type":"address","internalType":"address"},{"name":"","type":"address","internalType":"address"}],"outputs":[{"name":"","type":"bool","internalType":"bool"}],"stateMutability":"view"},{"type":"function","name":"name","inputs":[],"outputs":[{"name":"","type":"string","internalType":"string"}],"stateMutability":"view"},{"type":"function","name":"ownerOf","inputs":[{"name":"id","type":"uint256","internalType":"uint256"}],"outputs":[{"name":"owner","type":"address","internalType":"address"}],"stateMutability":"view"},{"type":"function","name":"safeTransferFrom","inputs":[{"name":"from","type":"address","internalType":"address"},{"name":"to","type":"address","internalType":"address"},{"name":"id","type":"uint256","internalType":"uint256"}],"outputs":[],"stateMutability":"nonpayable"},{"type":"function","name":"safeTransferFrom","inputs":[{"name":"from","type":"address","internalType":"address"},{"name":"to","type":"address","internalType":"address"},{"name":"id","type":"uint256","internalType":"uint256"},{"name":"data","type":"bytes","internalType":"bytes"}],"outputs":[],"stateMutability":"nonpayable"},{"type":"function","name":"setApprovalForAll","inputs":[{"name":"operator","type":"address","internalType":"address"},{"name":"approved","type":"bool","internalType":"bool"}],"outputs":[],"stateMutability":"nonpayable"},{"type":"function","name":"supportsInterface","inputs":[{"name":"interfaceId","type":"bytes4","internalType":"bytes4"}],"outputs":[{"name":"","type":"bool","internalType":"bool"}],"stateMutability":"pure"},{"type":"function","name":"symbol","inputs":[],"outputs":[{"name":"","type":"string","internalType":"string"}],"stateMutability":"view"},{"type":"function","name":"tokenURI","inputs":[{"name":"id","type":"uint256","internalType":"uint256"}],"outputs":[{"name":"","type":"string","internalType":"string"}],"stateMutability":"view"},{"type":"function","name":"transferFrom","inputs":[{"name":"from","type":"address","internalType":"address"},{"name":"to","type":"address","internalType":"address"},{"name":"id","type":"uint256","internalType":"uint256"}],"outputs":[],"stateMutability":"nonpayable"},{"type":"event","name":"Approval","inputs":[{"name":"owner","type":"address","indexed":true,"internalType":"address"},{"name":"spender","type":"address","indexed":true,"internalType":"address"},{"name":"id","type":"uint256","indexed":true,"internalType":"uint256"}],"anonymous":false},{"type":"event","name":"ApprovalForAll","inputs":[{"name":"owner","type":"address","indexed":true,"internalType":"address"},{"name":"operator","type":"address","indexed":true,"internalType":"address"},{"name":"approved","type":"bool","indexed":false,"internalType":"bool"}],"anonymous":false},{"type":"event","name":"Transfer","inputs":[{"name":"from","type":"address","indexed":true,"internalType":"address"},{"name":"to","type":"address","indexed":true,"internalType":"address"},{"name":"id","type":"uint256","indexed":true,"internalType":"uint256"}],"anonymous":false}],"bytecode":{"object":"0x60808060405234610016576113a0908161001c8239f35b600080fdfe608060408181526004918236101561001657600080fd5b600092833560e01c91826301ffc9a714610d3a5750816306fdde0314610c92578163081812fc14610c55578163095ea7b314610b8557816323b872dd14610b6d57816342842e0e14610a6e5781634cd88b761461060f5781636352211e1461056757816370a08231146104bc57816395d89b41146103b7578163a22cb46514610306578163b88d4fde1461019757508063c87b56dd1461011c5763e985e9c5146100bf57600080fd5b3461011857806003193601126101185760ff816020936100dd610f2a565b6100e5610f52565b73ffffffffffffffffffffffffffffffffffffffff91821683526005875283832091168252855220549151911615158152f35b5080fd5b50346101185760208060031936011261019357918151928391818352606051918281850152815b83811061017e575050828201840152601f017fffffffffffffffffffffffffffffffffffffffffffffffffffffffffffffffe0168101030190f35b60808101518782018701528694508101610143565b8280fd5b905034610193576080600319360112610193576101b2610f2a565b916101bb610f52565b916044359260643567ffffffffffffffff81116103025736602382011215610302576101f09036906024818601359101610fb7565b906101fc85828861109f565b803b1594878615610214575b61021187611305565b80f35b6020949650859761028396518097819682957f150b7a02000000000000000000000000000000000000000000000000000000009b8c8552339085015273ffffffffffffffffffffffffffffffffffffffff80951660248501526044840152608060648401526084830190610ecc565b0393165af19283156102f95750610211927fffffffff000000000000000000000000000000000000000000000000000000009185916102cb575b501614388080808087610208565b6102ec915060203d81116102f2575b6102e48183610e5c565b8101906112cd565b386102bd565b503d6102da565b513d85823e3d90fd5b8680fd5b505034610118578060031936011261011857610320610f2a565b90602435908115158092036103b357338452600560205273ffffffffffffffffffffffffffffffffffffffff8185209316928385526020528084207fffffffffffffffffffffffffffffffffffffffffffffffffffffffffffffff0081541660ff8416179055519081527f17307eab39ab6107e8899845ad3d59bd9653f200f220920489ca2b5937696c3160203392a380f35b8380fd5b5050346101185781600319360112610118578051908260018054916103db83610e09565b80865292828116908115610476575060011461041a575b50505061040482610416940383610e5c565b51918291602083526020830190610ecc565b0390f35b94508085527fb10e2d527612073b26eecdfd717e6a320cf44b4afac2b0732d9fcbe2b7fa0cf65b82861061045e5750505061040482602061041695820101946103f2565b80546020878701810191909152909501948101610441565b6104169750869350602092506104049491507fffffffffffffffffffffffffffffffffffffffffffffffffffffffffffffff001682840152151560051b820101946103f2565b839150346101185760206003193601126101185773ffffffffffffffffffffffffffffffffffffffff6104ed610f2a565b1690811561050a5760208480858581526003845220549051908152f35b60649060208551917f08c379a0000000000000000000000000000000000000000000000000000000008352820152600c60248201527f5a45524f5f4144445245535300000000000000000000000000000000000000006044820152fd5b9050823461060c57602060031936011261060c578273ffffffffffffffffffffffffffffffffffffffff918335815260026020522054169081156105af575060209151908152f35b60649060208451917f08c379a0000000000000000000000000000000000000000000000000000000008352820152600a60248201527f4e4f545f4d494e544544000000000000000000000000000000000000000000006044820152fd5b80fd5b8391503461011857826003193601126101185767ffffffffffffffff81358181116103b357610641903690840161101c565b91602435828111610a6a57610659903690830161101c565b9460ff60065416610a0d575082518281116109e157806106798654610e09565b94601f95868111610976575b506020908683116001146108bb5787926108b0575b50507fffffffffffffffffffffffffffffffffffffffffffffffffffffffffffffffff8260011b9260031b1c19161784555b845191821161088457506001916106e38354610e09565b818111610822575b50602090821160011461076b57839482939492610760575b50507fffffffffffffffffffffffffffffffffffffffffffffffffffffffffffffffff82841b9260031b1c19161781555b7fffffffffffffffffffffffffffffffffffffffffffffffffffffffffffffff00600654161760065580f35b015190508480610703565b8284527fb10e2d527612073b26eecdfd717e6a320cf44b4afac2b0732d9fcbe2b7fa0cf6907fffffffffffffffffffffffffffffffffffffffffffffffffffffffffffffffe08316855b81811061080c57509583859697106107d5575b505050811b018155610734565b01517fffffffffffffffffffffffffffffffffffffffffffffffffffffffffffffffff60f88460031b161c191690558480806107c8565b87830151845592850192602092830192016107b5565b8385527fb10e2d527612073b26eecdfd717e6a320cf44b4afac2b0732d9fcbe2b7fa0cf68280850160051c8201926020861061087b575b0160051c019084905b8281106108705750506106eb565b868155018490610862565b92508192610859565b8360416024927f4e487b7100000000000000000000000000000000000000000000000000000000835252fd5b01519050878061069a565b8780527f290decd9548b62a8d60345a988386fc84ba6bc95484008f6362f93160ef3e563927fffffffffffffffffffffffffffffffffffffffffffffffffffffffffffffffe016885b81811061095e5750908460019594939210610927575b505050811b0184556106cc565b01517fffffffffffffffffffffffffffffffffffffffffffffffffffffffffffffffff60f88460031b161c1916905587808061091a565b92936020600181928786015181550195019301610904565b9091508680527f290decd9548b62a8d60345a988386fc84ba6bc95484008f6362f93160ef3e5638680850160051c820192602086106109d8575b9085949392910160051c01905b8181106109ca5750610685565b8881558493506001016109bd565b925081926109b0565b6024856041847f4e487b7100000000000000000000000000000000000000000000000000000000835252fd5b90602060649251917f08c379a0000000000000000000000000000000000000000000000000000000008352820152601360248201527f414c52454144595f494e495449414c495a4544000000000000000000000000006044820152fd5b8480fd5b90503461019357610a7e36610f75565b929190610a8c84828461109f565b803b15938415610aa1575b8661021186611305565b60209293945060a49087875195869485937f150b7a0200000000000000000000000000000000000000000000000000000000998a8652339086015273ffffffffffffffffffffffffffffffffffffffff8093166024860152604485015260806064850152826084850152165af19283156102f95750610211927fffffffff00000000000000000000000000000000000000000000000000000000918591610b4f575b50161438808080610a97565b610b67915060203d81116102f2576102e48183610e5c565b38610b43565b833461060c57610211610b7f36610f75565b9161109f565b905034610193578160031936011261019357610b9f610f2a565b9060243592838552600260205273ffffffffffffffffffffffffffffffffffffffff90818187205416928333148015610c36575b610bdc9061103a565b8587526020528520921691827fffffffffffffffffffffffff00000000000000000000000000000000000000008254161790557f8c5be1e5ebec7d5bd14f71427d1e84f3dd0314c0f7b2291e5b200ac8c7c3b9258480a480f35b508387526005602090815282882033895290528187205460ff16610bd3565b90503461019357602060031936011261019357816020938273ffffffffffffffffffffffffffffffffffffffff9335825285522054169051908152f35b505034610118578160031936011261011857805190828054610cb381610e09565b808552916001918083169081156104765750600114610cde5750505061040482610416940383610e5c565b80809650527f290decd9548b62a8d60345a988386fc84ba6bc95484008f6362f93160ef3e5635b828610610d225750505061040482602061041695820101946103f2565b80546020878701810191909152909501948101610d05565b84913461019357602060031936011261019357357fffffffff00000000000000000000000000000000000000000000000000000000811680910361019357602092507f01ffc9a7000000000000000000000000000000000000000000000000000000008114908115610ddf575b8115610db5575b5015158152f35b7f5b5e139f0000000000000000000000000000000000000000000000000000000091501483610dae565b7f80ac58cd0000000000000000000000000000000000000000000000000000000081149150610da7565b90600182811c92168015610e52575b6020831014610e2357565b7f4e487b7100000000000000000000000000000000000000000000000000000000600052602260045260246000fd5b91607f1691610e18565b90601f7fffffffffffffffffffffffffffffffffffffffffffffffffffffffffffffffe0910116810190811067ffffffffffffffff821117610e9d57604052565b7f4e487b7100000000000000000000000000000000000000000000000000000000600052604160045260246000fd5b919082519283825260005b848110610f165750507fffffffffffffffffffffffffffffffffffffffffffffffffffffffffffffffe0601f8460006020809697860101520116010190565b602081830181015184830182015201610ed7565b6004359073ffffffffffffffffffffffffffffffffffffffff82168203610f4d57565b600080fd5b6024359073ffffffffffffffffffffffffffffffffffffffff82168203610f4d57565b6003196060910112610f4d5773ffffffffffffffffffffffffffffffffffffffff906004358281168103610f4d57916024359081168103610f4d579060443590565b92919267ffffffffffffffff8211610e9d5760405191610fff60207fffffffffffffffffffffffffffffffffffffffffffffffffffffffffffffffe0601f8401160184610e5c565b829481845281830111610f4d578281602093846000960137010152565b9080601f83011215610f4d5781602061103793359101610fb7565b90565b1561104157565b60646040517f08c379a000000000000000000000000000000000000000000000000000000000815260206004820152600e60248201527f4e4f545f415554484f52495a45440000000000000000000000000000000000006044820152fd5b600083815260206002815273ffffffffffffffffffffffffffffffffffffffff93604090858083862054169516948503611270578516948515611213576110f8908533149081156111f6575b81156111e0575b5061103a565b8383526003825280832080549081156111b3577fffffffffffffffffffffffffffffffffffffffffffffffffffffffffffffffff8092019055858452600383528184209081549081146111b35760010190558583526002825280832080547fffffffffffffffffffffffff0000000000000000000000000000000000000000908116871790915560049092528220805490911690557fddf252ad1be2c89b69c2b068fc378daa952ba7f163c4a11628f55a4df523b3ef9080a4565b6024857f4e487b710000000000000000000000000000000000000000000000000000000081526011600452fd5b90508785526004845282852054163314386110f2565b8686526005855283862033875285528386205460ff1691506110eb565b6064838351907f08c379a00000000000000000000000000000000000000000000000000000000082526004820152601160248201527f494e56414c49445f524543495049454e540000000000000000000000000000006044820152fd5b6064838351907f08c379a00000000000000000000000000000000000000000000000000000000082526004820152600a60248201527f57524f4e475f46524f4d000000000000000000000000000000000000000000006044820152fd5b90816020910312610f4d57517fffffffff0000000000000000000000000000000000000000000000000000000081168103610f4d5790565b1561130c57565b60646040517f08c379a000000000000000000000000000000000000000000000000000000000815260206004820152601060248201527f554e534146455f524543495049454e54000000000000000000000000000000006044820152fdfea264697066735822122062a899db734a70c6b1f9e7f78ddb44db2006240b5c9e864c422b6be5aa18e50f64736f6c63430008140033","linkReferences":{}},"methodIdentifiers":{"approve(address,uint256)":"095ea7b3","balanceOf(address)":"70a08231","getApproved(uint256)":"081812fc","initialize(string,string)":"4cd88b76","isApprovedForAll(address,address)":"e985e9c5","name()":"06fdde03","ownerOf(uint256)":"6352211e","safeTransferFrom(address,address,uint256)":"42842e0e","safeTransferFrom(address,address,uint256,bytes)":"b88d4fde","setApprovalForAll(address,bool)":"a22cb465","supportsInterface(bytes4)":"01ffc9a7","symbol()":"95d89b41","tokenURI(uint256)":"c87b56dd","transferFrom(address,address,uint256)":"23b872dd"},"id":47}