{"abi":[{"type":"constructor","inputs":[{"name":"_firstMidnight","type":"uint48","internalType":"uint48"},{"name":"_gov","type":"address","internalType":"address"},{"name":"_rewardToken","type":"address","internalType":"address"},{"name":"_feeToken","type":"address","internalType":"address"},{"name":"_swapRouter","type":"address","internalType":"address"},{"name":"_stagingVault","type":"address","internalType":"address"},{"name":"_ve","type":"address","internalType":"address"},{"name":"_baseEmissionRate","type":"uint256","internalType":"uint256"},{"name":"_weth","type":"address","internalType":"address"}],"stateMutability":"nonpayable"},{"type":"function","name":"MULTIPLIER","inputs":[],"outputs":[{"name":"","type":"uint256","internalType":"uint256"}],"stateMutability":"view"},{"type":"function","name":"ONE_DAY","inputs":[],"outputs":[{"name":"","type":"uint48","internalType":"uint48"}],"stateMutability":"view"},{"type":"function","name":"WETH","inputs":[],"outputs":[{"name":"","type":"address","internalType":"address"}],"stateMutability":"view"},{"type":"function","name":"baseEmissionRate","inputs":[],"outputs":[{"name":"","type":"uint256","internalType":"uint256"}],"stateMutability":"view"},{"type":"function","name":"baseEmissionRateAt","inputs":[{"name":"_timestamp","type":"uint256","internalType":"uint256"}],"outputs":[{"name":"","type":"uint256","internalType":"uint256"}],"stateMutability":"view"},{"type":"function","name":"calculateBaseRewards","inputs":[{"name":"tokenId","type":"uint256","internalType":"uint256"}],"outputs":[{"name":"","type":"uint256","internalType":"uint256"}],"stateMutability":"view"},{"type":"function","name":"calculateLiquidityRewards","inputs":[{"name":"_tokenId","type":"uint256","internalType":"uint256"},{"name":"_tokenSymbol","type":"string","internalType":"string"}],"outputs":[{"name":"","type":"uint256","internalType":"uint256"}],"stateMutability":"view"},{"type":"function","name":"changeTheiaGov","inputs":[{"name":"newGovTHEIA","type":"address","internalType":"address"}],"outputs":[{"name":"","type":"bool","internalType":"bool"}],"stateMutability":"nonpayable"},{"type":"function","name":"claimBaseRewards","inputs":[{"name":"_tokenId","type":"uint256","internalType":"uint256"}],"outputs":[{"name":"","type":"uint256","internalType":"uint256"}],"stateMutability":"nonpayable"},{"type":"function","name":"claimLiquidityRewards","inputs":[{"name":"_tokenId","type":"uint256","internalType":"uint256"},{"name":"_tokenSymbol","type":"string","internalType":"string"}],"outputs":[{"name":"","type":"uint256","internalType":"uint256"}],"stateMutability":"nonpayable"},{"type":"function","name":"feeToken","inputs":[],"outputs":[{"name":"","type":"address","internalType":"address"}],"stateMutability":"view"},{"type":"function","name":"genesis","inputs":[],"outputs":[{"name":"","type":"uint48","internalType":"uint48"}],"stateMutability":"view"},{"type":"function","name":"getFeeToken","inputs":[],"outputs":[{"name":"","type":"address","internalType":"address"}],"stateMutability":"view"},{"type":"function","name":"getRewardToken","inputs":[],"outputs":[{"name":"","type":"address","internalType":"address"}],"stateMutability":"view"},{"type":"function","name":"getTheiaGov","inputs":[],"outputs":[{"name":"","type":"address","internalType":"address"}],"stateMutability":"view"},{"type":"function","name":"govTHEIA","inputs":[],"outputs":[{"name":"","type":"address","internalType":"address"}],"stateMutability":"view"},{"type":"function","name":"latestMidnight","inputs":[],"outputs":[{"name":"","type":"uint48","internalType":"uint48"}],"stateMutability":"view"},{"type":"function","name":"liquidityEmissionRate","inputs":[{"name":"_tokenSymbol","type":"string","internalType":"string"},{"name":"_chainIdStr","type":"string","internalType":"string"},{"name":"_timeStamp","type":"uint256","internalType":"uint256"}],"outputs":[{"name":"","type":"uint256","internalType":"uint256"}],"stateMutability":"view"},{"type":"function","name":"receiveFees","inputs":[{"name":"_token","type":"address","internalType":"address"},{"name":"_amount","type":"uint256","internalType":"uint256"},{"name":"_fromChainId","type":"uint256","internalType":"uint256"}],"outputs":[],"stateMutability":"nonpayable"},{"type":"function","name":"rewardToken","inputs":[],"outputs":[{"name":"","type":"address","internalType":"address"}],"stateMutability":"view"},{"type":"function","name":"setBaseEmissionRate","inputs":[{"name":"_baseEmissionRate","type":"uint256","internalType":"uint256"}],"outputs":[],"stateMutability":"nonpayable"},{"type":"function","name":"setFeeToken","inputs":[{"name":"_feeToken","type":"address","internalType":"address"},{"name":"_recipient","type":"address","internalType":"address"}],"outputs":[],"stateMutability":"nonpayable"},{"type":"function","name":"setRewardToken","inputs":[{"name":"_rewardToken","type":"address","internalType":"address"},{"name":"_firstMidnight","type":"uint48","internalType":"uint48"},{"name":"_recipient","type":"address","internalType":"address"}],"outputs":[],"stateMutability":"nonpayable"},{"type":"function","name":"setSwapEnabled","inputs":[{"name":"_enabled","type":"bool","internalType":"bool"}],"outputs":[],"stateMutability":"nonpayable"},{"type":"function","name":"swapFeeToReward","inputs":[{"name":"_amountIn","type":"uint256","internalType":"uint256"},{"name":"_deadline","type":"uint256","internalType":"uint256"},{"name":"_uniFeeWETH","type":"uint256","internalType":"uint256"},{"name":"_uniFeeReward","type":"uint256","internalType":"uint256"}],"outputs":[{"name":"_amountOut","type":"uint256","internalType":"uint256"}],"stateMutability":"nonpayable"},{"type":"function","name":"swapRouter","inputs":[],"outputs":[{"name":"","type":"address","internalType":"address"}],"stateMutability":"view"},{"type":"function","name":"updateLatestLiquidityMidnight","inputs":[{"name":"_tokenId","type":"uint256","internalType":"uint256"},{"name":"_tokenSymbol","type":"string","internalType":"string"}],"outputs":[],"stateMutability":"nonpayable"},{"type":"function","name":"updateLatestMidnight","inputs":[],"outputs":[],"stateMutability":"nonpayable"},{"type":"function","name":"withdrawToken","inputs":[{"name":"_token","type":"address","internalType":"address"},{"name":"_recipient","type":"address","internalType":"address"},{"name":"_amount","type":"uint256","internalType":"uint256"}],"outputs":[],"stateMutability":"nonpayable"},{"type":"event","name":"BaseEmissionRateChange","inputs":[{"name":"_oldBaseEmissionRate","type":"uint256","indexed":false,"internalType":"uint256"},{"name":"_newBaseEmissionRate","type":"uint256","indexed":false,"internalType":"uint256"}],"anonymous":false},{"type":"event","name":"Claim","inputs":[{"name":"_tokenId","type":"uint256","indexed":true,"internalType":"uint256"},{"name":"_claimedReward","type":"uint256","indexed":false,"internalType":"uint256"},{"name":"_rewardToken","type":"address","indexed":true,"internalType":"address"}],"anonymous":false},{"type":"event","name":"FeeTokenChange","inputs":[{"name":"_oldFeeToken","type":"address","indexed":true,"internalType":"address"},{"name":"_newFeeToken","type":"address","indexed":true,"internalType":"address"}],"anonymous":false},{"type":"event","name":"FeesReceived","inputs":[{"name":"_token","type":"address","indexed":true,"internalType":"address"},{"name":"_amount","type":"uint256","indexed":false,"internalType":"uint256"},{"name":"_fromChainId","type":"uint256","indexed":true,"internalType":"uint256"}],"anonymous":false},{"type":"event","name":"NodeRewardThresholdChange","inputs":[{"name":"_oldMinimumThreshold","type":"uint256","indexed":false,"internalType":"uint256"},{"name":"_newMinimumThreshold","type":"uint256","indexed":false,"internalType":"uint256"}],"anonymous":false},{"type":"event","name":"RewardTokenChange","inputs":[{"name":"_oldRewardToken","type":"address","indexed":true,"internalType":"address"},{"name":"_newRewardToken","type":"address","indexed":true,"internalType":"address"}],"anonymous":false},{"type":"event","name":"Swap","inputs":[{"name":"_feeToken","type":"address","indexed":true,"internalType":"address"},{"name":"_rewardToken","type":"address","indexed":true,"internalType":"address"},{"name":"_amountIn","type":"uint256","indexed":false,"internalType":"uint256"},{"name":"_amountOut","type":"uint256","indexed":false,"internalType":"uint256"}],"anonymous":false},{"type":"event","name":"Withdrawal","inputs":[{"name":"_token","type":"address","indexed":true,"internalType":"address"},{"name":"_recipient","type":"address","indexed":true,"internalType":"address"},{"name":"_amount","type":"uint256","indexed":false,"internalType":"uint256"}],"anonymous":false},{"type":"error","name":"AddressEmptyCode","inputs":[{"name":"target","type":"address","internalType":"address"}]},{"type":"error","name":"AddressInsufficientBalance","inputs":[{"name":"account","type":"address","internalType":"address"}]},{"type":"error","name":"CheckpointUnorderedInsertion","inputs":[]},{"type":"error","name":"ERC6372InconsistentClock","inputs":[]},{"type":"error","name":"FailedInnerCall","inputs":[]},{"type":"error","name":"FeesAlreadyReceivedFromChain","inputs":[]},{"type":"error","name":"InsufficientContractBalance","inputs":[{"name":"_balance","type":"uint256","internalType":"uint256"},{"name":"_required","type":"uint256","internalType":"uint256"}]},{"type":"error","name":"NoUnclaimedRewards","inputs":[]},{"type":"error","name":"SafeCastOverflowedUintDowncast","inputs":[{"name":"bits","type":"uint8","internalType":"uint8"},{"name":"value","type":"uint256","internalType":"uint256"}]},{"type":"error","name":"SafeERC20FailedOperation","inputs":[{"name":"token","type":"address","internalType":"address"}]}],"bytecode":{"object":"0x60a060405234620000c657620036a03881900360a0601f8201601f19168101906001600160401b03821190821017620000cb5761012092829160405260a03912620000c657620000a66200005262000125565b6200005c6200013b565b6200006662000152565b6200007062000169565b6200007a62000181565b6200008462000199565b916200008f620001b1565b9361018051956200009f620001c9565b9762000207565b604051612f2090816200076082396080518181816117bd01526119f00152f35b600080fd5b634e487b7160e01b600052604160045260246000fd5b601f909101601f19168101906001600160401b03821190821017620000cb57604052565b60408051919082016001600160401b03811183821017620000cb57604052565b60a0519065ffffffffffff82168203620000c657565b60c051906001600160a01b0382168203620000c657565b60e051906001600160a01b0382168203620000c657565b61010051906001600160a01b0382168203620000c657565b61012051906001600160a01b0382168203620000c657565b61014051906001600160a01b0382168203620000c657565b61016051906001600160a01b0382168203620000c657565b6101a051906001600160a01b0382168203620000c657565b90816020910312620000c657518015158103620000c65790565b6040513d6000823e3d90fd5b620003159295620002cf6200034c9896620002ad60009c976200027060209d97620002f49760006bffffffffffff00000000000090549160301b16906bffffffffffff00000000000019161760005560018060a01b031660018060a01b03196002541617600255565b600380546001600160a01b0319166001600160a01b038d16179055600480546001600160a01b0319166001600160a01b0392909216919091179055565b600580546001600160a01b0319166001600160a01b0392909216919091179055565b600080546001600160601b031660609290921b6001600160601b031916919091179055565b600180546001600160a01b0319166001600160a01b038616179055620003be565b60805260405163095ea7b360e01b81526001600160a01b039091166004820152600019602482015293849283919082906044820190565b03926001600160a01b03165af180156200039857620003685750565b6200038d9060203d811162000390575b620003848183620000e1565b810190620001e1565b50565b503d62000378565b620001fb565b90816020910312620000c6575165ffffffffffff81168103620000c65790565b662386f26fc100008111620004a857620003d8906200072b565b6001546004906020906200040390620003f7906001600160a01b031681565b6001600160a01b031690565b6040516324776b7d60e21b815292839182905afa91821562000398577f89dea46f88a595a10fa91a5635fb021aeb7a5f569616568d6bbf4ad423879afb92620004569260009162000473575b50620005e8565b604080516001600160d01b039384168152919092166020820152a1565b62000499915060203d8111620004a0575b620004908183620000e1565b8101906200039e565b386200044f565b503d62000484565b60405162461bcd60e51b815260206004820152603760248201527f43616e6e6f74207365742062617365207265776172647320706572207665706f60448201527f7765722d64617920686967686572207468616e2031252e0000000000000000006064820152608490fd5b6006549068010000000000000000821015620000cb5760018201806006558210156200057557600660005280516020919091015160301b65ffffffffffff191665ffffffffffff91909116176000805160206200368083398151915290910155565b634e487b7160e01b600052603260045260246000fd5b6000198101919082116200059b57565b634e487b7160e01b600052601160045260246000fd5b604080519192919081016001600160401b03811182821017620000cb57604052915465ffffffffffff8116835260301c6020830152565b600654919291908115620006fc57620006286200062262000609846200058b565b6006600052600080516020620036808339815191520190565b620005b1565b805165ffffffffffff8381169491168410620006ea5785602093620006a895620006676200065c865165ffffffffffff1690565b65ffffffffffff1690565b03620006ac575062000681620006096200069a936200058b565b9065ffffffffffff82549181199060301b169116179055565b01516001600160d01b031690565b9190565b9050620006e49150620006d0620006c262000105565b65ffffffffffff9092168252565b6001600160d01b0387168185015262000513565b6200069a565b604051632520601d60e01b8152600490fd5b62000725915062000710620006c262000105565b6001600160d01b038416602082015262000513565b60009190565b6001600160d01b039081811162000740571690565b604490604051906306dfcc6560e41b825260d060048301526024820152fdfe6080604052600436101561001257600080fd5b60003560e01c806301e33667146101d857806302cdc747146101d3578063059f8b16146101ce57806311e4a779146101bf57806311f0d3e5146101c9578063131e29ce146101c45780631a2c1b07146101bf57806329eb4d1d146101ba5780633c1f819c146101b55780633cc64d9c146101b05780634b34c4a2146101ab578063647846a51461017957806367546e1e146101a657806369940d791461016057806370cf5e2d146101a157806370e13aa51461019c578063863e76db146101975780638830f29214610192578063a7f0b3de1461018d578063a97e237e14610188578063ad5c464814610183578063c31c9c071461017e578063ca709a2514610179578063d061055a14610174578063e01af92c1461016f578063e78c1b1b1461016a578063f317ca3d14610165578063f7c618c1146101605763f8274c0d1461015b57600080fd5b611d0c565b6112f3565b611c65565b611b00565b611a78565b611a48565b611192565b611a14565b6119c3565b6115f5565b6115cc565b6114f6565b6114d8565b61134d565b611327565b6111c6565b610e2e565b610b2b565b610938565b6105ab565b610300565b610538565b610344565b6102dd565b61028c565b610200565b73ffffffffffffffffffffffffffffffffffffffff8116036101fb57565b600080fd5b346101fb5760606003193601126101fb5760043561021d816101dd565b602435610229816101dd565b6044359073ffffffffffffffffffffffffffffffffffffffff90816002541633036101fb57817f2717ead6b9200dd235aad468c9809ea400fe33ac69b5bfaa6d3e90fc922b6398928261027f8660209589612774565b60405195865216941692a3005b346101fb5760006003193601126101fb576102db6102a861204e565b65ffffffffffff167fffffffffffffffffffffffffffffffffffffffffffffffffffff0000000000006000541617600055565b005b346101fb5760006003193601126101fb576020604051670de0b6b3a76400008152f35b346101fb5760006003193601126101fb57602073ffffffffffffffffffffffffffffffffffffffff60025416604051908152f35b65ffffffffffff8116036101fb57565b346101fb5760606003193601126101fb57600435610361816101dd565b60243561036d81610334565b6044359161037a836101dd565b73ffffffffffffffffffffffffffffffffffffffff91826002541633036101fb576104416103bd60035473ffffffffffffffffffffffffffffffffffffffff1690565b916104038473ffffffffffffffffffffffffffffffffffffffff167fffffffffffffffffffffffff00000000000000000000000000000000000000006003541617600355565b7fffffffffffffffffffffffffffffffffffffffff000000000000ffffffffffff6bffffffffffff0000000000006000549260301b16911617600055565b6040517f70a08231000000000000000000000000000000000000000000000000000000008152306004820152838216949091602083602481895afa9283156105335786928691600095610503575b50846104c1575b858216847fc8772cfc01dc38bd0345c230cbb3a37c1f2036fb78f18dd6b45036be0ec77c41600080a3005b6104ed85827f2717ead6b9200dd235aad468c9809ea400fe33ac69b5bfaa6d3e90fc922b639895612774565b6040519485521692602090a33883818481610496565b61052591955060203d811161052c575b61051d81836107fe565b810190611d32565b933861048f565b503d610513565b611d41565b346101fb5760206003193601126101fb57600435610555816101dd565b6002549073ffffffffffffffffffffffffffffffffffffffff80831633036101fb577fffffffffffffffffffffffff00000000000000000000000000000000000000009116911617600255602060405160018152f35b346101fb576020806003193601126101fb576004908135906105cb61204e565b926105ef6105e3846000526007602052604060002090565b5465ffffffffffff1690565b9065ffffffffffff90818316156107b8575b929194906106516106266106158885612003565b65ffffffffffff6201518091160490565b928261064961063e8a610638886123df565b94612003565b65ffffffffffff1690565b9116146123fb565b600094859061065f8861201b565b9560019889956106a2610689610689895473ffffffffffffffffffffffffffffffffffffffff1690565b73ffffffffffffffffffffffffffffffffffffffff1690565b9a5b6106b8575b6040518a8152602090f35b0390f35b9091929394959697986106d661063e6106d0846123df565b85612034565b878b169081116107b1578b908a60405180937fe0514aba0000000000000000000000000000000000000000000000000000000082528180610727868d8d840160209093929193604081019481520152565b03915afa91821561053357600092610792575b508115801561078a575b61077c57916107626107689261075c61076e95612530565b90612b56565b90612523565b9961201b565b9796959493929190866106a4565b5061076e919a96509561201b565b508715610744565b6107aa9192508b3d8d1161052c5761051d81836107fe565b903861073a565b50986106a9565b60005490925060301c65ffffffffffff1691610601565b7f4e487b7100000000000000000000000000000000000000000000000000000000600052604160045260246000fd5b90601f7fffffffffffffffffffffffffffffffffffffffffffffffffffffffffffffffe0910116810190811067ffffffffffffffff82111761083f57604052565b6107cf565b604051906040820182811067ffffffffffffffff82111761083f57604052565b6040519060a0820182811067ffffffffffffffff82111761083f57604052565b67ffffffffffffffff811161083f57601f017fffffffffffffffffffffffffffffffffffffffffffffffffffffffffffffffe01660200190565b81601f820112156101fb578035906108d582610884565b926108e360405194856107fe565b828452602083830101116101fb57816000926020809301838601378301015290565b9060406003198301126101fb57600435916024359067ffffffffffffffff82116101fb57610935916004016108be565b90565b346101fb5761094636610905565b9061096c61068961068960015473ffffffffffffffffffffffffffffffffffffffff1690565b6040517f6352211e00000000000000000000000000000000000000000000000000000000815260048101839052602093918490829060249082905afa8015610533576109d891600091610afe575b5073ffffffffffffffffffffffffffffffffffffffff163314611d62565b6109e061204e565b90610a0461063e6105e36109fe866000526008602052604060002090565b84611e10565b65ffffffffffff831614610ad45782610a22859383610a569661270d565b60405193849283927f3cc64d9c00000000000000000000000000000000000000000000000000000000845260048401611e79565b0381305afa908115610533576106b492600092610ab7575b5050610a7b811515611e90565b610aa78133610aa261068960035473ffffffffffffffffffffffffffffffffffffffff1690565b612b6d565b6040519081529081906020820190565b610acd9250803d1061052c5761051d81836107fe565b3880610a6e565b60046040517f3a5a2b21000000000000000000000000000000000000000000000000000000008152fd5b610b1e9150853d8711610b24575b610b1681836107fe565b810190611d4d565b386109ba565b503d610b0c565b346101fb57610b3936610905565b610b4161204e565b906000918254928360601c9360409485517f0bd47a78000000000000000000000000000000000000000000000000000000008152868180610b85896004830161215e565b0381855afa801561053357610ba1918591610e00575b5061216f565b8551957fb8e9bbe8000000000000000000000000000000000000000000000000000000008752838780610bd7896004830161215e565b0381855afa96871561053357610638976060918691610dde575b50015197610c156105e3610c0f836000526008602052604060002090565b89611e10565b9565ffffffffffff9485881615610dcf575b50808561064961063e8a610c4161061582610c4898612003565b9d8e6123df565b84610c528761201b565b985b610c6961063e610c63836123df565b8a612034565b95808b16968711610dc55787925b8c8051851015610d9f5788610c8b9161248d565b51908651907f6a7df3200000000000000000000000000000000000000000000000000000000082528c8280610cc98d60209788958d600486016124a6565b03818c5afa928315610533578f8e908c948e96610d76575b5090610cee85849361248d565b5190610d268c5196879384937f3915606f000000000000000000000000000000000000000000000000000000008552600485016124d9565b03818d5afa801561053357610d5194610d4b94610762938f93610d57575b5050612502565b93612431565b92610c77565b610d6e929350803d1061052c5761051d81836107fe565b903880610d44565b839291965085610d95610cee92853d871161052c5761051d81836107fe565b9792935050610ce1565b5098909650610c699250610c63610db961063e939c61201b565b9b925050979150610c54565b8451838152602090f35b60301c85169650610c48610c27565b610dfa91503d8088833e610df281836107fe565b810190612333565b38610bf1565b610e209150883d8a11610e27575b610e1881836107fe565b810190612139565b5038610b9b565b503d610e0e565b346101fb5760606003193601126101fb576004803590610e4d826101dd565b6024359060443592610e76610689835473ffffffffffffffffffffffffffffffffffffffff1690565b9273ffffffffffffffffffffffffffffffffffffffff82169384148015611163575b610ea190611d2b565b610eb5856000526009602052604060002090565b92610edb61068961068960015473ffffffffffffffffffffffffffffffffffffffff1690565b9260405194857f91ddadf4000000000000000000000000000000000000000000000000000000009586825281856020998a935afa801561053357600192610f3c92600092611144575b509065ffffffffffff16600052602052604060002090565b015461111b57604080517f23b872dd0000000000000000000000000000000000000000000000000000000081523384820190815230602082015291820185905290869082908190606001038160008b5af1801561053357610fa5916000916110ee575b50611d2b565b610fcc610fb0610844565b73ffffffffffffffffffffffffffffffffffffffff9092168252565b828582015284610fe6886000526009602052604060002090565b9461100c61068961068960015473ffffffffffffffffffffffffffffffffffffffff1690565b936040518095819382525afa948515610533577f213e72af0d3613bd643cff3059f872c1015e6541624e37872bf95eefbaf220a8956110ba95610aa79461106e936000936110bf575b50509065ffffffffffff16600052602052604060002090565b90602060019173ffffffffffffffffffffffffffffffffffffffff8151167fffffffffffffffffffffffff00000000000000000000000000000000000000008554161784550151910155565b0390a3005b6110df929350803d106110e7575b6110d781836107fe565b810190611f1b565b903880611055565b503d6110cd565b61110e9150873d8911611114575b61110681836107fe565b810190611f30565b38610f9f565b503d6110fc565b506040517f5cae71b8000000000000000000000000000000000000000000000000000000008152fd5b61115c919250893d8b116110e7576110d781836107fe565b9038610f24565b50610ea161118961068960035473ffffffffffffffffffffffffffffffffffffffff1690565b85149050610e98565b346101fb5760006003193601126101fb57602073ffffffffffffffffffffffffffffffffffffffff60045416604051908152f35b346101fb5760206003193601126101fb5760043573ffffffffffffffffffffffffffffffffffffffff6002541633036101fb5780611210662386f26fc1000061121593111561283d565b612e8b565b6004602061123e61068961068960015473ffffffffffffffffffffffffffffffffffffffff1690565b604051928380927f91ddadf40000000000000000000000000000000000000000000000000000000082525afa918215610533577f89dea46f88a595a10fa91a5635fb021aeb7a5f569616568d6bbf4ad423879afb926112a5926000916112d5575b506129e2565b6040805179ffffffffffffffffffffffffffffffffffffffffffffffffffff9384168152919092166020820152a1005b6112ed915060203d81116110e7576110d781836107fe565b3861129f565b346101fb5760006003193601126101fb57602073ffffffffffffffffffffffffffffffffffffffff60035416604051908152f35b346101fb5760206003193601126101fb576020611345600435612530565b604051908152f35b346101fb5760406003193601126101fb5760043561136a816101dd565b60243590611377826101dd565b73ffffffffffffffffffffffffffffffffffffffff90816002541633036101fb5760045473ffffffffffffffffffffffffffffffffffffffff166113f68273ffffffffffffffffffffffffffffffffffffffff167fffffffffffffffffffffffff00000000000000000000000000000000000000006004541617600455565b6040517f70a08231000000000000000000000000000000000000000000000000000000008152306004820152838216949091602083602481895afa92831561053357869286916000956114b8575b5084611476575b858216847f965b8980dcd7b760143dfd170ab60bedc93409c85642abf75ed73d1c4fa92f6b600080a3005b6114a285827f2717ead6b9200dd235aad468c9809ea400fe33ac69b5bfaa6d3e90fc922b639895612774565b6040519485521692602090a3388381848161144b565b6114d191955060203d811161052c5761051d81836107fe565b9338611444565b346101fb5760006003193601126101fb576020604051620151808152f35b346101fb5760606003193601126101fb5767ffffffffffffffff6004358181116101fb576115289036906004016108be565b906024359081116101fb576115879161154760209236906004016108be565b60005460601c906040518095819482937f3915606f00000000000000000000000000000000000000000000000000000000845260443591600485016124d9565b03915afa8015610533576106b4916000916115ae575b506040519081529081906020820190565b6115c6915060203d811161052c5761051d81836107fe565b3861159d565b346101fb5760006003193601126101fb57602065ffffffffffff60005460301c16604051908152f35b346101fb5760806003193601126101fb57600480356005549061161d60ff8360a01c16611d2b565b611641610689610689855473ffffffffffffffffffffffffffffffffffffffff1690565b916040918251947f70a0823100000000000000000000000000000000000000000000000000000000865260209586818061169a3086830191909173ffffffffffffffffffffffffffffffffffffffff6020820193169052565b0381895afa908115610533576000916119a6575b5080831161199e575b5085845180967f095ea7b30000000000000000000000000000000000000000000000000000000082528160008161172b8873ffffffffffffffffffffffffffffffffffffffff809b168984016020909392919373ffffffffffffffffffffffffffffffffffffffff60408201951681520152565b03925af194851561053357600095611981575b50856118a6611761835473ffffffffffffffffffffffffffffffffffffffff1690565b61182a61178360035473ffffffffffffffffffffffffffffffffffffffff1690565b88517fffffffffffffffffffffffffffffffffffffffff000000000000000000000000606094851b811687830190815260443560148201527f0000000000000000000000000000000000000000000000000000000000000000861b8216603482015260643560488201529290941b90931660688201528290607c01037fffffffffffffffffffffffffffffffffffffffffffffffffffffffffffffffe081018352826107fe565b611832610864565b90815230838201526024358782015284606082015287608082015261187261068961068960055473ffffffffffffffffffffffffffffffffffffffff1690565b9087519889809481937fc04b8d59000000000000000000000000000000000000000000000000000000008352888301611f45565b03925af1948515610533576106b49660009661193c575b5050547ffa2dda1cc1b86e41239702756b13effbc1a092b5c57e3ad320fbe4f3b13fe2359073ffffffffffffffffffffffffffffffffffffffff165b9261191960035473ffffffffffffffffffffffffffffffffffffffff1690565b8551938452602084018790528116931691604090a3519081529081906020820190565b7ffa2dda1cc1b86e41239702756b13effbc1a092b5c57e3ad320fbe4f3b13fe2359296506118f9918161197a92903d1061052c5761051d81836107fe565b95916118bd565b61199790873d89116111145761110681836107fe565b503861173e565b9150386116b7565b6119bd9150873d891161052c5761051d81836107fe565b386116ae565b346101fb5760006003193601126101fb57602060405173ffffffffffffffffffffffffffffffffffffffff7f0000000000000000000000000000000000000000000000000000000000000000168152f35b346101fb5760006003193601126101fb57602073ffffffffffffffffffffffffffffffffffffffff60055416604051908152f35b346101fb5760006003193601126101fb57602065ffffffffffff60005416604051908152f35b801515036101fb57565b346101fb5760206003193601126101fb57600435611a9581611a6e565b73ffffffffffffffffffffffffffffffffffffffff6002541633036101fb577fffffffffffffffffffffff00ffffffffffffffffffffffffffffffffffffffff74ff000000000000000000000000000000000000000060055492151560a01b16911617600555600080f35b346101fb576020806003193601126101fb57600435611b3a61068961068960015473ffffffffffffffffffffffffffffffffffffffff1690565b8260405180927f6352211e0000000000000000000000000000000000000000000000000000000082528180611b7787600483019190602083019252565b03915afa801561053357611baa91600091611c4e575073ffffffffffffffffffffffffffffffffffffffff163314611d62565b611bb261204e565b611bcc61063e6105e3846000526007602052604060002090565b65ffffffffffff821614610ad457610a5691611c16849265ffffffffffff167fffffffffffffffffffffffffffffffffffffffffffffffffffff0000000000006000541617600055565b604051809381927f29eb4d1d000000000000000000000000000000000000000000000000000000008352600483019190602083019252565b610b1e9150843d8611610b2457610b1681836107fe565b346101fb57600080600319360112611d09576006549081611ca957602091505b79ffffffffffffffffffffffffffffffffffffffffffffffffffff60405191168152f35b817fffffffffffffffffffffffffffffffffffffffffffffffffffffffffffffffff810111611d045760209160067ff652222313e28459528d920b65115c16c04f3efc82aaedc97be59f3f377c0d3e9252015460301c611c85565b611f9e565b80fd5b346101fb576102db611d1d36610905565b611d2561204e565b9161270d565b156101fb57565b908160209103126101fb575190565b6040513d6000823e3d90fd5b908160209103126101fb5751610935816101dd565b15611d6957565b60846040517f08c379a000000000000000000000000000000000000000000000000000000000815260206004820152602860248201527f546865696120526577617264733a204e6f74206f776e6572206f66207468697360448201527f20766554484549410000000000000000000000000000000000000000000000006064820152fd5b60005b838110611e005750506000910152565b8181015183820152602001611df0565b602090611e2a928260405194838680955193849201611ded565b82019081520301902090565b907fffffffffffffffffffffffffffffffffffffffffffffffffffffffffffffffe0601f602093611e7281518092818752878088019101611ded565b0116010190565b604090610935939281528160208201520190611e36565b15611e9757565b60846040517f08c379a000000000000000000000000000000000000000000000000000000000815260206004820152602360248201527f546865696120526577617264733a204e6f20756e636c61696d6564207265776160448201527f72647300000000000000000000000000000000000000000000000000000000006064820152fd5b908160209103126101fb575161093581610334565b908160209103126101fb575161093581611a6e565b6020815260a06080611f62845183602086015260c0850190611e36565b9373ffffffffffffffffffffffffffffffffffffffff602082015116604085015260408101516060850152606081015182850152015191015290565b7f4e487b7100000000000000000000000000000000000000000000000000000000600052601160045260246000fd5b907ffffffffffffffffffffffffffffffffffffffffffffffffffffffffffffeae8065ffffffffffff80931601918211611d0457565b65ffffffffffff9182169082160391908211611d0457565b906201518065ffffffffffff80931601918211611d0457565b91909165ffffffffffff80809416911601918211611d0457565b60005465ffffffffffff16600160046020612083610689610689855473ffffffffffffffffffffffffffffffffffffffff1690565b604051928380927f91ddadf40000000000000000000000000000000000000000000000000000000082525afa9081156105335760009161211b575b5065ffffffffffff9162015180836120d68685612003565b16106120e5579190825b6120eb575b50505090565b9091926120fa61063e83611fcd565b83821610156121155761210c9061201b565b929190826120e0565b926120e5565b612133915060203d81116110e7576110d781836107fe565b386120be565b91908260409103126101fb576020825161215281611a6e565b92015161093581611a6e565b906020610935928181520190611e36565b1561217657565b60846040517f08c379a000000000000000000000000000000000000000000000000000000000815260206004820152603360248201527f5468656961526577617264733a205468697320746f6b656e20686173206e657660448201527f65722072656365697665642072657761726473000000000000000000000000006064820152fd5b81601f820112156101fb57805161221081610884565b9261221e60405194856107fe565b818452602082840101116101fb576109359160208085019101611ded565b67ffffffffffffffff811161083f5760051b60200190565b9080601f830112156101fb5781519061226c8261223c565b9261227a60405194856107fe565b828452602092838086019160051b830101928084116101fb57848301915b8483106122a85750505050505090565b825167ffffffffffffffff81116101fb5786916122ca848480948901016121fa565b815201920191612298565b81601f820112156101fb578051916122ec8361223c565b926122fa60405194856107fe565b808452602092838086019260051b8201019283116101fb578301905b828210612324575050505090565b81518152908301908301612316565b906020828203126101fb57815167ffffffffffffffff928382116101fb57019060a0828203126101fb57612365610864565b9282518181116101fb578261237b9185016121fa565b84526020830151602085015260408301518181116101fb578261239f918501612254565b604085015260608301518181116101fb57826123bc918501612254565b606085015260808301519081116101fb576123d792016122d5565b608082015290565b906201518065ffffffffffff80931602918216918203611d0457565b1561240257565b7f4e487b7100000000000000000000000000000000000000000000000000000000600052600160045260246000fd5b7fffffffffffffffffffffffffffffffffffffffffffffffffffffffffffffffff8114611d045760010190565b7f4e487b7100000000000000000000000000000000000000000000000000000000600052603260045260246000fd5b80518210156124a15760209160051b010190565b61245e565b9493926124c66060936124d4938852608060208901526080880190611e36565b908682036040880152611e36565b930152565b9392916124d4906124f4604093606088526060880190611e36565b908682036020880152611e36565b81810292918115918404141715611d0457565b9060018201809211611d0457565b91908201809211611d0457565b65ffffffffffff9081811161262a5781166006549060009082600581116125c7575b5061255d935061268f565b806125685750600090565b6125c36125bc61259279ffffffffffffffffffffffffffffffffffffffffffffffffffff93612662565b60066000527ff652222313e28459528d920b65115c16c04f3efc82aaedc97be59f3f377c0d3f0190565b5460301c90565b1690565b90926125d282612d39565b8203918211611d0457600683527ff652222313e28459528d920b65115c16c04f3efc82aaedc97be59f3f377c0d3f82015461255d95168410156126185750915b38612552565b92915061262490612515565b90612612565b604490604051907f6dfcc650000000000000000000000000000000000000000000000000000000008252603060048301526024820152fd5b907fffffffffffffffffffffffffffffffffffffffffffffffffffffffffffffffff8201918211611d0457565b905b82811061269d57505090565b9091808216906001818418811c8301809311611d0457600660005265ffffffffffff80847ff652222313e28459528d920b65115c16c04f3efc82aaedc97be59f3f377c0d3f015416908616106000146126fa575050915b90612691565b909392508101809111611d0457906126f4565b60206127729392612737926000526008825260406000208260405194838680955193849201611ded565b8201908152030190209065ffffffffffff167fffffffffffffffffffffffffffffffffffffffffffffffffffff000000000000825416179055565b565b6040517fa9059cbb00000000000000000000000000000000000000000000000000000000815273ffffffffffffffffffffffffffffffffffffffff9283166004820152602481019390935260209183916044918391600091165af1908115610533576000916127e6575b50156101fb57565b6127fe915060203d81116111145761110681836107fe565b386127de565b811561280e570490565b7f4e487b7100000000000000000000000000000000000000000000000000000000600052601260045260246000fd5b1561284457565b60846040517f08c379a000000000000000000000000000000000000000000000000000000000815260206004820152603760248201527f43616e6e6f74207365742062617365207265776172647320706572207665706f60448201527f7765722d64617920686967686572207468616e2031252e0000000000000000006064820152fd5b600654906801000000000000000082101561083f5760018201806006558210156124a15779ffffffffffffffffffffffffffffffffffffffffffffffffffff60206127729360066000527ff652222313e28459528d920b65115c16c04f3efc82aaedc97be59f3f377c0d3f019261297565ffffffffffff825116859065ffffffffffff167fffffffffffffffffffffffffffffffffffffffffffffffffffff000000000000825416179055565b0151825465ffffffffffff16911660301b7fffffffffffffffffffffffffffffffffffffffffffffffffffff00000000000016179055565b906040516040810181811067ffffffffffffffff82111761083f57604052915465ffffffffffff8116835260301c6020830152565b600654919291908115612b1957612a036129fe61259284612662565b6129ad565b805165ffffffffffff8381169491168410612aef5785602093612aa095612a3361063e865165ffffffffffff1690565b03612aa45750612a48612592612a7f93612662565b9065ffffffffffff7fffffffffffffffffffffffffffffffffffffffffffffffffffff00000000000083549260301b169116179055565b015179ffffffffffffffffffffffffffffffffffffffffffffffffffff1690565b9190565b9050612aea9150612ac4612ab6610844565b65ffffffffffff9092168252565b79ffffffffffffffffffffffffffffffffffffffffffffffffffff8716818501526128c8565b612a7f565b60046040517f2520601d000000000000000000000000000000000000000000000000000000008152fd5b612b509150612b29612ab6610844565b79ffffffffffffffffffffffffffffffffffffffffffffffffffff841660208201526128c8565b60009190565b670de0b6b3a764000091612b6991612502565b0490565b6040517fa9059cbb000000000000000000000000000000000000000000000000000000006020820190815273ffffffffffffffffffffffffffffffffffffffff938416602483015260448083019590955293815292612c109260009283929190612bd86064886107fe565b1694519082865af13d15612c91573d90612bf182610884565b91612bff60405193846107fe565b82523d6000602084013e5b83612c99565b8051908115159182612c6f575b5050612c265750565b6040517f5274afe700000000000000000000000000000000000000000000000000000000815273ffffffffffffffffffffffffffffffffffffffff919091166004820152602490fd5b612c8a925090602080612c86938301019101611f30565b1590565b3880612c1d565b606090612c0a565b90612cd85750805115612cae57805190602001fd5b60046040517f1425ea42000000000000000000000000000000000000000000000000000000008152fd5b81511580612d30575b612ce9575090565b60249073ffffffffffffffffffffffffffffffffffffffff604051917f9996b315000000000000000000000000000000000000000000000000000000008352166004820152fd5b50803b15612ce1565b8015612e735780612e0c612e05612dfb612df1612de7612ddd612dd3612dc960016109359a6000908b60801c80612e67575b508060401c80612e5a575b508060201c80612e4d575b508060101c80612e40575b508060081c80612e33575b508060041c80612e26575b508060021c80612e19575b50821c612e12575b811c1b612dc2818b612804565b0160011c90565b612dc2818a612804565b612dc28189612804565b612dc28188612804565b612dc28187612804565b612dc28186612804565b612dc28185612804565b8092612804565b90612e79565b8101612db5565b6002915091019038612dad565b6004915091019038612da2565b6008915091019038612d97565b6010915091019038612d8c565b6020915091019038612d81565b6040915091019038612d76565b91505060809038612d6b565b50600090565b9080821015612e86575090565b905090565b79ffffffffffffffffffffffffffffffffffffffffffffffffffff90818111612eb2571690565b604490604051907f6dfcc65000000000000000000000000000000000000000000000000000000000825260d060048301526024820152fdfea26469706673582212203f9363e7b902a22ae6c186b932b9507bd02a80724e15185a52f4cbf27e57e0cc64736f6c63430008140033f652222313e28459528d920b65115c16c04f3efc82aaedc97be59f3f377c0d3f","linkReferences":{}},"methodIdentifiers":{"MULTIPLIER()":"059f8b16","ONE_DAY()":"863e76db","WETH()":"ad5c4648","baseEmissionRate()":"f317ca3d","baseEmissionRateAt(uint256)":"70cf5e2d","calculateBaseRewards(uint256)":"29eb4d1d","calculateLiquidityRewards(uint256,string)":"3cc64d9c","changeTheiaGov(address)":"131e29ce","claimBaseRewards(uint256)":"e78c1b1b","claimLiquidityRewards(uint256,string)":"3c1f819c","feeToken()":"647846a5","genesis()":"a7f0b3de","getFeeToken()":"ca709a25","getRewardToken()":"69940d79","getTheiaGov()":"11e4a779","govTHEIA()":"1a2c1b07","latestMidnight()":"d061055a","liquidityEmissionRate(string,string,uint256)":"8830f292","receiveFees(address,uint256,uint256)":"4b34c4a2","rewardToken()":"f7c618c1","setBaseEmissionRate(uint256)":"67546e1e","setFeeToken(address,address)":"70e13aa5","setRewardToken(address,uint48,address)":"11f0d3e5","setSwapEnabled(bool)":"e01af92c","swapFeeToReward(uint256,uint256,uint256,uint256)":"a97e237e","swapRouter()":"c31c9c07","updateLatestLiquidityMidnight(uint256,string)":"f8274c0d","updateLatestMidnight()":"02cdc747","withdrawToken(address,address,uint256)":"01e33667"},"id":36}