{"abi":[{"type":"function","name":"UPGRADE_INTERFACE_VERSION","inputs":[],"outputs":[{"name":"","type":"string","internalType":"string"}],"stateMutability":"view"},{"type":"function","name":"addOperator","inputs":[{"name":"_op","type":"address","internalType":"address"}],"outputs":[],"stateMutability":"nonpayable"},{"type":"function","name":"applyGov","inputs":[],"outputs":[],"stateMutability":"nonpayable"},{"type":"function","name":"c3Fallback","inputs":[{"name":"_dappID","type":"uint256","internalType":"uint256"},{"name":"_message","type":"tuple","internalType":"struct C3CallerStructLib.C3EvmMessage","components":[{"name":"uuid","type":"bytes32","internalType":"bytes32"},{"name":"to","type":"address","internalType":"address"},{"name":"fromChainID","type":"string","internalType":"string"},{"name":"sourceTx","type":"string","internalType":"string"},{"name":"fallbackTo","type":"string","internalType":"string"},{"name":"data","type":"bytes","internalType":"bytes"}]}],"outputs":[],"stateMutability":"nonpayable"},{"type":"function","name":"c3broadcast","inputs":[{"name":"_dappID","type":"uint256","internalType":"uint256"},{"name":"_to","type":"string[]","internalType":"string[]"},{"name":"_toChainIDs","type":"string[]","internalType":"string[]"},{"name":"_data","type":"bytes","internalType":"bytes"}],"outputs":[],"stateMutability":"nonpayable"},{"type":"function","name":"c3call","inputs":[{"name":"_dappID","type":"uint256","internalType":"uint256"},{"name":"_to","type":"string","internalType":"string"},{"name":"_toChainID","type":"string","internalType":"string"},{"name":"_data","type":"bytes","internalType":"bytes"},{"name":"_extra","type":"bytes","internalType":"bytes"}],"outputs":[],"stateMutability":"nonpayable"},{"type":"function","name":"c3call","inputs":[{"name":"_dappID","type":"uint256","internalType":"uint256"},{"name":"_to","type":"string","internalType":"string"},{"name":"_toChainID","type":"string","internalType":"string"},{"name":"_data","type":"bytes","internalType":"bytes"}],"outputs":[],"stateMutability":"nonpayable"},{"type":"function","name":"c3caller","inputs":[],"outputs":[{"name":"","type":"address","internalType":"address"}],"stateMutability":"view"},{"type":"function","name":"changeGov","inputs":[{"name":"_gov","type":"address","internalType":"address"}],"outputs":[],"stateMutability":"nonpayable"},{"type":"function","name":"context","inputs":[],"outputs":[{"name":"swapID","type":"bytes32","internalType":"bytes32"},{"name":"fromChainID","type":"string","internalType":"string"},{"name":"sourceTx","type":"string","internalType":"string"}],"stateMutability":"view"},{"type":"function","name":"execute","inputs":[{"name":"_dappID","type":"uint256","internalType":"uint256"},{"name":"_message","type":"tuple","internalType":"struct C3CallerStructLib.C3EvmMessage","components":[{"name":"uuid","type":"bytes32","internalType":"bytes32"},{"name":"to","type":"address","internalType":"address"},{"name":"fromChainID","type":"string","internalType":"string"},{"name":"sourceTx","type":"string","internalType":"string"},{"name":"fallbackTo","type":"string","internalType":"string"},{"name":"data","type":"bytes","internalType":"bytes"}]}],"outputs":[],"stateMutability":"nonpayable"},{"type":"function","name":"getAllOperators","inputs":[],"outputs":[{"name":"","type":"address[]","internalType":"address[]"}],"stateMutability":"view"},{"type":"function","name":"gov","inputs":[],"outputs":[{"name":"","type":"address","internalType":"address"}],"stateMutability":"view"},{"type":"function","name":"initialize","inputs":[{"name":"_c3caller","type":"address","internalType":"address"}],"outputs":[],"stateMutability":"nonpayable"},{"type":"function","name":"isCaller","inputs":[{"name":"sender","type":"address","internalType":"address"}],"outputs":[{"name":"","type":"bool","internalType":"bool"}],"stateMutability":"view"},{"type":"function","name":"isExecutor","inputs":[{"name":"sender","type":"address","internalType":"address"}],"outputs":[{"name":"","type":"bool","internalType":"bool"}],"stateMutability":"view"},{"type":"function","name":"isOperator","inputs":[{"name":"","type":"address","internalType":"address"}],"outputs":[{"name":"","type":"bool","internalType":"bool"}],"stateMutability":"view"},{"type":"function","name":"operators","inputs":[{"name":"","type":"uint256","internalType":"uint256"}],"outputs":[{"name":"","type":"address","internalType":"address"}],"stateMutability":"view"},{"type":"function","name":"owner","inputs":[],"outputs":[{"name":"","type":"address","internalType":"address"}],"stateMutability":"view"},{"type":"function","name":"pendingGov","inputs":[],"outputs":[{"name":"","type":"address","internalType":"address"}],"stateMutability":"view"},{"type":"function","name":"proxiableUUID","inputs":[],"outputs":[{"name":"","type":"bytes32","internalType":"bytes32"}],"stateMutability":"view"},{"type":"function","name":"renounceOwnership","inputs":[],"outputs":[],"stateMutability":"nonpayable"},{"type":"function","name":"revokeOperator","inputs":[{"name":"_op","type":"address","internalType":"address"}],"outputs":[],"stateMutability":"nonpayable"},{"type":"function","name":"transferOwnership","inputs":[{"name":"newOwner","type":"address","internalType":"address"}],"outputs":[],"stateMutability":"nonpayable"},{"type":"function","name":"upgradeToAndCall","inputs":[{"name":"newImplementation","type":"address","internalType":"address"},{"name":"data","type":"bytes","internalType":"bytes"}],"outputs":[],"stateMutability":"payable"},{"type":"event","name":"ApplyGov","inputs":[{"name":"oldGov","type":"address","indexed":true,"internalType":"address"},{"name":"newGov","type":"address","indexed":true,"internalType":"address"},{"name":"timestamp","type":"uint256","indexed":false,"internalType":"uint256"}],"anonymous":false},{"type":"event","name":"ChangeGov","inputs":[{"name":"oldGov","type":"address","indexed":true,"internalType":"address"},{"name":"newGov","type":"address","indexed":true,"internalType":"address"},{"name":"timestamp","type":"uint256","indexed":false,"internalType":"uint256"}],"anonymous":false},{"type":"event","name":"Initialized","inputs":[{"name":"version","type":"uint64","indexed":false,"internalType":"uint64"}],"anonymous":false},{"type":"event","name":"OwnershipTransferred","inputs":[{"name":"previousOwner","type":"address","indexed":true,"internalType":"address"},{"name":"newOwner","type":"address","indexed":true,"internalType":"address"}],"anonymous":false},{"type":"event","name":"Upgraded","inputs":[{"name":"implementation","type":"address","indexed":true,"internalType":"address"}],"anonymous":false},{"type":"error","name":"AddressEmptyCode","inputs":[{"name":"target","type":"address","internalType":"address"}]},{"type":"error","name":"ERC1967InvalidImplementation","inputs":[{"name":"implementation","type":"address","internalType":"address"}]},{"type":"error","name":"ERC1967NonPayable","inputs":[]},{"type":"error","name":"FailedInnerCall","inputs":[]},{"type":"error","name":"InvalidInitialization","inputs":[]},{"type":"error","name":"NotInitializing","inputs":[]},{"type":"error","name":"OwnableInvalidOwner","inputs":[{"name":"owner","type":"address","internalType":"address"}]},{"type":"error","name":"OwnableUnauthorizedAccount","inputs":[{"name":"account","type":"address","internalType":"address"}]},{"type":"error","name":"UUPSUnauthorizedCallContext","inputs":[]},{"type":"error","name":"UUPSUnsupportedProxiableUUID","inputs":[{"name":"slot","type":"bytes32","internalType":"bytes32"}]}],"bytecode":{"object":"0x60a0806040523461002a573060805261203f90816100308239608051818181610f5b015261101e0152f35b600080fdfe6040608081526004908136101561001557600080fd5b600091823560e01c91826306757cbc1461156f57826312d43a511461153c57826325240810146115075783836327a63fd8146113d157508263459c7695146112dc5782634f1ef28614610fd057826352d1902d14610f325782636d70f7ae14610efc578263715018a614610e5b5782637ac07dcc14610e18578383637c6fe7aa14610cf4575082638da5cb5b14610ca05782639870d7fe14610ab4578263a962ef1e14610a1d578263ad3cb1cc1461098157838363ba44c73a146108eb57508263c4d66de8146105be578263d0496d6a146104ac578263d2f09c5914610479578263d911c6321461039b579083918363debfda301461034e578363e28d4906146102fc578363ec6a8b7d146101b4575050508063f2fde38b1461018a5763fad8b32a1461014157600080fd5b346101875760206003193601126101875761018461015d611797565b61017f73ffffffffffffffffffffffffffffffffffffffff8454163314611b60565b611bc5565b80f35b80fd5b5034610187576020600319360112610187576101846101a7611797565b6101af611ea0565b611ddd565b829350346102f8576003196080813601126102f35767ffffffffffffffff906024358281116102ef576101ea9036908601611886565b6044929192358481116102eb576102049036908801611886565b90946064359081116102e75761021d9036908901611664565b97909573ffffffffffffffffffffffffffffffffffffffff82541694853b156102e357610298998b986102a86102b7948b978d519e8f9c8d9b8c9a7feea2d657000000000000000000000000000000000000000000000000000000008c528035908c01523360248c015260a060448c015260a48b019161198b565b91868984030160648a015261198b565b928584030160848601526118fc565b03925af19081156102da57506102ca5750f35b6102d390611692565b6101875780f35b513d84823e3d90fd5b8a80fd5b8880fd5b8780fd5b8580fd5b505050fd5b5050fd5b903461034a57602060031936011261034a573591600354831015610187575073ffffffffffffffffffffffffffffffffffffffff61033b602093611820565b90549060031b1c169051908152f35b8280fd5b9050346103975760206003193601126103975760ff8160209373ffffffffffffffffffffffffffffffffffffffff610384611797565b1681526002855220541690519015158152f35b5080fd5b83346101875780600319360112610187579080519182906003549182855260208095018093600384527fc2575a0e9e593c00f959f8c92f12db2869c3395a3b0502d05e2516446f71f85b90845b81811061044f57505050816103fe9103826116d5565b83519485948186019282875251809352850193925b82811061042257505050500390f35b835173ffffffffffffffffffffffffffffffffffffffff1685528695509381019392810192600101610413565b825473ffffffffffffffffffffffffffffffffffffffff16845292880192600192830192016103e8565b83346101875780600319360112610187575073ffffffffffffffffffffffffffffffffffffffff60209254169051908152f35b9091503461034a578260031936011261034a578273ffffffffffffffffffffffffffffffffffffffff8354168251938480927fd0496d6a0000000000000000000000000000000000000000000000000000000082525afa80156105b4578392848092610546575b50509061054291610535825195869586526060602087015260608601906117dd565b91848303908501526117dd565b0390f35b93509350503d8083853e61055a81856116d5565b830160608482031261034a5783519360208101519067ffffffffffffffff918281116102ef578361058c9183016118b7565b94848201519283116101875750916105a9916105429493016118b7565b939293909138610513565b81513d85823e3d90fd5b91503461034a57602060031936011261034a576105d9611797565b7ff0c57e16840df040f15088dc2f81fe391c3923bec73e23a9662efc9c229c6a008054909267ffffffffffffffff8083169383871c60ff1615938515806108e4575b600180971490816108da575b1590816108d1575b506108a9577fffffffffffffffffffffffffffffffffffffffffffffffff0000000000000000908587838316178955610874575b5086549060ff828a1c1615938216878115918261086c575b149081610862575b159081610859575b506108315781168617875573ffffffffffffffffffffffffffffffffffffffff9190836107fc575b507fffffffffffffffffffffffff00000000000000000000000000000000000000009233848b5416178a5588514281528a7fff88f8815b3f9faf85529ba09d2f7ff0d9c726c11cc863fd245156986014259060203393a36107a8575b169082541617905561071f611f10565b610727611f10565b61072f611f10565b61073833611ddd565b610740611ea0565b61074933611ddd565b610751578380f35b7fc7f505b2f371ae2175ee4913f4499e1f2633a7b5936321eed1cdaeb6115181d292827fffffffffffffffffffffffffffffffffffffffffffffff00ffffffffffffffff6020945416905551908152a13880808380f35b7fffffffffffffffffffffffffffffffffffffffffffffff00ffffffffffffffff87541687557fc7f505b2f371ae2175ee4913f4499e1f2633a7b5936321eed1cdaeb6115181d260208951888152a161070f565b7fffffffffffffffffffffffffffffffffffffffffffffff0000000000000000001668010000000000000001178755386106b3565b8489517ff92ee8a9000000000000000000000000000000000000000000000000000000008152fd5b9050153861068b565b303b159150610683565b86925061067b565b7fffffffffffffffffffffffffffffffffffffffffffffff000000000000000000166801000000000000000117875538610663565b8388517ff92ee8a9000000000000000000000000000000000000000000000000000000008152fd5b9050153861062f565b303b159150610627565b508461061b565b9250346102f8576108fb36611629565b73ffffffffffffffffffffffffffffffffffffffff808654163314801561096c575b61092690611a0d565b845416803b156102ef576102b7948680948651978895869485937f9d40ae4400000000000000000000000000000000000000000000000000000000855233918501611a72565b5033865260026020528386205460ff1661091d565b83346101875780600319360112610187575080519080820182811067ffffffffffffffff8211176109ef5761054293508152600582527f352e302e300000000000000000000000000000000000000000000000000000006020830152519182916020835260208301906117dd565b6041847f4e487b71000000000000000000000000000000000000000000000000000000006000525260246000fd5b83903461039757602060031936011261039757610a38611797565b7fd098c548c6851f1e61d4e1364996748b40477bb1abe90254bd71352396b2b7be602073ffffffffffffffffffffffffffffffffffffffff8086541693610a80853314611b60565b1693847fffffffffffffffffffffffff0000000000000000000000000000000000000000600154161760015551428152a380f35b839034610397576020908160031936011261034a57610ad1611797565b9173ffffffffffffffffffffffffffffffffffffffff610af5818654163314611b60565b83168015610c45578085526002825260ff8386205416610bc357845260029052822080547fffffffffffffffffffffffffffffffffffffffffffffffffffffffffffffff001660011790556003549268010000000000000000841015610b975750610b6a836001610184949501600355611820565b90919082549060031b9173ffffffffffffffffffffffffffffffffffffffff809116831b921b1916179055565b8260416024927f4e487b7100000000000000000000000000000000000000000000000000000000835252fd5b608486838551917f08c379a0000000000000000000000000000000000000000000000000000000008352820152602160248201527f433343616c6c65723a204f70657261746f7220616c726561647920657869737460448201527f73000000000000000000000000000000000000000000000000000000000000006064820152fd5b60648683808651927f08c379a000000000000000000000000000000000000000000000000000000000845283015260248201527f433343616c6c65723a204f70657261746f7220697320616464726573732830296044820152fd5b83903461039757816003193601126103975760209073ffffffffffffffffffffffffffffffffffffffff7f9016d09d72d40fdae2fd8ceac6b6234c7706214fd39c1cd1e609a0528c19930054169051908152f35b9250346102f8576003196080813601126102f35767ffffffffffffffff6024358181116102ef57610d289036908601611664565b9190946044358281116102eb57610d429036908301611664565b926064359081116102e757610d5a9036908401611664565b95909373ffffffffffffffffffffffffffffffffffffffff84541694853b156102e3578a97889485938b519c8d9a8b997f27ab5b7b000000000000000000000000000000000000000000000000000000008b528035908b01523360248b015260448a0160c0905260c48a0190610dcf926118fc565b90868983030160648a0152610de3926118fc565b9084878303016084880152610df7926118fc565b84810392830160a486015252602001925af19081156102da57506102ca5750f35b91503461034a57602060031936011261034a5760209250610e37611797565b9073ffffffffffffffffffffffffffffffffffffffff809154169116149051908152f35b8334610187578060031936011261018757610e74611ea0565b600073ffffffffffffffffffffffffffffffffffffffff7f9016d09d72d40fdae2fd8ceac6b6234c7706214fd39c1cd1e609a0528c1993008054907fffffffffffffffffffffffff000000000000000000000000000000000000000082169055167f8be0079c531659141344cd1fd0a4f28419497f9722a3daafe3b4186f6b6457e08280a380f35b8390346103975760206003193601126103975760ff8160209373ffffffffffffffffffffffffffffffffffffffff610384611797565b83346101875780600319360112610187575073ffffffffffffffffffffffffffffffffffffffff7f0000000000000000000000000000000000000000000000000000000000000000163003610faa57602090517f360894a13ba1a3210667c828492db98dca3e2076cc3735a920a3ca505d382bbc8152f35b517fe07c8dba000000000000000000000000000000000000000000000000000000008152fd5b8091925060031936011261034a57610fe6611797565b9060243567ffffffffffffffff81116112d8576110069036908501611750565b73ffffffffffffffffffffffffffffffffffffffff807f0000000000000000000000000000000000000000000000000000000000000000168030149081156112aa575b5061128257808654163314801561126d575b61106490611a0d565b8316928251907f52d1902d00000000000000000000000000000000000000000000000000000000825260209182818881895afa88918161123e575b506110d357602487878751917f4c9c8ce3000000000000000000000000000000000000000000000000000000008352820152fd5b7f360894a13ba1a3210667c828492db98dca3e2076cc3735a920a3ca505d382bbc9692959193969081810361120f5750833b156111e05780547fffffffffffffffffffffffff0000000000000000000000000000000000000000168217905583518792917fbc7cd75a20ee27fd9adebab32041f755214dbc6bffa90cc0225b39da2e5c2d3b8480a28651156111aa57505080858561119c97519101845af4913d156111a0573d61118e61118582611716565b925192836116d5565b81528581943d92013e611f69565b5080f35b5060609250611f69565b94509450505050346111bb57505080f35b7fb398979f000000000000000000000000000000000000000000000000000000008152fd5b602483838751917f4c9c8ce3000000000000000000000000000000000000000000000000000000008352820152fd5b836024918751917faa1d49a4000000000000000000000000000000000000000000000000000000008352820152fd5b9091508381813d8311611266575b61125681836116d5565b810103126102e75751903861109f565b503d61124c565b5033865260026020528286205460ff1661105b565b8483517fe07c8dba000000000000000000000000000000000000000000000000000000008152fd5b9050817f360894a13ba1a3210667c828492db98dca3e2076cc3735a920a3ca505d382bbc5416141538611049565b8480fd5b8382346103975781600319360112610397576001549073ffffffffffffffffffffffffffffffffffffffff8216908115611374575060207fff88f8815b3f9faf85529ba09d2f7ff0d9c726c11cc863fd2451569860142590918480968154957fffffffffffffffffffffffff00000000000000000000000000000000000000009084828916178455166001555194428652161792a380f35b60649060208651917f08c379a0000000000000000000000000000000000000000000000000000000008352820152601760248201527f4333476f763a20656d7074792070656e64696e67476f760000000000000000006044820152fd5b9250346102f85760031960a0813601126102f35767ffffffffffffffff6024358181116102ef576114059036908601611664565b6044929192358281116102eb5761141f9036908801611664565b96606435848111611503576114379036908301611664565b9690946084359081116102e3576114519036908401611750565b9073ffffffffffffffffffffffffffffffffffffffff83541695863b156114ff578b9889958b519c8d9a8b998a987f27ab5b7b000000000000000000000000000000000000000000000000000000008a528035908a01523360248a01526044890160c0905260c48901906114c4926118fc565b90858883030160648901526114d8926118fc565b90838683030160848701526114ec926118fc565b908382030160a48401526102b7916117dd565b8b80fd5b8980fd5b83903461039757816003193601126103975760209073ffffffffffffffffffffffffffffffffffffffff600154169051908152f35b83903461039757816003193601126103975773ffffffffffffffffffffffffffffffffffffffff60209254169051908152f35b9091503461034a578261158136611629565b909373ffffffffffffffffffffffffffffffffffffffff8084541633148015611614575b6115ae90611a0d565b81541690813b1561161057836115f3968651978895869485937f04700cc400000000000000000000000000000000000000000000000000000000855233918501611a72565b03925af19081156102da5750611607575080f35b61018490611692565b8380fd5b5033845260026020528484205460ff166115a5565b9060031960408184011261165f57600435926024359167ffffffffffffffff831161165f578260c09203011261165f5760040190565b600080fd5b9181601f8401121561165f5782359167ffffffffffffffff831161165f576020838186019501011161165f57565b67ffffffffffffffff81116116a657604052565b7f4e487b7100000000000000000000000000000000000000000000000000000000600052604160045260246000fd5b90601f7fffffffffffffffffffffffffffffffffffffffffffffffffffffffffffffffe0910116810190811067ffffffffffffffff8211176116a657604052565b67ffffffffffffffff81116116a657601f017fffffffffffffffffffffffffffffffffffffffffffffffffffffffffffffffe01660200190565b81601f8201121561165f5780359061176782611716565b9261177560405194856116d5565b8284526020838301011161165f57816000926020809301838601378301015290565b6004359073ffffffffffffffffffffffffffffffffffffffff8216820361165f57565b60005b8381106117cd5750506000910152565b81810151838201526020016117bd565b907fffffffffffffffffffffffffffffffffffffffffffffffffffffffffffffffe0601f602093611819815180928187528780880191016117ba565b0116010190565b6003548110156118575760036000527fc2575a0e9e593c00f959f8c92f12db2869c3395a3b0502d05e2516446f71f85b0190600090565b7f4e487b7100000000000000000000000000000000000000000000000000000000600052603260045260246000fd5b9181601f8401121561165f5782359167ffffffffffffffff831161165f576020808501948460051b01011161165f57565b81601f8201121561165f5780516118cd81611716565b926118db60405194856116d5565b8184526020828401011161165f576118f991602080850191016117ba565b90565b601f82602094937fffffffffffffffffffffffffffffffffffffffffffffffffffffffffffffffe0938186528686013760008582860101520116010190565b90357fffffffffffffffffffffffffffffffffffffffffffffffffffffffffffffffe18236030181121561165f57016020813591019167ffffffffffffffff821161165f57813603831361165f57565b90828093828252602080809301958460051b010194846000925b8584106119b6575050505050505090565b9091929394959685806119fc837fffffffffffffffffffffffffffffffffffffffffffffffffffffffffffffffe086600196030188526119f68c8861193b565b906118fc565b9901940194019295949391906119a5565b15611a1457565b60646040517f08c379a000000000000000000000000000000000000000000000000000000000815260206004820152601460248201527f4333476f763a206f6e6c79204f70657261746f720000000000000000000000006044820152fd5b929190835273ffffffffffffffffffffffffffffffffffffffff80911660208401526060604084015281356060840152602082013590811680910361165f57826101009160806118f9950152611ae0611ace604085018561193b565b60c060a08501526101208401916118fc565b90611b51611b46611b29611af7606088018861193b565b7fffffffffffffffffffffffffffffffffffffffffffffffffffffffffffffffa09691878784030160c08801526118fc565b611b36608088018861193b565b90868684030160e08701526118fc565b9460a081019061193b565b939092828603019101526118fc565b15611b6757565b60646040517f08c379a000000000000000000000000000000000000000000000000000000000815260206004820152600f60248201527f4333476f763a206f6e6c7920476f7600000000000000000000000000000000006044820152fd5b73ffffffffffffffffffffffffffffffffffffffff80911690600090828252600260205260ff60408320541615611d7f578282526002602052604082207fffffffffffffffffffffffffffffffffffffffffffffffffffffffffffffff00815416905560038054835b818110611c3d57505050505050565b8584611c4883611820565b905490861b1c1614611cb0577fffffffffffffffffffffffffffffffffffffffffffffffffffffffffffffffff8114611c8357600101611c2e565b6024857f4e487b710000000000000000000000000000000000000000000000000000000081526011600452fd5b909294507fffffffffffffffffffffffffffffffffffffffffffffffffffffffffffffffff93919392838101908111611d525790610b6a86611cf4611d0194611820565b905490881b1c1691611820565b8254908115611d2557500191611d1683611820565b9091825491841b1b1916905555565b807f4e487b7100000000000000000000000000000000000000000000000000000000602492526031600452fd5b6024837f4e487b710000000000000000000000000000000000000000000000000000000081526011600452fd5b60646040517f08c379a000000000000000000000000000000000000000000000000000000000815260206004820152601c60248201527f433343616c6c65723a204f70657261746f72206e6f7420666f756e64000000006044820152fd5b73ffffffffffffffffffffffffffffffffffffffff809116908115611e6f577f9016d09d72d40fdae2fd8ceac6b6234c7706214fd39c1cd1e609a0528c199300805490837fffffffffffffffffffffffff00000000000000000000000000000000000000008316179055167f8be0079c531659141344cd1fd0a4f28419497f9722a3daafe3b4186f6b6457e0600080a3565b60246040517f1e4fbdf700000000000000000000000000000000000000000000000000000000815260006004820152fd5b73ffffffffffffffffffffffffffffffffffffffff7f9016d09d72d40fdae2fd8ceac6b6234c7706214fd39c1cd1e609a0528c19930054163303611ee057565b60246040517f118cdaa7000000000000000000000000000000000000000000000000000000008152336004820152fd5b60ff7ff0c57e16840df040f15088dc2f81fe391c3923bec73e23a9662efc9c229c6a005460401c1615611f3f57565b60046040517fd7e6bcf8000000000000000000000000000000000000000000000000000000008152fd5b90611fa85750805115611f7e57805190602001fd5b60046040517f1425ea42000000000000000000000000000000000000000000000000000000008152fd5b81511580612000575b611fb9575090565b60249073ffffffffffffffffffffffffffffffffffffffff604051917f9996b315000000000000000000000000000000000000000000000000000000008352166004820152fd5b50803b15611fb156fea2646970667358221220814f275711f217c42d383fba242deca367658e2c6ead9dbc021eb7c2bb84d92d64736f6c63430008140033","linkReferences":{}},"methodIdentifiers":{"UPGRADE_INTERFACE_VERSION()":"ad3cb1cc","addOperator(address)":"9870d7fe","applyGov()":"459c7695","c3Fallback(uint256,(bytes32,address,string,string,string,bytes))":"06757cbc","c3broadcast(uint256,string[],string[],bytes)":"ec6a8b7d","c3call(uint256,string,string,bytes)":"7c6fe7aa","c3call(uint256,string,string,bytes,bytes)":"27a63fd8","c3caller()":"d2f09c59","changeGov(address)":"a962ef1e","context()":"d0496d6a","execute(uint256,(bytes32,address,string,string,string,bytes))":"ba44c73a","getAllOperators()":"d911c632","gov()":"12d43a51","initialize(address)":"c4d66de8","isCaller(address)":"7ac07dcc","isExecutor(address)":"debfda30","isOperator(address)":"6d70f7ae","operators(uint256)":"e28d4906","owner()":"8da5cb5b","pendingGov()":"25240810","proxiableUUID()":"52d1902d","renounceOwnership()":"715018a6","revokeOperator(address)":"fad8b32a","transferOwnership(address)":"f2fde38b","upgradeToAndCall(address,bytes)":"4f1ef286"},"id":14}