{"abi":[{"type":"constructor","inputs":[{"name":"_swapIDKeeper","type":"address","internalType":"address"}],"stateMutability":"nonpayable"},{"type":"function","name":"addOperator","inputs":[{"name":"_op","type":"address","internalType":"address"}],"outputs":[],"stateMutability":"nonpayable"},{"type":"function","name":"applyGov","inputs":[],"outputs":[],"stateMutability":"nonpayable"},{"type":"function","name":"c3Fallback","inputs":[{"name":"_dappID","type":"uint256","internalType":"uint256"},{"name":"_txSender","type":"address","internalType":"address"},{"name":"_message","type":"tuple","internalType":"struct C3CallerStructLib.C3EvmMessage","components":[{"name":"uuid","type":"bytes32","internalType":"bytes32"},{"name":"to","type":"address","internalType":"address"},{"name":"fromChainID","type":"string","internalType":"string"},{"name":"sourceTx","type":"string","internalType":"string"},{"name":"fallbackTo","type":"string","internalType":"string"},{"name":"data","type":"bytes","internalType":"bytes"}]}],"outputs":[],"stateMutability":"nonpayable"},{"type":"function","name":"c3broadcast","inputs":[{"name":"_dappID","type":"uint256","internalType":"uint256"},{"name":"_caller","type":"address","internalType":"address"},{"name":"_to","type":"string[]","internalType":"string[]"},{"name":"_toChainIDs","type":"string[]","internalType":"string[]"},{"name":"_data","type":"bytes","internalType":"bytes"}],"outputs":[],"stateMutability":"nonpayable"},{"type":"function","name":"c3call","inputs":[{"name":"_dappID","type":"uint256","internalType":"uint256"},{"name":"_caller","type":"address","internalType":"address"},{"name":"_to","type":"string","internalType":"string"},{"name":"_toChainID","type":"string","internalType":"string"},{"name":"_data","type":"bytes","internalType":"bytes"},{"name":"_extra","type":"bytes","internalType":"bytes"}],"outputs":[],"stateMutability":"nonpayable"},{"type":"function","name":"changeGov","inputs":[{"name":"_gov","type":"address","internalType":"address"}],"outputs":[],"stateMutability":"nonpayable"},{"type":"function","name":"context","inputs":[],"outputs":[{"name":"swapID","type":"bytes32","internalType":"bytes32"},{"name":"fromChainID","type":"string","internalType":"string"},{"name":"sourceTx","type":"string","internalType":"string"}],"stateMutability":"view"},{"type":"function","name":"execute","inputs":[{"name":"_dappID","type":"uint256","internalType":"uint256"},{"name":"_txSender","type":"address","internalType":"address"},{"name":"_message","type":"tuple","internalType":"struct C3CallerStructLib.C3EvmMessage","components":[{"name":"uuid","type":"bytes32","internalType":"bytes32"},{"name":"to","type":"address","internalType":"address"},{"name":"fromChainID","type":"string","internalType":"string"},{"name":"sourceTx","type":"string","internalType":"string"},{"name":"fallbackTo","type":"string","internalType":"string"},{"name":"data","type":"bytes","internalType":"bytes"}]}],"outputs":[],"stateMutability":"nonpayable"},{"type":"function","name":"getAllOperators","inputs":[],"outputs":[{"name":"","type":"address[]","internalType":"address[]"}],"stateMutability":"view"},{"type":"function","name":"gov","inputs":[],"outputs":[{"name":"","type":"address","internalType":"address"}],"stateMutability":"view"},{"type":"function","name":"isOperator","inputs":[{"name":"","type":"address","internalType":"address"}],"outputs":[{"name":"","type":"bool","internalType":"bool"}],"stateMutability":"view"},{"type":"function","name":"operators","inputs":[{"name":"","type":"uint256","internalType":"uint256"}],"outputs":[{"name":"","type":"address","internalType":"address"}],"stateMutability":"view"},{"type":"function","name":"pause","inputs":[],"outputs":[],"stateMutability":"nonpayable"},{"type":"function","name":"paused","inputs":[],"outputs":[{"name":"","type":"bool","internalType":"bool"}],"stateMutability":"view"},{"type":"function","name":"pendingGov","inputs":[],"outputs":[{"name":"","type":"address","internalType":"address"}],"stateMutability":"view"},{"type":"function","name":"revokeOperator","inputs":[{"name":"_op","type":"address","internalType":"address"}],"outputs":[],"stateMutability":"nonpayable"},{"type":"function","name":"unpause","inputs":[],"outputs":[],"stateMutability":"nonpayable"},{"type":"function","name":"uuidKeeper","inputs":[],"outputs":[{"name":"","type":"address","internalType":"address"}],"stateMutability":"view"},{"type":"event","name":"ApplyGov","inputs":[{"name":"oldGov","type":"address","indexed":true,"internalType":"address"},{"name":"newGov","type":"address","indexed":true,"internalType":"address"},{"name":"timestamp","type":"uint256","indexed":false,"internalType":"uint256"}],"anonymous":false},{"type":"event","name":"ChangeGov","inputs":[{"name":"oldGov","type":"address","indexed":true,"internalType":"address"},{"name":"newGov","type":"address","indexed":true,"internalType":"address"},{"name":"timestamp","type":"uint256","indexed":false,"internalType":"uint256"}],"anonymous":false},{"type":"event","name":"Initialized","inputs":[{"name":"version","type":"uint64","indexed":false,"internalType":"uint64"}],"anonymous":false},{"type":"event","name":"LogC3Call","inputs":[{"name":"dappID","type":"uint256","indexed":true,"internalType":"uint256"},{"name":"uuid","type":"bytes32","indexed":true,"internalType":"bytes32"},{"name":"caller","type":"address","indexed":false,"internalType":"address"},{"name":"toChainID","type":"string","indexed":false,"internalType":"string"},{"name":"to","type":"string","indexed":false,"internalType":"string"},{"name":"data","type":"bytes","indexed":false,"internalType":"bytes"},{"name":"extra","type":"bytes","indexed":false,"internalType":"bytes"}],"anonymous":false},{"type":"event","name":"LogExecCall","inputs":[{"name":"dappID","type":"uint256","indexed":true,"internalType":"uint256"},{"name":"to","type":"address","indexed":true,"internalType":"address"},{"name":"uuid","type":"bytes32","indexed":true,"internalType":"bytes32"},{"name":"fromChainID","type":"string","indexed":false,"internalType":"string"},{"name":"sourceTx","type":"string","indexed":false,"internalType":"string"},{"name":"data","type":"bytes","indexed":false,"internalType":"bytes"},{"name":"success","type":"bool","indexed":false,"internalType":"bool"},{"name":"reason","type":"bytes","indexed":false,"internalType":"bytes"}],"anonymous":false},{"type":"event","name":"LogExecFallback","inputs":[{"name":"dappID","type":"uint256","indexed":true,"internalType":"uint256"},{"name":"to","type":"address","indexed":true,"internalType":"address"},{"name":"uuid","type":"bytes32","indexed":true,"internalType":"bytes32"},{"name":"fromChainID","type":"string","indexed":false,"internalType":"string"},{"name":"sourceTx","type":"string","indexed":false,"internalType":"string"},{"name":"data","type":"bytes","indexed":false,"internalType":"bytes"},{"name":"reason","type":"bytes","indexed":false,"internalType":"bytes"}],"anonymous":false},{"type":"event","name":"LogFallbackCall","inputs":[{"name":"dappID","type":"uint256","indexed":true,"internalType":"uint256"},{"name":"uuid","type":"bytes32","indexed":true,"internalType":"bytes32"},{"name":"to","type":"string","indexed":false,"internalType":"string"},{"name":"data","type":"bytes","indexed":false,"internalType":"bytes"},{"name":"reasons","type":"bytes","indexed":false,"internalType":"bytes"}],"anonymous":false},{"type":"event","name":"Paused","inputs":[{"name":"account","type":"address","indexed":false,"internalType":"address"}],"anonymous":false},{"type":"event","name":"Unpaused","inputs":[{"name":"account","type":"address","indexed":false,"internalType":"address"}],"anonymous":false},{"type":"error","name":"AddressEmptyCode","inputs":[{"name":"target","type":"address","internalType":"address"}]},{"type":"error","name":"AddressInsufficientBalance","inputs":[{"name":"account","type":"address","internalType":"address"}]},{"type":"error","name":"EnforcedPause","inputs":[]},{"type":"error","name":"ExpectedPause","inputs":[]},{"type":"error","name":"FailedInnerCall","inputs":[]},{"type":"error","name":"InvalidInitialization","inputs":[]},{"type":"error","name":"NotInitializing","inputs":[]}],"bytecode":{"object":"0x608034620001bb57601f62002cb638819003918201601f19168301926001600160401b0392909183851183861017620001c0578160209284926040978852833981010312620001bb57516001600160a01b0381169190829003620001bb5760ff19600454166004557ff0c57e16840df040f15088dc2f81fe391c3923bec73e23a9662efc9c229c6a00805460ff81861c161592811680159081620001b2575b6001149081620001a7575b1590816200019d575b506200018c576001600160401b031981166001178255826200016e575b5060018060a01b03199133836000541617600055845142815260007fff88f8815b3f9faf85529ba09d2f7ff0d9c726c11cc863fd245156986014259060203393a36200012d575b50600854161760085551612adf9081620001d78239f35b68ff00000000000000001981541690557fc7f505b2f371ae2175ee4913f4499e1f2633a7b5936321eed1cdaeb6115181d26020845160018152a13862000116565b6001600160481b0319166801000000000000000117815538620000cf565b845163f92ee8a960e01b8152600490fd5b90501538620000b2565b303b159150620000a9565b8491506200009e565b600080fd5b634e487b7160e01b600052604160045260246000fdfe6080604052600436101561001257600080fd5b60003560e01c806304700cc41461013757806312d43a5114610132578063252408101461012d57806327ab5b7b146101285780633f4ba83a14610123578063459c76951461011e5780635c975abb146101195780636d70f7ae146101145780638456cb591461010f5780639870d7fe1461010a5780639d40ae4414610105578063a962ef1e14610100578063b9688cf4146100fb578063d0496d6a146100f6578063d911c632146100f1578063e28d4906146100ec578063eea2d657146100e75763fad8b32a146100e257600080fd5b61192c565b611701565b611669565b61151d565b6113f5565b611236565b61119b565b610cd1565b610ba1565b610aef565b610a9f565b610a7c565b610907565b61082a565b610794565b6105fa565b6105c6565b6101b1565b73ffffffffffffffffffffffffffffffffffffffff81160361015a57565b600080fd5b6024359061016c8261013c565b565b6003199160608383011261015a576004359260243561018c8161013c565b926044359167ffffffffffffffff831161015a578260c09203011261015a5760040190565b3461015a576101bf3661016e565b909173ffffffffffffffffffffffffffffffffffffffff9060009382855416331480156105a5575b6101f090611974565b6101f8612a73565b60a084019261021361020a8587611eac565b90501515611c59565b61025161023861023860085473ffffffffffffffffffffffffffffffffffffffff1690565b73ffffffffffffffffffffffffffffffffffffffff1690565b9385359561029860409188835180997f12cab54500000000000000000000000000000000000000000000000000000000825281806020968795600483019190602083019252565b03915afa978815610525578a986102b7918a91610588575b501561206c565b81610320818301976102ce6102386102388b611f80565b9086519b8c809481937ff01f2b8b0000000000000000000000000000000000000000000000000000000083526004830191909173ffffffffffffffffffffffffffffffffffffffff6020820193169052565b03925af1978815610525578a9861033e918a9161055b575b50611fa2565b8161034e61023861023889611f80565b60048551809b81937fc516ad110000000000000000000000000000000000000000000000000000000083525af192831561052557878b948b9a869161052e575b501461039990612007565b808201946103a78684611eac565b606085019b916103b78d87611eac565b9190926103c26106e5565b94855236906103d09261073f565b8784015236906103df9261073f565b838201526103ec906122f6565b6103f588611f80565b6103ff8285611eac565b369061040a9261073f565b610413916129b9565b9361041c6106e5565b90868252610428612464565b90820152610434612464565b83820152610441906122f6565b60085473ffffffffffffffffffffffffffffffffffffffff16803b1561052a5782517fae74db05000000000000000000000000000000000000000000000000000000008152600481018d905295908690602490829084905af1928315610525576104f76104e66104df7fb33d9021d0f30256149a64ad07cca70ebdf7c84f59e84d6af5a36a94fd104c589b610506996104ef9861050c575b50611f80565b9883611eac565b95909c83611eac565b939092611eac565b94909351988998169b8861255f565b0390a480f35b8061051961051f9261068b565b806105bb565b386104d9565b611d4c565b8580fd5b61054e9150853d8711610554575b61054681836106a4565b810190611cbe565b3861038e565b503d61053c565b61057b9150843d8611610581575b61057381836106a4565b810190611f8a565b38610338565b503d610569565b61059f9150843d86116105815761057381836106a4565b386102b0565b503385526002602052604085205460ff166101e7565b600091031261015a57565b3461015a57600060031936011261015a57602073ffffffffffffffffffffffffffffffffffffffff60005416604051908152f35b3461015a57600060031936011261015a57602073ffffffffffffffffffffffffffffffffffffffff60015416604051908152f35b9181601f8401121561015a5782359167ffffffffffffffff831161015a576020838186019501011161015a57565b7f4e487b7100000000000000000000000000000000000000000000000000000000600052604160045260246000fd5b67ffffffffffffffff811161069f57604052565b61065c565b90601f7fffffffffffffffffffffffffffffffffffffffffffffffffffffffffffffffe0910116810190811067ffffffffffffffff82111761069f57604052565b604051906060820182811067ffffffffffffffff82111761069f57604052565b67ffffffffffffffff811161069f57601f017fffffffffffffffffffffffffffffffffffffffffffffffffffffffffffffffe01660200190565b92919261074b82610705565b9161075960405193846106a4565b82948184528183011161015a578281602093846000960137010152565b9080601f8301121561015a578160206107919335910161073f565b90565b3461015a5760c060031936011261015a576107ad61015f565b67ffffffffffffffff9060443582811161015a576107cf90369060040161062e565b9060643584811161015a576107e890369060040161062e565b9060843586811161015a5761080190369060040161062e565b94909360a43597881161015a5761081f610828983690600401610776565b966004356119d9565b005b3461015a576000806003193601126109045773ffffffffffffffffffffffffffffffffffffffff815416331480156108ee575b61086690611974565b60045460ff8116156108c4577fffffffffffffffffffffffffffffffffffffffffffffffffffffffffffffff00166004557f5db9ee0a495bf2e6ff9c91a7834c1ba4fdd244a5e8aa4e537bd38aeae4b073aa6020604051338152a180f35b60046040517f8dfc202b000000000000000000000000000000000000000000000000000000008152fd5b503381526002602052604081205460ff1661085d565b80fd5b3461015a576000806003193601126109045773ffffffffffffffffffffffffffffffffffffffff80600154168015610a1e5761097e9073ffffffffffffffffffffffffffffffffffffffff167fffffffffffffffffffffffff00000000000000000000000000000000000000006000541617600055565b6109ab7fffffffffffffffffffffffff000000000000000000000000000000000000000060015416600155565b815473ffffffffffffffffffffffffffffffffffffffff16907fff88f8815b3f9faf85529ba09d2f7ff0d9c726c11cc863fd2451569860142590610a0460015473ffffffffffffffffffffffffffffffffffffffff1690565b604051428152908316939092169180602081015b0390a380f35b60646040517f08c379a000000000000000000000000000000000000000000000000000000000815260206004820152601760248201527f4333476f763a20656d7074792070656e64696e67476f760000000000000000006044820152fd5b3461015a57600060031936011261015a57602060ff600454166040519015158152f35b3461015a57602060031936011261015a5773ffffffffffffffffffffffffffffffffffffffff600435610ad18161013c565b166000526002602052602060ff604060002054166040519015158152f35b3461015a576000806003193601126109045773ffffffffffffffffffffffffffffffffffffffff81541633148015610b8b575b610b2b90611974565b610b33612a73565b60017fffffffffffffffffffffffffffffffffffffffffffffffffffffffffffffff0060045416176004557f62e78cea01bee320cd4e420270b5ea74000d11b0c9f74754ebdbfc544b05a2586020604051338152a180f35b503381526002602052604081205460ff16610b22565b3461015a57602060031936011261015a57600435610bbe8161013c565b73ffffffffffffffffffffffffffffffffffffffff610be2816000541633146125c6565b8116908115610c7357610828916000526002602052610c16610c11610c0d604060002060ff90541690565b1590565b61262b565b610c6e610c438273ffffffffffffffffffffffffffffffffffffffff166000526002602052604060002090565b60017fffffffffffffffffffffffffffffffffffffffffffffffffffffffffffffff00825416179055565b6126b6565b60646040517f08c379a000000000000000000000000000000000000000000000000000000000815260206004820152602060248201527f433343616c6c65723a204f70657261746f7220697320616464726573732830296044820152fd5b3461015a57610cdf3661016e565b9073ffffffffffffffffffffffffffffffffffffffff906000938285541633148015611185575b610d0f90611974565b610d17612a73565b60a08401610d2861020a8287611eac565b6020948581018787610d96610d4261023861023886611f80565b60409889519485809481937ff01f2b8b0000000000000000000000000000000000000000000000000000000083526004830191909173ffffffffffffffffffffffffffffffffffffffff6020820193169052565b03925af1801561052557610db0918a9161116e5750611fa2565b8787610dc161023861023885611f80565b60048851809481937fc516ad110000000000000000000000000000000000000000000000000000000083525af190811561052557610e099186918b91611151575b5014612007565b610e2e61023861023860085473ffffffffffffffffffffffffffffffffffffffff1690565b96823596818751809a7f12cab5450000000000000000000000000000000000000000000000000000000082528180610e6e8d600483019190602083019252565b03915afa9081156105255785878a9286868f9e8f90978b988291611134575b5015610e989061206c565b8d818088818c858101988d610ead8b84611eac565b90606085019b610ebd8d87611eac565b929093610ec86106e5565b9586523690610ed69261073f565b908401523690610ee59261073f565b88820152610ef2906122f6565b610efb90611f80565b92610f0591611eac565b869291925192838092610f1792612456565b03925af1988991610f26612488565b9c8d94610f316106e5565b9081528d610f3d612464565b90820152610f49612464565b83820152610f56906122f6565b610f5f90611f80565b95610f6a9083611eac565b999095610f779084611eac565b91610f829194611eac565b93909251988998169a610f9597896124b8565b037f3d1c99bef13ab4c25bd65eab4a7720726c0af76993aeb46245e6639956f7e1ae91a4610fc2836125ab565b908261112c575b5081611121575b501561106c57505050505061100061023861023860085473ffffffffffffffffffffffffffffffffffffffff1690565b803b1561106757839261104592519485809481937fae74db05000000000000000000000000000000000000000000000000000000008352600483019190602083019252565b03925af1801561052557611057575080f35b806105196110649261068b565b80f35b505050fd5b8293949697507f110f42a49af0b77cf036501ce97081e652e9f0d25822a0db11b128e9742d4f43956111177fb121f51d00000000000000000000000000000000000000000000000000000000926110eb856110d86110d06080610a189a018b611eac565b9b909a611eac565b9086519788958601528d6024860161250a565b037fffffffffffffffffffffffffffffffffffffffffffffffffffffffffffffffe081018452836106a4565b5194859485612536565b600191501438610fd0565b915038610fc9565b61114b9150833d85116105815761057381836106a4565b38610e8d565b61116891508a3d8c116105545761054681836106a4565b38610e02565b61057b9150893d8b116105815761057381836106a4565b503385526002602052604085205460ff16610d06565b3461015a57602060031936011261015a576004356111b88161013c565b73ffffffffffffffffffffffffffffffffffffffff8060005416916111de8333146125c6565b1690817fffffffffffffffffffffffff000000000000000000000000000000000000000060015416176001557fd098c548c6851f1e61d4e1364996748b40477bb1abe90254bd71352396b2b7be6020604051428152a3005b3461015a57600060031936011261015a57602073ffffffffffffffffffffffffffffffffffffffff60085416604051908152f35b90600182811c921680156112b3575b602083101461128457565b7f4e487b7100000000000000000000000000000000000000000000000000000000600052602260045260246000fd5b91607f1691611279565b60405190600082600754916112d18361126a565b8083529260019081811690811561135757506001146112f8575b5061016c925003836106a4565b6007600090815291507fa66cc928b5edb82af9bd49922954155ab7b0942694bea4ce44661d9a8736c6885b84831061133c575061016c9350508101602001386112eb565b81935090816020925483858a01015201910190918592611323565b6020935061016c9592507fffffffffffffffffffffffffffffffffffffffffffffffffffffffffffffff0091501682840152151560051b820101386112eb565b919082519283825260005b8481106113e15750507fffffffffffffffffffffffffffffffffffffffffffffffffffffffffffffffe0601f8460006020809697860101520116010190565b6020818301810151848301820152016113a2565b3461015a576000806003193601126109045760055460405191828160065461141c8161126a565b808452936001918083169081156114da575060011461147d575b5050611444925003836106a4565b61147961144f6112bd565b61146b6040519485948552606060208601526060850190611397565b908382036040850152611397565b0390f35b9150600682527ff652222313e28459528d920b65115c16c04f3efc82aaedc97be59f3f377c0d3f5b8483106114bf575061144493505081016020013880611436565b81935090816020925483858a010152019101909185926114a5565b9050602093506114449592507fffffffffffffffffffffffffffffffffffffffffffffffffffffffffffffff0091501682840152151560051b8201013880611436565b3461015a576000806003193601126109045760405180916003549081835260208093018092600383527fc2575a0e9e593c00f959f8c92f12db2869c3395a3b0502d05e2516446f71f85b90835b8181106115d457505050846115809103856106a4565b60405193838594850191818652518092526040850193925b8281106115a757505050500390f35b835173ffffffffffffffffffffffffffffffffffffffff1685528695509381019392810192600101611598565b825473ffffffffffffffffffffffffffffffffffffffff168452928601926001928301920161156a565b7f4e487b7100000000000000000000000000000000000000000000000000000000600052603260045260246000fd5b6003548110156116645760036000527fc2575a0e9e593c00f959f8c92f12db2869c3395a3b0502d05e2516446f71f85b0190600090565b6115fe565b3461015a57602060031936011261015a5760043560035481101561015a5773ffffffffffffffffffffffffffffffffffffffff60209160036000527fc2575a0e9e593c00f959f8c92f12db2869c3395a3b0502d05e2516446f71f85b015416604051908152f35b9181601f8401121561015a5782359167ffffffffffffffff831161015a576020808501948460051b01011161015a57565b3461015a5760a060031936011261015a57600480356024356117228161013c565b67ffffffffffffffff9060443582811161015a5761174390369086016116d0565b939060643584811161015a5761175c90369088016116d0565b93909460843590811161015a57611776903690890161062e565b9097611780612a73565b61178b851515611b2a565b611796881515611b8f565b6117a1861515611bf4565b6117ac821515611c59565b6117b7868314611dc0565b60005b8681106117c357005b80866000848b898f968f818f926118039061180b936117fd61023861023860085473ffffffffffffffffffffffffffffffffffffffff1690565b96611efd565b939095611efd565b95909361184d8c60409b8c51998a98899788967ff1a9bff900000000000000000000000000000000000000000000000000000000885260209e8f9d8901611d0c565b03925af19081156105255788888f8f908f96918f998f966118cc9b8b918f9660009b6118d1575b5050816118af6118c497969594936118b7937f88ca677ce66cb94eb6b03d7e06b1735c23eafde3090030bf7fb84711690a287e9c9d9e611efd565b949099611efd565b9290915197889788611f18565b0390a3611e7a565b6117ba565b7f88ca677ce66cb94eb6b03d7e06b1735c23eafde3090030bf7fb84711690a287e9a9b50836118b79361191c6118c49a9998979694846118af95903d106105545761054681836106a4565b9d9c509350939495969750611874565b3461015a57602060031936011261015a5761082860043561194c8161013c565b61196f73ffffffffffffffffffffffffffffffffffffffff6000541633146125c6565b612825565b1561197b57565b60646040517f08c379a000000000000000000000000000000000000000000000000000000000815260206004820152601460248201527f4333476f763a206f6e6c79204f70657261746f720000000000000000000000006044820152fd5b95909394979287926119e9612a73565b6119f4881515611b2a565b6119ff821515611b8f565b611a0a8a1515611bf4565b611a15841515611c59565b60085473ffffffffffffffffffffffffffffffffffffffff1673ffffffffffffffffffffffffffffffffffffffff16838b8a6040519c8d9384937ff1a9bff90000000000000000000000000000000000000000000000000000000085528d89896004880196611a8397611d0c565b03815a602094600091f198891561052557600099611ada575b5090611ad5949392917f88ca677ce66cb94eb6b03d7e06b1735c23eafde3090030bf7fb84711690a287e98999a60405198899889611d58565b0390a3565b7f88ca677ce66cb94eb6b03d7e06b1735c23eafde3090030bf7fb84711690a287e98995090611b1d611ad5969594939260203d81116105545761054681836106a4565b9998509091929394611a9c565b15611b3157565b60646040517f08c379a000000000000000000000000000000000000000000000000000000000815260206004820152601660248201527f433343616c6c65723a20656d70747920646170704944000000000000000000006044820152fd5b15611b9657565b60646040517f08c379a000000000000000000000000000000000000000000000000000000000815260206004820152601360248201527f433343616c6c65723a20656d707479205f746f000000000000000000000000006044820152fd5b15611bfb57565b60646040517f08c379a000000000000000000000000000000000000000000000000000000000815260206004820152601960248201527f433343616c6c65723a20656d70747920746f436861696e4944000000000000006044820152fd5b15611c6057565b60646040517f08c379a000000000000000000000000000000000000000000000000000000000815260206004820152601860248201527f433343616c6c65723a20656d7074792063616c6c6461746100000000000000006044820152fd5b9081602091031261015a575190565b601f82602094937fffffffffffffffffffffffffffffffffffffffffffffffffffffffffffffffe0938186528686013760008582860101520116010190565b959391611d3090611d3e946107919997938952608060208a01526080890191611ccd565b918683036040880152611ccd565b926060818503910152611ccd565b6040513d6000823e3d90fd5b969294611d96611da493611db29773ffffffffffffffffffffffffffffffffffffffff6107919c9a9895168b5260a060208c015260a08b0191611ccd565b9188830360408a0152611ccd565b918583036060870152611ccd565b916080818403910152611397565b15611dc757565b60846040517f08c379a000000000000000000000000000000000000000000000000000000000815260206004820152602260248201527f433343616c6c65723a2063616c6c64617461206c656e677468206469736d617460448201527f63680000000000000000000000000000000000000000000000000000000000006064820152fd5b7f4e487b7100000000000000000000000000000000000000000000000000000000600052601160045260246000fd5b7fffffffffffffffffffffffffffffffffffffffffffffffffffffffffffffffff8114611ea75760010190565b611e4b565b9035907fffffffffffffffffffffffffffffffffffffffffffffffffffffffffffffffe18136030182121561015a570180359067ffffffffffffffff821161015a5760200191813603831361015a57565b9082101561166457611f149160051b810190611eac565b9091565b95939094611f53611f61936020999573ffffffffffffffffffffffffffffffffffffffff611f6f99168a5260a08b8b015260a08a0191611ccd565b918783036040890152611ccd565b918483036060860152611ccd565b906080818303910152600081520190565b356107918161013c565b9081602091031261015a5751801515810361015a5790565b15611fa957565b60646040517f08c379a000000000000000000000000000000000000000000000000000000000815260206004820152601a60248201527f433343616c6c65723a20747853656e64657220696e76616c69640000000000006044820152fd5b1561200e57565b60646040517f08c379a000000000000000000000000000000000000000000000000000000000815260206004820152601960248201527f433343616c6c65723a20646170704944206469736d61746368000000000000006044820152fd5b1561207357565b60646040517f08c379a000000000000000000000000000000000000000000000000000000000815260206004820152601b60248201527f433343616c6c65723a20616c726561647920636f6d706c6574656400000000006044820152fd5b601f81116120dd575050565b600090600682527ff652222313e28459528d920b65115c16c04f3efc82aaedc97be59f3f377c0d3f906020601f850160051c83019410612138575b601f0160051c01915b82811061212d57505050565b818155600101612121565b9092508290612118565b601f811161214e575050565b600090600782527fa66cc928b5edb82af9bd49922954155ab7b0942694bea4ce44661d9a8736c688906020601f850160051c830194106121a9575b601f0160051c01915b82811061219e57505050565b818155600101612192565b9092508290612189565b90815167ffffffffffffffff811161069f576121d9816121d460075461126a565b612142565b602080601f83116001146122325750819293600092612227575b50507fffffffffffffffffffffffffffffffffffffffffffffffffffffffffffffffff8260011b9260031b1c191617600755565b0151905038806121f3565b907fffffffffffffffffffffffffffffffffffffffffffffffffffffffffffffffe083169461228360076000527fa66cc928b5edb82af9bd49922954155ab7b0942694bea4ce44661d9a8736c68890565b926000905b8782106122de5750508360019596106122a7575b505050811b01600755565b01517fffffffffffffffffffffffffffffffffffffffffffffffffffffffffffffffff60f88460031b161c1916905538808061229c565b80600185968294968601518155019501930190612288565b80516005556020808201519081519167ffffffffffffffff831161069f576123288361232360065461126a565b6120d1565b81601f841160011461238c5750918061016c9492604094600092612381575b50507fffffffffffffffffffffffffffffffffffffffffffffffffffffffffffffffff8260011b9260031b1c1916176006555b01516121b3565b015190503880612347565b600660005291907fffffffffffffffffffffffffffffffffffffffffffffffffffffffffffffffe084167ff652222313e28459528d920b65115c16c04f3efc82aaedc97be59f3f377c0d3f936000905b82821061243e57505092600192859260409661016c989610612407575b505050811b0160065561237a565b01517fffffffffffffffffffffffffffffffffffffffffffffffffffffffffffffffff60f88460031b161c191690553880806123f9565b806001869782949787015181550196019401906123dc565b908092918237016000815290565b604051906020820182811067ffffffffffffffff82111761069f5760405260008252565b3d156124b3573d9061249982610705565b916124a760405193846106a4565b82523d6000602084013e565b606090565b94926124f5946124d96124e7936107919b999560a08a5260a08a0191611ccd565b918783036020890152611ccd565b918483036040860152611ccd565b92151560608201526080818403910152611397565b92916107919492612528928552606060208601526060850191611ccd565b916040818403910152611397565b92612551612528926107919694606087526060870191611ccd565b908482036020860152611397565b95919261259d9461258161258f936107919a989660808b5260808b0191611ccd565b9188830360208a0152611ccd565b918583036040870152611ccd565b916060818403910152611397565b60208151106125bd5760200151600191565b50600090600090565b156125cd57565b60646040517f08c379a000000000000000000000000000000000000000000000000000000000815260206004820152600f60248201527f4333476f763a206f6e6c7920476f7600000000000000000000000000000000006044820152fd5b1561263257565b60846040517f08c379a000000000000000000000000000000000000000000000000000000000815260206004820152602160248201527f433343616c6c65723a204f70657261746f7220616c726561647920657869737460448201527f73000000000000000000000000000000000000000000000000000000000000006064820152fd5b6003546801000000000000000081101561069f5760018101806003558110156116645773ffffffffffffffffffffffffffffffffffffffff9060036000527fc2575a0e9e593c00f959f8c92f12db2869c3395a3b0502d05e2516446f71f85b0191167fffffffffffffffffffffffff0000000000000000000000000000000000000000825416179055565b907fffffffffffffffffffffffffffffffffffffffffffffffffffffffffffffffff8201918211611ea757565b60035480156127f6577fffffffffffffffffffffffffffffffffffffffffffffffffffffffffffffffff81019080821015611664577fc2575a0e9e593c00f959f8c92f12db2869c3395a3b0502d05e2516446f71f85a906003600052017fffffffffffffffffffffffff00000000000000000000000000000000000000008154169055600355565b7f4e487b7100000000000000000000000000000000000000000000000000000000600052603160045260246000fd5b73ffffffffffffffffffffffffffffffffffffffff908181169081600052600260205260ff604060002054161561295b576128836128ab9173ffffffffffffffffffffffffffffffffffffffff166000526002602052604060002090565b7fffffffffffffffffffffffffffffffffffffffffffffffffffffffffffffff008154169055565b6003549060005b8281106128bf5750505050565b81846128ed6128cd8461162d565b905473ffffffffffffffffffffffffffffffffffffffff9160031b1c1690565b1614612901576128fc90611e7a565b6128b2565b91612953935061292691506128cd61291b61292092612741565b61162d565b9161162d565b90919082549060031b9173ffffffffffffffffffffffffffffffffffffffff809116831b921b1916179055565b61016c61276e565b60646040517f08c379a000000000000000000000000000000000000000000000000000000000815260206004820152601c60248201527f433343616c6c65723a204f70657261746f72206e6f7420666f756e64000000006044820152fd5b6000806107919360208151910182855af16129d2612488565b9190612a1257508051156129e857805190602001fd5b60046040517f1425ea42000000000000000000000000000000000000000000000000000000008152fd5b81511580612a6a575b612a23575090565b60249073ffffffffffffffffffffffffffffffffffffffff604051917f9996b315000000000000000000000000000000000000000000000000000000008352166004820152fd5b50803b15612a1b565b60ff60045416612a7f57565b60046040517fd93c0665000000000000000000000000000000000000000000000000000000008152fdfea264697066735822122079b6be38bd9e76a3dcac79df276b84f624701765a657444cfa393c49898841a064736f6c63430008140033","linkReferences":{}},"methodIdentifiers":{"addOperator(address)":"9870d7fe","applyGov()":"459c7695","c3Fallback(uint256,address,(bytes32,address,string,string,string,bytes))":"04700cc4","c3broadcast(uint256,address,string[],string[],bytes)":"eea2d657","c3call(uint256,address,string,string,bytes,bytes)":"27ab5b7b","changeGov(address)":"a962ef1e","context()":"d0496d6a","execute(uint256,address,(bytes32,address,string,string,string,bytes))":"9d40ae44","getAllOperators()":"d911c632","gov()":"12d43a51","isOperator(address)":"6d70f7ae","operators(uint256)":"e28d4906","pause()":"8456cb59","paused()":"5c975abb","pendingGov()":"25240810","revokeOperator(address)":"fad8b32a","unpause()":"3f4ba83a","uuidKeeper()":"b9688cf4"},"id":12}