{"abi":[{"type":"function","name":"FuncTheiaVaultAuto","inputs":[],"outputs":[{"name":"","type":"bytes4","internalType":"bytes4"}],"stateMutability":"view"}],"bytecode":{"object":"0x608080604052346100195760b2908161001f823930815050f35b600080fdfe6080806040526004361015601257600080fd5b60003560e01c6366c75f6314602657600080fd5b60007ffffffffffffffffffffffffffffffffffffffffffffffffffffffffffffffffc360112607757807fad35e0240000000000000000000000000000000000000000000000000000000060209252f35b600080fdfea26469706673582212203c75561a67ea522ca542bb07d545fe20b5cd58caf00e32c6b1935bcae5ae5fc564736f6c63430008140033","linkReferences":{}},"methodIdentifiers":{"FuncTheiaVaultAuto()":"66c75f63"},"id":39}