{"abi":[{"type":"constructor","inputs":[{"name":"_txSender","type":"address","internalType":"address"},{"name":"_c3callerProxy","type":"address","internalType":"address"},{"name":"_dappID","type":"uint256","internalType":"uint256"},{"name":"_gov","type":"address","internalType":"address"},{"name":"_wNATIVE","type":"address","internalType":"address"}],"stateMutability":"nonpayable"},{"type":"function","name":"FuncDeployTheia","inputs":[],"outputs":[{"name":"","type":"bytes4","internalType":"bytes4"}],"stateMutability":"view"},{"type":"function","name":"addTxSender","inputs":[{"name":"txSender","type":"address","internalType":"address"}],"outputs":[],"stateMutability":"nonpayable"},{"type":"function","name":"c3CallerProxy","inputs":[],"outputs":[{"name":"","type":"address","internalType":"address"}],"stateMutability":"view"},{"type":"function","name":"c3Fallback","inputs":[{"name":"_dappID","type":"uint256","internalType":"uint256"},{"name":"_data","type":"bytes","internalType":"bytes"},{"name":"_reason","type":"bytes","internalType":"bytes"}],"outputs":[{"name":"","type":"bool","internalType":"bool"}],"stateMutability":"nonpayable"},{"type":"function","name":"cID","inputs":[],"outputs":[{"name":"","type":"uint256","internalType":"uint256"}],"stateMutability":"view"},{"type":"function","name":"changeGov","inputs":[{"name":"newGov","type":"address","internalType":"address"}],"outputs":[],"stateMutability":"nonpayable"},{"type":"function","name":"dappID","inputs":[],"outputs":[{"name":"","type":"uint256","internalType":"uint256"}],"stateMutability":"view"},{"type":"function","name":"delay","inputs":[],"outputs":[{"name":"","type":"uint256","internalType":"uint256"}],"stateMutability":"view"},{"type":"function","name":"deployTheia","inputs":[{"name":"_fromTargetStr","type":"string","internalType":"string"},{"name":"_name","type":"string","internalType":"string"},{"name":"_symbol","type":"string","internalType":"string"},{"name":"_decimals","type":"uint8","internalType":"uint8"},{"name":"_underlyingStr","type":"string","internalType":"string"},{"name":"_salt","type":"bytes32","internalType":"bytes32"},{"name":"_routerStr","type":"string","internalType":"string"}],"outputs":[],"stateMutability":"nonpayable"},{"type":"function","name":"disableTxSender","inputs":[{"name":"txSender","type":"address","internalType":"address"}],"outputs":[],"stateMutability":"nonpayable"},{"type":"function","name":"doGov","inputs":[{"name":"_to","type":"string","internalType":"string"},{"name":"_toChainID","type":"string","internalType":"string"},{"name":"_data","type":"bytes","internalType":"bytes"}],"outputs":[],"stateMutability":"nonpayable"},{"type":"function","name":"doGovBroadcast","inputs":[{"name":"_targets","type":"string[]","internalType":"string[]"},{"name":"_toChainIDs","type":"string[]","internalType":"string[]"},{"name":"_data","type":"bytes","internalType":"bytes"}],"outputs":[],"stateMutability":"nonpayable"},{"type":"function","name":"getPoolTokens","inputs":[],"outputs":[{"name":"","type":"string[]","internalType":"string[]"}],"stateMutability":"view"},{"type":"function","name":"getSymbolByToken","inputs":[{"name":"tokenStr","type":"string","internalType":"string"},{"name":"toChainIdStr","type":"string","internalType":"string"}],"outputs":[{"name":"tokenSymbol","type":"string","internalType":"string"}],"stateMutability":"view"},{"type":"function","name":"getTokenBySymbol","inputs":[{"name":"tokenSymbol","type":"string","internalType":"string"},{"name":"toChainIdStr","type":"string","internalType":"string"}],"outputs":[{"name":"tokenStr","type":"string","internalType":"string"}],"stateMutability":"view"},{"type":"function","name":"gov","inputs":[],"outputs":[{"name":"","type":"address","internalType":"address"}],"stateMutability":"view"},{"type":"function","name":"isOperator","inputs":[{"name":"","type":"address","internalType":"address"}],"outputs":[{"name":"","type":"bool","internalType":"bool"}],"stateMutability":"view"},{"type":"function","name":"isValidSender","inputs":[{"name":"txSender","type":"address","internalType":"address"}],"outputs":[{"name":"","type":"bool","internalType":"bool"}],"stateMutability":"view"},{"type":"function","name":"newTheiaTokenEVM","inputs":[{"name":"_name","type":"string","internalType":"string"},{"name":"_symbol","type":"string","internalType":"string"},{"name":"_decimals","type":"uint8[]","internalType":"uint8[]"},{"name":"_underlying","type":"address[]","internalType":"address[]"},{"name":"_chainIds","type":"uint256[]","internalType":"uint256[]"},{"name":"_targets","type":"address[]","internalType":"address[]"},{"name":"_salt","type":"bytes32","internalType":"bytes32"},{"name":"_router","type":"address[]","internalType":"address[]"}],"outputs":[],"stateMutability":"nonpayable"},{"type":"function","name":"operators","inputs":[{"name":"","type":"uint256","internalType":"uint256"}],"outputs":[{"name":"","type":"address","internalType":"address"}],"stateMutability":"view"},{"type":"function","name":"poolTokenSymbols","inputs":[{"name":"","type":"uint256","internalType":"uint256"}],"outputs":[{"name":"","type":"string","internalType":"string"}],"stateMutability":"view"},{"type":"function","name":"registerNewTheia","inputs":[{"name":"_fromChainId","type":"string","internalType":"string"},{"name":"_tokenStr","type":"string","internalType":"string"},{"name":"_name","type":"string","internalType":"string"},{"name":"_symbol","type":"string","internalType":"string"},{"name":"_decimals","type":"uint8","internalType":"uint8"},{"name":"_underlyingStr","type":"string","internalType":"string"}],"outputs":[],"stateMutability":"nonpayable"},{"type":"function","name":"removeTheiaTokenChainId","inputs":[{"name":"_symbol","type":"string","internalType":"string"},{"name":"_chainIdsStr","type":"string[]","internalType":"string[]"}],"outputs":[],"stateMutability":"nonpayable"},{"type":"function","name":"setDelay","inputs":[{"name":"_delay","type":"uint256","internalType":"uint256"}],"outputs":[],"stateMutability":"nonpayable"},{"type":"function","name":"strToUint","inputs":[{"name":"_str","type":"string","internalType":"string"}],"outputs":[{"name":"res","type":"uint256","internalType":"uint256"},{"name":"err","type":"bool","internalType":"bool"}],"stateMutability":"pure"},{"type":"function","name":"stringToAddress","inputs":[{"name":"str","type":"string","internalType":"string"}],"outputs":[{"name":"","type":"address","internalType":"address"}],"stateMutability":"pure"},{"type":"function","name":"stringsEqual","inputs":[{"name":"a","type":"string","internalType":"string"},{"name":"b","type":"string","internalType":"string"}],"outputs":[{"name":"","type":"bool","internalType":"bool"}],"stateMutability":"pure"},{"type":"function","name":"symbolToToken","inputs":[{"name":"","type":"string","internalType":"string"},{"name":"","type":"string","internalType":"string"}],"outputs":[{"name":"","type":"string","internalType":"string"}],"stateMutability":"view"},{"type":"function","name":"symbolToUnderlying","inputs":[{"name":"","type":"string","internalType":"string"},{"name":"","type":"string","internalType":"string"}],"outputs":[{"name":"","type":"string","internalType":"string"}],"stateMutability":"view"},{"type":"function","name":"tokenSymbolExists","inputs":[{"name":"tokenSymbol","type":"string","internalType":"string"}],"outputs":[{"name":"","type":"bool","internalType":"bool"}],"stateMutability":"view"},{"type":"function","name":"tokenToSymbol","inputs":[{"name":"","type":"string","internalType":"string"},{"name":"","type":"string","internalType":"string"}],"outputs":[{"name":"","type":"string","internalType":"string"}],"stateMutability":"view"},{"type":"function","name":"underlyingByChainId","inputs":[{"name":"","type":"string","internalType":"string"},{"name":"","type":"string","internalType":"string"}],"outputs":[{"name":"","type":"string","internalType":"string"}],"stateMutability":"view"},{"type":"function","name":"version","inputs":[],"outputs":[{"name":"","type":"uint256","internalType":"uint256"}],"stateMutability":"pure"},{"type":"function","name":"wNATIVE","inputs":[],"outputs":[{"name":"","type":"address","internalType":"address"}],"stateMutability":"view"},{"type":"event","name":"DeployTheia","inputs":[{"name":"_name","type":"string","indexed":false,"internalType":"string"},{"name":"_symbol","type":"string","indexed":false,"internalType":"string"},{"name":"_decimals","type":"uint8","indexed":false,"internalType":"uint8"},{"name":"underlying","type":"string","indexed":false,"internalType":"string"},{"name":"router","type":"string","indexed":false,"internalType":"string"},{"name":"fromChainIdStr","type":"string","indexed":false,"internalType":"string"},{"name":"sourceTx","type":"string","indexed":false,"internalType":"string"}],"anonymous":false},{"type":"event","name":"LogChangeGov","inputs":[{"name":"oldGov","type":"address","indexed":true,"internalType":"address"},{"name":"newGov","type":"address","indexed":true,"internalType":"address"},{"name":"effectiveTime","type":"uint256","indexed":true,"internalType":"uint256"},{"name":"chainID","type":"uint256","indexed":false,"internalType":"uint256"}],"anonymous":false},{"type":"event","name":"LogFallback","inputs":[{"name":"selector","type":"bytes4","indexed":false,"internalType":"bytes4"},{"name":"data","type":"bytes","indexed":false,"internalType":"bytes"},{"name":"reason","type":"bytes","indexed":false,"internalType":"bytes"}],"anonymous":false},{"type":"event","name":"LogNewTheiaFallBack","inputs":[{"name":"fromTargetStr","type":"string","indexed":false,"internalType":"string"},{"name":"name","type":"string","indexed":false,"internalType":"string"},{"name":"symbol","type":"string","indexed":false,"internalType":"string"},{"name":"underlyingStr","type":"string","indexed":false,"internalType":"string"},{"name":"reason","type":"bytes","indexed":false,"internalType":"bytes"}],"anonymous":false},{"type":"event","name":"LogTxSender","inputs":[{"name":"txSender","type":"address","indexed":true,"internalType":"address"},{"name":"vaild","type":"bool","indexed":false,"internalType":"bool"}],"anonymous":false},{"type":"error","name":"StringsInsufficientHexLength","inputs":[{"name":"value","type":"uint256","internalType":"uint256"},{"name":"length","type":"uint256","internalType":"uint256"}]}],"bytecode":{"object":"0x60a0346200010857601f62005c2638819003918201601f19168301916001600160401b038311848410176200010d5780849260a09460405283398101031262000108576200004d8162000123565b906200005c6020820162000123565b916040820151926200007f6080620000776060860162000123565b940162000123565b9360018060a01b039384918260018060a01b031994168460005416176000556001556202a3006002551690818160035416176003556004541617600455426005551660005260066020526040600020600160ff19825416179055632d1c26f163ffffffff19600e541617600e55608052604051615aed90816200013982396080518161132c0152f35b600080fd5b634e487b7160e01b600052604160045260246000fd5b51906001600160a01b0382168203620001085756fe60a060405260043610156200001357600080fd5b600080608052803560e01c9081630bd47a78146200222457816312d43a51146200220357816313d1995014620021db57816315706fdf146200217b578163207ba6fd14620021585781632238a8a41462000a8e57816325d819a514620019005781632b90a9ae14620003bf5781632d1c26f1146200156c57816354fd4d50146200154c57816358f2c05714620015155781635a0adf2f14620014d55781636a42b8f814620014b35781636d70f7ae14620014615781637a3ff0e4146200143e5781637af30f9a14620013f757816389c0656814620013505781638fd903f514620012fb5781639520b6491462000ff057816399a2f2d71462000fd1578163a962ef1e1462000e7a578163b121f51d1462000ac2578163b3c731b31462000a8e578163c516ad111462000a6c578163c5ef3ec51462000a1c578163d60ad41b1462000957578163dd64b3e6146200078b578163dedfa78914620004fe578163e177246e1462000492578163e28d4906146200042857508063e94aa49114620003bf578063eebd14af14620002e8578063f01f2b8b14620002965763f9e4cbaf14620001bc57600080fd5b34620002905760206003193601126200029057620001d96200256b565b73ffffffffffffffffffffffffffffffffffffffff9081620001fa620027b1565b163314801562000278575b6200021090620027f4565b16806080515260066020527fbfb8b3e2f6221ae729e9cacb0d35f5d9be686ba10cb1d4e34b646bbb87f7a2696020608051604081207fffffffffffffffffffffffffffffffffffffffffffffffffffffffffffffff008154169055604051908152a260805180f35b5062000210620002883362002897565b905062000205565b60805180fd5b3462000290576020600319360112620002905773ffffffffffffffffffffffffffffffffffffffff620002c86200256b565b16608051526006602052602060ff60406080512054166040519015158152f35b34620002905760206003193601126200029057620003056200256b565b73ffffffffffffffffffffffffffffffffffffffff908162000326620027b1565b1633148015620003a7575b6200033c90620027f4565b168060805152600660205260406080512060017fffffffffffffffffffffffffffffffffffffffffffffffffffffffffffffff008254161790557fbfb8b3e2f6221ae729e9cacb0d35f5d9be686ba10cb1d4e34b646bbb87f7a269602060405160018152a260805180f35b506200033c620003b73362002897565b905062000331565b346200029057620004246200040f620004096020620003f8620003e2366200235a565b92908160405193828580945193849201620023a8565b8101600b81520301902090620023cd565b6200244b565b6040519182916020835260208301906200251c565b0390f35b34620002905760206003193601126200029057600435906009548210156200029057602091600973ffffffffffffffffffffffffffffffffffffffff92527f6e1540171b6c0c960b71a7020d9f60077f6af931a8bbf590da0223dacf75c7af015416604051908152f35b3462000290576020600319360112620002905773ffffffffffffffffffffffffffffffffffffffff620004c4620027b1565b1633148015620004e6575b620004da90620027f4565b60043560025560805180f35b50620004da620004f63362002897565b9050620004cf565b3462000290576040600319360112620002905767ffffffffffffffff60043581811162000290576200053590369060040162002308565b906024359081116200029057620005519036906004016200270b565b73ffffffffffffffffffffffffffffffffffffffff62000570620027b1565b163314801562000773575b6200058690620027f4565b805191608051602092838301915b858110620005a25760805180f35b84620005ba620005b3838562002a2e565b5162003410565b604051620005ea620004098851620005d481858b620023a8565b8301928581600a958681520301902084620023cd565b805162000607575b50505050620006019062002a00565b62000594565b8391829188838b604051815162000620818387620023a8565b8101908381600d93848152030190206200063b908a620023cd565b62000646906200244b565b9583604051809285516200065c81848b620023a8565b82019081520301902062000671908a620023cd565b80546200067e90620023f5565b6200068a908262002c76565b8360009b8c97888094556040519283828193519283910191620006ad92620023a8565b8101600b815203019020620006c3908b620023cd565b8054620006d090620023f5565b620006dc908262002c76565b5560405180948193518092620006f292620023a8565b820190815203019020620007079086620023cd565b80546200071490620023f5565b62000720908262002c76565b5560405192838281935192839101916200073a92620023a8565b8101600c8152030190206200074f91620023cd565b80546200075c90620023f5565b62000768908262002c76565b5584878080620005f2565b5062000586620007833362002897565b90506200057b565b346200029057600319606081360112620002905767ffffffffffffffff6004358181116200029057620007c39036906004016200270b565b6024358281116200029057620007de9036906004016200270b565b916044359081116200029057620007fa90369060040162002308565b9073ffffffffffffffffffffffffffffffffffffffff90816200081c620027b1565b16331480156200093f575b6200083290620027f4565b80518451036200090657608051918254169160015490833b15620009035750620008c9620008a4949596620008b5604051988997889687967fec6a8b7d00000000000000000000000000000000000000000000000000000000885260048801526080602488015260848701906200267a565b90838683030160448701526200267a565b90838203016064840152608051966200251c565b0391608051905af18015620008f657620008e4575b60805180f35b620008ef9062002266565b80620008de565b6040513d608051823e3d90fd5b80fd5b60446040517f08c379a0000000000000000000000000000000000000000000000000000000008152602060048201526080516024820152fd5b50620008326200094f3362002897565b905062000827565b3462000290576060600319360112620002905767ffffffffffffffff60043581811162000290576200098e90369060040162002308565b6024358281116200029057620009a990369060040162002308565b6044359283116200029057620009c8620008de93369060040162002308565b9173ffffffffffffffffffffffffffffffffffffffff620009e8620027b1565b163314801562000a04575b620009fe90620027f4565b62002927565b50620009fe62000a143362002897565b9050620009f3565b3462000290576020600319360112620002905760043567ffffffffffffffff8111620002905762000a5e62000a58604092369060040162002308565b620032ac565b825191825215156020820152f35b3462000290576080518060031936011262000903576020600154604051908152f35b346200029057620004246200040f62000409602062000ab1620003e2366200235a565b8101600a81520301902090620023cd565b346200029057600319606081360112620002905767ffffffffffffffff90602435828111620002905762000afb903690600401620026da565b92604435818111620002905762000b17903690600401620026da565b919073ffffffffffffffffffffffffffffffffffffffff60805154169560405180977f7ac07dcc00000000000000000000000000000000000000000000000000000000825233600483015281602460209a8b93608051905af1908115620008f6576080519162000e46575b501562000de8576001546004350362000d8a578060041162000290577fffffffff0000000000000000000000000000000000000000000000000000000090818635166004870192600e5460e01b16811460001462000d25575060e0908601968688030112620002905735828111620002905785600462000c059287010162002308565b926024850135838111620002905786600462000c249288010162002308565b926044860135818111620002905787600462000c439289010162002308565b9662000c52606488016200255c565b506084870135828111620002905781600462000c71928a010162002308565b9060c488013592831162000290577f3ec9548dd637231c9b079c2ab3d9d04e36dfb9e942812d7b6c1c50d48ac127129862000ceb62000d189762000cc762000cfa94600462000d099862000cdd9e010162002308565b506040519a8b9a60a08c5260a08c01906200251c565b8a81038b8f0152906200251c565b9088820360408a01526200251c565b9086820360608801526200251c565b91848303608086015262002df1565b0390a15b60405160018152f35b94917fd1b411598268892b6836c5b922cfa272124f6f0bd3a7cf9f9d408f7e50f2230197965062000d8194509062000d7291604051978897885260608b8901526060880192019062002df1565b91848303604086015262002df1565b0390a162000d1c565b606487604051907f08c379a00000000000000000000000000000000000000000000000000000000082526004820152600f60248201527f646170704944206469736d6174636800000000000000000000000000000000006044820152fd5b606487604051907f08c379a00000000000000000000000000000000000000000000000000000000082526004820152601860248201527f433343616c6c6572446170703a206f6e6c7943616c6c657200000000000000006044820152fd5b62000e6b9150883d8a1162000e72575b62000e628183620022c7565b81019062002797565b8862000b82565b503d62000e56565b3462000290576020600319360112620002905762000e976200256b565b73ffffffffffffffffffffffffffffffffffffffff80918162000eb9620027b1565b163314801562000fb9575b62000ecf90620027f4565b1690811562000f5b5762000ee2620027b1565b1690807fffffffffffffffffffffffff000000000000000000000000000000000000000083816003541617600355600454161760045562000f26600254426200285a565b91826005557f4552e521eca39a029d33503b3e2003db87de01f8396f9e3fdd9dddddb9b838b46020604051468152a460805180f35b60646040517f08c379a000000000000000000000000000000000000000000000000000000000815260206004820152600f60248201527f6e6577476f7620697320656d70747900000000000000000000000000000000006044820152fd5b5062000ecf62000fc93362002897565b905062000ec4565b3462000290576080518060031936011262000903576020604051468152f35b34620002905760c0600319360112620002905767ffffffffffffffff60043581811162000290576200102790369060040162002308565b9060243581811162000290576200104390369060040162002308565b9160443582811162000290576200105f90369060040162002308565b5060643582811162000290576200107b90369060040162002308565b9160843560ff811603620002905760a4359081116200029057620010a490369060040162002308565b9133608051526020906008825260ff60406080512054168015620012e3575b620010ce9062002a9e565b620010d862002b74565b5050506040517f0bd47a780000000000000000000000000000000000000000000000000000000081528260048201528281806200111960248201866200251c565b0381305afa908115620008f65760805191620012c1575b501562001208575b620011809291620008de95620011f792620011e5604051926200118681620011808551968881818901996200116f81838d620023a8565b8101600a8152030190208a620023cd565b62002ca1565b620011b6836200118060405188818651620011a58183858b01620023a8565b8101600b8152030190208a620023cd565b62001180620011d4868b8160405193828580945193849201620023a8565b8101600c81520301902088620023cd565b604051938492839251928391620023a8565b8101600d81520301902090620023cd565b919060075468010000000000000000811015620012905780600162001231920160075562002613565b9190916200126057620008de9584620012536200118096620011f79562002ca1565b9250955091925062001138565b7f4e487b710000000000000000000000000000000000000000000000000000000060805152602460805180600452fd5b7f4e487b71000000000000000000000000000000000000000000000000000000006080515260416004526024608051fd5b620012dc9150833d851162000e725762000e628183620022c7565b8662001130565b50620010ce620012f33362002897565b9050620010c3565b346200029057608051806003193601126200090357602060405173ffffffffffffffffffffffffffffffffffffffff7f0000000000000000000000000000000000000000000000000000000000000000168152f35b346200029057608051806003193601126200090357600754620013738162002543565b90620013836040519283620022c7565b8082526020908183016007608051527fa66cc928b5edb82af9bd49922954155ab7b0942694bea4ce44661d9a8736c68883608051925b848410620013d65760405182815280620004248185018a6200267a565b6001918291620013e6856200244b565b8152019201920191908490620013b9565b3462000290576080518060031936011262000903576020600e5460e01b7fffffffff0000000000000000000000000000000000000000000000000000000060405191168152f35b346200029057620004246200040f620004096020620011f7620003e2366200235a565b3462000290576020600319360112620002905773ffffffffffffffffffffffffffffffffffffffff620014936200256b565b16608051526008602052602060ff60406080512054166040519015158152f35b3462000290576080518060031936011262000903576020600254604051908152f35b346200029057602060031936011262000290576004356007548110156200029057620015019062002613565b62001260576200040f62000424916200244b565b34620002905760805180600319360112620009035773ffffffffffffffffffffffffffffffffffffffff6020915416604051908152f35b346200029057608051806003193601126200090357602060405160018152f35b34620002905760e0600319360112620002905767ffffffffffffffff6004358181116200029057620015a390369060040162002308565b6024358281116200029057620015be90369060040162002308565b906044358381116200029057620015da90369060040162002308565b6064359060ff8216808303620002905760843586811162000290576200160590369060040162002308565b60c43587811162000290576200162090369060040162002308565b923360805152600860205260ff60406080512054168015620018e8575b620016489062002a9e565b6200165262002b74565b97915095620016618462002f30565b996200166d8762002f30565b6040519b6120ef808e0194909385118e8610176200129057868d8f966200169a96620039c9893962002a43565b03986080519960a435918bf58015620018dd5760e095620018a7620018d4967f69d9e20765b8d55ebb4a1405f7664fc9d5d74cbeb6744deba35b1201548c2a419a9662001893620018c5976200186d8f8e819f9a620009fe620017216200171b73ffffffffffffffffffffffffffffffffffffffff620018b69e166200386c565b62003410565b6200185e604051916200173483620022aa565b603a8352620018476200183660208501987f72656769737465724e6577546865696128737472696e672c737472696e672c738a527f7472696e672c737472696e672c75696e74382c737472696e67290000000000006040870152620017ce7fffffffff00000000000000000000000000000000000000000000000000000000620017be466200350b565b9b60405198519020169662002266565b62001825620017f36040519b8c9860208a015260c060248a015260e48901906200251c565b7fffffffffffffffffffffffffffffffffffffffffffffffffffffffffffffffdc95868983030160448a01526200251c565b90848783030160648801526200251c565b828582030160848601528a6200251c565b908c60a48501528382030160c48401528a6200251c565b03601f198101855284620022c7565b620018846040519d8d8f9e8f90815201906200251c565b8c810360208e0152906200251c565b9160408b015289820360608b01526200251c565b9087820360808901526200251c565b9085820360a08701526200251c565b9083820360c08501526200251c565b0390a160805180f35b6040513d8b823e3d90fd5b5062001648620018f83362002897565b90506200163d565b346200029057610100600319360112620002905760043567ffffffffffffffff811162000290576200193790369060040162002308565b60243567ffffffffffffffff811162000290576200195a90369060040162002308565b6044359167ffffffffffffffff831162000290573660238401121562000290578260040135926200198b8462002543565b936200199b6040519586620022c7565b8085526024602086019160051b830101913683116200029057602401905b8282106200213d5750505060643567ffffffffffffffff81116200029057620019e79036906004016200258f565b926084359267ffffffffffffffff8411620002905736602385011215620002905783600401359362001a198562002543565b9462001a296040519687620022c7565b8086526024602087019160051b830101913683116200029057602401905b8282106200212c5750505060a43567ffffffffffffffff8111620002905762001a759036906004016200258f565b9467ffffffffffffffff60e43511620002905762001a993660e4356004016200258f565b9373ffffffffffffffffffffffffffffffffffffffff62001ab9620027b1565b163314801562002114575b62001acf90620027f4565b62001ada306200386c565b60405162001ae881620022aa565b603d81527f6465706c6f79546865696128737472696e672c737472696e672c737472696e6760208201527f2c75696e74382c737472696e672c627974657333322c737472696e67290000006040820152875197865189148062002109575b80620020fe575b156200207a576080515b89811062001b655760805180f35b62001b7c62001b75828462002a2e565b51620036b5565b9062001be262001bdb62001bb273ffffffffffffffffffffffffffffffffffffffff62001baa858c62002a2e565b51166200386c565b93604051602081875162001bca8183858c01620023a8565b8101600c81520301902090620023cd565b54620023f5565b62001fd05786918a8a4662001bf8858862002a2e565b510362001e085762001c3f8473ffffffffffffffffffffffffffffffffffffffff62001c368260ff62001c2d82859862002a2e565b51169962002a2e565b51169362002a2e565b51169360405194856120ef81011067ffffffffffffffff6120ef880111176200129057859262001c7f926120ef620039c986398d8c6120ef870162002a43565b03926080519360c4359185f592831562001dfc575062001cc46200171b73ffffffffffffffffffffffffffffffffffffffff62001cbc466200350b565b95166200386c565b62001cd0838c62002a2e565b506040517f0bd47a78000000000000000000000000000000000000000000000000000000008152602060048201819052818062001d11602482018f6200251c565b0381305afa8015620008f6578b916080519162001dd8575b501562001d7a575b62001d7494620011f7602062001d6e95946200118094620011e5604051926200118681620011808551968881818901996200116f81838d620023a8565b62002a00565b62001b57565b50906007805468010000000000000000811015620012905762001da39160018201905562002613565b620012605762001d7494620011f7602062001d6e958e62001dc981620011809762002ca1565b94509495505050945062001d31565b62001df5915060203d60201162000e725762000e628183620022c7565b3862001d29565b604051903d90823e3d90fd5b505050905062001e19818c62002a2e565b5173ffffffffffffffffffffffffffffffffffffffff1662001e3b906200386c565b62001e47828462002a2e565b5162001e5390620036b5565b62001e5f838b62002a2e565b5160ff1690838c62001e72828c62002a2e565b5173ffffffffffffffffffffffffffffffffffffffff1662001e94906200386c565b9162001ea09162002a2e565b5173ffffffffffffffffffffffffffffffffffffffff1662001ec2906200386c565b8b60405192895160208b01207fffffffff00000000000000000000000000000000000000000000000000000000169362001efc9062002266565b60405195869460208601526024850160e09052610104850162001f20908d6200251c565b928d7fffffffffffffffffffffffffffffffffffffffffffffffffffffffffffffffdc948588820301604489015262001f59916200251c565b8487820301606488015262001f6e916200251c565b906084860152828582030160a486015262001f89916200251c565b9060c48035908501528382030160e484015262001fa6916200251c565b03601f198101835262001fba9083620022c7565b62001fc59262002927565b62001d749062002a00565b60a46040517f08c379a000000000000000000000000000000000000000000000000000000000815260206004820152605c60248201527f546865696120506f6f6c4465706c6f7965723a20556e6465726c79696e67206160448201527f73736574206f66207468697320636861696e20697320616c726561647920617360648201527f7369676e656420746f206120746865696120706f6f6c20746f6b656e000000006084820152fd5b60846040517f08c379a000000000000000000000000000000000000000000000000000000000815260206004820152603860248201527f546865696120506f6f6c4465706c6f7965723a20496e70757420617267756d6560448201527f6e74206c656e6774687320617265206e6f7420657175616c00000000000000006064820152fd5b508951891462001b4d565b508451891462001b46565b5062001acf620021243362002897565b905062001ac4565b813581526020918201910162001a47565b602080916200214c846200255c565b815201910190620019b9565b346200029057620004246200040f62000409602062001bca620003e2366200235a565b3462000290576020600319360112620002905760043567ffffffffffffffff81116200029057620021bd620021b7602092369060040162002308565b62002f30565b73ffffffffffffffffffffffffffffffffffffffff60405191168152f35b3462000290576020620021f9620021f2366200235a565b9062002e68565b6040519015158152f35b3462000290576080518060031936011262000903576020620021bd620027b1565b346200090357602060031936011262000903576004359067ffffffffffffffff821162000903576020620021f962002260366004860162002308565b62002e12565b67ffffffffffffffff81116200227b57604052565b7f4e487b7100000000000000000000000000000000000000000000000000000000600052604160045260246000fd5b6060810190811067ffffffffffffffff8211176200227b57604052565b90601f601f19910116810190811067ffffffffffffffff8211176200227b57604052565b67ffffffffffffffff81116200227b57601f01601f191660200190565b81601f8201121562002355578035906200232282620022eb565b92620023326040519485620022c7565b828452602083830101116200235557816000926020809301838601378301015290565b600080fd5b906040600319830112620023555767ffffffffffffffff6004358181116200235557836200238b9160040162002308565b926024359182116200235557620023a59160040162002308565b90565b60005b838110620023bc5750506000910152565b8181015183820152602001620023ab565b602090620023e9928260405194838680955193849201620023a8565b82019081520301902090565b90600182811c9216801562002440575b60208310146200241157565b7f4e487b7100000000000000000000000000000000000000000000000000000000600052602260045260246000fd5b91607f169162002405565b90604051918260008254926200246184620023f5565b908184526001948581169081600014620024d8575060011462002491575b50506200248f92500383620022c7565b565b9093915060005260209081600020936000915b818310620024bf5750506200248f935082010138806200247f565b85548884018501529485019487945091830191620024a4565b90506200248f9550602093507fffffffffffffffffffffffffffffffffffffffffffffffffffffffffffffff0091501682840152151560051b82010138806200247f565b90601f19601f6020936200253c81518092818752878088019101620023a8565b0116010190565b67ffffffffffffffff81116200227b5760051b60200190565b359060ff821682036200235557565b6004359073ffffffffffffffffffffffffffffffffffffffff821682036200235557565b81601f820112156200235557803591620025a98362002543565b92620025b96040519485620022c7565b808452602092838086019260051b82010192831162002355578301905b828210620025e5575050505090565b813573ffffffffffffffffffffffffffffffffffffffff8116810362002355578152908301908301620025d6565b6007548110156200264b5760076000527fa66cc928b5edb82af9bd49922954155ab7b0942694bea4ce44661d9a8736c6880190600090565b7f4e487b7100000000000000000000000000000000000000000000000000000000600052603260045260246000fd5b908082519081815260208091019281808460051b8301019501936000915b848310620026a95750505050505090565b9091929394958480620026c983601f1986600196030187528a516200251c565b980193019301919493929062002698565b9181601f84011215620023555782359167ffffffffffffffff83116200235557602083818601950101116200235557565b9080601f830112156200235557813590620027268262002543565b92620027366040519485620022c7565b828452602092838086019160051b830101928084116200235557848301915b848310620027665750505050505090565b823567ffffffffffffffff8111620023555786916200278b8484809489010162002308565b81520192019162002755565b908160209103126200235557518015158103620023555790565b600554421015620027d85773ffffffffffffffffffffffffffffffffffffffff6003541690565b73ffffffffffffffffffffffffffffffffffffffff6004541690565b15620027fc57565b60646040517f08c379a000000000000000000000000000000000000000000000000000000000815260206004820152600d60248201527f476f7620464f5242494444454e000000000000000000000000000000000000006044820152fd5b919082018092116200286857565b7f4e487b7100000000000000000000000000000000000000000000000000000000600052601160045260246000fd5b602073ffffffffffffffffffffffffffffffffffffffff6024816000541693600060405195869485937f7ac07dcc0000000000000000000000000000000000000000000000000000000085521660048401525af19081156200291b57600091620028ff575090565b620023a5915060203d811162000e725762000e628183620022c7565b6040513d6000823e3d90fd5b92919060009173ffffffffffffffffffffffffffffffffffffffff8354169160015491833b15620029fc579184602081959382620029d0620029ab9a9b97620029bf6040519c8d9a8b997f27a63fd8000000000000000000000000000000000000000000000000000000008b5260048b015260a060248b015260a48a01906200251c565b60031995868a83030160448b01526200251c565b90848883030160648901526200251c565b85810392830160848701525201925af190811562001dfc5750620029f15750565b6200248f9062002266565b8480fd5b7fffffffffffffffffffffffffffffffffffffffffffffffffffffffffffffffff8114620028685760010190565b80518210156200264b5760209160051b010190565b939162002a7460ff9162002a6560809699989460a0895260a08901906200251c565b9087820360208901526200251c565b9616604085015273ffffffffffffffffffffffffffffffffffffffff809216606085015216910152565b1562002aa657565b60846040517f08c379a000000000000000000000000000000000000000000000000000000000815260206004820152602260248201527f54686569612053746167696e675661756c743a204155544820464f524249444460448201527f454e0000000000000000000000000000000000000000000000000000000000006064820152fd5b81601f820112156200235557805162002b4381620022eb565b9262002b536040519485620022c7565b818452602082840101116200235557620023a59160208085019101620023a8565b60046000918273ffffffffffffffffffffffffffffffffffffffff815416604051938480927fd0496d6a0000000000000000000000000000000000000000000000000000000082525afa91821562002c5257839084809462002bd8575b5050929190565b93509350503d8083853e62002bee8185620022c7565b830160608482031262002c4e5783519360208101519067ffffffffffffffff9182811162002c4a578362002c2491830162002b2a565b94604082015192831162000903575062002c4092910162002b2a565b9192388062002bd1565b8580fd5b8280fd5b6040513d85823e3d90fd5b81811062002c69575050565b6000815560010162002c5d565b90601f811162002c84575050565b6200248f91600052601f6020600020910160051c81019062002c5d565b919091825167ffffffffffffffff81116200227b5762002cc28254620023f5565b601f811162002daf575b50602080601f831160011462002d2957508192939460009262002d1d575b50507fffffffffffffffffffffffffffffffffffffffffffffffffffffffffffffffff8260011b9260031b1c1916179055565b01519050388062002cea565b90601f198316958460005282600020926000905b88821062002d965750508360019596971062002d5e575b505050811b019055565b01517fffffffffffffffffffffffffffffffffffffffffffffffffffffffffffffffff60f88460031b161c1916905538808062002d54565b8060018596829496860151815501950193019062002d3d565b62002ddf90836000526020600020601f840160051c8101916020851062002de6575b601f0160051c019062002c5d565b3862002ccc565b909150819062002dd1565b601f8260209493601f19938186528686013760008582860101520116010190565b6007549060005b82811062002e2957505050600090565b62002e4a62002e4362002e3c8362002613565b506200244b565b8362002e68565b62002e605762002e5a9062002a00565b62002e19565b505050600190565b90604051918262002e8660208201926020845260408301906200251c565b039262002e9c601f1994858101835282620022c7565b5190209162002ece604051918262002ec160208201956020875260408301906200251c565b03908101835282620022c7565b5190201490565b9062002ee182620022eb565b62002ef06040519182620022c7565b828152601f1962002f028294620022eb565b0190602036910137565b9081518110156200264b570160200190565b60ff16600a019060ff82116200286857565b602a815103620030ed576040516040810181811067ffffffffffffffff8211176200227b576040526014908181526020810192602036853760005b83811062002fc75750505191517fffffffffffffffffffffffffffffffffffffffff000000000000000000000000928382169280821062002fb2575b505050905060601c90565b849293500360031b1b16168038808062002fa7565b8060011b60029082810482148315171562002868578082018092116200286857620030236200301b927fff000000000000000000000000000000000000000000000000000000000000009384918762002f0c565b51166200317d565b90600491821b90610ff060f0831692168203620030bf576003908101809111620030bf57906200301b92916200305f8560ff9586938a62002f0c565b1601918211620030915750906200308b929160f81b1660001a62003084828662002f0c565b5362002a00565b62002f6b565b6011907f4e487b71000000000000000000000000000000000000000000000000000000006000525260246000fd5b6011837f4e487b71000000000000000000000000000000000000000000000000000000006000525260246000fd5b60646040517f08c379a000000000000000000000000000000000000000000000000000000000815260206004820152601660248201527f496e76616c69642061646472657373206c656e677468000000000000000000006044820152fd5b60ff7fffffffffffffffffffffffffffffffffffffffffffffffffffffffffffffffd09116019060ff82116200286857565b60f81c603081101580620032a0575b156200319d57620023a5906200314b565b60618110158062003294575b15620031eb5760ff620031dd7fffffffffffffffffffffffffffffffffffffffffffffffffffffffffffffff9f9262002f1e565b160160ff8111620028685790565b60418110158062003288575b6200325a5760646040517f08c379a000000000000000000000000000000000000000000000000000000000815260206004820152601560248201527f496e76616c6964206865782063686172616374657200000000000000000000006044820152fd5b60ff620031dd7fffffffffffffffffffffffffffffffffffffffffffffffffffffffffffffffbf9262002f1e565b506046811115620031f7565b506066811115620031a9565b5060398111156200318c565b90600080835115620034075780915b8451831015620033fd57620032d1838662002f0c565b5190620032e260f892831c6200314b565b5060ff9160098362003302620032f9888b62002f0c565b51841c6200314b565b1611620033f35762003323906200331a868962002f0c565b51901c6200314b565b918651858103908111620033c6577fffffffffffffffffffffffffffffffffffffffffffffffffffffffffffffffff8101908111620033c657604d8111620033c657600a0a9216828102928184041490151715620033995762003392916200338b916200285a565b9262002a00565b91620032bb565b6024837f4e487b710000000000000000000000000000000000000000000000000000000081526011600452fd5b6024857f4e487b710000000000000000000000000000000000000000000000000000000081526011600452fd5b5050509250508190565b9350600192915050565b92506001919050565b906200341d825162002ed5565b60005b8351811015620035065762003436818562002f0c565b5190604160f892831c101580620034ec575b15620034a85760206200345c828762002f0c565b51831c019160ff83116200286857620034a2927fff00000000000000000000000000000000000000000000000000000000000000911b1660001a62003084828562002f0c565b62003420565b620034a291507fff00000000000000000000000000000000000000000000000000000000000000620034db828762002f0c565b511660001a62003084828562002f0c565b50605a620034fb828762002f0c565b51831c111562003448565b509150565b806000917a184f03e93ff9f4daa797ed6e38ed64bf6a1f01000000000000000080821015620036a6575b506d04ee2d6d415b85acef81000000008083101562003696575b50662386f26fc100008083101562003686575b506305f5e1008083101562003676575b506127108083101562003666575b50606482101562003655575b600a809210156200364a575b60019081602181860195601f19620035cd620035b489620022eb565b98620035c46040519a8b620022c7565b808a52620022eb565b01366020890137860101905b620035e6575b5050505090565b7fffffffffffffffffffffffffffffffffffffffffffffffffffffffffffffffff849101917f30313233343536373839616263646566000000000000000000000000000000008282061a8353049182156200364457919082620035d9565b620035df565b916001019162003598565b91906064600291049101916200358c565b6004919392049101913862003580565b6008919392049101913862003572565b6010919392049101913862003562565b602091939204910191386200354f565b60409350810491503862003535565b8060008160801c806200385f575b508260401c8062003853575b508260201c8062003847575b5060109280841c8062003839575b5060081c62003830575b600180910190829082811b947f7fffffffffffffffffffffffffffffffffffffffffffffffffffffffffffffff841684036200286857600286018087116200286857620037409062002ed5565b958651156200264b576030602088015386518310156200264b5760786021880153828101809111620028685791905b818311620037bb575050506200378457505090565b60449250604051917fe22e27eb00000000000000000000000000000000000000000000000000000000835260048301526024820152fd5b909192600f8116828110156200264b577f3031323334353637383961626364656600000000000000000000000000000000901a620037fa858962002f0c565b5360041c92801562002868577fffffffffffffffffffffffffffffffffffffffffffffffffffffffffffffffff0191906200376f565b600101620036f3565b6002915091019038620036e9565b925060040138620036db565b925060080138620036cf565b92506010905038620036c3565b80604051916200387c83620022aa565b602a83526020830160403682378351156200264b576030905382516001908110156200264b57607860218501536029905b808211620038f8575050620038c0575090565b604490604051907fe22e27eb000000000000000000000000000000000000000000000000000000008252600482015260146024820152fd5b9091600f811660108110156200399a577f3031323334353637383961626364656600000000000000000000000000000000901a62003937848762002f0c565b5360041c9180156200396c577fffffffffffffffffffffffffffffffffffffffffffffffffffffffffffffffff0190620038ad565b602460007f4e487b710000000000000000000000000000000000000000000000000000000081526011600452fd5b602460007f4e487b710000000000000000000000000000000000000000000000000000000081526032600452fdfe60c0604090808252346200050c57620020ef803803809162000022828562000511565b833981019060a0818303126200050c5780516001600160401b0392908381116200050c57816200005491840162000535565b9060209081840151908582116200050c576200007291850162000535565b6200007f868501620005ac565b936200009c60806200009460608401620005bb565b9201620005bb565b95620151806005558451818111620004f6576000938454916001978884811c94168015620004eb575b88851014620004d7578190601f9485811162000484575b5088908583116001146200042057889262000414575b5050600019600383901b1c191690881b1785555b8051928311620004005786548781811c91168015620003f5575b87821014620003e157908183859493116200038c575b5086918311600114620003285785926200031c575b5050600019600383901b1c191690851b1784555b846080528060a05260ff19956004958588885416178755868560018060a01b03809516806200024f575b50505050169360018060a01b0319958587600854161760085585835260068452848884209182541617905560075493680100000000000000008510156200023c578401806007558410156200022957506007815220019182541617905551611b1e9081620005d1823960805181610bc9015260a051818181610308015281816104e201528181610a2001528181610a840152818161149d01526114ff0152f35b634e487b7160e01b825260329052602490fd5b634e487b7160e01b835260418252602483fd5b8b5163313ce56760e01b815292839182905afa90811562000312578591620002cd575b5060ff8091169116036200028a573886858262000189565b875162461bcd60e51b8152808701859052601d60248201527f5468656961546f6b656e3a20646563696d616c73206469736d617463680000006044820152606490fd5b90508581813d83116200030a575b620002e7818362000511565b81010312620003065760ff620002fe8192620005ac565b915062000272565b8480fd5b503d620002db565b8a513d87823e3d90fd5b0151905038806200014b565b8786528686208894509190601f198416875b898282106200037557505084116200035b575b505050811b0184556200015f565b015160001960f88460031b161c191690553880806200034d565b8385015186558b979095019493840193016200033a565b909192508786528686208380860160051c820192898710620003d7575b9186958b929594930160051c01915b828110620003c857505062000136565b8881558695508a9101620003b8565b92508192620003a9565b634e487b7160e01b86526022600452602486fd5b90607f169062000120565b634e487b7160e01b85526041600452602485fd5b015190503880620000f2565b8880528989208b94509190601f1984168a5b8c8282106200046d575050841162000453575b505050811b01855562000106565b015160001960f88460031b161c1916905538808062000445565b8385015186558e9790950194938401930162000432565b9091508780528888208580850160051c8201928b8610620004cd575b918c91869594930160051c01915b828110620004be575050620000dc565b8a81558594508c9101620004ae565b92508192620004a0565b634e487b7160e01b87526022600452602487fd5b93607f1693620000c5565b634e487b7160e01b600052604160045260246000fd5b600080fd5b601f909101601f19168101906001600160401b03821190821017620004f657604052565b919080601f840112156200050c578251906001600160401b038211620004f6576040519160209162000571601f8301601f191684018562000511565b8184528282870101116200050c5760005b8181106200059857508260009394955001015290565b858101830151848201840152820162000582565b519060ff821682036200050c57565b51906001600160a01b03821682036200050c5756fe60406080815260048036101561001457600080fd5b600091823560e01c91826239d6ec14611135578262f714ce1461110c57826306fdde0314611050578263095ea7b314610fd15782630d707df814610ea257826311756bd114610e8357826318160ddd14610e6457826323b872dd14610c455782632678224714610c105782632e1a7d4d14610bed578263313ce56714610baf5782633ccfd60b14610b8557826340c10f1914610b565782634e67428d14610acd57826369b4117014610aae5782636e553f6514610a445782636f307dc3146109f3578263704b6c021461096d57826370a08231146109295782638623ec7b146108d95782638da5cb5b146108a457826391c5df491461086f57826395d89b41146107355782639dc29fac146106ef578263a045442c14610610578263a9059cbb14610550578263aa271e1a14610507578263b6b55f25146104aa578263bebbf4d01461045f578263c308124014610440578263cfbd4885146103cd578263d0e30db0146102df57508163d6c79751146102c4578163dd62ed3e1461026e578163f887ea4014610235575063fca3b5aa146101ad57600080fd5b34610232576020600319360112610232576101c6611193565b73ffffffffffffffffffffffffffffffffffffffff906101eb8260085416331461131a565b166101f781151561137f565b7fffffffffffffffffffffffff0000000000000000000000000000000000000000600954161760095561022c600554426113e4565b600a5580f35b80fd5b90503461026a578160031936011261026a5760209073ffffffffffffffffffffffffffffffffffffffff600854169051908152f35b5080fd5b90503461026a578060031936011261026a578060209261028c611193565b6102946111bb565b73ffffffffffffffffffffffffffffffffffffffff9182168352600d865283832091168252845220549051908152f35b90503461026a578160031936011261026a5751908152602090f35b90833461023257806003193601126102325773ffffffffffffffffffffffffffffffffffffffff7f000000000000000000000000000000000000000000000000000000000000000016928251907f70a082310000000000000000000000000000000000000000000000000000000082523390820152602081602481875afa9182156103c257809261038c575b6020846103858561037e8130338c611898565b3390611485565b9051908152f35b9091506020823d82116103ba575b816103a7602093836111de565b810103126102325750518261037e61036b565b3d915061039a565b8351903d90823e3d90fd5b83823461026a57602060031936011261026a576103e8611193565b73ffffffffffffffffffffffffffffffffffffffff9061040d8260085416331461131a565b168252600660205281207fffffffffffffffffffffffffffffffffffffffffffffffffffffffffffffff00815416905580f35b83823461026a578160031936011261026a57602090600a549051908152f35b908334610232578160031936011261023257506103856020926104806111bb565b906104a473ffffffffffffffffffffffffffffffffffffffff60085416331461131a565b35611485565b90833461023257602060031936011261023257506103856020923561037e81303373ffffffffffffffffffffffffffffffffffffffff7f000000000000000000000000000000000000000000000000000000000000000016611898565b83823461026a57602060031936011261026a5760ff8160209373ffffffffffffffffffffffffffffffffffffffff61053d611193565b1681526006855220541690519015158152f35b83823461026a578060031936011261026a5761056a611193565b73ffffffffffffffffffffffffffffffffffffffff1660243581151580610606575b156106025782602094338152600286526105b583838320546105b08282101561180d565b611671565b3382526002875282822055838152206105cf8282546113e4565b905582519081527fddf252ad1be2c89b69c2b068fc378daa952ba7f163c4a11628f55a4df523b3ef843392a35160018152f35b8380fd5b503082141561058c565b5082346102325780600319360112610232579080519182906007549182855260208095018093600784527fa66cc928b5edb82af9bd49922954155ab7b0942694bea4ce44661d9a8736c68890845b8181106106c557505050816106749103826111de565b83519485948186019282875251809352850193925b82811061069857505050500390f35b835173ffffffffffffffffffffffffffffffffffffffff1685528695509381019392810192600101610689565b825473ffffffffffffffffffffffffffffffffffffffff168452928801926001928301920161065e565b83823461026a578060031936011261026a5761072e60209261072560ff84610715611193565b9333815260068852205416611420565b6024359061167e565b5160018152f35b91503461086b578260031936011261086b5780519183600180549182821c928281168015610861575b602095868610821461083557508488529081156107f5575060011461079d575b610799868661078f828b03836111de565b519182918261124e565b0390f35b9295508083527fb10e2d527612073b26eecdfd717e6a320cf44b4afac2b0732d9fcbe2b7fa0cf65b8284106107e257505050826107999461078f92820101943861077e565b80548685018801529286019281016107c5565b7fffffffffffffffffffffffffffffffffffffffffffffffffffffffffffffff001687860152505050151560051b830101925061078f826107993861077e565b8360226024927f4e487b7100000000000000000000000000000000000000000000000000000000835252fd5b93607f169361075e565b8280fd5b83823461026a578160031936011261026a5760209073ffffffffffffffffffffffffffffffffffffffff600954169051908152f35b83823461026a578160031936011261026a5760209073ffffffffffffffffffffffffffffffffffffffff600854169051908152f35b9091503461086b57602060031936011261086b573591600754831015610232575073ffffffffffffffffffffffffffffffffffffffff61091a6020936112b4565b92905490519260031b1c168152f35b83823461026a57602060031936011261026a578060209273ffffffffffffffffffffffffffffffffffffffff61095d611193565b1681526002845220549051908152f35b833461023257602060031936011261023257610987611193565b73ffffffffffffffffffffffffffffffffffffffff906109ac8260085416331461131a565b166109b881151561137f565b7fffffffffffffffffffffffff0000000000000000000000000000000000000000600b541617600b556109ed600554426113e4565b600c5580f35b83823461026a578160031936011261026a576020905173ffffffffffffffffffffffffffffffffffffffff7f0000000000000000000000000000000000000000000000000000000000000000168152f35b9083346102325781600319360112610232575061038560209235610a666111bb565b90610aa981303373ffffffffffffffffffffffffffffffffffffffff7f000000000000000000000000000000000000000000000000000000000000000016611898565b611485565b83823461026a578160031936011261026a576020906005549051908152f35b833461023257806003193601126102325760085473ffffffffffffffffffffffffffffffffffffffff610b03818316331461131a565b600b5490811680151580610b4a575b15610602577fffffffffffffffffffffffff00000000000000000000000000000000000000008093161760085516600b5580600c5580f35b50600c54421015610b12565b83823461026a578060031936011261026a5761072e602092610b7c60ff84610715611193565b602435906115a0565b83823461026a578160031936011261026a57610385602092338152600284528233912054336114e5565b83823461026a578160031936011261026a576020905160ff7f0000000000000000000000000000000000000000000000000000000000000000168152f35b9083346102325760206003193601126102325750610385602092339035336114e5565b83823461026a578160031936011261026a5760209073ffffffffffffffffffffffffffffffffffffffff600b54169051908152f35b9091503461086b57606060031936011261086b57610c61611193565b90610c6a6111bb565b6044359073ffffffffffffffffffffffffffffffffffffffff8091169384151580610e5a575b15610e56571691338303610d0b575b5060207fddf252ad1be2c89b69c2b068fc378daa952ba7f163c4a11628f55a4df523b3ef9185878584995260028452610ce283838320546105b08282101561180d565b868252600285528282205586815220610cfc8282546113e4565b90558551908152a35160018152f35b828652602090600d8252858720338852825285872054907fffffffffffffffffffffffffffffffffffffffffffffffffffffffffffffffff8203610d51575b5050610c9f565b838210610dd4575091856020978893867f8c5be1e5ebec7d5bd14f71427d1e84f3dd0314c0f7b2291e5b200ac8c7c3b925610dad867fddf252ad1be2c89b69c2b068fc378daa952ba7f163c4a11628f55a4df523b3ef99611671565b92828552600d81528585203386528152838686205585519384523393a39750819350610d4a565b608490838851917f08c379a0000000000000000000000000000000000000000000000000000000008352820152602560248201527f546865696145524332303a2072657175657374206578636565647320616c6c6f60448201527f77616e63650000000000000000000000000000000000000000000000000000006064820152fd5b8680fd5b5030851415610c90565b83823461026a578160031936011261026a576020906003549051908152f35b83823461026a578160031936011261026a57602090600c549051908152f35b9091503461086b578260031936011261086b5773ffffffffffffffffffffffffffffffffffffffff91610eda8360085416331461131a565b82600954168015801580610fc5575b15610fc157610fbd5784526006602052832060017fffffffffffffffffffffffffffffffffffffffffffffffffffffffffffffff008254161790558160095416906007549068010000000000000000821015610f915750806001610f5092016007556112b4565b909283549160031b92831b921b19161790557fffffffffffffffffffffffff00000000000000000000000000000000000000006009541660095580600a5580f35b8460416024927f4e487b7100000000000000000000000000000000000000000000000000000000835252fd5b8480fd5b8580fd5b50600a54421015610ee9565b83823461026a578060031936011261026a5760209181610fef611193565b91602435918291338152600d875273ffffffffffffffffffffffffffffffffffffffff8282209516948582528752205582519081527f8c5be1e5ebec7d5bd14f71427d1e84f3dd0314c0f7b2291e5b200ac8c7c3b925843392a35160018152f35b91503461086b578260031936011261086b578051918380549060019082821c928281168015611102575b602095868610821461083557508488529081156107f557506001146110aa57610799868661078f828b03836111de565b8080949750527f290decd9548b62a8d60345a988386fc84ba6bc95484008f6362f93160ef3e5635b8284106110ef57505050826107999461078f92820101943861077e565b80548685018801529286019281016110d2565b93607f169361107a565b9083346102325781600319360112610232575061038560209261112d6111bb565b9035336114e5565b83823461026a57606060031936011261026a57611150611193565b6044359273ffffffffffffffffffffffffffffffffffffffff9081851685036102325750926103859161118a60209560085416331461131a565b602435906114e5565b6004359073ffffffffffffffffffffffffffffffffffffffff821682036111b657565b600080fd5b6024359073ffffffffffffffffffffffffffffffffffffffff821682036111b657565b90601f7fffffffffffffffffffffffffffffffffffffffffffffffffffffffffffffffe0910116810190811067ffffffffffffffff82111761121f57604052565b7f4e487b7100000000000000000000000000000000000000000000000000000000600052604160045260246000fd5b60208082528251818301819052939260005b8581106112a0575050507fffffffffffffffffffffffffffffffffffffffffffffffffffffffffffffffe0601f8460006040809697860101520116010190565b818101830151848201604001528201611260565b6007548110156112eb5760076000527fa66cc928b5edb82af9bd49922954155ab7b0942694bea4ce44661d9a8736c6880190600090565b7f4e487b7100000000000000000000000000000000000000000000000000000000600052603260045260246000fd5b1561132157565b60646040517f08c379a000000000000000000000000000000000000000000000000000000000815260206004820152601560248201527f546865696145524332303a206e6f742041646d696e00000000000000000000006044820152fd5b1561138657565b60646040517f08c379a000000000000000000000000000000000000000000000000000000000815260206004820152601660248201527f546865696145524332303a2061646472657373283029000000000000000000006044820152fd5b919082018092116113f157565b7f4e487b7100000000000000000000000000000000000000000000000000000000600052601160045260246000fd5b1561142757565b60646040517f08c379a000000000000000000000000000000000000000000000000000000000815260206004820152601660248201527f546865696145524332303a206e6f74204d696e746572000000000000000000006044820152fd5b9073ffffffffffffffffffffffffffffffffffffffff7f00000000000000000000000000000000000000000000000000000000000000001680151590816114da575b50156111b657816114d7916115a0565b90565b9050301415386114c7565b909173ffffffffffffffffffffffffffffffffffffffff807f0000000000000000000000000000000000000000000000000000000000000000169283151580611596575b156111b657846115389161167e565b604051917fa9059cbb00000000000000000000000000000000000000000000000000000000602084015216602482015282604482015260448152608081019181831067ffffffffffffffff84111761121f576114d792604052611916565b5030841415611529565b73ffffffffffffffffffffffffffffffffffffffff16908115611613577fddf252ad1be2c89b69c2b068fc378daa952ba7f163c4a11628f55a4df523b3ef6020826115ef6000946003546113e4565b60035584845260028252604084206116088282546113e4565b9055604051908152a3565b60646040517f08c379a000000000000000000000000000000000000000000000000000000000815260206004820152601f60248201527f45524332303a206d696e7420746f20746865207a65726f2061646472657373006044820152fd5b919082039182116113f157565b73ffffffffffffffffffffffffffffffffffffffff1680156117895780600052600260205260406000205491808310611705576020816116e17fddf252ad1be2c89b69c2b068fc378daa952ba7f163c4a11628f55a4df523b3ef93600096611671565b8486526002835260408620556116f981600354611671565b600355604051908152a3565b60846040517f08c379a000000000000000000000000000000000000000000000000000000000815260206004820152602260248201527f45524332303a206275726e20616d6f756e7420657863656564732062616c616e60448201527f63650000000000000000000000000000000000000000000000000000000000006064820152fd5b60846040517f08c379a000000000000000000000000000000000000000000000000000000000815260206004820152602160248201527f45524332303a206275726e2066726f6d20746865207a65726f2061646472657360448201527f73000000000000000000000000000000000000000000000000000000000000006064820152fd5b1561181457565b60846040517f08c379a000000000000000000000000000000000000000000000000000000000815260206004820152602b60248201527f546865696145524332303a207472616e7366657220616d6f756e74206578636560448201527f6564732062616c616e63650000000000000000000000000000000000000000006064820152fd5b9290604051927f23b872dd00000000000000000000000000000000000000000000000000000000602085015273ffffffffffffffffffffffffffffffffffffffff809216602485015216604483015260648201526064815260a081019181831067ffffffffffffffff84111761121f5761191492604052611916565b565b73ffffffffffffffffffffffffffffffffffffffff1690600080826020829451910182865af13d15611a3c573d9067ffffffffffffffff8211611a0f579061199e916040519161198e60207fffffffffffffffffffffffffffffffffffffffffffffffffffffffffffffffe0601f84011601846111de565b82523d84602084013e5b84611a48565b9081519182151592836119e7575b5050506119b65750565b602490604051907f5274afe70000000000000000000000000000000000000000000000000000000082526004820152fd5b81929350906020918101031261026a57602001519081159182150361023257503880806119ac565b6024837f4e487b710000000000000000000000000000000000000000000000000000000081526041600452fd5b61199e90606090611998565b90611a875750805115611a5d57805190602001fd5b60046040517f1425ea42000000000000000000000000000000000000000000000000000000008152fd5b81511580611adf575b611a98575090565b60249073ffffffffffffffffffffffffffffffffffffffff604051917f9996b315000000000000000000000000000000000000000000000000000000008352166004820152fd5b50803b15611a9056fea26469706673582212203480e3dbfab8fad9363a58bef5ff43427003f763337317438b635c682f521eb464736f6c63430008140033a264697066735822122002e180c665843671cd229a4404e2659be6138d37875e999781a4a1c981a78be964736f6c63430008140033","linkReferences":{}},"methodIdentifiers":{"FuncDeployTheia()":"7af30f9a","addTxSender(address)":"eebd14af","c3CallerProxy()":"58f2c057","c3Fallback(uint256,bytes,bytes)":"b121f51d","cID()":"99a2f2d7","changeGov(address)":"a962ef1e","dappID()":"c516ad11","delay()":"6a42b8f8","deployTheia(string,string,string,uint8,string,bytes32,string)":"2d1c26f1","disableTxSender(address)":"f9e4cbaf","doGov(string,string,bytes)":"d60ad41b","doGovBroadcast(string[],string[],bytes)":"dd64b3e6","getPoolTokens()":"89c06568","getSymbolByToken(string,string)":"e94aa491","getTokenBySymbol(string,string)":"b3c731b3","gov()":"12d43a51","isOperator(address)":"6d70f7ae","isValidSender(address)":"f01f2b8b","newTheiaTokenEVM(string,string,uint8[],address[],uint256[],address[],bytes32,address[])":"25d819a5","operators(uint256)":"e28d4906","poolTokenSymbols(uint256)":"5a0adf2f","registerNewTheia(string,string,string,string,uint8,string)":"9520b649","removeTheiaTokenChainId(string,string[])":"dedfa789","setDelay(uint256)":"e177246e","strToUint(string)":"c5ef3ec5","stringToAddress(string)":"15706fdf","stringsEqual(string,string)":"13d19950","symbolToToken(string,string)":"2238a8a4","symbolToUnderlying(string,string)":"7a3ff0e4","tokenSymbolExists(string)":"0bd47a78","tokenToSymbol(string,string)":"2b90a9ae","underlyingByChainId(string,string)":"207ba6fd","version()":"54fd4d50","wNATIVE()":"8fd903f5"},"id":17}