{"abi":[{"type":"constructor","inputs":[{"name":"_txSender","type":"address","internalType":"address"},{"name":"_c3callerProxy","type":"address","internalType":"address"},{"name":"_dappID","type":"uint256","internalType":"uint256"},{"name":"_gov","type":"address","internalType":"address"},{"name":"_wNATIVE","type":"address","internalType":"address"}],"stateMutability":"nonpayable"},{"type":"function","name":"FuncDeployTheia","inputs":[],"outputs":[{"name":"","type":"bytes4","internalType":"bytes4"}],"stateMutability":"view"},{"type":"function","name":"addTxSender","inputs":[{"name":"txSender","type":"address","internalType":"address"}],"outputs":[],"stateMutability":"nonpayable"},{"type":"function","name":"c3CallerProxy","inputs":[],"outputs":[{"name":"","type":"address","internalType":"address"}],"stateMutability":"view"},{"type":"function","name":"c3Fallback","inputs":[{"name":"_dappID","type":"uint256","internalType":"uint256"},{"name":"_data","type":"bytes","internalType":"bytes"},{"name":"_reason","type":"bytes","internalType":"bytes"}],"outputs":[{"name":"","type":"bool","internalType":"bool"}],"stateMutability":"nonpayable"},{"type":"function","name":"cID","inputs":[],"outputs":[{"name":"","type":"uint256","internalType":"uint256"}],"stateMutability":"view"},{"type":"function","name":"changeGov","inputs":[{"name":"newGov","type":"address","internalType":"address"}],"outputs":[],"stateMutability":"nonpayable"},{"type":"function","name":"dappID","inputs":[],"outputs":[{"name":"","type":"uint256","internalType":"uint256"}],"stateMutability":"view"},{"type":"function","name":"delay","inputs":[],"outputs":[{"name":"","type":"uint256","internalType":"uint256"}],"stateMutability":"view"},{"type":"function","name":"deployTheia","inputs":[{"name":"_fromChainIdStr","type":"string","internalType":"string"},{"name":"_name","type":"string","internalType":"string"},{"name":"_symbol","type":"string","internalType":"string"},{"name":"_decimals","type":"uint8","internalType":"uint8"},{"name":"_underlyingStr","type":"string","internalType":"string"},{"name":"_salt","type":"bytes32","internalType":"bytes32"},{"name":"_routerStr","type":"string","internalType":"string"}],"outputs":[],"stateMutability":"nonpayable"},{"type":"function","name":"disableTxSender","inputs":[{"name":"txSender","type":"address","internalType":"address"}],"outputs":[],"stateMutability":"nonpayable"},{"type":"function","name":"doGov","inputs":[{"name":"_to","type":"string","internalType":"string"},{"name":"_toChainID","type":"string","internalType":"string"},{"name":"_data","type":"bytes","internalType":"bytes"}],"outputs":[],"stateMutability":"nonpayable"},{"type":"function","name":"doGovBroadcast","inputs":[{"name":"_targets","type":"string[]","internalType":"string[]"},{"name":"_toChainIDs","type":"string[]","internalType":"string[]"},{"name":"_data","type":"bytes","internalType":"bytes"}],"outputs":[],"stateMutability":"nonpayable"},{"type":"function","name":"getPoolTokens","inputs":[],"outputs":[{"name":"","type":"string[]","internalType":"string[]"}],"stateMutability":"view"},{"type":"function","name":"getSymbolByToken","inputs":[{"name":"tokenStr","type":"string","internalType":"string"},{"name":"toChainIdStr","type":"string","internalType":"string"}],"outputs":[{"name":"tokenSymbol","type":"string","internalType":"string"}],"stateMutability":"view"},{"type":"function","name":"getTokenBySymbol","inputs":[{"name":"tokenSymbol","type":"string","internalType":"string"},{"name":"toChainIdStr","type":"string","internalType":"string"}],"outputs":[{"name":"tokenStr","type":"string","internalType":"string"}],"stateMutability":"view"},{"type":"function","name":"gov","inputs":[],"outputs":[{"name":"","type":"address","internalType":"address"}],"stateMutability":"view"},{"type":"function","name":"isOperator","inputs":[{"name":"","type":"address","internalType":"address"}],"outputs":[{"name":"","type":"bool","internalType":"bool"}],"stateMutability":"view"},{"type":"function","name":"isValidSender","inputs":[{"name":"txSender","type":"address","internalType":"address"}],"outputs":[{"name":"","type":"bool","internalType":"bool"}],"stateMutability":"view"},{"type":"function","name":"newTheiaTokenEVM","inputs":[{"name":"_name","type":"string","internalType":"string"},{"name":"_symbol","type":"string","internalType":"string"},{"name":"_decimals","type":"uint8[]","internalType":"uint8[]"},{"name":"_underlying","type":"address[]","internalType":"address[]"},{"name":"_chainIds","type":"uint256[]","internalType":"uint256[]"},{"name":"_salt","type":"bytes32","internalType":"bytes32"},{"name":"_router","type":"address[]","internalType":"address[]"}],"outputs":[],"stateMutability":"nonpayable"},{"type":"function","name":"operators","inputs":[{"name":"","type":"uint256","internalType":"uint256"}],"outputs":[{"name":"","type":"address","internalType":"address"}],"stateMutability":"view"},{"type":"function","name":"poolChains","inputs":[{"name":"","type":"string","internalType":"string"},{"name":"","type":"uint256","internalType":"uint256"}],"outputs":[{"name":"","type":"string","internalType":"string"}],"stateMutability":"view"},{"type":"function","name":"poolTokenSymbols","inputs":[{"name":"","type":"uint256","internalType":"uint256"}],"outputs":[{"name":"","type":"string","internalType":"string"}],"stateMutability":"view"},{"type":"function","name":"setDelay","inputs":[{"name":"_delay","type":"uint256","internalType":"uint256"}],"outputs":[],"stateMutability":"nonpayable"},{"type":"function","name":"strToUint","inputs":[{"name":"_str","type":"string","internalType":"string"}],"outputs":[{"name":"res","type":"uint256","internalType":"uint256"},{"name":"err","type":"bool","internalType":"bool"}],"stateMutability":"pure"},{"type":"function","name":"stringToAddress","inputs":[{"name":"str","type":"string","internalType":"string"}],"outputs":[{"name":"","type":"address","internalType":"address"}],"stateMutability":"pure"},{"type":"function","name":"stringsEqual","inputs":[{"name":"a","type":"string","internalType":"string"},{"name":"b","type":"string","internalType":"string"}],"outputs":[{"name":"","type":"bool","internalType":"bool"}],"stateMutability":"pure"},{"type":"function","name":"symbolToToken","inputs":[{"name":"","type":"string","internalType":"string"},{"name":"","type":"string","internalType":"string"}],"outputs":[{"name":"","type":"string","internalType":"string"}],"stateMutability":"view"},{"type":"function","name":"tokenSymbolExists","inputs":[{"name":"tokenSymbol","type":"string","internalType":"string"}],"outputs":[{"name":"","type":"bool","internalType":"bool"}],"stateMutability":"view"},{"type":"function","name":"tokenToSymbol","inputs":[{"name":"","type":"string","internalType":"string"},{"name":"","type":"string","internalType":"string"}],"outputs":[{"name":"","type":"string","internalType":"string"}],"stateMutability":"view"},{"type":"function","name":"version","inputs":[],"outputs":[{"name":"","type":"uint256","internalType":"uint256"}],"stateMutability":"pure"},{"type":"function","name":"wNATIVE","inputs":[],"outputs":[{"name":"","type":"address","internalType":"address"}],"stateMutability":"view"},{"type":"event","name":"LogChangeGov","inputs":[{"name":"oldGov","type":"address","indexed":true,"internalType":"address"},{"name":"newGov","type":"address","indexed":true,"internalType":"address"},{"name":"effectiveTime","type":"uint256","indexed":true,"internalType":"uint256"},{"name":"chainID","type":"uint256","indexed":false,"internalType":"uint256"}],"anonymous":false},{"type":"event","name":"LogFallback","inputs":[{"name":"selector","type":"bytes4","indexed":false,"internalType":"bytes4"},{"name":"data","type":"bytes","indexed":false,"internalType":"bytes"},{"name":"reason","type":"bytes","indexed":false,"internalType":"bytes"}],"anonymous":false},{"type":"event","name":"LogNewTheiaFallBack","inputs":[{"name":"chainIdStr","type":"string","indexed":false,"internalType":"string"},{"name":"name","type":"string","indexed":false,"internalType":"string"},{"name":"symbol","type":"string","indexed":false,"internalType":"string"},{"name":"underlyingStr","type":"string","indexed":false,"internalType":"string"}],"anonymous":false},{"type":"event","name":"LogTxSender","inputs":[{"name":"txSender","type":"address","indexed":true,"internalType":"address"},{"name":"vaild","type":"bool","indexed":false,"internalType":"bool"}],"anonymous":false},{"type":"error","name":"StringsInsufficientHexLength","inputs":[{"name":"value","type":"uint256","internalType":"uint256"},{"name":"length","type":"uint256","internalType":"uint256"}]}],"bytecode":{"object":"0x60a0346200010857601f62004daf38819003918201601f19168301916001600160401b038311848410176200010d5780849260a09460405283398101031262000108576200004d8162000123565b906200005c6020820162000123565b916040820151926200007f6080620000776060860162000123565b940162000123565b9360018060a01b039384918260018060a01b031994168460005416176000556001556202a3006002551690818160035416176003556004541617600455426005551660005260066020526040600020600160ff19825416179055632d1c26f163ffffffff19600d541617600d55608052604051614c769081620001398239608051816114720152f35b600080fd5b634e487b7160e01b600052604160045260246000fd5b51906001600160a01b0382168203620001085756fe608060405260043610156200001357600080fd5b600060e08135811c9081630bd47a7814620019c457816312d43a5114620019a557816313d19950146200197c57816315706fdf146200191b5781632238a8a41462000eeb57816326620409146200189b5781632b90a9ae14620018775781632d1c26f114620016ad57816354fd4d50146200168f57816358f2c057146200165a5781635a0adf2f14620015ea5781636a42b8f814620015ca5781636d70f7ae146200157c5781637af30f9a146200153657816389c0656814620014965781638fd903f5146200144357816399a2f2d71462001426578163a962ef1e14620012d1578163b121f51d1462000f20578163b3c731b31462000eeb578163b6027b87146200086857508063c516ad111462000848578063c5ef3ec514620007f7578063d60ad41b146200068b578063dd64b3e614620004c3578063e177246e1462000459578063e28d490614620003ed578063e94aa4911462000383578063eebd14af14620002b2578063f01f2b8b14620002645763f9e4cbaf146200019557600080fd5b34620002615760206003193601126200026157620001b262001d86565b73ffffffffffffffffffffffffffffffffffffffff9081620001d362001f9c565b163314801562000249575b620001e99062001fdf565b168082526006602052604082207fffffffffffffffffffffffffffffffffffffffffffffffffffffffffffffff0081541690557fbfb8b3e2f6221ae729e9cacb0d35f5d9be686ba10cb1d4e34b646bbb87f7a2696020604051848152a280f35b50620001e9620002593362002082565b9050620001de565b80fd5b503462000261576020600319360112620002615760ff604060209273ffffffffffffffffffffffffffffffffffffffff6200029e62001d86565b168152600684522054166040519015158152f35b5034620002615760206003193601126200026157620002d062001d86565b73ffffffffffffffffffffffffffffffffffffffff9081620002f162001f9c565b16331480156200036b575b620003079062001fdf565b1680825260066020526040822060017fffffffffffffffffffffffffffffffffffffffffffffffffffffffffffffff008254161790557fbfb8b3e2f6221ae729e9cacb0d35f5d9be686ba10cb1d4e34b646bbb87f7a269602060405160018152a280f35b50620003076200037b3362002082565b9050620002fc565b50346200026157620003e9620003d4620003ce6020620003bd620003a73662001b1a565b9290816040519382858094519384920162001b68565b8101600b8152030190209062001b8d565b62001bb5565b60405191829160208352602083019062001ccb565b0390f35b5034620002615760206003193601126200026157600435906009548210156200026157602073ffffffffffffffffffffffffffffffffffffffff8360096000527f6e1540171b6c0c960b71a7020d9f60077f6af931a8bbf590da0223dacf75c7af015416604051908152f35b503462000261576020600319360112620002615773ffffffffffffffffffffffffffffffffffffffff6200048c62001f9c565b1633148015620004ab575b620004a29062001fdf565b60043560025580f35b50620004a2620004bb3362002082565b905062000497565b50346200026157600319606081360112620006875767ffffffffffffffff906004358281116200068357620004fd90369060040162001ef6565b906024358381116200067f576200051990369060040162001ef6565b926044359081116200067f576200053590369060040162001ac8565b9173ffffffffffffffffffffffffffffffffffffffff806200055662001f9c565b163314801562000667575b6200056c9062001fdf565b81518551036200062f57908593929184541691600154833b156200062b57620005fe8692620005dd96620005ee6040519a8b998a9889977fec6a8b7d000000000000000000000000000000000000000000000000000000008952600489015260806024890152608488019062001daa565b908487830301604488015262001daa565b9184830301606485015262001ccb565b03925af18015620006205762000612575080f35b6200061d9062001a07565b80f35b6040513d84823e3d90fd5b8580fd5b604486604051907f08c379a0000000000000000000000000000000000000000000000000000000008252602060048301526024820152fd5b506200056c620006773362002082565b905062000561565b8480fd5b8380fd5b5080fd5b5034620002615760031960608136011262000687578167ffffffffffffffff600435818111620007f357620006c590369060040162001ac8565b906024358181116200068357620006e190369060040162001ac8565b906044359081116200068357620006fd90369060040162001ac8565b9073ffffffffffffffffffffffffffffffffffffffff806200071e62001f9c565b1633148015620007db575b620007349062001fdf565b8454169160015491833b156200062b57620007999686620007bb8194620007aa6020956040519c8d9b8c9a7f27a63fd8000000000000000000000000000000000000000000000000000000008c5260048c015260a060248c015260a48b019062001ccb565b90868a83030160448b015262001ccb565b908488830301606489015262001ccb565b85810392830160848701525201925af18015620006205762000612575080f35b5062000734620007eb3362002082565b905062000729565b8280fd5b50346200026157602060031936011262000261576004359067ffffffffffffffff8211620002615760406200083a62000834366004860162001ac8565b62002670565b825191825215156020820152f35b503462000261578060031936011262000261576020600154604051908152f35b9050346200068757600319360112620002615760043567ffffffffffffffff811162000687576200089e90369060040162001ac8565b60243567ffffffffffffffff8111620007f357620008c190369060040162001ac8565b906044359167ffffffffffffffff83116200068357366023840112156200068357826004013592620008f38462001e59565b9362000903604051958662001a4b565b8085526024602086019160051b8301019136831162000eb757602401905b82821062000ed05750505060643567ffffffffffffffff81116200067f576200094f90369060040162001e72565b67ffffffffffffffff608435116200067f573660236084350112156200067f57620009806084356004013562001e59565b6200098f604051918262001a4b565b60046084359081013580835260051b016024016020820136821162000ecc57602460843501905b82821062000ebb5750505060c43567ffffffffffffffff811162000eb757620009e490369060040162001e72565b9073ffffffffffffffffffffffffffffffffffffffff62000a0462001f9c565b163314801562000e9f575b62000a1a9062001fdf565b62000a2546620027d4565b956040519687606081011067ffffffffffffffff60608a01111762000e725760608801604052603d88527f6465706c6f79546865696128737472696e672c737472696e672c737472696e6760208901527f2c75696e74382c737472696e672c627974657333322c737472696e67290000006040890152825197895b89811062000aac578a80f35b4662000ab9828762002140565b510362000bad5760ff62000ace828662002140565b511673ffffffffffffffffffffffffffffffffffffffff62000af1838a62002140565b511673ffffffffffffffffffffffffffffffffffffffff62000b14848a62002140565b51169060405192836120ef81011067ffffffffffffffff6120ef8601111762000b805783928d949262000b5a928e6120ef62002b52873960a435976120ef870162002155565b03908df51562000b755762000b6f9062002112565b62000aa0565b6040513d8c823e3d90fd5b60248f7f4e487b710000000000000000000000000000000000000000000000000000000081526041600452fd5b62000bb846620027d4565b908b8962000bc7838862002140565b5160ff1662000bd7848c62002140565b5173ffffffffffffffffffffffffffffffffffffffff1662000bf990620029cf565b8d62000c06868d62002140565b5173ffffffffffffffffffffffffffffffffffffffff1662000c2890620029cf565b9160405193895160208b01207fffffffff00000000000000000000000000000000000000000000000000000000169462000c629062001a07565b60405195869560208701526024860160c0905260e4860162000c85908d62001ccb565b937fffffffffffffffffffffffffffffffffffffffffffffffffffffffffffffffdc948588820301604489015262000cbd9162001ccb565b8487820301606488015262000cd29162001ccb565b906084860152828582030160a486015262000ced9162001ccb565b908382030160c484015262000d029162001ccb565b037fffffffffffffffffffffffffffffffffffffffffffffffffffffffffffffffe08101825262000d34908262001a4b565b815473ffffffffffffffffffffffffffffffffffffffff169060015494823b15620006835794919083906040519687947f27a63fd8000000000000000000000000000000000000000000000000000000008652600486015260a060248601526060518060a4870152835b81811062000e575750839262000df960209360c47fffffffffffffffffffffffffffffffffffffffffffffffffffffffffffffffe0601f868c9a8462000e0c998d0101520116880160c08982030160448a0152019062001ccb565b9060031986830301606487015262001ccb565b8284820391600319830160848701525201925af191821562000e4c5762000b6f9262000e3a575b5062002112565b62000e459062001a07565b3862000e33565b6040513d8e823e3d90fd5b60808101518a820160c4015289965087945060200162000d9e565b6024897f4e487b710000000000000000000000000000000000000000000000000000000081526041600452fd5b5062000a1a62000eaf3362002082565b905062000a0f565b8680fd5b8135815260209182019101620009b6565b8780fd5b6020809162000edf8462001d77565b81520191019062000921565b82346200026157620003e9620003d4620003ce602062000f0f620003a73662001b1a565b8101600a8152030190209062001b8d565b90503462000687578160031991606083360112620006875767ffffffffffffffff602435818111620006835762000f5c90369060040162001e28565b90926044358381116200062b5762000f7990369060040162001e28565b73ffffffffffffffffffffffffffffffffffffffff879492945416604051907f7ac07dcc0000000000000000000000000000000000000000000000000000000082523360048301528160248160209d8e945af1908115620012c657889162001292575b5015620012345760015460043503620011d6578160041162000eb7577fffffffff000000000000000000000000000000000000000000000000000000009384873516916004880195600d54861b1683146000146200116e57505050840195848703011262000683573581811162000683578460046200105e9285010162001ac8565b9360248301358281116200067f578160046200107d9286010162001ac8565b9160448401358181116200062b578260046200109c9287010162001ac8565b93620010ab6064820162001d77565b50608481013582811162000eb757836004620010ca9284010162001ac8565b9560c4820135928311620002615750936200114362001161946200111f620011359895600462001152967f357ddcf5a21886b3b6ac1b5577fda0adff08f58e830073ebd8387dd4add1289d9c9a010162001ac8565b5060405197889760808952608089019062001ccb565b908782038b89015262001ccb565b90858203604087015262001ccb565b90838203606085015262001ccb565b0390a15b60405160018152f35b9350937fd1b411598268892b6836c5b922cfa272124f6f0bd3a7cf9f9d408f7e50f22301989750620011be92919650620011cd9550604051978897885260608b89015260608801920190620021b0565b918483036040860152620021b0565b0390a162001165565b606489604051907f08c379a00000000000000000000000000000000000000000000000000000000082526004820152600f60248201527f646170704944206469736d6174636800000000000000000000000000000000006044820152fd5b606489604051907f08c379a00000000000000000000000000000000000000000000000000000000082526004820152601860248201527f433343616c6c6572446170703a206f6e6c7943616c6c657200000000000000006044820152fd5b620012b791508a3d8c11620012be575b620012ae818362001a4b565b81019062001f82565b3862000fdc565b503d620012a2565b6040513d8a823e3d90fd5b8234620002615760206003193601126200026157620012ef62001d86565b73ffffffffffffffffffffffffffffffffffffffff8091816200131162001f9c565b16331480156200140e575b620013279062001fdf565b16908115620013b0576200133a62001f9c565b1690807fffffffffffffffffffffffff00000000000000000000000000000000000000008381600354161760035560045416176004556200137e6002544262002045565b91826005557f4552e521eca39a029d33503b3e2003db87de01f8396f9e3fdd9dddddb9b838b46020604051468152a480f35b60646040517f08c379a000000000000000000000000000000000000000000000000000000000815260206004820152600f60248201527f6e6577476f7620697320656d70747900000000000000000000000000000000006044820152fd5b50620013276200141e3362002082565b90506200131c565b823462000261578060031936011262000261576020604051468152f35b82346200026157806003193601126200026157602060405173ffffffffffffffffffffffffffffffffffffffff7f0000000000000000000000000000000000000000000000000000000000000000168152f35b8234620002615780600319360112620002615760075490620014b88262001e59565b91620014c8604051938462001a4b565b808352600782526020917fa66cc928b5edb82af9bd49922954155ab7b0942694bea4ce44661d9a8736c688838086015b848410620015155760405182815280620003e98185018a62001daa565b6001918291620015258562001bb5565b8152019201920191908490620014f8565b9050346200068757816003193601126200068757602090600d54901b7fffffffff0000000000000000000000000000000000000000000000000000000060405191168152f35b823462000261576020600319360112620002615760ff604060209273ffffffffffffffffffffffffffffffffffffffff620015b662001d86565b168152600884522054166040519015158152f35b823462000261578060031936011262000261576020600254604051908152f35b82346200026157602060031936011262000261576004356007548110156200068757620016179062001d10565b9190916200162e57620003e9620003d48362001bb5565b807f4e487b71000000000000000000000000000000000000000000000000000000006024925280600452fd5b8234620002615780600319360112620002615773ffffffffffffffffffffffffffffffffffffffff6020915416604051908152f35b82346200026157806003193601126200026157602060405160018152f35b9050346200068757600319360112620002615767ffffffffffffffff600435818111620007f357620016e490369060040162001ac8565b50602435818111620007f3576200170090369060040162001ac8565b60443582811162000683576200171b90369060040162001ac8565b60643560ff811681036200067f576084358481116200062b576200174490369060040162001ac8565b9060c43585811162000eb7576200176090369060040162001ac8565b91338752600860205260ff604088205416801562001865575b15620017e1576200178e6200179591620022f4565b92620022f4565b92604051946120ef808701978789109089111762000e72579186959391620017c8959362002b52883960a4359862002155565b039083f515620017d55780f35b604051903d90823e3d90fd5b60846040517f08c379a000000000000000000000000000000000000000000000000000000000815260206004820152602260248201527f54686569612053746167696e675661756c743a204155544820464f524249444460448201527f454e0000000000000000000000000000000000000000000000000000000000006064820152fd5b50620018713362002082565b62001779565b82346200026157620003e9620003d4620003ce6020620003bd620003a73662001b1a565b823462000261576040600319360112620002615760043567ffffffffffffffff81116200068757620018d290369060040162001ac8565b620018f0602060243592816040519382858094519384920162001b68565b8101600c8152030190208054821015620007f35790602083620003d493620003e99552200162001bb5565b82346200026157602060031936011262000261576004359067ffffffffffffffff8211620002615760206200195e62001958366004860162001ac8565b620022f4565b73ffffffffffffffffffffffffffffffffffffffff60405191168152f35b8234620002615760206200199b620019943662001b1a565b9062002245565b6040519015158152f35b8234620002615780600319360112620002615760206200195e62001f9c565b82346200026157602060031936011262000261576004359067ffffffffffffffff8211620002615760206200199b62001a01366004860162001ac8565b620021ef565b67ffffffffffffffff811162001a1c57604052565b7f4e487b7100000000000000000000000000000000000000000000000000000000600052604160045260246000fd5b90601f7fffffffffffffffffffffffffffffffffffffffffffffffffffffffffffffffe0910116810190811067ffffffffffffffff82111762001a1c57604052565b67ffffffffffffffff811162001a1c57601f017fffffffffffffffffffffffffffffffffffffffffffffffffffffffffffffffe01660200190565b81601f8201121562001b155780359062001ae28262001a8d565b9262001af2604051948562001a4b565b8284526020838301011162001b1557816000926020809301838601378301015290565b600080fd5b90604060031983011262001b155767ffffffffffffffff60043581811162001b15578362001b4b9160040162001ac8565b9260243591821162001b155762001b659160040162001ac8565b90565b60005b83811062001b7c5750506000910152565b818101518382015260200162001b6b565b60209062001ba992826040519483868095519384920162001b68565b82019081520301902090565b90604051906000835490600182811c9080841696871562001cc0575b602094858410891462001c93578798848997989952908160001462001c50575060011462001c0d575b50505062001c0b9250038362001a4b565b565b600090815285812095935091905b81831062001c3757505062001c0b935082010138808062001bfa565b8554888401850152948501948794509183019162001c1b565b91505062001c0b9593507fffffffffffffffffffffffffffffffffffffffffffffffffffffffffffffff0091501682840152151560051b82010138808062001bfa565b6024857f4e487b710000000000000000000000000000000000000000000000000000000081526022600452fd5b91607f169162001bd1565b907fffffffffffffffffffffffffffffffffffffffffffffffffffffffffffffffe0601f60209362001d098151809281875287808801910162001b68565b0116010190565b60075481101562001d485760076000527fa66cc928b5edb82af9bd49922954155ab7b0942694bea4ce44661d9a8736c6880190600090565b7f4e487b7100000000000000000000000000000000000000000000000000000000600052603260045260246000fd5b359060ff8216820362001b1557565b6004359073ffffffffffffffffffffffffffffffffffffffff8216820362001b1557565b908082519081815260208091019281808460051b8301019501936000915b84831062001dd95750505050505090565b909192939495848062001e17837fffffffffffffffffffffffffffffffffffffffffffffffffffffffffffffffe086600196030187528a5162001ccb565b980193019301919493929062001dc8565b9181601f8401121562001b155782359167ffffffffffffffff831162001b15576020838186019501011162001b1557565b67ffffffffffffffff811162001a1c5760051b60200190565b81601f8201121562001b155780359162001e8c8362001e59565b9262001e9c604051948562001a4b565b808452602092838086019260051b82010192831162001b15578301905b82821062001ec8575050505090565b813573ffffffffffffffffffffffffffffffffffffffff8116810362001b1557815290830190830162001eb9565b9080601f8301121562001b155781359062001f118262001e59565b9262001f21604051948562001a4b565b828452602092838086019160051b8301019280841162001b1557848301915b84831062001f515750505050505090565b823567ffffffffffffffff811162001b1557869162001f768484809489010162001ac8565b81520192019162001f40565b9081602091031262001b155751801515810362001b155790565b60055442101562001fc35773ffffffffffffffffffffffffffffffffffffffff6003541690565b73ffffffffffffffffffffffffffffffffffffffff6004541690565b1562001fe757565b60646040517f08c379a000000000000000000000000000000000000000000000000000000000815260206004820152600d60248201527f476f7620464f5242494444454e000000000000000000000000000000000000006044820152fd5b919082018092116200205357565b7f4e487b7100000000000000000000000000000000000000000000000000000000600052601160045260246000fd5b602073ffffffffffffffffffffffffffffffffffffffff6024816000541693600060405195869485937f7ac07dcc0000000000000000000000000000000000000000000000000000000085521660048401525af19081156200210657600091620020ea575090565b62001b65915060203d8111620012be57620012ae818362001a4b565b6040513d6000823e3d90fd5b7fffffffffffffffffffffffffffffffffffffffffffffffffffffffffffffffff8114620020535760010190565b805182101562001d485760209160051b010190565b93916200218660ff916200217760809699989460a0895260a089019062001ccb565b90878203602089015262001ccb565b9616604085015273ffffffffffffffffffffffffffffffffffffffff809216606085015216910152565b601f82602094937fffffffffffffffffffffffffffffffffffffffffffffffffffffffffffffffe0938186528686013760008582860101520116010190565b6007549060005b8281106200220657505050600090565b6200222762002220620022198362001d10565b5062001bb5565b8362002245565b6200223d57620022379062002112565b620021f6565b505050600190565b90604051918262002263602082019260208452604083019062001ccb565b0392620022977fffffffffffffffffffffffffffffffffffffffffffffffffffffffffffffffe09485810183528262001a4b565b51902091620022c96040519182620022bc602082019560208752604083019062001ccb565b0390810183528262001a4b565b5190201490565b90815181101562001d48570160200190565b60ff16600a019060ff82116200205357565b602a815103620024b1576040516040810181811067ffffffffffffffff82111762001a1c576040526014908181526020810192602036853760005b8381106200238b5750505191517fffffffffffffffffffffffffffffffffffffffff000000000000000000000000928382169280821062002376575b505050905060601c90565b849293500360031b1b1616803880806200236b565b8060011b60029082810482148315171562002053578082018092116200205357620023e7620023df927fff0000000000000000000000000000000000000000000000000000000000000093849187620022d0565b511662002541565b90600491821b90610ff060f083169216820362002483576003908101809111620024835790620023df9291620024238560ff9586938a620022d0565b1601918211620024555750906200244f929160f81b1660001a620024488286620022d0565b5362002112565b6200232f565b6011907f4e487b71000000000000000000000000000000000000000000000000000000006000525260246000fd5b6011837f4e487b71000000000000000000000000000000000000000000000000000000006000525260246000fd5b60646040517f08c379a000000000000000000000000000000000000000000000000000000000815260206004820152601660248201527f496e76616c69642061646472657373206c656e677468000000000000000000006044820152fd5b60ff7fffffffffffffffffffffffffffffffffffffffffffffffffffffffffffffffd09116019060ff82116200205357565b60f81c60308110158062002664575b15620025615762001b65906200250f565b60618110158062002658575b15620025af5760ff620025a17fffffffffffffffffffffffffffffffffffffffffffffffffffffffffffffff9f92620022e2565b160160ff8111620020535790565b6041811015806200264c575b6200261e5760646040517f08c379a000000000000000000000000000000000000000000000000000000000815260206004820152601560248201527f496e76616c6964206865782063686172616374657200000000000000000000006044820152fd5b60ff620025a17fffffffffffffffffffffffffffffffffffffffffffffffffffffffffffffffbf92620022e2565b506046811115620025bb565b5060668111156200256d565b50603981111562002550565b90600080835115620027cb5780915b8451831015620027c157620026958386620022d0565b5190620026a660f892831c6200250f565b5060ff91600983620026c6620026bd888b620022d0565b51841c6200250f565b1611620027b757620026e790620026de8689620022d0565b51901c6200250f565b9186518581039081116200278a577fffffffffffffffffffffffffffffffffffffffffffffffffffffffffffffffff81019081116200278a57604d81116200278a57600a0a92168281029281840414901517156200275d5762002756916200274f9162002045565b9262002112565b916200267f565b6024837f4e487b710000000000000000000000000000000000000000000000000000000081526011600452fd5b6024857f4e487b710000000000000000000000000000000000000000000000000000000081526011600452fd5b5050509250508190565b9350600192915050565b92506001919050565b8060008160801c80620029c2575b508260401c80620029b6575b508260201c80620029aa575b5060109280841c806200299c575b5060081c62002993575b600180910190829082811b947f7fffffffffffffffffffffffffffffffffffffffffffffffffffffffffffffff841684036200205357600286019586811162002053576200287d620028648862001a8d565b9762002874604051998a62001a4b565b80895262001a8d565b7fffffffffffffffffffffffffffffffffffffffffffffffffffffffffffffffe060208901910136823787511562001d485760309053865183101562001d485760786021880153828101809111620020535791905b8183116200291e57505050620028e757505090565b60449250604051917fe22e27eb00000000000000000000000000000000000000000000000000000000835260048301526024820152fd5b909192600f81168281101562001d48577f3031323334353637383961626364656600000000000000000000000000000000901a6200295d8589620022d0565b5360041c92801562002053577fffffffffffffffffffffffffffffffffffffffffffffffffffffffffffffffff019190620028d2565b60010162002812565b600291509101903862002808565b925060040138620027fa565b925060080138620027ee565b92506010905038620027e2565b73ffffffffffffffffffffffffffffffffffffffff1680604051916060830183811067ffffffffffffffff82111762001a1c57604052602a835260208301604036823783511562001d485760309053825160019081101562001d4857607860218501536029905b80821162002a8157505062002a49575090565b604490604051907fe22e27eb000000000000000000000000000000000000000000000000000000008252600482015260146024820152fd5b9091600f8116601081101562002b23577f3031323334353637383961626364656600000000000000000000000000000000901a62002ac08487620022d0565b5360041c91801562002af5577fffffffffffffffffffffffffffffffffffffffffffffffffffffffffffffffff019062002a36565b602460007f4e487b710000000000000000000000000000000000000000000000000000000081526011600452fd5b602460007f4e487b710000000000000000000000000000000000000000000000000000000081526032600452fdfe60c0604090808252346200050c57620020ef803803809162000022828562000511565b833981019060a0818303126200050c5780516001600160401b0392908381116200050c57816200005491840162000535565b9060209081840151908582116200050c576200007291850162000535565b6200007f868501620005ac565b936200009c60806200009460608401620005bb565b9201620005bb565b95620151806005558451818111620004f6576000938454916001978884811c94168015620004eb575b88851014620004d7578190601f9485811162000484575b5088908583116001146200042057889262000414575b5050600019600383901b1c191690881b1785555b8051928311620004005786548781811c91168015620003f5575b87821014620003e157908183859493116200038c575b5086918311600114620003285785926200031c575b5050600019600383901b1c191690851b1784555b846080528060a05260ff19956004958588885416178755868560018060a01b03809516806200024f575b50505050169360018060a01b0319958587600854161760085585835260068452848884209182541617905560075493680100000000000000008510156200023c578401806007558410156200022957506007815220019182541617905551611b1e9081620005d1823960805181610bc9015260a051818181610308015281816104e201528181610a2001528181610a840152818161149d01526114ff0152f35b634e487b7160e01b825260329052602490fd5b634e487b7160e01b835260418252602483fd5b8b5163313ce56760e01b815292839182905afa90811562000312578591620002cd575b5060ff8091169116036200028a573886858262000189565b875162461bcd60e51b8152808701859052601d60248201527f5468656961546f6b656e3a20646563696d616c73206469736d617463680000006044820152606490fd5b90508581813d83116200030a575b620002e7818362000511565b81010312620003065760ff620002fe8192620005ac565b915062000272565b8480fd5b503d620002db565b8a513d87823e3d90fd5b0151905038806200014b565b8786528686208894509190601f198416875b898282106200037557505084116200035b575b505050811b0184556200015f565b015160001960f88460031b161c191690553880806200034d565b8385015186558b979095019493840193016200033a565b909192508786528686208380860160051c820192898710620003d7575b9186958b929594930160051c01915b828110620003c857505062000136565b8881558695508a9101620003b8565b92508192620003a9565b634e487b7160e01b86526022600452602486fd5b90607f169062000120565b634e487b7160e01b85526041600452602485fd5b015190503880620000f2565b8880528989208b94509190601f1984168a5b8c8282106200046d575050841162000453575b505050811b01855562000106565b015160001960f88460031b161c1916905538808062000445565b8385015186558e9790950194938401930162000432565b9091508780528888208580850160051c8201928b8610620004cd575b918c91869594930160051c01915b828110620004be575050620000dc565b8a81558594508c9101620004ae565b92508192620004a0565b634e487b7160e01b87526022600452602487fd5b93607f1693620000c5565b634e487b7160e01b600052604160045260246000fd5b600080fd5b601f909101601f19168101906001600160401b03821190821017620004f657604052565b919080601f840112156200050c578251906001600160401b038211620004f6576040519160209162000571601f8301601f191684018562000511565b8184528282870101116200050c5760005b8181106200059857508260009394955001015290565b858101830151848201840152820162000582565b519060ff821682036200050c57565b51906001600160a01b03821682036200050c5756fe60406080815260048036101561001457600080fd5b600091823560e01c91826239d6ec14611135578262f714ce1461110c57826306fdde0314611050578263095ea7b314610fd15782630d707df814610ea257826311756bd114610e8357826318160ddd14610e6457826323b872dd14610c455782632678224714610c105782632e1a7d4d14610bed578263313ce56714610baf5782633ccfd60b14610b8557826340c10f1914610b565782634e67428d14610acd57826369b4117014610aae5782636e553f6514610a445782636f307dc3146109f3578263704b6c021461096d57826370a08231146109295782638623ec7b146108d95782638da5cb5b146108a457826391c5df491461086f57826395d89b41146107355782639dc29fac146106ef578263a045442c14610610578263a9059cbb14610550578263aa271e1a14610507578263b6b55f25146104aa578263bebbf4d01461045f578263c308124014610440578263cfbd4885146103cd578263d0e30db0146102df57508163d6c79751146102c4578163dd62ed3e1461026e578163f887ea4014610235575063fca3b5aa146101ad57600080fd5b34610232576020600319360112610232576101c6611193565b73ffffffffffffffffffffffffffffffffffffffff906101eb8260085416331461131a565b166101f781151561137f565b7fffffffffffffffffffffffff0000000000000000000000000000000000000000600954161760095561022c600554426113e4565b600a5580f35b80fd5b90503461026a578160031936011261026a5760209073ffffffffffffffffffffffffffffffffffffffff600854169051908152f35b5080fd5b90503461026a578060031936011261026a578060209261028c611193565b6102946111bb565b73ffffffffffffffffffffffffffffffffffffffff9182168352600d865283832091168252845220549051908152f35b90503461026a578160031936011261026a5751908152602090f35b90833461023257806003193601126102325773ffffffffffffffffffffffffffffffffffffffff7f000000000000000000000000000000000000000000000000000000000000000016928251907f70a082310000000000000000000000000000000000000000000000000000000082523390820152602081602481875afa9182156103c257809261038c575b6020846103858561037e8130338c611898565b3390611485565b9051908152f35b9091506020823d82116103ba575b816103a7602093836111de565b810103126102325750518261037e61036b565b3d915061039a565b8351903d90823e3d90fd5b83823461026a57602060031936011261026a576103e8611193565b73ffffffffffffffffffffffffffffffffffffffff9061040d8260085416331461131a565b168252600660205281207fffffffffffffffffffffffffffffffffffffffffffffffffffffffffffffff00815416905580f35b83823461026a578160031936011261026a57602090600a549051908152f35b908334610232578160031936011261023257506103856020926104806111bb565b906104a473ffffffffffffffffffffffffffffffffffffffff60085416331461131a565b35611485565b90833461023257602060031936011261023257506103856020923561037e81303373ffffffffffffffffffffffffffffffffffffffff7f000000000000000000000000000000000000000000000000000000000000000016611898565b83823461026a57602060031936011261026a5760ff8160209373ffffffffffffffffffffffffffffffffffffffff61053d611193565b1681526006855220541690519015158152f35b83823461026a578060031936011261026a5761056a611193565b73ffffffffffffffffffffffffffffffffffffffff1660243581151580610606575b156106025782602094338152600286526105b583838320546105b08282101561180d565b611671565b3382526002875282822055838152206105cf8282546113e4565b905582519081527fddf252ad1be2c89b69c2b068fc378daa952ba7f163c4a11628f55a4df523b3ef843392a35160018152f35b8380fd5b503082141561058c565b5082346102325780600319360112610232579080519182906007549182855260208095018093600784527fa66cc928b5edb82af9bd49922954155ab7b0942694bea4ce44661d9a8736c68890845b8181106106c557505050816106749103826111de565b83519485948186019282875251809352850193925b82811061069857505050500390f35b835173ffffffffffffffffffffffffffffffffffffffff1685528695509381019392810192600101610689565b825473ffffffffffffffffffffffffffffffffffffffff168452928801926001928301920161065e565b83823461026a578060031936011261026a5761072e60209261072560ff84610715611193565b9333815260068852205416611420565b6024359061167e565b5160018152f35b91503461086b578260031936011261086b5780519183600180549182821c928281168015610861575b602095868610821461083557508488529081156107f5575060011461079d575b610799868661078f828b03836111de565b519182918261124e565b0390f35b9295508083527fb10e2d527612073b26eecdfd717e6a320cf44b4afac2b0732d9fcbe2b7fa0cf65b8284106107e257505050826107999461078f92820101943861077e565b80548685018801529286019281016107c5565b7fffffffffffffffffffffffffffffffffffffffffffffffffffffffffffffff001687860152505050151560051b830101925061078f826107993861077e565b8360226024927f4e487b7100000000000000000000000000000000000000000000000000000000835252fd5b93607f169361075e565b8280fd5b83823461026a578160031936011261026a5760209073ffffffffffffffffffffffffffffffffffffffff600954169051908152f35b83823461026a578160031936011261026a5760209073ffffffffffffffffffffffffffffffffffffffff600854169051908152f35b9091503461086b57602060031936011261086b573591600754831015610232575073ffffffffffffffffffffffffffffffffffffffff61091a6020936112b4565b92905490519260031b1c168152f35b83823461026a57602060031936011261026a578060209273ffffffffffffffffffffffffffffffffffffffff61095d611193565b1681526002845220549051908152f35b833461023257602060031936011261023257610987611193565b73ffffffffffffffffffffffffffffffffffffffff906109ac8260085416331461131a565b166109b881151561137f565b7fffffffffffffffffffffffff0000000000000000000000000000000000000000600b541617600b556109ed600554426113e4565b600c5580f35b83823461026a578160031936011261026a576020905173ffffffffffffffffffffffffffffffffffffffff7f0000000000000000000000000000000000000000000000000000000000000000168152f35b9083346102325781600319360112610232575061038560209235610a666111bb565b90610aa981303373ffffffffffffffffffffffffffffffffffffffff7f000000000000000000000000000000000000000000000000000000000000000016611898565b611485565b83823461026a578160031936011261026a576020906005549051908152f35b833461023257806003193601126102325760085473ffffffffffffffffffffffffffffffffffffffff610b03818316331461131a565b600b5490811680151580610b4a575b15610602577fffffffffffffffffffffffff00000000000000000000000000000000000000008093161760085516600b5580600c5580f35b50600c54421015610b12565b83823461026a578060031936011261026a5761072e602092610b7c60ff84610715611193565b602435906115a0565b83823461026a578160031936011261026a57610385602092338152600284528233912054336114e5565b83823461026a578160031936011261026a576020905160ff7f0000000000000000000000000000000000000000000000000000000000000000168152f35b9083346102325760206003193601126102325750610385602092339035336114e5565b83823461026a578160031936011261026a5760209073ffffffffffffffffffffffffffffffffffffffff600b54169051908152f35b9091503461086b57606060031936011261086b57610c61611193565b90610c6a6111bb565b6044359073ffffffffffffffffffffffffffffffffffffffff8091169384151580610e5a575b15610e56571691338303610d0b575b5060207fddf252ad1be2c89b69c2b068fc378daa952ba7f163c4a11628f55a4df523b3ef9185878584995260028452610ce283838320546105b08282101561180d565b868252600285528282205586815220610cfc8282546113e4565b90558551908152a35160018152f35b828652602090600d8252858720338852825285872054907fffffffffffffffffffffffffffffffffffffffffffffffffffffffffffffffff8203610d51575b5050610c9f565b838210610dd4575091856020978893867f8c5be1e5ebec7d5bd14f71427d1e84f3dd0314c0f7b2291e5b200ac8c7c3b925610dad867fddf252ad1be2c89b69c2b068fc378daa952ba7f163c4a11628f55a4df523b3ef99611671565b92828552600d81528585203386528152838686205585519384523393a39750819350610d4a565b608490838851917f08c379a0000000000000000000000000000000000000000000000000000000008352820152602560248201527f546865696145524332303a2072657175657374206578636565647320616c6c6f60448201527f77616e63650000000000000000000000000000000000000000000000000000006064820152fd5b8680fd5b5030851415610c90565b83823461026a578160031936011261026a576020906003549051908152f35b83823461026a578160031936011261026a57602090600c549051908152f35b9091503461086b578260031936011261086b5773ffffffffffffffffffffffffffffffffffffffff91610eda8360085416331461131a565b82600954168015801580610fc5575b15610fc157610fbd5784526006602052832060017fffffffffffffffffffffffffffffffffffffffffffffffffffffffffffffff008254161790558160095416906007549068010000000000000000821015610f915750806001610f5092016007556112b4565b909283549160031b92831b921b19161790557fffffffffffffffffffffffff00000000000000000000000000000000000000006009541660095580600a5580f35b8460416024927f4e487b7100000000000000000000000000000000000000000000000000000000835252fd5b8480fd5b8580fd5b50600a54421015610ee9565b83823461026a578060031936011261026a5760209181610fef611193565b91602435918291338152600d875273ffffffffffffffffffffffffffffffffffffffff8282209516948582528752205582519081527f8c5be1e5ebec7d5bd14f71427d1e84f3dd0314c0f7b2291e5b200ac8c7c3b925843392a35160018152f35b91503461086b578260031936011261086b578051918380549060019082821c928281168015611102575b602095868610821461083557508488529081156107f557506001146110aa57610799868661078f828b03836111de565b8080949750527f290decd9548b62a8d60345a988386fc84ba6bc95484008f6362f93160ef3e5635b8284106110ef57505050826107999461078f92820101943861077e565b80548685018801529286019281016110d2565b93607f169361107a565b9083346102325781600319360112610232575061038560209261112d6111bb565b9035336114e5565b83823461026a57606060031936011261026a57611150611193565b6044359273ffffffffffffffffffffffffffffffffffffffff9081851685036102325750926103859161118a60209560085416331461131a565b602435906114e5565b6004359073ffffffffffffffffffffffffffffffffffffffff821682036111b657565b600080fd5b6024359073ffffffffffffffffffffffffffffffffffffffff821682036111b657565b90601f7fffffffffffffffffffffffffffffffffffffffffffffffffffffffffffffffe0910116810190811067ffffffffffffffff82111761121f57604052565b7f4e487b7100000000000000000000000000000000000000000000000000000000600052604160045260246000fd5b60208082528251818301819052939260005b8581106112a0575050507fffffffffffffffffffffffffffffffffffffffffffffffffffffffffffffffe0601f8460006040809697860101520116010190565b818101830151848201604001528201611260565b6007548110156112eb5760076000527fa66cc928b5edb82af9bd49922954155ab7b0942694bea4ce44661d9a8736c6880190600090565b7f4e487b7100000000000000000000000000000000000000000000000000000000600052603260045260246000fd5b1561132157565b60646040517f08c379a000000000000000000000000000000000000000000000000000000000815260206004820152601560248201527f546865696145524332303a206e6f742041646d696e00000000000000000000006044820152fd5b1561138657565b60646040517f08c379a000000000000000000000000000000000000000000000000000000000815260206004820152601660248201527f546865696145524332303a2061646472657373283029000000000000000000006044820152fd5b919082018092116113f157565b7f4e487b7100000000000000000000000000000000000000000000000000000000600052601160045260246000fd5b1561142757565b60646040517f08c379a000000000000000000000000000000000000000000000000000000000815260206004820152601660248201527f546865696145524332303a206e6f74204d696e746572000000000000000000006044820152fd5b9073ffffffffffffffffffffffffffffffffffffffff7f00000000000000000000000000000000000000000000000000000000000000001680151590816114da575b50156111b657816114d7916115a0565b90565b9050301415386114c7565b909173ffffffffffffffffffffffffffffffffffffffff807f0000000000000000000000000000000000000000000000000000000000000000169283151580611596575b156111b657846115389161167e565b604051917fa9059cbb00000000000000000000000000000000000000000000000000000000602084015216602482015282604482015260448152608081019181831067ffffffffffffffff84111761121f576114d792604052611916565b5030841415611529565b73ffffffffffffffffffffffffffffffffffffffff16908115611613577fddf252ad1be2c89b69c2b068fc378daa952ba7f163c4a11628f55a4df523b3ef6020826115ef6000946003546113e4565b60035584845260028252604084206116088282546113e4565b9055604051908152a3565b60646040517f08c379a000000000000000000000000000000000000000000000000000000000815260206004820152601f60248201527f45524332303a206d696e7420746f20746865207a65726f2061646472657373006044820152fd5b919082039182116113f157565b73ffffffffffffffffffffffffffffffffffffffff1680156117895780600052600260205260406000205491808310611705576020816116e17fddf252ad1be2c89b69c2b068fc378daa952ba7f163c4a11628f55a4df523b3ef93600096611671565b8486526002835260408620556116f981600354611671565b600355604051908152a3565b60846040517f08c379a000000000000000000000000000000000000000000000000000000000815260206004820152602260248201527f45524332303a206275726e20616d6f756e7420657863656564732062616c616e60448201527f63650000000000000000000000000000000000000000000000000000000000006064820152fd5b60846040517f08c379a000000000000000000000000000000000000000000000000000000000815260206004820152602160248201527f45524332303a206275726e2066726f6d20746865207a65726f2061646472657360448201527f73000000000000000000000000000000000000000000000000000000000000006064820152fd5b1561181457565b60846040517f08c379a000000000000000000000000000000000000000000000000000000000815260206004820152602b60248201527f546865696145524332303a207472616e7366657220616d6f756e74206578636560448201527f6564732062616c616e63650000000000000000000000000000000000000000006064820152fd5b9290604051927f23b872dd00000000000000000000000000000000000000000000000000000000602085015273ffffffffffffffffffffffffffffffffffffffff809216602485015216604483015260648201526064815260a081019181831067ffffffffffffffff84111761121f5761191492604052611916565b565b73ffffffffffffffffffffffffffffffffffffffff1690600080826020829451910182865af13d15611a3c573d9067ffffffffffffffff8211611a0f579061199e916040519161198e60207fffffffffffffffffffffffffffffffffffffffffffffffffffffffffffffffe0601f84011601846111de565b82523d84602084013e5b84611a48565b9081519182151592836119e7575b5050506119b65750565b602490604051907f5274afe70000000000000000000000000000000000000000000000000000000082526004820152fd5b81929350906020918101031261026a57602001519081159182150361023257503880806119ac565b6024837f4e487b710000000000000000000000000000000000000000000000000000000081526041600452fd5b61199e90606090611998565b90611a875750805115611a5d57805190602001fd5b60046040517f1425ea42000000000000000000000000000000000000000000000000000000008152fd5b81511580611adf575b611a98575090565b60249073ffffffffffffffffffffffffffffffffffffffff604051917f9996b315000000000000000000000000000000000000000000000000000000008352166004820152fd5b50803b15611a9056fea26469706673582212203480e3dbfab8fad9363a58bef5ff43427003f763337317438b635c682f521eb464736f6c63430008140033a26469706673582212201b856c51c98300deb33a0ec2ee3b89ffd5320e60534466d42cf5b81ce2c1a18f64736f6c63430008140033","linkReferences":{}},"methodIdentifiers":{"FuncDeployTheia()":"7af30f9a","addTxSender(address)":"eebd14af","c3CallerProxy()":"58f2c057","c3Fallback(uint256,bytes,bytes)":"b121f51d","cID()":"99a2f2d7","changeGov(address)":"a962ef1e","dappID()":"c516ad11","delay()":"6a42b8f8","deployTheia(string,string,string,uint8,string,bytes32,string)":"2d1c26f1","disableTxSender(address)":"f9e4cbaf","doGov(string,string,bytes)":"d60ad41b","doGovBroadcast(string[],string[],bytes)":"dd64b3e6","getPoolTokens()":"89c06568","getSymbolByToken(string,string)":"e94aa491","getTokenBySymbol(string,string)":"b3c731b3","gov()":"12d43a51","isOperator(address)":"6d70f7ae","isValidSender(address)":"f01f2b8b","newTheiaTokenEVM(string,string,uint8[],address[],uint256[],bytes32,address[])":"b6027b87","operators(uint256)":"e28d4906","poolChains(string,uint256)":"26620409","poolTokenSymbols(uint256)":"5a0adf2f","setDelay(uint256)":"e177246e","strToUint(string)":"c5ef3ec5","stringToAddress(string)":"15706fdf","stringsEqual(string,string)":"13d19950","symbolToToken(string,string)":"2238a8a4","tokenSymbolExists(string)":"0bd47a78","tokenToSymbol(string,string)":"2b90a9ae","version()":"54fd4d50","wNATIVE()":"8fd903f5"},"id":17}