{"abi":[{"type":"constructor","inputs":[{"name":"_txSender","type":"address","internalType":"address"},{"name":"_c3callerProxy","type":"address","internalType":"address"},{"name":"_dappID","type":"uint256","internalType":"uint256"},{"name":"_gov","type":"address","internalType":"address"},{"name":"_wNATIVE","type":"address","internalType":"address"}],"stateMutability":"nonpayable"},{"type":"function","name":"FuncDeployTheia","inputs":[],"outputs":[{"name":"","type":"bytes4","internalType":"bytes4"}],"stateMutability":"view"},{"type":"function","name":"addTxSender","inputs":[{"name":"txSender","type":"address","internalType":"address"}],"outputs":[],"stateMutability":"nonpayable"},{"type":"function","name":"c3CallerProxy","inputs":[],"outputs":[{"name":"","type":"address","internalType":"address"}],"stateMutability":"view"},{"type":"function","name":"c3Fallback","inputs":[{"name":"_dappID","type":"uint256","internalType":"uint256"},{"name":"_data","type":"bytes","internalType":"bytes"},{"name":"_reason","type":"bytes","internalType":"bytes"}],"outputs":[{"name":"","type":"bool","internalType":"bool"}],"stateMutability":"nonpayable"},{"type":"function","name":"cID","inputs":[],"outputs":[{"name":"","type":"uint256","internalType":"uint256"}],"stateMutability":"view"},{"type":"function","name":"changeGov","inputs":[{"name":"newGov","type":"address","internalType":"address"}],"outputs":[],"stateMutability":"nonpayable"},{"type":"function","name":"dappID","inputs":[],"outputs":[{"name":"","type":"uint256","internalType":"uint256"}],"stateMutability":"view"},{"type":"function","name":"delay","inputs":[],"outputs":[{"name":"","type":"uint256","internalType":"uint256"}],"stateMutability":"view"},{"type":"function","name":"deployTheia","inputs":[{"name":"_fromTargetStr","type":"string","internalType":"string"},{"name":"_name","type":"string","internalType":"string"},{"name":"_symbol","type":"string","internalType":"string"},{"name":"_decimals","type":"uint8","internalType":"uint8"},{"name":"_underlyingStr","type":"string","internalType":"string"},{"name":"_salt","type":"bytes32","internalType":"bytes32"},{"name":"_routerStr","type":"string","internalType":"string"}],"outputs":[],"stateMutability":"nonpayable"},{"type":"function","name":"disableTxSender","inputs":[{"name":"txSender","type":"address","internalType":"address"}],"outputs":[],"stateMutability":"nonpayable"},{"type":"function","name":"doGov","inputs":[{"name":"_to","type":"string","internalType":"string"},{"name":"_toChainID","type":"string","internalType":"string"},{"name":"_data","type":"bytes","internalType":"bytes"}],"outputs":[],"stateMutability":"nonpayable"},{"type":"function","name":"doGovBroadcast","inputs":[{"name":"_targets","type":"string[]","internalType":"string[]"},{"name":"_toChainIDs","type":"string[]","internalType":"string[]"},{"name":"_data","type":"bytes","internalType":"bytes"}],"outputs":[],"stateMutability":"nonpayable"},{"type":"function","name":"getPoolTokens","inputs":[],"outputs":[{"name":"","type":"string[]","internalType":"string[]"}],"stateMutability":"view"},{"type":"function","name":"getSymbolByToken","inputs":[{"name":"tokenStr","type":"string","internalType":"string"},{"name":"toChainIdStr","type":"string","internalType":"string"}],"outputs":[{"name":"tokenSymbol","type":"string","internalType":"string"}],"stateMutability":"view"},{"type":"function","name":"getTokenBySymbol","inputs":[{"name":"tokenSymbol","type":"string","internalType":"string"},{"name":"toChainIdStr","type":"string","internalType":"string"}],"outputs":[{"name":"tokenStr","type":"string","internalType":"string"}],"stateMutability":"view"},{"type":"function","name":"gov","inputs":[],"outputs":[{"name":"","type":"address","internalType":"address"}],"stateMutability":"view"},{"type":"function","name":"isOperator","inputs":[{"name":"","type":"address","internalType":"address"}],"outputs":[{"name":"","type":"bool","internalType":"bool"}],"stateMutability":"view"},{"type":"function","name":"isValidSender","inputs":[{"name":"txSender","type":"address","internalType":"address"}],"outputs":[{"name":"","type":"bool","internalType":"bool"}],"stateMutability":"view"},{"type":"function","name":"newTheiaTokenEVM","inputs":[{"name":"_name","type":"string","internalType":"string"},{"name":"_symbol","type":"string","internalType":"string"},{"name":"_decimals","type":"uint8[]","internalType":"uint8[]"},{"name":"_underlying","type":"address[]","internalType":"address[]"},{"name":"_chainIds","type":"uint256[]","internalType":"uint256[]"},{"name":"_targets","type":"address[]","internalType":"address[]"},{"name":"_salt","type":"bytes32","internalType":"bytes32"},{"name":"_router","type":"address[]","internalType":"address[]"}],"outputs":[],"stateMutability":"nonpayable"},{"type":"function","name":"operators","inputs":[{"name":"","type":"uint256","internalType":"uint256"}],"outputs":[{"name":"","type":"address","internalType":"address"}],"stateMutability":"view"},{"type":"function","name":"poolTokenSymbols","inputs":[{"name":"","type":"uint256","internalType":"uint256"}],"outputs":[{"name":"","type":"string","internalType":"string"}],"stateMutability":"view"},{"type":"function","name":"registerNewTheia","inputs":[{"name":"_fromChainId","type":"string","internalType":"string"},{"name":"_tokenStr","type":"string","internalType":"string"},{"name":"_name","type":"string","internalType":"string"},{"name":"_symbol","type":"string","internalType":"string"},{"name":"_decimals","type":"uint8","internalType":"uint8"},{"name":"_underlyingStr","type":"string","internalType":"string"}],"outputs":[],"stateMutability":"nonpayable"},{"type":"function","name":"setDelay","inputs":[{"name":"_delay","type":"uint256","internalType":"uint256"}],"outputs":[],"stateMutability":"nonpayable"},{"type":"function","name":"strToUint","inputs":[{"name":"_str","type":"string","internalType":"string"}],"outputs":[{"name":"res","type":"uint256","internalType":"uint256"},{"name":"err","type":"bool","internalType":"bool"}],"stateMutability":"pure"},{"type":"function","name":"stringToAddress","inputs":[{"name":"str","type":"string","internalType":"string"}],"outputs":[{"name":"","type":"address","internalType":"address"}],"stateMutability":"pure"},{"type":"function","name":"stringsEqual","inputs":[{"name":"a","type":"string","internalType":"string"},{"name":"b","type":"string","internalType":"string"}],"outputs":[{"name":"","type":"bool","internalType":"bool"}],"stateMutability":"pure"},{"type":"function","name":"symbolToToken","inputs":[{"name":"","type":"string","internalType":"string"},{"name":"","type":"string","internalType":"string"}],"outputs":[{"name":"","type":"string","internalType":"string"}],"stateMutability":"view"},{"type":"function","name":"tokenSymbolExists","inputs":[{"name":"tokenSymbol","type":"string","internalType":"string"}],"outputs":[{"name":"","type":"bool","internalType":"bool"}],"stateMutability":"view"},{"type":"function","name":"tokenToSymbol","inputs":[{"name":"","type":"string","internalType":"string"},{"name":"","type":"string","internalType":"string"}],"outputs":[{"name":"","type":"string","internalType":"string"}],"stateMutability":"view"},{"type":"function","name":"underlyingByChainId","inputs":[{"name":"","type":"string","internalType":"string"},{"name":"","type":"string","internalType":"string"}],"outputs":[{"name":"","type":"string","internalType":"string"}],"stateMutability":"view"},{"type":"function","name":"version","inputs":[],"outputs":[{"name":"","type":"uint256","internalType":"uint256"}],"stateMutability":"pure"},{"type":"function","name":"wNATIVE","inputs":[],"outputs":[{"name":"","type":"address","internalType":"address"}],"stateMutability":"view"},{"type":"event","name":"DeployTheia","inputs":[{"name":"_name","type":"string","indexed":false,"internalType":"string"},{"name":"_symbol","type":"string","indexed":false,"internalType":"string"},{"name":"_decimals","type":"uint8","indexed":false,"internalType":"uint8"},{"name":"underlying","type":"string","indexed":false,"internalType":"string"},{"name":"router","type":"string","indexed":false,"internalType":"string"},{"name":"fromChainIdStr","type":"string","indexed":false,"internalType":"string"},{"name":"sourceTx","type":"string","indexed":false,"internalType":"string"}],"anonymous":false},{"type":"event","name":"LogChangeGov","inputs":[{"name":"oldGov","type":"address","indexed":true,"internalType":"address"},{"name":"newGov","type":"address","indexed":true,"internalType":"address"},{"name":"effectiveTime","type":"uint256","indexed":true,"internalType":"uint256"},{"name":"chainID","type":"uint256","indexed":false,"internalType":"uint256"}],"anonymous":false},{"type":"event","name":"LogFallback","inputs":[{"name":"selector","type":"bytes4","indexed":false,"internalType":"bytes4"},{"name":"data","type":"bytes","indexed":false,"internalType":"bytes"},{"name":"reason","type":"bytes","indexed":false,"internalType":"bytes"}],"anonymous":false},{"type":"event","name":"LogNewTheiaFallBack","inputs":[{"name":"fromTargetStr","type":"string","indexed":false,"internalType":"string"},{"name":"name","type":"string","indexed":false,"internalType":"string"},{"name":"symbol","type":"string","indexed":false,"internalType":"string"},{"name":"underlyingStr","type":"string","indexed":false,"internalType":"string"},{"name":"reason","type":"bytes","indexed":false,"internalType":"bytes"}],"anonymous":false},{"type":"event","name":"LogTxSender","inputs":[{"name":"txSender","type":"address","indexed":true,"internalType":"address"},{"name":"vaild","type":"bool","indexed":false,"internalType":"bool"}],"anonymous":false},{"type":"error","name":"StringsInsufficientHexLength","inputs":[{"name":"value","type":"uint256","internalType":"uint256"},{"name":"length","type":"uint256","internalType":"uint256"}]}],"bytecode":{"object":"0x60a0346200010857601f620058e538819003918201601f19168301916001600160401b038311848410176200010d5780849260a09460405283398101031262000108576200004d8162000123565b906200005c6020820162000123565b916040820151926200007f6080620000776060860162000123565b940162000123565b9360018060a01b039384918260018060a01b031994168460005416176000556001556202a3006002551690818160035416176003556004541617600455426005551660005260066020526040600020600160ff19825416179055632d1c26f163ffffffff19600d541617600d556080526040516157ac9081620001398239608051816110440152f35b600080fd5b634e487b7160e01b600052604160045260246000fd5b51906001600160a01b0382168203620001085756fe608060405260043610156200001357600080fd5b6000803560e01c80630bd47a781462001f1b57806312d43a511462001efc57806313d199501462001ed357806315706fdf1462001e72578063207ba6fd1462001e4e5780632238a8a414620007cf57806325d819a5146200163f5780632b90a9ae146200038c5780632d1c26f1146200127e57806354fd4d50146200126057806358f2c057146200122b5780635a0adf2f14620011bb5780636a42b8f8146200119b5780636d70f7ae146200114d5780637af30f9a146200110857806389c0656814620010685780638fd903f514620010155780639520b6491462000d3d57806399a2f2d71462000d20578063a962ef1e1462000bcb578063b121f51d1462000804578063b3c731b314620007cf578063c516ad1114620007af578063c5ef3ec5146200075e578063d60ad41b1462000694578063dd64b3e614620004cc578063e177246e1462000462578063e28d490614620003f6578063e94aa491146200038c578063eebd14af14620002bb578063f01f2b8b146200026d5763f9e4cbaf146200019e57600080fd5b346200026a5760206003193601126200026a57620001bb62002263565b73ffffffffffffffffffffffffffffffffffffffff9081620001dc620024a9565b163314801562000252575b620001f290620024ec565b168082526006602052604082207fffffffffffffffffffffffffffffffffffffffffffffffffffffffffffffff0081541690557fbfb8b3e2f6221ae729e9cacb0d35f5d9be686ba10cb1d4e34b646bbb87f7a2696020604051848152a280f35b50620001f262000262336200258f565b9050620001e7565b80fd5b50346200026a5760206003193601126200026a5760ff604060209273ffffffffffffffffffffffffffffffffffffffff620002a762002263565b168152600684522054166040519015158152f35b50346200026a5760206003193601126200026a57620002d962002263565b73ffffffffffffffffffffffffffffffffffffffff9081620002fa620024a9565b163314801562000374575b6200031090620024ec565b1680825260066020526040822060017fffffffffffffffffffffffffffffffffffffffffffffffffffffffffffffff008254161790557fbfb8b3e2f6221ae729e9cacb0d35f5d9be686ba10cb1d4e34b646bbb87f7a269602060405160018152a280f35b506200031062000384336200258f565b905062000305565b50346200026a57620003f2620003dd620003d76020620003c6620003b03662002052565b92908160405193828580945193849201620020a0565b8101600b81520301902090620020c5565b62002143565b60405191829160208352602083019062002214565b0390f35b50346200026a5760206003193601126200026a57600435906009548210156200026a57602073ffffffffffffffffffffffffffffffffffffffff8360096000527f6e1540171b6c0c960b71a7020d9f60077f6af931a8bbf590da0223dacf75c7af015416604051908152f35b50346200026a5760206003193601126200026a5773ffffffffffffffffffffffffffffffffffffffff62000495620024a9565b1633148015620004b4575b620004ab90620024ec565b60043560025580f35b50620004ab620004c4336200258f565b9050620004a0565b50346200026a57600319606081360112620006905767ffffffffffffffff906004358281116200068c576200050690369060040162002403565b9060243583811162000688576200052290369060040162002403565b9260443590811162000688576200053e90369060040162002000565b9173ffffffffffffffffffffffffffffffffffffffff806200055f620024a9565b163314801562000670575b6200057590620024ec565b81518551036200063857908593929184541691600154833b156200063457620006078692620005e696620005f76040519a8b998a9889977fec6a8b7d000000000000000000000000000000000000000000000000000000008952600489015260806024890152608488019062002372565b908487830301604488015262002372565b9184830301606485015262002214565b03925af1801562000629576200061b575080f35b620006269062001f5e565b80f35b6040513d84823e3d90fd5b8580fd5b604486604051907f08c379a0000000000000000000000000000000000000000000000000000000008252602060048301526024820152fd5b506200057562000680336200258f565b90506200056a565b8480fd5b8380fd5b5080fd5b50346200026a5760606003193601126200026a5767ffffffffffffffff6004358181116200075a57620006cc90369060040162002000565b6024358281116200068c57620006e790369060040162002000565b6044359283116200068c57620007066200062693369060040162002000565b9173ffffffffffffffffffffffffffffffffffffffff62000726620024a9565b163314801562000742575b6200073c90620024ec565b6200261f565b506200073c62000752336200258f565b905062000731565b8280fd5b50346200026a5760206003193601126200026a576004359067ffffffffffffffff82116200026a576040620007a16200079b366004860162002000565b62002f6b565b825191825215156020820152f35b50346200026a57806003193601126200026a576020600154604051908152f35b50346200026a57620003f2620003dd620003d76020620007f3620003b03662002052565b8101600a81520301902090620020c5565b50346200026a5760031960608136011262000690578167ffffffffffffffff6024358181116200075a576200083e903690600401620023d2565b92906044358381116200075a576200085b903690600401620023d2565b93909473ffffffffffffffffffffffffffffffffffffffff845416604051907f7ac07dcc0000000000000000000000000000000000000000000000000000000082523360048301528160248160209c8d945af190811562000bc057859162000b8c575b501562000b2e576001546004350362000ad057806004116200068c577fffffffff0000000000000000000000000000000000000000000000000000000090818435166004850192600d5460e01b16811460001462000a6a575060e09084019784890301126200068c57358181116200068c57866004620009419285010162002000565b9560248301358281116200068857816004620009609286010162002000565b91604484013581811162000634578260046200097f9287010162002000565b936200098e6064820162002254565b50608481013582811162000a6657836004620009ad9284010162002000565b9560c48201359283116200026a575062000a1e979462000a2c7f3ec9548dd637231c9b079c2ab3d9d04e36dfb9e942812d7b6c1c50d48ac127129a989562000a0862000a4a96600462000a599b9762000a3b97010162002000565b506040519a8b9a60a08c5260a08c019062002214565b8a81038b8f01529062002214565b9088820360408a015262002214565b90868203606088015262002214565b91848303608086015262002ab0565b0390a15b60405160018152f35b8680fd5b95925062000ac794507fd1b411598268892b6836c5b922cfa272124f6f0bd3a7cf9f9d408f7e50f223019796935062000ab891604051978897885260608b8901526060880192019062002ab0565b91848303604086015262002ab0565b0390a162000a5d565b606488604051907f08c379a00000000000000000000000000000000000000000000000000000000082526004820152600f60248201527f646170704944206469736d6174636800000000000000000000000000000000006044820152fd5b606488604051907f08c379a00000000000000000000000000000000000000000000000000000000082526004820152601860248201527f433343616c6c6572446170703a206f6e6c7943616c6c657200000000000000006044820152fd5b62000bb19150893d8b1162000bb8575b62000ba8818362001fbf565b8101906200248f565b38620008be565b503d62000b9c565b6040513d87823e3d90fd5b50346200026a5760206003193601126200026a5762000be962002263565b73ffffffffffffffffffffffffffffffffffffffff80918162000c0b620024a9565b163314801562000d08575b62000c2190620024ec565b1690811562000caa5762000c34620024a9565b1690807fffffffffffffffffffffffff000000000000000000000000000000000000000083816003541617600355600454161760045562000c786002544262002552565b91826005557f4552e521eca39a029d33503b3e2003db87de01f8396f9e3fdd9dddddb9b838b46020604051468152a480f35b60646040517f08c379a000000000000000000000000000000000000000000000000000000000815260206004820152600f60248201527f6e6577476f7620697320656d70747900000000000000000000000000000000006044820152fd5b5062000c2162000d18336200258f565b905062000c16565b50346200026a57806003193601126200026a576020604051468152f35b50346200026a5760c06003193601126200026a5767ffffffffffffffff6004358181116200075a5762000d7590369060040162002000565b6024358281116200068c5762000d9090369060040162002000565b91604435818111620006885762000dac90369060040162002000565b50606435818111620006885762000dc890369060040162002000565b9060843560ff811603620006885760a435908111620006885762000df190369060040162002000565b3385526020916008835260ff604087205416801562000ffd575b62000e16906200279e565b62000e2062002874565b5050506040517f0bd47a7800000000000000000000000000000000000000000000000000000000815283600482015283818062000e61602482018662002214565b0381305afa90811562000ff257879162000fd0575b501562000f1b575b62000ec39285949262000ef662000f0a9362000ec9620006269962000ec36040518781865162000eb28183858b01620020a0565b8101600a81520301902089620020c5565b62002955565b62000ec360405185818162000ee58d83815193849201620020a0565b8101600b81520301902087620020c5565b8160405193828580945193849201620020a0565b8101600c81520301902090620020c5565b6007546801000000000000000081101562000fa35780600162000f4292016007556200230b565b62000f7757926200062695949262000ef68362000f6862000f0a9562000ec39862002955565b93505092949550925062000e7e565b6024877f4e487b7100000000000000000000000000000000000000000000000000000000815280600452fd5b6024877f4e487b710000000000000000000000000000000000000000000000000000000081526041600452fd5b62000feb9150843d861162000bb85762000ba8818362001fbf565b3862000e76565b6040513d89823e3d90fd5b5062000e166200100d336200258f565b905062000e0b565b50346200026a57806003193601126200026a57602060405173ffffffffffffffffffffffffffffffffffffffff7f0000000000000000000000000000000000000000000000000000000000000000168152f35b50346200026a57806003193601126200026a57600754906200108a826200223b565b916200109a604051938462001fbf565b808352600782526020917fa66cc928b5edb82af9bd49922954155ab7b0942694bea4ce44661d9a8736c688838086015b848410620010e75760405182815280620003f28185018a62002372565b6001918291620010f78562002143565b8152019201920191908490620010ca565b50346200026a57806003193601126200026a576020600d5460e01b7fffffffff0000000000000000000000000000000000000000000000000000000060405191168152f35b50346200026a5760206003193601126200026a5760ff604060209273ffffffffffffffffffffffffffffffffffffffff6200118762002263565b168152600884522054166040519015158152f35b50346200026a57806003193601126200026a576020600254604051908152f35b50346200026a5760206003193601126200026a576004356007548110156200069057620011e8906200230b565b919091620011ff57620003f2620003dd8362002143565b807f4e487b71000000000000000000000000000000000000000000000000000000006024925280600452fd5b50346200026a57806003193601126200026a5773ffffffffffffffffffffffffffffffffffffffff6020915416604051908152f35b50346200026a57806003193601126200026a57602060405160018152f35b50346200026a5760e06003193601126200026a5767ffffffffffffffff6004358181116200075a57620012b690369060040162002000565b6024358281116200068c57620012d190369060040162002000565b906044358381116200068857620012ed90369060040162002000565b926064359060ff82169283830362000a66576084358281116200163b576200131a90369060040162002000565b9260c43583811162001637576200133690369060040162002000565b96338952600860205260ff60408a20541680156200161f575b6200135a906200279e565b6200136462002874565b95915092620013738762002bef565b6200137e8b62002bef565b90604051926120ef8085019585871090871117620015f25791849391878e620013b19562003688883960a4359862002743565b03908bf5978815620015e757620015b460e097620015e197620015a0620015c3956200157a8d7f69d9e20765b8d55ebb4a1405f7664fc9d5d74cbeb6744deba35b1201548c2a419f620015d29b6200073c6200142e6200142873ffffffffffffffffffffffffffffffffffffffff8f95166200352b565b620030cf565b6200156b60405191620014418362001fa2565b603a8352620015546200154360208501987f72656769737465724e6577546865696128737472696e672c737472696e672c738a527f7472696e672c737472696e672c75696e74382c737472696e67290000000000006040870152620014db7fffffffff00000000000000000000000000000000000000000000000000000000620014cb46620031ca565b9b60405198519020169662001f5e565b62001532620015006040519b8c9860208a015260c060248a015260e489019062002214565b7fffffffffffffffffffffffffffffffffffffffffffffffffffffffffffffffdc95868983030160448a015262002214565b908487830301606488015262002214565b828582030160848601528a62002214565b908c60a48501528382030160c48401528a62002214565b03601f19810185528462001fbf565b620015916040519d8d8f9e8f908152019062002214565b8c810360208e01529062002214565b9160408b015289820360608b015262002214565b90878203608089015262002214565b9085820360a087015262002214565b9083820360c085015262002214565b0390a180f35b6040513d8b823e3d90fd5b60248f7f4e487b710000000000000000000000000000000000000000000000000000000081526041600452fd5b506200135a6200162f336200258f565b90506200134f565b8880fd5b8780fd5b50346200026a576101006003193601126200026a5760043567ffffffffffffffff811162000690576200167790369060040162002000565b9060243567ffffffffffffffff811162000690576200169b90369060040162002000565b916044359067ffffffffffffffff82116200075a57366023830112156200075a57816004013591620016cd836200223b565b92620016dd604051948562001fbf565b8084526024602085019160051b830101913683116200063457602401905b82821062001e335750505060643567ffffffffffffffff81116200068c576200172990369060040162002287565b936084359167ffffffffffffffff831162000688573660238401121562000688578260040135926200175b846200223b565b936200176b604051958662001fbf565b8085526024602086019160051b830101913683116200163b57602401905b82821062001e225750505060a43567ffffffffffffffff81116200063457620017b790369060040162002287565b9567ffffffffffffffff60e435116200063457620017db3660e43560040162002287565b73ffffffffffffffffffffffffffffffffffffffff620017fa620024a9565b163314801562001e0a575b6200181090620024ec565b6200181b306200352b565b604051620018298162001fa2565b603d81527f6465706c6f79546865696128737472696e672c737472696e672c737472696e6760208201527f2c75696e74382c737472696e672c627974657333322c737472696e67290000006040820152865196895b8881106200188a578a80f35b620018a16200189a82846200272e565b5162003374565b620018f5620018ee620018d673ffffffffffffffffffffffffffffffffffffffff620018ce868c6200272e565b51166200352b565b92604051602081865162000f0a8183858b01620020a0565b54620020ed565b62001d6057466200190783856200272e565b510362001b9c5760ff6200191c838d6200272e565b511673ffffffffffffffffffffffffffffffffffffffff6200193f848a6200272e565b511673ffffffffffffffffffffffffffffffffffffffff62001962858a6200272e565b51169060405192836120ef81011067ffffffffffffffff6120ef8601111762001b3257928f92620019ab9082938f968f976120ef62003688873960c435986120ef870162002743565b0391f590811562001b9157908b91620019f584620019ee6200142873ffffffffffffffffffffffffffffffffffffffff620019e646620031ca565b96166200352b565b946200272e565b5062001a3860208c604051809381927f0bd47a78000000000000000000000000000000000000000000000000000000008352846004840152602483019062002214565b0381305afa90811562001b8457908f918d929162001b60575b501562001a9f575b62001a939262000f0a6020869462000ef662000ec39562000ec962001a999b9a62000ec36040518781865162000eb28183858b01620020a0565b62002700565b6200187e565b5060078054906801000000000000000082101562001b325760018201905562001ac8906200230b565b62001b065762001a939262000f0a602062001a999796948f8062001af562000ef69262000ec39862002955565b955050949697505050925062001a59565b60248f7f4e487b7100000000000000000000000000000000000000000000000000000000815280600452fd5b5060248f7f4e487b710000000000000000000000000000000000000000000000000000000081526041600452fd5b62001b7d915060203d60201162000bb85762000ba8818362001fbf565b3862001a51565b8f604051903d90823e3d90fd5b6040513d8e823e3d90fd5b5062001ba9818d6200272e565b5173ffffffffffffffffffffffffffffffffffffffff1662001bcb906200352b565b88828c62001bda82876200272e565b5162001be69062003374565b9162001bf2916200272e565b5160ff1662001c02858b6200272e565b5173ffffffffffffffffffffffffffffffffffffffff1662001c24906200352b565b8b62001c31878c6200272e565b5173ffffffffffffffffffffffffffffffffffffffff1662001c53906200352b565b91604051938a5160208c01207fffffffff00000000000000000000000000000000000000000000000000000000169462001c8d9062001f5e565b60405196879560208701526024860160e090528c610104870162001cb19162002214565b937fffffffffffffffffffffffffffffffffffffffffffffffffffffffffffffffdc948588820301604489015262001ce99162002214565b8487820301606488015262001cfe9162002214565b906084860152828582030160a486015262001d199162002214565b9060c48035908501528382030160e484015262001d369162002214565b03601f198101835262001d4a908362001fbf565b62001d55926200261f565b62001a999062002700565b60a46040517f08c379a000000000000000000000000000000000000000000000000000000000815260206004820152605c60248201527f546865696120506f6f6c4465706c6f7965723a20556e6465726c79696e67206160448201527f73736574206f66207468697320636861696e20697320616c726561647920617360648201527f7369676e656420746f206120746865696120706f6f6c20746f6b656e000000006084820152fd5b506200181062001e1a336200258f565b905062001805565b813581526020918201910162001789565b6020809162001e428462002254565b815201910190620016fb565b50346200026a57620003f2620003dd620003d7602062000f0a620003b03662002052565b50346200026a5760206003193601126200026a576004359067ffffffffffffffff82116200026a57602062001eb562001eaf366004860162002000565b62002bef565b73ffffffffffffffffffffffffffffffffffffffff60405191168152f35b50346200026a57602062001ef262001eeb3662002052565b9062002b27565b6040519015158152f35b50346200026a57806003193601126200026a57602062001eb5620024a9565b50346200026a5760206003193601126200026a576004359067ffffffffffffffff82116200026a57602062001ef262001f58366004860162002000565b62002ad1565b67ffffffffffffffff811162001f7357604052565b7f4e487b7100000000000000000000000000000000000000000000000000000000600052604160045260246000fd5b6060810190811067ffffffffffffffff82111762001f7357604052565b90601f601f19910116810190811067ffffffffffffffff82111762001f7357604052565b67ffffffffffffffff811162001f7357601f01601f191660200190565b81601f820112156200204d578035906200201a8262001fe3565b926200202a604051948562001fbf565b828452602083830101116200204d57816000926020809301838601378301015290565b600080fd5b9060406003198301126200204d5767ffffffffffffffff6004358181116200204d5783620020839160040162002000565b926024359182116200204d576200209d9160040162002000565b90565b60005b838110620020b45750506000910152565b8181015183820152602001620020a3565b602090620020e1928260405194838680955193849201620020a0565b82019081520301902090565b90600182811c9216801562002138575b60208310146200210957565b7f4e487b7100000000000000000000000000000000000000000000000000000000600052602260045260246000fd5b91607f1691620020fd565b90604051918260008254926200215984620020ed565b908184526001948581169081600014620021d0575060011462002189575b5050620021879250038362001fbf565b565b9093915060005260209081600020936000915b818310620021b7575050620021879350820101388062002177565b855488840185015294850194879450918301916200219c565b9050620021879550602093507fffffffffffffffffffffffffffffffffffffffffffffffffffffffffffffff0091501682840152151560051b820101388062002177565b90601f19601f6020936200223481518092818752878088019101620020a0565b0116010190565b67ffffffffffffffff811162001f735760051b60200190565b359060ff821682036200204d57565b6004359073ffffffffffffffffffffffffffffffffffffffff821682036200204d57565b81601f820112156200204d57803591620022a1836200223b565b92620022b1604051948562001fbf565b808452602092838086019260051b8201019283116200204d578301905b828210620022dd575050505090565b813573ffffffffffffffffffffffffffffffffffffffff811681036200204d578152908301908301620022ce565b600754811015620023435760076000527fa66cc928b5edb82af9bd49922954155ab7b0942694bea4ce44661d9a8736c6880190600090565b7f4e487b7100000000000000000000000000000000000000000000000000000000600052603260045260246000fd5b908082519081815260208091019281808460051b8301019501936000915b848310620023a15750505050505090565b9091929394958480620023c183601f1986600196030187528a5162002214565b980193019301919493929062002390565b9181601f840112156200204d5782359167ffffffffffffffff83116200204d57602083818601950101116200204d57565b9080601f830112156200204d578135906200241e826200223b565b926200242e604051948562001fbf565b828452602092838086019160051b830101928084116200204d57848301915b8483106200245e5750505050505090565b823567ffffffffffffffff81116200204d578691620024838484809489010162002000565b8152019201916200244d565b908160209103126200204d575180151581036200204d5790565b600554421015620024d05773ffffffffffffffffffffffffffffffffffffffff6003541690565b73ffffffffffffffffffffffffffffffffffffffff6004541690565b15620024f457565b60646040517f08c379a000000000000000000000000000000000000000000000000000000000815260206004820152600d60248201527f476f7620464f5242494444454e000000000000000000000000000000000000006044820152fd5b919082018092116200256057565b7f4e487b7100000000000000000000000000000000000000000000000000000000600052601160045260246000fd5b602073ffffffffffffffffffffffffffffffffffffffff6024816000541693600060405195869485937f7ac07dcc0000000000000000000000000000000000000000000000000000000085521660048401525af19081156200261357600091620025f7575090565b6200209d915060203d811162000bb85762000ba8818362001fbf565b6040513d6000823e3d90fd5b92919060009173ffffffffffffffffffffffffffffffffffffffff8354169160015491833b1562000688579184602081959382620026c8620026a39a9b97620026b76040519c8d9a8b997f27a63fd8000000000000000000000000000000000000000000000000000000008b5260048b015260a060248b015260a48a019062002214565b60031995868a83030160448b015262002214565b908488830301606489015262002214565b85810392830160848701525201925af1908115620026f45750620026e95750565b620021879062001f5e565b604051903d90823e3d90fd5b7fffffffffffffffffffffffffffffffffffffffffffffffffffffffffffffffff8114620025605760010190565b8051821015620023435760209160051b010190565b93916200277460ff916200276560809699989460a0895260a089019062002214565b90878203602089015262002214565b9616604085015273ffffffffffffffffffffffffffffffffffffffff809216606085015216910152565b15620027a657565b60846040517f08c379a000000000000000000000000000000000000000000000000000000000815260206004820152602260248201527f54686569612053746167696e675661756c743a204155544820464f524249444460448201527f454e0000000000000000000000000000000000000000000000000000000000006064820152fd5b81601f820112156200204d578051620028438162001fe3565b9262002853604051948562001fbf565b818452602082840101116200204d576200209d9160208085019101620020a0565b60046000918273ffffffffffffffffffffffffffffffffffffffff815416604051938480927fd0496d6a0000000000000000000000000000000000000000000000000000000082525afa9182156200294a578390848094620028d8575b5050929190565b93509350503d8083853e620028ee818562001fbf565b83016060848203126200075a5783519360208101519067ffffffffffffffff91828111620006345783620029249183016200282a565b9460408201519283116200026a5750620029409291016200282a565b91923880620028d1565b6040513d85823e3d90fd5b919091825167ffffffffffffffff811162001f7357620029768254620020ed565b601f811162002a63575b50602080601f8311600114620029dd575081929394600092620029d1575b50507fffffffffffffffffffffffffffffffffffffffffffffffffffffffffffffffff8260011b9260031b1c1916179055565b0151905038806200299e565b90601f198316958460005282600020926000905b88821062002a4a5750508360019596971062002a12575b505050811b019055565b01517fffffffffffffffffffffffffffffffffffffffffffffffffffffffffffffffff60f88460031b161c1916905538808062002a08565b80600185968294968601518155019501930190620029f1565b600083815260208120601f840160051c8101926020851062002aa5575b601f0160051c01915b82811062002a9957505062002980565b81815560010162002a89565b909250829062002a80565b601f8260209493601f19938186528686013760008582860101520116010190565b6007549060005b82811062002ae857505050600090565b62002b0962002b0262002afb836200230b565b5062002143565b8362002b27565b62002b1f5762002b199062002700565b62002ad8565b505050600190565b90604051918262002b45602082019260208452604083019062002214565b039262002b5b601f199485810183528262001fbf565b5190209162002b8d604051918262002b80602082019560208752604083019062002214565b0390810183528262001fbf565b5190201490565b9062002ba08262001fe3565b62002baf604051918262001fbf565b828152601f1962002bc1829462001fe3565b0190602036910137565b90815181101562002343570160200190565b60ff16600a019060ff82116200256057565b602a81510362002dac576040516040810181811067ffffffffffffffff82111762001f73576040526014908181526020810192602036853760005b83811062002c865750505191517fffffffffffffffffffffffffffffffffffffffff000000000000000000000000928382169280821062002c71575b505050905060601c90565b849293500360031b1b16168038808062002c66565b8060011b6002908281048214831517156200256057808201809211620025605762002ce262002cda927fff000000000000000000000000000000000000000000000000000000000000009384918762002bcb565b511662002e3c565b90600491821b90610ff060f083169216820362002d7e57600390810180911162002d7e579062002cda929162002d1e8560ff9586938a62002bcb565b160191821162002d5057509062002d4a929160f81b1660001a62002d43828662002bcb565b5362002700565b62002c2a565b6011907f4e487b71000000000000000000000000000000000000000000000000000000006000525260246000fd5b6011837f4e487b71000000000000000000000000000000000000000000000000000000006000525260246000fd5b60646040517f08c379a000000000000000000000000000000000000000000000000000000000815260206004820152601660248201527f496e76616c69642061646472657373206c656e677468000000000000000000006044820152fd5b60ff7fffffffffffffffffffffffffffffffffffffffffffffffffffffffffffffffd09116019060ff82116200256057565b60f81c60308110158062002f5f575b1562002e5c576200209d9062002e0a565b60618110158062002f53575b1562002eaa5760ff62002e9c7fffffffffffffffffffffffffffffffffffffffffffffffffffffffffffffff9f9262002bdd565b160160ff8111620025605790565b60418110158062002f47575b62002f195760646040517f08c379a000000000000000000000000000000000000000000000000000000000815260206004820152601560248201527f496e76616c6964206865782063686172616374657200000000000000000000006044820152fd5b60ff62002e9c7fffffffffffffffffffffffffffffffffffffffffffffffffffffffffffffffbf9262002bdd565b50604681111562002eb6565b50606681111562002e68565b50603981111562002e4b565b90600080835115620030c65780915b8451831015620030bc5762002f90838662002bcb565b519062002fa160f892831c62002e0a565b5060ff9160098362002fc162002fb8888b62002bcb565b51841c62002e0a565b1611620030b25762002fe29062002fd9868962002bcb565b51901c62002e0a565b91865185810390811162003085577fffffffffffffffffffffffffffffffffffffffffffffffffffffffffffffffff81019081116200308557604d81116200308557600a0a9216828102928184041490151715620030585762003051916200304a9162002552565b9262002700565b9162002f7a565b6024837f4e487b710000000000000000000000000000000000000000000000000000000081526011600452fd5b6024857f4e487b710000000000000000000000000000000000000000000000000000000081526011600452fd5b5050509250508190565b9350600192915050565b92506001919050565b90620030dc825162002b94565b60005b8351811015620031c557620030f5818562002bcb565b5190604160f892831c101580620031ab575b15620031675760206200311b828762002bcb565b51831c019160ff8311620025605762003161927fff00000000000000000000000000000000000000000000000000000000000000911b1660001a62002d43828562002bcb565b620030df565b6200316191507fff000000000000000000000000000000000000000000000000000000000000006200319a828762002bcb565b511660001a62002d43828562002bcb565b50605a620031ba828762002bcb565b51831c111562003107565b509150565b806000917a184f03e93ff9f4daa797ed6e38ed64bf6a1f0100000000000000008082101562003365575b506d04ee2d6d415b85acef81000000008083101562003355575b50662386f26fc100008083101562003345575b506305f5e1008083101562003335575b506127108083101562003325575b50606482101562003314575b600a8092101562003309575b60019081602181860195601f196200328c620032738962001fe3565b98620032836040519a8b62001fbf565b808a5262001fe3565b01366020890137860101905b620032a5575b5050505090565b7fffffffffffffffffffffffffffffffffffffffffffffffffffffffffffffffff849101917f30313233343536373839616263646566000000000000000000000000000000008282061a835304918215620033035791908262003298565b6200329e565b916001019162003257565b91906064600291049101916200324b565b600491939204910191386200323f565b6008919392049101913862003231565b6010919392049101913862003221565b602091939204910191386200320e565b604093508104915038620031f4565b8060008160801c806200351e575b508260401c8062003512575b508260201c8062003506575b5060109280841c80620034f8575b5060081c620034ef575b600180910190829082811b947f7fffffffffffffffffffffffffffffffffffffffffffffffffffffffffffffff841684036200256057600286018087116200256057620033ff9062002b94565b958651156200234357603060208801538651831015620023435760786021880153828101809111620025605791905b8183116200347a575050506200344357505090565b60449250604051917fe22e27eb00000000000000000000000000000000000000000000000000000000835260048301526024820152fd5b909192600f81168281101562002343577f3031323334353637383961626364656600000000000000000000000000000000901a620034b9858962002bcb565b5360041c92801562002560577fffffffffffffffffffffffffffffffffffffffffffffffffffffffffffffffff0191906200342e565b600101620033b2565b6002915091019038620033a8565b9250600401386200339a565b9250600801386200338e565b9250601090503862003382565b80604051916200353b8362001fa2565b602a835260208301604036823783511562002343576030905382516001908110156200234357607860218501536029905b808211620035b75750506200357f575090565b604490604051907fe22e27eb000000000000000000000000000000000000000000000000000000008252600482015260146024820152fd5b9091600f8116601081101562003659577f3031323334353637383961626364656600000000000000000000000000000000901a620035f6848762002bcb565b5360041c9180156200362b577fffffffffffffffffffffffffffffffffffffffffffffffffffffffffffffffff01906200356c565b602460007f4e487b710000000000000000000000000000000000000000000000000000000081526011600452fd5b602460007f4e487b710000000000000000000000000000000000000000000000000000000081526032600452fdfe60c0604090808252346200050c57620020ef803803809162000022828562000511565b833981019060a0818303126200050c5780516001600160401b0392908381116200050c57816200005491840162000535565b9060209081840151908582116200050c576200007291850162000535565b6200007f868501620005ac565b936200009c60806200009460608401620005bb565b9201620005bb565b95620151806005558451818111620004f6576000938454916001978884811c94168015620004eb575b88851014620004d7578190601f9485811162000484575b5088908583116001146200042057889262000414575b5050600019600383901b1c191690881b1785555b8051928311620004005786548781811c91168015620003f5575b87821014620003e157908183859493116200038c575b5086918311600114620003285785926200031c575b5050600019600383901b1c191690851b1784555b846080528060a05260ff19956004958588885416178755868560018060a01b03809516806200024f575b50505050169360018060a01b0319958587600854161760085585835260068452848884209182541617905560075493680100000000000000008510156200023c578401806007558410156200022957506007815220019182541617905551611b1e9081620005d1823960805181610bc9015260a051818181610308015281816104e201528181610a2001528181610a840152818161149d01526114ff0152f35b634e487b7160e01b825260329052602490fd5b634e487b7160e01b835260418252602483fd5b8b5163313ce56760e01b815292839182905afa90811562000312578591620002cd575b5060ff8091169116036200028a573886858262000189565b875162461bcd60e51b8152808701859052601d60248201527f5468656961546f6b656e3a20646563696d616c73206469736d617463680000006044820152606490fd5b90508581813d83116200030a575b620002e7818362000511565b81010312620003065760ff620002fe8192620005ac565b915062000272565b8480fd5b503d620002db565b8a513d87823e3d90fd5b0151905038806200014b565b8786528686208894509190601f198416875b898282106200037557505084116200035b575b505050811b0184556200015f565b015160001960f88460031b161c191690553880806200034d565b8385015186558b979095019493840193016200033a565b909192508786528686208380860160051c820192898710620003d7575b9186958b929594930160051c01915b828110620003c857505062000136565b8881558695508a9101620003b8565b92508192620003a9565b634e487b7160e01b86526022600452602486fd5b90607f169062000120565b634e487b7160e01b85526041600452602485fd5b015190503880620000f2565b8880528989208b94509190601f1984168a5b8c8282106200046d575050841162000453575b505050811b01855562000106565b015160001960f88460031b161c1916905538808062000445565b8385015186558e9790950194938401930162000432565b9091508780528888208580850160051c8201928b8610620004cd575b918c91869594930160051c01915b828110620004be575050620000dc565b8a81558594508c9101620004ae565b92508192620004a0565b634e487b7160e01b87526022600452602487fd5b93607f1693620000c5565b634e487b7160e01b600052604160045260246000fd5b600080fd5b601f909101601f19168101906001600160401b03821190821017620004f657604052565b919080601f840112156200050c578251906001600160401b038211620004f6576040519160209162000571601f8301601f191684018562000511565b8184528282870101116200050c5760005b8181106200059857508260009394955001015290565b858101830151848201840152820162000582565b519060ff821682036200050c57565b51906001600160a01b03821682036200050c5756fe60406080815260048036101561001457600080fd5b600091823560e01c91826239d6ec14611135578262f714ce1461110c57826306fdde0314611050578263095ea7b314610fd15782630d707df814610ea257826311756bd114610e8357826318160ddd14610e6457826323b872dd14610c455782632678224714610c105782632e1a7d4d14610bed578263313ce56714610baf5782633ccfd60b14610b8557826340c10f1914610b565782634e67428d14610acd57826369b4117014610aae5782636e553f6514610a445782636f307dc3146109f3578263704b6c021461096d57826370a08231146109295782638623ec7b146108d95782638da5cb5b146108a457826391c5df491461086f57826395d89b41146107355782639dc29fac146106ef578263a045442c14610610578263a9059cbb14610550578263aa271e1a14610507578263b6b55f25146104aa578263bebbf4d01461045f578263c308124014610440578263cfbd4885146103cd578263d0e30db0146102df57508163d6c79751146102c4578163dd62ed3e1461026e578163f887ea4014610235575063fca3b5aa146101ad57600080fd5b34610232576020600319360112610232576101c6611193565b73ffffffffffffffffffffffffffffffffffffffff906101eb8260085416331461131a565b166101f781151561137f565b7fffffffffffffffffffffffff0000000000000000000000000000000000000000600954161760095561022c600554426113e4565b600a5580f35b80fd5b90503461026a578160031936011261026a5760209073ffffffffffffffffffffffffffffffffffffffff600854169051908152f35b5080fd5b90503461026a578060031936011261026a578060209261028c611193565b6102946111bb565b73ffffffffffffffffffffffffffffffffffffffff9182168352600d865283832091168252845220549051908152f35b90503461026a578160031936011261026a5751908152602090f35b90833461023257806003193601126102325773ffffffffffffffffffffffffffffffffffffffff7f000000000000000000000000000000000000000000000000000000000000000016928251907f70a082310000000000000000000000000000000000000000000000000000000082523390820152602081602481875afa9182156103c257809261038c575b6020846103858561037e8130338c611898565b3390611485565b9051908152f35b9091506020823d82116103ba575b816103a7602093836111de565b810103126102325750518261037e61036b565b3d915061039a565b8351903d90823e3d90fd5b83823461026a57602060031936011261026a576103e8611193565b73ffffffffffffffffffffffffffffffffffffffff9061040d8260085416331461131a565b168252600660205281207fffffffffffffffffffffffffffffffffffffffffffffffffffffffffffffff00815416905580f35b83823461026a578160031936011261026a57602090600a549051908152f35b908334610232578160031936011261023257506103856020926104806111bb565b906104a473ffffffffffffffffffffffffffffffffffffffff60085416331461131a565b35611485565b90833461023257602060031936011261023257506103856020923561037e81303373ffffffffffffffffffffffffffffffffffffffff7f000000000000000000000000000000000000000000000000000000000000000016611898565b83823461026a57602060031936011261026a5760ff8160209373ffffffffffffffffffffffffffffffffffffffff61053d611193565b1681526006855220541690519015158152f35b83823461026a578060031936011261026a5761056a611193565b73ffffffffffffffffffffffffffffffffffffffff1660243581151580610606575b156106025782602094338152600286526105b583838320546105b08282101561180d565b611671565b3382526002875282822055838152206105cf8282546113e4565b905582519081527fddf252ad1be2c89b69c2b068fc378daa952ba7f163c4a11628f55a4df523b3ef843392a35160018152f35b8380fd5b503082141561058c565b5082346102325780600319360112610232579080519182906007549182855260208095018093600784527fa66cc928b5edb82af9bd49922954155ab7b0942694bea4ce44661d9a8736c68890845b8181106106c557505050816106749103826111de565b83519485948186019282875251809352850193925b82811061069857505050500390f35b835173ffffffffffffffffffffffffffffffffffffffff1685528695509381019392810192600101610689565b825473ffffffffffffffffffffffffffffffffffffffff168452928801926001928301920161065e565b83823461026a578060031936011261026a5761072e60209261072560ff84610715611193565b9333815260068852205416611420565b6024359061167e565b5160018152f35b91503461086b578260031936011261086b5780519183600180549182821c928281168015610861575b602095868610821461083557508488529081156107f5575060011461079d575b610799868661078f828b03836111de565b519182918261124e565b0390f35b9295508083527fb10e2d527612073b26eecdfd717e6a320cf44b4afac2b0732d9fcbe2b7fa0cf65b8284106107e257505050826107999461078f92820101943861077e565b80548685018801529286019281016107c5565b7fffffffffffffffffffffffffffffffffffffffffffffffffffffffffffffff001687860152505050151560051b830101925061078f826107993861077e565b8360226024927f4e487b7100000000000000000000000000000000000000000000000000000000835252fd5b93607f169361075e565b8280fd5b83823461026a578160031936011261026a5760209073ffffffffffffffffffffffffffffffffffffffff600954169051908152f35b83823461026a578160031936011261026a5760209073ffffffffffffffffffffffffffffffffffffffff600854169051908152f35b9091503461086b57602060031936011261086b573591600754831015610232575073ffffffffffffffffffffffffffffffffffffffff61091a6020936112b4565b92905490519260031b1c168152f35b83823461026a57602060031936011261026a578060209273ffffffffffffffffffffffffffffffffffffffff61095d611193565b1681526002845220549051908152f35b833461023257602060031936011261023257610987611193565b73ffffffffffffffffffffffffffffffffffffffff906109ac8260085416331461131a565b166109b881151561137f565b7fffffffffffffffffffffffff0000000000000000000000000000000000000000600b541617600b556109ed600554426113e4565b600c5580f35b83823461026a578160031936011261026a576020905173ffffffffffffffffffffffffffffffffffffffff7f0000000000000000000000000000000000000000000000000000000000000000168152f35b9083346102325781600319360112610232575061038560209235610a666111bb565b90610aa981303373ffffffffffffffffffffffffffffffffffffffff7f000000000000000000000000000000000000000000000000000000000000000016611898565b611485565b83823461026a578160031936011261026a576020906005549051908152f35b833461023257806003193601126102325760085473ffffffffffffffffffffffffffffffffffffffff610b03818316331461131a565b600b5490811680151580610b4a575b15610602577fffffffffffffffffffffffff00000000000000000000000000000000000000008093161760085516600b5580600c5580f35b50600c54421015610b12565b83823461026a578060031936011261026a5761072e602092610b7c60ff84610715611193565b602435906115a0565b83823461026a578160031936011261026a57610385602092338152600284528233912054336114e5565b83823461026a578160031936011261026a576020905160ff7f0000000000000000000000000000000000000000000000000000000000000000168152f35b9083346102325760206003193601126102325750610385602092339035336114e5565b83823461026a578160031936011261026a5760209073ffffffffffffffffffffffffffffffffffffffff600b54169051908152f35b9091503461086b57606060031936011261086b57610c61611193565b90610c6a6111bb565b6044359073ffffffffffffffffffffffffffffffffffffffff8091169384151580610e5a575b15610e56571691338303610d0b575b5060207fddf252ad1be2c89b69c2b068fc378daa952ba7f163c4a11628f55a4df523b3ef9185878584995260028452610ce283838320546105b08282101561180d565b868252600285528282205586815220610cfc8282546113e4565b90558551908152a35160018152f35b828652602090600d8252858720338852825285872054907fffffffffffffffffffffffffffffffffffffffffffffffffffffffffffffffff8203610d51575b5050610c9f565b838210610dd4575091856020978893867f8c5be1e5ebec7d5bd14f71427d1e84f3dd0314c0f7b2291e5b200ac8c7c3b925610dad867fddf252ad1be2c89b69c2b068fc378daa952ba7f163c4a11628f55a4df523b3ef99611671565b92828552600d81528585203386528152838686205585519384523393a39750819350610d4a565b608490838851917f08c379a0000000000000000000000000000000000000000000000000000000008352820152602560248201527f546865696145524332303a2072657175657374206578636565647320616c6c6f60448201527f77616e63650000000000000000000000000000000000000000000000000000006064820152fd5b8680fd5b5030851415610c90565b83823461026a578160031936011261026a576020906003549051908152f35b83823461026a578160031936011261026a57602090600c549051908152f35b9091503461086b578260031936011261086b5773ffffffffffffffffffffffffffffffffffffffff91610eda8360085416331461131a565b82600954168015801580610fc5575b15610fc157610fbd5784526006602052832060017fffffffffffffffffffffffffffffffffffffffffffffffffffffffffffffff008254161790558160095416906007549068010000000000000000821015610f915750806001610f5092016007556112b4565b909283549160031b92831b921b19161790557fffffffffffffffffffffffff00000000000000000000000000000000000000006009541660095580600a5580f35b8460416024927f4e487b7100000000000000000000000000000000000000000000000000000000835252fd5b8480fd5b8580fd5b50600a54421015610ee9565b83823461026a578060031936011261026a5760209181610fef611193565b91602435918291338152600d875273ffffffffffffffffffffffffffffffffffffffff8282209516948582528752205582519081527f8c5be1e5ebec7d5bd14f71427d1e84f3dd0314c0f7b2291e5b200ac8c7c3b925843392a35160018152f35b91503461086b578260031936011261086b578051918380549060019082821c928281168015611102575b602095868610821461083557508488529081156107f557506001146110aa57610799868661078f828b03836111de565b8080949750527f290decd9548b62a8d60345a988386fc84ba6bc95484008f6362f93160ef3e5635b8284106110ef57505050826107999461078f92820101943861077e565b80548685018801529286019281016110d2565b93607f169361107a565b9083346102325781600319360112610232575061038560209261112d6111bb565b9035336114e5565b83823461026a57606060031936011261026a57611150611193565b6044359273ffffffffffffffffffffffffffffffffffffffff9081851685036102325750926103859161118a60209560085416331461131a565b602435906114e5565b6004359073ffffffffffffffffffffffffffffffffffffffff821682036111b657565b600080fd5b6024359073ffffffffffffffffffffffffffffffffffffffff821682036111b657565b90601f7fffffffffffffffffffffffffffffffffffffffffffffffffffffffffffffffe0910116810190811067ffffffffffffffff82111761121f57604052565b7f4e487b7100000000000000000000000000000000000000000000000000000000600052604160045260246000fd5b60208082528251818301819052939260005b8581106112a0575050507fffffffffffffffffffffffffffffffffffffffffffffffffffffffffffffffe0601f8460006040809697860101520116010190565b818101830151848201604001528201611260565b6007548110156112eb5760076000527fa66cc928b5edb82af9bd49922954155ab7b0942694bea4ce44661d9a8736c6880190600090565b7f4e487b7100000000000000000000000000000000000000000000000000000000600052603260045260246000fd5b1561132157565b60646040517f08c379a000000000000000000000000000000000000000000000000000000000815260206004820152601560248201527f546865696145524332303a206e6f742041646d696e00000000000000000000006044820152fd5b1561138657565b60646040517f08c379a000000000000000000000000000000000000000000000000000000000815260206004820152601660248201527f546865696145524332303a2061646472657373283029000000000000000000006044820152fd5b919082018092116113f157565b7f4e487b7100000000000000000000000000000000000000000000000000000000600052601160045260246000fd5b1561142757565b60646040517f08c379a000000000000000000000000000000000000000000000000000000000815260206004820152601660248201527f546865696145524332303a206e6f74204d696e746572000000000000000000006044820152fd5b9073ffffffffffffffffffffffffffffffffffffffff7f00000000000000000000000000000000000000000000000000000000000000001680151590816114da575b50156111b657816114d7916115a0565b90565b9050301415386114c7565b909173ffffffffffffffffffffffffffffffffffffffff807f0000000000000000000000000000000000000000000000000000000000000000169283151580611596575b156111b657846115389161167e565b604051917fa9059cbb00000000000000000000000000000000000000000000000000000000602084015216602482015282604482015260448152608081019181831067ffffffffffffffff84111761121f576114d792604052611916565b5030841415611529565b73ffffffffffffffffffffffffffffffffffffffff16908115611613577fddf252ad1be2c89b69c2b068fc378daa952ba7f163c4a11628f55a4df523b3ef6020826115ef6000946003546113e4565b60035584845260028252604084206116088282546113e4565b9055604051908152a3565b60646040517f08c379a000000000000000000000000000000000000000000000000000000000815260206004820152601f60248201527f45524332303a206d696e7420746f20746865207a65726f2061646472657373006044820152fd5b919082039182116113f157565b73ffffffffffffffffffffffffffffffffffffffff1680156117895780600052600260205260406000205491808310611705576020816116e17fddf252ad1be2c89b69c2b068fc378daa952ba7f163c4a11628f55a4df523b3ef93600096611671565b8486526002835260408620556116f981600354611671565b600355604051908152a3565b60846040517f08c379a000000000000000000000000000000000000000000000000000000000815260206004820152602260248201527f45524332303a206275726e20616d6f756e7420657863656564732062616c616e60448201527f63650000000000000000000000000000000000000000000000000000000000006064820152fd5b60846040517f08c379a000000000000000000000000000000000000000000000000000000000815260206004820152602160248201527f45524332303a206275726e2066726f6d20746865207a65726f2061646472657360448201527f73000000000000000000000000000000000000000000000000000000000000006064820152fd5b1561181457565b60846040517f08c379a000000000000000000000000000000000000000000000000000000000815260206004820152602b60248201527f546865696145524332303a207472616e7366657220616d6f756e74206578636560448201527f6564732062616c616e63650000000000000000000000000000000000000000006064820152fd5b9290604051927f23b872dd00000000000000000000000000000000000000000000000000000000602085015273ffffffffffffffffffffffffffffffffffffffff809216602485015216604483015260648201526064815260a081019181831067ffffffffffffffff84111761121f5761191492604052611916565b565b73ffffffffffffffffffffffffffffffffffffffff1690600080826020829451910182865af13d15611a3c573d9067ffffffffffffffff8211611a0f579061199e916040519161198e60207fffffffffffffffffffffffffffffffffffffffffffffffffffffffffffffffe0601f84011601846111de565b82523d84602084013e5b84611a48565b9081519182151592836119e7575b5050506119b65750565b602490604051907f5274afe70000000000000000000000000000000000000000000000000000000082526004820152fd5b81929350906020918101031261026a57602001519081159182150361023257503880806119ac565b6024837f4e487b710000000000000000000000000000000000000000000000000000000081526041600452fd5b61199e90606090611998565b90611a875750805115611a5d57805190602001fd5b60046040517f1425ea42000000000000000000000000000000000000000000000000000000008152fd5b81511580611adf575b611a98575090565b60249073ffffffffffffffffffffffffffffffffffffffff604051917f9996b315000000000000000000000000000000000000000000000000000000008352166004820152fd5b50803b15611a9056fea26469706673582212203480e3dbfab8fad9363a58bef5ff43427003f763337317438b635c682f521eb464736f6c63430008140033a26469706673582212209e8c49626e4626a1bebfc2944451978fbbb13307fbdc08380d8799f656b935c164736f6c63430008140033","linkReferences":{}},"methodIdentifiers":{"FuncDeployTheia()":"7af30f9a","addTxSender(address)":"eebd14af","c3CallerProxy()":"58f2c057","c3Fallback(uint256,bytes,bytes)":"b121f51d","cID()":"99a2f2d7","changeGov(address)":"a962ef1e","dappID()":"c516ad11","delay()":"6a42b8f8","deployTheia(string,string,string,uint8,string,bytes32,string)":"2d1c26f1","disableTxSender(address)":"f9e4cbaf","doGov(string,string,bytes)":"d60ad41b","doGovBroadcast(string[],string[],bytes)":"dd64b3e6","getPoolTokens()":"89c06568","getSymbolByToken(string,string)":"e94aa491","getTokenBySymbol(string,string)":"b3c731b3","gov()":"12d43a51","isOperator(address)":"6d70f7ae","isValidSender(address)":"f01f2b8b","newTheiaTokenEVM(string,string,uint8[],address[],uint256[],address[],bytes32,address[])":"25d819a5","operators(uint256)":"e28d4906","poolTokenSymbols(uint256)":"5a0adf2f","registerNewTheia(string,string,string,string,uint8,string)":"9520b649","setDelay(uint256)":"e177246e","strToUint(string)":"c5ef3ec5","stringToAddress(string)":"15706fdf","stringsEqual(string,string)":"13d19950","symbolToToken(string,string)":"2238a8a4","tokenSymbolExists(string)":"0bd47a78","tokenToSymbol(string,string)":"2b90a9ae","underlyingByChainId(string,string)":"207ba6fd","version()":"54fd4d50","wNATIVE()":"8fd903f5"},"id":17}