{"abi":[{"type":"constructor","inputs":[{"name":"_gov","type":"address","internalType":"address"},{"name":"_c3callerProxy","type":"address","internalType":"address"},{"name":"_txSender","type":"address","internalType":"address"},{"name":"_dappID","type":"uint256","internalType":"uint256"}],"stateMutability":"nonpayable"},{"type":"function","name":"FROM_CHAIN_PAY","inputs":[],"outputs":[{"name":"","type":"uint256","internalType":"uint256"}],"stateMutability":"view"},{"type":"function","name":"TO_CHAIN_PAY","inputs":[],"outputs":[{"name":"","type":"uint256","internalType":"uint256"}],"stateMutability":"view"},{"type":"function","name":"addFeeToken","inputs":[{"name":"_feeToken","type":"address","internalType":"address"}],"outputs":[{"name":"","type":"bool","internalType":"bool"}],"stateMutability":"nonpayable"},{"type":"function","name":"addTxSender","inputs":[{"name":"txSender","type":"address","internalType":"address"}],"outputs":[],"stateMutability":"nonpayable"},{"type":"function","name":"c3CallerProxy","inputs":[],"outputs":[{"name":"","type":"address","internalType":"address"}],"stateMutability":"view"},{"type":"function","name":"c3Fallback","inputs":[{"name":"_dappID","type":"uint256","internalType":"uint256"},{"name":"_data","type":"bytes","internalType":"bytes"},{"name":"_reason","type":"bytes","internalType":"bytes"}],"outputs":[{"name":"","type":"bool","internalType":"bool"}],"stateMutability":"nonpayable"},{"type":"function","name":"changeGov","inputs":[{"name":"newGov","type":"address","internalType":"address"}],"outputs":[],"stateMutability":"nonpayable"},{"type":"function","name":"dappID","inputs":[],"outputs":[{"name":"","type":"uint256","internalType":"uint256"}],"stateMutability":"view"},{"type":"function","name":"delFeeToken","inputs":[{"name":"_feeToken","type":"address","internalType":"address"}],"outputs":[{"name":"","type":"bool","internalType":"bool"}],"stateMutability":"nonpayable"},{"type":"function","name":"delay","inputs":[],"outputs":[{"name":"","type":"uint256","internalType":"uint256"}],"stateMutability":"view"},{"type":"function","name":"disableTxSender","inputs":[{"name":"txSender","type":"address","internalType":"address"}],"outputs":[],"stateMutability":"nonpayable"},{"type":"function","name":"doGov","inputs":[{"name":"_to","type":"string","internalType":"string"},{"name":"_toChainID","type":"string","internalType":"string"},{"name":"_data","type":"bytes","internalType":"bytes"}],"outputs":[],"stateMutability":"nonpayable"},{"type":"function","name":"doGovBroadcast","inputs":[{"name":"_targets","type":"string[]","internalType":"string[]"},{"name":"_toChainIDs","type":"string[]","internalType":"string[]"},{"name":"_data","type":"bytes","internalType":"bytes"}],"outputs":[],"stateMutability":"nonpayable"},{"type":"function","name":"feeParams","inputs":[{"name":"","type":"address","internalType":"address"}],"outputs":[{"name":"basePrice","type":"uint256","internalType":"uint256"},{"name":"lowGas","type":"uint256","internalType":"uint256"},{"name":"normalGas","type":"uint256","internalType":"uint256"},{"name":"highGas","type":"uint256","internalType":"uint256"},{"name":"veryHighGas","type":"uint256","internalType":"uint256"},{"name":"lowGasFee","type":"uint256","internalType":"uint256"},{"name":"normalGasFee","type":"uint256","internalType":"uint256"},{"name":"highGasFee","type":"uint256","internalType":"uint256"},{"name":"veryHighGasFee","type":"uint256","internalType":"uint256"}],"stateMutability":"view"},{"type":"function","name":"feeTokenIndexMap","inputs":[{"name":"","type":"address","internalType":"address"}],"outputs":[{"name":"","type":"uint256","internalType":"uint256"}],"stateMutability":"view"},{"type":"function","name":"feeTokenList","inputs":[{"name":"","type":"uint256","internalType":"uint256"}],"outputs":[{"name":"","type":"address","internalType":"address"}],"stateMutability":"view"},{"type":"function","name":"getBaseLiquidityFee","inputs":[{"name":"_feeToken","type":"address","internalType":"address"}],"outputs":[{"name":"","type":"uint256","internalType":"uint256"}],"stateMutability":"view"},{"type":"function","name":"getFee","inputs":[{"name":"fromChainID","type":"uint256","internalType":"uint256"},{"name":"toChainID","type":"uint256","internalType":"uint256"},{"name":"feeToken","type":"address","internalType":"address"}],"outputs":[{"name":"","type":"uint256","internalType":"uint256"}],"stateMutability":"view"},{"type":"function","name":"getFeeTokenIndexMap","inputs":[{"name":"feeToken","type":"address","internalType":"address"}],"outputs":[{"name":"","type":"uint256","internalType":"uint256"}],"stateMutability":"view"},{"type":"function","name":"getFeeTokenList","inputs":[],"outputs":[{"name":"","type":"address[]","internalType":"address[]"}],"stateMutability":"view"},{"type":"function","name":"getFeeTokenParams","inputs":[{"name":"_feeToken","type":"address","internalType":"address"}],"outputs":[{"name":"","type":"tuple","internalType":"struct FeeManager.FeeParams","components":[{"name":"basePrice","type":"uint256","internalType":"uint256"},{"name":"lowGas","type":"uint256","internalType":"uint256"},{"name":"normalGas","type":"uint256","internalType":"uint256"},{"name":"highGas","type":"uint256","internalType":"uint256"},{"name":"veryHighGas","type":"uint256","internalType":"uint256"},{"name":"lowGasFee","type":"uint256","internalType":"uint256"},{"name":"normalGasFee","type":"uint256","internalType":"uint256"},{"name":"highGasFee","type":"uint256","internalType":"uint256"},{"name":"veryHighGasFee","type":"uint256","internalType":"uint256"}]}],"stateMutability":"view"},{"type":"function","name":"getFromChainFee","inputs":[{"name":"fromChainID","type":"uint256","internalType":"uint256"},{"name":"feeToken","type":"address","internalType":"address"}],"outputs":[{"name":"","type":"uint256","internalType":"uint256"}],"stateMutability":"view"},{"type":"function","name":"getGasFee","inputs":[{"name":"toChainId","type":"uint256","internalType":"uint256"},{"name":"feeToken","type":"address","internalType":"address"}],"outputs":[{"name":"","type":"uint256","internalType":"uint256"}],"stateMutability":"view"},{"type":"function","name":"getLiquidityFee","inputs":[{"name":"feeToken","type":"address","internalType":"address"},{"name":"fromChainID","type":"uint256","internalType":"uint256"},{"name":"toChainID","type":"uint256","internalType":"uint256"},{"name":"liquidity","type":"uint256","internalType":"uint256"},{"name":"amount","type":"uint256","internalType":"uint256"}],"outputs":[{"name":"","type":"uint256","internalType":"uint256"}],"stateMutability":"view"},{"type":"function","name":"getLiquidityFeeFactor","inputs":[{"name":"liquidity","type":"uint256","internalType":"uint256"},{"name":"amount","type":"uint256","internalType":"uint256"}],"outputs":[{"name":"feeRate","type":"uint256","internalType":"uint256"}],"stateMutability":"pure"},{"type":"function","name":"getToChainFee","inputs":[{"name":"toChainID","type":"uint256","internalType":"uint256"},{"name":"feeToken","type":"address","internalType":"address"}],"outputs":[{"name":"","type":"uint256","internalType":"uint256"}],"stateMutability":"view"},{"type":"function","name":"gov","inputs":[],"outputs":[{"name":"","type":"address","internalType":"address"}],"stateMutability":"view"},{"type":"function","name":"isValidSender","inputs":[{"name":"txSender","type":"address","internalType":"address"}],"outputs":[{"name":"","type":"bool","internalType":"bool"}],"stateMutability":"view"},{"type":"function","name":"setDelay","inputs":[{"name":"_delay","type":"uint256","internalType":"uint256"}],"outputs":[],"stateMutability":"nonpayable"},{"type":"function","name":"setFeeConfig","inputs":[{"name":"srcChainID","type":"uint256","internalType":"uint256"},{"name":"dstChainID","type":"uint256","internalType":"uint256"},{"name":"payFrom","type":"uint256","internalType":"uint256"},{"name":"feetokens","type":"address[]","internalType":"address[]"},{"name":"fee","type":"uint256[]","internalType":"uint256[]"}],"outputs":[{"name":"","type":"bool","internalType":"bool"}],"stateMutability":"nonpayable"},{"type":"function","name":"setFeeTokenParams","inputs":[{"name":"_feeToken","type":"address","internalType":"address"},{"name":"fee","type":"tuple","internalType":"struct FeeManager.FeeParams","components":[{"name":"basePrice","type":"uint256","internalType":"uint256"},{"name":"lowGas","type":"uint256","internalType":"uint256"},{"name":"normalGas","type":"uint256","internalType":"uint256"},{"name":"highGas","type":"uint256","internalType":"uint256"},{"name":"veryHighGas","type":"uint256","internalType":"uint256"},{"name":"lowGasFee","type":"uint256","internalType":"uint256"},{"name":"normalGasFee","type":"uint256","internalType":"uint256"},{"name":"highGasFee","type":"uint256","internalType":"uint256"},{"name":"veryHighGasFee","type":"uint256","internalType":"uint256"}]}],"outputs":[{"name":"","type":"bool","internalType":"bool"}],"stateMutability":"nonpayable"},{"type":"function","name":"setLiqBaseFee","inputs":[{"name":"_feeToken","type":"address","internalType":"address"},{"name":"_baseFee","type":"uint256","internalType":"uint256"}],"outputs":[{"name":"","type":"bool","internalType":"bool"}],"stateMutability":"nonpayable"},{"type":"function","name":"withdrawFee","inputs":[{"name":"feeToken","type":"address","internalType":"address"},{"name":"amount","type":"uint256","internalType":"uint256"}],"outputs":[{"name":"","type":"bool","internalType":"bool"}],"stateMutability":"nonpayable"},{"type":"event","name":"AddFeeToken","inputs":[{"name":"_feeToken","type":"address","indexed":true,"internalType":"address"}],"anonymous":false},{"type":"event","name":"DelFeeToken","inputs":[{"name":"_feeToken","type":"address","indexed":true,"internalType":"address"}],"anonymous":false},{"type":"event","name":"LogChangeGov","inputs":[{"name":"oldGov","type":"address","indexed":true,"internalType":"address"},{"name":"newGov","type":"address","indexed":true,"internalType":"address"},{"name":"effectiveTime","type":"uint256","indexed":true,"internalType":"uint256"},{"name":"chainID","type":"uint256","indexed":false,"internalType":"uint256"}],"anonymous":false},{"type":"event","name":"LogTxSender","inputs":[{"name":"txSender","type":"address","indexed":true,"internalType":"address"},{"name":"vaild","type":"bool","indexed":false,"internalType":"bool"}],"anonymous":false},{"type":"event","name":"SetLiqFee","inputs":[{"name":"_feeToken","type":"address","indexed":true,"internalType":"address"},{"name":"_fee","type":"uint256","indexed":false,"internalType":"uint256"}],"anonymous":false},{"type":"event","name":"Withdrawal","inputs":[{"name":"_oldFeeToken","type":"address","indexed":false,"internalType":"address"},{"name":"_recipient","type":"address","indexed":false,"internalType":"address"},{"name":"_oldTokenContractBalance","type":"uint256","indexed":false,"internalType":"uint256"}],"anonymous":false}],"bytecode":{"object":"0x608034620000d857601f6200253838819003918201601f19168301916001600160401b03831184841017620000dd57808492608094604052833981010312620000d8576200004d81620000f3565b906200005c60208201620000f3565b60606200006c60408401620000f3565b92015160018060a01b039384918260018060a01b031994168460005416176000556001556202a3006002551690818160035416176003556004541617600455426005551660005260066020526040600020600160ff1982541617905560405161242f9081620001098239f35b600080fd5b634e487b7160e01b600052604160045260246000fd5b51906001600160a01b0382168203620000d85756fe6080604081815260048036101561001557600080fd5b60009260e08435811c918263093787b5146119e65750816312d43a51146119ab5781631587c1e81461195c5781631f300b8f146118c15781632a42a48a1461181c5781633558879e146116f65781633582029b146116b15781633bdde5f4146116945781633f57d8511461166b57816353ecc8b51461151a57816358f2c057146116375781635ab8f829146115e957816360251ec7146115a35781636a42b8f814611583578163924bbade1461155f578163a36d45051461151a578163a6e30bb3146113e657508063a962ef1e14611278578063aa2eded21461114e578063aac1365514610d9a578063ab81334d14610bab57838163b121f51d14610a0357508063c516ad11146109e4578063d60ad41b1461088b578063dd64b3e6146106ef578063e177246e14610691578063e28ab277146105af578063eb77f2ad14610593578063eebd14af146104d1578063f01f2b8b14610488578063f05527a41461044b578063f9e4cbaf146103895763fd9be5221461019257600080fd5b346103855781600319360112610385576101aa611a5a565b926024359373ffffffffffffffffffffffffffffffffffffffff806101cd612304565b1633148015610371575b6101e090611cd8565b8591169084517f70a0823100000000000000000000000000000000000000000000000000000000815230858201526020968782602481875afa91821561036757918893918695938692610328575b5090604492918110610320575b50875194859384927fa9059cbb000000000000000000000000000000000000000000000000000000008452338a85015260248401525af191821561031557916102e8575b501561028d57505160018152f35b8260649251917f08c379a0000000000000000000000000000000000000000000000000000000008352820152600d60248201527f7472616e73666572206661696c000000000000000000000000000000000000006044820152fd5b6103089150843d861161030e575b6103008183611b43565b810190611cc0565b3861027f565b503d6102f6565b8451903d90823e3d90fd5b90503861023b565b929483919496508092503d8311610360575b6103448183611b43565b8101031261035c57879285949260449251919261022e565b8480fd5b503d61033a565b87513d87823e3d90fd5b506101e061037e33611d3d565b90506101d7565b8280fd5b505034610447576020600319360112610447577fbfb8b3e2f6221ae729e9cacb0d35f5d9be686ba10cb1d4e34b646bbb87f7a26960206103c7611a5a565b73ffffffffffffffffffffffffffffffffffffffff90816103e6612304565b1633148015610433575b6103f990611cd8565b1692838552600682528085207fffffffffffffffffffffffffffffffffffffffffffffffffffffffffffffff00815416905551848152a280f35b506103f961044033611d3d565b90506103f0565b5080fd5b5050346104475760a06003193601126104475760209061048161046c611a5a565b60843590606435906044359060243590611fe2565b9051908152f35b5050346104475760206003193601126104475760ff8160209373ffffffffffffffffffffffffffffffffffffffff6104be611a5a565b1681526006855220541690519015158152f35b505034610447576020600319360112610447577fbfb8b3e2f6221ae729e9cacb0d35f5d9be686ba10cb1d4e34b646bbb87f7a269602061050f611a5a565b73ffffffffffffffffffffffffffffffffffffffff908161052e612304565b163314801561057f575b61054190611cd8565b16928385526006825280852060017fffffffffffffffffffffffffffffffffffffffffffffffffffffffffffffff008254161790555160018152a280f35b5061054161058c33611d3d565b9050610538565b5050346104475781600319360112610447576020905160028152f35b82843461068e578060031936011261068e579080519182906007549182855260208095018093600784527fa66cc928b5edb82af9bd49922954155ab7b0942694bea4ce44661d9a8736c68890845b8181106106645750505081610613910382611b43565b83519485948186019282875251809352850193925b82811061063757505050500390f35b835173ffffffffffffffffffffffffffffffffffffffff1685528695509381019392810192600101610628565b825473ffffffffffffffffffffffffffffffffffffffff16845292880192600192830192016105fd565b80fd5b8382346104475760206003193601126104475773ffffffffffffffffffffffffffffffffffffffff6106c1612304565b16331480156106db575b6106d490611cd8565b3560025580f35b506106d46106e833611d3d565b90506106cb565b5091903461044757600319906060823601126103855767ffffffffffffffff91843583811161035c576107259036908701611c3f565b6024358481116108875761073c9036908801611c3f565b93604435908111610887576107549036908801611bca565b73ffffffffffffffffffffffffffffffffffffffff9687610773612304565b1633148015610873575b61078690611cd8565b825186510361083d5786978754169160015491833b156108395761080d899687936107fe6107ee9b8b519c8d9a8b998a987fec6a8b7d000000000000000000000000000000000000000000000000000000008a528901526080602489015260848801906123a4565b90848783030160448801526123a4565b91848303016064850152612346565b03925af190811561083057506108205750f35b61082990611b2f565b61068e5780f35b513d84823e3d90fd5b8880fd5b6044908760208751927f08c379a00000000000000000000000000000000000000000000000000000000084528301526024820152fd5b5061078661088033611d3d565b905061077d565b8580fd5b50903461038557826003196060813601126104475767ffffffffffffffff84358181116109e0576108bf9036908701611bca565b9460243582811161035c576108d79036908301611bca565b9160443590811161035c576108ef9036908301611bca565b73ffffffffffffffffffffffffffffffffffffffff8061090d612304565b16331480156109cc575b61092090611cd8565b8554169260015494843b156109c8578661099c819461098c60209561097c8d519e8f9c8d9b7f27a63fd8000000000000000000000000000000000000000000000000000000008d528c015260a060248c015260a48b0190612346565b90868a83030160448b0152612346565b9084888303016064890152612346565b85810392830160848701525201925af190811561083057506109bc575080f35b6109c590611b2f565b80f35b8680fd5b506109206109d933611d3d565b9050610917565b8380fd5b5050346104475781600319360112610447576020906001549051908152f35b919050346104475760606003193601126104475767ffffffffffffffff906024358281116109e057610a389036908301611b9c565b92604435915081116109e057610a519036908301611b9c565b505073ffffffffffffffffffffffffffffffffffffffff8354168451907f7ac07dcc0000000000000000000000000000000000000000000000000000000082523383830152816024816020998a945af1908115610ba1578491610b84575b5015610b2857600154813503610acc571161068e57505160018152f35b606490858551917f08c379a0000000000000000000000000000000000000000000000000000000008352820152600f60248201527f646170704944206469736d6174636800000000000000000000000000000000006044820152fd5b606490858551917f08c379a0000000000000000000000000000000000000000000000000000000008352820152601860248201527f433343616c6c6572446170703a206f6e6c7943616c6c657200000000000000006044820152fd5b610b9b9150863d881161030e576103008183611b43565b38610aaf565b85513d86823e3d90fd5b5091903461044757602060031936011261044757610bc7611a5a565b9073ffffffffffffffffffffffffffffffffffffffff809281610be8612304565b1633148015610d86575b610bfb90611cd8565b16918284526008602052610c13828520541515611dca565b8284526008602052818420546007549091818303610c6657505050602093507fe17b67df49a97a5c46e1b0225f0c262cd3ce94c1c47aca1e171d3787f136ace890610c5c611e2f565b519280a260018152f35b7fffffffffffffffffffffffffffffffffffffffffffffffffffffffffffffffff91828101908111610d5a57610c9b90611a7d565b90549060031b1c1690610cac611e2f565b8201828111610d2e576020965090610d1781610cea7fe17b67df49a97a5c46e1b0225f0c262cd3ce94c1c47aca1e171d3787f136ace8969594611a7d565b90919082549060031b9173ffffffffffffffffffffffffffffffffffffffff809116831b921b1916179055565b855260088652818520558284528381812055610c5c565b6024866011897f4e487b7100000000000000000000000000000000000000000000000000000000835252fd5b60248760118a7f4e487b7100000000000000000000000000000000000000000000000000000000835252fd5b50610bfb610d9333611d3d565b9050610bf2565b5090346103855760a060031936011261038557602490813591604435946064359467ffffffffffffffff8087116103855736602388011215610385578682013596610de488611b84565b90610df187519283611b43565b888252602098868a84019160051b830101913683116109c8578701905b82821061111e575050506084359182116109e057366023830112156109e0578183013591610e3b83611b84565b92610e4888519485611b43565b808452868a85019160051b830101913683116109c857878b9101915b83831061110e575050505073ffffffffffffffffffffffffffffffffffffffff9182610e8e612304565b16331480156110fa575b610ea190611cd8565b8335158015906110f1575b1561109657600197888b149a8b801561108c575b15611031578351835103610fd657899b879c5b610ee1575b8b8b8b51908152f35b84518d1015610fd15785610ef58e87611eb7565b5116885260088c52610f0b8a8920541515611dca565b8015610f9957610f1b8d85611eb7565b51468952600a8d528d87610f328d8c209289611eb7565b51168a528d528a8920555b7fffffffffffffffffffffffffffffffffffffffffffffffffffffffffffffffff8d14610f6e579b8a019b8a610ed3565b88886011897f4e487b7100000000000000000000000000000000000000000000000000000000835252fd5b60028203610f3d57610fab8d85611eb7565b51838952600b8d528d87610fc28d8c209289611eb7565b51168a528d528a892055610f3d565b610ed8565b60648660158a8e8d51937f08c379a00000000000000000000000000000000000000000000000000000000085528401528201527f464d3a20496e76616c6964206c6973742073697a6500000000000000000000006044820152fd5b60648660138a8e8d51937f08c379a00000000000000000000000000000000000000000000000000000000085528401528201527f464d3a20496e76616c69642070617946726f6d000000000000000000000000006044820152fd5b5060028114610ec0565b6064846011888c8b51937f08c379a00000000000000000000000000000000000000000000000000000000085528401528201527f464d3a20436861696e494420656d7074790000000000000000000000000000006044820152fd5b50871515610eac565b50610ea161110733611d3d565b9050610e98565b82358152918101918b9101610e64565b813573ffffffffffffffffffffffffffffffffffffffff8116810361114a578152908a01908a01610e0e565b8780fd5b509190346104475760206003193601126104475761116a611a5a565b9073ffffffffffffffffffffffffffffffffffffffff80611189612304565b1633148015611264575b61119c90611cd8565b600754926801000000000000000084101561123857600184018094816007556111c883610cea83611a7d565b1161120c5760209550907f1394cfab38f3fc78ed77ea6f9318782a446d96e7dc8e9a6b0149f6be25c08bcf929116928385526008865281852055519280a260018152f35b6024856011887f4e487b7100000000000000000000000000000000000000000000000000000000835252fd5b6024856041887f4e487b7100000000000000000000000000000000000000000000000000000000835252fd5b5061119c61127133611d3d565b9050611193565b50903461038557602060031936011261038557611293611a5a565b9073ffffffffffffffffffffffffffffffffffffffff8092816112b4612304565b16331480156113d2575b6112c790611cd8565b16918215611375576112d7612304565b1690827fffffffffffffffffffffffff000000000000000000000000000000000000000083816003541617600355855416178455600254420193844211611349575060207f4552e521eca39a029d33503b3e2003db87de01f8396f9e3fdd9dddddb9b838b4918560055551468152a480f35b8560116024927f4e487b7100000000000000000000000000000000000000000000000000000000835252fd5b60648460208451917f08c379a0000000000000000000000000000000000000000000000000000000008352820152600f60248201527f6e6577476f7620697320656d70747900000000000000000000000000000000006044820152fd5b506112c76113df33611d3d565b90506112be565b9050346109e0576101406003193601126109e057611402611a5a565b906101207fffffffffffffffffffffffffffffffffffffffffffffffffffffffffffffffdc36011261035c579060209460089285519461144186611ae3565b60243586528786019060443582528787016064358152606088016084358152608089019160a435835260a08a019460c43586528b60c08c019760e43589528c0198610104358a526101008d019a610124358c5273ffffffffffffffffffffffffffffffffffffffff90816114b3612304565b1633148015611506575b6114c690611cd8565b16815260098f52209a518b555160018b01555160028a01555160038901555190870155516005860155516006850155516007840155519101555160018152f35b506114c661151333611d3d565b90506114bd565b50505034610447576020600319360112610447578060209273ffffffffffffffffffffffffffffffffffffffff61154f611a5a565b1681526008845220549051908152f35b5050913461068e578160031936011261068e57506104816020926024359035612017565b505050346104475781600319360112610447576020906002549051908152f35b505034610385576060600319360112610385576044359273ffffffffffffffffffffffffffffffffffffffff8416840361068e5750602092610481916024359035611ecb565b5050346103855781600319360112610385576020928291611608611a32565b90358252600b855273ffffffffffffffffffffffffffffffffffffffff83832091168252845220549051908152f35b5050503461044757816003193601126104475773ffffffffffffffffffffffffffffffffffffffff60209254169051908152f35b5050913461068e578160031936011261068e575061048160209261168d611a32565b9035612239565b505050346104475781600319360112610447576020905160018152f35b50505034610447576020600319360112610447578060209273ffffffffffffffffffffffffffffffffffffffff6116e6611a5a565b168152600c845220549051908152f35b82858534610447576020600319360112610447576101209381611717611a5a565b9373ffffffffffffffffffffffffffffffffffffffff82519561173987611ae3565b82875282602088015282848801528260608801528260808801528260a08801528260c08801528285880152826101008098015216815260096020522082519261178184611ae3565b8154958685526001830154916020860192835260028401549181870192835260038501549060608801918252850154916080880192835260058601549360a0890194855260068701549560c08a019687528a600860078a0154998b8d019a8b5201549a01998a5282519b8c525160208c015251908a01525160608901525160808801525160a08701525160c086015251908401525190820152f35b505050346104475780600319360112610447576020917fd640783e4a868b881e1c32d48b8037cc33f11c91feb83b38c99772302e28c3c1838361185d611a5a565b60243591829173ffffffffffffffffffffffffffffffffffffffff9081611882612304565b16331480156118ad575b61189590611cd8565b1695868152600c855220558451908152a25160018152f35b506118956118ba33611d3d565b905061188c565b9050346109e05760206003193601126109e057826101209473ffffffffffffffffffffffffffffffffffffffff6118f6611a5a565b1681526009602052209081549360018301549360028401549060038501549085015490600586015492600687015494600860078901549801549881519a8b5260208b01528901526060880152608087015260a086015260c0850152830152610100820152f35b50503461038557602060031936011261038557359160075483101561068e575073ffffffffffffffffffffffffffffffffffffffff61199c602093611a7d565b92905490519260031b1c168152f35b5050503461044757816003193601126104475760209073ffffffffffffffffffffffffffffffffffffffff6119de612304565b915191168152f35b85908585346109e057816003193601126109e05792602093611a06611a32565b90358252600a855273ffffffffffffffffffffffffffffffffffffffff83832091168252845220548152f35b6024359073ffffffffffffffffffffffffffffffffffffffff82168203611a5557565b600080fd5b6004359073ffffffffffffffffffffffffffffffffffffffff82168203611a5557565b600754811015611ab45760076000527fa66cc928b5edb82af9bd49922954155ab7b0942694bea4ce44661d9a8736c6880190600090565b7f4e487b7100000000000000000000000000000000000000000000000000000000600052603260045260246000fd5b610120810190811067ffffffffffffffff821117611b0057604052565b7f4e487b7100000000000000000000000000000000000000000000000000000000600052604160045260246000fd5b67ffffffffffffffff8111611b0057604052565b90601f7fffffffffffffffffffffffffffffffffffffffffffffffffffffffffffffffe0910116810190811067ffffffffffffffff821117611b0057604052565b67ffffffffffffffff8111611b005760051b60200190565b9181601f84011215611a555782359167ffffffffffffffff8311611a555760208381860195010111611a5557565b81601f82011215611a555780359067ffffffffffffffff8211611b005760405192611c1d60207fffffffffffffffffffffffffffffffffffffffffffffffffffffffffffffffe0601f8601160185611b43565b82845260208383010111611a5557816000926020809301838601378301015290565b9080601f83011215611a5557813590611c5782611b84565b92611c656040519485611b43565b828452602092838086019160051b83010192808411611a5557848301915b848310611c935750505050505090565b823567ffffffffffffffff8111611a55578691611cb584848094890101611bca565b815201920191611c83565b90816020910312611a5557518015158103611a555790565b15611cdf57565b60646040517f08c379a000000000000000000000000000000000000000000000000000000000815260206004820152600d60248201527f476f7620464f5242494444454e000000000000000000000000000000000000006044820152fd5b602073ffffffffffffffffffffffffffffffffffffffff6024816000541693600060405195869485937f7ac07dcc0000000000000000000000000000000000000000000000000000000085521660048401525af1908115611dbe57600091611da3575090565b611dbb915060203d811161030e576103008183611b43565b90565b6040513d6000823e3d90fd5b15611dd157565b60646040517f08c379a000000000000000000000000000000000000000000000000000000000815260206004820152601360248201527f464d3a20746f6b656e206e6f74206578697374000000000000000000000000006044820152fd5b6007548015611e88577fffffffffffffffffffffffffffffffffffffffffffffffffffffffffffffffff01611e6381611a7d565b73ffffffffffffffffffffffffffffffffffffffff82549160031b1b19169055600755565b7f4e487b7100000000000000000000000000000000000000000000000000000000600052603160045260246000fd5b8051821015611ab45760209160051b010190565b90918115801590611f97575b15611f39576000918252600a60205273ffffffffffffffffffffffffffffffffffffffff604083209116908183526020526040822054928315611f1b575b50505090565b604093508252600b6020528282209082526020522054388080611f15565b60646040517f08c379a000000000000000000000000000000000000000000000000000000000815260206004820152601360248201527f464d3a20496e76616c696420636861696e4944000000000000000000000000006044820152fd5b50821515611ed7565b81810292918115918404141715611fb357565b7f4e487b7100000000000000000000000000000000000000000000000000000000600052601160045260246000fd5b9091611ff092949394611ecb565b80611ffd57505050600090565b61200d612013926103e894612017565b90611fa0565b0490565b80156121db5780821161215757604051906102a0820182811067ffffffffffffffff821117611b00576040526103e89283835261041860208401526104a6604084015261059460608401526106e0608084015261088c60a0840152610a9660c0840152610d0060e0840152610fc86101008401526112f0610120840152611676610140840152611a5c610160840152611ea06101808401526123446101a08401526128466101c0840152612da86101e08401526133686102008401526139886102208401526140066102408401526146e4610260840152614e2061028084015280606402906064820403611fb3570491605083111561215157507fffffffffffffffffffffffffffffffffffffffffffffffffffffffffffffffb08201918211611fb3576015821015611ab45761ffff9160051b01511690565b91505090565b60846040517f08c379a000000000000000000000000000000000000000000000000000000000815260206004820152602e60248201527f416d6f756e74206d757374206265206c657373207468616e2064657374696e6160448201527f74696f6e206c69717569646974790000000000000000000000000000000000006064820152fd5b60646040517f08c379a000000000000000000000000000000000000000000000000000000000815260206004820152601860248201527f4e6f2064657374696e6174696f6e206c697175696469747900000000000000006044820152fd5b9073ffffffffffffffffffffffffffffffffffffffff1660009181835260096020526040832080549182156122fd57600103611f155760018101543a101561229957505081604091611dbb93526009602052206005815491015490611fa0565b60028101543a10156122c357505081604091611dbb93526009602052206006815491015490611fa0565b60038101543a10156122ed57505081604091611dbb93526009602052206007815491015490611fa0565b60080154611dbb93509150611fa0565b5050505090565b60055442101561232a5773ffffffffffffffffffffffffffffffffffffffff6003541690565b73ffffffffffffffffffffffffffffffffffffffff6004541690565b919082519283825260005b8481106123905750507fffffffffffffffffffffffffffffffffffffffffffffffffffffffffffffffe0601f8460006020809697860101520116010190565b602081830181015184830182015201612351565b90815180825260208092019182818360051b85019501936000915b8483106123cf5750505050505090565b90919293949584806123e983856001950387528a51612346565b98019301930191949392906123bf56fea2646970667358221220033b86c9f0ce9a1b5d4c1d2544983239661f6f7580dfb3733739a01f1ae79c1064736f6c63430008140033","linkReferences":{}},"methodIdentifiers":{"FROM_CHAIN_PAY()":"3bdde5f4","TO_CHAIN_PAY()":"eb77f2ad","addFeeToken(address)":"aa2eded2","addTxSender(address)":"eebd14af","c3CallerProxy()":"58f2c057","c3Fallback(uint256,bytes,bytes)":"b121f51d","changeGov(address)":"a962ef1e","dappID()":"c516ad11","delFeeToken(address)":"ab81334d","delay()":"6a42b8f8","disableTxSender(address)":"f9e4cbaf","doGov(string,string,bytes)":"d60ad41b","doGovBroadcast(string[],string[],bytes)":"dd64b3e6","feeParams(address)":"1f300b8f","feeTokenIndexMap(address)":"53ecc8b5","feeTokenList(uint256)":"1587c1e8","getBaseLiquidityFee(address)":"3582029b","getFee(uint256,uint256,address)":"60251ec7","getFeeTokenIndexMap(address)":"a36d4505","getFeeTokenList()":"e28ab277","getFeeTokenParams(address)":"3558879e","getFromChainFee(uint256,address)":"093787b5","getGasFee(uint256,address)":"3f57d851","getLiquidityFee(address,uint256,uint256,uint256,uint256)":"f05527a4","getLiquidityFeeFactor(uint256,uint256)":"924bbade","getToChainFee(uint256,address)":"5ab8f829","gov()":"12d43a51","isValidSender(address)":"f01f2b8b","setDelay(uint256)":"e177246e","setFeeConfig(uint256,uint256,uint256,address[],uint256[])":"aac13655","setFeeTokenParams(address,(uint256,uint256,uint256,uint256,uint256,uint256,uint256,uint256,uint256))":"a6e30bb3","setLiqBaseFee(address,uint256)":"2a42a48a","withdrawFee(address,uint256)":"fd9be522"},"id":7}