{"abi":[{"type":"constructor","inputs":[{"name":"_txSender","type":"address","internalType":"address"},{"name":"_c3callerProxy","type":"address","internalType":"address"},{"name":"_dappID","type":"uint256","internalType":"uint256"},{"name":"_gov","type":"address","internalType":"address"},{"name":"_feeManager","type":"address","internalType":"address"},{"name":"_wNATIVE","type":"address","internalType":"address"},{"name":"_ve","type":"address","internalType":"address"}],"stateMutability":"nonpayable"},{"type":"function","name":"FuncLiquidityToStaging","inputs":[],"outputs":[{"name":"","type":"bytes4","internalType":"bytes4"}],"stateMutability":"view"},{"type":"function","name":"FuncStagingToLiquidity","inputs":[],"outputs":[{"name":"","type":"bytes4","internalType":"bytes4"}],"stateMutability":"view"},{"type":"function","name":"addRewardToken","inputs":[{"name":"tokenSymbol","type":"string","internalType":"string"},{"name":"tokenStr","type":"string","internalType":"string"},{"name":"standardRewardRate","type":"uint256","internalType":"uint256"},{"name":"toChainIdStr","type":"string","internalType":"string"},{"name":"rateFactor","type":"uint256","internalType":"uint256"},{"name":"targetStr","type":"string","internalType":"string"}],"outputs":[],"stateMutability":"nonpayable"},{"type":"function","name":"addTxSender","inputs":[{"name":"txSender","type":"address","internalType":"address"}],"outputs":[],"stateMutability":"nonpayable"},{"type":"function","name":"attachLiquidity","inputs":[{"name":"tokenId","type":"uint256","internalType":"uint256"},{"name":"targetStr","type":"string","internalType":"string"},{"name":"tokenSymbol","type":"string","internalType":"string"},{"name":"toChainIdStr","type":"string","internalType":"string"},{"name":"amount","type":"uint256","internalType":"uint256"},{"name":"feeTokenStr","type":"string","internalType":"string"},{"name":"swapFee","type":"uint256","internalType":"uint256"}],"outputs":[{"name":"","type":"uint256","internalType":"uint256"}],"stateMutability":"nonpayable"},{"type":"function","name":"c3CallerProxy","inputs":[],"outputs":[{"name":"","type":"address","internalType":"address"}],"stateMutability":"view"},{"type":"function","name":"c3Fallback","inputs":[{"name":"_dappID","type":"uint256","internalType":"uint256"},{"name":"_data","type":"bytes","internalType":"bytes"},{"name":"_reason","type":"bytes","internalType":"bytes"}],"outputs":[{"name":"","type":"bool","internalType":"bool"}],"stateMutability":"nonpayable"},{"type":"function","name":"cID","inputs":[],"outputs":[{"name":"","type":"uint256","internalType":"uint256"}],"stateMutability":"view"},{"type":"function","name":"changeGov","inputs":[{"name":"newGov","type":"address","internalType":"address"}],"outputs":[],"stateMutability":"nonpayable"},{"type":"function","name":"changeTheiaRewards","inputs":[{"name":"_theiaRewards","type":"address","internalType":"address"}],"outputs":[{"name":"","type":"bool","internalType":"bool"}],"stateMutability":"nonpayable"},{"type":"function","name":"changeVotingEscrow","inputs":[{"name":"_votingEscrow","type":"address","internalType":"address"}],"outputs":[{"name":"","type":"bool","internalType":"bool"}],"stateMutability":"nonpayable"},{"type":"function","name":"completed","inputs":[{"name":"","type":"uint256","internalType":"uint256"}],"outputs":[{"name":"","type":"bool","internalType":"bool"}],"stateMutability":"view"},{"type":"function","name":"dappID","inputs":[],"outputs":[{"name":"","type":"uint256","internalType":"uint256"}],"stateMutability":"view"},{"type":"function","name":"delay","inputs":[],"outputs":[{"name":"","type":"uint256","internalType":"uint256"}],"stateMutability":"view"},{"type":"function","name":"depositStaging","inputs":[{"name":"tokenStr","type":"string","internalType":"string"},{"name":"amount","type":"uint256","internalType":"uint256"}],"outputs":[{"name":"","type":"uint256","internalType":"uint256"}],"stateMutability":"nonpayable"},{"type":"function","name":"depositStagingNative","inputs":[{"name":"tokenStr","type":"string","internalType":"string"}],"outputs":[{"name":"","type":"uint256","internalType":"uint256"}],"stateMutability":"payable"},{"type":"function","name":"detachLiquidity","inputs":[{"name":"tokenId","type":"uint256","internalType":"uint256"},{"name":"tokenSymbol","type":"string","internalType":"string"},{"name":"targetStr","type":"string","internalType":"string"},{"name":"toChainIdStr","type":"string","internalType":"string"},{"name":"amount","type":"uint256","internalType":"uint256"},{"name":"feeToken","type":"address","internalType":"address"},{"name":"swapFee","type":"uint256","internalType":"uint256"}],"outputs":[{"name":"","type":"uint256","internalType":"uint256"}],"stateMutability":"nonpayable"},{"type":"function","name":"disableTxSender","inputs":[{"name":"txSender","type":"address","internalType":"address"}],"outputs":[],"stateMutability":"nonpayable"},{"type":"function","name":"doGov","inputs":[{"name":"_to","type":"string","internalType":"string"},{"name":"_toChainID","type":"string","internalType":"string"},{"name":"_data","type":"bytes","internalType":"bytes"}],"outputs":[],"stateMutability":"nonpayable"},{"type":"function","name":"doGovBroadcast","inputs":[{"name":"_targets","type":"string[]","internalType":"string[]"},{"name":"_toChainIDs","type":"string[]","internalType":"string[]"},{"name":"_data","type":"bytes","internalType":"bytes"}],"outputs":[],"stateMutability":"nonpayable"},{"type":"function","name":"feeManager","inputs":[],"outputs":[{"name":"","type":"address","internalType":"address"}],"stateMutability":"view"},{"type":"function","name":"getCompletedStatus","inputs":[{"name":"nonce","type":"uint256","internalType":"uint256"}],"outputs":[{"name":"","type":"bool","internalType":"bool"}],"stateMutability":"view"},{"type":"function","name":"getLiquidity","inputs":[{"name":"token","type":"address","internalType":"address"}],"outputs":[{"name":"","type":"uint256","internalType":"uint256"},{"name":"","type":"uint256","internalType":"uint256"}],"stateMutability":"view"},{"type":"function","name":"getLiquidityDelay","inputs":[],"outputs":[{"name":"","type":"uint256","internalType":"uint256"}],"stateMutability":"view"},{"type":"function","name":"getLiquidityOfAt","inputs":[{"name":"_tokenId","type":"uint256","internalType":"uint256"},{"name":"_tokenSymbol","type":"string","internalType":"string"},{"name":"_chainIdStr","type":"string","internalType":"string"},{"name":"_timestamp","type":"uint256","internalType":"uint256"}],"outputs":[{"name":"","type":"uint256","internalType":"uint256"}],"stateMutability":"view"},{"type":"function","name":"getLiquidityRemovalTime","inputs":[{"name":"tokenId","type":"uint256","internalType":"uint256"},{"name":"tokenSymbol","type":"string","internalType":"string"},{"name":"chainIdStr","type":"string","internalType":"string"}],"outputs":[{"name":"","type":"uint256","internalType":"uint256"}],"stateMutability":"view"},{"type":"function","name":"getRewardRate","inputs":[{"name":"tokenSymbol","type":"string","internalType":"string"},{"name":"chainIdStr","type":"string","internalType":"string"},{"name":"_timestamp","type":"uint256","internalType":"uint256"}],"outputs":[{"name":"","type":"uint256","internalType":"uint256"}],"stateMutability":"view"},{"type":"function","name":"getRewardRate","inputs":[{"name":"tokenSymbol","type":"string","internalType":"string"},{"name":"chainIdStr","type":"string","internalType":"string"}],"outputs":[{"name":"","type":"uint256","internalType":"uint256"}],"stateMutability":"view"},{"type":"function","name":"getRewardRateEnd","inputs":[{"name":"tokenSymbol","type":"string","internalType":"string"},{"name":"chainIdStr","type":"string","internalType":"string"}],"outputs":[{"name":"","type":"uint256","internalType":"uint256"}],"stateMutability":"view"},{"type":"function","name":"getRewardRateOfAt","inputs":[{"name":"_tokenSymbol","type":"string","internalType":"string"},{"name":"_chainIdStr","type":"string","internalType":"string"},{"name":"_timestamp","type":"uint256","internalType":"uint256"}],"outputs":[{"name":"","type":"uint256","internalType":"uint256"}],"stateMutability":"view"},{"type":"function","name":"getRewardToken","inputs":[{"name":"tokenSymbol","type":"string","internalType":"string"}],"outputs":[{"name":"","type":"tuple","internalType":"struct StagingVault.RewardedToken","components":[{"name":"symbol","type":"string","internalType":"string"},{"name":"standardRewardRate","type":"uint256","internalType":"uint256"},{"name":"tokensStr","type":"string[]","internalType":"string[]"},{"name":"toChainIdsStr","type":"string[]","internalType":"string[]"},{"name":"rateFactors","type":"uint256[]","internalType":"uint256[]"}]}],"stateMutability":"view"},{"type":"function","name":"getStakedAllChains","inputs":[{"name":"tokenId","type":"uint256","internalType":"uint256"}],"outputs":[{"name":"","type":"string[]","internalType":"string[]"},{"name":"","type":"uint256[]","internalType":"uint256[]"},{"name":"","type":"bool","internalType":"bool"}],"stateMutability":"view"},{"type":"function","name":"getStakedTokenSymbols","inputs":[],"outputs":[{"name":"","type":"string[]","internalType":"string[]"}],"stateMutability":"view"},{"type":"function","name":"getStandardRewardRate","inputs":[{"name":"tokenSymbol","type":"string","internalType":"string"},{"name":"_timestamp","type":"uint256","internalType":"uint256"}],"outputs":[{"name":"","type":"uint256","internalType":"uint256"}],"stateMutability":"view"},{"type":"function","name":"getStandardRewardRate","inputs":[{"name":"tokenSymbol","type":"string","internalType":"string"}],"outputs":[{"name":"","type":"uint256","internalType":"uint256"}],"stateMutability":"view"},{"type":"function","name":"getTheiaRewards","inputs":[],"outputs":[{"name":"","type":"address","internalType":"address"}],"stateMutability":"view"},{"type":"function","name":"getTokenStakedAllChains","inputs":[{"name":"tokenSymbol","type":"string","internalType":"string"}],"outputs":[{"name":"","type":"uint256","internalType":"uint256"}],"stateMutability":"view"},{"type":"function","name":"getTokenStakedByChain","inputs":[{"name":"tokenSymbol","type":"string","internalType":"string"},{"name":"chainIdStr","type":"string","internalType":"string"}],"outputs":[{"name":"","type":"uint256","internalType":"uint256"}],"stateMutability":"view"},{"type":"function","name":"getTokenStakedByTokenId","inputs":[{"name":"tokenId","type":"uint256","internalType":"uint256"},{"name":"tokenSymbol","type":"string","internalType":"string"}],"outputs":[{"name":"","type":"uint256","internalType":"uint256"}],"stateMutability":"view"},{"type":"function","name":"getTokenStakedByTokenIdAndChain","inputs":[{"name":"tokenId","type":"uint256","internalType":"uint256"},{"name":"tokenSymbol","type":"string","internalType":"string"},{"name":"chainIdStr","type":"string","internalType":"string"}],"outputs":[{"name":"","type":"uint256","internalType":"uint256"}],"stateMutability":"view"},{"type":"function","name":"getVotingEscrow","inputs":[],"outputs":[{"name":"","type":"address","internalType":"address"}],"stateMutability":"view"},{"type":"function","name":"gov","inputs":[],"outputs":[{"name":"","type":"address","internalType":"address"}],"stateMutability":"view"},{"type":"function","name":"isOperator","inputs":[{"name":"","type":"address","internalType":"address"}],"outputs":[{"name":"","type":"bool","internalType":"bool"}],"stateMutability":"view"},{"type":"function","name":"isRewardedToken","inputs":[{"name":"tokenSymbol","type":"string","internalType":"string"}],"outputs":[{"name":"","type":"bool","internalType":"bool"}],"stateMutability":"view"},{"type":"function","name":"isValidSender","inputs":[{"name":"txSender","type":"address","internalType":"address"}],"outputs":[{"name":"","type":"bool","internalType":"bool"}],"stateMutability":"view"},{"type":"function","name":"liquidityAll","inputs":[{"name":"","type":"uint256","internalType":"uint256"},{"name":"","type":"string","internalType":"string"}],"outputs":[{"name":"","type":"uint256","internalType":"uint256"}],"stateMutability":"view"},{"type":"function","name":"liquidityByChain","inputs":[{"name":"","type":"string","internalType":"string"},{"name":"","type":"string","internalType":"string"}],"outputs":[{"name":"","type":"uint256","internalType":"uint256"}],"stateMutability":"view"},{"type":"function","name":"liquidityDelay","inputs":[],"outputs":[{"name":"","type":"uint256","internalType":"uint256"}],"stateMutability":"view"},{"type":"function","name":"liquidityRemovalTime","inputs":[{"name":"","type":"uint256","internalType":"uint256"},{"name":"","type":"string","internalType":"string"},{"name":"","type":"string","internalType":"string"}],"outputs":[{"name":"","type":"uint256","internalType":"uint256"}],"stateMutability":"view"},{"type":"function","name":"liquidityToStaging","inputs":[{"name":"fromTargetStr","type":"string","internalType":"string"},{"name":"tokenStr","type":"string","internalType":"string"},{"name":"lp","type":"string","internalType":"string"},{"name":"tokenId","type":"uint256","internalType":"uint256"},{"name":"amount","type":"uint256","internalType":"uint256"},{"name":"nonce","type":"uint256","internalType":"uint256"},{"name":"feeTokenStr","type":"string","internalType":"string"},{"name":"feePaid","type":"uint256","internalType":"uint256"}],"outputs":[],"stateMutability":"nonpayable"},{"type":"function","name":"liquidityTotalAll","inputs":[{"name":"","type":"string","internalType":"string"}],"outputs":[{"name":"","type":"uint256","internalType":"uint256"}],"stateMutability":"view"},{"type":"function","name":"operators","inputs":[{"name":"","type":"uint256","internalType":"uint256"}],"outputs":[{"name":"","type":"address","internalType":"address"}],"stateMutability":"view"},{"type":"function","name":"rateFactorEndTime","inputs":[{"name":"","type":"string","internalType":"string"},{"name":"","type":"string","internalType":"string"}],"outputs":[{"name":"","type":"uint256","internalType":"uint256"}],"stateMutability":"view"},{"type":"function","name":"removeRewardToken","inputs":[{"name":"tokenSymbol","type":"string","internalType":"string"},{"name":"toChainIdsStr","type":"string[]","internalType":"string[]"},{"name":"targetsStr","type":"string[]","internalType":"string[]"}],"outputs":[],"stateMutability":"nonpayable"},{"type":"function","name":"reportLiquidityAttachment","inputs":[{"name":"fromChainId","type":"string","internalType":"string"},{"name":"lp","type":"string","internalType":"string"},{"name":"tokenId","type":"uint256","internalType":"uint256"},{"name":"tokenStr","type":"string","internalType":"string"},{"name":"amount","type":"uint256","internalType":"uint256"},{"name":"nonce","type":"uint256","internalType":"uint256"}],"outputs":[],"stateMutability":"nonpayable"},{"type":"function","name":"reportLiquidityDetachment","inputs":[{"name":"fromChainId","type":"string","internalType":"string"},{"name":"lp","type":"string","internalType":"string"},{"name":"tokenId","type":"uint256","internalType":"uint256"},{"name":"tokenStr","type":"string","internalType":"string"},{"name":"amount","type":"uint256","internalType":"uint256"},{"name":"nonce","type":"uint256","internalType":"uint256"}],"outputs":[],"stateMutability":"nonpayable"},{"type":"function","name":"rewarded","inputs":[{"name":"","type":"string","internalType":"string"}],"outputs":[{"name":"","type":"bool","internalType":"bool"}],"stateMutability":"view"},{"type":"function","name":"rewardedEVM","inputs":[{"name":"","type":"string","internalType":"string"}],"outputs":[{"name":"","type":"bool","internalType":"bool"}],"stateMutability":"view"},{"type":"function","name":"rewardedTokens","inputs":[{"name":"","type":"string","internalType":"string"}],"outputs":[{"name":"symbol","type":"string","internalType":"string"},{"name":"standardRewardRate","type":"uint256","internalType":"uint256"}],"stateMutability":"view"},{"type":"function","name":"setDelay","inputs":[{"name":"_delay","type":"uint256","internalType":"uint256"}],"outputs":[],"stateMutability":"nonpayable"},{"type":"function","name":"setLiquidityDelay","inputs":[{"name":"_delay","type":"uint256","internalType":"uint256"}],"outputs":[{"name":"","type":"bool","internalType":"bool"}],"stateMutability":"nonpayable"},{"type":"function","name":"setRateTimeToken","inputs":[{"name":"tokenSymbol","type":"string","internalType":"string"},{"name":"chainIdStr","type":"string","internalType":"string"},{"name":"validDuration","type":"uint256","internalType":"uint256"}],"outputs":[],"stateMutability":"nonpayable"},{"type":"function","name":"setRewardFactor","inputs":[{"name":"tokenSymbol","type":"string","internalType":"string"},{"name":"chainIdStr","type":"string","internalType":"string"},{"name":"_rateFactor","type":"uint256","internalType":"uint256"}],"outputs":[],"stateMutability":"nonpayable"},{"type":"function","name":"setRewardFlag","inputs":[{"name":"tokenSymbol","type":"string","internalType":"string"},{"name":"tokenStr","type":"string","internalType":"string"},{"name":"rewardFlag","type":"bool","internalType":"bool"}],"outputs":[],"stateMutability":"nonpayable"},{"type":"function","name":"setStandardRewardRate","inputs":[{"name":"tokenSymbol","type":"string","internalType":"string"},{"name":"_standardRewardRate","type":"uint256","internalType":"uint256"}],"outputs":[],"stateMutability":"nonpayable"},{"type":"function","name":"setUp","inputs":[{"name":"_ve","type":"address","internalType":"address"},{"name":"_theiaRewards","type":"address","internalType":"address"}],"outputs":[{"name":"","type":"bool","internalType":"bool"}],"stateMutability":"nonpayable"},{"type":"function","name":"stagingToLiquidity","inputs":[{"name":"fromTargetStr","type":"string","internalType":"string"},{"name":"tokenStr","type":"string","internalType":"string"},{"name":"lp","type":"string","internalType":"string"},{"name":"tokenId","type":"uint256","internalType":"uint256"},{"name":"amount","type":"uint256","internalType":"uint256"},{"name":"nonce","type":"uint256","internalType":"uint256"},{"name":"feeTokenStr","type":"string","internalType":"string"},{"name":"feePaid","type":"uint256","internalType":"uint256"}],"outputs":[],"stateMutability":"nonpayable"},{"type":"function","name":"stagingTokens","inputs":[{"name":"","type":"string","internalType":"string"},{"name":"","type":"address","internalType":"address"}],"outputs":[{"name":"","type":"uint256","internalType":"uint256"}],"stateMutability":"view"},{"type":"function","name":"strToUint","inputs":[{"name":"_str","type":"string","internalType":"string"}],"outputs":[{"name":"res","type":"uint256","internalType":"uint256"},{"name":"err","type":"bool","internalType":"bool"}],"stateMutability":"pure"},{"type":"function","name":"stringToAddress","inputs":[{"name":"str","type":"string","internalType":"string"}],"outputs":[{"name":"","type":"address","internalType":"address"}],"stateMutability":"pure"},{"type":"function","name":"stringsEqual","inputs":[{"name":"a","type":"string","internalType":"string"},{"name":"b","type":"string","internalType":"string"}],"outputs":[{"name":"","type":"bool","internalType":"bool"}],"stateMutability":"pure"},{"type":"function","name":"symbolToToken","inputs":[{"name":"","type":"string","internalType":"string"},{"name":"","type":"string","internalType":"string"}],"outputs":[{"name":"","type":"string","internalType":"string"}],"stateMutability":"view"},{"type":"function","name":"theiaRewards","inputs":[],"outputs":[{"name":"","type":"address","internalType":"address"}],"stateMutability":"view"},{"type":"function","name":"tokenRewardRate","inputs":[{"name":"tokenSymbol","type":"string","internalType":"string"},{"name":"chainIdStr","type":"string","internalType":"string"}],"outputs":[{"name":"","type":"uint256","internalType":"uint256"}],"stateMutability":"view"},{"type":"function","name":"tokenSymbolExists","inputs":[{"name":"tokenSymbol","type":"string","internalType":"string"}],"outputs":[{"name":"","type":"bool","internalType":"bool"},{"name":"","type":"bool","internalType":"bool"}],"stateMutability":"view"},{"type":"function","name":"tokenToSymbol","inputs":[{"name":"","type":"string","internalType":"string"},{"name":"","type":"string","internalType":"string"}],"outputs":[{"name":"","type":"string","internalType":"string"}],"stateMutability":"view"},{"type":"function","name":"updateChainRewardedToken","inputs":[{"name":"tokenSymbol","type":"string","internalType":"string"},{"name":"standardRewardRate","type":"uint256","internalType":"uint256"},{"name":"tokenStr","type":"string","internalType":"string"},{"name":"chainIdStr","type":"string","internalType":"string"},{"name":"rateFactor","type":"uint256","internalType":"uint256"}],"outputs":[],"stateMutability":"nonpayable"},{"type":"function","name":"ve","inputs":[],"outputs":[{"name":"","type":"address","internalType":"address"}],"stateMutability":"view"},{"type":"function","name":"version","inputs":[],"outputs":[{"name":"","type":"uint256","internalType":"uint256"}],"stateMutability":"pure"},{"type":"function","name":"wNATIVE","inputs":[],"outputs":[{"name":"","type":"address","internalType":"address"}],"stateMutability":"view"},{"type":"function","name":"withdrawStaging","inputs":[{"name":"tokenStr","type":"string","internalType":"string"},{"name":"amount","type":"uint256","internalType":"uint256"},{"name":"to","type":"address","internalType":"address"}],"outputs":[{"name":"","type":"uint256","internalType":"uint256"}],"stateMutability":"nonpayable"},{"type":"function","name":"withdrawStagingNative","inputs":[{"name":"tokenStr","type":"string","internalType":"string"},{"name":"amount","type":"uint256","internalType":"uint256"},{"name":"to","type":"address","internalType":"address"}],"outputs":[{"name":"","type":"uint256","internalType":"uint256"}],"stateMutability":"nonpayable"},{"type":"event","name":"AddLiquidity","inputs":[{"name":"tokenStr","type":"string","indexed":false,"internalType":"string"},{"name":"lp","type":"string","indexed":false,"internalType":"string"},{"name":"tokenId","type":"uint256","indexed":false,"internalType":"uint256"},{"name":"amount","type":"uint256","indexed":false,"internalType":"uint256"},{"name":"nonce","type":"uint256","indexed":false,"internalType":"uint256"},{"name":"sourceTx","type":"string","indexed":false,"internalType":"string"}],"anonymous":false},{"type":"event","name":"LiquidityToStagingFail","inputs":[{"name":"token","type":"address","indexed":false,"internalType":"address"},{"name":"tokenId","type":"uint256","indexed":true,"internalType":"uint256"},{"name":"amount","type":"uint256","indexed":false,"internalType":"uint256"},{"name":"nonce","type":"uint256","indexed":false,"internalType":"uint256"},{"name":"feePaid","type":"uint256","indexed":false,"internalType":"uint256"},{"name":"reason","type":"bytes","indexed":false,"internalType":"bytes"}],"anonymous":false},{"type":"event","name":"LogChangeGov","inputs":[{"name":"oldGov","type":"address","indexed":true,"internalType":"address"},{"name":"newGov","type":"address","indexed":true,"internalType":"address"},{"name":"effectiveTime","type":"uint256","indexed":true,"internalType":"uint256"},{"name":"chainID","type":"uint256","indexed":false,"internalType":"uint256"}],"anonymous":false},{"type":"event","name":"LogFallback","inputs":[{"name":"selector","type":"bytes4","indexed":false,"internalType":"bytes4"},{"name":"data","type":"bytes","indexed":false,"internalType":"bytes"},{"name":"reason","type":"bytes","indexed":false,"internalType":"bytes"}],"anonymous":false},{"type":"event","name":"LogTxSender","inputs":[{"name":"txSender","type":"address","indexed":true,"internalType":"address"},{"name":"vaild","type":"bool","indexed":false,"internalType":"bool"}],"anonymous":false},{"type":"event","name":"RemoveLiquidity","inputs":[{"name":"token","type":"address","indexed":false,"internalType":"address"},{"name":"liquidityProvider","type":"address","indexed":false,"internalType":"address"},{"name":"tokenId","type":"uint256","indexed":false,"internalType":"uint256"},{"name":"amount","type":"uint256","indexed":false,"internalType":"uint256"},{"name":"nonce","type":"uint256","indexed":false,"internalType":"uint256"},{"name":"sourceTx","type":"string","indexed":false,"internalType":"string"}],"anonymous":false},{"type":"event","name":"ReportLiquidityAttachment","inputs":[{"name":"tokenId","type":"uint256","indexed":false,"internalType":"uint256"},{"name":"lp","type":"string","indexed":false,"internalType":"string"},{"name":"fromChainId","type":"string","indexed":false,"internalType":"string"},{"name":"tokenStr","type":"string","indexed":false,"internalType":"string"},{"name":"amount","type":"uint256","indexed":false,"internalType":"uint256"},{"name":"nonce","type":"uint256","indexed":false,"internalType":"uint256"}],"anonymous":false},{"type":"event","name":"ReportLiquidityDetachment","inputs":[{"name":"tokenId","type":"uint256","indexed":false,"internalType":"uint256"},{"name":"lp","type":"string","indexed":false,"internalType":"string"},{"name":"fromChainId","type":"string","indexed":false,"internalType":"string"},{"name":"tokenStr","type":"string","indexed":false,"internalType":"string"},{"name":"amount","type":"uint256","indexed":false,"internalType":"uint256"},{"name":"nonce","type":"uint256","indexed":false,"internalType":"uint256"}],"anonymous":false},{"type":"event","name":"SetRewardFlag","inputs":[{"name":"tokenSymbol","type":"string","indexed":false,"internalType":"string"},{"name":"tokenStr","type":"string","indexed":false,"internalType":"string"},{"name":"flag","type":"bool","indexed":false,"internalType":"bool"}],"anonymous":false},{"type":"event","name":"StagingToLiquidityFail","inputs":[{"name":"liquidityProvider","type":"address","indexed":true,"internalType":"address"},{"name":"token","type":"address","indexed":false,"internalType":"address"},{"name":"tokenId","type":"uint256","indexed":true,"internalType":"uint256"},{"name":"amount","type":"uint256","indexed":false,"internalType":"uint256"},{"name":"nonce","type":"uint256","indexed":false,"internalType":"uint256"},{"name":"feePaid","type":"uint256","indexed":false,"internalType":"uint256"},{"name":"reason","type":"bytes","indexed":false,"internalType":"bytes"}],"anonymous":false},{"type":"error","name":"AddressEmptyCode","inputs":[{"name":"target","type":"address","internalType":"address"}]},{"type":"error","name":"AddressInsufficientBalance","inputs":[{"name":"account","type":"address","internalType":"address"}]},{"type":"error","name":"CheckpointUnorderedInsertion","inputs":[]},{"type":"error","name":"FailedInnerCall","inputs":[]},{"type":"error","name":"SafeCastOverflowedUintDowncast","inputs":[{"name":"bits","type":"uint8","internalType":"uint8"},{"name":"value","type":"uint256","internalType":"uint256"}]},{"type":"error","name":"SafeERC20FailedOperation","inputs":[{"name":"token","type":"address","internalType":"address"}]},{"type":"error","name":"StringsInsufficientHexLength","inputs":[{"name":"value","type":"uint256","internalType":"uint256"},{"name":"length","type":"uint256","internalType":"uint256"}]}],"bytecode":{"object":"0x60a0346200015757601f6200854b38819003918201601f19168301916001600160401b038311848410176200015c5780849260e09460405283398101031262000157576200004d8162000172565b6200005b6020830162000172565b91604081015190620000706060820162000172565b906200007f6080820162000172565b906200009c60c06200009460a0840162000172565b920162000172565b9360018060a01b039586809581938260018060a01b03199b168b60005416176000556001556202a3006002551680896003541617600355886004541617600455426005551660005260066020526040600020600160ff1982541617905562093a80600b5567c4efc55d789ef6ff60018060401b0319600f541617600f5560805216836009541617600955169060075416176007556040516183c39081620001888239608051818181610b6801528181611b1901526120890152f35b600080fd5b634e487b7160e01b600052604160045260246000fd5b51906001600160a01b0382168203620001575756fe6080604052600436101561001257600080fd5b60003560e01c80621af83814610503578062d0f151146104fe57806308b0308a146104d65780630bb3b2391461044a5780630bd47a78146104f95780631075507f1461047257806312d43a51146104f457806313d19950146104ef57806315706fdf146104ea578063169ea7d7146104e55780631713b4ab146104e0578063194e5aae146103af5780631d9b0565146104db5780631f850716146104d65780632238a8a4146104d15780632abfd529146104b35780632b78a828146104cc5780632b90a9ae146104c75780632eb32c55146104c25780633695f24c146104bd578063384217b2146104b85780633915606f146104b35780633f8c9567146103fa5780634cf46cb4146104225780634e517fbf146104ae57806350fff1c6146104a957806354fd4d50146104a457806358f2c0571461049f5780635a02a06f1461049a5780635f2af05414610495578063652fffb5146104905780636a42b8f81461048b5780636a7df320146104865780636b564f0d146104815780636bf363221461047c5780636d70f7ae146104775780636e2f9e4314610472578063728d79891461046d5780638227562814610468578063842386b21461046357806384d3127d1461045e57806385199459146104595780638fd903f5146104545780639091dfc21461044f57806390c917741461044a578063925a8d4114610445578063973eae8414610440578063983ae3121461040457806399a2f2d71461043b5780639b354828146104365780639b3aaa20146103ff5780639f0c518a14610431578063a5753cce14610427578063a747b93b1461042c578063a8b0a1a714610427578063a92d594114610422578063a962ef1e1461041d578063ac9d2eeb14610418578063b121f51d14610413578063b8dd16211461040e578063b8e9bbe814610409578063c0cca5ef14610404578063c1dfdac7146103ff578063c29c58f6146103fa578063c516ad11146103f5578063c5549545146103f0578063c5ef3ec5146103eb578063c7a8728f146103e6578063c8cc96ed146103e1578063d0fb0203146103dc578063d4147cf9146103d7578063d5f557cb146103d2578063d60ad41b146103cd578063d7fe204e146103c8578063dd64b3e6146103c3578063e0b08179146103be578063e177246e146103b9578063e28d4906146103b4578063e6adfff9146103af578063eebd14af146103aa578063f01f2b8b146103a55763f9e4cbaf146103a057600080fd5b613dc7565b613d77565b613caf565b610dce565b613c48565b613ba4565b613b70565b6139dc565b613838565b613784565b61335f565b61324f565b61321b565b6131b5565b61305f565b613039565b612fe6565b612fc8565b611726565b6123b8565b612240565b612ee8565b6129c8565b61284d565b6127fe565b612635565b611744565b612468565b612482565b6123d5565b61228c565b612271565b612216565b612164565b6109ff565b6120ad565b61205c565b612001565b611f50565b611e84565b611d85565b611d05565b610a57565b611cb5565b611c1d565b611ae5565b611a03565b6119e5565b61195a565b6118c2565b6118a5565b611871565b611855565b6117f9565b61175c565b6110cb565b61168e565b6112f3565b6111c3565b61114d565b61110a565b611046565b610984565b610e19565b610d7e565b610b43565b610b2b565b610b08565b610a8b565b610a2f565b610900565b6108bc565b7f4e487b7100000000000000000000000000000000000000000000000000000000600052604160045260246000fd5b67ffffffffffffffff811161054b57604052565b610508565b60a0810190811067ffffffffffffffff82111761054b57604052565b6040810190811067ffffffffffffffff82111761054b57604052565b6020810190811067ffffffffffffffff82111761054b57604052565b6080810190811067ffffffffffffffff82111761054b57604052565b90601f7fffffffffffffffffffffffffffffffffffffffffffffffffffffffffffffffe0910116810190811067ffffffffffffffff82111761054b57604052565b6040519061060e8261056c565b565b6040519061060e82610588565b67ffffffffffffffff811161054b57601f017fffffffffffffffffffffffffffffffffffffffffffffffffffffffffffffffe01660200190565b81601f8201121561069e5780359061066e8261061d565b9261067c60405194856105c0565b8284526020838301011161069e57816000926020809301838601378301015290565b600080fd5b602060031982011261069e576004359067ffffffffffffffff821161069e576106ce91600401610657565b90565b60005b8381106106e45750506000910152565b81810151838201526020016106d4565b602061070d9181604051938285809451938492016106d1565b8101601381520301902090565b60206107339181604051938285809451938492016106d1565b8101601481520301902090565b60206107599181604051938285809451938492016106d1565b8101601081520301902090565b602061077f9181604051938285809451938492016106d1565b8101601981520301902090565b60206107a59181604051938285809451938492016106d1565b8101601a81520301902090565b60206107cb9181604051938285809451938492016106d1565b8101601581520301902090565b60206107f19181604051938285809451938492016106d1565b8101601881520301902090565b60206108179181604051938285809451938492016106d1565b8101601181520301902090565b602061083d9181604051938285809451938492016106d1565b8101601e81520301902090565b60206108639181604051938285809451938492016106d1565b8101601681520301902090565b60206108899181604051938285809451938492016106d1565b8101601c81520301902090565b6020906108b09282604051948386809551938492016106d1565b82019081520301902090565b3461069e57602060ff6108d66108d1366106a3565b6106f4565b54166040519015158152f35b73ffffffffffffffffffffffffffffffffffffffff81160361069e57565b3461069e57604060031936011261069e5760043567ffffffffffffffff811161069e576109706109366020923690600401610657565b61094b60243591610946836108e2565b61071a565b9073ffffffffffffffffffffffffffffffffffffffff16600052602052604060002090565b54604051908152f35b600091031261069e57565b3461069e57600060031936011261069e57602073ffffffffffffffffffffffffffffffffffffffff60075416604051908152f35b606060031982011261069e576004359167ffffffffffffffff60243581811161069e57836109e891600401610657565b9260443591821161069e576106ce91600401610657565b3461069e576020610970610a29610a15366109b8565b929160005260178552604060002090610896565b90610896565b3461069e576040610a47610a42366106a3565b61773e565b8251911515825215156020820152f35b3461069e57600060031936011261069e57602073ffffffffffffffffffffffffffffffffffffffff60085416604051908152f35b3461069e57600060031936011261069e576020610aa66140b1565b73ffffffffffffffffffffffffffffffffffffffff60405191168152f35b90604060031983011261069e5767ffffffffffffffff60043581811161069e5783610af191600401610657565b9260243591821161069e576106ce91600401610657565b3461069e576020610b21610b1b36610ac4565b90617bfa565b6040519015158152f35b3461069e576020610aa6610b3e366106a3565b617a27565b610b4c366106a3565b73ffffffffffffffffffffffffffffffffffffffff90610baf827f00000000000000000000000000000000000000000000000000000000000000001691610b948315156157c9565b610b3e610baa610ba3836106f4565b5460ff1690565b615652565b90604051927f6f307dc300000000000000000000000000000000000000000000000000000000845260209384816004818588165afa918215610d0157610c01928492600091610d1f575b501614615814565b803b1561069e57604051907fd0e30db000000000000000000000000000000000000000000000000000000000825260008260048134855af1908115610d01576000938593610ca793610d06575b506040517fa9059cbb00000000000000000000000000000000000000000000000000000000815273ffffffffffffffffffffffffffffffffffffffff909116600482015234602482015293849283919082906044820190565b03925af1908115610d0157610cc592600092610cd4575b5050615885565b604051348152602090f35b0390f35b610cf39250803d10610cfa575b610ceb81836105c0565b810190613e8c565b3880610cbe565b503d610ce1565b613ea1565b80610d13610d1992610537565b80610979565b38610c4e565b610d3f9150873d8911610d45575b610d3781836105c0565b810190615734565b38610bf9565b503d610d2d565b604060031982011261069e576004359067ffffffffffffffff821161069e57610d7791600401610657565b9060243590565b3461069e57602079ffffffffffffffffffffffffffffffffffffffffffffffffffff610dc5610db9610dbf610db236610d4c565b9290610740565b91618342565b906170c0565b16604051908152f35b3461069e57604060031936011261069e5760243567ffffffffffffffff811161069e57610970610e046020923690600401610657565b600435600052601b8352604060002090610896565b3461069e57610e616020610e2c366106a3565b604051809381927f1713b4ab000000000000000000000000000000000000000000000000000000008352429060048401613b54565b0381305afa8015610d0157602091600091610e80575b50604051908152f35b610ea09150823d8111610ea6575b610e9881836105c0565b810190615749565b38610e77565b503d610e8e565b7f4e487b7100000000000000000000000000000000000000000000000000000000600052600060045260246000fd5b90600182811c92168015610f25575b6020831014610ef657565b7f4e487b7100000000000000000000000000000000000000000000000000000000600052602260045260246000fd5b91607f1691610eeb565b9060405191826000825492610f4384610edc565b908184526001948581169081600014610fb05750600114610f6d575b505061060e925003836105c0565b9093915060005260209081600020936000915b818310610f9857505061060e93508201013880610f5f565b85548884018501529485019487945091830191610f80565b905061060e9550602093507fffffffffffffffffffffffffffffffffffffffffffffffffffffffffffffff0091501682840152151560051b8201013880610f5f565b907fffffffffffffffffffffffffffffffffffffffffffffffffffffffffffffffe0601f60209361102e815180928187528780880191016106d1565b0116010190565b9060206106ce928181520190610ff2565b3461069e57610cd061106c611067610a2961106036610ac4565b9190610766565b610f2f565b604051918291602083526020830190610ff2565b90606060031983011261069e5767ffffffffffffffff60043581811161069e57836110ad91600401610657565b9260243591821161069e576110c491600401610657565b9060443590565b3461069e57602079ffffffffffffffffffffffffffffffffffffffffffffffffffff610dc5610a29610dbf610db961110236611080565b9490916107fe565b3461069e57600060031936011261069e5760207fffffffff00000000000000000000000000000000000000000000000000000000600f5460c01b16604051908152f35b3461069e57610cd061106c611067610a2961116736610ac4565b919061078c565b90815180825260208092019182818360051b85019501936000915b8483106111995750505050505090565b90919293949584806111b383856001950387528a51610ff2565b9801930193019194939290611189565b3461069e57600060031936011261069e57600e546111e08161125a565b906111ee60405192836105c0565b808252602090818301600e6000527fbb7b4a454dc3493923482f07822329ed19e8244eff582cc204f8554c3620c3fd836000925b84841061123c5760405182815280610cd08185018a61116e565b600191829161124a85610f2f565b8152019201920191908490611222565b67ffffffffffffffff811161054b5760051b60200190565b9080601f8301121561069e5781359061128a8261125a565b9261129860405194856105c0565b828452602092838086019160051b8301019280841161069e57848301915b8483106112c65750505050505090565b823567ffffffffffffffff811161069e5786916112e884848094890101610657565b8152019201916112b6565b3461069e57606060031936011261069e57600467ffffffffffffffff813581811161069e576113259036908401610657565b90602491823582811161069e5761133f9036908601611272565b9160443590811161069e576113579036908601611272565b91600094338652602093600c855260409460ff8689205416801561167a575b61137f90614f91565b61139361138e610ba3876107b2565b615002565b6113c761139f866107b2565b7fffffffffffffffffffffffffffffffffffffffffffffffffffffffffffffff008154169055565b8760016113d3876107d8565b01556113fb6113e0610610565b6113e8614a83565b815260026113f5886107d8565b01615073565b61141b611406610610565b61140e614a83565b815260036113f5886107d8565b611439611426610610565b89815284611433886107d8565b0161514c565b61144285610740565b9460079761148361146a61146a8b5473ffffffffffffffffffffffffffffffffffffffff1690565b73ffffffffffffffffffffffffffffffffffffffff1690565b96885190848288817f91ddadf4000000000000000000000000000000000000000000000000000000009c8d82525afa908115610d01576114ca928d92611662575b50614d27565b50508551976114d7614a96565b968b805b8b81106114e6575080f35b61151b89878f948a8f61154161146a61146a6115266115206115088c8f6151ec565b51986115138a6178a4565b9c909c614b06565b6107fe565b88610896565b9a5473ffffffffffffffffffffffffffffffffffffffff1690565b948a518096819382525afa8015610d015761159a968f9461156793926116335750614d27565b50508961157f6110676115798c610766565b84610896565b9346036115a15750505061139f611595916106f4565b6151ac565b8c906114db565b611623906115f7611595956115e66115e08c51978581519101207fffffffff000000000000000000000000000000000000000000000000000000001690565b96610537565b8a519586938401528c8c8401614bd9565b037fffffffffffffffffffffffffffffffffffffffffffffffffffffffffffffffe081018452836105c0565b61162d848c6151ec565b51614222565b6116549192508d803d1061165b575b61164c81836105c0565b810190614a65565b90386114c4565b503d611642565b611654919250863d881161165b5761164c81836105c0565b5061137f611687336141a4565b9050611376565b3461069e5760e060031936011261069e5767ffffffffffffffff60243581811161069e576116c0903690600401610657565b9060443581811161069e576116d9903690600401610657565b60643591821161069e57610cd0926116f8611716933690600401610657565b9060a43591611706836108e2565b60c4359360843592600435616945565b6040519081529081906020820190565b3461069e57600060031936011261069e576020600b54604051908152f35b3461069e576020610970611757366106a3565b610824565b3461069e576020610970610a2961177236610ac4565b919061178960ff611782836107b2565b5416615200565b61084a565b60c060031982011261069e5767ffffffffffffffff9060043582811161069e57816117bb91600401610657565b9260243583811161069e57826117d391600401610657565b926044359260643591821161069e576117ee91600401610657565b906084359060a43590565b3461069e5761183f61183961180d3661178e565b959094939133600052600c60205260ff604060002054168015611841575b61183490614f91565b617c7d565b9261725e565b005b5061183461184e336141a4565b905061182b565b3461069e57600060031936011261069e57602060405160018152f35b3461069e57600060031936011261069e57602073ffffffffffffffffffffffffffffffffffffffff60005416604051908152f35b3461069e576020610970610a296118bb36610ac4565b919061084a565b3461069e57602060031936011261069e576004356118df816108e2565b73ffffffffffffffffffffffffffffffffffffffff90816118fe6140b1565b1633148015611946575b611911906140f3565b167fffffffffffffffffffffffff00000000000000000000000000000000000000006007541617600755602060405160018152f35b50611911611953336141a4565b9050611908565b3461069e5760c060031936011261069e5767ffffffffffffffff60043581811161069e5761198c903690600401610657565b60243582811161069e576119a4903690600401610657565b60643583811161069e576119bc903690600401610657565b60a43593841161069e576119d761183f943690600401610657565b9260843592604435916142ef565b3461069e57600060031936011261069e576020600254604051908152f35b3461069e57608060031936011261069e5767ffffffffffffffff60243581811161069e57611a35903690600401610657565b9060443590811161069e57611a98611a8d610cd093610a29611a7679ffffffffffffffffffffffffffffffffffffffffffffffffffff953690600401610657565b916004356000526012602052604060002090610896565b610dbf606435618342565b604051911681529081906020820190565b606060031982011261069e576004359067ffffffffffffffff821161069e57611ad491600401610657565b90602435906044356106ce816108e2565b3461069e57611af336611aa9565b9173ffffffffffffffffffffffffffffffffffffffff60046020611b4561146a61146a857f00000000000000000000000000000000000000000000000000000000000000001696610b3e8815156157c9565b604051928380927f6f307dc30000000000000000000000000000000000000000000000000000000082525afa918215610d0157611b8d928492600091611c0557501614615814565b803b1561069e57600060405180927f2e1a7d4d000000000000000000000000000000000000000000000000000000008252818381611bd388600483019190602083019252565b03925af18015610d0157610cd093611716928492611bf2575b50615a89565b80610d13611bff92610537565b38611bec565b610d3f915060203d8111610d4557610d3781836105c0565b3461069e57602060031936011261069e57600435611c3a816108e2565b73ffffffffffffffffffffffffffffffffffffffff9081611c596140b1565b1633148015611ca1575b611c6c906140f3565b167fffffffffffffffffffffffff00000000000000000000000000000000000000006008541617600855602060405160018152f35b50611c6c611cae336141a4565b9050611c63565b3461069e57602060031936011261069e5773ffffffffffffffffffffffffffffffffffffffff600435611ce7816108e2565b16600052600c602052602060ff604060002054166040519015158152f35b3461069e57611d1336611080565b919073ffffffffffffffffffffffffffffffffffffffff611d326140b1565b1633148015611d71575b611d45906140f3565b611d5360ff611782846107b2565b428301809311611d6c57610a29611d699261084a565b55005b61413e565b50611d45611d7e336141a4565b9050611d3c565b3461069e57600060031936011261069e576020600f5460e01b7fffffffff0000000000000000000000000000000000000000000000000000000060405191168152f35b91909160608101606082526060518091526080820160808260051b8401019160809160005b828110611e3c5750505050602090828103828401528160605191828152019060809260005b828110611e285750505060409150931515910152565b845184529381019392810192600101611e12565b90919293611e74817fffffffffffffffffffffffffffffffffffffffffffffffffffffffffffffff8088600194030185528651610ff2565b9460209081019493019101611ded565b3461069e57602060031936011261069e57600435600e805460009182805b838110611eb75760405180610cd08782611dc8565b828252611ee5817fbb7b4a454dc3493923482f07822329ed19e8244eff582cc204f8554c3620c3fd01610f2f565b606051821015611f4b5780611f1a9160808460051b0152611f05836151d9565b50610a2988600052601b602052604060002090565b54611f24826151d9565b52611f2e816151d9565b51611f42575b611f3d906151ac565b611ea2565b60019450611f34565b613c01565b3461069e57604060031936011261069e57600435611f6d816108e2565b602435611f79816108e2565b73ffffffffffffffffffffffffffffffffffffffff9081611f986140b1565b1633148015611fed575b611fab906140f3565b817fffffffffffffffffffffffff0000000000000000000000000000000000000000931683600754161760075516906008541617600855602060405160018152f35b50611fab611ffa336141a4565b9050611fa2565b3461069e5761183f61201236611080565b9173ffffffffffffffffffffffffffffffffffffffff6120306140b1565b1633148015612048575b612043906140f3565b6154d4565b50612043612055336141a4565b905061203a565b3461069e57600060031936011261069e57602060405173ffffffffffffffffffffffffffffffffffffffff7f0000000000000000000000000000000000000000000000000000000000000000168152f35b3461069e5760a060031936011261069e5767ffffffffffffffff60043581811161069e576120df903690600401610657565b60443582811161069e576120f7903690600401610657565b60643592831161069e5761211261183f933690600401610657565b9073ffffffffffffffffffffffffffffffffffffffff6121306140b1565b1633148015612150575b612143906140f3565b6084359260243590615271565b5061214361215d336141a4565b905061213a565b3461069e576121b8602061217736610ac4565b92906121ca60405194859384937f3915606f000000000000000000000000000000000000000000000000000000008552606060048601526064850190610ff2565b90600319848303016024850152610ff2565b4260448301520381305afa8015610d0157610cd0916000916121f8575b506040519081529081906020820190565b612210915060203d8111610ea657610e9881836105c0565b386121e7565b3461069e576020610970610a2961222c366109b8565b9291600052601d8552604060002090610896565b3461069e57602060031936011261069e57600435600052601f602052602060ff604060002054166040519015158152f35b3461069e57600060031936011261069e576020604051468152f35b3461069e5760046122a761229f36611aa9565b929091617c7d565b906122e5816122dd6122b88561071a565b3373ffffffffffffffffffffffffffffffffffffffff16600052602052604060002090565b5410156158bb565b6122f0811515615952565b602061230161146a61146a85617a27565b604051958680927f6f307dc30000000000000000000000000000000000000000000000000000000082525afa938415610d0157816123899473ffffffffffffffffffffffffffffffffffffffff610cd0976123659460009161239a575b5016617d1f565b61237d6123753361094b8561071a565b918254614ce5565b905561094b339161071a565b546040519081529081906020820190565b6123b2915060203d8111610d4557610d3781836105c0565b3861235e565b3461069e576020610970610a296123ce36610ac4565b9190610870565b3461069e5760e060031936011261069e5767ffffffffffffffff60243581811161069e57612407903690600401610657565b9060443581811161069e57612420903690600401610657565b60643582811161069e57612438903690600401610657565b60a43592831161069e57610cd093612457611716943690600401610657565b9160c435936084359260043561615f565b3461069e57602060ff6108d661247d366106a3565b6107b2565b3461069e5760208060031936011261069e576004356124a0816108e2565b6040517f6f307dc300000000000000000000000000000000000000000000000000000000815273ffffffffffffffffffffffffffffffffffffffff9083816004818587165afa918215610d0157612558928592600091612618575b5016926125098415156154cd565b6040517f70a0823100000000000000000000000000000000000000000000000000000000815273ffffffffffffffffffffffffffffffffffffffff909116600482015291829081906024820190565b0381855afa908115610d015760049284916000936125f9575b50604051938480927f313ce5670000000000000000000000000000000000000000000000000000000082525afa918215610d015760ff936000936125c4575b505060408051918252929091166020820152f35b610cd092935090816125ea92903d106125f2575b6125e281836105c0565b8101906177bc565b9190386125b0565b503d6125d8565b612611919350823d8411610ea657610e9881836105c0565b9138612571565b61262f9150833d8511610d4557610d3781836105c0565b386124fb565b3461069e57602060031936011261069e57600435612652816108e2565b73ffffffffffffffffffffffffffffffffffffffff90816126716140b1565b16331480156127ea575b612684906140f3565b818116156127a65761271d906126dc61269b6140b1565b73ffffffffffffffffffffffffffffffffffffffff167fffffffffffffffffffffffff00000000000000000000000000000000000000006003541617600355565b73ffffffffffffffffffffffffffffffffffffffff167fffffffffffffffffffffffff00000000000000000000000000000000000000006004541617600455565b61273161272c60025442614197565b600555565b60035473ffffffffffffffffffffffffffffffffffffffff1660045473ffffffffffffffffffffffffffffffffffffffff167f4552e521eca39a029d33503b3e2003db87de01f8396f9e3fdd9dddddb9b838b460055493806040519316931691806127a146829190602083019252565b0390a4005b606460405162461bcd60e51b815260206004820152600f60248201527f6e6577476f7620697320656d70747900000000000000000000000000000000006044820152fd5b506126846127f7336141a4565b905061267b565b3461069e57602061281761281136610ac4565b906175e4565b604051908152f35b9181601f8401121561069e5782359167ffffffffffffffff831161069e576020838186019501011161069e57565b3461069e57606060031936011261069e5767ffffffffffffffff60243581811161069e5761287f90369060040161281f565b60443592831161069e57612899600093369060040161281f565b91602073ffffffffffffffffffffffffffffffffffffffff8654166024604051809881937f7ac07dcc0000000000000000000000000000000000000000000000000000000083523360048401525af1938415610d015761290861291095610cd097600091612922575b50613ead565b600435613ef8565b60405190151581529081906020820190565b61293a915060203d8111610cfa57610ceb81836105c0565b38612902565b61010060031982011261069e5767ffffffffffffffff9060043582811161069e578161296e91600401610657565b9260243583811161069e578261298691600401610657565b9260443581811161069e578361299e91600401610657565b92606435926084359260a4359260c43591821161069e576129c191600401610657565b9060e43590565b3461069e576129d636612940565b9290959333600052602096600c885260409060ff8260002054168015612e1e575b612a0090614f91565b612a0988617a27565b97612a1c612a1689617a27565b98617c7d565b83517fa747b93b00000000000000000000000000000000000000000000000000000000815273ffffffffffffffffffffffffffffffffffffffff8a166004820152979092908489602481305afa988915610d0157612aa099888e612ab293600093612dee575b50612a8f82841015615d54565b612a97615c69565b9e915096617a27565b92612aaa876178a4565b959095614b06565b612ad761146a61146a60095473ffffffffffffffffffffffffffffffffffffffff1690565b8a517ff05527a400000000000000000000000000000000000000000000000000000000815273ffffffffffffffffffffffffffffffffffffffff861660048201526024810196909652466044870152606486019190915260848501929092529092908160a481865afa918215610d01578f9193612bae94600094612dcf575b50895180809681947f3f57d851000000000000000000000000000000000000000000000000000000008352466004840190929173ffffffffffffffffffffffffffffffffffffffff6020916040840195845216910152565b03915afa908115610d0157612bcd928f600093612db0575b5050614197565b11612d465783517ef714ce000000000000000000000000000000000000000000000000000000008152600481018790523060248201529a9b999a98998c8a8c81600073ffffffffffffffffffffffffffffffffffffffff82604481010393165af1998a15610d01577f108476e5e0ceb5495beb4c029fccd1b9fee602cd1607444bddfec31d845b76a29d612ce98a8f612d1a98612d249f8d92612d1597612c7d92612d29575b5061094b8361071a565b612c88838254614197565b90558b612c93615dc5565b998c612cd8612cd2612ca446617f24565b92519d8a81519101207fffffffff000000000000000000000000000000000000000000000000000000001690565b9c610537565b8d519b8c9889015260248801615b9f565b037fffffffffffffffffffffffffffffffffffffffffffffffffffffffffffffffe081018552846105c0565b614222565b5196879687615e4a565b0390a1005b612d3f90883d8a11610ea657610e9881836105c0565b5038612c73565b835162461bcd60e51b815260206004820152602960248201527f54686569612053746167696e675661756c743a20496e73756666696369656e7460448201527f20466565205061696400000000000000000000000000000000000000000000006064820152608490fd5b612dc7929350803d10610ea657610e9881836105c0565b90388f612bc6565b612de7919450833d8511610ea657610e9881836105c0565b9238612b56565b612e0f919350893d8b11612e17575b612e0781836105c0565b810190615d3e565b509138612a82565b503d612dfd565b50612a00612e2b336141a4565b90506129f7565b90602090818352612e4e815160a08486015260c0850190610ff2565b9282820151604082015260a06080612eac612e996040860151977fffffffffffffffffffffffffffffffffffffffffffffffffffffffffffffffe0988987830301606088015261116e565b606086015188868303018487015261116e565b930151948284030191015281808451928381520193019160005b828110612ed4575050505090565b835185529381019392810192600101612ec6565b3461069e57612ef6366106a3565b604090815191612f0583610550565b612f2b6060928385528360806020966000888201528286820152828082015201526107d8565b916004825193612f3a85610550565b612f4381610f2f565b85526001928382015487870152612f5c600283016176e9565b85870152612f6c600383016176e9565b9086015201938251918282875491828152019660005282600020926000905b828210612fb357610cd0888888612fa4818e03826105c0565b60808301525191829182612e32565b84548952978801979383019390830190612f8b565b3461069e57600060031936011261069e576020600154604051908152f35b3461069e5761183f612ff73661178e565b9493909392919233600052600c60205260ff604060002054168015613025575b61302090614f91565b616e65565b50613020613032336141a4565b9050613017565b3461069e57604061305161304c366106a3565b6178a4565b825191825215156020820152f35b3461069e5761307761307036610d4c565b9190617c7d565b613086610baa610ba3836106f4565b6130918215156156c3565b6130a061146a61146a83617a27565b9060405180927f6f307dc300000000000000000000000000000000000000000000000000000000825281600460209586935afa8015610d015773ffffffffffffffffffffffffffffffffffffffff91600091613198575b506040517f70a0823100000000000000000000000000000000000000000000000000000000815233600482015291169390928084602481885afa8015610d0157610cd09561315a848093612389986131639660009261317b575b50501015615758565b30903390617d83565b61237d6131733361094b8561071a565b918254614197565b6131919250803d10610ea657610e9881836105c0565b3880613151565b6131af9150843d8611610d4557610d3781836105c0565b386130f7565b3461069e57602060031936011261069e5773ffffffffffffffffffffffffffffffffffffffff6131e36140b1565b1633148015613207575b6131f6906140f3565b600435600b55602060405160018152f35b506131f6613214336141a4565b90506131ed565b3461069e57600060031936011261069e57602073ffffffffffffffffffffffffffffffffffffffff60095416604051908152f35b3461069e5760046132b96132bf61326536610d4c565b73ffffffffffffffffffffffffffffffffffffffff6132859492946140b1565b163314801561334b575b613298906140f3565b6132a660ff611782866107b2565b8060016132b2866107d8565b01556182e3565b91610740565b60206132e661146a61146a60075473ffffffffffffffffffffffffffffffffffffffff1690565b604051948580927f91ddadf40000000000000000000000000000000000000000000000000000000082525afa908115610d015761183f9360009261332b575b50614e70565b61334491925060203d811161165b5761164c81836105c0565b9038613325565b50613298613358336141a4565b905061328f565b3461069e5761336d36612940565b9290969395949533600052600c60205260ff604060002054168015613770575b61339690614f91565b61339f87617a27565b936133a987617a27565b90604051977f6f307dc300000000000000000000000000000000000000000000000000000000895260208960048173ffffffffffffffffffffffffffffffffffffffff87165afa988915610d015760009961374f575b506020604051809a7f095ea7b300000000000000000000000000000000000000000000000000000000825281600073ffffffffffffffffffffffffffffffffffffffff826134748c8b600484016020909392919373ffffffffffffffffffffffffffffffffffffffff60408201951681520152565b0393165af1988915610d01576134b66134d4986134ad610baa6134a66134be96610ba39f968c97613730575b50617c7d565b9d8e6106f4565b61094b8c61071a565b541015615652565b61355160206134cb615c69565b9991509c617a27565b6134f961146a61146a60095473ffffffffffffffffffffffffffffffffffffffff1690565b60405180809581947f3f57d851000000000000000000000000000000000000000000000000000000008352466004840190929173ffffffffffffffffffffffffffffffffffffffff6020916040840195845216910152565b03915afa908115610d0157600091613711575b50116136a6576040517f6e553f6500000000000000000000000000000000000000000000000000000000815260048101849052306024820152906020908290604490829060009073ffffffffffffffffffffffffffffffffffffffff165af18015610d01577f9c94de4e2a6044294b9be5531323626c90fce701f1b6cb10726e038d105751b999612d249761367b938b93613687575b5061360e613607836178a4565b9050614b06565b612d158a612ce9898961361f615b1a565b938a61362a46617f24565b9961366761366160405198602081519101207fffffffff000000000000000000000000000000000000000000000000000000001690565b97610537565b6040519a8b97602089015260248801615b9f565b60405196879687615bde565b61369f9060203d602011610ea657610e9881836105c0565b50386135fa565b60405162461bcd60e51b815260206004820152602960248201527f54686569612053746167696e675661756c743a20496e73756666696369656e7460448201527f20466565205061696400000000000000000000000000000000000000000000006064820152608490fd5b61372a915060203d602011610ea657610e9881836105c0565b38613564565b6137489060203d602011610cfa57610ceb81836105c0565b50386134a0565b61376991995060203d602011610d4557610d3781836105c0565b97386133ff565b5061339661377d336141a4565b905061338d565b3461069e57606060031936011261069e5767ffffffffffffffff60043581811161069e576137b6903690600401610657565b60243582811161069e576137ce903690600401610657565b60443592831161069e576137e961183f933690600401610657565b9173ffffffffffffffffffffffffffffffffffffffff6138076140b1565b163314801561381a575b612d15906140f3565b50612d15613827336141a4565b9050613811565b8015150361069e57565b3461069e57606060031936011261069e5767ffffffffffffffff60043581811161069e5761386a903690600401610657565b9060243590811161069e57613883903690600401610657565b90604435906138918261382e565b33600052600c60205260ff6040600020541680156139c8575b6138b390614f91565b600460206138f273ffffffffffffffffffffffffffffffffffffffff6138d887617a27565b1673ffffffffffffffffffffffffffffffffffffffff1690565b604051928380927fd6c797510000000000000000000000000000000000000000000000000000000082525afa8015610d01577f065f6d53399aa9897d90c199bb139a604bda921365245131d0739913ea051b169461183461396092612d24946000916139aa575b501561472d565b9261399e8161396e866106f4565b9060ff7fffffffffffffffffffffffffffffffffffffffffffffffffffffffffffffff0083541691151516179055565b60405193849384614c1f565b6139c2915060203d8111610cfa57610ceb81836105c0565b38613959565b506138b36139d5336141a4565b90506138aa565b3461069e5760031960608136011261069e5760049067ffffffffffffffff823581811161069e57613a109036908501611272565b60243582811161069e57613a279036908601611272565b9160443590811161069e57613a3f9036908601610657565b9373ffffffffffffffffffffffffffffffffffffffff9283613a5f6140b1565b1633148015613b40575b613a72906140f3565b8251815103613b225760009586948554169260015492843b15613b1e57613add978793613aed613afc936040519b8c9a8b998a987fec6a8b7d000000000000000000000000000000000000000000000000000000008a5289015260806024890152608488019061116e565b908487830301604488015261116e565b91848303016064850152610ff2565b03925af18015610d0157613b0e575080f35b80610d13613b1b92610537565b80f35b8680fd5b60448260206040519162461bcd60e51b835282015260006024820152fd5b50613a72613b4d336141a4565b9050613a69565b929190613b6b602091604086526040860190610ff2565b930152565b3461069e57613b86613b81366106a3565b6107d8565b6001613b9182610f2f565b91015490610cd060405192839283613b54565b3461069e57602060031936011261069e5773ffffffffffffffffffffffffffffffffffffffff613bd26140b1565b1633148015613bed575b613be5906140f3565b600435600255005b50613be5613bfa336141a4565b9050613bdc565b7f4e487b7100000000000000000000000000000000000000000000000000000000600052603260045260246000fd5b8054821015611f4b5760005260206000200190600090565b3461069e57602060031936011261069e57600435600d5481101561069e5773ffffffffffffffffffffffffffffffffffffffff602091600d6000527fd7b6990105719101dabeb77144f2a3385c8033acd3af97e9423a695e81ad1eb5015416604051908152f35b3461069e57602060031936011261069e57600435613ccc816108e2565b73ffffffffffffffffffffffffffffffffffffffff9081613ceb6140b1565b1633148015613d63575b613cfe906140f3565b16806000526006602052604060002060017fffffffffffffffffffffffffffffffffffffffffffffffffffffffffffffff008254161790557fbfb8b3e2f6221ae729e9cacb0d35f5d9be686ba10cb1d4e34b646bbb87f7a269602060405160018152a2005b50613cfe613d70336141a4565b9050613cf5565b3461069e57602060031936011261069e5773ffffffffffffffffffffffffffffffffffffffff600435613da9816108e2565b166000526006602052602060ff604060002054166040519015158152f35b3461069e57602060031936011261069e57600435613de4816108e2565b73ffffffffffffffffffffffffffffffffffffffff9081613e036140b1565b1633148015613e78575b613e16906140f3565b1680600052600660205260406000207fffffffffffffffffffffffffffffffffffffffffffffffffffffffffffffff0081541690557fbfb8b3e2f6221ae729e9cacb0d35f5d9be686ba10cb1d4e34b646bbb87f7a269602060405160008152a2005b50613e16613e85336141a4565b9050613e0d565b9081602091031261069e57516106ce8161382e565b6040513d6000823e3d90fd5b15613eb457565b606460405162461bcd60e51b815260206004820152601860248201527f433343616c6c6572446170703a206f6e6c7943616c6c657200000000000000006044820152fd5b939190936001540361406d578060041161069e577fffffffff000000000000000000000000000000000000000000000000000000009081853516946004810192600f54818160e01b168814600014613fc7575050613faa9495507fdd7d78ca1ea15aecc9359a73a78f91e00ebf49d98786c12a47e589820bd7515893613f9c73ffffffffffffffffffffffffffffffffffffffff94613fb094613fbf940190617587565b939b9497919a90929b617a27565b96617a27565b98604051978897169987617548565b0390a3600190565b60c01b16860361402b577f50b35a2ddb64c2a3c71f272a7e62128be666bb248d869348a2dcf38f593e5c2d9495506140169261402392614008920190617506565b919693989298959095617a27565b9460405196879687617548565b0390a2600190565b5091600319937fd1b411598268892b6836c5b922cfa272124f6f0bd3a7cf9f9d408f7e50f2230195614065936040519687960191866174b8565b0390a1600190565b606460405162461bcd60e51b815260206004820152600f60248201527f646170704944206469736d6174636800000000000000000000000000000000006044820152fd5b6005544210156140d75773ffffffffffffffffffffffffffffffffffffffff6003541690565b73ffffffffffffffffffffffffffffffffffffffff6004541690565b156140fa57565b606460405162461bcd60e51b815260206004820152600d60248201527f476f7620464f5242494444454e000000000000000000000000000000000000006044820152fd5b7f4e487b7100000000000000000000000000000000000000000000000000000000600052601160045260246000fd5b9060018201809211611d6c57565b6002019081600211611d6c57565b6003019081600311611d6c57565b91908201809211611d6c57565b602073ffffffffffffffffffffffffffffffffffffffff6024816000541693600060405195869485937f7ac07dcc0000000000000000000000000000000000000000000000000000000085521660048401525af1908115610d015760009161420a575090565b6106ce915060203d8111610cfa57610ceb81836105c0565b9291909260009173ffffffffffffffffffffffffffffffffffffffff8354169060015490823b156142eb57602061429e9697866142c181946142b16040519b8c9a8b997f27a63fd8000000000000000000000000000000000000000000000000000000008b5260048b015260a060248b015260a48a0190610ff2565b60031995868a83030160448b0152610ff2565b9084888303016064890152610ff2565b85810392830160848701525201925af18015610d01576142de5750565b80610d1361060e92610537565b8480fd5b9491939473ffffffffffffffffffffffffffffffffffffffff6143106140b1565b16331480156146a8575b614323906140f3565b61433e614339614335610ba3846107b2565b1590565b6146bc565b61434d61146a61146a84617a27565b60409081519384917fd6c7975100000000000000000000000000000000000000000000000000000000835282600460209788935afa918215610d015761439f926118349160009161469157501561472d565b9681517f0bd47a780000000000000000000000000000000000000000000000000000000081528281806143d58760048301611035565b0381305afa908115610d0157600091614663575b5015614655575b6144276143fc846107b2565b60017fffffffffffffffffffffffffffffffffffffffffffffffffffffffffffffff00825416179055565b866001614433856107d8565b015561444a886002614444866107d8565b016149d5565b614459866003614444866107d8565b61446e816004614468866107d8565b01614a07565b614477876182e3565b61448084610740565b6144a561146a61146a60075473ffffffffffffffffffffffffffffffffffffffff1690565b9184519187836004817f91ddadf400000000000000000000000000000000000000000000000000000000978882525afa908115610d01576144ed9360009261463d5750614e70565b50506144f7614a96565b97614501886178a4565b61450d90949194614b06565b8a61451787610766565b614521908b610896565b9061452b91614845565b856145358c61078c565b61453f908b610896565b9061454991614845565b61455291614b8d565b6103e89004614560906182e3565b614569856107fe565b6145739089610896565b60075485519384528790849073ffffffffffffffffffffffffffffffffffffffff16815a91600492fa908115610d01576145b4936000926146255750614e70565b505046036145ce575050505050506143fc61060e916106f4565b61060e96612d1593928261461561460f612ce995519a8781519101207fffffffff000000000000000000000000000000000000000000000000000000001690565b99610537565b5197889485015260248401614c03565b613344919250883d8a1161165b5761164c81836105c0565b613344919250893d8b1161165b5761164c81836105c0565b61465e83614981565b6143f0565b6146839150833d851161468a575b61467b81836105c0565b8101906147c4565b50386143e9565b503d614671565b6139c29150873d8911610cfa57610ceb81836105c0565b506143236146b5336141a4565b905061431a565b156146c357565b608460405162461bcd60e51b815260206004820152603760248201527f54686569612053746167696e675661756c743a20546f6b656e20697320616c7260448201527f65616479206c697374656420666f7220726577617264730000000000000000006064820152fd5b1561473457565b60a460405162461bcd60e51b815260206004820152605060248201527f54686569612053746167696e675661756c743a2043616e6e6f7420616464206160448201527f20726577617264656420746f6b656e20776974686f757420616e20756e64657260648201527f6c79696e6720617373657420706f6f6c000000000000000000000000000000006084820152fd5b919082604091031261069e57602082516147dd8161382e565b9201516106ce8161382e565b8181106147f4575050565b600081556001016147e9565b9190601f811161480f57505050565b61060e926000526020600020906020601f840160051c8301931061483b575b601f0160051c01906147e9565b909150819061482e565b919091825167ffffffffffffffff811161054b5761486d816148678454610edc565b84614800565b602080601f83116001146148c65750819293946000926148bb575b50507fffffffffffffffffffffffffffffffffffffffffffffffffffffffffffffffff8260011b9260031b1c1916179055565b015190503880614888565b907fffffffffffffffffffffffffffffffffffffffffffffffffffffffffffffffe08316956148fa85600052602060002090565b926000905b8882106149555750508360019596971061491e575b505050811b019055565b01517fffffffffffffffffffffffffffffffffffffffffffffffffffffffffffffffff60f88460031b161c19169055388080614914565b806001859682949686015181550195019301906148ff565b919061497c5761060e91614845565b610ead565b600e54906801000000000000000082101561054b576001820180600e55821015611f4b5761060e91600e6000527fbb7b4a454dc3493923482f07822329ed19e8244eff582cc204f8554c3620c3fd01614845565b80546801000000000000000081101561054b576149f791600182018155613c30565b91909161497c5761060e91614845565b908154916801000000000000000083101561054b5782614a2f91600161060e95018155613c30565b9091907fffffffffffffffffffffffffffffffffffffffffffffffffffffffffffffffff83549160031b92831b921b1916179055565b9081602091031261069e575165ffffffffffff8116810361069e5790565b60405190614a9082610588565b60008252565b604051906060820182811067ffffffffffffffff82111761054b57604052602182527f29000000000000000000000000000000000000000000000000000000000000006040837f736574526577617264466c616728737472696e672c737472696e672c626f6f6c60208201520152565b15614b0d57565b608460405162461bcd60e51b815260206004820152602660248201527f54686569612053746167696e675661756c743a736f75726365436861696e206960448201527f6e76616c696400000000000000000000000000000000000000000000000000006064820152fd5b908160011b9180830460021490151715611d6c57565b81810292918115918404141715611d6c57565b8115614baa570490565b7f4e487b7100000000000000000000000000000000000000000000000000000000600052601260045260246000fd5b9291613b6b604091614bf5600094606088526060880190610ff2565b908682036020880152610ff2565b9291613b6b604091614bf5600194606088526060880190610ff2565b91614c4990614c3b604093969596606086526060860190610ff2565b908482036020860152610ff2565b931515910152565b80546801000000000000000081101561054b57614c7391600182018155613c30565b61497c5781516020929092015160301b7fffffffffffffffffffffffffffffffffffffffffffffffffffff0000000000001665ffffffffffff92909216919091179055565b907fffffffffffffffffffffffffffffffffffffffffffffffffffffffffffffffff8201918211611d6c57565b91908203918211611d6c57565b906040516040810181811067ffffffffffffffff82111761054b57604052915465ffffffffffff8116835260301c6020830152565b8054908115614e4b57614d51614d4c614d3f84614cb8565b8360005260206000200190565b614cf2565b90614d62825165ffffffffffff1690565b65ffffffffffff8581169491168410614e2157614dec94602094614d9a614d8f865165ffffffffffff1690565b65ffffffffffff1690565b03614df25750614dcb91614db0614dbd92614cb8565b9060005260206000200190565b65ffffffffffff8154169055565b015179ffffffffffffffffffffffffffffffffffffffffffffffffffff1690565b90600090565b9050614e1c91614e11614e03610601565b65ffffffffffff9093168352565b600085830152614c51565b614dcb565b60046040517f2520601d000000000000000000000000000000000000000000000000000000008152fd5b614e68929150614e5c614e03610601565b60006020830152614c51565b600090600090565b805492939291908215614f5457614e8c614d4c614d3f85614cb8565b90614e9d825165ffffffffffff1690565b65ffffffffffff84811691168110614e2157614f18946020948892614ecb614d8f875165ffffffffffff1690565b03614f1c5750614dcb92614db0614ee192614cb8565b9065ffffffffffff7fffffffffffffffffffffffffffffffffffffffffffffffffffff00000000000083549260301b169116179055565b9190565b915050614e1c91614f2e614e03610601565b79ffffffffffffffffffffffffffffffffffffffffffffffffffff881682860152614c51565b614f8b9250614f64614e03610601565b79ffffffffffffffffffffffffffffffffffffffffffffffffffff85166020830152614c51565b60009190565b15614f9857565b608460405162461bcd60e51b815260206004820152602260248201527f54686569612053746167696e675661756c743a204155544820464f524249444460448201527f454e0000000000000000000000000000000000000000000000000000000000006064820152fd5b1561500957565b608460405162461bcd60e51b815260206004820152603360248201527f54686569612053746167696e675661756c743a20546f6b656e206973206e6f7460448201527f206c697374656420666f722072657761726473000000000000000000000000006064820152fd5b805460018083559392908085106150c5575b506150969091600052602060002090565b906000905b8482106150a9575050509050565b846020826150b983945187614845565b0193019101909161509b565b600083815285806020832093840193015b8381106150e557505050615085565b6150ef8154610edc565b806150fe575b500186906150d6565b601f9083828211600114615119575050508281555b386150f5565b61513a9261512c85600052602060002090565b920160051c820191016147e9565b60008181526020812081835555615113565b80549160019283835580841061518e575b50906000526020908160002060005b84811061517a575050505050565b825160ff168282015591830191840161516c565b6151a6908360005284602060002091820191016147e9565b3861515d565b7fffffffffffffffffffffffffffffffffffffffffffffffffffffffffffffffff8114611d6c5760010190565b606051811015611f4b5760051b60800190565b8051821015611f4b5760209160051b010190565b1561520757565b608460405162461bcd60e51b815260206004820152603460248201527f54686569612053746167696e675661756c743a20546f6b656e20776173206e6f60448201527f74206c697374656420666f7220726577617264730000000000000000000000006064820152fd5b9161528d90949394611834615288610ba3866107b2565b615200565b9381600161529a856107d8565b01556152a5826182e3565b936152af84610740565b6007926152d661146a61146a865473ffffffffffffffffffffffffffffffffffffffff1690565b926040958651809981957f91ddadf4000000000000000000000000000000000000000000000000000000009788845260209c8d916004998a915afa908115610d0157615329936000926154b55750614e70565b50506003998a6153388a6107d8565b01549a6153508261534b6115208d610766565b614845565b6153608a61534b6115208561078c565b60005b8c811061543057508a9b5093610a296153c86153c36153bb878e9f9c9d9e976153b661146a9a8d6144688c6153e99f6153ce9d61146a9f8e613b81936144446153ab936107d8565b6002614444846107d8565b614b8d565b6103e8900490565b6182e3565b9b6107fe565b965473ffffffffffffffffffffffffffffffffffffffff1690565b94518095819382525afa918215610d015761540d94600093615411575b5050614e70565b5050565b615428929350803d1061165b5761164c81836105c0565b903880615406565b6154578661545261544c848f61544688916107d8565b01613c30565b50610f2f565b617bfa565b61546957615464906151ac565b615363565b8b9c506153e99591506153c86153c36153bb878e9f9c9d9e976153b661146a9a614a2f888f6154468e61146a9f6153ce9f6154af610a299f6002615446613b81956107d8565b9061496d565b6133449192508d803d1061165b5761164c81836105c0565b1561069e57565b6154e361138e610ba3836107b2565b6154f16127108411156154cd565b600391826154fe836107d8565b015493600093845b8681106155785760405162461bcd60e51b815260206004820152602860248201527f54686569612053746167696e675661756c743a20636861696e4964537472206e60448201527f6f7420666f756e640000000000000000000000000000000000000000000000006064820152608490fd5b61558d8461545261544c84866154468b6107d8565b61559f5761559a906151ac565b615506565b84959650610a2991506153c36153bb846155cc6155e49796614a2f6155de966154469b60049c8d916107d8565b60016155d78a6107d8565b0154614b8d565b946107fe565b61560961146a61146a60075473ffffffffffffffffffffffffffffffffffffffff1690565b91604051928380927f91ddadf400000000000000000000000000000000000000000000000000000000825260209586935afa928315610d015761540d9593615411575050614e70565b1561565957565b608460405162461bcd60e51b815260206004820152603260248201527f54686569612053746167696e675661756c743a20546f6b656e20646f6573206e60448201527f6f742072656365697665207265776172647300000000000000000000000000006064820152fd5b156156ca57565b608460405162461bcd60e51b815260206004820152603060248201527f54686569612053746167696e675661756c743a2043616e6e6f74206465706f7360448201527f69742061207a65726f20616d6f756e74000000000000000000000000000000006064820152fd5b9081602091031261069e57516106ce816108e2565b9081602091031261069e575190565b1561575f57565b608460405162461bcd60e51b815260206004820152603960248201527f54686569612053746167696e675661756c743a205573657220646f6573206e6f60448201527f7420686176652073756666696369656e742062616c616e6365000000000000006064820152fd5b156157d057565b606460405162461bcd60e51b815260206004820152602060248201527f54686569612053746167696e675661756c743a207a65726f20774e41544956456044820152fd5b1561581b57565b608460405162461bcd60e51b815260206004820152602c60248201527f54686569612053746167696e675661756c743a756e6465726c79696e6720697360448201527f206e6f7420774e415449564500000000000000000000000000000000000000006064820152fd5b1561588c57565b7f4e487b7100000000000000000000000000000000000000000000000000000000600052600160045260246000fd5b156158c257565b60a460405162461bcd60e51b815260206004820152604260248201527f54686569612053746167696e675661756c743a20496e73756666696369656e7460448201527f2066756e647320696e2053746167696e675661756c7420746f2077697468647260648201527f61770000000000000000000000000000000000000000000000000000000000006084820152fd5b1561595957565b608460405162461bcd60e51b815260206004820152603160248201527f54686569612053746167696e675661756c743a2043616e6e6f7420776974686460448201527f7261772061207a65726f20616d6f756e740000000000000000000000000000006064820152fd5b604051906159d08261056c565b6014825260203681840137565b604051906060820182811067ffffffffffffffff82111761054b57604052602a8252604082602036910137565b90615a148261061d565b615a2160405191826105c0565b8281527fffffffffffffffffffffffffffffffffffffffffffffffffffffffffffffffe0615a4f829461061d565b0190602036910137565b3d15615a84573d90615a6a8261061d565b91615a7860405193846105c0565b82523d6000602084013e565b606090565b6000808093819382604051615a9d81610588565b525af1615aa8615a59565b5015615ab057565b608460405162461bcd60e51b815260206004820152602660248201527f5472616e7366657248656c7065723a204e41544956455f5452414e534645525f60448201527f4641494c454400000000000000000000000000000000000000000000000000006064820152fd5b60405190615b27826105a4565b604782527f696e7432353629000000000000000000000000000000000000000000000000006060837f7265706f72744c69717569646974794174746163686d656e7428737472696e6760208201527f2c737472696e672c75696e743235362c737472696e672c75696e743235362c7560408201520152565b929093615bc1615bd493614bf560a0979a99989a60c0885260c0880190610ff2565b9160408501528382036060850152610ff2565b9460808201520152565b929491615c0a90615bfc6106ce98969360c0875260c0870190610ff2565b908582036020870152610ff2565b9460408401526060830152608082015260a0818403910152610ff2565b81601f8201121561069e578051615c3d8161061d565b92615c4b60405194856105c0565b8184526020828401011161069e576106ce91602080850191016106d1565b60046000918273ffffffffffffffffffffffffffffffffffffffff815416604051938480927fd0496d6a0000000000000000000000000000000000000000000000000000000082525afa918215610d01578390848094615ccb575b5050929190565b93509350503d8083853e615cdf81856105c0565b8301606084820312615d3a5783519360208101519067ffffffffffffffff91828111615d365783615d11918301615c27565b946040820151928311615d335750615d2a929101615c27565b91923880615cc4565b80fd5b8580fd5b8280fd5b919082604091031261069e576020825192015190565b15615d5b57565b608460405162461bcd60e51b815260206004820152603660248201527f54686569612053746167696e675661756c743a20496e73756666696369656e7460448201527f206c697175696469747920746f207769746864726177000000000000000000006064820152fd5b60405190615dd2826105a4565b604782527f696e7432353629000000000000000000000000000000000000000000000000006060837f7265706f72744c69717569646974794465746163686d656e7428737472696e6760208201527f2c737472696e672c75696e743235362c737472696e672c75696e743235362c7560408201520152565b9260c094916106ce97969373ffffffffffffffffffffffffffffffffffffffff80921686521660208501526040840152606083015260808201528160a08201520190610ff2565b15615e9857565b608460405162461bcd60e51b815260206004820152602d60248201527f54686569612053746167696e675661756c743a204e6f74206f776e6572206f6660448201527f20746869732076655448454941000000000000000000000000000000000000006064820152fd5b15615f0957565b60a460405162461bcd60e51b815260206004820152604a60248201527f54686569612053746167696e675661756c743a204c697175696469747920746f60448201527f6b656e206164647265737320646f6573206e6f74206578697374206f6e20746160648201527f7267657420636861696e000000000000000000000000000000000000000000006084820152fd5b15615fa057565b608460405162461bcd60e51b815260206004820152602660248201527f54686569612053746167696e675661756c743a20666565546f6b656e206e6f7460448201527f20657869737400000000000000000000000000000000000000000000000000006064820152fd5b1561601157565b608460405162461bcd60e51b815260206004820152602b60248201527f54686569612053746167696e675661756c743a64657374696e6174696f6e436860448201527f61696e20696e76616c69640000000000000000000000000000000000000000006064820152fd5b60405190616088826105a4565b604f82527f737472696e672c75696e743235362900000000000000000000000000000000006060837f73746167696e67546f4c697175696469747928737472696e672c737472696e6760208201527f2c737472696e672c75696e743235362c75696e743235362c75696e743235362c60408201520152565b989796926161429061613460e09894616126613b6b99958e610100908181520190610ff2565b8d810360208f015290610ff2565b908b820360408d0152610ff2565b9360608a0152608089015260a088015286820360c0880152610ff2565b91949593929061618a61146a61146a60075473ffffffffffffffffffffffffffffffffffffffff1690565b6040517f6352211e00000000000000000000000000000000000000000000000000000000815260048101859052602097918890829060249082905afa8015610d01576162069261620161157992611067946000916163be575b5073ffffffffffffffffffffffffffffffffffffffff163314615e91565b610766565b9561621387511515615f02565b61629861621f89617a27565b98828a61624761146a61146a60095473ffffffffffffffffffffffffffffffffffffffff1690565b60405180809681947fa36d45050000000000000000000000000000000000000000000000000000000083526004830191909173ffffffffffffffffffffffffffffffffffffffff6020820193169052565b03915afa918215610d01576162fc926162bb916000916163a1575b501515615f99565b6162ce6162c9600a546151ac565b600a55565b600a54998a986162eb61139f8b600052601f602052604060002090565b6162f4876178a4565b94909461600a565b61630530618092565b93460361632657505050505050506106ce9361632033618092565b906164bb565b97612ce99495976163406106ce9c9b93612d15999b6166de565b9461634961607b565b9b61635333618092565b9161638f6163896040519f8c81519101207fffffffff000000000000000000000000000000000000000000000000000000001690565b9e610537565b6040519d8e9a8b015260248a01616100565b6163b89150853d8711610ea657610e9881836105c0565b386162b3565b6163d591508c8d3d10610d4557610d3781836105c0565b386161e3565b156163e257565b60a460405162461bcd60e51b815260206004820152605160248201527f54686569612053746167696e675661756c743a204c697175696469747920707260448201527f6f76696465722068617320696e73756666696369656e742066756e647320696e60648201527f207468652073746167696e675661756c740000000000000000000000000000006084820152fd5b9293906020959261648e61649b9260c0875260c0870190610ff2565b9085820388870152610ff2565b9360408401526060830152608082015260a0818303910152600081520190565b93929190926164c984617a27565b926164d386617a27565b9273ffffffffffffffffffffffffffffffffffffffff9384811697604051957f6f307dc3000000000000000000000000000000000000000000000000000000008752868a81600460209a8b935afa8015610d015761659394899388936000936166bc575b506000906040518098819682957f095ea7b3000000000000000000000000000000000000000000000000000000008452600484016020909392919373ffffffffffffffffffffffffffffffffffffffff60408201951681520152565b0393165af1908115610d01576165e3926165b1926166a65750617c7d565b956165c1610baa610ba3896106f4565b6165da846165d28361094b8b61071a565b5410156163db565b61094b8761071a565b6165ee838254614ce5565b90556040517f6e553f6500000000000000000000000000000000000000000000000000000000815260048101839052306024820152968490889060449082906000905af1938415610d01577f9c94de4e2a6044294b9be5531323626c90fce701f1b6cb10726e038d105751b99761668395616688575b5050616677838387848a61302046617f24565b60405195869586616472565b0390a1565b8161669e92903d10610ea657610e9881836105c0565b503880616664565b61374890883d8a11610cfa57610ceb81836105c0565b60009193506166d790863d8811610d4557610d3781836105c0565b9290616537565b6040517f23b872dd0000000000000000000000000000000000000000000000000000000081523360048201523060248201526044810182905290916020908290606490829060009073ffffffffffffffffffffffffffffffffffffffff165af1908115610d015760009161679a575b50156167565790565b606460405162461bcd60e51b815260206004820152601d60248201527f466565436f6e6669673a20466565207061796d656e74206661696c65640000006044820152fd5b6167b2915060203d8111610cfa57610ceb81836105c0565b3861674d565b156167bf57565b608460405162461bcd60e51b815260206004820152602f60248201527f54686569612053746167696e675661756c743a2043616e6e6f742072656d6f7660448201527f65206c69717569646974792079657400000000000000000000000000000000006064820152fd5b1561683057565b60a460405162461bcd60e51b815260206004820152605c60248201527f54686569612053746167696e675661756c743a2074686520616d6f756e74206560448201527f78636565647320746865206c6971756964697479206f66207468697320746f6b60648201527f656e206f6e207468697320636861696e20666f7220546f6b656e4964000000006084820152fd5b604051906168cd826105a4565b605682527f696e743235362c737472696e672c75696e7432353629000000000000000000006060837f6c6971756964697479546f53746167696e6728737472696e672c737472696e6760208201527f2c737472696e672c737472696e672c75696e743235362c75696e743235362c7560408201520152565b9195939290949561697161146a61146a60075473ffffffffffffffffffffffffffffffffffffffff1690565b6040517f6352211e000000000000000000000000000000000000000000000000000000008152600481018590526020918290829060249082905afa8015610d01576169db91600091616b7c575073ffffffffffffffffffffffffffffffffffffffff163314615e91565b616a0d616a046169fe6169f8876000526017602052604060002090565b8a610896565b85610896565b544210156167b8565b616a3f85616a37616a31616a2b88600052601d602052604060002090565b8b610896565b86610896565b541015616829565b616aba8189616a6961146a61146a60095473ffffffffffffffffffffffffffffffffffffffff1690565b60405180809581947fa36d45050000000000000000000000000000000000000000000000000000000083526004830191909173ffffffffffffffffffffffffffffffffffffffff6020820193169052565b03915afa8015610d0157616ad791600091616b6557501515615f99565b616b18616af2611067616a31616aec8c618092565b9a610766565b97616b016162c9600a546151ac565b600a54998a98616b10876178a4565b949094614b06565b616b2130618092565b934603616b4257505050505050506106ce93616b3c33618092565b90616b93565b97612ce9949597616b5c6106ce9c9b93612d15999b6166de565b946163496168c0565b6163b89150833d8511610ea657610e9881836105c0565b6163d59150833d8511610d4557610d3781836105c0565b919093616b9f85617a27565b93616bb2616bac85617a27565b94617c7d565b604080517fa747b93b00000000000000000000000000000000000000000000000000000000815273ffffffffffffffffffffffffffffffffffffffff871660048201529194918181602481305afa908115610d0157616c1d918591600091616d3f575b501015615d54565b80517ef714ce0000000000000000000000000000000000000000000000000000000081526004810184905230602482015297602089604481600073ffffffffffffffffffffffffffffffffffffffff8c165af1908115610d015784616683978588937f108476e5e0ceb5495beb4c029fccd1b9fee602cd1607444bddfec31d845b76a29d616cd396616d21575b50616cb88d61094b8561071a565b616cc3858254614197565b9055616cce46617f24565b61725e565b519586958693919060e095939173ffffffffffffffffffffffffffffffffffffffff809216865216602085015260408401526060830152608082015260c060a0820152600060c08201520190565b616d389060203d8111610ea657610e9881836105c0565b5038616caa565b616d569150843d8611612e1757612e0781836105c0565b5038616c15565b15616d6457565b60a460405162461bcd60e51b815260206004820152604c60248201527f54686569612053746167696e675661756c743a20746f6b656e53796d626f6c2060448201527f6e6f7420666f756e6420696e205f7265706f72744c697175696469747941747460648201527f6163686d656e744c6f63616c00000000000000000000000000000000000000006084820152fd5b91909179ffffffffffffffffffffffffffffffffffffffffffffffffffff80809416911601918211611d6c57565b92616e5790616e49615bd49460a097949a99989a875260c0602088015260c0870190610ff2565b908582036040870152610ff2565b908382036060850152610ff2565b9490939192616e7390617c7d565b91616e836110676115208561078c565b92616e9084511515616d5d565b616ea76169fe86600052601b602052604060002090565b616eb2838254614197565b9055616ec061152085610870565b616ecb838254614197565b9055616ee7611520616a3187600052601d602052604060002090565b616ef2838254614197565b9055616efd84610824565b616f08838254614197565b9055616f24611520616a31876000526012602052604060002090565b96616f4a61146a61146a60075473ffffffffffffffffffffffffffffffffffffffff1690565b94604051987f91ddadf400000000000000000000000000000000000000000000000000000000998a815260209182826004818c5afa908115610d0157616f98926000926170a1575b506170c0565b9981616fb4616a31616a318c6000526012602052604060002090565b916004604051809b819382525afa8015610d01577f5395dc209a531626a3ed7b9c1456f228f8cd4a93fb231f28bc3734e3a0bf12bf9b616683996170299460009361707c575b50506170239079ffffffffffffffffffffffffffffffffffffffffffffffffffff891690616df4565b91614e70565b505061705861705261703d600b5442614197565b92610a298a6000526017602052604060002090565b83610896565b556170706143fc85600052601f602052604060002090565b60405196879687616e22565b617023929350908161709992903d1061165b5761164c81836105c0565b919038616ffa565b6170b9919250843d861161165b5761164c81836105c0565b9038616f92565b90815460008160058111617150575b509190915b828110617100575050806170e9575050600090565b6106ce91614db06170f992614cb8565b5460301c90565b90918082169080831860011c8201809211611d6c578460005265ffffffffffff808360206000200154169085161060001461713e5750915b906170d4565b92915061714a9061416d565b90617138565b909161715b82618191565b8203918211611d6c5784835265ffffffffffff8083602086200154169085161060001461718b5750905b386170cf565b91506171969061416d565b617185565b156171a257565b60a460405162461bcd60e51b815260206004820152604c60248201527f54686569612053746167696e675661756c743a20746f6b656e53796d626f6c2060448201527f6e6f7420666f756e6420696e205f7265706f72744c697175696469747944657460648201527f6163686d656e744c6f63616c00000000000000000000000000000000000000006084820152fd5b79ffffffffffffffffffffffffffffffffffffffffffffffffffff9182169082160391908211611d6c57565b919261726d9095919495617c7d565b9461727d6110676169fe8861078c565b9561728a8751151561719b565b6172a161152086600052601b602052604060002090565b6172ac838254614ce5565b90556172ba6169fe88610870565b6172c5838254614ce5565b90556172e76169fe6172e187600052601d602052604060002090565b89610896565b6172f2838254614ce5565b90556172fd87610824565b617308838254614ce5565b90556173246169fe6172e1876000526012602052604060002090565b9361734a61146a61146a60075473ffffffffffffffffffffffffffffffffffffffff1690565b946040517f91ddadf4000000000000000000000000000000000000000000000000000000009081815260209283826004818c5afa908115610d015761739f6173b4926169fe92879560009261746157506170c0565b9c610a298c6000526012602052604060002090565b916004604051809a819382525afa8015610d01577f86a32faf36268ab650da7816b1e6ad803c6377f361b48c7b12a661130ef4f7309a616683986174239460009361743c575b50506170239079ffffffffffffffffffffffffffffffffffffffffffffffffffff881690617232565b50506170706143fc85600052601f602052604060002090565b617023929350908161745992903d1061165b5761164c81836105c0565b9190386173fa565b6170b9919250863d881161165b5761164c81836105c0565b601f82602094937fffffffffffffffffffffffffffffffffffffffffffffffffffffffffffffffe0938186528686013760008582860101520116010190565b93916106ce95937fffffffff000000000000000000000000000000000000000000000000000000006174f893168652606060208701526060860191617479565b926040818503910152617479565b9060a08282031261069e5781359067ffffffffffffffff821161069e5761752e918301610657565b916020820135916040810135916080606083013592013590565b919260a09373ffffffffffffffffffffffffffffffffffffffff6106ce9896931684526020840152604083015260608201528160808201520191617479565b91909160c08184031261069e5767ffffffffffffffff813581811161069e57846175b2918401610657565b93602083013591821161069e576175ca918301610657565b9160408201359160608101359160a0608083013592013590565b6003806175f0836107d8565b015492600091825b85811061766a5760405162461bcd60e51b815260206004820152603c60248201527f54686569612053746167696e675661756c743a20546f6b656e2072657761726460448201527f7320666f72207468697320636861696e4964206e6f7420666f756e64000000006064820152608490fd5b61767f8361545261544c84866154468b6107d8565b6176915761768c906151ac565b6175f8565b92916106ce95506176a69150610a298561084a565b5442101590506176da576155d76176d46153bb6176ca6001946004615446886107d8565b90549060031b1c90565b926107d8565b5060016155d76103e8926107d8565b9081546176f58161125a565b9261770360405194856105c0565b818452600090815260208082208186015b848410617722575050505050565b600183819261773085610f2f565b815201920193019290617714565b600e9081549160005b83811061775a5750505050600090600090565b8160005261779261778c827fbb7b4a454dc3493923482f07822329ed19e8244eff582cc204f8554c3620c3fd01610f2f565b84617bfa565b6177a45761779f906151ac565b617747565b505060ff91506177b3906107b2565b54169060019190565b9081602091031261069e575160ff8116810361069e5790565b805115611f4b5760200190565b805160011015611f4b5760210190565b908151811015611f4b570160200190565b60ff7fffffffffffffffffffffffffffffffffffffffffffffffffffffffffffffffd09116019060ff8211611d6c57565b60ff7fffffffffffffffffffffffffffffffffffffffffffffffffffffffffffffffbf9116019060ff8211611d6c57565b60ff7fffffffffffffffffffffffffffffffffffffffffffffffffffffffffffffff9f9116019060ff8211611d6c57565b604d8111611d6c57600a0a90565b906000916000918151156179885782935b825185101561797e576179026178fd6178f76178d188876177f2565b517fff000000000000000000000000000000000000000000000000000000000000001690565b60f81c90565b617803565b5060ff60098161791b6178fd6178f76178d18b8a6177f2565b16116179745761796e916179626179689261793f6178fd6178f76178d18c8b6177f2565b9061795b6179566179518c8b51614ce5565b614cb8565b617896565b9116614b8d565b90614197565b946151ac565b936178b5565b5050919250508190565b9350600192509050565b92505090600190565b60041b90610ff060f0831692168203611d6c57565b60ff16600a019060ff8211611d6c57565b60ff60209116019060ff8211611d6c57565b9060ff8091169116019060ff8211611d6c57565b90602082519201517fffffffffffffffffffffffffffffffffffffffff000000000000000000000000908181169360148110617a1857505050565b60140360031b82901b16169150565b602a815103617af357617a386159c3565b906000805b60148110617a5d5750505061146a617a576106ce926179dd565b60601c90565b80617adc617ab4617a94617a8f617a8a6178d1617a84617a7f617aee99614b77565b61417b565b8a6177f2565b617b37565b617991565b617aae617a8a6178d1617a84617aa988614b77565b614189565b906179c9565b60f81b7fff000000000000000000000000000000000000000000000000000000000000001690565b831a617ae882876177f2565b536151ac565b617a3d565b606460405162461bcd60e51b815260206004820152601660248201527f496e76616c69642061646472657373206c656e677468000000000000000000006044820152fd5b60f81c603081101580617bef575b15617b53576106ce90617803565b606181101580617be4575b15617b7457617b6f6106ce916179a6565b617865565b604181101580617bd9575b617bc85760405162461bcd60e51b815260206004820152601560248201527f496e76616c6964206865782063686172616374657200000000000000000000006044820152606490fd5b617bd46106ce916179a6565b617834565b506046811115617b7f565b506066811115617b5e565b506039811115617b45565b906040519182617c166020820192602084526040830190610ff2565b0392617c487fffffffffffffffffffffffffffffffffffffffffffffffffffffffffffffffe0948581018352826105c0565b51902091617c766040519182617c6a6020820195602087526040830190610ff2565b039081018352826105c0565b5190201490565b90617c888251615a0a565b600092835b8151811015617d1857806041617cb5617caf6178f76178d1617ce996886177f2565b60ff1690565b101580617cfb575b15617cee57617cdd617ab4617cd86178f76178d185886177f2565b6179b7565b861a617ae882866177f2565b617c8d565b617cdd6178d182856177f2565b50605a60ff617d106178f76178d185886177f2565b161115617cbd565b5090925050565b6040517fa9059cbb00000000000000000000000000000000000000000000000000000000602082015273ffffffffffffffffffffffffffffffffffffffff9092166024830152604482019290925261060e91617d7e82606481016115f7565b617deb565b6040517f23b872dd00000000000000000000000000000000000000000000000000000000602082015273ffffffffffffffffffffffffffffffffffffffff9283166024820152929091166044830152606482019290925261060e91617d7e82608481016115f7565b60008073ffffffffffffffffffffffffffffffffffffffff617e2293169360208151910182865af1617e1b615a59565b9083617e84565b8051908115159182617e69575b5050617e385750565b602490604051907f5274afe70000000000000000000000000000000000000000000000000000000082526004820152fd5b617e7c9250602080918301019101613e8c565b153880617e2f565b90617ec35750805115617e9957805190602001fd5b60046040517f1425ea42000000000000000000000000000000000000000000000000000000008152fd5b81511580617f1b575b617ed4575090565b60249073ffffffffffffffffffffffffffffffffffffffff604051917f9996b315000000000000000000000000000000000000000000000000000000008352166004820152fd5b50803b15617ecc565b806000917a184f03e93ff9f4daa797ed6e38ed64bf6a1f01000000000000000080821015618084575b506d04ee2d6d415b85acef810000000080831015618075575b50662386f26fc1000080831015618066575b506305f5e10080831015618057575b5061271080831015618048575b506064821015618038575b600a8092101561802e575b600190816021617fbb828701615a0a565b95860101905b617fcd575b5050505090565b7fffffffffffffffffffffffffffffffffffffffffffffffffffffffffffffffff019083907f30313233343536373839616263646566000000000000000000000000000000008282061a83530491821561802957919082617fc1565b617fc6565b9160010191617faa565b9190606460029104910191617f9f565b60049193920491019138617f94565b60089193920491019138617f87565b60109193920491019138617f78565b60209193920491019138617f66565b604093508104915038617f4d565b73ffffffffffffffffffffffffffffffffffffffff16806180b16159dd565b9160306180bd846177d5565b5360786180c9846177e2565b5360295b6001811161811857506180de575090565b6040517fe22e27eb000000000000000000000000000000000000000000000000000000008152600481019190915260146024820152604490fd5b90600f8116906010821015611f4b577f3031323334353637383961626364656600000000000000000000000000000000618161921a61815784876177f2565b5360041c91618166565b6180cd565b8015611d6c577fffffffffffffffffffffffffffffffffffffffffffffffffffffffffffffffff0190565b80156182cb578061826461825d61825361824961823f61823561822b61822160016106ce9a6000908b60801c806182bf575b508060401c806182b2575b508060201c806182a5575b508060101c80618298575b508060081c8061828b575b508060041c8061827e575b508060021c80618271575b50821c61826a575b811c1b61821a818b614ba0565b0160011c90565b61821a818a614ba0565b61821a8189614ba0565b61821a8188614ba0565b61821a8187614ba0565b61821a8186614ba0565b61821a8185614ba0565b8092614ba0565b906182d1565b810161820d565b6002915091019038618205565b60049150910190386181fa565b60089150910190386181ef565b60109150910190386181e4565b60209150910190386181d9565b60409150910190386181ce565b915050608090386181c3565b50600090565b90808210156182de575090565b905090565b79ffffffffffffffffffffffffffffffffffffffffffffffffffff9081811161830a571690565b604490604051907f6dfcc65000000000000000000000000000000000000000000000000000000000825260d060048301526024820152fd5b65ffffffffffff90818111618355571690565b604490604051907f6dfcc650000000000000000000000000000000000000000000000000000000008252603060048301526024820152fdfea2646970667358221220531dc1ca192ffe38d94017763db8b950874af5c0af343081bc4704d90177192c64736f6c63430008140033","linkReferences":{}},"methodIdentifiers":{"FuncLiquidityToStaging()":"2b78a828","FuncStagingToLiquidity()":"82275628","addRewardToken(string,string,uint256,string,uint256,string)":"652fffb5","addTxSender(address)":"eebd14af","attachLiquidity(uint256,string,string,string,uint256,string,uint256)":"9f0c518a","c3CallerProxy()":"58f2c057","c3Fallback(uint256,bytes,bytes)":"b121f51d","cID()":"99a2f2d7","changeGov(address)":"a962ef1e","changeTheiaRewards(address)":"6bf36322","changeVotingEscrow(address)":"5f2af054","completed(uint256)":"c0cca5ef","dappID()":"c516ad11","delay()":"6a42b8f8","depositStaging(string,uint256)":"c7a8728f","depositStagingNative(string)":"169ea7d7","detachLiquidity(uint256,string,string,string,uint256,address,uint256)":"384217b2","disableTxSender(address)":"f9e4cbaf","doGov(string,string,bytes)":"d60ad41b","doGovBroadcast(string[],string[],bytes)":"dd64b3e6","feeManager()":"d0fb0203","getCompletedStatus(uint256)":"983ae312","getLiquidity(address)":"a747b93b","getLiquidityDelay()":"3f8c9567","getLiquidityOfAt(uint256,string,string,uint256)":"6a7df320","getLiquidityRemovalTime(uint256,string,string)":"0bb3b239","getRewardRate(string,string)":"925a8d41","getRewardRate(string,string,uint256)":"3915606f","getRewardRateEnd(string,string)":"4e517fbf","getRewardRateOfAt(string,string,uint256)":"2abfd529","getRewardToken(string)":"b8e9bbe8","getStakedAllChains(uint256)":"842386b2","getStakedTokenSymbols()":"2eb32c55","getStandardRewardRate(string)":"1d9b0565","getStandardRewardRate(string,uint256)":"1713b4ab","getTheiaRewards()":"1075507f","getTokenStakedAllChains(string)":"4cf46cb4","getTokenStakedByChain(string,string)":"9b3aaa20","getTokenStakedByTokenId(uint256,string)":"e6adfff9","getTokenStakedByTokenIdAndChain(uint256,string,string)":"973eae84","getVotingEscrow()":"08b0308a","gov()":"12d43a51","isOperator(address)":"6d70f7ae","isRewardedToken(string)":"a5753cce","isValidSender(address)":"f01f2b8b","liquidityAll(uint256,string)":"194e5aae","liquidityByChain(string,string)":"c1dfdac7","liquidityDelay()":"c29c58f6","liquidityRemovalTime(uint256,string,string)":"90c91774","liquidityToStaging(string,string,string,uint256,uint256,uint256,string,uint256)":"b8dd1621","liquidityTotalAll(string)":"a92d5941","operators(uint256)":"e28d4906","rateFactorEndTime(string,string)":"5a02a06f","removeRewardToken(string,string[],string[])":"3695f24c","reportLiquidityAttachment(string,string,uint256,string,uint256,uint256)":"c5549545","reportLiquidityDetachment(string,string,uint256,string,uint256,uint256)":"50fff1c6","rewarded(string)":"a8b0a1a7","rewardedEVM(string)":"001af838","rewardedTokens(string)":"e0b08179","setDelay(uint256)":"e177246e","setLiquidityDelay(uint256)":"c8cc96ed","setRateTimeToken(string,string,uint256)":"728d7989","setRewardFactor(string,string,uint256)":"85199459","setRewardFlag(string,string,bool)":"d7fe204e","setStandardRewardRate(string,uint256)":"d4147cf9","setUp(address,address)":"84d3127d","stagingToLiquidity(string,string,string,uint256,uint256,uint256,string,uint256)":"d5f557cb","stagingTokens(string,address)":"00d0f151","strToUint(string)":"c5ef3ec5","stringToAddress(string)":"15706fdf","stringsEqual(string,string)":"13d19950","symbolToToken(string,string)":"2238a8a4","theiaRewards()":"6e2f9e43","tokenRewardRate(string,string)":"ac9d2eeb","tokenSymbolExists(string)":"0bd47a78","tokenToSymbol(string,string)":"2b90a9ae","updateChainRewardedToken(string,uint256,string,string,uint256)":"9091dfc2","ve()":"1f850716","version()":"54fd4d50","wNATIVE()":"8fd903f5","withdrawStaging(string,uint256,address)":"9b354828","withdrawStagingNative(string,uint256,address)":"6b564f0d"},"id":17}