{"abi":[{"type":"constructor","inputs":[{"name":"_txSender","type":"address","internalType":"address"},{"name":"_c3callerProxy","type":"address","internalType":"address"},{"name":"_dappID","type":"uint256","internalType":"uint256"},{"name":"_gov","type":"address","internalType":"address"},{"name":"_feeManager","type":"address","internalType":"address"},{"name":"_wNATIVE","type":"address","internalType":"address"},{"name":"_ve","type":"address","internalType":"address"}],"stateMutability":"nonpayable"},{"type":"function","name":"FuncLiquidityToStaging","inputs":[],"outputs":[{"name":"","type":"bytes4","internalType":"bytes4"}],"stateMutability":"view"},{"type":"function","name":"FuncStagingToLiquidity","inputs":[],"outputs":[{"name":"","type":"bytes4","internalType":"bytes4"}],"stateMutability":"view"},{"type":"function","name":"addRewardToken","inputs":[{"name":"tokenSymbol","type":"string","internalType":"string"},{"name":"standardRewardRate","type":"uint256","internalType":"uint256"},{"name":"toChainIdStr","type":"string","internalType":"string"},{"name":"rateFactor","type":"uint256","internalType":"uint256"},{"name":"targetStr","type":"string","internalType":"string"}],"outputs":[],"stateMutability":"nonpayable"},{"type":"function","name":"addTxSender","inputs":[{"name":"txSender","type":"address","internalType":"address"}],"outputs":[],"stateMutability":"nonpayable"},{"type":"function","name":"attachLiquidity","inputs":[{"name":"tokenId","type":"uint256","internalType":"uint256"},{"name":"targetStr","type":"string","internalType":"string"},{"name":"tokenSymbol","type":"string","internalType":"string"},{"name":"toChainIdStr","type":"string","internalType":"string"},{"name":"amount","type":"uint256","internalType":"uint256"},{"name":"feeTokenStr","type":"string","internalType":"string"},{"name":"swapFee","type":"uint256","internalType":"uint256"}],"outputs":[{"name":"","type":"uint256","internalType":"uint256"}],"stateMutability":"nonpayable"},{"type":"function","name":"c3CallerProxy","inputs":[],"outputs":[{"name":"","type":"address","internalType":"address"}],"stateMutability":"view"},{"type":"function","name":"c3Fallback","inputs":[{"name":"_dappID","type":"uint256","internalType":"uint256"},{"name":"_data","type":"bytes","internalType":"bytes"},{"name":"_reason","type":"bytes","internalType":"bytes"}],"outputs":[{"name":"","type":"bool","internalType":"bool"}],"stateMutability":"nonpayable"},{"type":"function","name":"cID","inputs":[],"outputs":[{"name":"","type":"uint256","internalType":"uint256"}],"stateMutability":"view"},{"type":"function","name":"changeGov","inputs":[{"name":"newGov","type":"address","internalType":"address"}],"outputs":[],"stateMutability":"nonpayable"},{"type":"function","name":"changeTheiaRewards","inputs":[{"name":"_theiaRewards","type":"address","internalType":"address"}],"outputs":[{"name":"","type":"bool","internalType":"bool"}],"stateMutability":"nonpayable"},{"type":"function","name":"changeVotingEscrow","inputs":[{"name":"_votingEscrow","type":"address","internalType":"address"}],"outputs":[{"name":"","type":"bool","internalType":"bool"}],"stateMutability":"nonpayable"},{"type":"function","name":"completed","inputs":[{"name":"","type":"uint256","internalType":"uint256"}],"outputs":[{"name":"","type":"bool","internalType":"bool"}],"stateMutability":"view"},{"type":"function","name":"dappID","inputs":[],"outputs":[{"name":"","type":"uint256","internalType":"uint256"}],"stateMutability":"view"},{"type":"function","name":"delay","inputs":[],"outputs":[{"name":"","type":"uint256","internalType":"uint256"}],"stateMutability":"view"},{"type":"function","name":"depositStaging","inputs":[{"name":"tokenStr","type":"string","internalType":"string"},{"name":"amount","type":"uint256","internalType":"uint256"}],"outputs":[{"name":"","type":"uint256","internalType":"uint256"}],"stateMutability":"nonpayable"},{"type":"function","name":"depositStagingNative","inputs":[{"name":"tokenStr","type":"string","internalType":"string"}],"outputs":[{"name":"","type":"uint256","internalType":"uint256"}],"stateMutability":"payable"},{"type":"function","name":"detachLiquidity","inputs":[{"name":"tokenId","type":"uint256","internalType":"uint256"},{"name":"tokenSymbol","type":"string","internalType":"string"},{"name":"targetStr","type":"string","internalType":"string"},{"name":"toChainIdStr","type":"string","internalType":"string"},{"name":"amount","type":"uint256","internalType":"uint256"},{"name":"feeToken","type":"address","internalType":"address"},{"name":"swapFee","type":"uint256","internalType":"uint256"}],"outputs":[{"name":"","type":"uint256","internalType":"uint256"}],"stateMutability":"nonpayable"},{"type":"function","name":"disableTxSender","inputs":[{"name":"txSender","type":"address","internalType":"address"}],"outputs":[],"stateMutability":"nonpayable"},{"type":"function","name":"doGov","inputs":[{"name":"_to","type":"string","internalType":"string"},{"name":"_toChainID","type":"string","internalType":"string"},{"name":"_data","type":"bytes","internalType":"bytes"}],"outputs":[],"stateMutability":"nonpayable"},{"type":"function","name":"doGovBroadcast","inputs":[{"name":"_targets","type":"string[]","internalType":"string[]"},{"name":"_toChainIDs","type":"string[]","internalType":"string[]"},{"name":"_data","type":"bytes","internalType":"bytes"}],"outputs":[],"stateMutability":"nonpayable"},{"type":"function","name":"feeManager","inputs":[],"outputs":[{"name":"","type":"address","internalType":"address"}],"stateMutability":"view"},{"type":"function","name":"getCompletedStatus","inputs":[{"name":"nonce","type":"uint256","internalType":"uint256"}],"outputs":[{"name":"","type":"bool","internalType":"bool"}],"stateMutability":"view"},{"type":"function","name":"getLiquidity","inputs":[{"name":"token","type":"address","internalType":"address"}],"outputs":[{"name":"","type":"uint256","internalType":"uint256"},{"name":"","type":"uint256","internalType":"uint256"}],"stateMutability":"view"},{"type":"function","name":"getLiquidityDelay","inputs":[],"outputs":[{"name":"","type":"uint256","internalType":"uint256"}],"stateMutability":"view"},{"type":"function","name":"getLiquidityOfAt","inputs":[{"name":"_tokenId","type":"uint256","internalType":"uint256"},{"name":"_tokenSymbol","type":"string","internalType":"string"},{"name":"_chainIdStr","type":"string","internalType":"string"},{"name":"_timestamp","type":"uint256","internalType":"uint256"}],"outputs":[{"name":"","type":"uint256","internalType":"uint256"}],"stateMutability":"view"},{"type":"function","name":"getLiquidityRemovalTime","inputs":[{"name":"tokenId","type":"uint256","internalType":"uint256"},{"name":"tokenSymbol","type":"string","internalType":"string"},{"name":"chainIdStr","type":"string","internalType":"string"}],"outputs":[{"name":"","type":"uint256","internalType":"uint256"}],"stateMutability":"view"},{"type":"function","name":"getRewardRate","inputs":[{"name":"tokenSymbol","type":"string","internalType":"string"},{"name":"chainIdStr","type":"string","internalType":"string"},{"name":"_timestamp","type":"uint256","internalType":"uint256"}],"outputs":[{"name":"","type":"uint256","internalType":"uint256"}],"stateMutability":"view"},{"type":"function","name":"getRewardRate","inputs":[{"name":"tokenSymbol","type":"string","internalType":"string"},{"name":"chainIdStr","type":"string","internalType":"string"}],"outputs":[{"name":"","type":"uint256","internalType":"uint256"}],"stateMutability":"view"},{"type":"function","name":"getRewardRateEnd","inputs":[{"name":"tokenSymbol","type":"string","internalType":"string"},{"name":"chainIdStr","type":"string","internalType":"string"}],"outputs":[{"name":"","type":"uint256","internalType":"uint256"}],"stateMutability":"view"},{"type":"function","name":"getRewardRateOfAt","inputs":[{"name":"_tokenSymbol","type":"string","internalType":"string"},{"name":"_chainIdStr","type":"string","internalType":"string"},{"name":"_timestamp","type":"uint256","internalType":"uint256"}],"outputs":[{"name":"","type":"uint256","internalType":"uint256"}],"stateMutability":"view"},{"type":"function","name":"getRewardToken","inputs":[{"name":"tokenSymbol","type":"string","internalType":"string"}],"outputs":[{"name":"","type":"tuple","internalType":"struct StagingVault.RewardedToken","components":[{"name":"symbol","type":"string","internalType":"string"},{"name":"standardRewardRate","type":"uint256","internalType":"uint256"},{"name":"tokensStr","type":"string[]","internalType":"string[]"},{"name":"toChainIdsStr","type":"string[]","internalType":"string[]"},{"name":"rateFactors","type":"uint256[]","internalType":"uint256[]"}]}],"stateMutability":"view"},{"type":"function","name":"getStakedAllChains","inputs":[{"name":"tokenId","type":"uint256","internalType":"uint256"}],"outputs":[{"name":"","type":"string[]","internalType":"string[]"},{"name":"","type":"uint256[]","internalType":"uint256[]"},{"name":"","type":"bool","internalType":"bool"}],"stateMutability":"view"},{"type":"function","name":"getStakedTokenSymbols","inputs":[],"outputs":[{"name":"","type":"string[]","internalType":"string[]"}],"stateMutability":"view"},{"type":"function","name":"getStandardRewardRate","inputs":[{"name":"tokenSymbol","type":"string","internalType":"string"},{"name":"_timestamp","type":"uint256","internalType":"uint256"}],"outputs":[{"name":"","type":"uint256","internalType":"uint256"}],"stateMutability":"view"},{"type":"function","name":"getStandardRewardRate","inputs":[{"name":"tokenSymbol","type":"string","internalType":"string"}],"outputs":[{"name":"","type":"uint256","internalType":"uint256"}],"stateMutability":"view"},{"type":"function","name":"getTheiaRewards","inputs":[],"outputs":[{"name":"","type":"address","internalType":"address"}],"stateMutability":"view"},{"type":"function","name":"getTokenStakedAllChains","inputs":[{"name":"tokenSymbol","type":"string","internalType":"string"}],"outputs":[{"name":"","type":"uint256","internalType":"uint256"}],"stateMutability":"view"},{"type":"function","name":"getTokenStakedByChain","inputs":[{"name":"tokenSymbol","type":"string","internalType":"string"},{"name":"chainIdStr","type":"string","internalType":"string"}],"outputs":[{"name":"","type":"uint256","internalType":"uint256"}],"stateMutability":"view"},{"type":"function","name":"getTokenStakedByTokenId","inputs":[{"name":"tokenId","type":"uint256","internalType":"uint256"},{"name":"tokenSymbol","type":"string","internalType":"string"}],"outputs":[{"name":"","type":"uint256","internalType":"uint256"}],"stateMutability":"view"},{"type":"function","name":"getTokenStakedByTokenIdAndChain","inputs":[{"name":"tokenId","type":"uint256","internalType":"uint256"},{"name":"tokenSymbol","type":"string","internalType":"string"},{"name":"chainIdStr","type":"string","internalType":"string"}],"outputs":[{"name":"","type":"uint256","internalType":"uint256"}],"stateMutability":"view"},{"type":"function","name":"getVotingEscrow","inputs":[],"outputs":[{"name":"","type":"address","internalType":"address"}],"stateMutability":"view"},{"type":"function","name":"gov","inputs":[],"outputs":[{"name":"","type":"address","internalType":"address"}],"stateMutability":"view"},{"type":"function","name":"isOperator","inputs":[{"name":"","type":"address","internalType":"address"}],"outputs":[{"name":"","type":"bool","internalType":"bool"}],"stateMutability":"view"},{"type":"function","name":"isRewardedToken","inputs":[{"name":"tokenSymbol","type":"string","internalType":"string"}],"outputs":[{"name":"","type":"bool","internalType":"bool"}],"stateMutability":"view"},{"type":"function","name":"isValidSender","inputs":[{"name":"txSender","type":"address","internalType":"address"}],"outputs":[{"name":"","type":"bool","internalType":"bool"}],"stateMutability":"view"},{"type":"function","name":"liquidityAll","inputs":[{"name":"","type":"uint256","internalType":"uint256"},{"name":"","type":"string","internalType":"string"}],"outputs":[{"name":"","type":"uint256","internalType":"uint256"}],"stateMutability":"view"},{"type":"function","name":"liquidityByChain","inputs":[{"name":"","type":"string","internalType":"string"},{"name":"","type":"string","internalType":"string"}],"outputs":[{"name":"","type":"uint256","internalType":"uint256"}],"stateMutability":"view"},{"type":"function","name":"liquidityDelay","inputs":[],"outputs":[{"name":"","type":"uint256","internalType":"uint256"}],"stateMutability":"view"},{"type":"function","name":"liquidityRemovalTime","inputs":[{"name":"","type":"uint256","internalType":"uint256"},{"name":"","type":"string","internalType":"string"},{"name":"","type":"string","internalType":"string"}],"outputs":[{"name":"","type":"uint256","internalType":"uint256"}],"stateMutability":"view"},{"type":"function","name":"liquidityToStaging","inputs":[{"name":"fromTargetStr","type":"string","internalType":"string"},{"name":"tokenStr","type":"string","internalType":"string"},{"name":"lp","type":"string","internalType":"string"},{"name":"tokenId","type":"uint256","internalType":"uint256"},{"name":"amount","type":"uint256","internalType":"uint256"},{"name":"nonce","type":"uint256","internalType":"uint256"},{"name":"feeTokenStr","type":"string","internalType":"string"},{"name":"feePaid","type":"uint256","internalType":"uint256"}],"outputs":[],"stateMutability":"nonpayable"},{"type":"function","name":"liquidityTotalAll","inputs":[{"name":"","type":"string","internalType":"string"}],"outputs":[{"name":"","type":"uint256","internalType":"uint256"}],"stateMutability":"view"},{"type":"function","name":"operators","inputs":[{"name":"","type":"uint256","internalType":"uint256"}],"outputs":[{"name":"","type":"address","internalType":"address"}],"stateMutability":"view"},{"type":"function","name":"pool","inputs":[],"outputs":[{"name":"","type":"address","internalType":"address"}],"stateMutability":"view"},{"type":"function","name":"rateFactorEndTime","inputs":[{"name":"","type":"string","internalType":"string"},{"name":"","type":"string","internalType":"string"}],"outputs":[{"name":"","type":"uint256","internalType":"uint256"}],"stateMutability":"view"},{"type":"function","name":"removeRewardToken","inputs":[{"name":"tokenSymbol","type":"string","internalType":"string"},{"name":"toChainIdsStr","type":"string[]","internalType":"string[]"},{"name":"targetsStr","type":"string[]","internalType":"string[]"}],"outputs":[],"stateMutability":"nonpayable"},{"type":"function","name":"reportLiquidityAttachment","inputs":[{"name":"fromChainId","type":"string","internalType":"string"},{"name":"lp","type":"string","internalType":"string"},{"name":"tokenId","type":"uint256","internalType":"uint256"},{"name":"tokenStr","type":"string","internalType":"string"},{"name":"amount","type":"uint256","internalType":"uint256"},{"name":"nonce","type":"uint256","internalType":"uint256"}],"outputs":[],"stateMutability":"nonpayable"},{"type":"function","name":"reportLiquidityDetachment","inputs":[{"name":"fromChainId","type":"string","internalType":"string"},{"name":"lp","type":"string","internalType":"string"},{"name":"tokenId","type":"uint256","internalType":"uint256"},{"name":"tokenStr","type":"string","internalType":"string"},{"name":"amount","type":"uint256","internalType":"uint256"},{"name":"nonce","type":"uint256","internalType":"uint256"}],"outputs":[],"stateMutability":"nonpayable"},{"type":"function","name":"rewarded","inputs":[{"name":"","type":"string","internalType":"string"}],"outputs":[{"name":"","type":"bool","internalType":"bool"}],"stateMutability":"view"},{"type":"function","name":"rewardedEVM","inputs":[{"name":"","type":"string","internalType":"string"}],"outputs":[{"name":"","type":"bool","internalType":"bool"}],"stateMutability":"view"},{"type":"function","name":"rewardedTokens","inputs":[{"name":"","type":"string","internalType":"string"}],"outputs":[{"name":"symbol","type":"string","internalType":"string"},{"name":"standardRewardRate","type":"uint256","internalType":"uint256"}],"stateMutability":"view"},{"type":"function","name":"setDelay","inputs":[{"name":"_delay","type":"uint256","internalType":"uint256"}],"outputs":[],"stateMutability":"nonpayable"},{"type":"function","name":"setLiquidityDelay","inputs":[{"name":"_delay","type":"uint256","internalType":"uint256"}],"outputs":[{"name":"","type":"bool","internalType":"bool"}],"stateMutability":"nonpayable"},{"type":"function","name":"setRateTimeToken","inputs":[{"name":"tokenSymbol","type":"string","internalType":"string"},{"name":"chainIdStr","type":"string","internalType":"string"},{"name":"validDuration","type":"uint256","internalType":"uint256"}],"outputs":[],"stateMutability":"nonpayable"},{"type":"function","name":"setRewardFactor","inputs":[{"name":"tokenSymbol","type":"string","internalType":"string"},{"name":"chainIdStr","type":"string","internalType":"string"},{"name":"_rateFactor","type":"uint256","internalType":"uint256"}],"outputs":[],"stateMutability":"nonpayable"},{"type":"function","name":"setRewardFlag","inputs":[{"name":"tokenSymbol","type":"string","internalType":"string"},{"name":"tokenStr","type":"string","internalType":"string"},{"name":"rewardFlag","type":"bool","internalType":"bool"}],"outputs":[],"stateMutability":"nonpayable"},{"type":"function","name":"setStandardRewardRate","inputs":[{"name":"tokenSymbol","type":"string","internalType":"string"},{"name":"_standardRewardRate","type":"uint256","internalType":"uint256"}],"outputs":[],"stateMutability":"nonpayable"},{"type":"function","name":"setUp","inputs":[{"name":"_ve","type":"address","internalType":"address"},{"name":"_pool","type":"address","internalType":"address"},{"name":"_theiaRewards","type":"address","internalType":"address"}],"outputs":[{"name":"","type":"bool","internalType":"bool"}],"stateMutability":"nonpayable"},{"type":"function","name":"stagingToLiquidity","inputs":[{"name":"fromTargetStr","type":"string","internalType":"string"},{"name":"tokenStr","type":"string","internalType":"string"},{"name":"lp","type":"string","internalType":"string"},{"name":"tokenId","type":"uint256","internalType":"uint256"},{"name":"amount","type":"uint256","internalType":"uint256"},{"name":"nonce","type":"uint256","internalType":"uint256"},{"name":"feeTokenStr","type":"string","internalType":"string"},{"name":"feePaid","type":"uint256","internalType":"uint256"}],"outputs":[],"stateMutability":"nonpayable"},{"type":"function","name":"stagingTokens","inputs":[{"name":"","type":"string","internalType":"string"},{"name":"","type":"address","internalType":"address"}],"outputs":[{"name":"","type":"uint256","internalType":"uint256"}],"stateMutability":"view"},{"type":"function","name":"stakedTokenSymbols","inputs":[{"name":"","type":"uint256","internalType":"uint256"}],"outputs":[{"name":"","type":"string","internalType":"string"}],"stateMutability":"view"},{"type":"function","name":"strToUint","inputs":[{"name":"_str","type":"string","internalType":"string"}],"outputs":[{"name":"res","type":"uint256","internalType":"uint256"},{"name":"err","type":"bool","internalType":"bool"}],"stateMutability":"pure"},{"type":"function","name":"stringToAddress","inputs":[{"name":"str","type":"string","internalType":"string"}],"outputs":[{"name":"","type":"address","internalType":"address"}],"stateMutability":"pure"},{"type":"function","name":"stringsEqual","inputs":[{"name":"a","type":"string","internalType":"string"},{"name":"b","type":"string","internalType":"string"}],"outputs":[{"name":"","type":"bool","internalType":"bool"}],"stateMutability":"pure"},{"type":"function","name":"theiaRewards","inputs":[],"outputs":[{"name":"","type":"address","internalType":"address"}],"stateMutability":"view"},{"type":"function","name":"tokenRewardRate","inputs":[{"name":"tokenSymbol","type":"string","internalType":"string"},{"name":"chainIdStr","type":"string","internalType":"string"}],"outputs":[{"name":"","type":"uint256","internalType":"uint256"}],"stateMutability":"view"},{"type":"function","name":"tokenSymbolExists","inputs":[{"name":"tokenSymbol","type":"string","internalType":"string"}],"outputs":[{"name":"","type":"bool","internalType":"bool"},{"name":"","type":"bool","internalType":"bool"}],"stateMutability":"view"},{"type":"function","name":"updateChainRewardedToken","inputs":[{"name":"tokenSymbol","type":"string","internalType":"string"},{"name":"standardRewardRate","type":"uint256","internalType":"uint256"},{"name":"chainIdStr","type":"string","internalType":"string"},{"name":"rateFactor","type":"uint256","internalType":"uint256"}],"outputs":[],"stateMutability":"nonpayable"},{"type":"function","name":"ve","inputs":[],"outputs":[{"name":"","type":"address","internalType":"address"}],"stateMutability":"view"},{"type":"function","name":"version","inputs":[],"outputs":[{"name":"","type":"uint256","internalType":"uint256"}],"stateMutability":"pure"},{"type":"function","name":"wNATIVE","inputs":[],"outputs":[{"name":"","type":"address","internalType":"address"}],"stateMutability":"view"},{"type":"function","name":"withdrawStaging","inputs":[{"name":"tokenStr","type":"string","internalType":"string"},{"name":"amount","type":"uint256","internalType":"uint256"},{"name":"to","type":"address","internalType":"address"}],"outputs":[{"name":"","type":"uint256","internalType":"uint256"}],"stateMutability":"nonpayable"},{"type":"function","name":"withdrawStagingNative","inputs":[{"name":"tokenStr","type":"string","internalType":"string"},{"name":"amount","type":"uint256","internalType":"uint256"},{"name":"to","type":"address","internalType":"address"}],"outputs":[{"name":"","type":"uint256","internalType":"uint256"}],"stateMutability":"nonpayable"},{"type":"event","name":"AddLiquidity","inputs":[{"name":"tokenStr","type":"string","indexed":false,"internalType":"string"},{"name":"lp","type":"string","indexed":false,"internalType":"string"},{"name":"tokenId","type":"uint256","indexed":false,"internalType":"uint256"},{"name":"amount","type":"uint256","indexed":false,"internalType":"uint256"},{"name":"nonce","type":"uint256","indexed":false,"internalType":"uint256"},{"name":"sourceTx","type":"string","indexed":false,"internalType":"string"}],"anonymous":false},{"type":"event","name":"LiquidityToStagingFail","inputs":[{"name":"token","type":"address","indexed":false,"internalType":"address"},{"name":"tokenId","type":"uint256","indexed":true,"internalType":"uint256"},{"name":"amount","type":"uint256","indexed":false,"internalType":"uint256"},{"name":"nonce","type":"uint256","indexed":false,"internalType":"uint256"},{"name":"feePaid","type":"uint256","indexed":false,"internalType":"uint256"},{"name":"reason","type":"bytes","indexed":false,"internalType":"bytes"}],"anonymous":false},{"type":"event","name":"LogChangeGov","inputs":[{"name":"oldGov","type":"address","indexed":true,"internalType":"address"},{"name":"newGov","type":"address","indexed":true,"internalType":"address"},{"name":"effectiveTime","type":"uint256","indexed":true,"internalType":"uint256"},{"name":"chainID","type":"uint256","indexed":false,"internalType":"uint256"}],"anonymous":false},{"type":"event","name":"LogFallback","inputs":[{"name":"selector","type":"bytes4","indexed":false,"internalType":"bytes4"},{"name":"data","type":"bytes","indexed":false,"internalType":"bytes"},{"name":"reason","type":"bytes","indexed":false,"internalType":"bytes"}],"anonymous":false},{"type":"event","name":"LogTxSender","inputs":[{"name":"txSender","type":"address","indexed":true,"internalType":"address"},{"name":"vaild","type":"bool","indexed":false,"internalType":"bool"}],"anonymous":false},{"type":"event","name":"RemoveLiquidity","inputs":[{"name":"token","type":"address","indexed":false,"internalType":"address"},{"name":"liquidityProvider","type":"address","indexed":false,"internalType":"address"},{"name":"tokenId","type":"uint256","indexed":false,"internalType":"uint256"},{"name":"amount","type":"uint256","indexed":false,"internalType":"uint256"},{"name":"nonce","type":"uint256","indexed":false,"internalType":"uint256"},{"name":"sourceTx","type":"string","indexed":false,"internalType":"string"}],"anonymous":false},{"type":"event","name":"ReportLiquidityAttachment","inputs":[{"name":"tokenId","type":"uint256","indexed":false,"internalType":"uint256"},{"name":"lp","type":"string","indexed":false,"internalType":"string"},{"name":"fromChainId","type":"string","indexed":false,"internalType":"string"},{"name":"tokenStr","type":"string","indexed":false,"internalType":"string"},{"name":"amount","type":"uint256","indexed":false,"internalType":"uint256"},{"name":"nonce","type":"uint256","indexed":false,"internalType":"uint256"}],"anonymous":false},{"type":"event","name":"ReportLiquidityDetachment","inputs":[{"name":"tokenId","type":"uint256","indexed":false,"internalType":"uint256"},{"name":"lp","type":"string","indexed":false,"internalType":"string"},{"name":"fromChainId","type":"string","indexed":false,"internalType":"string"},{"name":"tokenStr","type":"string","indexed":false,"internalType":"string"},{"name":"amount","type":"uint256","indexed":false,"internalType":"uint256"},{"name":"nonce","type":"uint256","indexed":false,"internalType":"uint256"}],"anonymous":false},{"type":"event","name":"SetRewardFlag","inputs":[{"name":"tokenSymbol","type":"string","indexed":false,"internalType":"string"},{"name":"tokenStr","type":"string","indexed":false,"internalType":"string"},{"name":"flag","type":"bool","indexed":false,"internalType":"bool"}],"anonymous":false},{"type":"event","name":"StagingToLiquidityFail","inputs":[{"name":"liquidityProvider","type":"address","indexed":true,"internalType":"address"},{"name":"token","type":"address","indexed":false,"internalType":"address"},{"name":"tokenId","type":"uint256","indexed":true,"internalType":"uint256"},{"name":"amount","type":"uint256","indexed":false,"internalType":"uint256"},{"name":"nonce","type":"uint256","indexed":false,"internalType":"uint256"},{"name":"feePaid","type":"uint256","indexed":false,"internalType":"uint256"},{"name":"reason","type":"bytes","indexed":false,"internalType":"bytes"}],"anonymous":false},{"type":"error","name":"AddressEmptyCode","inputs":[{"name":"target","type":"address","internalType":"address"}]},{"type":"error","name":"AddressInsufficientBalance","inputs":[{"name":"account","type":"address","internalType":"address"}]},{"type":"error","name":"CheckpointUnorderedInsertion","inputs":[]},{"type":"error","name":"FailedInnerCall","inputs":[]},{"type":"error","name":"SafeCastOverflowedUintDowncast","inputs":[{"name":"bits","type":"uint8","internalType":"uint8"},{"name":"value","type":"uint256","internalType":"uint256"}]},{"type":"error","name":"SafeERC20FailedOperation","inputs":[{"name":"token","type":"address","internalType":"address"}]},{"type":"error","name":"StringsInsufficientHexLength","inputs":[{"name":"value","type":"uint256","internalType":"uint256"},{"name":"length","type":"uint256","internalType":"uint256"}]}],"bytecode":{"object":"0x60a0346200015757601f6200848038819003918201601f19168301916001600160401b038311848410176200015c5780849260e09460405283398101031262000157576200004d8162000172565b6200005b6020830162000172565b91604081015190620000706060820162000172565b906200007f6080820162000172565b906200009c60c06200009460a0840162000172565b920162000172565b9360018060a01b039586809581938260018060a01b03199b168b60005416176000556001556202a3006002551680896003541617600355886004541617600455426005551660005260066020526040600020600160ff1982541617905562093a80600c5567c4efc55d789ef6ff60018060401b031960105416176010556080521683600a541617600a55169060085416176008556040516182f8908162000188823960805181818161121d015281816120a2015261251b0152f35b600080fd5b634e487b7160e01b600052604160045260246000fd5b51906001600160a01b0382168203620001575756fe6080604052600436101561001257600080fd5b60003560e01c80621af83814610503578062d0f151146104fe57806307153dbf146104f957806308b0308a146104c25780630bb3b2391461044a5780630bd47a78146104f45780631075507f1461046857806312d43a51146104ef57806313d19950146104ea578063154efaa4146104e557806315706fdf146104e0578063169ea7d7146104db57806316f0115b146104d65780631713b4ab146104d157806317748799146104cc578063194e5aae146103af5780631d9b0565146104c75780631f850716146104c25780632abfd529146104a95780632b78a828146104bd5780632eb32c55146104b85780633695f24c146104b3578063384217b2146104ae5780633915606f146104a95780633f8c9567146103fa5780634cf46cb4146104225780634e517fbf146104a457806350fff1c61461049f57806354fd4d501461049a57806358f2c057146104955780635a02a06f146104905780635f2af0541461048b5780636812b16c146104865780636a42b8f8146104815780636a7df3201461047c5780636b564f0d146104775780636bf36322146104725780636d70f7ae1461046d5780636e2f9e4314610468578063728d798914610463578063822756281461045e578063842386b21461045957806385199459146104545780638fd903f51461044f57806390c917741461044a578063925a8d4114610445578063973eae8414610440578063983ae3121461040457806399a2f2d71461043b5780639b354828146104365780639b3aaa20146103ff5780639f0c518a14610431578063a5753cce14610427578063a747b93b1461042c578063a8b0a1a714610427578063a92d594114610422578063a962ef1e1461041d578063ac9d2eeb14610418578063b121f51d14610413578063b8dd16211461040e578063b8e9bbe814610409578063c0cca5ef14610404578063c1dfdac7146103ff578063c29c58f6146103fa578063c516ad11146103f5578063c5549545146103f0578063c5ef3ec5146103eb578063c7a8728f146103e6578063c8cc96ed146103e1578063d0fb0203146103dc578063d4147cf9146103d7578063d5f557cb146103d2578063d60ad41b146103cd578063d7fe204e146103c8578063dd64b3e6146103c3578063e0b08179146103be578063e177246e146103b9578063e28d4906146103b4578063e6adfff9146103af578063eebd14af146103aa578063f01f2b8b146103a55763f9e4cbaf146103a057600080fd5b613f5e565b613f1b565b613e60565b611510565b613e06565b613db6565b613d82565b613bfe565b613a7b565b6139d4565b6135fd565b61350f565b6134e8565b61348f565b613346565b613320565b6132cd565b6132af565b611ca5565b612779565b61261b565b6131cf565b612d21565b612bb3565b612b64565b6129dc565b611cc3565b612829565b612843565b612796565b612667565b61264c565b6125f1565b61253f565b610e8d565b6124fb565b6124ad565b6123e6565b6122e7565b612274565b610ee5565b612231565b6121a6565b61207b565b611f99565b611f7b565b611eb8565b611e2d565b611e10565b611de9565b611dcd565b611d78565b611cdb565b61163a565b611c0d565b611842565b611712565b611679565b610e1f565b61155b565b61147d565b61142d565b6113d4565b611205565b6111ed565b611184565b610f7c565b610f0c565b610ebd565b610913565b6108a7565b610870565b7f4e487b7100000000000000000000000000000000000000000000000000000000600052604160045260246000fd5b67ffffffffffffffff811161054b57604052565b610508565b60a0810190811067ffffffffffffffff82111761054b57604052565b6040810190811067ffffffffffffffff82111761054b57604052565b6020810190811067ffffffffffffffff82111761054b57604052565b6080810190811067ffffffffffffffff82111761054b57604052565b90601f7fffffffffffffffffffffffffffffffffffffffffffffffffffffffffffffffe0910116810190811067ffffffffffffffff82111761054b57604052565b6040519061060e8261056c565b565b6040519061060e82610588565b67ffffffffffffffff811161054b57601f017fffffffffffffffffffffffffffffffffffffffffffffffffffffffffffffffe01660200190565b81601f8201121561069e5780359061066e8261061d565b9261067c60405194856105c0565b8284526020838301011161069e57816000926020809301838601378301015290565b600080fd5b602060031982011261069e576004359067ffffffffffffffff821161069e576106ce91600401610657565b90565b60005b8381106106e45750506000910152565b81810151838201526020016106d4565b602061070d9181604051938285809451938492016106d1565b8101601481520301902090565b60206107339181604051938285809451938492016106d1565b8101601581520301902090565b60206107599181604051938285809451938492016106d1565b8101601181520301902090565b602061077f9181604051938285809451938492016106d1565b8101601681520301902090565b60206107a59181604051938285809451938492016106d1565b8101601981520301902090565b60206107cb9181604051938285809451938492016106d1565b8101601281520301902090565b60206107f19181604051938285809451938492016106d1565b8101601d81520301902090565b60206108179181604051938285809451938492016106d1565b8101601781520301902090565b602061083d9181604051938285809451938492016106d1565b8101601b81520301902090565b6020906108649282604051948386809551938492016106d1565b82019081520301902090565b3461069e57602060ff61088a610885366106a3565b6106f4565b54166040519015158152f35b6001600160a01b0381160361069e57565b3461069e57604060031936011261069e5760043567ffffffffffffffff811161069e5761090a6108dd6020923690600401610657565b6108f2602435916108ed83610896565b61071a565b906001600160a01b0316600052602052604060002090565b54604051908152f35b3461069e5760a060031936011261069e5767ffffffffffffffff6004803582811161069e576109459036908301610657565b916024359060443581811161069e576109619036908501610657565b9360643560843592831161069e5761097d869336908701610657565b916001600160a01b0361098e61422e565b1633148015610e00575b6109a190614256565b6007546001600160a01b03166001600160a01b03166001600160a01b03169160409087825180957fb3c731b300000000000000000000000000000000000000000000000000000000825281808760009e8f968301916109ff926144a0565b03915afa938415610d4f578994610ddc575b50610a1e845115156144c5565b610a40610a3b610a37610a3086610766565b5460ff1690565b1590565b61455c565b610a5b610a4f610a4f8661799d565b6001600160a01b031690565b82519485917fd6c79751000000000000000000000000000000000000000000000000000000008352828b60209889935afa918215610d4f57610aae92610aa9918d91610daf575b50156145cd565b617bf3565b9782517f0bd47a78000000000000000000000000000000000000000000000000000000008152838180610ae388868301611173565b0381305afa908115610d4f578b91610d81575b5015610d73575b610b34610b0985610766565b60017fffffffffffffffffffffffffffffffffffffffffffffffffffffffffffffff00825416179055565b876001610b408661078c565b0155610b57896002610b518761078c565b01614875565b610b66876003610b518761078c565b610b7a8282610b748761078c565b016148a7565b610b8388618218565b610b8c85610740565b90610ba5610a4f610a4f6008546001600160a01b031690565b918551888186817f91ddadf400000000000000000000000000000000000000000000000000000000978882525afa958615610d4f57610bfd8f94610c1998610c2695610c1e958e610c2b9993610d54575b5050614d10565b5050610c07614936565b9c610c118d61781a565b9890986149a6565b614a2d565b6103e8900490565b618218565b9086610c3f610c39886107b2565b8b61084a565b91610c58610a4f610a4f6008546001600160a01b031690565b9487518096819382525afa908115610d4f57610c7b938d92610d20575b50614d10565b50504603610c9857505050505050610b09610c95916106f4565b80f35b610c9596610d1b939282610cdf610cd9610cef95519a8781519101207fffffffff000000000000000000000000000000000000000000000000000000001690565b99610537565b5197889485015260248401614aa3565b037fffffffffffffffffffffffffffffffffffffffffffffffffffffffffffffffe081018552846105c0565b614378565b610d41919250883d8a11610d48575b610d3981836105c0565b810190614905565b9038610c75565b503d610d2f565b61402b565b610d6b929350803d10610d4857610d3981836105c0565b90388e610bf6565b610d7c84614821565b610afd565b610da19150843d8611610da8575b610d9981836105c0565b810190614664565b5038610af6565b503d610d8f565b610dcf9150883d8a11610dd5575b610dc781836105c0565b810190614016565b38610aa2565b503d610dbd565b610df99194503d808b833e610df181836105c0565b81019061447a565b9238610a11565b506109a1610e0d33614307565b9050610998565b600091031261069e57565b3461069e57600060031936011261069e5760206001600160a01b0360085416604051908152f35b606060031982011261069e576004359167ffffffffffffffff60243581811161069e5783610e7691600401610657565b9260443591821161069e576106ce91600401610657565b3461069e57602061090a610eb7610ea336610e46565b92916000526018855260406000209061084a565b9061084a565b3461069e576040610ed5610ed0366106a3565b6176b4565b8251911515825215156020820152f35b3461069e57600060031936011261069e5760206001600160a01b0360095416604051908152f35b3461069e57600060031936011261069e576020610f2761422e565b6001600160a01b0360405191168152f35b90604060031983011261069e5767ffffffffffffffff60043581811161069e5783610f6591600401610657565b9260243591821161069e576106ce91600401610657565b3461069e576020610f95610f8f36610f38565b90617b70565b6040519015158152f35b7f4e487b7100000000000000000000000000000000000000000000000000000000600052603260045260246000fd5b8054821015610fe65760005260206000200190600090565b610f9f565b7f4e487b7100000000000000000000000000000000000000000000000000000000600052600060045260246000fd5b90600182811c92168015611063575b602083101461103457565b7f4e487b7100000000000000000000000000000000000000000000000000000000600052602260045260246000fd5b91607f1691611029565b90604051918260008254926110818461101a565b9081845260019485811690816000146110ee57506001146110ab575b505061060e925003836105c0565b9093915060005260209081600020936000915b8183106110d657505061060e9350820101388061109d565b855488840185015294850194879450918301916110be565b905061060e9550602093507fffffffffffffffffffffffffffffffffffffffffffffffffffffffffffffff0091501682840152151560051b820101388061109d565b907fffffffffffffffffffffffffffffffffffffffffffffffffffffffffffffffe0601f60209361116c815180928187528780880191016106d1565b0116010190565b9060206106ce928181520190611130565b3461069e57602060031936011261069e57600435600f5481101561069e576111d56111e991600f6000527f8d1108e10bcb7c27dddfc02ed9d693a074039d026cf4ea4240b40f7d581ac8020161106d565b604051918291602083526020830190611130565b0390f35b3461069e576020610f27611200366106a3565b61799d565b61120e366106a3565b6001600160a01b039061125d827f00000000000000000000000000000000000000000000000000000000000000001691611249831515615695565b611200611258610a30836106f4565b61551e565b90604051927f6f307dc300000000000000000000000000000000000000000000000000000000845260209384816004818588165afa918215610d4f576112af9284926000916113a7575b5016146156e0565b803b1561069e57604051907fd0e30db000000000000000000000000000000000000000000000000000000000825260008260048134855af1908115610d4f5760009385936113489361138e575b506040517fa9059cbb0000000000000000000000000000000000000000000000000000000081526001600160a01b03909116600482015234602482015293849283919082906044820190565b03925af1908115610d4f5761136692600092611371575b5050615751565b604051348152602090f35b6113879250803d10610dd557610dc781836105c0565b388061135f565b8061139b6113a192610537565b80610e14565b386112fc565b6113c79150873d89116113cd575b6113bf81836105c0565b810190615600565b386112a7565b503d6113b5565b3461069e57600060031936011261069e5760206001600160a01b0360075416604051908152f35b604060031982011261069e576004359067ffffffffffffffff821161069e5761142691600401610657565b9060243590565b3461069e57602079ffffffffffffffffffffffffffffffffffffffffffffffffffff61147461146861146e611461366113fb565b9290610740565b91618277565b90616fde565b16604051908152f35b3461069e57608060031936011261069e5767ffffffffffffffff60043581811161069e576114af903690600401610657565b60443591821161069e576114ca6114fa923690600401610657565b6001600160a01b036114da61422e565b16331480156114fc575b6114ed90614256565b6064359160243590615111565b005b506114ed61150933614307565b90506114e4565b3461069e57604060031936011261069e5760243567ffffffffffffffff811161069e5761090a6115466020923690600401610657565b600435600052601a835260406000209061084a565b3461069e576115a3602061156e366106a3565b604051809381927f1713b4ab000000000000000000000000000000000000000000000000000000008352429060048401613d66565b0381305afa8015610d4f576020916000916115c2575b50604051908152f35b6115e29150823d81116115e8575b6115da81836105c0565b810190615615565b386115b9565b503d6115d0565b90606060031983011261069e5767ffffffffffffffff60043581811161069e578361161c91600401610657565b9260243591821161069e5761163391600401610657565b9060443590565b3461069e57602079ffffffffffffffffffffffffffffffffffffffffffffffffffff611474610eb761146e611468611671366115ef565b9490916107b2565b3461069e57600060031936011261069e5760207fffffffff0000000000000000000000000000000000000000000000000000000060105460c01b16604051908152f35b80518083526020600582901b8401810193928101926000908201805b8483106116e85750505050505090565b909192939495848061170283856001950387528a51611130565b98019301930191949392906116d8565b3461069e57600060031936011261069e57600f5461172f816117a9565b9061173d60405192836105c0565b808252602090818301600f6000527f8d1108e10bcb7c27dddfc02ed9d693a074039d026cf4ea4240b40f7d581ac802836000925b84841061178b57604051828152806111e98185018a6116bc565b60019182916117998561106d565b8152019201920191908490611771565b67ffffffffffffffff811161054b5760051b60200190565b9080601f8301121561069e578135906117d9826117a9565b926117e760405194856105c0565b828452602092838086019160051b8301019280841161069e57848301915b8483106118155750505050505090565b823567ffffffffffffffff811161069e57869161183784848094890101610657565b815201920191611805565b3461069e57606060031936011261069e5767ffffffffffffffff60043581811161069e57611874903690600401610657565b60243582811161069e5761188c9036906004016117c1565b9160443590811161069e576118a59036906004016117c1565b33600052600d60205260ff604060002054168015611bf9575b6118c790614e31565b6118db6118d6610a3084610766565b614ea2565b61190f6118e783610766565b7fffffffffffffffffffffffffffffffffffffffffffffffffffffffffffffff008154169055565b6000600161191c8461078c565b0155611944611929610610565b611931614923565b8152600261193e8561078c565b01614f13565b61196461194f610610565b611957614923565b8152600361193e8561078c565b61198461196f610610565b60008152600461197e8561078c565b01614fec565b600461198f83610740565b60206119a9610a4f610a4f6008546001600160a01b031690565b604051938480927f91ddadf40000000000000000000000000000000000000000000000000000000082525afa908115610d4f576119ee92600092611bd8575b50614bc7565b50508251916119fb614936565b9160005b848110611a0857005b611a12818761508c565b5190611a28611a208361781a565b9190916149a6565b6004611a3c611a36876107b2565b8561084a565b6020611a56610a4f610a4f6008546001600160a01b031690565b604051938480927f91ddadf40000000000000000000000000000000000000000000000000000000082525afa908115610d4f57611a9a92600092611bd85750614bc7565b5050611ab4610a4f610a4f6007546001600160a01b031690565b92600060405180957fb3c731b30000000000000000000000000000000000000000000000000000000082528180611aef868c600484016144a0565b03915afa918215610d4f57611b1f94600093611bbb575b504603611b2457506118e7611b1a916106f4565b61504c565b6119ff565b90611b1a91611bab604051611b67611b618b5160208d01207fffffffff000000000000000000000000000000000000000000000000000000001690565b91610537565b611b7f60405194859260208401528a60248401614a79565b037fffffffffffffffffffffffffffffffffffffffffffffffffffffffffffffffe081018452836105c0565b611bb5848761508c565b51614378565b611bd19193503d806000833e610df181836105c0565b9138611b06565b611bf291925060203d602011610d4857610d3981836105c0565b90386119e8565b506118c7611c0633614307565b90506118be565b3461069e5760e060031936011261069e5767ffffffffffffffff60243581811161069e57611c3f903690600401610657565b9060443581811161069e57611c58903690600401610657565b60643591821161069e576111e992611c77611c95933690600401610657565b9060a43591611c8583610896565b60c43593608435926004356167cc565b6040519081529081906020820190565b3461069e57600060031936011261069e576020600c54604051908152f35b3461069e57602061090a611cd6366106a3565b6107d8565b3461069e57602061090a610eb7611cf136610f38565b9190611d0860ff611d0183610766565b54166150a0565b6107fe565b60c060031982011261069e5767ffffffffffffffff9060043582811161069e5781611d3a91600401610657565b9260243583811161069e5782611d5291600401610657565b926044359260643591821161069e57611d6d91600401610657565b906084359060a43590565b3461069e576114fa611db3611d8c36611d0d565b959094939133600052600d60205260ff604060002054168015611db9575b610aa990614e31565b9261717c565b50610aa9611dc633614307565b9050611daa565b3461069e57600060031936011261069e57602060405160018152f35b3461069e57600060031936011261069e5760206001600160a01b0360005416604051908152f35b3461069e57602061090a610eb7611e2636610f38565b91906107fe565b3461069e57602060031936011261069e57600435611e4a81610896565b6001600160a01b039081611e5c61422e565b1633148015611ea4575b611e6f90614256565b167fffffffffffffffffffffffff00000000000000000000000000000000000000006008541617600855602060405160018152f35b50611e6f611eb133614307565b9050611e66565b3461069e57606060031936011261069e57600435611ed581610896565b602435611ee181610896565b604435611eed81610896565b6001600160a01b03809281611f0061422e565b1633148015611f67575b611f1390614256565b817fffffffffffffffffffffffff000000000000000000000000000000000000000095168560085416176008551683600754161760075516906009541617600955604051806111e981906001602083019252565b50611f13611f7433614307565b9050611f0a565b3461069e57600060031936011261069e576020600254604051908152f35b3461069e57608060031936011261069e5767ffffffffffffffff60243581811161069e57611fcb903690600401610657565b9060443590811161069e5761202e6120236111e993610eb761200c79ffffffffffffffffffffffffffffffffffffffffffffffffffff953690600401610657565b91600435600052601360205260406000209061084a565b61146e606435618277565b604051911681529081906020820190565b606060031982011261069e576004359067ffffffffffffffff821161069e5761206a91600401610657565b90602435906044356106ce81610896565b3461069e576120893661203f565b916001600160a01b03600460206120ce610a4f610a4f857f00000000000000000000000000000000000000000000000000000000000000001696611200881515615695565b604051928380927f6f307dc30000000000000000000000000000000000000000000000000000000082525afa918215610d4f5761211692849260009161218e575016146156e0565b803b1561069e57600060405180927f2e1a7d4d00000000000000000000000000000000000000000000000000000000825281838161215c88600483019190602083019252565b03925af18015610d4f576111e993611c9592849261217b575b50615955565b8061139b61218892610537565b38612175565b6113c7915060203d81116113cd576113bf81836105c0565b3461069e57602060031936011261069e576004356121c381610896565b6001600160a01b0390816121d561422e565b163314801561221d575b6121e890614256565b167fffffffffffffffffffffffff00000000000000000000000000000000000000006009541617600955602060405160018152f35b506121e861222a33614307565b90506121df565b3461069e57602060031936011261069e576001600160a01b0360043561225681610896565b16600052600d602052602060ff604060002054166040519015158152f35b3461069e57612282366115ef565b91906001600160a01b0361229461422e565b16331480156122d3575b6122a790614256565b6122b560ff611d0184610766565b4283018093116122ce57610eb76122cb926107fe565b55005b6142a1565b506122a76122e033614307565b905061229e565b3461069e57600060031936011261069e57602060105460e01b7fffffffff0000000000000000000000000000000000000000000000000000000060405191168152f35b91909160608101606082526060518091526080820160808260051b8401019160809160005b82811061239e5750505050602090828103828401528160605191828152019060809260005b82811061238a5750505060409150931515910152565b845184529381019392810192600101612374565b909192936123d6817fffffffffffffffffffffffffffffffffffffffffffffffffffffffffffffff8088600194030185528651611130565b946020908101949301910161234f565b3461069e57602060031936011261069e57600435600f805460009182805b83811061241957604051806111e9878261232a565b828252612447817f8d1108e10bcb7c27dddfc02ed9d693a074039d026cf4ea4240b40f7d581ac8020161106d565b606051821015610fe6578061247c9160808460051b015261246783615079565b50610eb788600052601a602052604060002090565b5461248682615079565b5261249081615079565b516124a4575b61249f9061504c565b612404565b60019450612496565b3461069e576114fa6124be366115ef565b916001600160a01b036124cf61422e565b16331480156124e7575b6124e290614256565b6153ad565b506124e26124f433614307565b90506124d9565b3461069e57600060031936011261069e5760206040516001600160a01b037f0000000000000000000000000000000000000000000000000000000000000000168152f35b3461069e57612593602061255236610f38565b92906125a560405194859384937f3915606f000000000000000000000000000000000000000000000000000000008552606060048601526064850190611130565b90600319848303016024850152611130565b4260448301520381305afa8015610d4f576111e9916000916125d3575b506040519081529081906020820190565b6125eb915060203d81116115e8576115da81836105c0565b386125c2565b3461069e57602061090a610eb761260736610e46565b9291600052601c855260406000209061084a565b3461069e57602060031936011261069e57600435600052601e602052602060ff604060002054166040519015158152f35b3461069e57600060031936011261069e576020604051468152f35b3461069e57600461268261267a3661203f565b929091617bf3565b906126b3816126ab6126938561071a565b336001600160a01b0316600052602052604060002090565b541015615787565b6126be81151561581e565b60206126cf610a4f610a4f8561799d565b604051958680927f6f307dc30000000000000000000000000000000000000000000000000000000082525afa938415610d4f578161274a946001600160a01b036111e9976127269460009161275b575b5016617c95565b61273e612736336108f28561071a565b918254614b85565b90556108f2339161071a565b546040519081529081906020820190565b612773915060203d81116113cd576113bf81836105c0565b3861271f565b3461069e57602061090a610eb761278f36610f38565b9190610824565b3461069e5760e060031936011261069e5767ffffffffffffffff60243581811161069e576127c8903690600401610657565b9060443581811161069e576127e1903690600401610657565b60643582811161069e576127f9903690600401610657565b60a43592831161069e576111e993612818611c95943690600401610657565b9160c4359360843592600435615fcf565b3461069e57602060ff61088a61283e366106a3565b610766565b3461069e5760208060031936011261069e5760043561286181610896565b6040517f6f307dc30000000000000000000000000000000000000000000000000000000081526001600160a01b039083816004818587165afa918215610d4f576128ff9285926000916129bf575b5016926128bd8415156153a6565b6040517f70a082310000000000000000000000000000000000000000000000000000000081526001600160a01b03909116600482015291829081906024820190565b0381855afa908115610d4f5760049284916000936129a0575b50604051938480927f313ce5670000000000000000000000000000000000000000000000000000000082525afa918215610d4f5760ff9360009361296b575b505060408051918252929091166020820152f35b6111e9929350908161299192903d10612999575b61298981836105c0565b810190617732565b919038612957565b503d61297f565b6129b8919350823d84116115e8576115da81836105c0565b9138612918565b6129d69150833d85116113cd576113bf81836105c0565b386128af565b3461069e57602060031936011261069e576004356129f981610896565b6001600160a01b039081612a0b61422e565b1633148015612b50575b612a1e90614256565b81811615612b0c57612a9d90612a69612a3561422e565b6001600160a01b03167fffffffffffffffffffffffff00000000000000000000000000000000000000006003541617600355565b6001600160a01b03167fffffffffffffffffffffffff00000000000000000000000000000000000000006004541617600455565b612ab1612aac600254426142fa565b600555565b6003546001600160a01b03166004546001600160a01b03167f4552e521eca39a029d33503b3e2003db87de01f8396f9e3fdd9dddddb9b838b46005549380604051931693169180612b0746829190602083019252565b0390a4005b606460405162461bcd60e51b815260206004820152600f60248201527f6e6577476f7620697320656d70747900000000000000000000000000000000006044820152fd5b50612a1e612b5d33614307565b9050612a15565b3461069e576020612b7d612b7736610f38565b9061755a565b604051908152f35b9181601f8401121561069e5782359167ffffffffffffffff831161069e576020838186019501011161069e57565b3461069e57606060031936011261069e5767ffffffffffffffff60243581811161069e57612be5903690600401612b85565b60443592831161069e57612bff6000933690600401612b85565b9160206001600160a01b038654166024604051809881937f7ac07dcc0000000000000000000000000000000000000000000000000000000083523360048401525af1938415610d4f57612c61612c69956111e997600091612c7b575b50614037565b600435614082565b60405190151581529081906020820190565b612c93915060203d8111610dd557610dc781836105c0565b38612c5b565b61010060031982011261069e5767ffffffffffffffff9060043582811161069e5781612cc791600401610657565b9260243583811161069e5782612cdf91600401610657565b9260443581811161069e5783612cf791600401610657565b92606435926084359260a4359260c43591821161069e57612d1a91600401610657565b9060e43590565b3461069e57612d2f36612c99565b9290959333600052602096600d885260409060ff8260002054168015613105575b612d5990614e31565b612d628861799d565b97612d75612d6f8961799d565b98617bf3565b83517fa747b93b0000000000000000000000000000000000000000000000000000000081526001600160a01b038a166004820152979092908489602481305afa988915610d4f57612dec99888e612dfe936000936130d5575b50612ddb82841015615bd1565b612de3615af3565b9e91509661799d565b92612df68761781a565b9590956149a6565b612e16610a4f610a4f600a546001600160a01b031690565b8a517ff05527a40000000000000000000000000000000000000000000000000000000081526001600160a01b03861660048201526024810196909652466044870152606486019190915260848501929092529092908160a481865afa918215610d4f578f9193612ed3946000946130b6575b50895180809681947f3f57d85100000000000000000000000000000000000000000000000000000000835246600484019092916001600160a01b036020916040840195845216910152565b03915afa908115610d4f57612ef2928f600093613097575b50506142fa565b1161302d5783517ef714ce000000000000000000000000000000000000000000000000000000008152600481018790523060248201529a9b999a98998c8a8c8160006001600160a01b0382604481010393165af1998a15610d4f577f108476e5e0ceb5495beb4c029fccd1b9fee602cd1607444bddfec31d845b76a29d610cef8a8f6130019861300b9f8d92610d1b97612f9592613010575b506108f28361071a565b612fa08382546142fa565b90558b612fab615c42565b998c612ff0612fea612fbc46617e66565b92519d8a81519101207fffffffff000000000000000000000000000000000000000000000000000000001690565b9c610537565b8d519b8c9889015260248801615a6b565b5196879687615cc7565b0390a1005b61302690883d8a116115e8576115da81836105c0565b5038612f8b565b835162461bcd60e51b815260206004820152602960248201527f54686569612053746167696e675661756c743a20496e73756666696369656e7460448201527f20466565205061696400000000000000000000000000000000000000000000006064820152608490fd5b6130ae929350803d106115e8576115da81836105c0565b90388f612eeb565b6130ce919450833d85116115e8576115da81836105c0565b9238612e88565b6130f6919350893d8b116130fe575b6130ee81836105c0565b810190615bbb565b509138612dce565b503d6130e4565b50612d5961311233614307565b9050612d50565b90602090818352613135815160a08486015260c0850190611130565b9282820151604082015260a060806131936131806040860151977fffffffffffffffffffffffffffffffffffffffffffffffffffffffffffffffe098898783030160608801526116bc565b60608601518886830301848701526116bc565b930151948284030191015281808451928381520193019160005b8281106131bb575050505090565b8351855293810193928101926001016131ad565b3461069e576131dd366106a3565b6040908151916131ec83610550565b61321260609283855283608060209660008882015282868201528280820152015261078c565b91600482519361322185610550565b61322a8161106d565b855260019283820154878701526132436002830161765f565b858701526132536003830161765f565b9086015201938251918282875491828152019660005282600020926000905b82821061329a576111e988888861328b818e03826105c0565b60808301525191829182613119565b84548952978801979383019390830190613272565b3461069e57600060031936011261069e576020600154604051908152f35b3461069e576114fa6132de36611d0d565b9493909392919233600052600d60205260ff60406000205416801561330c575b61330790614e31565b616d18565b5061330761331933614307565b90506132fe565b3461069e576040613338613333366106a3565b61781a565b825191825215156020820152f35b3461069e5761335e613357366113fb565b9190617bf3565b61336d611258610a30836106f4565b61337882151561558f565b613387610a4f610a4f8361799d565b9060405180927f6f307dc300000000000000000000000000000000000000000000000000000000825281600460209586935afa8015610d4f576001600160a01b0391600091613472575b506040517f70a0823100000000000000000000000000000000000000000000000000000000815233600482015291169390928084602481885afa8015610d4f576111e99561343484809361274a9861343d96600092613455575b50501015615624565b30903390617cec565b61273e61344d336108f28561071a565b9182546142fa565b61346b9250803d106115e8576115da81836105c0565b388061342b565b6134899150843d86116113cd576113bf81836105c0565b386133d1565b3461069e57602060031936011261069e576001600160a01b036134b061422e565b16331480156134d4575b6134c390614256565b600435600c55602060405160018152f35b506134c36134e133614307565b90506134ba565b3461069e57600060031936011261069e5760206001600160a01b03600a5416604051908152f35b3461069e57600461356c613572613525366113fb565b6001600160a01b0361353894929461422e565b16331480156135e9575b61354b90614256565b61355960ff611d0186610766565b8060016135658661078c565b0155618218565b91610740565b602061358c610a4f610a4f6008546001600160a01b031690565b604051948580927f91ddadf40000000000000000000000000000000000000000000000000000000082525afa908115610d4f576114fa936000926135d05750614d10565b610d4191925060203d8111610d4857610d3981836105c0565b5061354b6135f633614307565b9050613542565b3461069e5761360b36612c99565b9290969395949533600052600d60205260ff6040600020541680156139c0575b61363490614e31565b61363d8761799d565b936136478761799d565b90604051977f6f307dc30000000000000000000000000000000000000000000000000000000089526020896004816001600160a01b0387165afa988915610d4f5760009961399f575b506020604051809a7f095ea7b30000000000000000000000000000000000000000000000000000000082528160006001600160a01b03826136eb8c8b60048401602090939291936001600160a01b0360408201951681520152565b0393165af1988915610d4f5761372d61374b9861372461125861371d61373596610a309f968c97613980575b50617bf3565b9d8e6106f4565b6108f28c61071a565b54101561551e565b6137ae6020613742615af3565b9991509c61799d565b613763610a4f610a4f600a546001600160a01b031690565b60405180809581947f3f57d85100000000000000000000000000000000000000000000000000000000835246600484019092916001600160a01b036020916040840195845216910152565b03915afa908115610d4f57600091613961575b50116138f6576040517f6e553f650000000000000000000000000000000000000000000000000000000081526004810184905230602482015290602090829060449082906000906001600160a01b03165af18015610d4f577f9c94de4e2a6044294b9be5531323626c90fce701f1b6cb10726e038d105751b99961300b976138cb938b936138d7575b5061385e6138578361781a565b90506149a6565b610d1b8a610cef898961386f6159e6565b938a61387a46617e66565b996138b76138b160405198602081519101207fffffffff000000000000000000000000000000000000000000000000000000001690565b97610537565b6040519a8b97602089015260248801615a6b565b60405196879687615aaa565b6138ef9060203d6020116115e8576115da81836105c0565b503861384a565b60405162461bcd60e51b815260206004820152602960248201527f54686569612053746167696e675661756c743a20496e73756666696369656e7460448201527f20466565205061696400000000000000000000000000000000000000000000006064820152608490fd5b61397a915060203d6020116115e8576115da81836105c0565b386137c1565b6139989060203d602011610dd557610dc781836105c0565b5038613717565b6139b991995060203d6020116113cd576113bf81836105c0565b9738613690565b506136346139cd33614307565b905061362b565b3461069e57606060031936011261069e5767ffffffffffffffff60043581811161069e57613a06903690600401610657565b60243582811161069e57613a1e903690600401610657565b60443592831161069e57613a396114fa933690600401610657565b916001600160a01b03613a4a61422e565b1633148015613a5d575b610d1b90614256565b50610d1b613a6a33614307565b9050613a54565b8015150361069e57565b3461069e57606060031936011261069e5767ffffffffffffffff60043581811161069e57613aad903690600401610657565b9060243590811161069e57613ac6903690600401610657565b9060443590613ad482613a71565b33600052600d60205260ff604060002054168015613bea575b613af690614e31565b60046020613b1b6001600160a01b03613b0e8761799d565b166001600160a01b031690565b604051928380927fd6c797510000000000000000000000000000000000000000000000000000000082525afa8015610d4f577f065f6d53399aa9897d90c199bb139a604bda921365245131d0739913ea051b1694610aa9613b889261300b94600091613bd25750156145cd565b92613bc681613b96866106f4565b9060ff7fffffffffffffffffffffffffffffffffffffffffffffffffffffffffffffff0083541691151516179055565b60405193849384614abf565b610dcf915060203d8111610dd557610dc781836105c0565b50613af6613bf733614307565b9050613aed565b3461069e5760031960608136011261069e5760049067ffffffffffffffff823581811161069e57613c3290369085016117c1565b60243582811161069e57613c4990369086016117c1565b9160443590811161069e57613c619036908601610657565b936001600160a01b039283613c7461422e565b1633148015613d52575b613c8790614256565b8251815103613d345760009586948554169260015492843b15613d3057613cf2978793613d02613d11936040519b8c9a8b998a987fec6a8b7d000000000000000000000000000000000000000000000000000000008a528901526080602489015260848801906116bc565b90848783030160448801526116bc565b91848303016064850152611130565b03925af18015610d4f57613d23575080f35b8061139b610c9592610537565b8680fd5b60448260206040519162461bcd60e51b835282015260006024820152fd5b50613c87613d5f33614307565b9050613c7e565b929190613d7d602091604086526040860190611130565b930152565b3461069e57613d98613d93366106a3565b61078c565b6001613da38261106d565b910154906111e960405192839283613d66565b3461069e57602060031936011261069e576001600160a01b03613dd761422e565b1633148015613df2575b613dea90614256565b600435600255005b50613dea613dff33614307565b9050613de1565b3461069e57602060031936011261069e57600435600e5481101561069e576001600160a01b03602091600e6000527fbb7b4a454dc3493923482f07822329ed19e8244eff582cc204f8554c3620c3fd015416604051908152f35b3461069e57602060031936011261069e57600435613e7d81610896565b6001600160a01b039081613e8f61422e565b1633148015613f07575b613ea290614256565b16806000526006602052604060002060017fffffffffffffffffffffffffffffffffffffffffffffffffffffffffffffff008254161790557fbfb8b3e2f6221ae729e9cacb0d35f5d9be686ba10cb1d4e34b646bbb87f7a269602060405160018152a2005b50613ea2613f1433614307565b9050613e99565b3461069e57602060031936011261069e576001600160a01b03600435613f4081610896565b166000526006602052602060ff604060002054166040519015158152f35b3461069e57602060031936011261069e57600435613f7b81610896565b6001600160a01b039081613f8d61422e565b1633148015614002575b613fa090614256565b1680600052600660205260406000207fffffffffffffffffffffffffffffffffffffffffffffffffffffffffffffff0081541690557fbfb8b3e2f6221ae729e9cacb0d35f5d9be686ba10cb1d4e34b646bbb87f7a269602060405160008152a2005b50613fa061400f33614307565b9050613f97565b9081602091031261069e57516106ce81613a71565b6040513d6000823e3d90fd5b1561403e57565b606460405162461bcd60e51b815260206004820152601860248201527f433343616c6c6572446170703a206f6e6c7943616c6c657200000000000000006044820152fd5b93919093600154036141ea578060041161069e577fffffffff000000000000000000000000000000000000000000000000000000009081853516946004810192601054818160e01b1688146000146141445750506141279495507fdd7d78ca1ea15aecc9359a73a78f91e00ebf49d98786c12a47e589820bd75158936141196001600160a01b039461412d9461413c9401906174fd565b939b9497919a90929b61799d565b9661799d565b986040519788971699876174cb565b0390a3600190565b60c01b1686036141a8577f50b35a2ddb64c2a3c71f272a7e62128be666bb248d869348a2dcf38f593e5c2d949550614193926141a092614185920190617489565b91969398929895909561799d565b94604051968796876174cb565b0390a2600190565b5091600319937fd1b411598268892b6836c5b922cfa272124f6f0bd3a7cf9f9d408f7e50f22301956141e29360405196879601918661743b565b0390a1600190565b606460405162461bcd60e51b815260206004820152600f60248201527f646170704944206469736d6174636800000000000000000000000000000000006044820152fd5b600554421015614247576001600160a01b036003541690565b6001600160a01b036004541690565b1561425d57565b606460405162461bcd60e51b815260206004820152600d60248201527f476f7620464f5242494444454e000000000000000000000000000000000000006044820152fd5b7f4e487b7100000000000000000000000000000000000000000000000000000000600052601160045260246000fd5b90600182018092116122ce57565b60020190816002116122ce57565b60030190816003116122ce57565b919082018092116122ce57565b60206001600160a01b036024816000541693600060405195869485937f7ac07dcc0000000000000000000000000000000000000000000000000000000085521660048401525af1908115610d4f57600091614360575090565b6106ce915060203d8111610dd557610dc781836105c0565b929190926000916001600160a01b038354169060015490823b156144345760206143e796978661440a81946143fa6040519b8c9a8b997f27a63fd8000000000000000000000000000000000000000000000000000000008b5260048b015260a060248b015260a48a0190611130565b60031995868a83030160448b0152611130565b9084888303016064890152611130565b85810392830160848701525201925af18015610d4f576144275750565b8061139b61060e92610537565b8480fd5b81601f8201121561069e57805161444e8161061d565b9261445c60405194856105c0565b8184526020828401011161069e576106ce91602080850191016106d1565b9060208282031261069e57815167ffffffffffffffff811161069e576106ce9201614438565b90916144b76106ce93604084526040840190611130565b916020818403910152611130565b156144cc57565b60a460405162461bcd60e51b815260206004820152604560248201527f54686569612053746167696e675661756c743a20506f6f6c205468656961207460448201527f6f6b656e206973206e6f74206120676f7665726e616e636520617070726f766560648201527f64206f6e650000000000000000000000000000000000000000000000000000006084820152fd5b1561456357565b608460405162461bcd60e51b815260206004820152603760248201527f54686569612053746167696e675661756c743a20546f6b656e20697320616c7260448201527f65616479206c697374656420666f7220726577617264730000000000000000006064820152fd5b156145d457565b60a460405162461bcd60e51b815260206004820152605060248201527f54686569612053746167696e675661756c743a2043616e6e6f7420616464206160448201527f20726577617264656420746f6b656e20776974686f757420616e20756e64657260648201527f6c79696e6720617373657420706f6f6c000000000000000000000000000000006084820152fd5b919082604091031261069e576020825161467d81613a71565b9201516106ce81613a71565b818110614694575050565b60008155600101614689565b9190601f81116146af57505050565b61060e926000526020600020906020601f840160051c830193106146db575b601f0160051c0190614689565b90915081906146ce565b919091825167ffffffffffffffff811161054b5761470d81614707845461101a565b846146a0565b602080601f831160011461476657508192939460009261475b575b50507fffffffffffffffffffffffffffffffffffffffffffffffffffffffffffffffff8260011b9260031b1c1916179055565b015190503880614728565b907fffffffffffffffffffffffffffffffffffffffffffffffffffffffffffffffe083169561479a85600052602060002090565b926000905b8882106147f5575050836001959697106147be575b505050811b019055565b01517fffffffffffffffffffffffffffffffffffffffffffffffffffffffffffffffff60f88460031b161c191690553880806147b4565b8060018596829496860151815501950193019061479f565b919061481c5761060e916146e5565b610feb565b600f54906801000000000000000082101561054b576001820180600f55821015610fe65761060e91600f6000527f8d1108e10bcb7c27dddfc02ed9d693a074039d026cf4ea4240b40f7d581ac802016146e5565b80546801000000000000000081101561054b5761489791600182018155610fce565b91909161481c5761060e916146e5565b908154916801000000000000000083101561054b57826148cf91600161060e95018155610fce565b9091907fffffffffffffffffffffffffffffffffffffffffffffffffffffffffffffffff83549160031b92831b921b1916179055565b9081602091031261069e575165ffffffffffff8116810361069e5790565b6040519061493082610588565b60008252565b604051906060820182811067ffffffffffffffff82111761054b57604052602182527f29000000000000000000000000000000000000000000000000000000000000006040837f736574526577617264466c616728737472696e672c737472696e672c626f6f6c60208201520152565b156149ad57565b608460405162461bcd60e51b815260206004820152602660248201527f54686569612053746167696e675661756c743a736f75726365436861696e206960448201527f6e76616c696400000000000000000000000000000000000000000000000000006064820152fd5b908160011b91808304600214901517156122ce57565b818102929181159184041417156122ce57565b8115614a4a570490565b7f4e487b7100000000000000000000000000000000000000000000000000000000600052601260045260246000fd5b9291613d7d604091614a95600094606088526060880190611130565b908682036020880152611130565b9291613d7d604091614a95600194606088526060880190611130565b91614ae990614adb604093969596606086526060860190611130565b908482036020860152611130565b931515910152565b80546801000000000000000081101561054b57614b1391600182018155610fce565b61481c5781516020929092015160301b7fffffffffffffffffffffffffffffffffffffffffffffffffffff0000000000001665ffffffffffff92909216919091179055565b907fffffffffffffffffffffffffffffffffffffffffffffffffffffffffffffffff82019182116122ce57565b919082039182116122ce57565b906040516040810181811067ffffffffffffffff82111761054b57604052915465ffffffffffff8116835260301c6020830152565b8054908115614ceb57614bf1614bec614bdf84614b58565b8360005260206000200190565b614b92565b90614c02825165ffffffffffff1690565b65ffffffffffff8581169491168410614cc157614c8c94602094614c3a614c2f865165ffffffffffff1690565b65ffffffffffff1690565b03614c925750614c6b91614c50614c5d92614b58565b9060005260206000200190565b65ffffffffffff8154169055565b015179ffffffffffffffffffffffffffffffffffffffffffffffffffff1690565b90600090565b9050614cbc91614cb1614ca3610601565b65ffffffffffff9093168352565b600085830152614af1565b614c6b565b60046040517f2520601d000000000000000000000000000000000000000000000000000000008152fd5b614d08929150614cfc614ca3610601565b60006020830152614af1565b600090600090565b805492939291908215614df457614d2c614bec614bdf85614b58565b90614d3d825165ffffffffffff1690565b65ffffffffffff84811691168110614cc157614db8946020948892614d6b614c2f875165ffffffffffff1690565b03614dbc5750614c6b92614c50614d8192614b58565b9065ffffffffffff7fffffffffffffffffffffffffffffffffffffffffffffffffffff00000000000083549260301b169116179055565b9190565b915050614cbc91614dce614ca3610601565b79ffffffffffffffffffffffffffffffffffffffffffffffffffff881682860152614af1565b614e2b9250614e04614ca3610601565b79ffffffffffffffffffffffffffffffffffffffffffffffffffff85166020830152614af1565b60009190565b15614e3857565b608460405162461bcd60e51b815260206004820152602260248201527f54686569612053746167696e675661756c743a204155544820464f524249444460448201527f454e0000000000000000000000000000000000000000000000000000000000006064820152fd5b15614ea957565b608460405162461bcd60e51b815260206004820152603360248201527f54686569612053746167696e675661756c743a20546f6b656e206973206e6f7460448201527f206c697374656420666f722072657761726473000000000000000000000000006064820152fd5b80546001808355939290808510614f65575b50614f369091600052602060002090565b906000905b848210614f49575050509050565b84602082614f59839451876146e5565b01930191019091614f3b565b600083815285806020832093840193015b838110614f8557505050614f25565b614f8f815461101a565b80614f9e575b50018690614f76565b601f9083828211600114614fb9575050508281555b38614f95565b614fda92614fcc85600052602060002090565b920160051c82019101614689565b60008181526020812081835555614fb3565b80549160019283835580841061502e575b50906000526020908160002060005b84811061501a575050505050565b825160ff168282015591830191840161500c565b61504690836000528460206000209182019101614689565b38614ffd565b7fffffffffffffffffffffffffffffffffffffffffffffffffffffffffffffffff81146122ce5760010190565b606051811015610fe65760051b60800190565b8051821015610fe65760209160051b010190565b156150a757565b608460405162461bcd60e51b815260206004820152603460248201527f54686569612053746167696e675661756c743a20546f6b656e20776173206e6f60448201527f74206c697374656420666f7220726577617264730000000000000000000000006064820152fd5b9291839161512d610a4f610a4f6007546001600160a01b031690565b93604090815180967fb3c731b30000000000000000000000000000000000000000000000000000000082526000978891818061516e8a60049e8f84016144a0565b03915afa8015610d4f576151a491889161538c575b50615190815115156144c5565b610aa961519f610a3089610766565b6150a0565b968360016151b18861078c565b01556151bc84618218565b946151c687610740565b926008956151e1610a4f610a4f89546001600160a01b031690565b9486519889917f91ddadf40000000000000000000000000000000000000000000000000000000097888452838860209d8e935afa908115610d4f5761522c938e926153745750614d10565b505060039a8b61523b8b61078c565b01549b8b5b8d81106152ed57508a9b9c5093610eb7615295610c26610c1e878e9f979d9e9c9d610c19610a4f9a8d610b748c6152a99f61529b9d610a4f9f8e613d9393610b5161528a9361078c565b6002610b518461078c565b9c6107b2565b97546001600160a01b031690565b93518094819382525afa928315610d4f576152ca95936152ce575050614d10565b5050565b6152e5929350803d10610d4857610d3981836105c0565b903880610bf6565b6153148661530f6153098f86615303879261078c565b01610fce565b5061106d565b617b70565b615326576153219061504c565b615240565b8b9c9d506152a9959150615295610c26610c1e878e9f979d9e9c9d610c19610a4f9a6148cf888f6153038e610a4f9f61529b9f61536e610eb79f6002615303613d939561078c565b9061480d565b610d419192508c8d3d10610d4857610d3981836105c0565b6153a091503d808a833e610df181836105c0565b38615183565b1561069e57565b6153bc6118d6610a3083610766565b6153ca6127108411156153a6565b600391826153d78361078c565b015493600093845b8681106154515760405162461bcd60e51b815260206004820152602860248201527f54686569612053746167696e675661756c743a20636861696e4964537472206e60448201527f6f7420666f756e640000000000000000000000000000000000000000000000006064820152608490fd5b6154668461530f61530984866153038b61078c565b615478576154739061504c565b6153df565b84959650610eb79150610c26610c1e846154a56154bd97966148cf6154b7966153039b60049c8d9161078c565b60016154b08a61078c565b0154614a2d565b946107b2565b6154d5610a4f610a4f6008546001600160a01b031690565b91604051928380927f91ddadf400000000000000000000000000000000000000000000000000000000825260209586935afa928315610d4f576152ca95936152ce575050614d10565b1561552557565b608460405162461bcd60e51b815260206004820152603260248201527f54686569612053746167696e675661756c743a20546f6b656e20646f6573206e60448201527f6f742072656365697665207265776172647300000000000000000000000000006064820152fd5b1561559657565b608460405162461bcd60e51b815260206004820152603060248201527f54686569612053746167696e675661756c743a2043616e6e6f74206465706f7360448201527f69742061207a65726f20616d6f756e74000000000000000000000000000000006064820152fd5b9081602091031261069e57516106ce81610896565b9081602091031261069e575190565b1561562b57565b608460405162461bcd60e51b815260206004820152603960248201527f54686569612053746167696e675661756c743a205573657220646f6573206e6f60448201527f7420686176652073756666696369656e742062616c616e6365000000000000006064820152fd5b1561569c57565b606460405162461bcd60e51b815260206004820152602060248201527f54686569612053746167696e675661756c743a207a65726f20774e41544956456044820152fd5b156156e757565b608460405162461bcd60e51b815260206004820152602c60248201527f54686569612053746167696e675661756c743a756e6465726c79696e6720697360448201527f206e6f7420774e415449564500000000000000000000000000000000000000006064820152fd5b1561575857565b7f4e487b7100000000000000000000000000000000000000000000000000000000600052600160045260246000fd5b1561578e57565b60a460405162461bcd60e51b815260206004820152604260248201527f54686569612053746167696e675661756c743a20496e73756666696369656e7460448201527f2066756e647320696e2053746167696e675661756c7420746f2077697468647260648201527f61770000000000000000000000000000000000000000000000000000000000006084820152fd5b1561582557565b608460405162461bcd60e51b815260206004820152603160248201527f54686569612053746167696e675661756c743a2043616e6e6f7420776974686460448201527f7261772061207a65726f20616d6f756e740000000000000000000000000000006064820152fd5b6040519061589c8261056c565b6014825260203681840137565b604051906060820182811067ffffffffffffffff82111761054b57604052602a8252604082602036910137565b906158e08261061d565b6158ed60405191826105c0565b8281527fffffffffffffffffffffffffffffffffffffffffffffffffffffffffffffffe061591b829461061d565b0190602036910137565b3d15615950573d906159368261061d565b9161594460405193846105c0565b82523d6000602084013e565b606090565b600080809381938260405161596981610588565b525af1615974615925565b501561597c57565b608460405162461bcd60e51b815260206004820152602660248201527f5472616e7366657248656c7065723a204e41544956455f5452414e534645525f60448201527f4641494c454400000000000000000000000000000000000000000000000000006064820152fd5b604051906159f3826105a4565b604782527f696e7432353629000000000000000000000000000000000000000000000000006060837f7265706f72744c69717569646974794174746163686d656e7428737472696e6760208201527f2c737472696e672c75696e743235362c737472696e672c75696e743235362c7560408201520152565b929093615a8d615aa093614a9560a0979a99989a60c0885260c0880190611130565b9160408501528382036060850152611130565b9460808201520152565b929491615ad690615ac86106ce98969360c0875260c0870190611130565b908582036020870152611130565b9460408401526060830152608082015260a0818403910152611130565b6004600091826001600160a01b03815416604051938480927fd0496d6a0000000000000000000000000000000000000000000000000000000082525afa918215610d4f578390848094615b48575b5050929190565b93509350503d8083853e615b5c81856105c0565b8301606084820312615bb75783519360208101519067ffffffffffffffff91828111615bb35783615b8e918301614438565b946040820151928311615bb05750615ba7929101614438565b91923880615b41565b80fd5b8580fd5b8280fd5b919082604091031261069e576020825192015190565b15615bd857565b608460405162461bcd60e51b815260206004820152603660248201527f54686569612053746167696e675661756c743a20496e73756666696369656e7460448201527f206c697175696469747920746f207769746864726177000000000000000000006064820152fd5b60405190615c4f826105a4565b604782527f696e7432353629000000000000000000000000000000000000000000000000006060837f7265706f72744c69717569646974794465746163686d656e7428737472696e6760208201527f2c737472696e672c75696e743235362c737472696e672c75696e743235362c7560408201520152565b9260c094916106ce9796936001600160a01b0380921686521660208501526040840152606083015260808201528160a08201520190611130565b15615d0857565b608460405162461bcd60e51b815260206004820152602d60248201527f54686569612053746167696e675661756c743a204e6f74206f776e6572206f6660448201527f20746869732076655448454941000000000000000000000000000000000000006064820152fd5b15615d7957565b60a460405162461bcd60e51b815260206004820152604a60248201527f54686569612053746167696e675661756c743a204c697175696469747920746f60448201527f6b656e206164647265737320646f6573206e6f74206578697374206f6e20746160648201527f7267657420636861696e000000000000000000000000000000000000000000006084820152fd5b15615e1057565b608460405162461bcd60e51b815260206004820152602660248201527f54686569612053746167696e675661756c743a20666565546f6b656e206e6f7460448201527f20657869737400000000000000000000000000000000000000000000000000006064820152fd5b15615e8157565b608460405162461bcd60e51b815260206004820152602b60248201527f54686569612053746167696e675661756c743a64657374696e6174696f6e436860448201527f61696e20696e76616c69640000000000000000000000000000000000000000006064820152fd5b60405190615ef8826105a4565b604f82527f737472696e672c75696e743235362900000000000000000000000000000000006060837f73746167696e67546f4c697175696469747928737472696e672c737472696e6760208201527f2c737472696e672c75696e743235362c75696e743235362c75696e743235362c60408201520152565b98979692615fb290615fa460e09894615f96613d7d99958e610100908181520190611130565b8d810360208f015290611130565b908b820360408d0152611130565b9360608a0152608089015260a088015286820360c0880152611130565b919495939290615fed610a4f610a4f6008546001600160a01b031690565b6040517f6352211e000000000000000000000000000000000000000000000000000000008152600481018590526020918290829060249082905afa8015610d4f576160a0986160528692600094859161626c575b506001600160a01b03163314615d01565b61606a610a4f610a4f6007546001600160a01b031690565b90604051809b819482937fb3c731b3000000000000000000000000000000000000000000000000000000008452600484016144a0565b03915afa968715610d4f57600097616251575b506160c087511515615d72565b61612b6160cc8961799d565b98828a6160e7610a4f610a4f600a546001600160a01b031690565b60405180809681947fa36d4505000000000000000000000000000000000000000000000000000000008352600483019190916001600160a01b036020820193169052565b03915afa918215610d4f5761618f9261614e91600091616234575b501515615e09565b61616161615c600b5461504c565b600b55565b600b54998a9861617e6118e78b600052601e602052604060002090565b6161878761781a565b949094615e7a565b61619830617fd4565b9346036161b957505050505050506106ce936161b333617fd4565b90616369565b97610cef9495976161d36106ce9c9b93610d1b999b616572565b946161dc615eeb565b9b6161e633617fd4565b9161622261621c6040519f8c81519101207fffffffff000000000000000000000000000000000000000000000000000000001690565b9e610537565b6040519d8e9a8b015260248a01615f70565b61624b9150853d87116115e8576115da81836105c0565b38616146565b61626591973d8091833e610df181836105c0565b95386160b3565b6162839150863d88116113cd576113bf81836105c0565b38616041565b1561629057565b60a460405162461bcd60e51b815260206004820152605160248201527f54686569612053746167696e675661756c743a204c697175696469747920707260448201527f6f76696465722068617320696e73756666696369656e742066756e647320696e60648201527f207468652073746167696e675661756c740000000000000000000000000000006084820152fd5b9293906020959261633c6163499260c0875260c0870190611130565b9085820388870152611130565b9360408401526060830152608082015260a0818303910152600081520190565b93929190926163778461799d565b926163818661799d565b926001600160a01b039384811697604051957f6f307dc3000000000000000000000000000000000000000000000000000000008752868a81600460209a8b935afa8015610d4f576164279489938893600093616550575b506000906040518098819682957f095ea7b300000000000000000000000000000000000000000000000000000000845260048401602090939291936001600160a01b0360408201951681520152565b0393165af1908115610d4f57616477926164459261653a5750617bf3565b95616455611258610a30896106f4565b61646e84616466836108f28b61071a565b541015616289565b6108f28761071a565b616482838254614b85565b90556040517f6e553f6500000000000000000000000000000000000000000000000000000000815260048101839052306024820152968490889060449082906000905af1938415610d4f577f9c94de4e2a6044294b9be5531323626c90fce701f1b6cb10726e038d105751b9976165179561651c575b505061650b838387848a61330746617e66565b60405195869586616320565b0390a1565b8161653292903d106115e8576115da81836105c0565b5038806164f8565b61399890883d8a11610dd557610dc781836105c0565b600091935061656b90863d88116113cd576113bf81836105c0565b92906163d8565b6040517f23b872dd000000000000000000000000000000000000000000000000000000008152336004820152306024820152604481018290529091602090829060649082906000906001600160a01b03165af1908115610d4f57600091616621575b50156165dd5790565b606460405162461bcd60e51b815260206004820152601d60248201527f466565436f6e6669673a20466565207061796d656e74206661696c65640000006044820152fd5b616639915060203d8111610dd557610dc781836105c0565b386165d4565b1561664657565b608460405162461bcd60e51b815260206004820152602f60248201527f54686569612053746167696e675661756c743a2043616e6e6f742072656d6f7660448201527f65206c69717569646974792079657400000000000000000000000000000000006064820152fd5b156166b757565b60a460405162461bcd60e51b815260206004820152605c60248201527f54686569612053746167696e675661756c743a2074686520616d6f756e74206560448201527f78636565647320746865206c6971756964697479206f66207468697320746f6b60648201527f656e206f6e207468697320636861696e20666f7220546f6b656e4964000000006084820152fd5b60405190616754826105a4565b605682527f696e743235362c737472696e672c75696e7432353629000000000000000000006060837f6c6971756964697479546f53746167696e6728737472696e672c737472696e6760208201527f2c737472696e672c737472696e672c75696e743235362c75696e743235362c7560408201520152565b919593929094956167eb610a4f610a4f6008546001600160a01b031690565b6040517f6352211e000000000000000000000000000000000000000000000000000000008152600481018590526020918290829060249082905afa8015610d4f5761684891600091616a5657506001600160a01b03163314615d01565b616860610a4f610a4f6007546001600160a01b031690565b96600060405180997fb3c731b3000000000000000000000000000000000000000000000000000000008252818061689b8987600484016144a0565b03915afa978815610d4f57600098616a2d575b508561691261690c61691a936168c68c511515615d72565b6168f86168ef6168e96168e38c6000526018602052604060002090565b8461084a565b8a61084a565b5442101561663f565b610eb789600052601c602052604060002090565b8661084a565b5410156166b0565b61697b8189616937610a4f610a4f600a546001600160a01b031690565b60405180809581947fa36d4505000000000000000000000000000000000000000000000000000000008352600483019190916001600160a01b036020820193169052565b03915afa8015610d4f5761699891600091616a1657501515615e09565b6169c96169a489617fd4565b6169b261615c600b5461504c565b600b54998a986169c18761781a565b9490946149a6565b6169d230617fd4565b9346036169f357505050505050506106ce936169ed33617fd4565b90616a6d565b97610cef949597616a0d6106ce9c9b93610d1b999b616572565b946161dc616747565b61624b9150833d85116115e8576115da81836105c0565b61691261690c616a4c899361691a959c3d8091833e610df181836105c0565b9a935050506168ae565b6162839150833d85116113cd576113bf81836105c0565b919093616a798561799d565b93616a8c616a868561799d565b94617bf3565b604080517fa747b93b0000000000000000000000000000000000000000000000000000000081526001600160a01b03871660048201529194918181602481305afa908115610d4f57616aea918591600091616bf2575b501015615bd1565b80517ef714ce000000000000000000000000000000000000000000000000000000008152600481018490523060248201529760208960448160006001600160a01b038c165af1908115610d4f5784616517978588937f108476e5e0ceb5495beb4c029fccd1b9fee602cd1607444bddfec31d845b76a29d616b9396616bd4575b50616b788d6108f28561071a565b616b838582546142fa565b9055616b8e46617e66565b61717c565b519586958693919060e09593916001600160a01b03809216865216602085015260408401526060830152608082015260c060a0820152600060c08201520190565b616beb9060203d81116115e8576115da81836105c0565b5038616b6a565b616c099150843d86116130fe576130ee81836105c0565b5038616ae2565b15616c1757565b60a460405162461bcd60e51b815260206004820152604c60248201527f54686569612053746167696e675661756c743a20746f6b656e53796d626f6c2060448201527f6e6f7420666f756e6420696e205f7265706f72744c697175696469747941747460648201527f6163686d656e744c6f63616c00000000000000000000000000000000000000006084820152fd5b91909179ffffffffffffffffffffffffffffffffffffffffffffffffffff808094169116019182116122ce57565b92616d0a90616cfc615aa09460a097949a99989a875260c0602088015260c0870190611130565b908582036040870152611130565b908382036060850152611130565b9490939192616d2690617bf3565b91616d3f610a4f610a4f6007546001600160a01b031690565b92600060405180957fe94aa4910000000000000000000000000000000000000000000000000000000082528180616d7a8c87600484016144a0565b03915afa938415610d4f57600094616fc3575b50616d9a84511515616c10565b616db1611a3686600052601a602052604060002090565b616dbc8382546142fa565b9055616dd0616dca85610824565b8861084a565b616ddb8382546142fa565b9055616df7616dca61690c87600052601c602052604060002090565b616e028382546142fa565b9055616e0d846107d8565b616e188382546142fa565b9055616e34616dca61690c876000526013602052604060002090565b96616e4d610a4f610a4f6008546001600160a01b031690565b94604051987f91ddadf400000000000000000000000000000000000000000000000000000000998a815260209182826004818c5afa908115610d4f57616e9b92600092616fa4575b50616fde565b9981616eb761690c61690c8c6000526013602052604060002090565b916004604051809b819382525afa8015610d4f577f5395dc209a531626a3ed7b9c1456f228f8cd4a93fb231f28bc3734e3a0bf12bf9b61651799616f2c94600093616f7f575b5050616f269079ffffffffffffffffffffffffffffffffffffffffffffffffffff891690616ca7565b91614d10565b5050616f5b616f55616f40600c54426142fa565b92610eb78a6000526018602052604060002090565b8361084a565b55616f73610b0985600052601e602052604060002090565b60405196879687616cd5565b616f269293509081616f9c92903d10610d4857610d3981836105c0565b919038616efd565b616fbc919250843d8611610d4857610d3981836105c0565b9038616e95565b616fd791943d8091833e610df181836105c0565b9238616d8d565b9081546000816005811161706e575b509190915b82811061701e57505080617007575050600090565b6106ce91614c5061701792614b58565b5460301c90565b90918082169080831860011c82018092116122ce578460005265ffffffffffff808360206000200154169085161060001461705c5750915b90616ff2565b929150617068906142d0565b90617056565b9091617079826180c6565b82039182116122ce5784835265ffffffffffff808360208620015416908516106000146170a95750905b38616fed565b91506170b4906142d0565b6170a3565b156170c057565b60a460405162461bcd60e51b815260206004820152604c60248201527f54686569612053746167696e675661756c743a20746f6b656e53796d626f6c2060448201527f6e6f7420666f756e6420696e205f7265706f72744c697175696469747944657460648201527f6163686d656e744c6f63616c00000000000000000000000000000000000000006084820152fd5b79ffffffffffffffffffffffffffffffffffffffffffffffffffff91821690821603919082116122ce57565b919261718b9095919495617bf3565b946171a4610a4f610a4f6007546001600160a01b031690565b95600060405180987fe94aa49100000000000000000000000000000000000000000000000000000000825281806171df8987600484016144a0565b03915afa968715610d4f576000976173e1575b506171ff875115156170b9565b617216616dca86600052601a602052604060002090565b617221838254614b85565b905561722f611a3688610824565b61723a838254614b85565b905561725c611a3661725687600052601c602052604060002090565b8961084a565b617267838254614b85565b9055617272876107d8565b61727d838254614b85565b9055617299611a36617256876000526013602052604060002090565b936172b2610a4f610a4f6008546001600160a01b031690565b946040517f91ddadf4000000000000000000000000000000000000000000000000000000009081815260209283826004818c5afa908115610d4f5761730761731c92611a369287956000926173c95750616fde565b9c610eb78c6000526013602052604060002090565b916004604051809a819382525afa8015610d4f577f86a32faf36268ab650da7816b1e6ad803c6377f361b48c7b12a661130ef4f7309a6165179861738b946000936173a4575b5050616f269079ffffffffffffffffffffffffffffffffffffffffffffffffffff881690617150565b5050616f73610b0985600052601e602052604060002090565b616f2692935090816173c192903d10610d4857610d3981836105c0565b919038617362565b616fbc919250863d8811610d4857610d3981836105c0565b6173f591973d8091833e610df181836105c0565b95386171f2565b601f82602094937fffffffffffffffffffffffffffffffffffffffffffffffffffffffffffffffe0938186528686013760008582860101520116010190565b93916106ce95937fffffffff0000000000000000000000000000000000000000000000000000000061747b931686526060602087015260608601916173fc565b9260408185039101526173fc565b9060a08282031261069e5781359067ffffffffffffffff821161069e576174b1918301610657565b916020820135916040810135916080606083013592013590565b919260a0936001600160a01b036106ce98969316845260208401526040830152606082015281608082015201916173fc565b91909160c08184031261069e5767ffffffffffffffff813581811161069e5784617528918401610657565b93602083013591821161069e57617540918301610657565b9160408201359160608101359160a0608083013592013590565b6003806175668361078c565b015492600091825b8581106175e05760405162461bcd60e51b815260206004820152603c60248201527f54686569612053746167696e675661756c743a20546f6b656e2072657761726460448201527f7320666f72207468697320636861696e4964206e6f7420666f756e64000000006064820152608490fd5b6175f58361530f61530984866153038b61078c565b617607576176029061504c565b61756e565b92916106ce955061761c9150610eb7856107fe565b544210159050617650576154b061764a610c1e61764060019460046153038861078c565b90549060031b1c90565b9261078c565b5060016154b06103e89261078c565b90815461766b816117a9565b9261767960405194856105c0565b818452600090815260208082208186015b848410617698575050505050565b60018381926176a68561106d565b81520192019301929061768a565b600f9081549160005b8381106176d05750505050600090600090565b81600052617708617702827f8d1108e10bcb7c27dddfc02ed9d693a074039d026cf4ea4240b40f7d581ac8020161106d565b84617b70565b61771a576177159061504c565b6176bd565b505060ff915061772990610766565b54169060019190565b9081602091031261069e575160ff8116810361069e5790565b805115610fe65760200190565b805160011015610fe65760210190565b908151811015610fe6570160200190565b60ff7fffffffffffffffffffffffffffffffffffffffffffffffffffffffffffffffd09116019060ff82116122ce57565b60ff7fffffffffffffffffffffffffffffffffffffffffffffffffffffffffffffffbf9116019060ff82116122ce57565b60ff7fffffffffffffffffffffffffffffffffffffffffffffffffffffffffffffff9f9116019060ff82116122ce57565b604d81116122ce57600a0a90565b906000916000918151156178fe5782935b82518510156178f45761787861787361786d6178478887617768565b517fff000000000000000000000000000000000000000000000000000000000000001690565b60f81c90565b617779565b5060ff60098161789161787361786d6178478b8a617768565b16116178ea576178e4916178d86178de926178b561787361786d6178478c8b617768565b906178d16178cc6178c78c8b51614b85565b614b58565b61780c565b9116614a2d565b906142fa565b9461504c565b9361782b565b5050919250508190565b9350600192509050565b92505090600190565b60041b90610ff060f08316921682036122ce57565b60ff16600a019060ff82116122ce57565b60ff60209116019060ff82116122ce57565b9060ff8091169116019060ff82116122ce57565b90602082519201517fffffffffffffffffffffffffffffffffffffffff00000000000000000000000090818116936014811061798e57505050565b60140360031b82901b16169150565b602a815103617a69576179ae61588f565b906000805b601481106179d357505050610a4f6179cd6106ce92617953565b60601c90565b80617a52617a2a617a0a617a05617a006178476179fa6179f5617a6499614a17565b6142de565b8a617768565b617aad565b617907565b617a24617a006178476179fa617a1f88614a17565b6142ec565b9061793f565b60f81b7fff000000000000000000000000000000000000000000000000000000000000001690565b831a617a5e8287617768565b5361504c565b6179b3565b606460405162461bcd60e51b815260206004820152601660248201527f496e76616c69642061646472657373206c656e677468000000000000000000006044820152fd5b60f81c603081101580617b65575b15617ac9576106ce90617779565b606181101580617b5a575b15617aea57617ae56106ce9161791c565b6177db565b604181101580617b4f575b617b3e5760405162461bcd60e51b815260206004820152601560248201527f496e76616c6964206865782063686172616374657200000000000000000000006044820152606490fd5b617b4a6106ce9161791c565b6177aa565b506046811115617af5565b506066811115617ad4565b506039811115617abb565b906040519182617b8c6020820192602084526040830190611130565b0392617bbe7fffffffffffffffffffffffffffffffffffffffffffffffffffffffffffffffe0948581018352826105c0565b51902091617bec6040519182617be06020820195602087526040830190611130565b039081018352826105c0565b5190201490565b90617bfe82516158d6565b600092835b8151811015617c8e57806041617c2b617c2561786d617847617c5f9688617768565b60ff1690565b101580617c71575b15617c6457617c53617a2a617c4e61786d6178478588617768565b61792d565b861a617a5e8286617768565b617c03565b617c536178478285617768565b50605a60ff617c8661786d6178478588617768565b161115617c33565b5090925050565b6040517fa9059cbb0000000000000000000000000000000000000000000000000000000060208201526001600160a01b039092166024830152604482019290925261060e91617ce78260648101611b7f565b617d47565b6040517f23b872dd0000000000000000000000000000000000000000000000000000000060208201526001600160a01b039283166024820152929091166044830152606482019290925261060e91617ce78260848101611b7f565b6000806001600160a01b03617d7193169360208151910182865af1617d6a615925565b9083617dd3565b8051908115159182617db8575b5050617d875750565b602490604051907f5274afe70000000000000000000000000000000000000000000000000000000082526004820152fd5b617dcb9250602080918301019101614016565b153880617d7e565b90617e125750805115617de857805190602001fd5b60046040517f1425ea42000000000000000000000000000000000000000000000000000000008152fd5b81511580617e5d575b617e23575090565b6024906001600160a01b03604051917f9996b315000000000000000000000000000000000000000000000000000000008352166004820152fd5b50803b15617e1b565b806000917a184f03e93ff9f4daa797ed6e38ed64bf6a1f01000000000000000080821015617fc6575b506d04ee2d6d415b85acef810000000080831015617fb7575b50662386f26fc1000080831015617fa8575b506305f5e10080831015617f99575b5061271080831015617f8a575b506064821015617f7a575b600a80921015617f70575b600190816021617efd8287016158d6565b95860101905b617f0f575b5050505090565b7fffffffffffffffffffffffffffffffffffffffffffffffffffffffffffffffff019083907f30313233343536373839616263646566000000000000000000000000000000008282061a835304918215617f6b57919082617f03565b617f08565b9160010191617eec565b9190606460029104910191617ee1565b60049193920491019138617ed6565b60089193920491019138617ec9565b60109193920491019138617eba565b60209193920491019138617ea8565b604093508104915038617e8f565b6001600160a01b031680617fe66158a9565b916030617ff28461774b565b536078617ffe84617758565b5360295b6001811161804d5750618013575090565b6040517fe22e27eb000000000000000000000000000000000000000000000000000000008152600481019190915260146024820152604490fd5b90600f8116906010821015610fe6577f3031323334353637383961626364656600000000000000000000000000000000618096921a61808c8487617768565b5360041c9161809b565b618002565b80156122ce577fffffffffffffffffffffffffffffffffffffffffffffffffffffffffffffffff0190565b8015618200578061819961819261818861817e61817461816a61816061815660016106ce9a6000908b60801c806181f4575b508060401c806181e7575b508060201c806181da575b508060101c806181cd575b508060081c806181c0575b508060041c806181b3575b508060021c806181a6575b50821c61819f575b811c1b61814f818b614a40565b0160011c90565b61814f818a614a40565b61814f8189614a40565b61814f8188614a40565b61814f8187614a40565b61814f8186614a40565b61814f8185614a40565b8092614a40565b90618206565b8101618142565b600291509101903861813a565b600491509101903861812f565b6008915091019038618124565b6010915091019038618119565b602091509101903861810e565b6040915091019038618103565b915050608090386180f8565b50600090565b9080821015618213575090565b905090565b79ffffffffffffffffffffffffffffffffffffffffffffffffffff9081811161823f571690565b604490604051907f6dfcc65000000000000000000000000000000000000000000000000000000000825260d060048301526024820152fd5b65ffffffffffff9081811161828a571690565b604490604051907f6dfcc650000000000000000000000000000000000000000000000000000000008252603060048301526024820152fdfea2646970667358221220244dfcb833bb16afcc8b81edeeb7ab4a4ca2ff889ecba359a1015ceecef54e7064736f6c63430008140033","linkReferences":{}},"methodIdentifiers":{"FuncLiquidityToStaging()":"2b78a828","FuncStagingToLiquidity()":"82275628","addRewardToken(string,uint256,string,uint256,string)":"07153dbf","addTxSender(address)":"eebd14af","attachLiquidity(uint256,string,string,string,uint256,string,uint256)":"9f0c518a","c3CallerProxy()":"58f2c057","c3Fallback(uint256,bytes,bytes)":"b121f51d","cID()":"99a2f2d7","changeGov(address)":"a962ef1e","changeTheiaRewards(address)":"6bf36322","changeVotingEscrow(address)":"5f2af054","completed(uint256)":"c0cca5ef","dappID()":"c516ad11","delay()":"6a42b8f8","depositStaging(string,uint256)":"c7a8728f","depositStagingNative(string)":"169ea7d7","detachLiquidity(uint256,string,string,string,uint256,address,uint256)":"384217b2","disableTxSender(address)":"f9e4cbaf","doGov(string,string,bytes)":"d60ad41b","doGovBroadcast(string[],string[],bytes)":"dd64b3e6","feeManager()":"d0fb0203","getCompletedStatus(uint256)":"983ae312","getLiquidity(address)":"a747b93b","getLiquidityDelay()":"3f8c9567","getLiquidityOfAt(uint256,string,string,uint256)":"6a7df320","getLiquidityRemovalTime(uint256,string,string)":"0bb3b239","getRewardRate(string,string)":"925a8d41","getRewardRate(string,string,uint256)":"3915606f","getRewardRateEnd(string,string)":"4e517fbf","getRewardRateOfAt(string,string,uint256)":"2abfd529","getRewardToken(string)":"b8e9bbe8","getStakedAllChains(uint256)":"842386b2","getStakedTokenSymbols()":"2eb32c55","getStandardRewardRate(string)":"1d9b0565","getStandardRewardRate(string,uint256)":"1713b4ab","getTheiaRewards()":"1075507f","getTokenStakedAllChains(string)":"4cf46cb4","getTokenStakedByChain(string,string)":"9b3aaa20","getTokenStakedByTokenId(uint256,string)":"e6adfff9","getTokenStakedByTokenIdAndChain(uint256,string,string)":"973eae84","getVotingEscrow()":"08b0308a","gov()":"12d43a51","isOperator(address)":"6d70f7ae","isRewardedToken(string)":"a5753cce","isValidSender(address)":"f01f2b8b","liquidityAll(uint256,string)":"194e5aae","liquidityByChain(string,string)":"c1dfdac7","liquidityDelay()":"c29c58f6","liquidityRemovalTime(uint256,string,string)":"90c91774","liquidityToStaging(string,string,string,uint256,uint256,uint256,string,uint256)":"b8dd1621","liquidityTotalAll(string)":"a92d5941","operators(uint256)":"e28d4906","pool()":"16f0115b","rateFactorEndTime(string,string)":"5a02a06f","removeRewardToken(string,string[],string[])":"3695f24c","reportLiquidityAttachment(string,string,uint256,string,uint256,uint256)":"c5549545","reportLiquidityDetachment(string,string,uint256,string,uint256,uint256)":"50fff1c6","rewarded(string)":"a8b0a1a7","rewardedEVM(string)":"001af838","rewardedTokens(string)":"e0b08179","setDelay(uint256)":"e177246e","setLiquidityDelay(uint256)":"c8cc96ed","setRateTimeToken(string,string,uint256)":"728d7989","setRewardFactor(string,string,uint256)":"85199459","setRewardFlag(string,string,bool)":"d7fe204e","setStandardRewardRate(string,uint256)":"d4147cf9","setUp(address,address,address)":"6812b16c","stagingToLiquidity(string,string,string,uint256,uint256,uint256,string,uint256)":"d5f557cb","stagingTokens(string,address)":"00d0f151","stakedTokenSymbols(uint256)":"154efaa4","strToUint(string)":"c5ef3ec5","stringToAddress(string)":"15706fdf","stringsEqual(string,string)":"13d19950","theiaRewards()":"6e2f9e43","tokenRewardRate(string,string)":"ac9d2eeb","tokenSymbolExists(string)":"0bd47a78","updateChainRewardedToken(string,uint256,string,uint256)":"17748799","ve()":"1f850716","version()":"54fd4d50","wNATIVE()":"8fd903f5","withdrawStaging(string,uint256,address)":"9b354828","withdrawStagingNative(string,uint256,address)":"6b564f0d"},"id":18}