{"abi":[{"type":"constructor","inputs":[{"name":"_wNATIVE","type":"address","internalType":"address"},{"name":"_uuidKeeper","type":"address","internalType":"address"},{"name":"_theiaConfig","type":"address","internalType":"address"},{"name":"_feeManager","type":"address","internalType":"address"},{"name":"_gov","type":"address","internalType":"address"},{"name":"_c3callerProxy","type":"address","internalType":"address"},{"name":"_txSender","type":"address","internalType":"address"},{"name":"_dappID","type":"uint256","internalType":"uint256"}],"stateMutability":"nonpayable"},{"type":"fallback","stateMutability":"payable"},{"type":"receive","stateMutability":"payable"},{"type":"function","name":"addTxSender","inputs":[{"name":"txSender","type":"address","internalType":"address"}],"outputs":[],"stateMutability":"nonpayable"},{"type":"function","name":"applyMinter","inputs":[{"name":"token","type":"address","internalType":"address"}],"outputs":[{"name":"","type":"bool","internalType":"bool"}],"stateMutability":"nonpayable"},{"type":"function","name":"c3CallerProxy","inputs":[],"outputs":[{"name":"","type":"address","internalType":"address"}],"stateMutability":"view"},{"type":"function","name":"c3Fallback","inputs":[{"name":"_dappID","type":"uint256","internalType":"uint256"},{"name":"_data","type":"bytes","internalType":"bytes"},{"name":"_reason","type":"bytes","internalType":"bytes"}],"outputs":[{"name":"","type":"bool","internalType":"bool"}],"stateMutability":"nonpayable"},{"type":"function","name":"cID","inputs":[],"outputs":[{"name":"","type":"uint256","internalType":"uint256"}],"stateMutability":"view"},{"type":"function","name":"changeFeeManager","inputs":[{"name":"_feeManager","type":"address","internalType":"address"}],"outputs":[{"name":"","type":"bool","internalType":"bool"}],"stateMutability":"nonpayable"},{"type":"function","name":"changeGov","inputs":[{"name":"newGov","type":"address","internalType":"address"}],"outputs":[],"stateMutability":"nonpayable"},{"type":"function","name":"changeTheiaConfig","inputs":[{"name":"_theiaConfig","type":"address","internalType":"address"}],"outputs":[{"name":"","type":"bool","internalType":"bool"}],"stateMutability":"nonpayable"},{"type":"function","name":"changeUUIDKeeper","inputs":[{"name":"_uuidKeeper","type":"address","internalType":"address"}],"outputs":[{"name":"","type":"bool","internalType":"bool"}],"stateMutability":"nonpayable"},{"type":"function","name":"convertDecimals","inputs":[{"name":"amount","type":"uint256","internalType":"uint256"},{"name":"from","type":"uint256","internalType":"uint256"},{"name":"to","type":"uint256","internalType":"uint256"}],"outputs":[{"name":"","type":"uint256","internalType":"uint256"}],"stateMutability":"pure"},{"type":"function","name":"dappID","inputs":[],"outputs":[{"name":"","type":"uint256","internalType":"uint256"}],"stateMutability":"view"},{"type":"function","name":"delay","inputs":[],"outputs":[{"name":"","type":"uint256","internalType":"uint256"}],"stateMutability":"view"},{"type":"function","name":"depositNative","inputs":[{"name":"token","type":"address","internalType":"address"},{"name":"to","type":"address","internalType":"address"}],"outputs":[{"name":"","type":"uint256","internalType":"uint256"}],"stateMutability":"payable"},{"type":"function","name":"disableTxSender","inputs":[{"name":"txSender","type":"address","internalType":"address"}],"outputs":[],"stateMutability":"nonpayable"},{"type":"function","name":"doGov","inputs":[{"name":"_to","type":"string","internalType":"string"},{"name":"_toChainID","type":"string","internalType":"string"},{"name":"_data","type":"bytes","internalType":"bytes"}],"outputs":[],"stateMutability":"nonpayable"},{"type":"function","name":"doGovBroadcast","inputs":[{"name":"_targets","type":"string[]","internalType":"string[]"},{"name":"_toChainIDs","type":"string[]","internalType":"string[]"},{"name":"_data","type":"bytes","internalType":"bytes"}],"outputs":[],"stateMutability":"nonpayable"},{"type":"function","name":"feeManager","inputs":[],"outputs":[{"name":"","type":"address","internalType":"address"}],"stateMutability":"view"},{"type":"function","name":"getLiquidity","inputs":[{"name":"token","type":"address","internalType":"address"}],"outputs":[{"name":"","type":"uint256","internalType":"uint256"},{"name":"","type":"uint256","internalType":"uint256"}],"stateMutability":"view"},{"type":"function","name":"gov","inputs":[],"outputs":[{"name":"","type":"address","internalType":"address"}],"stateMutability":"view"},{"type":"function","name":"isValidSender","inputs":[{"name":"txSender","type":"address","internalType":"address"}],"outputs":[{"name":"","type":"bool","internalType":"bool"}],"stateMutability":"view"},{"type":"function","name":"queryLiquidityFeeRate","inputs":[{"name":"_theiaToken","type":"address","internalType":"address"},{"name":"_amount","type":"uint256","internalType":"uint256"}],"outputs":[{"name":"","type":"uint256","internalType":"uint256"}],"stateMutability":"nonpayable"},{"type":"function","name":"revokeMinter","inputs":[{"name":"token","type":"address","internalType":"address"},{"name":"_auth","type":"address","internalType":"address"}],"outputs":[{"name":"","type":"bool","internalType":"bool"}],"stateMutability":"nonpayable"},{"type":"function","name":"setDelay","inputs":[{"name":"_delay","type":"uint256","internalType":"uint256"}],"outputs":[],"stateMutability":"nonpayable"},{"type":"function","name":"setMinter","inputs":[{"name":"token","type":"address","internalType":"address"},{"name":"_auth","type":"address","internalType":"address"}],"outputs":[{"name":"","type":"bool","internalType":"bool"}],"stateMutability":"nonpayable"},{"type":"function","name":"strToUint","inputs":[{"name":"_str","type":"string","internalType":"string"}],"outputs":[{"name":"res","type":"uint256","internalType":"uint256"},{"name":"err","type":"bool","internalType":"bool"}],"stateMutability":"pure"},{"type":"function","name":"theiaConfig","inputs":[],"outputs":[{"name":"","type":"address","internalType":"address"}],"stateMutability":"view"},{"type":"function","name":"theiaCrossEvm","inputs":[{"name":"tc","type":"tuple","internalType":"struct TheiaStruct.CrossAuto","components":[{"name":"target","type":"address","internalType":"address"},{"name":"receiver","type":"address","internalType":"address"},{"name":"amount","type":"uint256","internalType":"uint256"},{"name":"feeAmount","type":"uint256","internalType":"uint256"},{"name":"toChainID","type":"uint256","internalType":"uint256"},{"name":"tokenID","type":"string","internalType":"string"},{"name":"feeTokenID","type":"string","internalType":"string"}]}],"outputs":[],"stateMutability":"payable"},{"type":"function","name":"theiaCrossNonEvm","inputs":[{"name":"tc","type":"tuple","internalType":"struct TheiaStruct.CrossNonEvm","components":[{"name":"amount","type":"uint256","internalType":"uint256"},{"name":"feeAmount","type":"uint256","internalType":"uint256"},{"name":"toChainID","type":"uint256","internalType":"uint256"},{"name":"target","type":"string","internalType":"string"},{"name":"receiver","type":"string","internalType":"string"},{"name":"tokenID","type":"string","internalType":"string"},{"name":"feeTokenID","type":"string","internalType":"string"},{"name":"callData","type":"bytes","internalType":"bytes"},{"name":"extra","type":"bytes","internalType":"bytes"}]}],"outputs":[],"stateMutability":"payable"},{"type":"function","name":"theiaVaultAuto","inputs":[{"name":"uuid","type":"bytes32","internalType":"bytes32"},{"name":"token","type":"address","internalType":"address"},{"name":"receiver","type":"address","internalType":"address"},{"name":"amount","type":"uint256","internalType":"uint256"},{"name":"tokenDecimals","type":"uint256","internalType":"uint256"},{"name":"feePaid","type":"uint256","internalType":"uint256"},{"name":"feeToken","type":"address","internalType":"address"},{"name":"fromTokenAddr","type":"address","internalType":"address"}],"outputs":[{"name":"","type":"bool","internalType":"bool"}],"stateMutability":"nonpayable"},{"type":"function","name":"uuidKeeper","inputs":[],"outputs":[{"name":"","type":"address","internalType":"address"}],"stateMutability":"view"},{"type":"function","name":"version","inputs":[],"outputs":[{"name":"","type":"uint256","internalType":"uint256"}],"stateMutability":"pure"},{"type":"function","name":"wNATIVE","inputs":[],"outputs":[{"name":"","type":"address","internalType":"address"}],"stateMutability":"view"},{"type":"function","name":"withdrawFee","inputs":[{"name":"tokens","type":"address[]","internalType":"address[]"}],"outputs":[{"name":"","type":"bool","internalType":"bool"}],"stateMutability":"nonpayable"},{"type":"function","name":"withdrawNative","inputs":[{"name":"token","type":"address","internalType":"address"},{"name":"amount","type":"uint256","internalType":"uint256"},{"name":"to","type":"address","internalType":"address"}],"outputs":[{"name":"","type":"uint256","internalType":"uint256"}],"stateMutability":"nonpayable"},{"type":"event","name":"LogChangeFeeManager","inputs":[{"name":"newAddr","type":"address","indexed":true,"internalType":"address"}],"anonymous":false},{"type":"event","name":"LogChangeGov","inputs":[{"name":"oldGov","type":"address","indexed":true,"internalType":"address"},{"name":"newGov","type":"address","indexed":true,"internalType":"address"},{"name":"effectiveTime","type":"uint256","indexed":true,"internalType":"uint256"},{"name":"chainID","type":"uint256","indexed":false,"internalType":"uint256"}],"anonymous":false},{"type":"event","name":"LogChangeTheiaConfig","inputs":[{"name":"newAddr","type":"address","indexed":true,"internalType":"address"}],"anonymous":false},{"type":"event","name":"LogChangeUUIDKeeper","inputs":[{"name":"newAddr","type":"address","indexed":true,"internalType":"address"}],"anonymous":false},{"type":"event","name":"LogTheiaCross","inputs":[{"name":"token","type":"address","indexed":true,"internalType":"address"},{"name":"from","type":"address","indexed":true,"internalType":"address"},{"name":"swapoutID","type":"bytes32","indexed":true,"internalType":"bytes32"},{"name":"amount","type":"uint256","indexed":false,"internalType":"uint256"},{"name":"fromChainID","type":"uint256","indexed":false,"internalType":"uint256"},{"name":"toChainID","type":"uint256","indexed":false,"internalType":"uint256"},{"name":"fee","type":"uint256","indexed":false,"internalType":"uint256"},{"name":"feeToken","type":"address","indexed":false,"internalType":"address"},{"name":"receiver","type":"string","indexed":false,"internalType":"string"}],"anonymous":false},{"type":"event","name":"LogTheiaFallback","inputs":[{"name":"swapID","type":"bytes32","indexed":true,"internalType":"bytes32"},{"name":"token","type":"address","indexed":true,"internalType":"address"},{"name":"receiver","type":"address","indexed":true,"internalType":"address"},{"name":"amount","type":"uint256","indexed":false,"internalType":"uint256"},{"name":"reason","type":"bytes","indexed":false,"internalType":"bytes"}],"anonymous":false},{"type":"event","name":"LogTheiaVault","inputs":[{"name":"token","type":"address","indexed":true,"internalType":"address"},{"name":"to","type":"address","indexed":true,"internalType":"address"},{"name":"swapoutID","type":"bytes32","indexed":true,"internalType":"bytes32"},{"name":"amount","type":"uint256","indexed":false,"internalType":"uint256"},{"name":"fromChainID","type":"uint256","indexed":false,"internalType":"uint256"},{"name":"toChainID","type":"uint256","indexed":false,"internalType":"uint256"},{"name":"sourceTx","type":"string","indexed":false,"internalType":"string"}],"anonymous":false},{"type":"event","name":"LogTxSender","inputs":[{"name":"txSender","type":"address","indexed":true,"internalType":"address"},{"name":"vaild","type":"bool","indexed":false,"internalType":"bool"}],"anonymous":false},{"type":"error","name":"AddressEmptyCode","inputs":[{"name":"target","type":"address","internalType":"address"}]},{"type":"error","name":"AddressInsufficientBalance","inputs":[{"name":"account","type":"address","internalType":"address"}]},{"type":"error","name":"FailedInnerCall","inputs":[]},{"type":"error","name":"SafeERC20FailedOperation","inputs":[{"name":"token","type":"address","internalType":"address"}]},{"type":"error","name":"StringsInsufficientHexLength","inputs":[{"name":"value","type":"uint256","internalType":"uint256"},{"name":"length","type":"uint256","internalType":"uint256"}]}],"bytecode":{"object":"0x60a0346200016857601f6200548d38819003918201601f19168301916001600160401b038311848410176200016d578084926101009460405283398101031262000168576200004e8162000183565b906200005d6020820162000183565b916200006c6040830162000183565b906200007b6060840162000183565b916200008a6080850162000183565b916200009960a0860162000183565b9560e0620000aa60c0880162000183565b9601519160018060a01b03809781809781968260018060a01b03199d168d60005416176000556001556202a30060025516808b60035416176003558a6004541617600455426005551660005260066020526040600020600160ff198254161790556080521685600754161760075516836008541617600855169060095416176009556040516152f490816200019982396080518181816107110152818161099301528181610cc7015281816129f401528181612dc4015261417e0152f35b600080fd5b634e487b7160e01b600052604160045260246000fd5b51906001600160a01b0382168203620001685756fe60806040526004361015610018575b361561001657005b005b60003560e01c806312d43a51146102385780631ccc72f614610233578063278246751461022e5780632d86dc701461022957806354fd4d501461022457806358f2c0571461021f5780636a42b8f81461021a5780636e2fa45914610215578063701bb89114610210578063832e94921461020b57806387bafe5f146102065780638fd903f51461020157806399a2f2d7146101fc5780639f122d6c146101f7578063a747b93b146101f2578063a962ef1e146101ed578063ad35e024146101e8578063b121f51d146101e3578063b9688cf4146101de578063bfc810b6146101d9578063c516ad11146101d4578063c5ef3ec5146101cf578063d0fb0203146101ca578063d3ac3e48146101c5578063d60ad41b146101c0578063d9e35bb2146101bb578063dd64b3e6146101b6578063e177246e146101b1578063eabcf962146101ac578063eebd14af146101a7578063f01f2b8b146101a2578063f58c121f1461019d578063f77c305a146101985763f9e4cbaf0361000e57611b8f565b611a72565b611a4b565b611a08565b61194d565b61189b565b61184b565b6116e0565b6115a6565b611504565b611444565b61141d565b6113d4565b6113b6565b611304565b6112dd565b611209565b610f64565b610ddc565b610da5565b610d06565b610ceb565b610ca7565b610bf8565b610957565b6106fc565b610622565b610604565b6105dd565b6105c1565b610503565b6102e9565b610279565b61024d565b600091031261024857565b600080fd5b34610248576000600319360112610248576020610268611fc6565b6001600160a01b0360405191168152f35b346102485760206003193601126102485767ffffffffffffffff6004358181116102485736602382011215610248578060040135918211610248573660248360051b83010111610248576102e59160246102d39201614591565b60405190151581529081906020820190565b0390f35b3461024857606060031936011261024857602061030d60443560243560043561499a565b604051908152f35b7f4e487b7100000000000000000000000000000000000000000000000000000000600052604160045260246000fd5b67ffffffffffffffff811161035857604052565b610315565b60a0810190811067ffffffffffffffff82111761035857604052565b6020810190811067ffffffffffffffff82111761035857604052565b90601f7fffffffffffffffffffffffffffffffffffffffffffffffffffffffffffffffe0910116810190811067ffffffffffffffff82111761035857604052565b6040519060e0820182811067ffffffffffffffff82111761035857604052565b60405190610120820182811067ffffffffffffffff82111761035857604052565b604051906104248261035d565b565b6040519060c0820182811067ffffffffffffffff82111761035857604052565b604051906080820182811067ffffffffffffffff82111761035857604052565b6001600160a01b0381160361024857565b359061042482610466565b67ffffffffffffffff811161035857601f017fffffffffffffffffffffffffffffffffffffffffffffffffffffffffffffffe01660200190565b81601f82011215610248578035906104d382610482565b926104e16040519485610395565b8284526020838301011161024857816000926020809301838601378301015290565b600319602081360112610248576004359067ffffffffffffffff908183116102485760e0908336030112610248576105396103d6565b9061054683600401610477565b825261055460248401610477565b602083015260448301356040830152606483013560608301526084830135608083015260a48301358181116102485761059390600436918601016104bc565b60a083015260c4830135908111610248576100169260046105b792369201016104bc565b60c08201526125b9565b3461024857600060031936011261024857602060405160018152f35b346102485760006003193601126102485760206001600160a01b0360005416604051908152f35b34610248576000600319360112610248576020600254604051908152f35b3461024857602060031936011261024857602060043561064181610466565b6001600160a01b039081610653611fc6565b16331480156106c0575b61066690611fee565b16807fffffffffffffffffffffffff00000000000000000000000000000000000000006008541617600855604051907f831b0ae347ffda93ca903157bb956fcbc9d24d25679e569caa418f2da7494162600080a260018152f35b506106666106cd33612088565b905061065d565b6003196040910112610248576004356106ec81610466565b906024356106f981610466565b90565b610705366106d4565b6001600160a01b0391827f00000000000000000000000000000000000000000000000000000000000000001661073c811515612d22565b83821690604051947f6f307dc30000000000000000000000000000000000000000000000000000000086526020958681600481875afa9182156108df5761078f92849260009161092a575b501614612d6d565b803b1561024857604051907fd0e30db000000000000000000000000000000000000000000000000000000000825260008260048134855af19081156108df57600094879361082893610911575b506040517fa9059cbb0000000000000000000000000000000000000000000000000000000081526001600160a01b03909116600482015234602482015294859283919082906044820190565b03925af19081156108df5760009361084c61089793879587916108e4575b5061455b565b6040517fbebbf4d00000000000000000000000000000000000000000000000000000000081523460048201526001600160a01b03909116602482015293849283919082906044820190565b03925af180156108df576108b1575b604051348152602090f35b816108d092903d106108d8575b6108c88183610395565b810190612289565b5038806108a6565b503d6108be565b611c5f565b6109049150863d881161090a575b6108fc8183610395565b810190611c47565b38610846565b503d6108f2565b8061091e61092492610344565b8061023d565b386107dc565b61094a9150893d8b11610950575b6109428183610395565b810190612274565b38610787565b503d610938565b34610248576060600319360112610248576004803561097581610466565b602435906044359261098684610466565b6001600160a01b039182807f000000000000000000000000000000000000000000000000000000000000000016916109bf831515612d22565b16926040938451917f6f307dc300000000000000000000000000000000000000000000000000000000835260209283818781865afa9182156108df57610a10928692600091610be157501614612d6d565b84517f70a082310000000000000000000000000000000000000000000000000000000080825230868301908152909391908290829081906020010381885afa9283156108df578691600094610bba575b5087517e39d6ec00000000000000000000000000000000000000000000000000000000815233928101928352602083018a90523060408401529183918391829060009082906060015b03925af180156108df57610b9d575b508551928352308584019081528190849081906020010381875afa9081156108df57610afa938891600093610b7a575b5050610af4919261207b565b1461455b565b803b156102485782517f2e1a7d4d000000000000000000000000000000000000000000000000000000008152918201848152600091839182908490829060200103925af180156108df576102e594610b59928592610b67575b50614d8d565b519081529081906020820190565b8061091e610b7492610344565b38610b53565b610af493509081610b9692903d106108d8576108c88183610395565b9138610ae8565b610bb390823d84116108d8576108c88183610395565b5038610ab8565b8391945091610bd8610aa993833d85116108d8576108c88183610395565b94915091610a60565b61094a9150863d8811610950576109428183610395565b3461024857610c06366106d4565b6001600160a01b03809281610c19611fc6565b1633148015610c93575b610c2c90611fee565b1691823b156102485760246000928360405195869485937fcfbd48850000000000000000000000000000000000000000000000000000000085521660048401525af180156108df57610c84575b602060405160018152f35b610c8d90610344565b38610c79565b50610c2c610ca033612088565b9050610c23565b346102485760006003193601126102485760206040516001600160a01b037f0000000000000000000000000000000000000000000000000000000000000000168152f35b34610248576000600319360112610248576020604051468152f35b3461024857610d14366106d4565b6001600160a01b03809281610d27611fc6565b1633148015610d91575b610d3a90611fee565b1691823b156102485760246000928360405195869485937ffca3b5aa0000000000000000000000000000000000000000000000000000000085521660048401525af180156108df57610c8457602060405160018152f35b50610d3a610d9e33612088565b9050610d31565b3461024857602060031936011261024857610dca600435610dc581610466565b6122ba565b60408051928352602083019190915290f35b3461024857602060031936011261024857600435610df981610466565b6001600160a01b039081610e0b611fc6565b1633148015610f50575b610e1e90611fee565b81811615610f0c57610e9d90610e69610e35611fc6565b6001600160a01b03167fffffffffffffffffffffffff00000000000000000000000000000000000000006003541617600355565b6001600160a01b03167fffffffffffffffffffffffff00000000000000000000000000000000000000006004541617600455565b610eb1610eac6002544261207b565b600555565b6003546001600160a01b03166004546001600160a01b03167f4552e521eca39a029d33503b3e2003db87de01f8396f9e3fdd9dddddb9b838b46005549380604051931693169180610f0746829190602083019252565b0390a4005b606460405162461bcd60e51b815260206004820152600f60248201527f6e6577476f7620697320656d70747900000000000000000000000000000000006044820152fd5b50610e1e610f5d33612088565b9050610e15565b346102485761010060031936011261024857602435610f8281610466565b604435610f8e81610466565b61102361102b60643560843560c435610fa681610466565b60e435610fb281610466565b6110136001600160a01b0380610fc6611fc6565b16331480156111c7575b610fd990611fee565b808a1692610fe8841515613bf3565b610ff5828b16151561283a565b611000871515613c3e565b61100b861515613c89565b161515613cd4565b61101b613e4b565b979150614833565b959095613d1f565b6040519283917f313ce56700000000000000000000000000000000000000000000000000000000835282600460209687935afa9182156108df5761107c9260ff9160009161119a575b501614613d6a565b611086838861245a565b90816110ab575b6102e56102d389896110a58a8a8a8486600435613f36565b916140bc565b92826111236000999794989693956110dd6110d16110d16009546001600160a01b031690565b6001600160a01b031690565b906040519b8c809481937f3582029b000000000000000000000000000000000000000000000000000000008352600483019190916001600160a01b036020820193169052565b03925af180156108df5761116561115d6110a59661116f936102e59c6102d39c60009261117d575b5050611158811515613db5565b612447565b6103e8900490565b60a4351015613e00565b92829597508194965061108d565b6111939250803d106108d8576108c88183610395565b388061114b565b6111ba9150863d88116111c0575b6111b28183610395565b8101906122a6565b38611074565b503d6111a8565b50610fd96111d433612088565b9050610fd0565b9181601f840112156102485782359167ffffffffffffffff8311610248576020838186019501011161024857565b346102485760606003193601126102485767ffffffffffffffff6024358181116102485761123b9036906004016111db565b6044359283116102485761125560009336906004016111db565b9160206001600160a01b038654166024604051809881937f7ac07dcc0000000000000000000000000000000000000000000000000000000083523360048401525af19384156108df576112b76102d3956102e5976000916112bf575b50611c6b565b600435611cb6565b6112d7915060203d811161090a576108fc8183610395565b386112b1565b346102485760006003193601126102485760206001600160a01b0360075416604051908152f35b3461024857602060031936011261024857602060043561132381610466565b6001600160a01b039081611335611fc6565b16331480156113a2575b61134890611fee565b16807fffffffffffffffffffffffff00000000000000000000000000000000000000006009541617600955604051907fc177281a5732fb3825a4607a35bf86af0f20d8834efce7a9eebae05af2cad47b600080a260018152f35b506113486113af33612088565b905061133f565b34610248576000600319360112610248576020600154604051908152f35b346102485760206003193601126102485760043567ffffffffffffffff81116102485761140f61140a60409236906004016104bc565b614833565b825191825215156020820152f35b346102485760006003193601126102485760206001600160a01b0360095416604051908152f35b346102485760406003193601126102485760043561146181610466565b61146d6024358261245a565b9060206001600160a01b036024816009541693600060405195869485937f3582029b0000000000000000000000000000000000000000000000000000000085521660048401525af19081156108df576102e5926114d69261115d926000916114e6575b50612447565b6040519081529081906020820190565b6114fe915060203d81116108d8576108c88183610395565b386114d0565b346102485760606003193601126102485767ffffffffffffffff600435818111610248576115369036906004016104bc565b6024358281116102485761154e9036906004016104bc565b604435928311610248576115696100169336906004016104bc565b916001600160a01b0361157a611fc6565b1633148015611592575b61158d90611fee565b61215f565b5061158d61159f33612088565b9050611584565b34610248576020600319360112610248576004356115c381610466565b6001600160a01b0390816115d5611fc6565b1633148015611648575b6115e890611fee565b16803b1561024857600080916004604051809481937f0d707df80000000000000000000000000000000000000000000000000000000083525af180156108df57611639575b60405160018152602090f35b61164290610344565b3861162d565b506115e861165533612088565b90506115df565b9080601f830112156102485781359067ffffffffffffffff92838311610358578260051b6040519460209461169386840188610395565b865284808701928401019380851161024857858401925b8584106116bb575050505050505090565b83358381116102485787916116d5848480948a01016104bc565b8152019301926116aa565b34610248576003196060813601126102485760049067ffffffffffffffff823581811161024857611714903690850161165c565b6024358281116102485761172b903690860161165c565b916044359081116102485761174390369086016104bc565b936001600160a01b039283611756611fc6565b1633148015611837575b61176990611fee565b82518151036118195760009586948554169260015492843b15611815576117d49787936117e46117f3936040519b8c9a8b998a987fec6a8b7d000000000000000000000000000000000000000000000000000000008a5289015260806024890152608488019061221f565b908487830301604488015261221f565b9184830301606485015261211c565b03925af180156108df57611805575080f35b8061091e61181292610344565b80f35b8680fd5b60448260206040519162461bcd60e51b835282015260006024820152fd5b5061176961184433612088565b9050611760565b34610248576020600319360112610248576001600160a01b0361186c611fc6565b1633148015611887575b61187f90611fee565b600435600255005b5061187f61189433612088565b9050611876565b346102485760206003193601126102485760206004356118ba81610466565b6001600160a01b0390816118cc611fc6565b1633148015611939575b6118df90611fee565b16807fffffffffffffffffffffffff00000000000000000000000000000000000000006007541617600755604051907f4428badd9b5f0abd3a6d25c2dff7de763c1bbd00fa8e62a576e1a49c2edc5e83600080a260018152f35b506118df61194633612088565b90506118d6565b346102485760206003193601126102485760043561196a81610466565b6001600160a01b03908161197c611fc6565b16331480156119f4575b61198f90611fee565b16806000526006602052604060002060017fffffffffffffffffffffffffffffffffffffffffffffffffffffffffffffff008254161790557fbfb8b3e2f6221ae729e9cacb0d35f5d9be686ba10cb1d4e34b646bbb87f7a269602060405160018152a2005b5061198f611a0133612088565b9050611986565b34610248576020600319360112610248576001600160a01b03600435611a2d81610466565b166000526006602052602060ff604060002054166040519015158152f35b346102485760006003193601126102485760206001600160a01b0360085416604051908152f35b6003196020813601126102485760049081359067ffffffffffffffff908183116102485761012090833603011261024857611aab6103f6565b918084013583526024810135602084015260448101356040840152606481013582811161024857611ae1908536918401016104bc565b6060840152608481013582811161024857611b01908536918401016104bc565b608084015260a481013582811161024857611b21908536918401016104bc565b60a084015260c481013582811161024857611b41908536918401016104bc565b60c084015260e481013582811161024857611b61908536918401016104bc565b60e08401526101048101359182116102485761001693611b8492369201016104bc565b6101008201526134eb565b3461024857602060031936011261024857600435611bac81610466565b6001600160a01b039081611bbe611fc6565b1633148015611c33575b611bd190611fee565b1680600052600660205260406000207fffffffffffffffffffffffffffffffffffffffffffffffffffffffffffffff0081541690557fbfb8b3e2f6221ae729e9cacb0d35f5d9be686ba10cb1d4e34b646bbb87f7a269602060405160008152a2005b50611bd1611c4033612088565b9050611bc8565b90816020910312610248575180151581036102485790565b6040513d6000823e3d90fd5b15611c7257565b606460405162461bcd60e51b815260206004820152601860248201527f433343616c6c6572446170703a206f6e6c7943616c6c657200000000000000006044820152fd5b939190929360015403611f82576004928184116102485783611cdb928201910161441d565b92955050506001600160a01b039692949196809116941694611d0b6110d16110d16007546001600160a01b031690565b926040948551947f762fee18000000000000000000000000000000000000000000000000000000008652602095868180611d4c898883019190602083019252565b0381855afa80156108df57611d6991600091611f65575b50614479565b803b15610248576000875180927fae74db05000000000000000000000000000000000000000000000000000000008252818381611dad8b8a83019190602083019252565b03925af180156108df57611f52575b50888651907f313ce5670000000000000000000000000000000000000000000000000000000091828152878186818d5afa9081156108df57849160ff91600091611f35575b501603611ed9575b5050509083878993611e1c8515156144c4565b611e66885195869384937f40c10f190000000000000000000000000000000000000000000000000000000085528401602090939291936001600160a01b0360408201951681520152565b038160008a5af19889156108df57611eb3889688967f3c426d7c620888a5be82bd7284cf01b99a60eae04c1d19cfab16e0de686ba7f2956106f99d611ebb575b5050519283928b8461450f565b0390a46140bc565b81611ed192903d1061090a576108fc8183610395565b503880611ea6565b90919899508693929351918252858285818b5afa9081156108df578a9960ff611f0e938995600091611f18575b50169161499a565b9838939293611e09565b611f2f9150863d88116111c0576111b28183610395565b38611f06565b611f4c91508a3d8c116111c0576111b28183610395565b38611e01565b8061091e611f5f92610344565b38611dbc565b611f7c9150883d8a1161090a576108fc8183610395565b38611d63565b606460405162461bcd60e51b815260206004820152600f60248201527f646170704944206469736d6174636800000000000000000000000000000000006044820152fd5b600554421015611fdf576001600160a01b036003541690565b6001600160a01b036004541690565b15611ff557565b606460405162461bcd60e51b815260206004820152600d60248201527f476f7620464f5242494444454e000000000000000000000000000000000000006044820152fd5b7f4e487b7100000000000000000000000000000000000000000000000000000000600052601160045260246000fd5b906001820180921161207657565b612039565b9190820180921161207657565b60206001600160a01b036024816000541693600060405195869485937f7ac07dcc0000000000000000000000000000000000000000000000000000000085521660048401525af19081156108df576000916120e1575090565b6106f9915060203d811161090a576108fc8183610395565b60005b83811061210c5750506000910152565b81810151838201526020016120fc565b907fffffffffffffffffffffffffffffffffffffffffffffffffffffffffffffffe0601f602093612158815180928187528780880191016120f9565b0116010190565b929190926000916001600160a01b038354169060015490823b1561221b5760206121ce9697866121f181946121e16040519b8c9a8b997f27a63fd8000000000000000000000000000000000000000000000000000000008b5260048b015260a060248b015260a48a019061211c565b60031995868a83030160448b015261211c565b908488830301606489015261211c565b85810392830160848701525201925af180156108df5761220e5750565b8061091e61042492610344565b8480fd5b90815180825260208092019182818360051b85019501936000915b84831061224a5750505050505090565b909192939495848061226483856001950387528a5161211c565b980193019301919493929061223a565b9081602091031261024857516106f981610466565b90816020910312610248575190565b519060ff8216820361024857565b90816020910312610248576106f990612298565b90604051917f6f307dc30000000000000000000000000000000000000000000000000000000083526020926001600160a01b039084816004818587165afa9081156108df576000916123fa575b50169081156123ee576040517f70a082310000000000000000000000000000000000000000000000000000000081526001600160a01b039190911660048201528381602481855afa9081156108df5784906000926123ce575b5060049192604051928380927f313ce5670000000000000000000000000000000000000000000000000000000082525afa9384156108df576000946123aa575b505060ff90921690565b60ff92945090816123c692903d106111c0576111b28183610395565b9290386123a0565b600492506123e890823d84116108d8576108c88183610395565b91612360565b50509050600090600090565b6124119150853d8711610950576109428183610395565b38612307565b908160011b917f7fffffffffffffffffffffffffffffffffffffffffffffffffffffffffffffff81160361207657565b8181029291811591840414171561207657565b612463906122ba565b919060009261247157505090565b6009546040517f924bbade00000000000000000000000000000000000000000000000000000000815260048101929092526024820192909252906020908290604490829086906001600160a01b03165af19182156108df57916124d3575b5090565b6106f9915060203d81116108d8576108c88183610395565b156124f257565b606460405162461bcd60e51b815260206004820152601660248201527f54686569613a6e6f7468696e6720746f2063726f7373000000000000000000006044820152fd5b1561253d57565b606460405162461bcd60e51b815260206004820152601460248201527f54686569613a666565206e6f7420656e6f7567680000000000000000000000006044820152fd5b929360c0946001600160a01b03936106f998979386526020860152604085015260608401521660808201528160a0820152019061211c565b60009060808101906125d1825160a0830151906132e0565b906125e382516001600160a01b031690565b906126316125f882516001600160a01b031690565b61261e602084019461261186516001600160a01b031690565b604086019384519261291b565b84516001600160a01b0316905190612995565b61263c8115156124eb565b60206127216126596110d16110d16007546001600160a01b031690565b86516001600160a01b031686516001600160a01b03166126ab8a519161268f612680610417565b6001600160a01b039095168552565b3384880152604084018890526001600160a01b03166060840152565b6080820152604051998a809481937fcfd1ec830000000000000000000000000000000000000000000000000000000083526004830191909160808060a08301946001600160a01b038082511685528060208301511660208601526040820151604086015260608201511660608501520151910152565b03925af19586156108df5760009661281a575b50845160c0830151612745916132e0565b938451612758906001600160a01b031690565b865161276391612fb3565b92836060820151101561277590612536565b61278386838387878d613865565b90516001600160a01b03166127979061515d565b9087516127a390614fef565b6127ac9261215f565b516001600160a01b0316945193516001600160a01b031692516001600160a01b03166127d79061515d565b60405193849333976001600160a01b031696466127f49587612581565b037f1ad9ac7982ab5544e2bac3ac73dc72e9f821ce62200105a5e7f77b07bc23066991a4565b61283391965060203d81116108d8576108c88183610395565b9438612734565b1561284157565b606460405162461bcd60e51b815260206004820152600e60248201527f54686569613a746f20656d7074790000000000000000000000000000000000006044820152fd5b1561288c57565b606460405162461bcd60e51b815260206004820152601460248201527f54686569613a726563656976657220656d7074790000000000000000000000006044820152fd5b156128d757565b606460405162461bcd60e51b815260206004820152600b60248201527f54686569613a656d7074790000000000000000000000000000000000000000006044820152fd5b9291926001600160a01b038091161561295157610424936129428261294a9416151561283a565b161515612885565b15156128d0565b606460405162461bcd60e51b815260206004820152601060248201527f54686569613a66726f6d20656d707479000000000000000000000000000000006044820152fd5b6040517f6f307dc30000000000000000000000000000000000000000000000000000000081529091906001600160a01b0360208185168184600481845afa9384156108df57600094612aa9575b509282169260008415612a3d575050507f0000000000000000000000000000000000000000000000000000000000000000161480612a33575b15612a2a57506106f990612db8565b6106f991612b98565b5080341015612a1b565b6040517f9dc29fac000000000000000000000000000000000000000000000000000000008152336004820152602481018790529596509194935084925083916044918391905af180156108df57612a9357505090565b816124cf92903d1061090a576108fc8183610395565b612ac1919450823d8411610950576109428183610395565b92386129e2565b15612acf57565b606460405162461bcd60e51b815260206004820152601360248201527f54686569613a6e6f20756e6465726c79696e67000000000000000000000000006044820152fd5b15612b1a57565b606460405162461bcd60e51b815260206004820152600f60248201527f54686569613a6765742077726f6e6700000000000000000000000000000000006044820152fd5b907fffffffffffffffffffffffffffffffffffffffffffffffffffffffffffffffff820191821161207657565b9190820391821161207657565b604051917f6f307dc30000000000000000000000000000000000000000000000000000000083526020926001600160a01b039084816004818588165afa9081156108df57600091612d05575b501690612bf2821515612ac8565b6040517f70a08231000000000000000000000000000000000000000000000000000000008082526001600160a01b0385166004830152938582602481875afa9384156108df578692600095612ce4575b50612c789495612c5485843385614e78565b6040518096819482938352600483019190916001600160a01b036020820193169052565b03915afa9182156108df576106f994600093612cbf575b5050612ca690838310159081612cab575b50612b13565b612b8b565b612cb691508461207b565b82111538612ca0565b612ca69293509081612cdc92903d106108d8576108c88183610395565b919038612c8f565b612c789550612cff90843d86116108d8576108c88183610395565b94612c42565b612d1c9150853d8711610950576109428183610395565b38612be4565b15612d2957565b606460405162461bcd60e51b815260206004820152601260248201527f54686569613a7a65726f20774e415449564500000000000000000000000000006044820152fd5b15612d7457565b606460405162461bcd60e51b815260206004820152601f60248201527f54686569613a756e6465726c79696e67206973206e6f7420774e4154495645006044820152fd5b6001600160a01b0390817f000000000000000000000000000000000000000000000000000000000000000016612def811515612d22565b604051927f6f307dc300000000000000000000000000000000000000000000000000000000845260209384816004818588165afa9182156108df57612e3f928492600091612f9c57501614612d6d565b6040517f70a08231000000000000000000000000000000000000000000000000000000008082526001600160a01b038416600483015290928484602481865afa9384156108df57600094612f7d575b50823b1561024857604051927fd0e30db000000000000000000000000000000000000000000000000000000000845260008460048134855af19283156108df57612f09948794612f6a575b50612ee5348484614e1e565b6040518095819482938352600483019190916001600160a01b036020820193169052565b03915afa9081156108df576106f993600092612f4d575b50508181101580612f35575b612ca690612b13565b50612ca6612f43348461207b565b8211159050612f2c565b612f639250803d106108d8576108c88183610395565b3880612f20565b8061091e612f7792610344565b38612ed9565b612f95919450853d87116108d8576108c88183610395565b9238612e8e565b61094a9150873d8911610950576109428183610395565b8091612fcd6110d16110d16009546001600160a01b031690565b6040517f60251ec700000000000000000000000000000000000000000000000000000000815246600482015260248101929092526001600160a01b039290921660448201526020918290829060649082906000905af19081156108df576000916130bf575b508061304057505050600090565b604051907f313ce56700000000000000000000000000000000000000000000000000000000825282826004816001600160a01b0388165afa9283156108df576106f99361309b9360ff926000926130a2575b50501690614920565b809261434e565b6130b89250803d106111c0576111b28183610395565b3880613092565b6130d69150823d84116108d8576108c88183610395565b38613032565b604051906080820182811067ffffffffffffffff8211176103585760405260006060838281528260208201528260408201520152565b81601f8201121561024857805161312881610482565b926131366040519485610395565b81845260208284010111610248576106f991602080850191016120f9565b91909160c08184031261024857613169610426565b928151845261317a60208301612298565b6020850152604082015167ffffffffffffffff9081811161024857826131a1918501613112565b604086015260608301516060860152608083015181811161024857826131c8918501613112565b608086015260a0830151908111610248576131e39201613112565b60a0830152565b9190916040818403126102485780519267ffffffffffffffff938481116102485781613217918401613154565b936020830151908111610248576106f99201613154565b92919061324560209160408652604086019061211c565b930152565b1561325157565b606460405162461bcd60e51b815260206004820152601760248201527f54686569613a746f6b656e206e6f7420737570706f72740000000000000000006044820152fd5b1561329c57565b606460405162461bcd60e51b815260206004820152601460248201527f54686569613a726563546f6b656e20656d7074790000000000000000000000006044820152fd5b60009061333e926132ef6130dc565b506133086110d16110d16008546001600160a01b031690565b906040518095819482937facf037f80000000000000000000000000000000000000000000000000000000084526004840161322e565b03915afa80156108df57600091829161342b575b506106f9906133fd61338a6040602086019560ff613371885160ff1690565b16151580613407575b6133839061324a565b0151614a27565b936133ed6133c860206133bf6133a36040880151614a27565b946133b86001600160a01b0387161515613295565b5160ff1690565b95015160ff1690565b936133e36133d4610446565b6001600160a01b039098168852565b60ff166020870152565b6001600160a01b03166040850152565b60ff166060830152565b5061338361342261341c602088015160ff1690565b60ff1690565b1515905061337a565b61344b91506106f9923d8091833e6134438183610395565b8101906131ea565b9091613352565b6040519061345f82610379565b60008252565b906106f991602081526001600160a01b038083511660208301526020830151166040820152604082015160608201526060820151608082015260a06134b8608084015160c08385015260e084019061211c565b9201519060c07fffffffffffffffffffffffffffffffffffffffffffffffffffffffffffffffe08285030191015261211c565b6000906060810161351461350f61350b8351613505613452565b9061524f565b1590565b61283a565b608082019161353161352c61350b8551613505613452565b612885565b61353d815115156128d0565b6040810192613552845160a0840151906132e0565b60209260ff6135648584015160ff1690565b1615158061374a575b6135769061324a565b61359261358a83516001600160a01b031690565b825190612995565b9461359e8615156124eb565b6135b66110d16110d16007546001600160a01b031690565b90856136356135cc86516001600160a01b031690565b938a519488519560e08801968751916135e6612680610426565b33848801528d60408501526060840152608083015260a08201526040519c8d809481937fd719a23800000000000000000000000000000000000000000000000000000000835260048301613465565b03925af19889156108df57600099613712575b506136e06136ab946136d38a61370d967f1ad9ac7982ab5544e2bac3ac73dc72e9f821ce62200105a5e7f77b07bc2306699a99966101006136c86136f0986136c06136b361369c885160c0890151906132e0565b9e8f516001600160a01b031690565b885190612fb3565b9e8f908701511015612536565b519451614fef565b915192015192613768565b516001600160a01b031690565b975193516001600160a01b031690565b9051906040519485946001600160a01b03339a1698469087612581565b0390a4565b868995979693929a503d8711613743575b61372d8183610395565b810161373891612289565b989091949593613648565b503d613723565b5061357661375f61341c606085015160ff1690565b1515905061356d565b6001600160a01b03600054169060015494823b15610248576137ea956138096137d795600097936137fa89956040519b8c9a8b998a987f27a63fd8000000000000000000000000000000000000000000000000000000008a5260048a015260a060248a015260a489019061211c565b60031995868983030160448a015261211c565b908487830301606488015261211c565b9184830301608485015261211c565b03925af180156108df5761220e5750565b1561382157565b606460405162461bcd60e51b815260206004820152601460248201527f54686569613a77726f6e6720446563696d616c730000000000000000000000006044820152fd5b9490939293806138826110d16110d187516001600160a01b031690565b9560409788519788967f313ce567000000000000000000000000000000000000000000000000000000009182895288600460209c8d935afa9788156108df57600098613bd4575b5060608901946138dd61341c875160ff1690565b60ff809a1603613b57575b506138f7906060850151612b8b565b9687151580613ae9575b613a03575b5050926139d7959289959288956139816139738961395c7fad35e024000000000000000000000000000000000000000000000000000000009f6106f99f9e8f9061396b9261395c9101516001600160a01b031690565b9701516001600160a01b031690565b965160ff1690565b97516001600160a01b031690565b9751998a019b909b52602489019a909a526001600160a01b03998a16604489015289166064880152608487015260ff1660a486015260c4850152851660e484015293909316610104820152918290610124820190565b037fffffffffffffffffffffffffffffffffffffffffffffffffffffffffffffffe08101835282610395565b98979491939099959288613a246110d16110d187516001600160a01b031690565b9b60048951809e819382525afa9485156108df576139816139738961395c7fad35e024000000000000000000000000000000000000000000000000000000009f6106f99f8f906139d79f8e613a9e613aa79f8f9361395c958a9561396b99600094613ac1575b5060600151819060ff165b1692169061499a565b9e8f151561381a565b505050505050505050929598995092959981949750613906565b829194506060613ae0613a95928c8d3d106111c0576111b28183610395565b95925050613a8a565b5060048a613b046110d16110d18b516001600160a01b031690565b8d51928380928782525afa9081156108df57600091613b3a575b5081613b3161341c60608b015160ff1690565b91161415613901565b613b5191508b3d8d116111c0576111b28183610395565b38613b1e565b90955060048a613b746110d16110d18d516001600160a01b031690565b8d51928380928782525afa80156108df576138f792613ba392600092613bb5575b508a80613a958a5160ff1690565b95613baf87151561381a565b906138e8565b613bcd9192508d803d106111c0576111b28183610395565b9038613b95565b613bec9198508a3d8c116111c0576111b28183610395565b96386138c9565b15613bfa57565b606460405162461bcd60e51b815260206004820152601160248201527f54686569613a746f6b656e20656d7074790000000000000000000000000000006044820152fd5b15613c4557565b606460405162461bcd60e51b815260206004820152601260248201527f54686569613a616d6f756e7420656d70747900000000000000000000000000006044820152fd5b15613c9057565b606460405162461bcd60e51b815260206004820152601960248201527f54686569613a746f6b656e446563696d616c7320656d707479000000000000006044820152fd5b15613cdb57565b606460405162461bcd60e51b815260206004820152601960248201527f54686569613a66726f6d546f6b656e4164647220656d707479000000000000006044820152fd5b15613d2657565b606460405162461bcd60e51b815260206004820152601960248201527f54686569613a736f75726365436861696e20696e76616c6964000000000000006044820152fd5b15613d7157565b606460405162461bcd60e51b815260206004820152601c60248201527f54686569613a746f6b656e446563696d616c73206469736d61746368000000006044820152fd5b15613dbc57565b606460405162461bcd60e51b815260206004820152601260248201527f54686569613a636f6e666967206572726f7200000000000000000000000000006044820152fd5b15613e0757565b606460405162461bcd60e51b815260206004820152601d60248201527f54686569613a6e6f7420636f766572206c6971756964697479206665650000006044820152fd5b6004600091826001600160a01b03815416604051938480927fd0496d6a0000000000000000000000000000000000000000000000000000000082525afa9182156108df578390848094613ea0575b5050929190565b93509350503d8083853e613eb48185610395565b8301606084820312613f0f5783519360208101519067ffffffffffffffff91828111613f0b5783613ee6918301613112565b946040820151928311613f085750613eff929101613112565b91923880613e99565b80fd5b8580fd5b8280fd5b90926080926106f99594835260208301526040820152816060820152019061211c565b93929490613f526110d16110d16007546001600160a01b031690565b803b1561024857600060405180927fae74db05000000000000000000000000000000000000000000000000000000008252818381613f988c600483019190602083019252565b03925af180156108df5761405e575b506040517f40c10f190000000000000000000000000000000000000000000000000000000081526001600160a01b038481166004830152602482018890529182169390926020846044816000895af19081156108df577f6999c67174aab1508cc0b367933d6ad1ebb316a7c6ca30a1f14ec553c5870efe9461403a92614040575b50604051938493169646908a85613f13565b0390a490565b6140579060203d811161090a576108fc8183610395565b5038614028565b8061091e61406b92610344565b38613fa7565b1561407857565b606460405162461bcd60e51b815260206004820152601a60248201527f54686569613a696e73756666696369656e742062616c616e63650000000000006044820152fd5b91906001600160a01b03808416604051917f6f307dc30000000000000000000000000000000000000000000000000000000083526020928381600481865afa80156108df578291600091614331575b50169586614120575b50505050505050600190565b6040517f70a082310000000000000000000000000000000000000000000000000000000081526001600160a01b0391909116600482015283816024818a5afa9081156108df5761417c918791600091614314575b501015614071565b7f00000000000000000000000000000000000000000000000000000000000000001694850361428b576040517e39d6ec0000000000000000000000000000000000000000000000000000000081526001600160a01b038416600482015260248101859052306044820152908290829060649082906000905af180156108df5761426d575b5050823b1561024857600060405180947f2e1a7d4d00000000000000000000000000000000000000000000000000000000825281838161424888600483019190602083019252565b03925af19283156108df5761426193610b675750614d8d565b38808080808080614114565b8161428392903d106108d8576108c88183610395565b503880614200565b6040517e39d6ec0000000000000000000000000000000000000000000000000000000081526001600160a01b039390931660048401819052602484019490945260448301939093529250908290829060649082906000905af180156108df576142f6575b5050614261565b8161430c92903d106108d8576108c88183610395565b5038806142ef565b61432b9150863d88116108d8576108c88183610395565b38614174565b6143489150853d8711610950576109428183610395565b3861410b565b906001600160a01b038092166040517f6f307dc300000000000000000000000000000000000000000000000000000000938482526020918281600481875afa80156108df578291600091614400575b50166143b3575050610424925030903390614e78565b9190809460046040518094819382525afa9081156108df57610424946000926143e3575b50503091339116614e78565b6143f99250803d10610950576109428183610395565b38806143d7565b6144179150843d8611610950576109428183610395565b3861439d565b91908261010091031261024857813591602081013561443b81610466565b91604082013561444a81610466565b9160608101359160808201359160a08101359160e060c083013561446d81610466565b9201356106f981610466565b1561448057565b606460405162461bcd60e51b815260206004820152601560248201527f54686569613a75756964206e6f742065786973747300000000000000000000006044820152fd5b156144cb57565b606460405162461bcd60e51b815260206004820152601b60248201527f54686569613a726563416d6f756e7420636f6e766572742065727200000000006044820152fd5b9183606094601f927fffffffffffffffffffffffffffffffffffffffffffffffffffffffffffffffe0948652604060208701528160408701528686013760008582860101520116010190565b1561456257565b7f4e487b7100000000000000000000000000000000000000000000000000000000600052600160045260246000fd5b6001600160a01b0391826145a3611fc6565b1633148015614706575b6145b690611fee565b6145be611fc6565b92600091825b8181106145d657505050505050600190565b826145ea6145e5838589614776565b61478b565b604080517f70a08231000000000000000000000000000000000000000000000000000000008152306004808301919091529194936020931691908381602481865afa9182156108df578b968a9283946146e7575b508361465a575b505050505050614655915061471a565b6145c4565b517e39d6ec0000000000000000000000000000000000000000000000000000000081523091810191825260208201939093526001600160a01b03969096166040870152909483928692918390036060019183915af19283156108df57614655936146c9575b8893878280614645565b816146df92903d106108d8576108c88183610395565b5038806146bf565b6146ff919450863d88116108d8576108c88183610395565b923861463e565b506145b661471333612088565b90506145ad565b7fffffffffffffffffffffffffffffffffffffffffffffffffffffffffffffffff81146120765760010190565b7f4e487b7100000000000000000000000000000000000000000000000000000000600052603260045260246000fd5b91908110156147865760051b0190565b614747565b356106f981610466565b8051156147865760200190565b8051600110156147865760210190565b908151811015614786570160200190565b60ff7fffffffffffffffffffffffffffffffffffffffffffffffffffffffffffffffd09116019060ff821161207657565b60ff7fffffffffffffffffffffffffffffffffffffffffffffffffffffffffffffffbf9116019060ff821161207657565b604d811161207657600a0a90565b906000916000918151156149175782935b825185101561490d5761489161488c61488661486088876147b2565b517fff000000000000000000000000000000000000000000000000000000000000001690565b60f81c90565b6147c3565b5060ff6009816148aa61488c6148866148608b8a6147b2565b1611614903576148fd916148f16148f7926148ce61488c6148866148608c8b6147b2565b906148ea6148e56148e08c8b51612b8b565b612b5e565b614825565b9116612447565b9061207b565b9461471a565b93614844565b5050919250508190565b9350600192509050565b92505090600190565b90806002146124cf578060021160001461495d5760020390600282116120765761494c61495292614825565b906152a6565b906106f95750600090565b907ffffffffffffffffffffffffffffffffffffffffffffffffffffffffffffffffe82019182116120765761499461495292614825565b9061527b565b90918083146149d657808311156149c05782039182116120765761494c61495292614825565b9182039182116120765761499461495292614825565b50905090565b156149e357565b606460405162461bcd60e51b815260206004820152601560248201527f746f416464726573735f6f75744f66426f756e647300000000000000000000006044820152fd5b908151614a43600191614a3c83821615614b14565b821c614b48565b906000938185905b614a6e575b5050506021919250614a666015825110156149dc565b015160601c90565b815160011c811015614b0f5780614af7614acf614aac614aa7614aa2614886614860614a9c614b0999612417565b8a6147b2565b614bd1565b614b97565b614ac9614aa2614886614860614a9c614ac489612417565b612068565b90614bbd565b60f81b7fff000000000000000000000000000000000000000000000000000000000000001690565b871a614b0382876147b2565b5361471a565b82614a4b565b614a50565b1561024857565b604051906060820182811067ffffffffffffffff82111761035857604052602a8252604082602036910137565b90614b5282610482565b614b5f6040519182610395565b8281527fffffffffffffffffffffffffffffffffffffffffffffffffffffffffffffffe0614b8d8294610482565b0190602036910137565b60041b90610ff060f083169216820361207657565b60ff16600a019060ff821161207657565b9060ff8091169116019060ff821161207657565b7fff000000000000000000000000000000000000000000000000000000000000008160f81b167f300000000000000000000000000000000000000000000000000000000000000081101580614d33575b614d29577f610000000000000000000000000000000000000000000000000000000000000081101580614cff575b614cc5577f41000000000000000000000000000000000000000000000000000000000000008110159081614c9a575b50614c895750600090565b614c956106f991614bac565b6147f4565b7f46000000000000000000000000000000000000000000000000000000000000009150111538614c7e565b5060ff614cf27fffffffffffffffffffffffffffffffffffffffffffffffffffffffffffffff9f92614bac565b160160ff81116120765790565b507f6600000000000000000000000000000000000000000000000000000000000000811115614c4f565b506106f9906147c3565b507f3900000000000000000000000000000000000000000000000000000000000000811115614c21565b3d15614d88573d90614d6e82610482565b91614d7c6040519384610395565b82523d6000602084013e565b606090565b6000808093819382604051614da181610379565b525af1614dac614d5d565b5015614db457565b608460405162461bcd60e51b815260206004820152602660248201527f5472616e7366657248656c7065723a204e41544956455f5452414e534645525f60448201527f4641494c454400000000000000000000000000000000000000000000000000006064820152fd5b6040517fa9059cbb0000000000000000000000000000000000000000000000000000000060208201526001600160a01b0392909216602483015260448083019390935291815261042491614e73606483610395565b614ed0565b909261042493604051937f23b872dd0000000000000000000000000000000000000000000000000000000060208601526001600160a01b038092166024860152166044840152606483015260648252614e738261035d565b6000806001600160a01b03614efa93169360208151910182865af1614ef3614d5d565b9083614f5c565b8051908115159182614f41575b5050614f105750565b602490604051907f5274afe70000000000000000000000000000000000000000000000000000000082526004820152fd5b614f549250602080918301019101611c47565b153880614f07565b90614f9b5750805115614f7157805190602001fd5b60046040517f1425ea42000000000000000000000000000000000000000000000000000000008152fd5b81511580614fe6575b614fac575090565b6024906001600160a01b03604051917f9996b315000000000000000000000000000000000000000000000000000000008352166004820152fd5b50803b15614fa4565b806000917a184f03e93ff9f4daa797ed6e38ed64bf6a1f0100000000000000008082101561514f575b506d04ee2d6d415b85acef810000000080831015615140575b50662386f26fc1000080831015615131575b506305f5e10080831015615122575b5061271080831015615113575b506064821015615103575b600a809210156150f9575b600190816021615086828701614b48565b95860101905b615098575b5050505090565b7fffffffffffffffffffffffffffffffffffffffffffffffffffffffffffffffff849101917f30313233343536373839616263646566000000000000000000000000000000008282061a8353049182156150f45791908261508c565b615091565b9160010191615075565b919060646002910491019161506a565b6004919392049101913861505f565b60089193920491019138615052565b60109193920491019138615043565b60209193920491019138615031565b604093508104915038615018565b6001600160a01b03168061516f614b1b565b91603061517b84614795565b536078615187846147a2565b5360295b600181116151d6575061519c575090565b6040517fe22e27eb000000000000000000000000000000000000000000000000000000008152600481019190915260146024820152604490fd5b90600f8116906010821015614786577f303132333435363738396162636465660000000000000000000000000000000061521f921a61521584876147b2565b5360041c91615224565b61518b565b8015612076577fffffffffffffffffffffffffffffffffffffffffffffffffffffffffffffffff0190565b9081518151908181149384615265575050505090565b6020929394508201209201201438808080615091565b9190821561529c57808302928304036152945760019190565b600091508190565b5060019150600090565b919080156152b5576001920490565b5060009150819056fea2646970667358221220b94ddbc228353682f599705fcc5f2f94524f52937ca90a841bb572f6e9e0ae3b64736f6c63430008140033","linkReferences":{}},"methodIdentifiers":{"addTxSender(address)":"eebd14af","applyMinter(address)":"d9e35bb2","c3CallerProxy()":"58f2c057","c3Fallback(uint256,bytes,bytes)":"b121f51d","cID()":"99a2f2d7","changeFeeManager(address)":"bfc810b6","changeGov(address)":"a962ef1e","changeTheiaConfig(address)":"6e2fa459","changeUUIDKeeper(address)":"eabcf962","convertDecimals(uint256,uint256,uint256)":"27824675","dappID()":"c516ad11","delay()":"6a42b8f8","depositNative(address,address)":"701bb891","disableTxSender(address)":"f9e4cbaf","doGov(string,string,bytes)":"d60ad41b","doGovBroadcast(string[],string[],bytes)":"dd64b3e6","feeManager()":"d0fb0203","getLiquidity(address)":"a747b93b","gov()":"12d43a51","isValidSender(address)":"f01f2b8b","queryLiquidityFeeRate(address,uint256)":"d3ac3e48","revokeMinter(address,address)":"87bafe5f","setDelay(uint256)":"e177246e","setMinter(address,address)":"9f122d6c","strToUint(string)":"c5ef3ec5","theiaConfig()":"f58c121f","theiaCrossEvm((address,address,uint256,uint256,uint256,string,string))":"2d86dc70","theiaCrossNonEvm((uint256,uint256,uint256,string,string,string,string,bytes,bytes))":"f77c305a","theiaVaultAuto(bytes32,address,address,uint256,uint256,uint256,address,address)":"ad35e024","uuidKeeper()":"b9688cf4","version()":"54fd4d50","wNATIVE()":"8fd903f5","withdrawFee(address[])":"1ccc72f6","withdrawNative(address,uint256,address)":"832e9492"},"id":37}