{"abi":[{"type":"constructor","inputs":[],"stateMutability":"nonpayable"},{"type":"function","name":"CONFIG_ROLE","inputs":[],"outputs":[{"name":"","type":"bytes32","internalType":"bytes32"}],"stateMutability":"view"},{"type":"function","name":"CONFIG_VERSION","inputs":[],"outputs":[{"name":"","type":"uint256","internalType":"uint256"}],"stateMutability":"view"},{"type":"function","name":"DEFAULT_ADMIN_ROLE","inputs":[],"outputs":[{"name":"","type":"bytes32","internalType":"bytes32"}],"stateMutability":"view"},{"type":"function","name":"addChainID","inputs":[{"name":"chainID","type":"uint256","internalType":"uint256"}],"outputs":[{"name":"","type":"bool","internalType":"bool"}],"stateMutability":"nonpayable"},{"type":"function","name":"addTokenID","inputs":[{"name":"tokenID","type":"string","internalType":"string"}],"outputs":[{"name":"","type":"bool","internalType":"bool"}],"stateMutability":"nonpayable"},{"type":"function","name":"getAllChainConfig","inputs":[],"outputs":[{"name":"","type":"tuple[]","internalType":"struct Structs.ChainConfig[]","components":[{"name":"ChainID","type":"uint256","internalType":"uint256"},{"name":"BlockChain","type":"string","internalType":"string"},{"name":"RouterContract","type":"string","internalType":"string"},{"name":"Confirmations","type":"uint64","internalType":"uint64"},{"name":"InitialHeight","type":"uint64","internalType":"uint64"},{"name":"Extra","type":"string","internalType":"string"}]}],"stateMutability":"view"},{"type":"function","name":"getAllChainIDLength","inputs":[],"outputs":[{"name":"","type":"uint256","internalType":"uint256"}],"stateMutability":"view"},{"type":"function","name":"getAllChainIDs","inputs":[],"outputs":[{"name":"","type":"uint256[]","internalType":"uint256[]"}],"stateMutability":"view"},{"type":"function","name":"getAllFeeConfigs","inputs":[{"name":"tokenID","type":"string","internalType":"string"}],"outputs":[{"name":"","type":"tuple[]","internalType":"struct Structs.FeeConfig[]","components":[{"name":"FromChainID","type":"uint256","internalType":"uint256"},{"name":"ToChainID","type":"uint256","internalType":"uint256"},{"name":"MaximumSwapFee","type":"uint256","internalType":"uint256"},{"name":"MinimumSwapFee","type":"uint256","internalType":"uint256"},{"name":"SwapFeeRatePerMillion","type":"uint256","internalType":"uint256"},{"name":"PayFromOrTo","type":"uint256","internalType":"uint256"}]}],"stateMutability":"view"},{"type":"function","name":"getAllMultichainTokenConfig","inputs":[{"name":"tokenID","type":"string","internalType":"string"}],"outputs":[{"name":"","type":"tuple[]","internalType":"struct Structs.TokenConfig[]","components":[{"name":"ChainID","type":"uint256","internalType":"uint256"},{"name":"Decimals","type":"uint8","internalType":"uint8"},{"name":"ContractAddress","type":"string","internalType":"string"},{"name":"ContractVersion","type":"uint256","internalType":"uint256"},{"name":"RouterContract","type":"string","internalType":"string"},{"name":"Extra","type":"string","internalType":"string"}]}],"stateMutability":"view"},{"type":"function","name":"getAllMultichainTokens","inputs":[{"name":"tokenID","type":"string","internalType":"string"}],"outputs":[{"name":"","type":"tuple[]","internalType":"struct Structs.MultichainToken[]","components":[{"name":"ChainID","type":"uint256","internalType":"uint256"},{"name":"TokenAddress","type":"string","internalType":"string"}]}],"stateMutability":"view"},{"type":"function","name":"getAllSwapConfigs","inputs":[{"name":"tokenID","type":"string","internalType":"string"}],"outputs":[{"name":"","type":"tuple[]","internalType":"struct Structs.SwapConfig[]","components":[{"name":"FromChainID","type":"uint256","internalType":"uint256"},{"name":"ToChainID","type":"uint256","internalType":"uint256"},{"name":"MaximumSwap","type":"uint256","internalType":"uint256"},{"name":"MinimumSwap","type":"uint256","internalType":"uint256"},{"name":"BigValueThreshold","type":"uint256","internalType":"uint256"}]}],"stateMutability":"view"},{"type":"function","name":"getAllTokenIDLength","inputs":[],"outputs":[{"name":"","type":"uint256","internalType":"uint256"}],"stateMutability":"view"},{"type":"function","name":"getAllTokenIDs","inputs":[],"outputs":[{"name":"result","type":"string[]","internalType":"string[]"}],"stateMutability":"view"},{"type":"function","name":"getChainConfig","inputs":[{"name":"chainID","type":"uint256","internalType":"uint256"}],"outputs":[{"name":"","type":"tuple","internalType":"struct Structs.ChainConfig","components":[{"name":"ChainID","type":"uint256","internalType":"uint256"},{"name":"BlockChain","type":"string","internalType":"string"},{"name":"RouterContract","type":"string","internalType":"string"},{"name":"Confirmations","type":"uint64","internalType":"uint64"},{"name":"InitialHeight","type":"uint64","internalType":"uint64"},{"name":"Extra","type":"string","internalType":"string"}]}],"stateMutability":"view"},{"type":"function","name":"getChainIDByIndex","inputs":[{"name":"index","type":"uint256","internalType":"uint256"}],"outputs":[{"name":"","type":"uint256","internalType":"uint256"}],"stateMutability":"view"},{"type":"function","name":"getCustomConfig","inputs":[{"name":"chainID","type":"uint256","internalType":"uint256"},{"name":"key","type":"string","internalType":"string"}],"outputs":[{"name":"","type":"string","internalType":"string"}],"stateMutability":"view"},{"type":"function","name":"getExtraConfig","inputs":[{"name":"key","type":"string","internalType":"string"}],"outputs":[{"name":"","type":"string","internalType":"string"}],"stateMutability":"view"},{"type":"function","name":"getFeeConfig","inputs":[{"name":"tokenID","type":"string","internalType":"string"},{"name":"srcChainID","type":"uint256","internalType":"uint256"},{"name":"dstChainID","type":"uint256","internalType":"uint256"}],"outputs":[{"name":"","type":"tuple","internalType":"struct Structs.FeeConfig","components":[{"name":"FromChainID","type":"uint256","internalType":"uint256"},{"name":"ToChainID","type":"uint256","internalType":"uint256"},{"name":"MaximumSwapFee","type":"uint256","internalType":"uint256"},{"name":"MinimumSwapFee","type":"uint256","internalType":"uint256"},{"name":"SwapFeeRatePerMillion","type":"uint256","internalType":"uint256"},{"name":"PayFromOrTo","type":"uint256","internalType":"uint256"}]}],"stateMutability":"view"},{"type":"function","name":"getFeeConfigAtIndex","inputs":[{"name":"tokenID","type":"string","internalType":"string"},{"name":"index","type":"uint256","internalType":"uint256"}],"outputs":[{"name":"","type":"tuple","internalType":"struct Structs.FeeConfig","components":[{"name":"FromChainID","type":"uint256","internalType":"uint256"},{"name":"ToChainID","type":"uint256","internalType":"uint256"},{"name":"MaximumSwapFee","type":"uint256","internalType":"uint256"},{"name":"MinimumSwapFee","type":"uint256","internalType":"uint256"},{"name":"SwapFeeRatePerMillion","type":"uint256","internalType":"uint256"},{"name":"PayFromOrTo","type":"uint256","internalType":"uint256"}]}],"stateMutability":"view"},{"type":"function","name":"getFeeConfigAtIndexRange","inputs":[{"name":"tokenID","type":"string","internalType":"string"},{"name":"startIndex","type":"uint256","internalType":"uint256"},{"name":"endIndex","type":"uint256","internalType":"uint256"}],"outputs":[{"name":"","type":"tuple[]","internalType":"struct Structs.FeeConfig[]","components":[{"name":"FromChainID","type":"uint256","internalType":"uint256"},{"name":"ToChainID","type":"uint256","internalType":"uint256"},{"name":"MaximumSwapFee","type":"uint256","internalType":"uint256"},{"name":"MinimumSwapFee","type":"uint256","internalType":"uint256"},{"name":"SwapFeeRatePerMillion","type":"uint256","internalType":"uint256"},{"name":"PayFromOrTo","type":"uint256","internalType":"uint256"}]}],"stateMutability":"view"},{"type":"function","name":"getFeeConfigsCount","inputs":[{"name":"tokenID","type":"string","internalType":"string"}],"outputs":[{"name":"","type":"uint256","internalType":"uint256"}],"stateMutability":"view"},{"type":"function","name":"getMPCPubkey","inputs":[{"name":"mpcAddress","type":"string","internalType":"string"}],"outputs":[{"name":"","type":"string","internalType":"string"}],"stateMutability":"view"},{"type":"function","name":"getMultichainToken","inputs":[{"name":"tokenID","type":"string","internalType":"string"},{"name":"chainID","type":"uint256","internalType":"uint256"}],"outputs":[{"name":"","type":"string","internalType":"string"}],"stateMutability":"view"},{"type":"function","name":"getOriginalTokenConfig","inputs":[{"name":"tokenID","type":"string","internalType":"string"},{"name":"chainID","type":"uint256","internalType":"uint256"}],"outputs":[{"name":"","type":"tuple","internalType":"struct Structs.TokenConfig","components":[{"name":"ChainID","type":"uint256","internalType":"uint256"},{"name":"Decimals","type":"uint8","internalType":"uint8"},{"name":"ContractAddress","type":"string","internalType":"string"},{"name":"ContractVersion","type":"uint256","internalType":"uint256"},{"name":"RouterContract","type":"string","internalType":"string"},{"name":"Extra","type":"string","internalType":"string"}]}],"stateMutability":"view"},{"type":"function","name":"getRoleAdmin","inputs":[{"name":"role","type":"bytes32","internalType":"bytes32"}],"outputs":[{"name":"","type":"bytes32","internalType":"bytes32"}],"stateMutability":"view"},{"type":"function","name":"getSwapConfig","inputs":[{"name":"tokenID","type":"string","internalType":"string"},{"name":"srcChainID","type":"uint256","internalType":"uint256"},{"name":"dstChainID","type":"uint256","internalType":"uint256"}],"outputs":[{"name":"","type":"tuple","internalType":"struct Structs.SwapConfig","components":[{"name":"FromChainID","type":"uint256","internalType":"uint256"},{"name":"ToChainID","type":"uint256","internalType":"uint256"},{"name":"MaximumSwap","type":"uint256","internalType":"uint256"},{"name":"MinimumSwap","type":"uint256","internalType":"uint256"},{"name":"BigValueThreshold","type":"uint256","internalType":"uint256"}]}],"stateMutability":"view"},{"type":"function","name":"getSwapConfigAtIndex","inputs":[{"name":"tokenID","type":"string","internalType":"string"},{"name":"index","type":"uint256","internalType":"uint256"}],"outputs":[{"name":"","type":"tuple","internalType":"struct Structs.SwapConfig","components":[{"name":"FromChainID","type":"uint256","internalType":"uint256"},{"name":"ToChainID","type":"uint256","internalType":"uint256"},{"name":"MaximumSwap","type":"uint256","internalType":"uint256"},{"name":"MinimumSwap","type":"uint256","internalType":"uint256"},{"name":"BigValueThreshold","type":"uint256","internalType":"uint256"}]}],"stateMutability":"view"},{"type":"function","name":"getSwapConfigAtIndexRange","inputs":[{"name":"tokenID","type":"string","internalType":"string"},{"name":"startIndex","type":"uint256","internalType":"uint256"},{"name":"endIndex","type":"uint256","internalType":"uint256"}],"outputs":[{"name":"","type":"tuple[]","internalType":"struct Structs.SwapConfig[]","components":[{"name":"FromChainID","type":"uint256","internalType":"uint256"},{"name":"ToChainID","type":"uint256","internalType":"uint256"},{"name":"MaximumSwap","type":"uint256","internalType":"uint256"},{"name":"MinimumSwap","type":"uint256","internalType":"uint256"},{"name":"BigValueThreshold","type":"uint256","internalType":"uint256"}]}],"stateMutability":"view"},{"type":"function","name":"getSwapConfigsCount","inputs":[{"name":"tokenID","type":"string","internalType":"string"}],"outputs":[{"name":"","type":"uint256","internalType":"uint256"}],"stateMutability":"view"},{"type":"function","name":"getTokenConfig","inputs":[{"name":"tokenID","type":"string","internalType":"string"},{"name":"chainID","type":"uint256","internalType":"uint256"}],"outputs":[{"name":"","type":"tuple","internalType":"struct Structs.TokenConfig","components":[{"name":"ChainID","type":"uint256","internalType":"uint256"},{"name":"Decimals","type":"uint8","internalType":"uint8"},{"name":"ContractAddress","type":"string","internalType":"string"},{"name":"ContractVersion","type":"uint256","internalType":"uint256"},{"name":"RouterContract","type":"string","internalType":"string"},{"name":"Extra","type":"string","internalType":"string"}]}],"stateMutability":"view"},{"type":"function","name":"getTokenID","inputs":[{"name":"chainID","type":"uint256","internalType":"uint256"},{"name":"tokenAddress","type":"string","internalType":"string"}],"outputs":[{"name":"","type":"string","internalType":"string"}],"stateMutability":"view"},{"type":"function","name":"getTokenIDByIndex","inputs":[{"name":"index","type":"uint256","internalType":"uint256"}],"outputs":[{"name":"","type":"string","internalType":"string"}],"stateMutability":"view"},{"type":"function","name":"grantRole","inputs":[{"name":"role","type":"bytes32","internalType":"bytes32"},{"name":"account","type":"address","internalType":"address"}],"outputs":[],"stateMutability":"nonpayable"},{"type":"function","name":"hasRole","inputs":[{"name":"role","type":"bytes32","internalType":"bytes32"},{"name":"account","type":"address","internalType":"address"}],"outputs":[{"name":"","type":"bool","internalType":"bool"}],"stateMutability":"view"},{"type":"function","name":"isChainIDExist","inputs":[{"name":"chainID","type":"uint256","internalType":"uint256"}],"outputs":[{"name":"","type":"bool","internalType":"bool"}],"stateMutability":"view"},{"type":"function","name":"isTokenIDExist","inputs":[{"name":"tokenID","type":"string","internalType":"string"}],"outputs":[{"name":"","type":"bool","internalType":"bool"}],"stateMutability":"view"},{"type":"function","name":"multicall","inputs":[{"name":"data","type":"bytes[]","internalType":"bytes[]"}],"outputs":[{"name":"results","type":"bytes[]","internalType":"bytes[]"}],"stateMutability":"nonpayable"},{"type":"function","name":"renounceRole","inputs":[{"name":"role","type":"bytes32","internalType":"bytes32"},{"name":"callerConfirmation","type":"address","internalType":"address"}],"outputs":[],"stateMutability":"nonpayable"},{"type":"function","name":"revokeRole","inputs":[{"name":"role","type":"bytes32","internalType":"bytes32"},{"name":"account","type":"address","internalType":"address"}],"outputs":[],"stateMutability":"nonpayable"},{"type":"function","name":"setChainConfig","inputs":[{"name":"chainID","type":"uint256","internalType":"uint256"},{"name":"blockChain","type":"string","internalType":"string"},{"name":"routerContract","type":"string","internalType":"string"},{"name":"confirmations","type":"uint64","internalType":"uint64"},{"name":"initialHeight","type":"uint64","internalType":"uint64"},{"name":"extra","type":"string","internalType":"string"}],"outputs":[{"name":"","type":"bool","internalType":"bool"}],"stateMutability":"nonpayable"},{"type":"function","name":"setChainExtraConfig","inputs":[{"name":"chainID","type":"uint256","internalType":"uint256"},{"name":"extra","type":"string","internalType":"string"}],"outputs":[{"name":"","type":"bool","internalType":"bool"}],"stateMutability":"nonpayable"},{"type":"function","name":"setCustomConfig","inputs":[{"name":"chainID","type":"uint256","internalType":"uint256"},{"name":"key","type":"string","internalType":"string"},{"name":"data","type":"string","internalType":"string"}],"outputs":[],"stateMutability":"nonpayable"},{"type":"function","name":"setExtraConfig","inputs":[{"name":"key","type":"string","internalType":"string"},{"name":"data","type":"string","internalType":"string"}],"outputs":[],"stateMutability":"nonpayable"},{"type":"function","name":"setFeeConfig","inputs":[{"name":"tokenID","type":"string","internalType":"string"},{"name":"srcChainID","type":"uint256","internalType":"uint256"},{"name":"dstChainID","type":"uint256","internalType":"uint256"},{"name":"maxFee","type":"uint256","internalType":"uint256"},{"name":"minFee","type":"uint256","internalType":"uint256"},{"name":"feeRate","type":"uint256","internalType":"uint256"},{"name":"payFrom","type":"uint256","internalType":"uint256"}],"outputs":[{"name":"","type":"bool","internalType":"bool"}],"stateMutability":"nonpayable"},{"type":"function","name":"setFeeConfigs","inputs":[{"name":"tokenID","type":"string","internalType":"string"},{"name":"configs","type":"tuple[]","internalType":"struct Structs.FeeConfig[]","components":[{"name":"FromChainID","type":"uint256","internalType":"uint256"},{"name":"ToChainID","type":"uint256","internalType":"uint256"},{"name":"MaximumSwapFee","type":"uint256","internalType":"uint256"},{"name":"MinimumSwapFee","type":"uint256","internalType":"uint256"},{"name":"SwapFeeRatePerMillion","type":"uint256","internalType":"uint256"},{"name":"PayFromOrTo","type":"uint256","internalType":"uint256"}]}],"outputs":[],"stateMutability":"nonpayable"},{"type":"function","name":"setMPCPubkey","inputs":[{"name":"addr","type":"string","internalType":"string"},{"name":"pubkey","type":"string","internalType":"string"}],"outputs":[],"stateMutability":"nonpayable"},{"type":"function","name":"setMultichainToken","inputs":[{"name":"tokenID","type":"string","internalType":"string"},{"name":"chainID","type":"uint256","internalType":"uint256"},{"name":"token","type":"string","internalType":"string"}],"outputs":[],"stateMutability":"nonpayable"},{"type":"function","name":"setSwapAndFeeConfig","inputs":[{"name":"tokenID","type":"string","internalType":"string"},{"name":"srcChainID","type":"uint256","internalType":"uint256"},{"name":"dstChainID","type":"uint256","internalType":"uint256"},{"name":"maxSwap","type":"uint256","internalType":"uint256"},{"name":"minSwap","type":"uint256","internalType":"uint256"},{"name":"bigSwap","type":"uint256","internalType":"uint256"},{"name":"maxFee","type":"uint256","internalType":"uint256"},{"name":"minFee","type":"uint256","internalType":"uint256"},{"name":"feeRate","type":"uint256","internalType":"uint256"},{"name":"payFrom","type":"uint256","internalType":"uint256"}],"outputs":[{"name":"","type":"bool","internalType":"bool"}],"stateMutability":"nonpayable"},{"type":"function","name":"setSwapConfig","inputs":[{"name":"tokenID","type":"string","internalType":"string"},{"name":"srcChainID","type":"uint256","internalType":"uint256"},{"name":"dstChainID","type":"uint256","internalType":"uint256"},{"name":"maxSwap","type":"uint256","internalType":"uint256"},{"name":"minSwap","type":"uint256","internalType":"uint256"},{"name":"bigSwap","type":"uint256","internalType":"uint256"}],"outputs":[{"name":"","type":"bool","internalType":"bool"}],"stateMutability":"nonpayable"},{"type":"function","name":"setSwapConfigs","inputs":[{"name":"tokenID","type":"string","internalType":"string"},{"name":"configs","type":"tuple[]","internalType":"struct Structs.SwapConfig[]","components":[{"name":"FromChainID","type":"uint256","internalType":"uint256"},{"name":"ToChainID","type":"uint256","internalType":"uint256"},{"name":"MaximumSwap","type":"uint256","internalType":"uint256"},{"name":"MinimumSwap","type":"uint256","internalType":"uint256"},{"name":"BigValueThreshold","type":"uint256","internalType":"uint256"}]}],"outputs":[],"stateMutability":"nonpayable"},{"type":"function","name":"setTokenConfig","inputs":[{"name":"tokenID","type":"string","internalType":"string"},{"name":"chainID","type":"uint256","internalType":"uint256"},{"name":"tokenAddr","type":"string","internalType":"string"},{"name":"decimals","type":"uint8","internalType":"uint8"},{"name":"version","type":"uint256","internalType":"uint256"},{"name":"routerContract","type":"string","internalType":"string"},{"name":"extra","type":"string","internalType":"string"}],"outputs":[{"name":"","type":"bool","internalType":"bool"}],"stateMutability":"nonpayable"},{"type":"function","name":"setTokenExtraConfig","inputs":[{"name":"tokenID","type":"string","internalType":"string"},{"name":"chainID","type":"uint256","internalType":"uint256"},{"name":"extra","type":"string","internalType":"string"}],"outputs":[{"name":"","type":"bool","internalType":"bool"}],"stateMutability":"nonpayable"},{"type":"function","name":"setTokenRouterContract","inputs":[{"name":"tokenID","type":"string","internalType":"string"},{"name":"chainID","type":"uint256","internalType":"uint256"},{"name":"routerContract","type":"string","internalType":"string"}],"outputs":[{"name":"","type":"bool","internalType":"bool"}],"stateMutability":"nonpayable"},{"type":"function","name":"supportsInterface","inputs":[{"name":"interfaceId","type":"bytes4","internalType":"bytes4"}],"outputs":[{"name":"","type":"bool","internalType":"bool"}],"stateMutability":"view"},{"type":"event","name":"RoleAdminChanged","inputs":[{"name":"role","type":"bytes32","indexed":true,"internalType":"bytes32"},{"name":"previousAdminRole","type":"bytes32","indexed":true,"internalType":"bytes32"},{"name":"newAdminRole","type":"bytes32","indexed":true,"internalType":"bytes32"}],"anonymous":false},{"type":"event","name":"RoleGranted","inputs":[{"name":"role","type":"bytes32","indexed":true,"internalType":"bytes32"},{"name":"account","type":"address","indexed":true,"internalType":"address"},{"name":"sender","type":"address","indexed":true,"internalType":"address"}],"anonymous":false},{"type":"event","name":"RoleRevoked","inputs":[{"name":"role","type":"bytes32","indexed":true,"internalType":"bytes32"},{"name":"account","type":"address","indexed":true,"internalType":"address"},{"name":"sender","type":"address","indexed":true,"internalType":"address"}],"anonymous":false},{"type":"error","name":"AccessControlBadConfirmation","inputs":[]},{"type":"error","name":"AccessControlUnauthorizedAccount","inputs":[{"name":"account","type":"address","internalType":"address"},{"name":"neededRole","type":"bytes32","internalType":"bytes32"}]},{"type":"error","name":"AddressEmptyCode","inputs":[{"name":"target","type":"address","internalType":"address"}]},{"type":"error","name":"FailedInnerCall","inputs":[]}],"bytecode":{"object":"0x6080604052346200003257620000153362000037565b506200002133620000b7565b50604051613a4b90816200015a8239f35b600080fd5b6001600160a01b031660008181527fad3228b676f7d3cd4284a5443f17f1962b36e491b30a40b2405849e597ba5fb5602052604081205490919060ff16620000b357818052816020526040822081835260205260408220600160ff19825416179055339160008051602062003ba58339815191528180a4600190565b5090565b6001600160a01b031660008181527fd4970c86de16ecd1df76427ebca809ee11eb7383bea0477ebfa92c227a1bfa4b60205260408120549091907f82db594318110a04b6349ce48645aa69f0892751bc893d15e61d9e2b9c4630f59060ff166200015457808352826020526040832082845260205260408320600160ff1982541617905560008051602062003ba5833981519152339380a4600190565b50509056fe608080604052600436101561001357600080fd5b60003560e01c90816301ffc9a7146126cf5750806304cbc75b146126aa57806306e9a46a146126605780631539321714612616578063160dcc6f146123175780631910dbdd1461227757806319ed16dc146121d35780631aed1c97146121875780631dc463b4146120d757806320c29bca146120225780632157697514611ff65780632383006c14611e03578063248a9ca314611dd45780632f2ff15d14611da3578063339d7ed814611cf1578063340a5f2d14611ca657806334e3009714611c8a57806334fd013514611a6757806336568abe14611a095780633c6b1a8f1461196e578063459511d11461188e5780634da7163c14611842578063573ff4a61461170857806361387d61146116dd578063684a10b3146115d65780636a3ea04f1461153b5780636da912691461140b57806371a4a9471461121f57806372c932881461120157806384cd5b5a146111585780638b665a51146110df5780638ed4347214610fd05780638fcb62a314610e9357806391d1485414610e455780639f1cdedd14610dfa578063a217fddf14610dde578063a43f37d714610dc0578063a4d19feb14610d85578063abad7b5c14610d55578063ac9650d814610ae7578063af611ca014610a98578063b4d8d47c14610a1a578063b735ab5a146109d1578063bdd5ef4a146108ee578063c03411ba146107de578063d236a09b1461076b578063d547741f1461073a578063d825b3ef146106b5578063e27112d514610607578063e3e016641461050b578063e671242a14610462578063e828d00f146103ca578063ef5a744614610308578063f4730a7e146102b25763fd15ea701461027c57600080fd5b346102ad5760206003193601126102ad576004356000526002602052602060ff604060002054166040519015158152f35b600080fd5b346102ad576103066102c3366129bf565b3360009081527fd4970c86de16ecd1df76427ebca809ee11eb7383bea0477ebfa92c227a1bfa4b60205260409020549092906103019060ff16612fac565b61356e565b005b346102ad5760e06003193601126102ad5760043567ffffffffffffffff81116102ad576103c061033e602092369060040161286b565b7f82db594318110a04b6349ce48645aa69f0892751bc893d15e61d9e2b9c4630f560005260008352604060002033600052835261038260ff60406000205416612fac565b6040519061038f826127b8565b6024358252604435848301526064356040830152608435606083015260a435608083015260c43560a0830152613427565b6040519015158152f35b346102ad5760206003193601126102ad576004356005548110156104335761041b61042f9160056000527f036b6384b5eca791c62761152d0c79bb0604c104a5fb6f4eb0703f3154bb3db001612cc7565b60405191829160208352602083019061291c565b0390f35b7f4e487b7100000000000000000000000000000000000000000000000000000000600052603260045260246000fd5b346102ad5760606003193601126102ad5767ffffffffffffffff6024358181116102ad5761049490369060040161286b565b6044359182116102ad576105066104b261030693369060040161286b565b3360009081527fd4970c86de16ecd1df76427ebca809ee11eb7383bea0477ebfa92c227a1bfa4b60205260409020549092906104f09060ff16612fac565b6004356000526004602052604060002090612d8c565b613028565b346102ad576020806003193601126102ad5760043567ffffffffffffffff81116102ad5761053d90369060040161286b565b7f82db594318110a04b6349ce48645aa69f0892751bc893d15e61d9e2b9c4630f560005260008252604060002033600052825261058160ff60406000205416612fac565b6040519060ff81519284818185019561059b8183896128f9565b8101600681520301902054166102ad576105cb91816105ba85936131df565b6040519384928392519283916128f9565b8101600681520301902060017fffffffffffffffffffffffffffffffffffffffffffffffffffffffffffffff0082541617905560405160018152f35b346102ad5760006003193601126102ad5760405180600180549283815260208091018094836000527fb10e2d527612073b26eecdfd717e6a320cf44b4afac2b0732d9fcbe2b7fa0cf69060005b8181106106a2575050508361066a9103846127f0565b60405192818401908285525180915260408401949160005b82811061068f5785870386f35b8351875295810195928101928401610682565b8254845292840192918501918501610654565b346102ad5760a06107036106fd60206106ee6106d036612ad9565b92906106da612e88565b5081604051938285809451938492016128f9565b81016008815203019020612f67565b50612eb3565b610738604051809260808091805184526020810151602085015260408101516040850152606081015160608501520151910152565bf35b346102ad5761030661074b36612aa6565b908060005260006020526107666001604060002001546137cd565b6138d4565b346102ad5761077936612b7b565b3360009081527fd4970c86de16ecd1df76427ebca809ee11eb7383bea0477ebfa92c227a1bfa4b60205260409020546107b49060ff16612fac565b81156102ad576107d39160005260036020526004604060002001613028565b602060405160018152f35b346102ad576107ec36612a70565b90816040518481809651610806816020998a8096016128f9565b810160088152030190209081548091116108e6575b506108268284612f83565b937fffffffffffffffffffffffffffffffffffffffffffffffffffffffffffffffe061086a61085487612c5c565b9661086260405198896127f0565b808852612c5c565b0160005b8181106108d057505050815b83811061088f576040518061042f8782612b0b565b806108c56108a06108cb9385612f67565b506108b46108ae8785612f83565b91612eb3565b6108be828a612e41565b5287612e41565b50612de5565b61087a565b82906108da612e88565b82828a0101520161086e565b92508461081b565b346102ad576108fc36612a70565b90816040518481809651610916816020998a8096016128f9565b810160098152030190209081548091116109c9575b506109368284612f83565b937fffffffffffffffffffffffffffffffffffffffffffffffffffffffffffffffe061096461085487612c5c565b0160005b8181106109b357505050815b838110610989576040518061042f8782612bab565b806108c561099a6109ae9385612f90565b506108b46109a88785612f83565b91612f21565b610974565b82906109bd612eef565b82828a01015201610968565b92508461092b565b346102ad5760206109f96109e436612ad9565b929081604051938285809451938492016128f9565b8101600b8152030190209060005260205261042f61041b6040600020612cc7565b346102ad576103066020610a89610a30366128b2565b92907f82db594318110a04b6349ce48645aa69f0892751bc893d15e61d9e2b9c4630f5600052600082526040600020336000528252610a7660ff60406000205416612fac565b81604051938285809451938492016128f9565b81016010815203019020613028565b346102ad5760206003193601126102ad5760043567ffffffffffffffff81116102ad5760ff610ad16020610a768194369060040161286b565b8101600681520301902054166040519015158152f35b346102ad576020806003193601126102ad576004359067ffffffffffffffff8083116102ad57366023840112156102ad578260040135908082116102ad5760059360243684871b83018201116102ad57604051928584019184831082841117610d28578260409694965260008552610b5e84612c5c565b95610b6c60405197886127f0565b8487527fffffffffffffffffffffffffffffffffffffffffffffffffffffffffffffffe0610b9986612c5c565b018860005b828110610d18575050506000907fffffffffffffffffffffffffffffffffffffffffffffffffffffffffffffffbd81360301915b868110610c5357604080518b81528a51818d01819052600092818f1b83018101918d8f01918f9085015b828710610c095785850386f35b909192938280610c43837fffffffffffffffffffffffffffffffffffffffffffffffffffffffffffffffc08a60019603018652885161291c565b9601920196019592919092610bfc565b83818c1b83010135838112156102ad5782019084820135918683116102ad5760440182360381136102ad578b600080610cf593610cb5610cc18f610d0a998f91889260405195838794868601998a37840191858301938a8552519384916128f9565b010380845201826127f0565b5190305af43d15610d0f573d610cd681612831565b90610ce460405192836127f0565b8152600081933d92013e5b30613975565b610cff828c612e41565b526108c5818b612e41565b610bd2565b60609150610cef565b60608a82018301528a9101610b9e565b7f4e487b710000000000000000000000000000000000000000000000000000000060005260416004526000fd5b346102ad5761042f61041b610d80610d6c36612b7b565b90600052600f602052604060002090612d8c565b612cc7565b346102ad5760006003193601126102ad5760206040517f82db594318110a04b6349ce48645aa69f0892751bc893d15e61d9e2b9c4630f58152f35b346102ad5760006003193601126102ad576020600554604051908152f35b346102ad5760006003193601126102ad57602060405160008152f35b346102ad5760206003193601126102ad5760043567ffffffffffffffff81116102ad5761041b610e366020610a7661042f94369060040161286b565b81016010815203019020612cc7565b346102ad57610e5336612aa6565b90600052600060205273ffffffffffffffffffffffffffffffffffffffff60406000209116600052602052602060ff604060002054166040519015158152f35b346102ad576020806003193601126102ad5760043567ffffffffffffffff81116102ad5781610a76610ec992369060040161286b565b8101600781520301902090815491610ee083612c5c565b92610eee60405194856127f0565b8084528284018092600052836000206000915b838310610f975750505050604051918083019381845251809452604083019360408160051b85010192916000955b828710610f3c5785850386f35b909192938280610f87837fffffffffffffffffffffffffffffffffffffffffffffffffffffffffffffffc08a600196030186526040838a51805184520151918185820152019061291c565b9601920196019592919092610f2f565b600286600192604099989951610fac8161276d565b85548152610fbb858701612cc7565b83820152815201920192019190959495610f01565b346102ad576101406003193601126102ad5760043567ffffffffffffffff81116102ad57611004602091369060040161286b565b602435604435917f82db594318110a04b6349ce48645aa69f0892751bc893d15e61d9e2b9c4630f560005260008452604060002033600052845261104f60ff60406000205416612fac565b61108460405161105e816127d4565b83815284868201526064356040820152608435606082015260a435608082015282613296565b9283611098575b5050506040519015158152f35b6110d79350604051926110aa846127b8565b83528483015260c435604083015260e43560608301526101043560808301526101243560a0830152613427565b82808061108b565b346102ad5760c061111961111360206111046110fa36612ad9565b92906106da612eef565b81016009815203019020612f90565b50612f21565b610738604051809260a0809180518452602081015160208501526040810151604085015260608101516060850152608081015160808501520151910152565b346102ad57611166366129bf565b3360009081527fd4970c86de16ecd1df76427ebca809ee11eb7383bea0477ebfa92c227a1bfa4b6020908152604090912054909392906111a89060ff16612fac565b801515806111f7575b156102ad576111d1846111ee9481604051938285809451938492016128f9565b8101600a8152030190209060005283526005604060002001613028565b60405160018152f35b50825115156111b1565b346102ad5760006003193601126102ad576020600154604051908152f35b346102ad5760006003193601126102ad576001805461123d81612c5c565b9061124b60405192836127f0565b8082527fffffffffffffffffffffffffffffffffffffffffffffffffffffffffffffffe061127882612c5c565b0160005b8181106113f457505061128d612e55565b5060005b818110611319578284604051906020808301818452845180915260408401918060408360051b8701019601926000905b8382106112ce5786880387f35b909192939483806113088a7fffffffffffffffffffffffffffffffffffffffffffffffffffffffffffffffc08b869d030186528951612a07565b9997019594939190910191016112c1565b806113266113ef92612c25565b9054600391821b1c908160005260208181526040600020906040519161134b836127b8565b8054835261135a8a8201612cc7565b9382840194855261136d60028301612cc7565b9060408501918252820154906060908186019067ffffffffffffffff8085168352806113a86004608098838a8d019960401c16895201612cc7565b998a60a0809b015251925193511694511695604051996113c78b6127b8565b8a5289015260408801528601528401528201526113e48286612e41565b526108c58185612e41565b611291565b6020906113ff612e55565b8282870101520161127c565b346102ad5760406003193601126102ad5767ffffffffffffffff6004358181116102ad5761143d90369060040161286b565b906024918235928284116102ad57366023850112156102ad5783600401359283116102ad5760a0913682848602870101116102ad573360009081527fd4970c86de16ecd1df76427ebca809ee11eb7383bea0477ebfa92c227a1bfa4b60209081526040909120549095906114b39060ff16612fac565b60005b8581106114bf57005b848102820190857fffffffffffffffffffffffffffffffffffffffffffffffffffffffffffffffdc83360301126102ad576108c56115369260a460405191611506836127d4565b88810135835260448101358c84015260648101356040840152608481013560608401520135608082015285613296565b6114b6565b346102ad576020806003193601126102ad5760043567ffffffffffffffff81116102ad5781610a7661157192369060040161286b565b81016009815203019020805461158681612c5c565b9161159460405193846127f0565b8183526000908152838120938084015b8383106115b9576040518061042f8782612bab565b6006826001926115c889612f21565b8152019601920191946115a4565b346102ad5760006003193601126102ad576005546115f381612c5c565b9061160160405192836127f0565b808252602090818301908160056000527f036b6384b5eca791c62761152d0c79bb0604c104a5fb6f4eb0703f3154bb3db06000915b8383106116bb5750505050604051918083019381845251809452604083019360408160051b85010192916000955b8287106116715785850386f35b9091929382806116ab837fffffffffffffffffffffffffffffffffffffffffffffffffffffffffffffffc08a60019603018652885161291c565b9601920196019592919092611664565b60018681926116cc859a999a612cc7565b815201920192019190959495611636565b346102ad5761042f61041b610d806116f436612b7b565b906000526004602052604060002090612d8c565b346102ad5760406003193601126102ad5767ffffffffffffffff6004358181116102ad5761173a90369060040161286b565b906024918235928284116102ad57366023850112156102ad5783600401359283116102ad5760c0913682848602870101116102ad573360009081527fd4970c86de16ecd1df76427ebca809ee11eb7383bea0477ebfa92c227a1bfa4b60209081526040909120549095906117b09060ff16612fac565b60005b8581106117bc57005b848102820190857fffffffffffffffffffffffffffffffffffffffffffffffffffffffffffffffdc83360301126102ad576108c561183d9260c460405191611803836127b8565b88810135835260448101358c840152606481013560408401526084810135606084015260a48101356080840152013560a082015285613427565b6117b3565b346102ad57611862602061185536612a70565b93916106da939193612e88565b8101600c8152030190209060005260205260406000209060005260205260a06107036040600020612eb3565b346102ad5761189c36612ad9565b906118a5612db2565b5060405181818093516118be81602096878096016128f9565b8101600a8152030190208260005281526040600020604051926118e0846127b8565b8154845260ff600183015416838501526118fc60028301612cc7565b60408501526003820154606085015261192a600561191c60048501612cc7565b936080870194855201612cc7565b60a08501528151511561194e575b505061042f60405192828493845283019061295f565b600052600382526119656002604060002001612cc7565b90528280611938565b346102ad576020806003193601126102ad5760043567ffffffffffffffff81116102ad5781610a766119a492369060040161286b565b8101600881520301902080546119b981612c5c565b916119c760405193846127f0565b8183526000908152838120938084015b8383106119ec576040518061042f8782612b0b565b6005826001926119fb89612eb3565b8152019601920191946119d7565b346102ad57611a1736612aa6565b3373ffffffffffffffffffffffffffffffffffffffff821603611a3d57610306916138d4565b60046040517f6697b232000000000000000000000000000000000000000000000000000000008152fd5b346102ad5760e06003193601126102ad5767ffffffffffffffff6004358181116102ad57611a9990369060040161286b565b6044358281116102ad57611ab190369060040161286b565b6064359260ff84168094036102ad5760a4358181116102ad57611ad890369060040161286b565b9060c4359081116102ad57611af190369060040161286b565b3360009081527fd4970c86de16ecd1df76427ebca809ee11eb7383bea0477ebfa92c227a1bfa4b6020526040902054909290611b2f9060ff16612fac565b60405194611b3c866127b8565b6024358652602086015260408501526084356060850152608084015260a0830152602435151580611c80575b156102ad5760406107d39281516020818551611b878183858a016128f9565b8101600a8152030190206024356000526020528160002081518155611c15600182019160ff602085015116927fffffffffffffffffffffffffffffffffffffffffffffffffffffffffffffff009384825416179055611bec8585015160028301613028565b60608401516003820155611c07608085015160048301613028565b600560a08501519101613028565b60ff83516020818751611c2b8183858c016128f9565b81016006815203019020541615611c4a575b500151906024359061356e565b611c53846131df565b600183516020818751611c698183858c016128f9565b810160068152030190209182541617905584611c3d565b5080511515611b68565b346102ad5760006003193601126102ad57602060405160018152f35b346102ad5760206003193601126102ad5760043567ffffffffffffffff81116102ad5761041b611ce26020610a7661042f94369060040161286b565b8101600e815203019020612cc7565b346102ad57611cff36612ad9565b611d07612db2565b506040518281809451611d2081602097888096016128f9565b8101600a815203019020906000528152604060002090611d8a600560405193611d48856127b8565b8054855260ff60018201541684860152611d6460028201612cc7565b604086015260038101546060860152611d7f60048201612cc7565b608086015201612cc7565b60a083015261042f60405192828493845283019061295f565b346102ad57610306611db436612aa6565b90806000526000602052611dcf6001604060002001546137cd565b61382a565b346102ad5760206003193601126102ad5760043560005260006020526020600160406000200154604051908152f35b346102ad5760c06003193601126102ad5767ffffffffffffffff6004356024358281116102ad57611e3890369060040161286b565b6044358381116102ad57611e5090369060040161286b565b92606435938185168095036102ad57608435948286168096036102ad5760a4358381116102ad57611e8590369060040161286b565b907f82db594318110a04b6349ce48645aa69f0892751bc893d15e61d9e2b9c4630f5600052602096600088526040600020336000528852611ecd60ff60406000205416612fac565b60405194611eda866127b8565b87865288860196875260408601948552606086019283526080860191825260a0860193845287156102ad57611f37600495611f2d611f86998b60005260038d52604060002099518a555160018a01613028565b5160028801613028565b600386019251167fffffffffffffffffffffffffffffffff000000000000000000000000000000006fffffffffffffffff00000000000000008454935160401b16921617179055519101613028565b8060005260038252806040600020556002825260ff6040600020541615611fb2575b5060405160018152f35b611fbb81613186565b60005260028152604060002060017fffffffffffffffffffffffffffffffffffffffffffffffffffffffffffffff0082541617905581611fa8565b346102ad5760206003193601126102ad576020612014600435612c25565b90546040519160031b1c8152f35b346102ad576020806003193601126102ad576004357f82db594318110a04b6349ce48645aa69f0892751bc893d15e61d9e2b9c4630f560005260008252604060002033600052825261207b60ff60406000205416612fac565b806000526002825260ff604060002054166102ad5761209981613186565b60005260028152604060002060017fffffffffffffffffffffffffffffffffffffffffffffffffffffffffffffff0082541617905560405160018152f35b346102ad5760c06003193601126102ad5760043567ffffffffffffffff81116102ad576103c061210d602092369060040161286b565b7f82db594318110a04b6349ce48645aa69f0892751bc893d15e61d9e2b9c4630f560005260008352604060002033600052835261215160ff60406000205416612fac565b6040519061215e826127d4565b6024358252604435848301526064356040830152608435606083015260a4356080830152613296565b346102ad576121a7602061219a36612a70565b93916106da939193612eef565b8101600d8152030190209060005260205260406000209060005260205260c06111196040600020612f21565b346102ad5760206003193601126102ad576121ec612e55565b50600435600052600360205261042f604060002061225e600460405192612212846127b8565b8054845261222260018201612cc7565b602085015261223360028201612cc7565b6040850152600381015467ffffffffffffffff90818116606087015260401c16608085015201612cc7565b60a0820152604051918291602083526020830190612a07565b346102ad57612285366129bf565b3360009081527fd4970c86de16ecd1df76427ebca809ee11eb7383bea0477ebfa92c227a1bfa4b6020908152604090912054909392906122c79060ff16612fac565b8015158061230d575b156102ad576122f0846111ee9481604051938285809451938492016128f9565b8101600a8152030190209060005283526004604060002001613028565b50825115156122d0565b346102ad5760206003193601126102ad5760043567ffffffffffffffff81116102ad5761234890369060040161286b565b604051815190602081818501936123608183876128f9565b81016007815203019020805461237581612c5c565b9161238360405193846127f0565b818352602083019060005260206000206000915b8383106125e257505050508051916123ae83612c5c565b936123bc60405195866127f0565b8385527fffffffffffffffffffffffffffffffffffffffffffffffffffffffffffffffe06123e985612c5c565b0160005b8181106125cb57505061240e916020916040519384928392519283916128f9565b8101600a81520301902090612421612db2565b5060005b8381106124b057846040518091602082016020835281518091526040830190602060408260051b8601019301916000905b82821061246557505050500390f35b919360206124a0827fffffffffffffffffffffffffffffffffffffffffffffffffffffffffffffffc06001959799849503018652885161295f565b9601920192018594939192612456565b806124be6125959284612e41565b5151806000528460205260406000206125226005604051926124df846127b8565b8054845260ff60018201541660208501526124fc60028201612cc7565b60408501526003810154606085015261251760048201612cc7565b608085015201612cc7565b60a082015260808101515115806125bd575b61259a575b60ff60208201511690604081015160608201519060a060808401519301519360405195612565876127b8565b8652602086015260408501526060840152608083015260a082015261258a8288612e41565b526108c58187612e41565b612425565b8160005260036020526125b36002604060002001612cc7565b6080820152612539565b506040810151511515612534565b6020906125d6612db2565b82828a010152016123ed565b600260206001926040516125f58161276d565b85548152612604858701612cc7565b83820152815201920192019190612397565b346102ad5760206003193601126102ad5760043567ffffffffffffffff81116102ad5761264d6020610a768193369060040161286b565b8101600981520301902054604051908152f35b346102ad5760206003193601126102ad5760043567ffffffffffffffff81116102ad576126976020610a768193369060040161286b565b8101600881520301902054604051908152f35b346102ad5761030660206126c0610a30366128b2565b8101600e815203019020613028565b346102ad5760206003193601126102ad57600435907fffffffff0000000000000000000000000000000000000000000000000000000082168092036102ad57817f7965db0b0000000000000000000000000000000000000000000000000000000060209314908115612743575b5015158152f35b7f01ffc9a7000000000000000000000000000000000000000000000000000000009150148361273c565b6040810190811067ffffffffffffffff82111761278957604052565b7f4e487b7100000000000000000000000000000000000000000000000000000000600052604160045260246000fd5b60c0810190811067ffffffffffffffff82111761278957604052565b60a0810190811067ffffffffffffffff82111761278957604052565b90601f7fffffffffffffffffffffffffffffffffffffffffffffffffffffffffffffffe0910116810190811067ffffffffffffffff82111761278957604052565b67ffffffffffffffff811161278957601f017fffffffffffffffffffffffffffffffffffffffffffffffffffffffffffffffe01660200190565b81601f820112156102ad5780359061288282612831565b9261289060405194856127f0565b828452602083830101116102ad57816000926020809301838601378301015290565b9060406003198301126102ad5767ffffffffffffffff6004358181116102ad57836128df9160040161286b565b926024359182116102ad576128f69160040161286b565b90565b60005b83811061290c5750506000910152565b81810151838201526020016128fc565b907fffffffffffffffffffffffffffffffffffffffffffffffffffffffffffffffe0601f602093612958815180928187528780880191016128f9565b0116010190565b6128f6918151815260ff602083015116602082015260a06129ae612992604085015160c0604086015260c085019061291c565b606085015160608501526080850151848203608086015261291c565b9201519060a081840391015261291c565b60606003198201126102ad5767ffffffffffffffff916004358381116102ad57826129ec9160040161286b565b92602435926044359182116102ad576128f69160040161286b565b6128f6918151815260a0612a3f612a2d602085015160c0602086015260c085019061291c565b6040850151848203604086015261291c565b9267ffffffffffffffff806060830151166060850152608082015116608084015201519060a081840391015261291c565b60606003198201126102ad576004359067ffffffffffffffff82116102ad57612a9b9160040161286b565b906024359060443590565b60031960409101126102ad576004359060243573ffffffffffffffffffffffffffffffffffffffff811681036102ad5790565b60406003198201126102ad576004359067ffffffffffffffff82116102ad57612b049160040161286b565b9060243590565b6020908160408183019282815285518094520193019160005b828110612b32575050505090565b909192938260a082612b6f600194895160808091805184526020810151602085015260408101516040850152606081015160608501520151910152565b01950193929101612b24565b9060406003198301126102ad57600435916024359067ffffffffffffffff82116102ad576128f69160040161286b565b6020908160408183019282815285518094520193019160005b828110612bd2575050505090565b909192938260c082612c19600194895160a0809180518452602081015160208501526040810151604085015260608101516060850152608081015160808501520151910152565b01950193929101612bc4565b6001548110156104335760016000527fb10e2d527612073b26eecdfd717e6a320cf44b4afac2b0732d9fcbe2b7fa0cf60190600090565b67ffffffffffffffff81116127895760051b60200190565b90600182811c92168015612cbd575b6020831014612c8e57565b7f4e487b7100000000000000000000000000000000000000000000000000000000600052602260045260246000fd5b91607f1691612c83565b9060405191826000825492612cdb84612c74565b908184526001948581169081600014612d4a5750600114612d07575b5050612d05925003836127f0565b565b9093915060005260209081600020936000915b818310612d32575050612d0593508201013880612cf7565b85548884018501529485019487945091830191612d1a565b9050612d059550602093507fffffffffffffffffffffffffffffffffffffffffffffffffffffffffffffff0091501682840152151560051b8201013880612cf7565b602090612da69282604051948386809551938492016128f9565b82019081520301902090565b60405190612dbf826127b8565b606060a08360008152600060208201528260408201526000838201528260808201520152565b7fffffffffffffffffffffffffffffffffffffffffffffffffffffffffffffffff8114612e125760010190565b7f4e487b7100000000000000000000000000000000000000000000000000000000600052601160045260246000fd5b80518210156104335760209160051b010190565b60405190612e62826127b8565b606060a08360008152826020820152826040820152600083820152600060808201520152565b60405190612e95826127d4565b60006080838281528260208201528260408201528260608201520152565b90604051612ec0816127d4565b608060048294805484526001810154602085015260028101546040850152600381015460608501520154910152565b60405190612efc826127b8565b8160a06000918281528260208201528260408201528260608201528260808201520152565b90604051612f2e816127b8565b60a06005829480548452600181015460208501526002810154604085015260038101546060850152600481015460808501520154910152565b8054821015610433576000526005602060002091020190600090565b91908203918211612e1257565b8054821015610433576000526006602060002091020190600090565b15612fb357565b60646040517f08c379a000000000000000000000000000000000000000000000000000000000815260206004820152601c60248201527f526f75746572436f6e6669673a206e6f20636f6e66696720726f6c65000000006044820152fd5b81811061301c575050565b60008155600101613011565b919091825167ffffffffffffffff8111612789576130468254612c74565b601f8111613149575b50602080601f83116001146130a957508192939460009261309e575b50507fffffffffffffffffffffffffffffffffffffffffffffffffffffffffffffffff8260011b9260031b1c1916179055565b01519050388061306b565b907fffffffffffffffffffffffffffffffffffffffffffffffffffffffffffffffe08316958460005282600020926000905b888210613131575050836001959697106130fa575b505050811b019055565b01517fffffffffffffffffffffffffffffffffffffffffffffffffffffffffffffffff60f88460031b161c191690553880806130f0565b806001859682949686015181550195019301906130db565b61317690836000526020600020601f840160051c8101916020851061317c575b601f0160051c0190613011565b3861304f565b9091508190613169565b60015468010000000000000000811015612789578060016131aa9201600155612c25565b7fffffffffffffffffffffffffffffffffffffffffffffffffffffffffffffffff829392549160031b92831b921b1916179055565b600554906801000000000000000082101561278957600182018060055582101561043357612d059160056000527f036b6384b5eca791c62761152d0c79bb0604c104a5fb6f4eb0703f3154bb3db001613028565b9190613267578051825560208101516001830155604081015160028301556060810151600383015560800151600490910155565b7f4e487b7100000000000000000000000000000000000000000000000000000000600052600060045260246000fd5b805180156102ad5782516020906133138280870151946040518281818a01936132c08183876128f9565b8101600c8152030190209660009785895283526040882087895283526105ba8960408a20906080600491805184556020810151600185015560408101516002850155606081015160038501550151910155565b8101600881520301902092835492613329612e88565b50855b8481106133995750505050508054916801000000000000000083101561336c5750816133619160016133679594018155612f67565b90613233565b600190565b807f4e487b7100000000000000000000000000000000000000000000000000000000602492526041600452fd5b6133a66106fd8288612f67565b83838683511492836133dc575b5050506133c8576133c390612de5565b61332c565b935050505061336793925061336191612f67565b01511490508383386133b3565b919061326757805182556020810151600183015560408101516002830155606081015160038301556080810151600483015560a00151600590910155565b805180156102ad5782516020906134ae8280870151946040518281818a01936134518183876128f9565b8101600d8152030190209660009785895283526040882087895283526105ba8960408a209060a060059180518455602081015160018501556040810151600285015560608101516003850155608081015160048501550151910155565b81016009815203019020928354926134c4612eef565b50855b8481106135025750505050508054916801000000000000000083101561336c5750816134fc9160016133679594018155612f90565b906133e9565b61350f6111138288612f90565b8383868351149283613545575b5050506135315761352c90612de5565b6134c7565b93505050506133679392506134fc91612f90565b015114905083833861351c565b80548210156104335760005260206000209060011b0190600090565b9091821515806137c3575b156102ad57600090838252600f906020938285526135e6856040926135a481610506868a2088612d8c565b8351908051918381818401946135bb8183886128f9565b8101600b8152030190208a895283526135d686868a20613028565b84519384928392519283916128f9565b8101600781520301902092845b845481101561371657876136078287613552565b50541461361c5761361790612de5565b6135f3565b966136278886613552565b50976136366001809a01612cc7565b9480518651811490816136c6575b5015613657575b50505050505050505050565b60009961366a6136719361367d99613552565b5001613028565b85528552832090612d8c565b916136888354612c74565b90601f908183116136a8575b50505050553880808080808080808061364b565b83856136bd955220910160051c810190613011565b38808080613694565b905085516136ed8b82818101946136e08187858a016128f9565b81010380845201826127f0565b51902085518a81019061370c8c82816136e08d878151938492016128f9565b5190201438613644565b50505192949093906137278461276d565b8352820192835280549068010000000000000000821015613796579061375291600182018155613552565b93909361376a575051825551612d0591600101613028565b807f4e487b71000000000000000000000000000000000000000000000000000000006024925280600452fd5b6024857f4e487b710000000000000000000000000000000000000000000000000000000081526041600452fd5b5081511515613579565b80600052600060205260406000203360005260205260ff60406000205416156137f35750565b604490604051907fe2517d3f0000000000000000000000000000000000000000000000000000000082523360048301526024820152fd5b906000918083528260205273ffffffffffffffffffffffffffffffffffffffff6040842092169182845260205260ff604084205416156000146138cf5780835282602052604083208284526020526040832060017fffffffffffffffffffffffffffffffffffffffffffffffffffffffffffffff008254161790557f2f8788117e7eff1d82e926ec794901d17c78024a50270940304540a733656f0d339380a4600190565b505090565b906000918083528260205273ffffffffffffffffffffffffffffffffffffffff6040842092169182845260205260ff6040842054166000146138cf578083528260205260408320828452602052604083207fffffffffffffffffffffffffffffffffffffffffffffffffffffffffffffff0081541690557ff6391f5c32d9c69d2a47ea670b442974b53935d1edc7fd64eb21e047a839171b339380a4600190565b906139b4575080511561398a57805190602001fd5b60046040517f1425ea42000000000000000000000000000000000000000000000000000000008152fd5b81511580613a0c575b6139c5575090565b60249073ffffffffffffffffffffffffffffffffffffffff604051917f9996b315000000000000000000000000000000000000000000000000000000008352166004820152fd5b50803b156139bd56fea2646970667358221220383e147c6693d5d587328e430966f5ec6299492f2eb37e046a34bb90b6ec849464736f6c634300081400332f8788117e7eff1d82e926ec794901d17c78024a50270940304540a733656f0d","linkReferences":{}},"methodIdentifiers":{"CONFIG_ROLE()":"a4d19feb","CONFIG_VERSION()":"34e30097","DEFAULT_ADMIN_ROLE()":"a217fddf","addChainID(uint256)":"20c29bca","addTokenID(string)":"e3e01664","getAllChainConfig()":"71a4a947","getAllChainIDLength()":"72c93288","getAllChainIDs()":"e27112d5","getAllFeeConfigs(string)":"6a3ea04f","getAllMultichainTokenConfig(string)":"160dcc6f","getAllMultichainTokens(string)":"8fcb62a3","getAllSwapConfigs(string)":"3c6b1a8f","getAllTokenIDLength()":"a43f37d7","getAllTokenIDs()":"684a10b3","getChainConfig(uint256)":"19ed16dc","getChainIDByIndex(uint256)":"21576975","getCustomConfig(uint256,string)":"61387d61","getExtraConfig(string)":"340a5f2d","getFeeConfig(string,uint256,uint256)":"1aed1c97","getFeeConfigAtIndex(string,uint256)":"8b665a51","getFeeConfigAtIndexRange(string,uint256,uint256)":"bdd5ef4a","getFeeConfigsCount(string)":"15393217","getMPCPubkey(string)":"9f1cdedd","getMultichainToken(string,uint256)":"b735ab5a","getOriginalTokenConfig(string,uint256)":"339d7ed8","getRoleAdmin(bytes32)":"248a9ca3","getSwapConfig(string,uint256,uint256)":"4da7163c","getSwapConfigAtIndex(string,uint256)":"d825b3ef","getSwapConfigAtIndexRange(string,uint256,uint256)":"c03411ba","getSwapConfigsCount(string)":"06e9a46a","getTokenConfig(string,uint256)":"459511d1","getTokenID(uint256,string)":"abad7b5c","getTokenIDByIndex(uint256)":"e828d00f","grantRole(bytes32,address)":"2f2ff15d","hasRole(bytes32,address)":"91d14854","isChainIDExist(uint256)":"fd15ea70","isTokenIDExist(string)":"af611ca0","multicall(bytes[])":"ac9650d8","renounceRole(bytes32,address)":"36568abe","revokeRole(bytes32,address)":"d547741f","setChainConfig(uint256,string,string,uint64,uint64,string)":"2383006c","setChainExtraConfig(uint256,string)":"d236a09b","setCustomConfig(uint256,string,string)":"e671242a","setExtraConfig(string,string)":"04cbc75b","setFeeConfig(string,uint256,uint256,uint256,uint256,uint256,uint256)":"ef5a7446","setFeeConfigs(string,(uint256,uint256,uint256,uint256,uint256,uint256)[])":"573ff4a6","setMPCPubkey(string,string)":"b4d8d47c","setMultichainToken(string,uint256,string)":"f4730a7e","setSwapAndFeeConfig(string,uint256,uint256,uint256,uint256,uint256,uint256,uint256,uint256,uint256)":"8ed43472","setSwapConfig(string,uint256,uint256,uint256,uint256,uint256)":"1dc463b4","setSwapConfigs(string,(uint256,uint256,uint256,uint256,uint256)[])":"6da91269","setTokenConfig(string,uint256,string,uint8,uint256,string,string)":"34fd0135","setTokenExtraConfig(string,uint256,string)":"84cd5b5a","setTokenRouterContract(string,uint256,string)":"1910dbdd","supportsInterface(bytes4)":"01ffc9a7"},"id":1}