{"abi":[{"type":"constructor","inputs":[{"name":"_c3callerProxy","type":"address","internalType":"address"},{"name":"_dappID","type":"uint256","internalType":"uint256"}],"stateMutability":"nonpayable"},{"type":"function","name":"CONFIG_ROLE","inputs":[],"outputs":[{"name":"","type":"bytes32","internalType":"bytes32"}],"stateMutability":"view"},{"type":"function","name":"CONFIG_VERSION","inputs":[],"outputs":[{"name":"","type":"uint256","internalType":"uint256"}],"stateMutability":"view"},{"type":"function","name":"DEFAULT_ADMIN_ROLE","inputs":[],"outputs":[{"name":"","type":"bytes32","internalType":"bytes32"}],"stateMutability":"view"},{"type":"function","name":"FuncSetChainConfig","inputs":[],"outputs":[{"name":"","type":"bytes4","internalType":"bytes4"}],"stateMutability":"view"},{"type":"function","name":"FuncSetFeeConfig","inputs":[],"outputs":[{"name":"","type":"bytes4","internalType":"bytes4"}],"stateMutability":"view"},{"type":"function","name":"FuncSetSwapConfig","inputs":[],"outputs":[{"name":"","type":"bytes4","internalType":"bytes4"}],"stateMutability":"view"},{"type":"function","name":"FuncSetTokenConfig","inputs":[],"outputs":[{"name":"","type":"bytes4","internalType":"bytes4"}],"stateMutability":"view"},{"type":"function","name":"addTxSender","inputs":[{"name":"txSender","type":"address","internalType":"address"}],"outputs":[],"stateMutability":"nonpayable"},{"type":"function","name":"c3CallerProxy","inputs":[],"outputs":[{"name":"","type":"address","internalType":"address"}],"stateMutability":"view"},{"type":"function","name":"c3Fallback","inputs":[{"name":"_dappID","type":"uint256","internalType":"uint256"},{"name":"_data","type":"bytes","internalType":"bytes"},{"name":"_reason","type":"bytes","internalType":"bytes"}],"outputs":[{"name":"","type":"bool","internalType":"bool"}],"stateMutability":"nonpayable"},{"type":"function","name":"cID","inputs":[],"outputs":[{"name":"","type":"uint256","internalType":"uint256"}],"stateMutability":"view"},{"type":"function","name":"changeGov","inputs":[{"name":"newGov","type":"address","internalType":"address"}],"outputs":[],"stateMutability":"nonpayable"},{"type":"function","name":"dappID","inputs":[],"outputs":[{"name":"","type":"uint256","internalType":"uint256"}],"stateMutability":"view"},{"type":"function","name":"delay","inputs":[],"outputs":[{"name":"","type":"uint256","internalType":"uint256"}],"stateMutability":"view"},{"type":"function","name":"disableTxSender","inputs":[{"name":"txSender","type":"address","internalType":"address"}],"outputs":[],"stateMutability":"nonpayable"},{"type":"function","name":"doGov","inputs":[{"name":"_to","type":"string","internalType":"string"},{"name":"_toChainID","type":"string","internalType":"string"},{"name":"_data","type":"bytes","internalType":"bytes"}],"outputs":[],"stateMutability":"nonpayable"},{"type":"function","name":"doGovBroadcast","inputs":[{"name":"_targets","type":"string[]","internalType":"string[]"},{"name":"_toChainIDs","type":"string[]","internalType":"string[]"},{"name":"_data","type":"bytes","internalType":"bytes"}],"outputs":[],"stateMutability":"nonpayable"},{"type":"function","name":"getAllChainConfig","inputs":[],"outputs":[{"name":"","type":"tuple[]","internalType":"struct Structs.ChainConfig[]","components":[{"name":"ChainID","type":"uint256","internalType":"uint256"},{"name":"BlockChain","type":"string","internalType":"string"},{"name":"RouterContract","type":"string","internalType":"string"},{"name":"Extra","type":"string","internalType":"string"}]}],"stateMutability":"view"},{"type":"function","name":"getAllChainIDLength","inputs":[],"outputs":[{"name":"","type":"uint256","internalType":"uint256"}],"stateMutability":"view"},{"type":"function","name":"getAllChainIDs","inputs":[],"outputs":[{"name":"","type":"uint256[]","internalType":"uint256[]"}],"stateMutability":"view"},{"type":"function","name":"getAllMultichainTokenConfig","inputs":[{"name":"tokenID","type":"string","internalType":"string"}],"outputs":[{"name":"","type":"tuple[]","internalType":"struct Structs.TokenConfig[]","components":[{"name":"ChainID","type":"uint256","internalType":"uint256"},{"name":"Decimals","type":"uint8","internalType":"uint8"},{"name":"ContractAddress","type":"string","internalType":"string"},{"name":"ContractVersion","type":"uint256","internalType":"uint256"},{"name":"RouterContract","type":"string","internalType":"string"},{"name":"Underlying","type":"string","internalType":"string"}]}],"stateMutability":"view"},{"type":"function","name":"getAllMultichainTokens","inputs":[{"name":"tokenID","type":"string","internalType":"string"}],"outputs":[{"name":"","type":"tuple[]","internalType":"struct Structs.MultichainToken[]","components":[{"name":"ChainID","type":"uint256","internalType":"uint256"},{"name":"TokenAddress","type":"string","internalType":"string"}]}],"stateMutability":"view"},{"type":"function","name":"getAllSwapConfigs","inputs":[{"name":"tokenID","type":"string","internalType":"string"}],"outputs":[{"name":"","type":"tuple[]","internalType":"struct Structs.SwapConfig[]","components":[{"name":"FromChainID","type":"uint256","internalType":"uint256"},{"name":"ToChainID","type":"uint256","internalType":"uint256"},{"name":"MaximumSwap","type":"uint256","internalType":"uint256"},{"name":"MinimumSwap","type":"uint256","internalType":"uint256"}]}],"stateMutability":"view"},{"type":"function","name":"getAllTokenIDLength","inputs":[],"outputs":[{"name":"","type":"uint256","internalType":"uint256"}],"stateMutability":"view"},{"type":"function","name":"getAllTokenIDs","inputs":[],"outputs":[{"name":"result","type":"string[]","internalType":"string[]"}],"stateMutability":"view"},{"type":"function","name":"getChainConfig","inputs":[{"name":"chainID","type":"uint256","internalType":"uint256"}],"outputs":[{"name":"","type":"tuple","internalType":"struct Structs.ChainConfig","components":[{"name":"ChainID","type":"uint256","internalType":"uint256"},{"name":"BlockChain","type":"string","internalType":"string"},{"name":"RouterContract","type":"string","internalType":"string"},{"name":"Extra","type":"string","internalType":"string"}]}],"stateMutability":"view"},{"type":"function","name":"getChainIDByIndex","inputs":[{"name":"index","type":"uint256","internalType":"uint256"}],"outputs":[{"name":"","type":"uint256","internalType":"uint256"}],"stateMutability":"view"},{"type":"function","name":"getMPCPubkey","inputs":[{"name":"mpcAddress","type":"string","internalType":"string"}],"outputs":[{"name":"","type":"string","internalType":"string"}],"stateMutability":"view"},{"type":"function","name":"getMultichainToken","inputs":[{"name":"tokenID","type":"string","internalType":"string"},{"name":"chainID","type":"uint256","internalType":"uint256"}],"outputs":[{"name":"","type":"string","internalType":"string"}],"stateMutability":"view"},{"type":"function","name":"getOriginalTokenConfig","inputs":[{"name":"tokenID","type":"string","internalType":"string"},{"name":"chainID","type":"uint256","internalType":"uint256"}],"outputs":[{"name":"","type":"tuple","internalType":"struct Structs.TokenConfig","components":[{"name":"ChainID","type":"uint256","internalType":"uint256"},{"name":"Decimals","type":"uint8","internalType":"uint8"},{"name":"ContractAddress","type":"string","internalType":"string"},{"name":"ContractVersion","type":"uint256","internalType":"uint256"},{"name":"RouterContract","type":"string","internalType":"string"},{"name":"Underlying","type":"string","internalType":"string"}]}],"stateMutability":"view"},{"type":"function","name":"getRoleAdmin","inputs":[{"name":"role","type":"bytes32","internalType":"bytes32"}],"outputs":[{"name":"","type":"bytes32","internalType":"bytes32"}],"stateMutability":"view"},{"type":"function","name":"getSwapConfig","inputs":[{"name":"tokenID","type":"string","internalType":"string"},{"name":"srcChainID","type":"uint256","internalType":"uint256"},{"name":"dstChainID","type":"uint256","internalType":"uint256"}],"outputs":[{"name":"","type":"tuple","internalType":"struct Structs.SwapConfig","components":[{"name":"FromChainID","type":"uint256","internalType":"uint256"},{"name":"ToChainID","type":"uint256","internalType":"uint256"},{"name":"MaximumSwap","type":"uint256","internalType":"uint256"},{"name":"MinimumSwap","type":"uint256","internalType":"uint256"}]}],"stateMutability":"view"},{"type":"function","name":"getSwapConfigAtIndex","inputs":[{"name":"tokenID","type":"string","internalType":"string"},{"name":"index","type":"uint256","internalType":"uint256"}],"outputs":[{"name":"","type":"tuple","internalType":"struct Structs.SwapConfig","components":[{"name":"FromChainID","type":"uint256","internalType":"uint256"},{"name":"ToChainID","type":"uint256","internalType":"uint256"},{"name":"MaximumSwap","type":"uint256","internalType":"uint256"},{"name":"MinimumSwap","type":"uint256","internalType":"uint256"}]}],"stateMutability":"view"},{"type":"function","name":"getSwapConfigAtIndexRange","inputs":[{"name":"tokenID","type":"string","internalType":"string"},{"name":"startIndex","type":"uint256","internalType":"uint256"},{"name":"endIndex","type":"uint256","internalType":"uint256"}],"outputs":[{"name":"","type":"tuple[]","internalType":"struct Structs.SwapConfig[]","components":[{"name":"FromChainID","type":"uint256","internalType":"uint256"},{"name":"ToChainID","type":"uint256","internalType":"uint256"},{"name":"MaximumSwap","type":"uint256","internalType":"uint256"},{"name":"MinimumSwap","type":"uint256","internalType":"uint256"}]}],"stateMutability":"view"},{"type":"function","name":"getSwapConfigsCount","inputs":[{"name":"tokenID","type":"string","internalType":"string"}],"outputs":[{"name":"","type":"uint256","internalType":"uint256"}],"stateMutability":"view"},{"type":"function","name":"getTokenConfig","inputs":[{"name":"tokenID","type":"string","internalType":"string"},{"name":"chainID","type":"uint256","internalType":"uint256"}],"outputs":[{"name":"","type":"tuple","internalType":"struct Structs.TokenConfig","components":[{"name":"ChainID","type":"uint256","internalType":"uint256"},{"name":"Decimals","type":"uint8","internalType":"uint8"},{"name":"ContractAddress","type":"string","internalType":"string"},{"name":"ContractVersion","type":"uint256","internalType":"uint256"},{"name":"RouterContract","type":"string","internalType":"string"},{"name":"Underlying","type":"string","internalType":"string"}]}],"stateMutability":"view"},{"type":"function","name":"getTokenConfigIfExist","inputs":[{"name":"tokenID","type":"string","internalType":"string"},{"name":"toChainID","type":"uint256","internalType":"uint256"}],"outputs":[{"name":"","type":"tuple","internalType":"struct Structs.TokenConfig","components":[{"name":"ChainID","type":"uint256","internalType":"uint256"},{"name":"Decimals","type":"uint8","internalType":"uint8"},{"name":"ContractAddress","type":"string","internalType":"string"},{"name":"ContractVersion","type":"uint256","internalType":"uint256"},{"name":"RouterContract","type":"string","internalType":"string"},{"name":"Underlying","type":"string","internalType":"string"}]},{"name":"","type":"tuple","internalType":"struct Structs.TokenConfig","components":[{"name":"ChainID","type":"uint256","internalType":"uint256"},{"name":"Decimals","type":"uint8","internalType":"uint8"},{"name":"ContractAddress","type":"string","internalType":"string"},{"name":"ContractVersion","type":"uint256","internalType":"uint256"},{"name":"RouterContract","type":"string","internalType":"string"},{"name":"Underlying","type":"string","internalType":"string"}]}],"stateMutability":"view"},{"type":"function","name":"getTokenID","inputs":[{"name":"chainID","type":"uint256","internalType":"uint256"},{"name":"tokenAddress","type":"string","internalType":"string"}],"outputs":[{"name":"","type":"string","internalType":"string"}],"stateMutability":"view"},{"type":"function","name":"getTokenIDByIndex","inputs":[{"name":"index","type":"uint256","internalType":"uint256"}],"outputs":[{"name":"","type":"string","internalType":"string"}],"stateMutability":"view"},{"type":"function","name":"gov","inputs":[],"outputs":[{"name":"","type":"address","internalType":"address"}],"stateMutability":"view"},{"type":"function","name":"grantRole","inputs":[{"name":"role","type":"bytes32","internalType":"bytes32"},{"name":"account","type":"address","internalType":"address"}],"outputs":[],"stateMutability":"nonpayable"},{"type":"function","name":"hasRole","inputs":[{"name":"role","type":"bytes32","internalType":"bytes32"},{"name":"account","type":"address","internalType":"address"}],"outputs":[{"name":"","type":"bool","internalType":"bool"}],"stateMutability":"view"},{"type":"function","name":"isChainIDExist","inputs":[{"name":"chainID","type":"uint256","internalType":"uint256"}],"outputs":[{"name":"","type":"bool","internalType":"bool"}],"stateMutability":"view"},{"type":"function","name":"isTokenIDExist","inputs":[{"name":"tokenID","type":"string","internalType":"string"}],"outputs":[{"name":"","type":"bool","internalType":"bool"}],"stateMutability":"view"},{"type":"function","name":"isValidSender","inputs":[{"name":"txSender","type":"address","internalType":"address"}],"outputs":[{"name":"","type":"bool","internalType":"bool"}],"stateMutability":"view"},{"type":"function","name":"multicall","inputs":[{"name":"data","type":"bytes[]","internalType":"bytes[]"}],"outputs":[{"name":"results","type":"bytes[]","internalType":"bytes[]"}],"stateMutability":"nonpayable"},{"type":"function","name":"renounceRole","inputs":[{"name":"role","type":"bytes32","internalType":"bytes32"},{"name":"callerConfirmation","type":"address","internalType":"address"}],"outputs":[],"stateMutability":"nonpayable"},{"type":"function","name":"revokeRole","inputs":[{"name":"role","type":"bytes32","internalType":"bytes32"},{"name":"account","type":"address","internalType":"address"}],"outputs":[],"stateMutability":"nonpayable"},{"type":"function","name":"setChainConfig","inputs":[{"name":"chainID","type":"uint256","internalType":"uint256"},{"name":"blockChain","type":"string","internalType":"string"},{"name":"routerContract","type":"string","internalType":"string"},{"name":"extra","type":"string","internalType":"string"}],"outputs":[{"name":"","type":"bool","internalType":"bool"}],"stateMutability":"nonpayable"},{"type":"function","name":"setChainConfigGov","inputs":[{"name":"chainID","type":"uint256","internalType":"uint256"},{"name":"blockChain","type":"string","internalType":"string"},{"name":"routerContract","type":"string","internalType":"string"},{"name":"extra","type":"string","internalType":"string"},{"name":"toChains","type":"string[]","internalType":"string[]"},{"name":"to","type":"string[]","internalType":"string[]"}],"outputs":[],"stateMutability":"nonpayable"},{"type":"function","name":"setDelay","inputs":[{"name":"_delay","type":"uint256","internalType":"uint256"}],"outputs":[],"stateMutability":"nonpayable"},{"type":"function","name":"setMPCPubkey","inputs":[{"name":"addr","type":"string","internalType":"string"},{"name":"pubkey","type":"string","internalType":"string"}],"outputs":[{"name":"","type":"bool","internalType":"bool"}],"stateMutability":"nonpayable"},{"type":"function","name":"setSwapConfig","inputs":[{"name":"tokenID","type":"string","internalType":"string"},{"name":"dstChainID","type":"uint256","internalType":"uint256"},{"name":"maxSwap","type":"uint256","internalType":"uint256"},{"name":"minSwap","type":"uint256","internalType":"uint256"}],"outputs":[{"name":"","type":"bool","internalType":"bool"}],"stateMutability":"nonpayable"},{"type":"function","name":"setSwapConfigGov","inputs":[{"name":"tokenID","type":"string","internalType":"string"},{"name":"dstChainID","type":"uint256","internalType":"uint256"},{"name":"maxSwap","type":"uint256","internalType":"uint256"},{"name":"minSwap","type":"uint256","internalType":"uint256"},{"name":"toChains","type":"string[]","internalType":"string[]"},{"name":"to","type":"string[]","internalType":"string[]"}],"outputs":[],"stateMutability":"nonpayable"},{"type":"function","name":"setSwapConfigs","inputs":[{"name":"tokenID","type":"string","internalType":"string"},{"name":"configs","type":"tuple[]","internalType":"struct Structs.SwapConfig[]","components":[{"name":"FromChainID","type":"uint256","internalType":"uint256"},{"name":"ToChainID","type":"uint256","internalType":"uint256"},{"name":"MaximumSwap","type":"uint256","internalType":"uint256"},{"name":"MinimumSwap","type":"uint256","internalType":"uint256"}]}],"outputs":[{"name":"","type":"bool","internalType":"bool"}],"stateMutability":"nonpayable"},{"type":"function","name":"setTokenConfig","inputs":[{"name":"tokenID","type":"string","internalType":"string"},{"name":"chainID","type":"uint256","internalType":"uint256"},{"name":"tokenAddr","type":"string","internalType":"string"},{"name":"decimals","type":"uint8","internalType":"uint8"},{"name":"version","type":"uint256","internalType":"uint256"},{"name":"routerContract","type":"string","internalType":"string"},{"name":"underlying","type":"string","internalType":"string"}],"outputs":[{"name":"","type":"bool","internalType":"bool"}],"stateMutability":"nonpayable"},{"type":"function","name":"setTokenConfigGov","inputs":[{"name":"tokenID","type":"string","internalType":"string"},{"name":"chainID","type":"uint256","internalType":"uint256"},{"name":"tokenAddr","type":"string","internalType":"string"},{"name":"decimals","type":"uint8","internalType":"uint8"},{"name":"version","type":"uint256","internalType":"uint256"},{"name":"routerContract","type":"string","internalType":"string"},{"name":"underlying","type":"string","internalType":"string"},{"name":"toChains","type":"string[]","internalType":"string[]"},{"name":"to","type":"string[]","internalType":"string[]"}],"outputs":[],"stateMutability":"nonpayable"},{"type":"function","name":"supportsInterface","inputs":[{"name":"interfaceId","type":"bytes4","internalType":"bytes4"}],"outputs":[{"name":"","type":"bool","internalType":"bool"}],"stateMutability":"view"},{"type":"event","name":"LogChangeGov","inputs":[{"name":"oldGov","type":"address","indexed":true,"internalType":"address"},{"name":"newGov","type":"address","indexed":true,"internalType":"address"},{"name":"effectiveTime","type":"uint256","indexed":true,"internalType":"uint256"},{"name":"chainID","type":"uint256","indexed":false,"internalType":"uint256"}],"anonymous":false},{"type":"event","name":"LogSetChainConfig","inputs":[{"name":"chainID","type":"uint256","indexed":true,"internalType":"uint256"},{"name":"BlockChain","type":"string","indexed":false,"internalType":"string"},{"name":"RouterContract","type":"string","indexed":false,"internalType":"string"},{"name":"Extra","type":"string","indexed":false,"internalType":"string"}],"anonymous":false},{"type":"event","name":"LogSetTokenConfig","inputs":[{"name":"ChainID","type":"uint256","indexed":true,"internalType":"uint256"},{"name":"Decimals","type":"uint8","indexed":false,"internalType":"uint8"},{"name":"ContractVersion","type":"uint256","indexed":false,"internalType":"uint256"},{"name":"tokenID","type":"string","indexed":false,"internalType":"string"},{"name":"ContractAddress","type":"string","indexed":false,"internalType":"string"},{"name":"RouterContract","type":"string","indexed":false,"internalType":"string"},{"name":"Underlying","type":"string","indexed":false,"internalType":"string"}],"anonymous":false},{"type":"event","name":"LogTxSender","inputs":[{"name":"txSender","type":"address","indexed":true,"internalType":"address"},{"name":"vaild","type":"bool","indexed":false,"internalType":"bool"}],"anonymous":false},{"type":"event","name":"RoleAdminChanged","inputs":[{"name":"role","type":"bytes32","indexed":true,"internalType":"bytes32"},{"name":"previousAdminRole","type":"bytes32","indexed":true,"internalType":"bytes32"},{"name":"newAdminRole","type":"bytes32","indexed":true,"internalType":"bytes32"}],"anonymous":false},{"type":"event","name":"RoleGranted","inputs":[{"name":"role","type":"bytes32","indexed":true,"internalType":"bytes32"},{"name":"account","type":"address","indexed":true,"internalType":"address"},{"name":"sender","type":"address","indexed":true,"internalType":"address"}],"anonymous":false},{"type":"event","name":"RoleRevoked","inputs":[{"name":"role","type":"bytes32","indexed":true,"internalType":"bytes32"},{"name":"account","type":"address","indexed":true,"internalType":"address"},{"name":"sender","type":"address","indexed":true,"internalType":"address"}],"anonymous":false},{"type":"error","name":"AccessControlBadConfirmation","inputs":[]},{"type":"error","name":"AccessControlUnauthorizedAccount","inputs":[{"name":"account","type":"address","internalType":"address"},{"name":"neededRole","type":"bytes32","internalType":"bytes32"}]},{"type":"error","name":"AddressEmptyCode","inputs":[{"name":"target","type":"address","internalType":"address"}]},{"type":"error","name":"FailedInnerCall","inputs":[]}],"bytecode":{"object":"0x608034620000eb57601f6200428938819003918201601f19168301916001600160401b03831184841017620000f0578084926040948552833981010312620000eb5780516001600160a01b0381169190829003620000eb576020015160018060a01b0319918260015416176001556002556202a300600355806004541660045560055416600555426006553360005260076020526040600020600160ff19825416179055620000ad62000106565b50620000b862000191565b50601480546001600160801b0319166fef5a74466e35edfd34fd01354d16e3081790556040516140229081620002478239f35b600080fd5b634e487b7160e01b600052604160045260246000fd5b60008080527fad3228b676f7d3cd4284a5443f17f1962b36e491b30a40b2405849e597ba5fb56020527fed428e1c45e1d9561b62834e1a2d3015a0caae3bfdc16b4da059ac885b01a1455460ff166200018e57806020526040812060205260408120600160ff19825416179055339080600080516020620042698339815191528180a4600190565b90565b60008080527fd4970c86de16ecd1df76427ebca809ee11eb7383bea0477ebfa92c227a1bfa4b6020527f6713152c2654fe321dae57ef6b878e9199abcb42c52bdd22fecb41e3dc58c8e2547f82db594318110a04b6349ce48645aa69f0892751bc893d15e61d9e2b9c4630f5919060ff166200024157818152806020526040812081805260205260408120600160ff198254161790553391600080516020620042698339815191528280a4600190565b90509056fe608080604052600436101561001357600080fd5b60003560e01c90816301ffc9a7146129145750806306e9a46a146128ca578063090d8d0b14612887578063099517fd1461284457806312d43a511461280b578063160dcc6f1461252757806319ed16dc146124a35780631a192d8214612359578063215769751461232d578063248a9ca3146122fe5780632f2ff15d146122bf578063339d7ed81461220d57806334e30097146121f157806334fd0135146120cd57806336568abe1461206157806337d563061461201e5780633c6b1a8f14611f83578063459511d114611ea35780634da7163c14611e5757806358f2c05714611e23578063684a10b314611d8c5780636a42b8f814611d6e5780636e35edfd14611cac57806371a4a94714611b1757806372c9328814611af95780638df2931c14611ab65780638fcb62a31461197957806391add06c1461175157806391d14854146116f657806395d4105c146115fc57806399a2f2d7146115e15780639f1cdedd14611596578063a217fddf1461157a578063a43f37d71461155c578063a4d19feb14611521578063a962ef1e146113b1578063abad7b5c1461135c578063ac9650d81461110c578063acf037f814610fb4578063af611ca014610f65578063b121f51d14610d9f578063b4d8d47c14610cbf578063b735ab5a14610c76578063c03411ba14610b84578063c516ad1114610b66578063d16c4112146109d3578063d547741f14610994578063d60ad41b146108e5578063d825b3ef1461086a578063dd64b3e614610777578063e177246e1461071a578063e27112d514610664578063e828d00f14610624578063e8c97455146104a4578063eebd14af146103e0578063f01f2b8b14610394578063f9e4cbaf146102d35763fd15ea701461029d57600080fd5b346102ce5760206003193601126102ce576004356000526009602052602060ff604060002054166040519015158152f35b600080fd5b346102ce5760206003193601126102ce576102ec612be6565b73ffffffffffffffffffffffffffffffffffffffff908161030b6130e3565b1633148015610380575b61031e90613125565b1680600052600760205260406000207fffffffffffffffffffffffffffffffffffffffffffffffffffffffffffffff0081541690557fbfb8b3e2f6221ae729e9cacb0d35f5d9be686ba10cb1d4e34b646bbb87f7a269602060405160008152a2005b5061031e61038d33612ef7565b9050610315565b346102ce5760206003193601126102ce5773ffffffffffffffffffffffffffffffffffffffff6103c2612be6565b166000526007602052602060ff604060002054166040519015158152f35b346102ce5760206003193601126102ce576103f9612be6565b73ffffffffffffffffffffffffffffffffffffffff90816104186130e3565b1633148015610490575b61042b90613125565b16806000526007602052604060002060017fffffffffffffffffffffffffffffffffffffffffffffffffffffffffffffff008254161790557fbfb8b3e2f6221ae729e9cacb0d35f5d9be686ba10cb1d4e34b646bbb87f7a269602060405160018152a2005b5061042b61049d33612ef7565b9050610422565b346102ce5760c06003193601126102ce5767ffffffffffffffff6004358181116102ce576104d6903690600401612a88565b6024803592604490813590606480359360849485358481116102ce57610500903690600401612d5b565b9560a49485359081116102ce5761051b903690600401612d5b565b957f82db594318110a04b6349ce48645aa69f0892751bc893d15e61d9e2b9c4630f560005260209460008652604060002033600052865260ff604060002054168015610610575b61056b90612e0a565b60005b895181101561060e578a8c8e60145460a01b7fffffffff0000000000000000000000000000000000000000000000000000000016916040519384938c8501528301608090528b83016105bf91612af2565b90898301528585830152878783015203601f19810182526105e09082612a49565b6105ea828b612e9c565b51906105f6838d612e9c565b5161060092612f75565b61060990612e6f565b61056e565b005b5061056b61061d33612ef7565b9050610562565b346102ce5760206003193601126102ce5761066061064c6106466004356131c1565b5061324b565b604051918291602083526020830190612af2565b0390f35b346102ce5760006003193601126102ce57604051806008548083526020809301809160086000527ff3f7a9fe364faab93b216da50a3214154f22a0a2b415b23a84c8169e8b636ee39060005b868282106107065786866106c682880383612a49565b604051928392818401908285525180915260408401929160005b8281106106ef57505050500390f35b8351855286955093810193928101926001016106e0565b8354855290930192600192830192016106b0565b346102ce5760206003193601126102ce5773ffffffffffffffffffffffffffffffffffffffff6107486130e3565b1633148015610763575b61075b90613125565b600435600355005b5061075b61077033612ef7565b9050610752565b346102ce5760606003193601126102ce5767ffffffffffffffff6004358181116102ce576107a9903690600401612d5b565b906024358181116102ce576107c2903690600401612d5b565b906044359081116102ce576107db903690600401612a88565b9073ffffffffffffffffffffffffffffffffffffffff6107f96130e3565b1633148015610856575b61080c90613125565b825181510361081e5761060e92613038565b60446040517f08c379a00000000000000000000000000000000000000000000000000000000081526020600482015260006024820152fd5b5061080c61086333612ef7565b9050610803565b346102ce5760806108b86108b260206108a361088536612c09565b929061088f61338c565b508160405193828580945193849201612acf565b8101600e8152030190206133e3565b506133b1565b6108e36040518092606080918051845260208101516020850152604081015160408501520151910152565bf35b346102ce5760606003193601126102ce5767ffffffffffffffff6004358181116102ce57610917903690600401612a88565b6024358281116102ce5761092f903690600401612a88565b6044359283116102ce5761094a61060e933690600401612a88565b9173ffffffffffffffffffffffffffffffffffffffff6109686130e3565b1633148015610980575b61097b90613125565b612f75565b5061097b61098d33612ef7565b9050610972565b346102ce5760406003193601126102ce5761060e6004356109b3612bc3565b908060005260006020526109ce600160406000200154613da4565b613eab565b346102ce5760c06003193601126102ce5767ffffffffffffffff6004356024358281116102ce57610a08903690600401612a88565b6044358381116102ce57610a20903690600401612a88565b6064358481116102ce57610a38903690600401612a88565b906084358581116102ce57610a51903690600401612d5b565b9260a4359586116102ce57610b3f610b4d92610ae3610a7761060e993690600401612d5b565b3360009081527fd4970c86de16ecd1df76427ebca809ee11eb7383bea0477ebfa92c227a1bfa4b602052604090205490969060ff168015610b52575b610abc90612e0a565b60405190610ac982612a19565b898252856020830152836040830152606082015288613563565b50610b0f60145460e01b9360405198899560208701526024860152606060448601526084850190612af2565b907fffffffffffffffffffffffffffffffffffffffffffffffffffffffffffffffdc848303016064850152612af2565b03601f198101855284612a49565b613038565b50610abc610b5f33612ef7565b9050610ab3565b346102ce5760006003193601126102ce576020600254604051908152f35b346102ce57610b9236612cb1565b90816040518481809651610bac816020998a809601612acf565b8101600e815203019020908154809111610c6e575b50610bcc82846133ff565b93601f19610bf2610bdc87612d43565b96610bea6040519889612a49565b808852612d43565b0160005b818110610c5857505050815b838110610c1757604051806106608782612c4b565b80610c4d610c28610c5393856133e3565b50610c3c610c3687856133ff565b916133b1565b610c46828a612e9c565b5287612e9c565b50612e6f565b610c02565b8290610c6261338c565b82828a01015201610bf6565b925084610bc1565b346102ce576020610c9e610c8936612c09565b92908160405193828580945193849201612acf565b810160108152030190209060005260205261066061064c604060002061324b565b346102ce5760406003193601126102ce5767ffffffffffffffff6004358181116102ce57610cf1903690600401612a88565b6024359182116102ce57610d716020610d11610d80943690600401612a88565b927f82db594318110a04b6349ce48645aa69f0892751bc893d15e61d9e2b9c4630f560005260008252604060002033600052825260ff604060002054168015610d8b575b610d5e90612e0a565b8160405193828580945193849201612acf565b81016013815203019020613423565b602060405160018152f35b50610d5e610d9833612ef7565b9050610d55565b346102ce5760606003193601126102ce5767ffffffffffffffff6024358181116102ce57610dd1903690600401612ddc565b90506044359182116102ce57610ded6000923690600401612ddc565b505073ffffffffffffffffffffffffffffffffffffffff60015416604051907f7ac07dcc0000000000000000000000000000000000000000000000000000000082523360048301528160248160209687945af1908115610f5957600091610f2c575b5015610ece5760025460043503610e70576004116102ce5760405160018152f35b606482604051907f08c379a00000000000000000000000000000000000000000000000000000000082526004820152600f60248201527f646170704944206469736d6174636800000000000000000000000000000000006044820152fd5b606482604051907f08c379a00000000000000000000000000000000000000000000000000000000082526004820152601860248201527f433343616c6c6572446170703a206f6e6c7943616c6c657200000000000000006044820152fd5b610f4c9150833d8511610f52575b610f448183612a49565b810190612edf565b83610e4f565b503d610f3a565b6040513d6000823e3d90fd5b346102ce5760206003193601126102ce5760043567ffffffffffffffff81116102ce5760ff610f9e6020610d5e81943690600401612a88565b8101600c81520301902054166040519015158152f35b346102ce576110ff610660610fc836612c09565b610fd3929192613334565b50610fdc613334565b506040519061107d84519260209381858093818a0193610ffd818387612acf565b8101600f8152030190204660005282526040600020966110676005604051996110258b6129fd565b80548b5260ff600182015416868c01526110416002820161324b565b60408c0152600381015460608c015261105c6004820161324b565b60808c01520161324b565b60a0890152604051938492839251928391612acf565b8101600f81520301902090600052815260406000206110e66005604051926110a4846129fd565b8054845260ff600182015416858501526110c06002820161324b565b6040850152600381015460608501526110db6004820161324b565b60808501520161324b565b60a0820152604051948594604086526040860190612b17565b9184830390850152612b17565b346102ce576020806003193601126102ce576004359067ffffffffffffffff8083116102ce57366023840112156102ce578260040135908082116102ce5760059360243684871b83018201116102ce5760405192858401918483108284111761132f57826040969496526000855261118384612d43565b956111916040519788612a49565b848752601f196111a086612d43565b018860005b82811061131f575050506000907fffffffffffffffffffffffffffffffffffffffffffffffffffffffffffffffbd81360301915b86811061125a57604080518b81528a51818d01819052600092818f1b83018101918d8f01918f9085015b8287106112105785850386f35b90919293828061124a837fffffffffffffffffffffffffffffffffffffffffffffffffffffffffffffffc08a600196030186528851612af2565b9601920196019592919092611203565b83818c1b83010135838112156102ce5782019084820135918683116102ce5760440182360381136102ce578b6000806112fc936112bc6112c88f611311998f91889260405195838794868601998a37840191858301938a855251938491612acf565b01038084520182612a49565b5190305af43d15611316573d6112dd81612a6c565b906112eb6040519283612a49565b8152600081933d92013e5b30613f4c565b611306828c612e9c565b52610c4d818b612e9c565b6111d9565b606091506112f6565b60608a82018301528a91016111a5565b7f4e487b710000000000000000000000000000000000000000000000000000000060005260416004526000fd5b346102ce5760406003193601126102ce5760243567ffffffffffffffff81116102ce5761064c6113ac611396610660933690600401612a88565b600435600052601260205260406000209061330e565b61324b565b346102ce5760206003193601126102ce576113ca612be6565b73ffffffffffffffffffffffffffffffffffffffff8091816113ea6130e3565b163314801561150d575b6113fd90613125565b169081156114af5761140d6130e3565b1690807fffffffffffffffffffffffff000000000000000000000000000000000000000083816004541617600455600554161760055560035442019182421161148057826006557f4552e521eca39a029d33503b3e2003db87de01f8396f9e3fdd9dddddb9b838b46020604051468152a4005b7f4e487b7100000000000000000000000000000000000000000000000000000000600052601160045260246000fd5b60646040517f08c379a000000000000000000000000000000000000000000000000000000000815260206004820152600f60248201527f6e6577476f7620697320656d70747900000000000000000000000000000000006044820152fd5b506113fd61151a33612ef7565b90506113f4565b346102ce5760006003193601126102ce5760206040517f82db594318110a04b6349ce48645aa69f0892751bc893d15e61d9e2b9c4630f58152f35b346102ce5760006003193601126102ce576020600b54604051908152f35b346102ce5760006003193601126102ce57602060405160008152f35b346102ce5760206003193601126102ce5760043567ffffffffffffffff81116102ce5761064c6115d26020610d5e610660943690600401612a88565b8101601381520301902061324b565b346102ce5760006003193601126102ce576020604051468152f35b346102ce5760806003193601126102ce5760043567ffffffffffffffff6024358181116102ce57611631903690600401612a88565b6044358281116102ce57611649903690600401612a88565b926064359283116102ce576020936116686116d8943690600401612a88565b907f82db594318110a04b6349ce48645aa69f0892751bc893d15e61d9e2b9c4630f560005260008652604060002033600052865260ff6040600020541680156116e2575b6116b590612e0a565b604051936116c285612a19565b8385528685015260408401526060830152613563565b6040519015158152f35b506116b56116ef33612ef7565b90506116ac565b346102ce5760406003193601126102ce5761170f612bc3565b600435600052600060205273ffffffffffffffffffffffffffffffffffffffff60406000209116600052602052602060ff604060002054166040519015158152f35b346102ce576101206003193601126102ce5767ffffffffffffffff6004358181116102ce57611784903690600401612a88565b90602435916044358281116102ce576117a1903690600401612a88565b906117aa612c3b565b936084359060a4358581116102ce576117c7903690600401612a88565b60c4358681116102ce576117df903690600401612a88565b9260e4358781116102ce576117f8903690600401612d5b565b956101049788359081116102ce57611814903690600401612d5b565b3360009081527fd4970c86de16ecd1df76427ebca809ee11eb7383bea0477ebfa92c227a1bfa4b602052604090205490999060ff168015611965575b61185990612e0a565b60405190611866826129fd565b85825260ff16908160208201528260408201528360608201528460808201528660a0820152611896908689613733565b5060145460c01b7fffffffff000000000000000000000000000000000000000000000000000000001696604051998a9860208a01526024890160e0905288016118de91612af2565b94604488015260648701527fffffffffffffffffffffffffffffffffffffffffffffffffffffffffffffffdc938487820301608488015261191e91612af2565b9060a4860152828582030160c486015261193791612af2565b908382030160e484015261194a91612af2565b03601f198101835261195c9083612a49565b61060e92613038565b5061185961197233612ef7565b9050611850565b346102ce576020806003193601126102ce5760043567ffffffffffffffff81116102ce5781610d5e6119af923690600401612a88565b8101600d815203019020908154916119c683612d43565b926119d46040519485612a49565b8084528284018092600052836000206000915b838310611a7d5750505050604051918083019381845251809452604083019360408160051b85010192916000955b828710611a225785850386f35b909192938280611a6d837fffffffffffffffffffffffffffffffffffffffffffffffffffffffffffffffc08a600196030186526040838a518051845201519181858201520190612af2565b9601920196019592919092611a15565b600286600192604099989951611a92816129b2565b85548152611aa185870161324b565b838201528152019201920191909594956119e7565b346102ce5760006003193601126102ce5760207fffffffff0000000000000000000000000000000000000000000000000000000060145460a01b16604051908152f35b346102ce5760006003193601126102ce576020600854604051908152f35b346102ce5760006003193601126102ce57600854611b3481612d43565b90611b426040519283612a49565b808252601f19611b5182612d43565b0160005b818110611c95575050611b66613367565b5060005b818110611bee576040805160208082528551818301819052600093600582901b8401810192808901929185015b828710611ba45785850386f35b909192938280611bde837fffffffffffffffffffffffffffffffffffffffffffffffffffffffffffffffc08a600196030186528851612b7a565b9601920196019592919092611b97565b80611bfb611c909261318a565b9054600391821b1c90816000526020600a815260406000209060405191611c2183612a19565b80548352611c55611c346001830161324b565b94838501958652611c476002840161324b565b92604086019384520161324b565b93846060809501525190519160405195611c6e87612a19565b86528501526040840152820152611c858286612e9c565b52610c4d8185612e9c565b611b6a565b602090611ca0613367565b82828701015201611b55565b346102ce5760806003193601126102ce5760043567ffffffffffffffff81116102ce576116d8611ce26020923690600401612a88565b7f82db594318110a04b6349ce48645aa69f0892751bc893d15e61d9e2b9c4630f560005260008352604060002033600052835260ff604060002054168015611d5a575b611d2e90612e0a565b60405190611d3b82612a19565b46825260243584830152604435604083015260643560608301526139f6565b50611d2e611d6733612ef7565b9050611d25565b346102ce5760006003193601126102ce576020600354604051908152f35b346102ce5760006003193601126102ce57600b54611da981612d43565b90611db76040519283612a49565b808252602090818301600b6000527f0175b7a638427703f0dbe7bb9bbf987a2551717b34e79f33b5b1008d1fa01db9836000925b848410611e0557604051828152806106608185018a612ce7565b6001918291611e138561324b565b8152019201920191908490611deb565b346102ce5760006003193601126102ce57602073ffffffffffffffffffffffffffffffffffffffff60015416604051908152f35b346102ce57611e776020611e6a36612cb1565b939161088f93919361338c565b810160118152030190209060005260205260406000209060005260205260806108b860406000206133b1565b346102ce57611eb136612c09565b90611eba613334565b506040518181809351611ed38160209687809601612acf565b8101600f815203019020826000528152604060002060405192611ef5846129fd565b8154845260ff60018301541683850152611f116002830161324b565b604085015260038201546060850152611f3f6005611f316004850161324b565b93608087019485520161324b565b60a085015281515115611f63575b5050610660604051928284938452830190612b17565b600052600a8252611f7a600260406000200161324b565b90528280611f4d565b346102ce576020806003193601126102ce5760043567ffffffffffffffff81116102ce5781610d5e611fb9923690600401612a88565b8101600e8152030190208054611fce81612d43565b91611fdc6040519384612a49565b8183526000908152838120938084015b83831061200157604051806106608782612c4b565b600482600192612010896133b1565b815201960192019194611fec565b346102ce5760006003193601126102ce57602060145460e01b7fffffffff0000000000000000000000000000000000000000000000000000000060405191168152f35b346102ce5760406003193601126102ce5761207a612bc3565b3373ffffffffffffffffffffffffffffffffffffffff8216036120a35761060e90600435613eab565b60046040517f6697b232000000000000000000000000000000000000000000000000000000008152fd5b346102ce5760e06003193601126102ce5767ffffffffffffffff6004358181116102ce576120ff903690600401612a88565b90602435916044358281116102ce5761211c903690600401612a88565b92612125612c3b565b9160a4358481116102ce5761213e903690600401612a88565b9460c4359485116102ce5760209561215d6116d8963690600401612a88565b917f82db594318110a04b6349ce48645aa69f0892751bc893d15e61d9e2b9c4630f560005260008852604060002033600052885260ff6040600020541680156121dd575b6121aa90612e0a565b60ff604051966121b9886129fd565b868852168887015260408601526084356060860152608085015260a0840152613733565b506121aa6121ea33612ef7565b90506121a1565b346102ce5760006003193601126102ce57602060405160018152f35b346102ce5761221b36612c09565b612223613334565b50604051828180945161223c8160209788809601612acf565b8101600f8152030190209060005281526040600020906122a6600560405193612264856129fd565b8054855260ff600182015416848601526122806002820161324b565b60408601526003810154606086015261229b6004820161324b565b60808601520161324b565b60a0830152610660604051928284938452830190612b17565b346102ce5760406003193601126102ce5761060e6004356122de612bc3565b908060005260006020526122f9600160406000200154613da4565b613e01565b346102ce5760206003193601126102ce5760043560005260006020526020600160406000200154604051908152f35b346102ce5760206003193601126102ce57602061234b60043561318a565b90546040519160031b1c8152f35b346102ce5760406003193601126102ce5767ffffffffffffffff6004358181116102ce5761238b903690600401612a88565b906024918235928284116102ce57366023850112156102ce5783600401359283116102ce57600793368285871b830101116102ce573360009081527fd4970c86de16ecd1df76427ebca809ee11eb7383bea0477ebfa92c227a1bfa4b602090815260409091205490959060ff16801561248f575b61240890612e0a565b60005b85811061241c578660405160018152f35b80821b83019060807fffffffffffffffffffffffffffffffffffffffffffffffffffffffffffffffdc83360301126102ce57610c4d61248a9260846040519161246483612a19565b88810135835260448101358c8401526064810135604084015201356060820152876139f6565b61240b565b5061240861249c33612ef7565b90506123ff565b346102ce5760206003193601126102ce576124bc613367565b50600435600052600a602052610660604060002061250e6003604051926124e284612a19565b805484526124f26001820161324b565b60208501526125036002820161324b565b60408501520161324b565b6060820152604051918291602083526020830190612b7a565b346102ce5760206003193601126102ce5760043567ffffffffffffffff81116102ce57612558903690600401612a88565b60405181519060208181850193612570818387612acf565b8101600d815203019020805461258581612d43565b916125936040519384612a49565b818352602083019060005260206000206000915b8383106127d757505050508051916125be83612d43565b936125cc6040519586612a49565b838552601f196125db85612d43565b0160005b8181106127c057505061260091602091604051938492839251928391612acf565b8101600f81520301902090612613613334565b5060005b8381106126a257846040518091602082016020835281518091526040830190602060408260051b8601019301916000905b82821061265757505050500390f35b91936020612692827fffffffffffffffffffffffffffffffffffffffffffffffffffffffffffffffc060019597998495030186528851612b17565b9601920192018594939192612648565b806126b061278a9284612e9c565b515180600052846020526040600020604051906126cc826129fd565b8054825260ff9081600182015416602084015261271860056002926126f284820161324b565b60408701526003810154606087015261270d6004820161324b565b60808701520161324b565b60a084015260808301515115806127b2575b61278f575b5060208201511690604081015160608201519060a06080840151930151936040519561275a876129fd565b8652602086015260408501526060840152608083015260a082015261277f8288612e9c565b52610c4d8187612e9c565b612617565b6127a79084600052600a60205260406000200161324b565b60808301528961272f565b50604083015151151561272a565b6020906127cb613334565b82828a010152016125df565b600260206001926040516127ea816129b2565b855481526127f985870161324b565b838201528152019201920191906125a7565b346102ce5760006003193601126102ce5760206128266130e3565b73ffffffffffffffffffffffffffffffffffffffff60405191168152f35b346102ce5760006003193601126102ce5760207fffffffff0000000000000000000000000000000000000000000000000000000060145460801b16604051908152f35b346102ce5760006003193601126102ce5760207fffffffff0000000000000000000000000000000000000000000000000000000060145460c01b16604051908152f35b346102ce5760206003193601126102ce5760043567ffffffffffffffff81116102ce576129016020610d5e81933690600401612a88565b8101600e81520301902054604051908152f35b346102ce5760206003193601126102ce57600435907fffffffff0000000000000000000000000000000000000000000000000000000082168092036102ce57817f7965db0b0000000000000000000000000000000000000000000000000000000060209314908115612988575b5015158152f35b7f01ffc9a70000000000000000000000000000000000000000000000000000000091501483612981565b6040810190811067ffffffffffffffff8211176129ce57604052565b7f4e487b7100000000000000000000000000000000000000000000000000000000600052604160045260246000fd5b60c0810190811067ffffffffffffffff8211176129ce57604052565b6080810190811067ffffffffffffffff8211176129ce57604052565b67ffffffffffffffff81116129ce57604052565b90601f601f19910116810190811067ffffffffffffffff8211176129ce57604052565b67ffffffffffffffff81116129ce57601f01601f191660200190565b81601f820112156102ce57803590612a9f82612a6c565b92612aad6040519485612a49565b828452602083830101116102ce57816000926020809301838601378301015290565b60005b838110612ae25750506000910152565b8181015183820152602001612ad2565b90601f19601f602093612b1081518092818752878088019101612acf565b0116010190565b612b77918151815260ff602083015116602082015260a0612b66612b4a604085015160c0604086015260c0850190612af2565b6060850151606085015260808501518482036080860152612af2565b9201519060a0818403910152612af2565b90565b612b7791815181526060612bb2612ba06020850151608060208601526080850190612af2565b60408501518482036040860152612af2565b920151906060818403910152612af2565b6024359073ffffffffffffffffffffffffffffffffffffffff821682036102ce57565b6004359073ffffffffffffffffffffffffffffffffffffffff821682036102ce57565b60406003198201126102ce576004359067ffffffffffffffff82116102ce57612c3491600401612a88565b9060243590565b6064359060ff821682036102ce57565b6020908160408183019282815285518094520193019160005b828110612c72575050505090565b9091929382608082612ca56001948951606080918051845260208101516020850152604081015160408501520151910152565b01950193929101612c64565b60606003198201126102ce576004359067ffffffffffffffff82116102ce57612cdc91600401612a88565b906024359060443590565b908082519081815260208091019281808460051b8301019501936000915b848310612d155750505050505090565b9091929394958480612d3383601f1986600196030187528a51612af2565b9801930193019194939290612d05565b67ffffffffffffffff81116129ce5760051b60200190565b9080601f830112156102ce57813590612d7382612d43565b92612d816040519485612a49565b828452602092838086019160051b830101928084116102ce57848301915b848310612daf5750505050505090565b823567ffffffffffffffff81116102ce578691612dd184848094890101612a88565b815201920191612d9f565b9181601f840112156102ce5782359167ffffffffffffffff83116102ce57602083818601950101116102ce57565b15612e1157565b60646040517f08c379a000000000000000000000000000000000000000000000000000000000815260206004820152601260248201527f54523a204155544820464f5242494444454e00000000000000000000000000006044820152fd5b7fffffffffffffffffffffffffffffffffffffffffffffffffffffffffffffffff81146114805760010190565b8051821015612eb05760209160051b010190565b7f4e487b7100000000000000000000000000000000000000000000000000000000600052603260045260246000fd5b908160209103126102ce575180151581036102ce5790565b602073ffffffffffffffffffffffffffffffffffffffff6024816001541693600060405195869485937f7ac07dcc0000000000000000000000000000000000000000000000000000000085521660048401525af1908115610f5957600091612f5d575090565b612b77915060203d8111610f5257610f448183612a49565b91909173ffffffffffffffffffffffffffffffffffffffff60015416600254813b156102ce5760006020612fed968261301081986130006040519b8c9a8b997f27a63fd8000000000000000000000000000000000000000000000000000000008b5260048b015260a060248b015260a48a0190612af2565b60031995868a83030160448b0152612af2565b9084888303016064890152612af2565b85810392830160848701525201925af18015610f595761302d5750565b61303690612a35565b565b909173ffffffffffffffffffffffffffffffffffffffff6001541660025492813b156102ce57600080946130d26130c3976130b096604051998a98899788967fec6a8b7d0000000000000000000000000000000000000000000000000000000088526004880152608060248801526084870190612ce7565b6003199384878303016044880152612ce7565b91848303016064850152612af2565b03925af18015610f595761302d5750565b6006544210156131095773ffffffffffffffffffffffffffffffffffffffff6004541690565b73ffffffffffffffffffffffffffffffffffffffff6005541690565b1561312c57565b60646040517f08c379a000000000000000000000000000000000000000000000000000000000815260206004820152600d60248201527f476f7620464f5242494444454e000000000000000000000000000000000000006044820152fd5b600854811015612eb05760086000527ff3f7a9fe364faab93b216da50a3214154f22a0a2b415b23a84c8169e8b636ee30190600090565b600b54811015612eb057600b6000527f0175b7a638427703f0dbe7bb9bbf987a2551717b34e79f33b5b1008d1fa01db90190600090565b90600182811c92168015613241575b602083101461321257565b7f4e487b7100000000000000000000000000000000000000000000000000000000600052602260045260246000fd5b91607f1691613207565b906040519182600082549261325f846131f8565b9081845260019485811690816000146132cc5750600114613289575b505061303692500383612a49565b9093915060005260209081600020936000915b8183106132b45750506130369350820101388061327b565b8554888401850152948501948794509183019161329c565b90506130369550602093507fffffffffffffffffffffffffffffffffffffffffffffffffffffffffffffff0091501682840152151560051b820101388061327b565b602090613328928260405194838680955193849201612acf565b82019081520301902090565b60405190613341826129fd565b606060a08360008152600060208201528260408201526000838201528260808201520152565b6040519061337482612a19565b60608083600081528160208201528160408201520152565b6040519061339982612a19565b60006060838281528260208201528260408201520152565b906040516133be81612a19565b6060600382948054845260018101546020850152600281015460408501520154910152565b8054821015612eb05760005260206000209060021b0190600090565b9190820391821161148057565b818110613417575050565b6000815560010161340c565b919091825167ffffffffffffffff81116129ce5761344182546131f8565b601f8111613526575b50602080601f83116001146134a4575081929394600092613499575b50507fffffffffffffffffffffffffffffffffffffffffffffffffffffffffffffffff8260011b9260031b1c1916179055565b015190503880613466565b90601f198316958460005282600020926000905b88821061350e575050836001959697106134d7575b505050811b019055565b01517fffffffffffffffffffffffffffffffffffffffffffffffffffffffffffffffff60f88460031b161c191690553880806134cd565b806001859682949686015181550195019301906134b8565b61355390836000526020600020601f840160051c81019160208510613559575b601f0160051c019061340c565b3861344a565b9091508190613546565b9081156102ce576000828152602090600a8252604091828220918451835581850190613593825160018601613423565b6135b76060868801976135aa895160028901613423565b0194600386519101613423565b868152600a835286858220556009835260ff85822054161561363f575b50927fce7ec6b2d861c96c6b9999e9d87ee85f3a3afcd15ebd381a0a4f5133b78cc0ee949261362a6136379361361d965195519251928451978897606089526060890190612af2565b9187830390880152612af2565b9184830390850152612af2565b0390a2600190565b600854680100000000000000008110156137065761363793869361361d977fce7ec6b2d861c96c6b9999e9d87ee85f3a3afcd15ebd381a0a4f5133b78cc0ee9997948b61369586600161362a980160085561318a565b7fffffffffffffffffffffffffffffffffffffffffffffffffffffffffffffffff829392549160031b92831b921b19161790558b8152600984522060017fffffffffffffffffffffffffffffffffffffffffffffffffffffffffffffff0082541617905593965093505092946135d4565b6024827f4e487b710000000000000000000000000000000000000000000000000000000081526041600452fd5b92919281151580613993575b156102ce57818452604093845191805190602093848181840194613764818388612acf565b8101600f8152030190209260009386855285528784209181518355600183018683019060ff825116907fffffffffffffffffffffffffffffffffffffffffffffffffffffffffffffff0091828254161790558a8401956137c8875160028801613423565b6060850197885160038801556137f960a060808801976137ec895160048c01613423565b0197600589519101613423565b60ff8d518b81885161380c818389612acf565b8101600c8152030190205416156138b3575b5050506138a59261388986959360c08b9c9d60ff613897966138677fb2fcbe1c1d185ca80230c812e8ddc6d1b10a441d37c49efc02142cb876f5a4b39f6136379d519087613b6c565b51169a519851945196519881519c8d9c8d528c01528a015260c0890190612af2565b908782036060890152612af2565b908582036080870152612af2565b9083820360a0850152612af2565b600b5468010000000000000000811015613706578060016138d79201600b556131c1565b91909161396757509360c08b9c9d60ff613897966138677fb2fcbe1c1d185ca80230c812e8ddc6d1b10a441d37c49efc02142cb876f5a4b39f8f9860016136379f9e9c6138a59e9b6138899b6139308c61394194613423565b8b8a51938492839251928391612acf565b8101600c8152030190209182541617905550509650509d9c9b505093959682955061381e565b807f4e487b71000000000000000000000000000000000000000000000000000000006024925280600452fd5b508051151561373f565b91906139c75780518255602081015160018301556040810151600283015560600151600390910155565b7f4e487b7100000000000000000000000000000000000000000000000000000000600052600060045260246000fd5b805180156102ce578251602090613a7a8280870151946040518281818a0193613a20818387612acf565b81016011815203019020966000978589528352604088208789528352613a698960408a209060606003918051845560208101516001850155604081015160028501550151910155565b604051938492839251928391612acf565b8101600e81520301902092835492613a9061338c565b50855b848110613b0057505050505080549168010000000000000000831015613ad3575081613ac8916001613ace95940181556133e3565b9061399d565b600190565b807f4e487b7100000000000000000000000000000000000000000000000000000000602492526041600452fd5b613b0d6108b282886133e3565b8383868351149283613b43575b505050613b2f57613b2a90612e6f565b613a93565b9350505050613ace939250613ac8916133e3565b0151149050838338613b1a565b8054821015612eb05760005260206000209060011b0190600090565b909182151580613d9a575b156102ce57600090838252601290602093828552613be985604092613ba781613ba2868a208861330e565b613423565b835190805191838181840194613bbe818388612acf565b810160108152030190208a89528352613bd986868a20613423565b8451938492839251928391612acf565b8101600d81520301902092845b8454811015613d195787613c0a8287613b50565b505414613c1f57613c1a90612e6f565b613bf6565b96613c2a8886613b50565b5097613c396001809a0161324b565b948051865181149081613cc9575b5015613c5a575b50505050505050505050565b600099613c6d613c7493613c8099613b50565b5001613423565b8552855283209061330e565b91613c8b83546131f8565b90601f90818311613cab575b505050505538808080808080808080613c4e565b8385613cc0955220910160051c81019061340c565b38808080613c97565b90508551613cf08b8281810194613ce38187858a01612acf565b8101038084520182612a49565b51902085518a810190613d0f8c8281613ce38d87815193849201612acf565b5190201438613c47565b5050519294909390613d2a846129b2565b8352820192835280549068010000000000000000821015613d6d5790613d5591600182018155613b50565b93909361396757505182555161303691600101613423565b6024857f4e487b710000000000000000000000000000000000000000000000000000000081526041600452fd5b5081511515613b77565b80600052600060205260406000203360005260205260ff6040600020541615613dca5750565b604490604051907fe2517d3f0000000000000000000000000000000000000000000000000000000082523360048301526024820152fd5b906000918083528260205273ffffffffffffffffffffffffffffffffffffffff6040842092169182845260205260ff60408420541615600014613ea65780835282602052604083208284526020526040832060017fffffffffffffffffffffffffffffffffffffffffffffffffffffffffffffff008254161790557f2f8788117e7eff1d82e926ec794901d17c78024a50270940304540a733656f0d339380a4600190565b505090565b906000918083528260205273ffffffffffffffffffffffffffffffffffffffff6040842092169182845260205260ff604084205416600014613ea6578083528260205260408320828452602052604083207fffffffffffffffffffffffffffffffffffffffffffffffffffffffffffffff0081541690557ff6391f5c32d9c69d2a47ea670b442974b53935d1edc7fd64eb21e047a839171b339380a4600190565b90613f8b5750805115613f6157805190602001fd5b60046040517f1425ea42000000000000000000000000000000000000000000000000000000008152fd5b81511580613fe3575b613f9c575090565b60249073ffffffffffffffffffffffffffffffffffffffff604051917f9996b315000000000000000000000000000000000000000000000000000000008352166004820152fd5b50803b15613f9456fea26469706673582212201cfca6d55b01d21b9afce8be84633dbdff55e2c8acba069a87a6ecb9cfe16f8964736f6c634300081400332f8788117e7eff1d82e926ec794901d17c78024a50270940304540a733656f0d","linkReferences":{}},"methodIdentifiers":{"CONFIG_ROLE()":"a4d19feb","CONFIG_VERSION()":"34e30097","DEFAULT_ADMIN_ROLE()":"a217fddf","FuncSetChainConfig()":"37d56306","FuncSetFeeConfig()":"099517fd","FuncSetSwapConfig()":"8df2931c","FuncSetTokenConfig()":"090d8d0b","addTxSender(address)":"eebd14af","c3CallerProxy()":"58f2c057","c3Fallback(uint256,bytes,bytes)":"b121f51d","cID()":"99a2f2d7","changeGov(address)":"a962ef1e","dappID()":"c516ad11","delay()":"6a42b8f8","disableTxSender(address)":"f9e4cbaf","doGov(string,string,bytes)":"d60ad41b","doGovBroadcast(string[],string[],bytes)":"dd64b3e6","getAllChainConfig()":"71a4a947","getAllChainIDLength()":"72c93288","getAllChainIDs()":"e27112d5","getAllMultichainTokenConfig(string)":"160dcc6f","getAllMultichainTokens(string)":"8fcb62a3","getAllSwapConfigs(string)":"3c6b1a8f","getAllTokenIDLength()":"a43f37d7","getAllTokenIDs()":"684a10b3","getChainConfig(uint256)":"19ed16dc","getChainIDByIndex(uint256)":"21576975","getMPCPubkey(string)":"9f1cdedd","getMultichainToken(string,uint256)":"b735ab5a","getOriginalTokenConfig(string,uint256)":"339d7ed8","getRoleAdmin(bytes32)":"248a9ca3","getSwapConfig(string,uint256,uint256)":"4da7163c","getSwapConfigAtIndex(string,uint256)":"d825b3ef","getSwapConfigAtIndexRange(string,uint256,uint256)":"c03411ba","getSwapConfigsCount(string)":"06e9a46a","getTokenConfig(string,uint256)":"459511d1","getTokenConfigIfExist(string,uint256)":"acf037f8","getTokenID(uint256,string)":"abad7b5c","getTokenIDByIndex(uint256)":"e828d00f","gov()":"12d43a51","grantRole(bytes32,address)":"2f2ff15d","hasRole(bytes32,address)":"91d14854","isChainIDExist(uint256)":"fd15ea70","isTokenIDExist(string)":"af611ca0","isValidSender(address)":"f01f2b8b","multicall(bytes[])":"ac9650d8","renounceRole(bytes32,address)":"36568abe","revokeRole(bytes32,address)":"d547741f","setChainConfig(uint256,string,string,string)":"95d4105c","setChainConfigGov(uint256,string,string,string,string[],string[])":"d16c4112","setDelay(uint256)":"e177246e","setMPCPubkey(string,string)":"b4d8d47c","setSwapConfig(string,uint256,uint256,uint256)":"6e35edfd","setSwapConfigGov(string,uint256,uint256,uint256,string[],string[])":"e8c97455","setSwapConfigs(string,(uint256,uint256,uint256,uint256)[])":"1a192d82","setTokenConfig(string,uint256,string,uint8,uint256,string,string)":"34fd0135","setTokenConfigGov(string,uint256,string,uint8,uint256,string,string,string[],string[])":"91add06c","supportsInterface(bytes4)":"01ffc9a7"},"id":10}