{"abi":[{"type":"constructor","inputs":[{"name":"_gov","type":"address","internalType":"address"},{"name":"_c3callerProxy","type":"address","internalType":"address"},{"name":"_txSender","type":"address","internalType":"address"},{"name":"_dappID","type":"uint256","internalType":"uint256"}],"stateMutability":"nonpayable"},{"type":"function","name":"addSupportedCaller","inputs":[{"name":"caller","type":"address","internalType":"address"}],"outputs":[{"name":"","type":"bool","internalType":"bool"}],"stateMutability":"nonpayable"},{"type":"function","name":"addTxSender","inputs":[{"name":"txSender","type":"address","internalType":"address"}],"outputs":[],"stateMutability":"nonpayable"},{"type":"function","name":"c3CallerProxy","inputs":[],"outputs":[{"name":"","type":"address","internalType":"address"}],"stateMutability":"view"},{"type":"function","name":"c3Fallback","inputs":[{"name":"_dappID","type":"uint256","internalType":"uint256"},{"name":"_data","type":"bytes","internalType":"bytes"},{"name":"_reason","type":"bytes","internalType":"bytes"}],"outputs":[{"name":"","type":"bool","internalType":"bool"}],"stateMutability":"nonpayable"},{"type":"function","name":"changeGov","inputs":[{"name":"newGov","type":"address","internalType":"address"}],"outputs":[],"stateMutability":"nonpayable"},{"type":"function","name":"completedUUID","inputs":[{"name":"","type":"bytes32","internalType":"bytes32"}],"outputs":[{"name":"","type":"bool","internalType":"bool"}],"stateMutability":"view"},{"type":"function","name":"currentNonce","inputs":[],"outputs":[{"name":"","type":"uint256","internalType":"uint256"}],"stateMutability":"view"},{"type":"function","name":"dappID","inputs":[],"outputs":[{"name":"","type":"uint256","internalType":"uint256"}],"stateMutability":"view"},{"type":"function","name":"delay","inputs":[],"outputs":[{"name":"","type":"uint256","internalType":"uint256"}],"stateMutability":"view"},{"type":"function","name":"disableTxSender","inputs":[{"name":"txSender","type":"address","internalType":"address"}],"outputs":[],"stateMutability":"nonpayable"},{"type":"function","name":"doGov","inputs":[{"name":"_to","type":"string","internalType":"string"},{"name":"_toChainID","type":"string","internalType":"string"},{"name":"_data","type":"bytes","internalType":"bytes"}],"outputs":[],"stateMutability":"nonpayable"},{"type":"function","name":"doGovBroadcast","inputs":[{"name":"_targets","type":"string[]","internalType":"string[]"},{"name":"_toChainIDs","type":"string[]","internalType":"string[]"},{"name":"_data","type":"bytes","internalType":"bytes"}],"outputs":[],"stateMutability":"nonpayable"},{"type":"function","name":"genUUIDEvm","inputs":[{"name":"data","type":"tuple","internalType":"struct ITheiaUUIDKeeper.EvmData","components":[{"name":"token","type":"address","internalType":"address"},{"name":"from","type":"address","internalType":"address"},{"name":"amount","type":"uint256","internalType":"uint256"},{"name":"receiver","type":"address","internalType":"address"},{"name":"toChainID","type":"uint256","internalType":"uint256"}]}],"outputs":[{"name":"uuid","type":"bytes32","internalType":"bytes32"}],"stateMutability":"nonpayable"},{"type":"function","name":"genUUIDNonEvm","inputs":[{"name":"data","type":"tuple","internalType":"struct ITheiaUUIDKeeper.NonEvmData","components":[{"name":"token","type":"address","internalType":"address"},{"name":"from","type":"address","internalType":"address"},{"name":"amount","type":"uint256","internalType":"uint256"},{"name":"toChainID","type":"uint256","internalType":"uint256"},{"name":"receiver","type":"string","internalType":"string"},{"name":"callData","type":"bytes","internalType":"bytes"}]}],"outputs":[{"name":"uuid","type":"bytes32","internalType":"bytes32"}],"stateMutability":"nonpayable"},{"type":"function","name":"getAllSupportedCallers","inputs":[],"outputs":[{"name":"","type":"address[]","internalType":"address[]"}],"stateMutability":"view"},{"type":"function","name":"gov","inputs":[],"outputs":[{"name":"","type":"address","internalType":"address"}],"stateMutability":"view"},{"type":"function","name":"isCompleted","inputs":[{"name":"uuid","type":"bytes32","internalType":"bytes32"}],"outputs":[{"name":"","type":"bool","internalType":"bool"}],"stateMutability":"view"},{"type":"function","name":"isExist","inputs":[{"name":"swapoutID","type":"bytes32","internalType":"bytes32"}],"outputs":[{"name":"","type":"bool","internalType":"bool"}],"stateMutability":"view"},{"type":"function","name":"isSupportedCaller","inputs":[{"name":"","type":"address","internalType":"address"}],"outputs":[{"name":"","type":"bool","internalType":"bool"}],"stateMutability":"view"},{"type":"function","name":"isValidSender","inputs":[{"name":"txSender","type":"address","internalType":"address"}],"outputs":[{"name":"","type":"bool","internalType":"bool"}],"stateMutability":"view"},{"type":"function","name":"registerUUID","inputs":[{"name":"uuid","type":"bytes32","internalType":"bytes32"}],"outputs":[],"stateMutability":"nonpayable"},{"type":"function","name":"removeSupportedCaller","inputs":[{"name":"caller","type":"address","internalType":"address"}],"outputs":[{"name":"","type":"bool","internalType":"bool"}],"stateMutability":"nonpayable"},{"type":"function","name":"setDelay","inputs":[{"name":"_delay","type":"uint256","internalType":"uint256"}],"outputs":[],"stateMutability":"nonpayable"},{"type":"function","name":"supportedCallers","inputs":[{"name":"","type":"uint256","internalType":"uint256"}],"outputs":[{"name":"","type":"address","internalType":"address"}],"stateMutability":"view"},{"type":"function","name":"uuidNonce","inputs":[{"name":"","type":"bytes32","internalType":"bytes32"}],"outputs":[{"name":"","type":"uint256","internalType":"uint256"}],"stateMutability":"view"},{"type":"event","name":"LogChangeGov","inputs":[{"name":"oldGov","type":"address","indexed":true,"internalType":"address"},{"name":"newGov","type":"address","indexed":true,"internalType":"address"},{"name":"effectiveTime","type":"uint256","indexed":true,"internalType":"uint256"},{"name":"chainID","type":"uint256","indexed":false,"internalType":"uint256"}],"anonymous":false},{"type":"event","name":"LogTxSender","inputs":[{"name":"txSender","type":"address","indexed":true,"internalType":"address"},{"name":"vaild","type":"bool","indexed":false,"internalType":"bool"}],"anonymous":false}],"bytecode":{"object":"0x608034620000d857601f62001bcb38819003918201601f19168301916001600160401b03831184841017620000dd57808492608094604052833981010312620000d8576200004d81620000f3565b906200005c60208201620000f3565b60606200006c60408401620000f3565b92015160018060a01b039384918260018060a01b031994168460005416176000556001556202a3006002551690818160035416176003556004541617600455426005551660005260066020526040600020600160ff19825416179055604051611ac29081620001098239f35b600080fd5b634e487b7160e01b600052604160045260246000fd5b51906001600160a01b0382168203620000d85756fe6040608081526004908136101561001557600080fd5b600091823560e01c90816308cb277f146112c057816312cab545146101f857816312d43a5114611286578163580e70d51461115c57816358f2c057146111295781636a42b8f81461110a578163762fee18146110e0578163975e95bb14611097578163a962ef1e14610f28578163adb610a314610f09578163ae74db0514610e1057838263b121f51d14610c6957508163bce3935014610c1a578163c516ad1114610bfb578163ceb2901614610bd3578163cfd1ec83146109d6578163d60ad41b14610880578163d719a23814610613578163d726d06114610534578163dd64b3e614610392578163e177246e14610334578163eebd14af14610272578163f01f2b8b14610229578163f7e41057146101f8575063f9e4cbaf1461013857600080fd5b346101f45760206003193601126101f4577fbfb8b3e2f6221ae729e9cacb0d35f5d9be686ba10cb1d4e34b646bbb87f7a2696020610174611333565b73ffffffffffffffffffffffffffffffffffffffff90816101936115a5565b16331480156101e0575b6101a6906115e7565b1692838552600682528085207fffffffffffffffffffffffffffffffffffffffffffffffffffffffffffffff00815416905551848152a280f35b506101a66101ed3361164c565b905061019d565b5080fd5b905034610225576020600319360112610225578160209360ff923581526009855220541690519015158152f35b8280fd5b5050346101f45760206003193601126101f45760ff8160209373ffffffffffffffffffffffffffffffffffffffff61025f611333565b1681526006855220541690519015158152f35b5050346101f45760206003193601126101f4577fbfb8b3e2f6221ae729e9cacb0d35f5d9be686ba10cb1d4e34b646bbb87f7a26960206102b0611333565b73ffffffffffffffffffffffffffffffffffffffff90816102cf6115a5565b1633148015610320575b6102e2906115e7565b16928385526006825280852060017fffffffffffffffffffffffffffffffffffffffffffffffffffffffffffffff008254161790555160018152a280f35b506102e261032d3361164c565b90506102d9565b8390346101f45760206003193601126101f45773ffffffffffffffffffffffffffffffffffffffff6103646115a5565b163314801561037e575b610377906115e7565b3560025580f35b5061037761038b3361164c565b905061036e565b8383346101f457600319906060823601126102255767ffffffffffffffff918435838111610530576103c79036908701611509565b60243584811161052c576103de9036908801611509565b9360443590811161052c576103f69036908801611494565b73ffffffffffffffffffffffffffffffffffffffff96876104156115a5565b1633148015610518575b610428906115e7565b82518651036104e25786978754169160015491833b156104de576104af899687936104a06104909b8b519c8d9a8b998a987fec6a8b7d000000000000000000000000000000000000000000000000000000008a52890152608060248901526084880190611737565b9084878303016044880152611737565b918483030160648501526116d9565b03925af19081156104d557506104c25750f35b6104cb90611410565b6104d25780f35b80fd5b513d84823e3d90fd5b8880fd5b6044908760208751927f08c379a00000000000000000000000000000000000000000000000000000000084528301526024820152fd5b506104286105253361164c565b905061041f565b8580fd5b8480fd5b8284346104d257806003193601126104d2579080519182906008549182855260208095018093600884527ff3f7a9fe364faab93b216da50a3214154f22a0a2b415b23a84c8169e8b636ee390845b8181106105e95750505081610598910382611453565b83519485948186019282875251809352850193925b8281106105bc57505050500390f35b835173ffffffffffffffffffffffffffffffffffffffff16855286955093810193928101926001016105ad565b825473ffffffffffffffffffffffffffffffffffffffff1684529288019260019283019201610582565b91905034610225576020926003199084823601126104d257833567ffffffffffffffff928382116102255760c09082360301126101f45783519260c084018481108282111761085257855261066982870161135b565b84526106776024830161135b565b918785019283528585019060448101358252606086019060648101358252608481013584811161084e576106b0908a3691840101611494565b936080880194855260a482013590811161084e576107b693926106dc8c938c6107aa9436920101611494565b60a08a01908152338952600784526106f960ff8c8b205416611976565b610704600b546117b1565b998a600b5573ffffffffffffffffffffffffffffffffffffffff809151169851169651945191519051908b51978895860199308b528d3390880152466060880152608087015260a0860152610767610140968760c08801526101608701906116d9565b9260e08601528a6101008601526101208501527fffffffffffffffffffffffffffffffffffffffffffffffffffffffffffffffe0948585840301908501526116d9565b03908101835282611453565b51902093848451917f762fee180000000000000000000000000000000000000000000000000000000083528201528581602481305afa90811561084457829161080891869491610817575b5015611a01565b848152600a8652205551908152f35b6108379150883d8a1161083d575b61082f8183611453565b81019061158d565b38610801565b503d610825565b84513d84823e3d90fd5b8680fd5b6041877f4e487b71000000000000000000000000000000000000000000000000000000006000525260246000fd5b9190503461022557826003196060813601126101f45767ffffffffffffffff84358181116109d2576108b59036908701611494565b94602435828111610530576108cd9036908301611494565b91604435908111610530576108e59036908301611494565b73ffffffffffffffffffffffffffffffffffffffff806109036115a5565b16331480156109be575b610916906115e7565b8554169260015494843b1561084e578661099281946109826020956109728d519e8f9c8d9b7f27a63fd8000000000000000000000000000000000000000000000000000000008d528c015260a060248c015260a48b01906116d9565b90868a83030160448b01526116d9565b90848883030160648901526116d9565b85810392830160848701525201925af19081156104d557506109b2575080f35b6109bb90611410565b80f35b506109166109cb3361164c565b905061090d565b8380fd5b919050346102255760a060031936011261022557805167ffffffffffffffff9360a0820185811183821017610ba7578352610a0f611333565b82526024359473ffffffffffffffffffffffffffffffffffffffff90818716870361022557602096878501908152858501604435815260643593808516850361052c57606087019485526080870190608435825233875260078b52610a7960ff8a89205416611976565b8080610a86600b546117b1565b998a600b55511694511695511691519051918851958b870194308652338b890152466060890152608088015260a087015260c086015260e08501528561010085015261012090818501528352610140968784019284841090841117610b7b575081865282519020957f762fee18000000000000000000000000000000000000000000000000000000008252866101448401528782602481305afa928315610b71579184939161080893889693610b40575b50505015611a01565b610b6193508a903d8c11610b69575b610b598285611453565b01019061158d565b388080610b37565b3d9150610b4f565b86513d86823e3d90fd5b8460416024927f4e487b7100000000000000000000000000000000000000000000000000000000835252fd5b6024826041877f4e487b7100000000000000000000000000000000000000000000000000000000835252fd5b905034610225576020600319360112610225576020928291358152600a845220549051908152f35b5050346101f457816003193601126101f4576020906001549051908152f35b9050346102255760206003193601126102255735916008548310156104d2575073ffffffffffffffffffffffffffffffffffffffff610c5a6020936113aa565b92905490519260031b1c168152f35b9150346101f45760606003193601126101f45767ffffffffffffffff906024358281116109d257610c9d903690830161137c565b92604435915081116109d257610cb6903690830161137c565b505073ffffffffffffffffffffffffffffffffffffffff8354168451907f7ac07dcc0000000000000000000000000000000000000000000000000000000082523383830152816024816020998a945af1908115610e06578491610de9575b5015610d8d57600154813503610d3157116104d257505160018152f35b606490858551917f08c379a0000000000000000000000000000000000000000000000000000000008352820152600f60248201527f646170704944206469736d6174636800000000000000000000000000000000006044820152fd5b606490858551917f08c379a0000000000000000000000000000000000000000000000000000000008352820152601860248201527f433343616c6c6572446170703a206f6e6c7943616c6c657200000000000000006044820152fd5b610e009150863d881161083d5761082f8183611453565b38610d14565b85513d86823e3d90fd5b905034610225576020600319360112610225578035903384526007602052610e3d60ff8486205416611976565b818452600960205260ff8385205416610e86575082526009602052812060017fffffffffffffffffffffffffffffffffffffffffffffffffffffffffffffff0082541617905580f35b60849060208451917f08c379a0000000000000000000000000000000000000000000000000000000008352820152602260248201527f5468656961555549444b65657065723a207575696420697320636f6d706c657460448201527f65640000000000000000000000000000000000000000000000000000000000006064820152fd5b5050346101f457816003193601126101f457602090600b549051908152f35b9190503461022557602060031936011261022557610f44611333565b9073ffffffffffffffffffffffffffffffffffffffff809281610f656115a5565b1633148015611083575b610f78906115e7565b1691821561102657610f886115a5565b1690827fffffffffffffffffffffffff000000000000000000000000000000000000000083816003541617600355855416178455600254420193844211610ffa575060207f4552e521eca39a029d33503b3e2003db87de01f8396f9e3fdd9dddddb9b838b4918560055551468152a480f35b8560116024927f4e487b7100000000000000000000000000000000000000000000000000000000835252fd5b60648460208451917f08c379a0000000000000000000000000000000000000000000000000000000008352820152600f60248201527f6e6577476f7620697320656d70747900000000000000000000000000000000006044820152fd5b50610f786110903361164c565b9050610f6f565b5050346101f45760206003193601126101f45760ff8160209373ffffffffffffffffffffffffffffffffffffffff6110cd611333565b1681526007855220541690519015158152f35b905034610225576020600319360112610225576020928291358152600a8452205415159051908152f35b5050346101f457816003193601126101f4576020906002549051908152f35b5050346101f457816003193601126101f45773ffffffffffffffffffffffffffffffffffffffff60209254169051908152f35b8284346104d25760206003193601126104d257611177611333565b9073ffffffffffffffffffffffffffffffffffffffff806111966115a5565b1633148015611272575b6111a9906115e7565b821681526007602052828120805460ff8116610225577fffffffffffffffffffffffffffffffffffffffffffffffffffffffffffffff0016600117905560085490680100000000000000008210156112465760208461123f8561121286600181016008556113aa565b90919082549060031b9173ffffffffffffffffffffffffffffffffffffffff809116831b921b1916179055565b5160018152f35b806041867f4e487b71000000000000000000000000000000000000000000000000000000006024945252fd5b506111a961127f3361164c565b90506111a0565b5050346101f457816003193601126101f45760209073ffffffffffffffffffffffffffffffffffffffff6112b86115a5565b915191168152f35b5050346101f45760206003193601126101f4576020906113166112e1611333565b73ffffffffffffffffffffffffffffffffffffffff6112fe6115a5565b163314801561131f575b611311906115e7565b61180d565b90519015158152f35b5061131161132c3361164c565b9050611308565b6004359073ffffffffffffffffffffffffffffffffffffffff8216820361135657565b600080fd5b359073ffffffffffffffffffffffffffffffffffffffff8216820361135657565b9181601f840112156113565782359167ffffffffffffffff8311611356576020838186019501011161135657565b6008548110156113e15760086000527ff3f7a9fe364faab93b216da50a3214154f22a0a2b415b23a84c8169e8b636ee30190600090565b7f4e487b7100000000000000000000000000000000000000000000000000000000600052603260045260246000fd5b67ffffffffffffffff811161142457604052565b7f4e487b7100000000000000000000000000000000000000000000000000000000600052604160045260246000fd5b90601f7fffffffffffffffffffffffffffffffffffffffffffffffffffffffffffffffe0910116810190811067ffffffffffffffff82111761142457604052565b81601f820112156113565780359067ffffffffffffffff821161142457604051926114e760207fffffffffffffffffffffffffffffffffffffffffffffffffffffffffffffffe0601f8601160185611453565b8284526020838301011161135657816000926020809301838601378301015290565b9080601f830112156113565781359067ffffffffffffffff92838311611424578260051b6040519460209461154086840188611453565b865284808701928401019380851161135657858401925b858410611568575050505050505090565b8335838111611356578791611582848480948a0101611494565b815201930192611557565b90816020910312611356575180151581036113565790565b6005544210156115cb5773ffffffffffffffffffffffffffffffffffffffff6003541690565b73ffffffffffffffffffffffffffffffffffffffff6004541690565b156115ee57565b60646040517f08c379a000000000000000000000000000000000000000000000000000000000815260206004820152600d60248201527f476f7620464f5242494444454e000000000000000000000000000000000000006044820152fd5b602073ffffffffffffffffffffffffffffffffffffffff6024816000541693600060405195869485937f7ac07dcc0000000000000000000000000000000000000000000000000000000085521660048401525af19081156116cd576000916116b2575090565b6116ca915060203d811161083d5761082f8183611453565b90565b6040513d6000823e3d90fd5b919082519283825260005b8481106117235750507fffffffffffffffffffffffffffffffffffffffffffffffffffffffffffffffe0601f8460006020809697860101520116010190565b6020818301810151848301820152016116e4565b908082519081815260208091019281808460051b8301019501936000915b8483106117655750505050505090565b90919293949584806117a1837fffffffffffffffffffffffffffffffffffffffffffffffffffffffffffffffe086600196030187528a516116d9565b9801930193019194939290611755565b7fffffffffffffffffffffffffffffffffffffffffffffffffffffffffffffffff81146117de5760010190565b7f4e487b7100000000000000000000000000000000000000000000000000000000600052601160045260246000fd5b73ffffffffffffffffffffffffffffffffffffffff80911690600091808352600760205260408320805460ff811615610530577fffffffffffffffffffffffffffffffffffffffffffffffffffffffffffffff001690556008908154845b81811061187d57505050505050600190565b8483611888836113aa565b929054600393841b1c16146118a657506118a1906117b1565b61186b565b959394937fffffffffffffffffffffffffffffffffffffffffffffffffffffffffffffffff9350918381019081116119495790611212856118e96118f6946113aa565b9054908a1b1c16916113aa565b835490811561191c5750019261190b846113aa565b81939154921b1b1916905555600190565b807f4e487b7100000000000000000000000000000000000000000000000000000000602492526031600452fd5b6024837f4e487b710000000000000000000000000000000000000000000000000000000081526011600452fd5b1561197d57565b60846040517f08c379a000000000000000000000000000000000000000000000000000000000815260206004820152602560248201527f5468656961555549444b65657065723a206e6f7420737570706f72746564206360448201527f616c6c65720000000000000000000000000000000000000000000000000000006064820152fd5b15611a0857565b60846040517f08c379a000000000000000000000000000000000000000000000000000000000815260206004820152602360248201527f5468656961555549444b65657065723a207575696420616c726561647920657860448201527f69737400000000000000000000000000000000000000000000000000000000006064820152fdfea2646970667358221220b930b71183626fc3b45b8e9606d09046b2f99d96378348cbd00a3ae4c1e5efa664736f6c63430008140033","linkReferences":{}},"methodIdentifiers":{"addSupportedCaller(address)":"580e70d5","addTxSender(address)":"eebd14af","c3CallerProxy()":"58f2c057","c3Fallback(uint256,bytes,bytes)":"b121f51d","changeGov(address)":"a962ef1e","completedUUID(bytes32)":"f7e41057","currentNonce()":"adb610a3","dappID()":"c516ad11","delay()":"6a42b8f8","disableTxSender(address)":"f9e4cbaf","doGov(string,string,bytes)":"d60ad41b","doGovBroadcast(string[],string[],bytes)":"dd64b3e6","genUUIDEvm((address,address,uint256,address,uint256))":"cfd1ec83","genUUIDNonEvm((address,address,uint256,uint256,string,bytes))":"d719a238","getAllSupportedCallers()":"d726d061","gov()":"12d43a51","isCompleted(bytes32)":"12cab545","isExist(bytes32)":"762fee18","isSupportedCaller(address)":"975e95bb","isValidSender(address)":"f01f2b8b","registerUUID(bytes32)":"ae74db05","removeSupportedCaller(address)":"08cb277f","setDelay(uint256)":"e177246e","supportedCallers(uint256)":"bce39350","uuidNonce(bytes32)":"ceb29016"},"id":24}