{"abi":[{"type":"function","name":"genCallData4SwapInAndCall","inputs":[{"name":"_token","type":"address","internalType":"address"},{"name":"_amount","type":"uint256","internalType":"uint256"},{"name":"_receiver","type":"address","internalType":"address"},{"name":"_native","type":"bool","internalType":"bool"},{"name":"_dex","type":"address","internalType":"address"},{"name":"_swapID","type":"bytes32","internalType":"bytes32"},{"name":"_recDecimals","type":"uint8","internalType":"uint8"},{"name":"_fromToken","type":"address","internalType":"address"},{"name":"_data","type":"bytes","internalType":"bytes"}],"outputs":[{"name":"","type":"bytes","internalType":"bytes"}],"stateMutability":"pure"},{"type":"function","name":"genSwapInAutoCallData","inputs":[{"name":"_token","type":"address","internalType":"address"},{"name":"_amount","type":"uint256","internalType":"uint256"},{"name":"_receiver","type":"address","internalType":"address"},{"name":"_swapID","type":"bytes32","internalType":"bytes32"},{"name":"_recDecimals","type":"uint256","internalType":"uint256"},{"name":"_fromToken","type":"address","internalType":"address"}],"outputs":[{"name":"","type":"bytes","internalType":"bytes"}],"stateMutability":"pure"}],"bytecode":{"object":"0x608080604052346100165761041e908161001c8239f35b600080fdfe608080604052600436101561001357600080fd5b600090813560e01c90816363f3a2aa1461022d575063af1c35ee1461003757600080fd5b3461022a57610120807ffffffffffffffffffffffffffffffffffffffffffffffffffffffffffffffffc36011261022657610070610337565b9161007961035f565b9260643590811515809203610222576084359173ffffffffffffffffffffffffffffffffffffffff9485841680940361021e5760c4359360ff851680950361021a5760e435878116809103610216576101049081359667ffffffffffffffff9a8b8911610212573660238a011215610212578860040135968c881161020e57366024898c01011161020e57918b601f9a989694926101839a9896946040519e8f9a7f891ef6100000000000000000000000000000000000000000000000000000000060208d015260a43560248d01521660448b015260648a015216608488015260243560a488015260c487015260e48601528401526101248301528561014493828585015282602461016492018286013782840101527fffffffffffffffffffffffffffffffffffffffffffffffffffffffffffffffe0948591011681010390810185520116820192828410908411176101e157506101dd82918260405282610382565b0390f35b807f4e487b7100000000000000000000000000000000000000000000000000000000602492526041600452fd5b8a80fd5b8980fd5b8680fd5b8580fd5b8480fd5b8280fd5b5080fd5b80fd5b9050346102265760c07ffffffffffffffffffffffffffffffffffffffffffffffffffffffffffffffffc36011261022657610266610337565b61026e61035f565b9060a4359173ffffffffffffffffffffffffffffffffffffffff9182841680940361021a5782907f04b97db90000000000000000000000000000000000000000000000000000000060208701526064356024870152166044850152166064830152602435608483015260843560a483015260c482015260c4815261010081019181831067ffffffffffffffff8411176101e157507fffffffffffffffffffffffffffffffffffffffffffffffffffffffffffffff0090826040526103328184610382565b030190f35b6004359073ffffffffffffffffffffffffffffffffffffffff8216820361035a57565b600080fd5b6044359073ffffffffffffffffffffffffffffffffffffffff8216820361035a57565b60208082528251818301819052939260005b8581106103d4575050507fffffffffffffffffffffffffffffffffffffffffffffffffffffffffffffffe0601f8460006040809697860101520116010190565b81810183015184820160400152820161039456fea26469706673582212207cd43d3ee68d9a8c4c1c3dc1a448006ec5856144a588d67219cfe25134857d4864736f6c63430008140033","linkReferences":{}},"methodIdentifiers":{"genCallData4SwapInAndCall(address,uint256,address,bool,address,bytes32,uint8,address,bytes)":"af1c35ee","genSwapInAutoCallData(address,uint256,address,bytes32,uint256,address)":"63f3a2aa"},"id":8}