{"abi":[{"type":"constructor","inputs":[{"name":"_name","type":"string","internalType":"string"},{"name":"_symbol","type":"string","internalType":"string"},{"name":"_decimals","type":"uint8","internalType":"uint8"},{"name":"_underlying","type":"address","internalType":"address"},{"name":"_admin","type":"address","internalType":"address"}],"stateMutability":"nonpayable"},{"type":"function","name":"DELAY","inputs":[],"outputs":[{"name":"","type":"uint256","internalType":"uint256"}],"stateMutability":"view"},{"type":"function","name":"allowance","inputs":[{"name":"","type":"address","internalType":"address"},{"name":"","type":"address","internalType":"address"}],"outputs":[{"name":"","type":"uint256","internalType":"uint256"}],"stateMutability":"view"},{"type":"function","name":"applyAdmin","inputs":[],"outputs":[],"stateMutability":"nonpayable"},{"type":"function","name":"applyMinter","inputs":[],"outputs":[],"stateMutability":"nonpayable"},{"type":"function","name":"approve","inputs":[{"name":"spender","type":"address","internalType":"address"},{"name":"value","type":"uint256","internalType":"uint256"}],"outputs":[{"name":"","type":"bool","internalType":"bool"}],"stateMutability":"nonpayable"},{"type":"function","name":"balanceOf","inputs":[{"name":"","type":"address","internalType":"address"}],"outputs":[{"name":"","type":"uint256","internalType":"uint256"}],"stateMutability":"view"},{"type":"function","name":"burn","inputs":[{"name":"from","type":"address","internalType":"address"},{"name":"amount","type":"uint256","internalType":"uint256"}],"outputs":[{"name":"","type":"bool","internalType":"bool"}],"stateMutability":"nonpayable"},{"type":"function","name":"decimals","inputs":[],"outputs":[{"name":"","type":"uint8","internalType":"uint8"}],"stateMutability":"view"},{"type":"function","name":"delayAdmin","inputs":[],"outputs":[{"name":"","type":"uint256","internalType":"uint256"}],"stateMutability":"view"},{"type":"function","name":"delayMinter","inputs":[],"outputs":[{"name":"","type":"uint256","internalType":"uint256"}],"stateMutability":"view"},{"type":"function","name":"deposit","inputs":[{"name":"amount","type":"uint256","internalType":"uint256"},{"name":"to","type":"address","internalType":"address"}],"outputs":[{"name":"","type":"uint256","internalType":"uint256"}],"stateMutability":"nonpayable"},{"type":"function","name":"deposit","inputs":[{"name":"amount","type":"uint256","internalType":"uint256"}],"outputs":[{"name":"","type":"uint256","internalType":"uint256"}],"stateMutability":"nonpayable"},{"type":"function","name":"deposit","inputs":[],"outputs":[{"name":"","type":"uint256","internalType":"uint256"}],"stateMutability":"nonpayable"},{"type":"function","name":"depositVault","inputs":[{"name":"amount","type":"uint256","internalType":"uint256"},{"name":"to","type":"address","internalType":"address"}],"outputs":[{"name":"","type":"uint256","internalType":"uint256"}],"stateMutability":"nonpayable"},{"type":"function","name":"getAllMinters","inputs":[],"outputs":[{"name":"","type":"address[]","internalType":"address[]"}],"stateMutability":"view"},{"type":"function","name":"isMinter","inputs":[{"name":"","type":"address","internalType":"address"}],"outputs":[{"name":"","type":"bool","internalType":"bool"}],"stateMutability":"view"},{"type":"function","name":"mint","inputs":[{"name":"to","type":"address","internalType":"address"},{"name":"amount","type":"uint256","internalType":"uint256"}],"outputs":[{"name":"","type":"bool","internalType":"bool"}],"stateMutability":"nonpayable"},{"type":"function","name":"minters","inputs":[{"name":"","type":"uint256","internalType":"uint256"}],"outputs":[{"name":"","type":"address","internalType":"address"}],"stateMutability":"view"},{"type":"function","name":"name","inputs":[],"outputs":[{"name":"","type":"string","internalType":"string"}],"stateMutability":"view"},{"type":"function","name":"owner","inputs":[],"outputs":[{"name":"","type":"address","internalType":"address"}],"stateMutability":"view"},{"type":"function","name":"pendingAdmin","inputs":[],"outputs":[{"name":"","type":"address","internalType":"address"}],"stateMutability":"view"},{"type":"function","name":"pendingMinter","inputs":[],"outputs":[{"name":"","type":"address","internalType":"address"}],"stateMutability":"view"},{"type":"function","name":"revokeMinter","inputs":[{"name":"_minter","type":"address","internalType":"address"}],"outputs":[],"stateMutability":"nonpayable"},{"type":"function","name":"router","inputs":[],"outputs":[{"name":"","type":"address","internalType":"address"}],"stateMutability":"view"},{"type":"function","name":"setAdmin","inputs":[{"name":"_router","type":"address","internalType":"address"}],"outputs":[],"stateMutability":"nonpayable"},{"type":"function","name":"setDelay","inputs":[{"name":"t","type":"uint256","internalType":"uint256"}],"outputs":[],"stateMutability":"nonpayable"},{"type":"function","name":"setMinter","inputs":[{"name":"_minter","type":"address","internalType":"address"}],"outputs":[],"stateMutability":"nonpayable"},{"type":"function","name":"symbol","inputs":[],"outputs":[{"name":"","type":"string","internalType":"string"}],"stateMutability":"view"},{"type":"function","name":"totalSupply","inputs":[],"outputs":[{"name":"","type":"uint256","internalType":"uint256"}],"stateMutability":"view"},{"type":"function","name":"transfer","inputs":[{"name":"to","type":"address","internalType":"address"},{"name":"value","type":"uint256","internalType":"uint256"}],"outputs":[{"name":"","type":"bool","internalType":"bool"}],"stateMutability":"nonpayable"},{"type":"function","name":"transferFrom","inputs":[{"name":"from","type":"address","internalType":"address"},{"name":"to","type":"address","internalType":"address"},{"name":"value","type":"uint256","internalType":"uint256"}],"outputs":[{"name":"","type":"bool","internalType":"bool"}],"stateMutability":"nonpayable"},{"type":"function","name":"underlying","inputs":[],"outputs":[{"name":"","type":"address","internalType":"address"}],"stateMutability":"view"},{"type":"function","name":"underlyingIsMinted","inputs":[],"outputs":[{"name":"","type":"bool","internalType":"bool"}],"stateMutability":"view"},{"type":"function","name":"withdraw","inputs":[{"name":"amount","type":"uint256","internalType":"uint256"},{"name":"to","type":"address","internalType":"address"}],"outputs":[{"name":"","type":"uint256","internalType":"uint256"}],"stateMutability":"nonpayable"},{"type":"function","name":"withdraw","inputs":[{"name":"amount","type":"uint256","internalType":"uint256"}],"outputs":[{"name":"","type":"uint256","internalType":"uint256"}],"stateMutability":"nonpayable"},{"type":"function","name":"withdraw","inputs":[],"outputs":[{"name":"","type":"uint256","internalType":"uint256"}],"stateMutability":"nonpayable"},{"type":"function","name":"withdrawVault","inputs":[{"name":"from","type":"address","internalType":"address"},{"name":"amount","type":"uint256","internalType":"uint256"},{"name":"to","type":"address","internalType":"address"}],"outputs":[{"name":"","type":"uint256","internalType":"uint256"}],"stateMutability":"nonpayable"},{"type":"event","name":"Approval","inputs":[{"name":"owner","type":"address","indexed":true,"internalType":"address"},{"name":"spender","type":"address","indexed":true,"internalType":"address"},{"name":"value","type":"uint256","indexed":false,"internalType":"uint256"}],"anonymous":false},{"type":"event","name":"LogSwapin","inputs":[{"name":"txhash","type":"bytes32","indexed":true,"internalType":"bytes32"},{"name":"account","type":"address","indexed":true,"internalType":"address"},{"name":"amount","type":"uint256","indexed":false,"internalType":"uint256"}],"anonymous":false},{"type":"event","name":"LogSwapout","inputs":[{"name":"account","type":"address","indexed":true,"internalType":"address"},{"name":"bindaddr","type":"address","indexed":true,"internalType":"address"},{"name":"amount","type":"uint256","indexed":false,"internalType":"uint256"}],"anonymous":false},{"type":"event","name":"Transfer","inputs":[{"name":"from","type":"address","indexed":true,"internalType":"address"},{"name":"to","type":"address","indexed":true,"internalType":"address"},{"name":"value","type":"uint256","indexed":false,"internalType":"uint256"}],"anonymous":false},{"type":"error","name":"AddressEmptyCode","inputs":[{"name":"target","type":"address","internalType":"address"}]},{"type":"error","name":"AddressInsufficientBalance","inputs":[{"name":"account","type":"address","internalType":"address"}]},{"type":"error","name":"FailedInnerCall","inputs":[]},{"type":"error","name":"SafeERC20FailedOperation","inputs":[{"name":"token","type":"address","internalType":"address"}]}],"bytecode":{"object":"0x60c0604090808252346200050c5762002114803803809162000022828562000511565b833981019060a0818303126200050c5780516001600160401b0392908381116200050c57816200005491840162000535565b9060209081840151908582116200050c576200007291850162000535565b6200007f868501620005ac565b936200009c60806200009460608401620005bb565b9201620005bb565b95620151806005558451818111620004f6576000938454916001978884811c94168015620004eb575b88851014620004d7578190601f9485811162000484575b5088908583116001146200042057889262000414575b5050600019600383901b1c191690881b1785555b8051928311620004005786548781811c91168015620003f5575b87821014620003e157908183859493116200038c575b5086918311600114620003285785926200031c575b5050600019600383901b1c191690851b1784555b846080528060a05260ff19956004958588885416178755868560018060a01b03809516806200024f575b50505050169360018060a01b0319958587600854161760085585835260068452848884209182541617905560075493680100000000000000008510156200023c578401806007558410156200022957506007815220019182541617905551611b439081620005d1823960805181610bee015260a05181818161032d0152818161050701528181610a4501528181610aa9015281816114c201526115240152f35b634e487b7160e01b825260329052602490fd5b634e487b7160e01b835260418252602483fd5b8b5163313ce56760e01b815292839182905afa90811562000312578591620002cd575b5060ff8091169116036200028a573886858262000189565b875162461bcd60e51b8152808701859052601d60248201527f5468656961546f6b656e3a20646563696d616c73206469736d617463680000006044820152606490fd5b90508581813d83116200030a575b620002e7818362000511565b81010312620003065760ff620002fe8192620005ac565b915062000272565b8480fd5b503d620002db565b8a513d87823e3d90fd5b0151905038806200014b565b8786528686208894509190601f198416875b898282106200037557505084116200035b575b505050811b0184556200015f565b015160001960f88460031b161c191690553880806200034d565b8385015186558b979095019493840193016200033a565b909192508786528686208380860160051c820192898710620003d7575b9186958b929594930160051c01915b828110620003c857505062000136565b8881558695508a9101620003b8565b92508192620003a9565b634e487b7160e01b86526022600452602486fd5b90607f169062000120565b634e487b7160e01b85526041600452602485fd5b015190503880620000f2565b8880528989208b94509190601f1984168a5b8c8282106200046d575050841162000453575b505050811b01855562000106565b015160001960f88460031b161c1916905538808062000445565b8385015186558e9790950194938401930162000432565b9091508780528888208580850160051c8201928b8610620004cd575b918c91869594930160051c01915b828110620004be575050620000dc565b8a81558594508c9101620004ae565b92508192620004a0565b634e487b7160e01b87526022600452602487fd5b93607f1693620000c5565b634e487b7160e01b600052604160045260246000fd5b600080fd5b601f909101601f19168101906001600160401b03821190821017620004f657604052565b919080601f840112156200050c578251906001600160401b038211620004f6576040519160209162000571601f8301601f191684018562000511565b8184528282870101116200050c5760005b8181106200059857508260009394955001015290565b858101830151848201840152820162000582565b519060ff821682036200050c57565b51906001600160a01b03821682036200050c5756fe60406080815260048036101561001457600080fd5b600091823560e01c91826239d6ec1461115a578262f714ce1461113157826306fdde0314611075578263095ea7b314610ff65782630d707df814610ec757826311756bd114610ea857826318160ddd14610e8957826323b872dd14610c6a5782632678224714610c355782632e1a7d4d14610c12578263313ce56714610bd45782633ccfd60b14610baa57826340c10f1914610b7b5782634e67428d14610af257826369b4117014610ad35782636e553f6514610a695782636f307dc314610a18578263704b6c021461099257826370a082311461094e5782638623ec7b146108fe5782638da5cb5b146108c957826391c5df491461089457826395d89b411461075a5782639dc29fac14610714578263a045442c14610635578263a9059cbb14610575578263aa271e1a1461052c578263b6b55f25146104cf578263bebbf4d014610484578263c308124014610465578263cfbd4885146103f2578263d0e30db014610304578263d6c79751146102e9578263dd62ed3e14610293578263e177246e1461027957508163f887ea4014610240575063fca3b5aa146101b857600080fd5b3461023d57602060031936011261023d576101d16111b8565b73ffffffffffffffffffffffffffffffffffffffff906101f68260085416331461133f565b166102028115156113a4565b7fffffffffffffffffffffffff0000000000000000000000000000000000000000600954161760095561023760055442611409565b600a5580f35b80fd5b90503461027557816003193601126102755760209073ffffffffffffffffffffffffffffffffffffffff600854169051908152f35b5080fd5b839034610275576020600319360112610275573560055580f35b838234610275578060031936011261027557806020926102b16111b8565b6102b96111e0565b73ffffffffffffffffffffffffffffffffffffffff9182168352600d865283832091168252845220549051908152f35b83823461027557816003193601126102755751908152602090f35b90833461023d578060031936011261023d5773ffffffffffffffffffffffffffffffffffffffff7f000000000000000000000000000000000000000000000000000000000000000016928251907f70a082310000000000000000000000000000000000000000000000000000000082523390820152602081602481875afa9182156103e75780926103b1575b6020846103aa856103a38130338c6118bd565b33906114aa565b9051908152f35b9091506020823d82116103df575b816103cc60209383611203565b8101031261023d575051826103a3610390565b3d91506103bf565b8351903d90823e3d90fd5b8382346102755760206003193601126102755761040d6111b8565b73ffffffffffffffffffffffffffffffffffffffff906104328260085416331461133f565b168252600660205281207fffffffffffffffffffffffffffffffffffffffffffffffffffffffffffffff00815416905580f35b838234610275578160031936011261027557602090600a549051908152f35b90833461023d578160031936011261023d57506103aa6020926104a56111e0565b906104c973ffffffffffffffffffffffffffffffffffffffff60085416331461133f565b356114aa565b90833461023d57602060031936011261023d57506103aa602092356103a381303373ffffffffffffffffffffffffffffffffffffffff7f0000000000000000000000000000000000000000000000000000000000000000166118bd565b8382346102755760206003193601126102755760ff8160209373ffffffffffffffffffffffffffffffffffffffff6105626111b8565b1681526006855220541690519015158152f35b83823461027557806003193601126102755761058f6111b8565b73ffffffffffffffffffffffffffffffffffffffff166024358115158061062b575b156106275782602094338152600286526105da83838320546105d582821015611832565b611696565b3382526002875282822055838152206105f4828254611409565b905582519081527fddf252ad1be2c89b69c2b068fc378daa952ba7f163c4a11628f55a4df523b3ef843392a35160018152f35b8380fd5b50308214156105b1565b50823461023d578060031936011261023d579080519182906007549182855260208095018093600784527fa66cc928b5edb82af9bd49922954155ab7b0942694bea4ce44661d9a8736c68890845b8181106106ea5750505081610699910382611203565b83519485948186019282875251809352850193925b8281106106bd57505050500390f35b835173ffffffffffffffffffffffffffffffffffffffff16855286955093810193928101926001016106ae565b825473ffffffffffffffffffffffffffffffffffffffff1684529288019260019283019201610683565b83823461027557806003193601126102755761075360209261074a60ff8461073a6111b8565b9333815260068852205416611445565b602435906116a3565b5160018152f35b91503461089057826003193601126108905780519183600180549182821c928281168015610886575b602095868610821461085a575084885290811561081a57506001146107c2575b6107be86866107b4828b0383611203565b5191829182611273565b0390f35b9295508083527fb10e2d527612073b26eecdfd717e6a320cf44b4afac2b0732d9fcbe2b7fa0cf65b82841061080757505050826107be946107b49282010194386107a3565b80548685018801529286019281016107ea565b7fffffffffffffffffffffffffffffffffffffffffffffffffffffffffffffff001687860152505050151560051b83010192506107b4826107be386107a3565b8360226024927f4e487b7100000000000000000000000000000000000000000000000000000000835252fd5b93607f1693610783565b8280fd5b83823461027557816003193601126102755760209073ffffffffffffffffffffffffffffffffffffffff600954169051908152f35b83823461027557816003193601126102755760209073ffffffffffffffffffffffffffffffffffffffff600854169051908152f35b9091503461089057602060031936011261089057359160075483101561023d575073ffffffffffffffffffffffffffffffffffffffff61093f6020936112d9565b92905490519260031b1c168152f35b838234610275576020600319360112610275578060209273ffffffffffffffffffffffffffffffffffffffff6109826111b8565b1681526002845220549051908152f35b833461023d57602060031936011261023d576109ac6111b8565b73ffffffffffffffffffffffffffffffffffffffff906109d18260085416331461133f565b166109dd8115156113a4565b7fffffffffffffffffffffffff0000000000000000000000000000000000000000600b541617600b55610a1260055442611409565b600c5580f35b8382346102755781600319360112610275576020905173ffffffffffffffffffffffffffffffffffffffff7f0000000000000000000000000000000000000000000000000000000000000000168152f35b90833461023d578160031936011261023d57506103aa60209235610a8b6111e0565b90610ace81303373ffffffffffffffffffffffffffffffffffffffff7f0000000000000000000000000000000000000000000000000000000000000000166118bd565b6114aa565b8382346102755781600319360112610275576020906005549051908152f35b833461023d578060031936011261023d5760085473ffffffffffffffffffffffffffffffffffffffff610b28818316331461133f565b600b5490811680151580610b6f575b15610627577fffffffffffffffffffffffff00000000000000000000000000000000000000008093161760085516600b5580600c5580f35b50600c54421015610b37565b838234610275578060031936011261027557610753602092610ba160ff8461073a6111b8565b602435906115c5565b8382346102755781600319360112610275576103aa6020923381526002845282339120543361150a565b8382346102755781600319360112610275576020905160ff7f0000000000000000000000000000000000000000000000000000000000000000168152f35b90833461023d57602060031936011261023d57506103aa6020923390353361150a565b83823461027557816003193601126102755760209073ffffffffffffffffffffffffffffffffffffffff600b54169051908152f35b9091503461089057606060031936011261089057610c866111b8565b90610c8f6111e0565b6044359073ffffffffffffffffffffffffffffffffffffffff8091169384151580610e7f575b15610e7b571691338303610d30575b5060207fddf252ad1be2c89b69c2b068fc378daa952ba7f163c4a11628f55a4df523b3ef9185878584995260028452610d0783838320546105d582821015611832565b868252600285528282205586815220610d21828254611409565b90558551908152a35160018152f35b828652602090600d8252858720338852825285872054907fffffffffffffffffffffffffffffffffffffffffffffffffffffffffffffffff8203610d76575b5050610cc4565b838210610df9575091856020978893867f8c5be1e5ebec7d5bd14f71427d1e84f3dd0314c0f7b2291e5b200ac8c7c3b925610dd2867fddf252ad1be2c89b69c2b068fc378daa952ba7f163c4a11628f55a4df523b3ef99611696565b92828552600d81528585203386528152838686205585519384523393a39750819350610d6f565b608490838851917f08c379a0000000000000000000000000000000000000000000000000000000008352820152602560248201527f546865696145524332303a2072657175657374206578636565647320616c6c6f60448201527f77616e63650000000000000000000000000000000000000000000000000000006064820152fd5b8680fd5b5030851415610cb5565b8382346102755781600319360112610275576020906003549051908152f35b838234610275578160031936011261027557602090600c549051908152f35b9091503461089057826003193601126108905773ffffffffffffffffffffffffffffffffffffffff91610eff8360085416331461133f565b82600954168015801580610fea575b15610fe657610fe25784526006602052832060017fffffffffffffffffffffffffffffffffffffffffffffffffffffffffffffff008254161790558160095416906007549068010000000000000000821015610fb65750806001610f7592016007556112d9565b909283549160031b92831b921b19161790557fffffffffffffffffffffffff00000000000000000000000000000000000000006009541660095580600a5580f35b8460416024927f4e487b7100000000000000000000000000000000000000000000000000000000835252fd5b8480fd5b8580fd5b50600a54421015610f0e565b838234610275578060031936011261027557602091816110146111b8565b91602435918291338152600d875273ffffffffffffffffffffffffffffffffffffffff8282209516948582528752205582519081527f8c5be1e5ebec7d5bd14f71427d1e84f3dd0314c0f7b2291e5b200ac8c7c3b925843392a35160018152f35b9150346108905782600319360112610890578051918380549060019082821c928281168015611127575b602095868610821461085a575084885290811561081a57506001146110cf576107be86866107b4828b0383611203565b8080949750527f290decd9548b62a8d60345a988386fc84ba6bc95484008f6362f93160ef3e5635b82841061111457505050826107be946107b49282010194386107a3565b80548685018801529286019281016110f7565b93607f169361109f565b90833461023d578160031936011261023d57506103aa6020926111526111e0565b90353361150a565b838234610275576060600319360112610275576111756111b8565b6044359273ffffffffffffffffffffffffffffffffffffffff90818516850361023d5750926103aa916111af60209560085416331461133f565b6024359061150a565b6004359073ffffffffffffffffffffffffffffffffffffffff821682036111db57565b600080fd5b6024359073ffffffffffffffffffffffffffffffffffffffff821682036111db57565b90601f7fffffffffffffffffffffffffffffffffffffffffffffffffffffffffffffffe0910116810190811067ffffffffffffffff82111761124457604052565b7f4e487b7100000000000000000000000000000000000000000000000000000000600052604160045260246000fd5b60208082528251818301819052939260005b8581106112c5575050507fffffffffffffffffffffffffffffffffffffffffffffffffffffffffffffffe0601f8460006040809697860101520116010190565b818101830151848201604001528201611285565b6007548110156113105760076000527fa66cc928b5edb82af9bd49922954155ab7b0942694bea4ce44661d9a8736c6880190600090565b7f4e487b7100000000000000000000000000000000000000000000000000000000600052603260045260246000fd5b1561134657565b60646040517f08c379a000000000000000000000000000000000000000000000000000000000815260206004820152601560248201527f546865696145524332303a206e6f742041646d696e00000000000000000000006044820152fd5b156113ab57565b60646040517f08c379a000000000000000000000000000000000000000000000000000000000815260206004820152601660248201527f546865696145524332303a2061646472657373283029000000000000000000006044820152fd5b9190820180921161141657565b7f4e487b7100000000000000000000000000000000000000000000000000000000600052601160045260246000fd5b1561144c57565b60646040517f08c379a000000000000000000000000000000000000000000000000000000000815260206004820152601660248201527f546865696145524332303a206e6f74204d696e746572000000000000000000006044820152fd5b9073ffffffffffffffffffffffffffffffffffffffff7f00000000000000000000000000000000000000000000000000000000000000001680151590816114ff575b50156111db57816114fc916115c5565b90565b9050301415386114ec565b909173ffffffffffffffffffffffffffffffffffffffff807f00000000000000000000000000000000000000000000000000000000000000001692831515806115bb575b156111db578461155d916116a3565b604051917fa9059cbb00000000000000000000000000000000000000000000000000000000602084015216602482015282604482015260448152608081019181831067ffffffffffffffff841117611244576114fc9260405261193b565b503084141561154e565b73ffffffffffffffffffffffffffffffffffffffff16908115611638577fddf252ad1be2c89b69c2b068fc378daa952ba7f163c4a11628f55a4df523b3ef602082611614600094600354611409565b600355848452600282526040842061162d828254611409565b9055604051908152a3565b60646040517f08c379a000000000000000000000000000000000000000000000000000000000815260206004820152601f60248201527f45524332303a206d696e7420746f20746865207a65726f2061646472657373006044820152fd5b9190820391821161141657565b73ffffffffffffffffffffffffffffffffffffffff1680156117ae578060005260026020526040600020549180831061172a576020816117067fddf252ad1be2c89b69c2b068fc378daa952ba7f163c4a11628f55a4df523b3ef93600096611696565b84865260028352604086205561171e81600354611696565b600355604051908152a3565b60846040517f08c379a000000000000000000000000000000000000000000000000000000000815260206004820152602260248201527f45524332303a206275726e20616d6f756e7420657863656564732062616c616e60448201527f63650000000000000000000000000000000000000000000000000000000000006064820152fd5b60846040517f08c379a000000000000000000000000000000000000000000000000000000000815260206004820152602160248201527f45524332303a206275726e2066726f6d20746865207a65726f2061646472657360448201527f73000000000000000000000000000000000000000000000000000000000000006064820152fd5b1561183957565b60846040517f08c379a000000000000000000000000000000000000000000000000000000000815260206004820152602b60248201527f546865696145524332303a207472616e7366657220616d6f756e74206578636560448201527f6564732062616c616e63650000000000000000000000000000000000000000006064820152fd5b9290604051927f23b872dd00000000000000000000000000000000000000000000000000000000602085015273ffffffffffffffffffffffffffffffffffffffff809216602485015216604483015260648201526064815260a081019181831067ffffffffffffffff841117611244576119399260405261193b565b565b73ffffffffffffffffffffffffffffffffffffffff1690600080826020829451910182865af13d15611a61573d9067ffffffffffffffff8211611a3457906119c391604051916119b360207fffffffffffffffffffffffffffffffffffffffffffffffffffffffffffffffe0601f8401160184611203565b82523d84602084013e5b84611a6d565b908151918215159283611a0c575b5050506119db5750565b602490604051907f5274afe70000000000000000000000000000000000000000000000000000000082526004820152fd5b81929350906020918101031261027557602001519081159182150361023d57503880806119d1565b6024837f4e487b710000000000000000000000000000000000000000000000000000000081526041600452fd5b6119c3906060906119bd565b90611aac5750805115611a8257805190602001fd5b60046040517f1425ea42000000000000000000000000000000000000000000000000000000008152fd5b81511580611b04575b611abd575090565b60249073ffffffffffffffffffffffffffffffffffffffff604051917f9996b315000000000000000000000000000000000000000000000000000000008352166004820152fd5b50803b15611ab556fea26469706673582212205ab035a4a82d911943f06651fe52980cf665113dccec8fbf7d68b77bcf29bd0a64736f6c63430008140033","linkReferences":{}},"methodIdentifiers":{"DELAY()":"69b41170","allowance(address,address)":"dd62ed3e","applyAdmin()":"4e67428d","applyMinter()":"0d707df8","approve(address,uint256)":"095ea7b3","balanceOf(address)":"70a08231","burn(address,uint256)":"9dc29fac","decimals()":"313ce567","delayAdmin()":"11756bd1","delayMinter()":"c3081240","deposit()":"d0e30db0","deposit(uint256)":"b6b55f25","deposit(uint256,address)":"6e553f65","depositVault(uint256,address)":"bebbf4d0","getAllMinters()":"a045442c","isMinter(address)":"aa271e1a","mint(address,uint256)":"40c10f19","minters(uint256)":"8623ec7b","name()":"06fdde03","owner()":"8da5cb5b","pendingAdmin()":"26782247","pendingMinter()":"91c5df49","revokeMinter(address)":"cfbd4885","router()":"f887ea40","setAdmin(address)":"704b6c02","setDelay(uint256)":"e177246e","setMinter(address)":"fca3b5aa","symbol()":"95d89b41","totalSupply()":"18160ddd","transfer(address,uint256)":"a9059cbb","transferFrom(address,address,uint256)":"23b872dd","underlying()":"6f307dc3","underlyingIsMinted()":"d6c79751","withdraw()":"3ccfd60b","withdraw(uint256)":"2e1a7d4d","withdraw(uint256,address)":"00f714ce","withdrawVault(address,uint256,address)":"0039d6ec"},"id":7}