{"abi":[{"type":"constructor","inputs":[{"name":"_gov","type":"address","internalType":"address"},{"name":"_c3callerProxy","type":"address","internalType":"address"},{"name":"_txSender","type":"address","internalType":"address"},{"name":"_dappID","type":"uint256","internalType":"uint256"}],"stateMutability":"nonpayable"},{"type":"function","name":"CONFIG_ROLE","inputs":[],"outputs":[{"name":"","type":"bytes32","internalType":"bytes32"}],"stateMutability":"view"},{"type":"function","name":"CONFIG_VERSION","inputs":[],"outputs":[{"name":"","type":"uint256","internalType":"uint256"}],"stateMutability":"view"},{"type":"function","name":"DEFAULT_ADMIN_ROLE","inputs":[],"outputs":[{"name":"","type":"bytes32","internalType":"bytes32"}],"stateMutability":"view"},{"type":"function","name":"addTxSender","inputs":[{"name":"txSender","type":"address","internalType":"address"}],"outputs":[],"stateMutability":"nonpayable"},{"type":"function","name":"c3CallerProxy","inputs":[],"outputs":[{"name":"","type":"address","internalType":"address"}],"stateMutability":"view"},{"type":"function","name":"c3Fallback","inputs":[{"name":"_dappID","type":"uint256","internalType":"uint256"},{"name":"_data","type":"bytes","internalType":"bytes"},{"name":"_reason","type":"bytes","internalType":"bytes"}],"outputs":[{"name":"","type":"bool","internalType":"bool"}],"stateMutability":"nonpayable"},{"type":"function","name":"cID","inputs":[],"outputs":[{"name":"","type":"uint256","internalType":"uint256"}],"stateMutability":"view"},{"type":"function","name":"changeGov","inputs":[{"name":"newGov","type":"address","internalType":"address"}],"outputs":[],"stateMutability":"nonpayable"},{"type":"function","name":"dappID","inputs":[],"outputs":[{"name":"","type":"uint256","internalType":"uint256"}],"stateMutability":"view"},{"type":"function","name":"delay","inputs":[],"outputs":[{"name":"","type":"uint256","internalType":"uint256"}],"stateMutability":"view"},{"type":"function","name":"disableTxSender","inputs":[{"name":"txSender","type":"address","internalType":"address"}],"outputs":[],"stateMutability":"nonpayable"},{"type":"function","name":"doGov","inputs":[{"name":"_to","type":"string","internalType":"string"},{"name":"_toChainID","type":"string","internalType":"string"},{"name":"_data","type":"bytes","internalType":"bytes"}],"outputs":[],"stateMutability":"nonpayable"},{"type":"function","name":"doGovBroadcast","inputs":[{"name":"_targets","type":"string[]","internalType":"string[]"},{"name":"_toChainIDs","type":"string[]","internalType":"string[]"},{"name":"_data","type":"bytes","internalType":"bytes"}],"outputs":[],"stateMutability":"nonpayable"},{"type":"function","name":"getAllChainConfig","inputs":[],"outputs":[{"name":"","type":"tuple[]","internalType":"struct Structs.ChainConfig[]","components":[{"name":"ChainID","type":"uint256","internalType":"uint256"},{"name":"BlockChain","type":"string","internalType":"string"},{"name":"RouterContract","type":"string","internalType":"string"},{"name":"Extra","type":"string","internalType":"string"}]}],"stateMutability":"view"},{"type":"function","name":"getAllChainIDLength","inputs":[],"outputs":[{"name":"","type":"uint256","internalType":"uint256"}],"stateMutability":"view"},{"type":"function","name":"getAllChainIDs","inputs":[],"outputs":[{"name":"","type":"uint256[]","internalType":"uint256[]"}],"stateMutability":"view"},{"type":"function","name":"getAllMultichainTokenConfig","inputs":[{"name":"tokenID","type":"string","internalType":"string"}],"outputs":[{"name":"","type":"tuple[]","internalType":"struct Structs.TokenConfig[]","components":[{"name":"ChainID","type":"uint256","internalType":"uint256"},{"name":"Decimals","type":"uint8","internalType":"uint8"},{"name":"ContractAddress","type":"string","internalType":"string"},{"name":"ContractVersion","type":"uint256","internalType":"uint256"},{"name":"RouterContract","type":"string","internalType":"string"},{"name":"Underlying","type":"string","internalType":"string"}]}],"stateMutability":"view"},{"type":"function","name":"getAllMultichainTokens","inputs":[{"name":"tokenID","type":"string","internalType":"string"}],"outputs":[{"name":"","type":"tuple[]","internalType":"struct Structs.MultichainToken[]","components":[{"name":"ChainID","type":"uint256","internalType":"uint256"},{"name":"TokenAddress","type":"string","internalType":"string"}]}],"stateMutability":"view"},{"type":"function","name":"getAllSwapConfigs","inputs":[{"name":"tokenID","type":"string","internalType":"string"}],"outputs":[{"name":"","type":"tuple[]","internalType":"struct Structs.SwapConfig[]","components":[{"name":"FromChainID","type":"uint256","internalType":"uint256"},{"name":"ToChainID","type":"uint256","internalType":"uint256"},{"name":"MaximumSwap","type":"uint256","internalType":"uint256"},{"name":"MinimumSwap","type":"uint256","internalType":"uint256"}]}],"stateMutability":"view"},{"type":"function","name":"getAllTokenIDLength","inputs":[],"outputs":[{"name":"","type":"uint256","internalType":"uint256"}],"stateMutability":"view"},{"type":"function","name":"getAllTokenIDs","inputs":[],"outputs":[{"name":"result","type":"string[]","internalType":"string[]"}],"stateMutability":"view"},{"type":"function","name":"getChainConfig","inputs":[{"name":"chainID","type":"uint256","internalType":"uint256"}],"outputs":[{"name":"","type":"tuple","internalType":"struct Structs.ChainConfig","components":[{"name":"ChainID","type":"uint256","internalType":"uint256"},{"name":"BlockChain","type":"string","internalType":"string"},{"name":"RouterContract","type":"string","internalType":"string"},{"name":"Extra","type":"string","internalType":"string"}]}],"stateMutability":"view"},{"type":"function","name":"getChainIDByIndex","inputs":[{"name":"index","type":"uint256","internalType":"uint256"}],"outputs":[{"name":"","type":"uint256","internalType":"uint256"}],"stateMutability":"view"},{"type":"function","name":"getMPCPubkey","inputs":[{"name":"mpcAddress","type":"string","internalType":"string"}],"outputs":[{"name":"","type":"string","internalType":"string"}],"stateMutability":"view"},{"type":"function","name":"getMultichainToken","inputs":[{"name":"tokenID","type":"string","internalType":"string"},{"name":"chainID","type":"uint256","internalType":"uint256"}],"outputs":[{"name":"","type":"string","internalType":"string"}],"stateMutability":"view"},{"type":"function","name":"getOriginalTokenConfig","inputs":[{"name":"tokenID","type":"string","internalType":"string"},{"name":"chainID","type":"uint256","internalType":"uint256"}],"outputs":[{"name":"","type":"tuple","internalType":"struct Structs.TokenConfig","components":[{"name":"ChainID","type":"uint256","internalType":"uint256"},{"name":"Decimals","type":"uint8","internalType":"uint8"},{"name":"ContractAddress","type":"string","internalType":"string"},{"name":"ContractVersion","type":"uint256","internalType":"uint256"},{"name":"RouterContract","type":"string","internalType":"string"},{"name":"Underlying","type":"string","internalType":"string"}]}],"stateMutability":"view"},{"type":"function","name":"getRoleAdmin","inputs":[{"name":"role","type":"bytes32","internalType":"bytes32"}],"outputs":[{"name":"","type":"bytes32","internalType":"bytes32"}],"stateMutability":"view"},{"type":"function","name":"getSwapConfig","inputs":[{"name":"tokenID","type":"string","internalType":"string"},{"name":"srcChainID","type":"uint256","internalType":"uint256"},{"name":"dstChainID","type":"uint256","internalType":"uint256"}],"outputs":[{"name":"","type":"tuple","internalType":"struct Structs.SwapConfig","components":[{"name":"FromChainID","type":"uint256","internalType":"uint256"},{"name":"ToChainID","type":"uint256","internalType":"uint256"},{"name":"MaximumSwap","type":"uint256","internalType":"uint256"},{"name":"MinimumSwap","type":"uint256","internalType":"uint256"}]}],"stateMutability":"view"},{"type":"function","name":"getSwapConfigAtIndex","inputs":[{"name":"tokenID","type":"string","internalType":"string"},{"name":"index","type":"uint256","internalType":"uint256"}],"outputs":[{"name":"","type":"tuple","internalType":"struct Structs.SwapConfig","components":[{"name":"FromChainID","type":"uint256","internalType":"uint256"},{"name":"ToChainID","type":"uint256","internalType":"uint256"},{"name":"MaximumSwap","type":"uint256","internalType":"uint256"},{"name":"MinimumSwap","type":"uint256","internalType":"uint256"}]}],"stateMutability":"view"},{"type":"function","name":"getSwapConfigAtIndexRange","inputs":[{"name":"tokenID","type":"string","internalType":"string"},{"name":"startIndex","type":"uint256","internalType":"uint256"},{"name":"endIndex","type":"uint256","internalType":"uint256"}],"outputs":[{"name":"","type":"tuple[]","internalType":"struct Structs.SwapConfig[]","components":[{"name":"FromChainID","type":"uint256","internalType":"uint256"},{"name":"ToChainID","type":"uint256","internalType":"uint256"},{"name":"MaximumSwap","type":"uint256","internalType":"uint256"},{"name":"MinimumSwap","type":"uint256","internalType":"uint256"}]}],"stateMutability":"view"},{"type":"function","name":"getSwapConfigsCount","inputs":[{"name":"tokenID","type":"string","internalType":"string"}],"outputs":[{"name":"","type":"uint256","internalType":"uint256"}],"stateMutability":"view"},{"type":"function","name":"getTokenConfig","inputs":[{"name":"tokenID","type":"string","internalType":"string"},{"name":"chainID","type":"uint256","internalType":"uint256"}],"outputs":[{"name":"","type":"tuple","internalType":"struct Structs.TokenConfig","components":[{"name":"ChainID","type":"uint256","internalType":"uint256"},{"name":"Decimals","type":"uint8","internalType":"uint8"},{"name":"ContractAddress","type":"string","internalType":"string"},{"name":"ContractVersion","type":"uint256","internalType":"uint256"},{"name":"RouterContract","type":"string","internalType":"string"},{"name":"Underlying","type":"string","internalType":"string"}]}],"stateMutability":"view"},{"type":"function","name":"getTokenConfigIfExist","inputs":[{"name":"tokenID","type":"string","internalType":"string"},{"name":"toChainID","type":"uint256","internalType":"uint256"}],"outputs":[{"name":"","type":"tuple","internalType":"struct Structs.TokenConfig","components":[{"name":"ChainID","type":"uint256","internalType":"uint256"},{"name":"Decimals","type":"uint8","internalType":"uint8"},{"name":"ContractAddress","type":"string","internalType":"string"},{"name":"ContractVersion","type":"uint256","internalType":"uint256"},{"name":"RouterContract","type":"string","internalType":"string"},{"name":"Underlying","type":"string","internalType":"string"}]},{"name":"","type":"tuple","internalType":"struct Structs.TokenConfig","components":[{"name":"ChainID","type":"uint256","internalType":"uint256"},{"name":"Decimals","type":"uint8","internalType":"uint8"},{"name":"ContractAddress","type":"string","internalType":"string"},{"name":"ContractVersion","type":"uint256","internalType":"uint256"},{"name":"RouterContract","type":"string","internalType":"string"},{"name":"Underlying","type":"string","internalType":"string"}]}],"stateMutability":"view"},{"type":"function","name":"getTokenID","inputs":[{"name":"chainID","type":"uint256","internalType":"uint256"},{"name":"tokenAddress","type":"string","internalType":"string"}],"outputs":[{"name":"","type":"string","internalType":"string"}],"stateMutability":"view"},{"type":"function","name":"getTokenIDByIndex","inputs":[{"name":"index","type":"uint256","internalType":"uint256"}],"outputs":[{"name":"","type":"string","internalType":"string"}],"stateMutability":"view"},{"type":"function","name":"gov","inputs":[],"outputs":[{"name":"","type":"address","internalType":"address"}],"stateMutability":"view"},{"type":"function","name":"grantRole","inputs":[{"name":"role","type":"bytes32","internalType":"bytes32"},{"name":"account","type":"address","internalType":"address"}],"outputs":[],"stateMutability":"nonpayable"},{"type":"function","name":"hasRole","inputs":[{"name":"role","type":"bytes32","internalType":"bytes32"},{"name":"account","type":"address","internalType":"address"}],"outputs":[{"name":"","type":"bool","internalType":"bool"}],"stateMutability":"view"},{"type":"function","name":"isChainIDExist","inputs":[{"name":"chainID","type":"uint256","internalType":"uint256"}],"outputs":[{"name":"","type":"bool","internalType":"bool"}],"stateMutability":"view"},{"type":"function","name":"isTokenIDExist","inputs":[{"name":"tokenID","type":"string","internalType":"string"}],"outputs":[{"name":"","type":"bool","internalType":"bool"}],"stateMutability":"view"},{"type":"function","name":"isValidSender","inputs":[{"name":"txSender","type":"address","internalType":"address"}],"outputs":[{"name":"","type":"bool","internalType":"bool"}],"stateMutability":"view"},{"type":"function","name":"multicall","inputs":[{"name":"data","type":"bytes[]","internalType":"bytes[]"}],"outputs":[{"name":"results","type":"bytes[]","internalType":"bytes[]"}],"stateMutability":"nonpayable"},{"type":"function","name":"renounceRole","inputs":[{"name":"role","type":"bytes32","internalType":"bytes32"},{"name":"callerConfirmation","type":"address","internalType":"address"}],"outputs":[],"stateMutability":"nonpayable"},{"type":"function","name":"revokeRole","inputs":[{"name":"role","type":"bytes32","internalType":"bytes32"},{"name":"account","type":"address","internalType":"address"}],"outputs":[],"stateMutability":"nonpayable"},{"type":"function","name":"setChainConfig","inputs":[{"name":"chainID","type":"uint256","internalType":"uint256"},{"name":"blockChain","type":"string","internalType":"string"},{"name":"routerContract","type":"string","internalType":"string"},{"name":"extra","type":"string","internalType":"string"}],"outputs":[{"name":"","type":"bool","internalType":"bool"}],"stateMutability":"nonpayable"},{"type":"function","name":"setDelay","inputs":[{"name":"_delay","type":"uint256","internalType":"uint256"}],"outputs":[],"stateMutability":"nonpayable"},{"type":"function","name":"setMPCPubkey","inputs":[{"name":"addr","type":"string","internalType":"string"},{"name":"pubkey","type":"string","internalType":"string"}],"outputs":[{"name":"","type":"bool","internalType":"bool"}],"stateMutability":"nonpayable"},{"type":"function","name":"setSwapConfig","inputs":[{"name":"tokenID","type":"string","internalType":"string"},{"name":"dstChainID","type":"uint256","internalType":"uint256"},{"name":"maxSwap","type":"uint256","internalType":"uint256"},{"name":"minSwap","type":"uint256","internalType":"uint256"}],"outputs":[{"name":"","type":"bool","internalType":"bool"}],"stateMutability":"nonpayable"},{"type":"function","name":"setSwapConfigs","inputs":[{"name":"tokenID","type":"string","internalType":"string"},{"name":"configs","type":"tuple[]","internalType":"struct Structs.SwapConfig[]","components":[{"name":"FromChainID","type":"uint256","internalType":"uint256"},{"name":"ToChainID","type":"uint256","internalType":"uint256"},{"name":"MaximumSwap","type":"uint256","internalType":"uint256"},{"name":"MinimumSwap","type":"uint256","internalType":"uint256"}]}],"outputs":[{"name":"","type":"bool","internalType":"bool"}],"stateMutability":"nonpayable"},{"type":"function","name":"setTokenConfig","inputs":[{"name":"tokenID","type":"string","internalType":"string"},{"name":"chainID","type":"uint256","internalType":"uint256"},{"name":"tokenAddr","type":"string","internalType":"string"},{"name":"decimals","type":"uint8","internalType":"uint8"},{"name":"version","type":"uint256","internalType":"uint256"},{"name":"routerContract","type":"string","internalType":"string"},{"name":"underlying","type":"string","internalType":"string"}],"outputs":[{"name":"","type":"bool","internalType":"bool"}],"stateMutability":"nonpayable"},{"type":"function","name":"supportsInterface","inputs":[{"name":"interfaceId","type":"bytes4","internalType":"bytes4"}],"outputs":[{"name":"","type":"bool","internalType":"bool"}],"stateMutability":"view"},{"type":"event","name":"LogChangeGov","inputs":[{"name":"oldGov","type":"address","indexed":true,"internalType":"address"},{"name":"newGov","type":"address","indexed":true,"internalType":"address"},{"name":"effectiveTime","type":"uint256","indexed":true,"internalType":"uint256"},{"name":"chainID","type":"uint256","indexed":false,"internalType":"uint256"}],"anonymous":false},{"type":"event","name":"LogSetChainConfig","inputs":[{"name":"chainID","type":"uint256","indexed":true,"internalType":"uint256"},{"name":"BlockChain","type":"string","indexed":false,"internalType":"string"},{"name":"RouterContract","type":"string","indexed":false,"internalType":"string"},{"name":"Extra","type":"string","indexed":false,"internalType":"string"}],"anonymous":false},{"type":"event","name":"LogSetTokenConfig","inputs":[{"name":"ChainID","type":"uint256","indexed":true,"internalType":"uint256"},{"name":"Decimals","type":"uint8","indexed":false,"internalType":"uint8"},{"name":"ContractVersion","type":"uint256","indexed":false,"internalType":"uint256"},{"name":"tokenID","type":"string","indexed":false,"internalType":"string"},{"name":"ContractAddress","type":"string","indexed":false,"internalType":"string"},{"name":"RouterContract","type":"string","indexed":false,"internalType":"string"},{"name":"Underlying","type":"string","indexed":false,"internalType":"string"}],"anonymous":false},{"type":"event","name":"LogTxSender","inputs":[{"name":"txSender","type":"address","indexed":true,"internalType":"address"},{"name":"vaild","type":"bool","indexed":false,"internalType":"bool"}],"anonymous":false},{"type":"event","name":"RoleAdminChanged","inputs":[{"name":"role","type":"bytes32","indexed":true,"internalType":"bytes32"},{"name":"previousAdminRole","type":"bytes32","indexed":true,"internalType":"bytes32"},{"name":"newAdminRole","type":"bytes32","indexed":true,"internalType":"bytes32"}],"anonymous":false},{"type":"event","name":"RoleGranted","inputs":[{"name":"role","type":"bytes32","indexed":true,"internalType":"bytes32"},{"name":"account","type":"address","indexed":true,"internalType":"address"},{"name":"sender","type":"address","indexed":true,"internalType":"address"}],"anonymous":false},{"type":"event","name":"RoleRevoked","inputs":[{"name":"role","type":"bytes32","indexed":true,"internalType":"bytes32"},{"name":"account","type":"address","indexed":true,"internalType":"address"},{"name":"sender","type":"address","indexed":true,"internalType":"address"}],"anonymous":false},{"type":"error","name":"AccessControlBadConfirmation","inputs":[]},{"type":"error","name":"AccessControlUnauthorizedAccount","inputs":[{"name":"account","type":"address","internalType":"address"},{"name":"neededRole","type":"bytes32","internalType":"bytes32"}]},{"type":"error","name":"AddressEmptyCode","inputs":[{"name":"target","type":"address","internalType":"address"}]},{"type":"error","name":"FailedInnerCall","inputs":[]}],"bytecode":{"object":"0x608034620000f257601f62003cd638819003918201601f19168301916001600160401b03831184841017620000f757808492608094604052833981010312620000f2578062000052620000e1926200010d565b9062000061602082016200010d565b90606062000072604083016200010d565b9101519160018060a01b03928360018060a01b031992168260015416176001556002556202a30060035582841690818160045416176004556005541617600555426006551660005260076020526040600020600160ff19825416179055620000da8162000122565b50620001a2565b50604051613a719081620002458239f35b600080fd5b634e487b7160e01b600052604160045260246000fd5b51906001600160a01b0382168203620000f257565b6001600160a01b031660008181527fad3228b676f7d3cd4284a5443f17f1962b36e491b30a40b2405849e597ba5fb5602052604081205490919060ff166200019e57818052816020526040822081835260205260408220600160ff19825416179055339160008051602062003cb68339815191528180a4600190565b5090565b6001600160a01b031660008181527fd4970c86de16ecd1df76427ebca809ee11eb7383bea0477ebfa92c227a1bfa4b60205260408120549091907f82db594318110a04b6349ce48645aa69f0892751bc893d15e61d9e2b9c4630f59060ff166200023f57808352826020526040832082845260205260408320600160ff1982541617905560008051602062003cb6833981519152339380a4600190565b50509056fe608080604052600436101561001357600080fd5b600090813560e01c90816301ffc9a7146128415750806306e9a46a146127f657806312d43a51146127bd578063160dcc6f146124c657806319ed16dc146124435780631a192d82146122f757806321576975146122ca578063248a9ca31461229e5780632f2ff15d14612261578063339d7ed8146121af57806334e300971461219357806334fd013514611e3357806336568abe14611dc65780633c6b1a8f14611d2a578063459511d114611c4a5780634da7163c14611bef57806358f2c05714611bbb578063684a10b314611b275780636a42b8f814611b095780636e35edfd14611a4157806371a4a9471461189057806372c93288146118725780638fcb62a31461173757806391d14854146116e357806395d4105c1461143957806399a2f2d71461141e5780639f1cdedd146113d2578063a217fddf146113b6578063a43f37d714611398578063a4d19feb1461135d578063a962ef1e146111ed578063abad7b5c14611198578063ac9650d814610f27578063acf037f814610dd5578063af611ca014610d85578063b121f51d14610bbc578063b4d8d47c14610adf578063b735ab5a14610a98578063c03411ba14610988578063c516ad111461096a578063d547741f14610929578063d60ad41b146107c9578063d825b3ef1461074d578063dd64b3e6146105a5578063e177246e14610546578063e27112d514610492578063e828d00f14610451578063eebd14af1461038d578063f01f2b8b14610343578063f9e4cbaf146102835763fd15ea701461025257600080fd5b346102805760206003193601126102805760ff60406020926004358152600984522054166040519015158152f35b80fd5b50346102805760206003193601126102805761029d612b74565b73ffffffffffffffffffffffffffffffffffffffff90816102bc612dbe565b163314801561032f575b6102cf90612e00565b168082526007602052604082207fffffffffffffffffffffffffffffffffffffffffffffffffffffffffffffff0081541690557fbfb8b3e2f6221ae729e9cacb0d35f5d9be686ba10cb1d4e34b646bbb87f7a2696020604051848152a280f35b506102cf61033c33612e65565b90506102c6565b50346102805760206003193601126102805760ff604060209273ffffffffffffffffffffffffffffffffffffffff610379612b74565b168152600784522054166040519015158152f35b5034610280576020600319360112610280576103a7612b74565b73ffffffffffffffffffffffffffffffffffffffff90816103c6612dbe565b163314801561043d575b6103d990612e00565b1680825260076020526040822060017fffffffffffffffffffffffffffffffffffffffffffffffffffffffffffffff008254161790557fbfb8b3e2f6221ae729e9cacb0d35f5d9be686ba10cb1d4e34b646bbb87f7a269602060405160018152a280f35b506103d961044a33612e65565b90506103d0565b50346102805760206003193601126102805761048e61047a610474600435612f55565b50612fdf565b604051918291602083526020830190612a62565b0390f35b503461028057806003193601126102805760405180916008549081835260208093018092600883527ff3f7a9fe364faab93b216da50a3214154f22a0a2b415b23a84c8169e8b636ee390835b81811061053257505050846104f4910385612978565b60405193838594850191818652518092526040850193925b82811061051b57505050500390f35b83518552869550938101939281019260010161050c565b8254845292860192600192830192016104de565b50346102805760206003193601126102805773ffffffffffffffffffffffffffffffffffffffff610575612dbe565b1633148015610591575b61058890612e00565b60043560035580f35b5061058861059e33612e65565b905061057f565b503461028057600319906060823601126102805767ffffffffffffffff600435818111610749576105da903690600401612d25565b92602435828111610745576105f3903690600401612d25565b916044359081116107455761060c9036906004016129f3565b73ffffffffffffffffffffffffffffffffffffffff948561062b612dbe565b1633148015610731575b61063e90612e00565b80518451036106f9578495600154169060025493823b156106f55786946106c986926106aa966106ba6040519a8b998a9889977fec6a8b7d0000000000000000000000000000000000000000000000000000000089526004890152608060248901526084880190612c65565b9084878303016044880152612c65565b91848303016064850152612a62565b03925af180156106ea576106da5750f35b6106e390612964565b6102805780f35b6040513d84823e3d90fd5b8680fd5b604485604051907f08c379a0000000000000000000000000000000000000000000000000000000008252602060048301526024820152fd5b5061063e61073e33612e65565b9050610635565b8380fd5b8280fd5b503461028057608061079c610796602061078761076936612b97565b9290610773613192565b508160405193828580945193849201612a3f565b8101600e8152030190206131e9565b506131b7565b6107c76040518092606080918051845260208101516020850152604081015160408501520151910152565bf35b503461028057600319606081360112610925578167ffffffffffffffff600435818111610749576107fe9036906004016129f3565b90602435818111610745576108179036906004016129f3565b90604435908111610745576108309036906004016129f3565b9073ffffffffffffffffffffffffffffffffffffffff8061084f612dbe565b1633148015610911575b61086290612e00565b600154169160025491833b1561090d576108c396866108e381946108d36020956040519c8d9b8c9a7f27a63fd8000000000000000000000000000000000000000000000000000000008c5260048c015260a060248c015260a48b0190612a62565b90868a83030160448b0152612a62565b9084888303016064890152612a62565b85810392830160848701525201925af180156106ea57610901575080f35b61090a90612964565b80f35b8580fd5b5061086261091e33612e65565b9050610859565b5080fd5b503461028057604060031936011261028057610966600435610949612b51565b908084528360205261096160016040862001546137f3565b6138fa565b5080f35b50346102805780600319360112610280576020600254604051908152f35b50346102805761099736612c2f565b809260405181818093516109b18160209687809601612a3f565b8101600e815203019020918254809111610a90575b506109d18385613205565b947fffffffffffffffffffffffffffffffffffffffffffffffffffffffffffffffe0610a156109ff88612d0d565b97610a0d604051998a612978565b808952612d0d565b01905b818110610a7a57505050815b838110610a39576040518061048e8782612bc9565b80610a6f610a4a610a7593856131e9565b50610a5e610a588785613205565b916131b7565b610a68828a613159565b5287613159565b506130fd565b610a24565b8290610a84613192565b82828a01015201610a18565b9350386109c6565b50346102805761047a604061048e926020610ac9610ab536612b97565b929081865193828580945193849201612a3f565b8101601081520301902090825260205220612fdf565b50346102805760406003193601126102805767ffffffffffffffff60043581811161074957610b129036906004016129f3565b90602435908111610749576020610b9d939260ff6040610b39610b8e9536906004016129f3565b957f82db594318110a04b6349ce48645aa69f0892751bc893d15e61d9e2b9c4630f5815280855281812033825285522054168015610ba8575b610b7b90613212565b8160405193828580945193849201612a3f565b8101601381520301902061328e565b602060405160018152f35b50610b7b610bb533612e65565b9050610b72565b5034610280576060600319360112610280578067ffffffffffffffff602435818111610d8157610bf0903690600401612cdf565b9160443591508111610d8157610c0a903690600401612cdf565b505073ffffffffffffffffffffffffffffffffffffffff60015416604051907f7ac07dcc0000000000000000000000000000000000000000000000000000000082523360048301528160248160209788945af1908115610d76578391610d49575b5015610ceb5760025460043503610c8d57600411610280575060405160018152f35b606483604051907f08c379a00000000000000000000000000000000000000000000000000000000082526004820152600f60248201527f646170704944206469736d6174636800000000000000000000000000000000006044820152fd5b606483604051907f08c379a00000000000000000000000000000000000000000000000000000000082526004820152601860248201527f433343616c6c6572446170703a206f6e6c7943616c6c657200000000000000006044820152fd5b610d699150843d8611610d6f575b610d618183612978565b810190612da6565b38610c6b565b503d610d57565b6040513d85823e3d90fd5b5050fd5b5034610280576020600319360112610280576004359067ffffffffffffffff821161028057602060ff610dbf82610b7b36600488016129f3565b8101600c81520301902054166040519015158152f35b503461028057610f1a9061048e6040610ded36612b97565b919093610df86130ca565b50610e016130ca565b50815192610e9d86519460209581878093818c0193610e21818387612a3f565b8101600f815203019020468652825285852098610e88600588519b610e458d61292c565b80548d52600181015460ff16868e01528c8a610e6360028401612fdf565b910152600381015460608e01528c6080610e7f60048401612fdf565b91015201612fdf565b60a08b01528651938492839251928391612a3f565b8101600f815203019020908252835220610f01600560405192610ebf8461292c565b8054845260ff60018201541685850152610edb60028201612fdf565b604085015260038101546060850152610ef660048201612fdf565b608085015201612fdf565b60a0820152604051948594604086526040860190612aa5565b9184830390850152612aa5565b5034610280576020806003193601126109255760043567ffffffffffffffff92838211610280573660238301121561028057816004013591848311610925576024600595368286891b8501011161074557604051868101928184108385111761116d5783604097959752858252610f9d85612d0d565b96610fab6040519889612978565b8588527fffffffffffffffffffffffffffffffffffffffffffffffffffffffffffffffe0610fd887612d0d565b0189885b82811061115d5750505086907fffffffffffffffffffffffffffffffffffffffffffffffffffffffffffffffbd81360301915b878110611092578b8b8b8b6040519280840190808552835180925280604083818801981b870101940192955b8287106110485785850386f35b909192938280611082837fffffffffffffffffffffffffffffffffffffffffffffffffffffffffffffffc08a600196030186528851612a62565b960192019601959291909261103b565b83818d1b8301013583811215611159578201848101359087821161115557604401908036038213611155578c8b8061114795946110f36110ff858f978e6111329960405195838794868601998a37840191858301938a855251938491612a3f565b01038084520182612978565b5190305af43d1561114c573d611114816129b9565b906111226040519283612978565b81528d81933d92013e5b3061399b565b61113c828d613159565b52610a6f818c613159565b61100f565b6060915061112c565b8a80fd5b8980fd5b60608b82018301528b9101610fdc565b857f4e487b710000000000000000000000000000000000000000000000000000000081526041600452fd5b50346102805760406003193601126102805760243567ffffffffffffffff8111610925576111e861048e9260406111d661047a9436906004016129f3565b916004358152601260205220906130a4565b612fdf565b503461028057602060031936011261028057611207612b74565b73ffffffffffffffffffffffffffffffffffffffff809181611227612dbe565b1633148015611349575b61123a90612e00565b169081156112eb5761124a612dbe565b1690807fffffffffffffffffffffffff00000000000000000000000000000000000000008381600454161760045560055416176005556003544201918242116112be57826006557f4552e521eca39a029d33503b3e2003db87de01f8396f9e3fdd9dddddb9b838b46020604051468152a480f35b6024847f4e487b710000000000000000000000000000000000000000000000000000000081526011600452fd5b60646040517f08c379a000000000000000000000000000000000000000000000000000000000815260206004820152600f60248201527f6e6577476f7620697320656d70747900000000000000000000000000000000006044820152fd5b5061123a61135633612e65565b9050611231565b503461028057806003193601126102805760206040517f82db594318110a04b6349ce48645aa69f0892751bc893d15e61d9e2b9c4630f58152f35b50346102805780600319360112610280576020600b54604051908152f35b5034610280578060031936011261028057602090604051908152f35b5034610280576020600319360112610280576004359067ffffffffffffffff82116102805761048e61047a61140f6020610b7b36600488016129f3565b81016013815203019020612fdf565b50346102805780600319360112610280576020604051468152f35b50346102805760806003193601126102805760043567ffffffffffffffff6024358181116107455761146f9036906004016129f3565b6044358281116116df576114879036906004016129f3565b916064359081116116df576114a09036906004016129f3565b907f82db594318110a04b6349ce48645aa69f0892751bc893d15e61d9e2b9c4630f5855260209480865260408120338252865260ff60408220541680156116cb575b6114eb90613212565b6040516114f781612948565b858152868101928352604081019485526060810193845285156109255761154e90868352600a8852604083209051815561153584516001830161328e565b61154386516002830161328e565b60038551910161328e565b848152600a86528460408220556009865260ff604082205416156115dc575b50916115d06115b5926115c27fce7ec6b2d861c96c6b9999e9d87ee85f3a3afcd15ebd381a0a4f5133b78cc0ee95519351915191604051958695606087526060870190612a62565b908582038a870152612a62565b908382036040850152612a62565b0390a260405160018152f35b6008546801000000000000000081101561169e57926115c27fce7ec6b2d861c96c6b9999e9d87ee85f3a3afcd15ebd381a0a4f5133b78cc0ee959360406115d0946116308860016115b59a01600855612eef565b81549060031b907fffffffffffffffffffffffffffffffffffffffffffffffffffffffffffffffff8d831b921b191617905589815260098b522060017fffffffffffffffffffffffffffffffffffffffffffffffffffffffffffffff0082541617905593955050925061156d565b6024827f4e487b710000000000000000000000000000000000000000000000000000000081526041600452fd5b506114eb6116d833612e65565b90506114e2565b8480fd5b50346102805760406003193601126102805760ff6040602092611704612b51565b600435825281855273ffffffffffffffffffffffffffffffffffffffff8383209116825284522054166040519015158152f35b5034610280576020806003193601126109255760043567ffffffffffffffff81116107495761176f82610b7b859336906004016129f3565b8101600d81520301902080549161178583612d0d565b926117936040519485612978565b8084528484018093835285832083915b8383106118375750505050604051928484019085855251809152604084019460408260051b8601019392955b8287106117dc5785850386f35b909192938280611827837fffffffffffffffffffffffffffffffffffffffffffffffffffffffffffffffc08a600196030186526040838a518051845201519181858201520190612a62565b96019201960195929190926117cf565b60028860019260409a99979a5161184d816128e1565b8554815261185c858701612fdf565b83820152815201920192019190969395966117a3565b50346102805780600319360112610280576020600854604051908152f35b50346102805780600319360112610280576008546118ad81612d0d565b906118bb6040519283612978565b8082527fffffffffffffffffffffffffffffffffffffffffffffffffffffffffffffffe06118e882612d0d565b01835b818110611a2a5750506118fc61316d565b50825b81811061198557505060405190602092838301848452825180915260408401948060408360051b870101940192955b82871061193b5785850386f35b909192938280611975837fffffffffffffffffffffffffffffffffffffffffffffffffffffffffffffffc08a600196030186528851612b08565b960192019601959291909261192e565b80611992611a2592612eef565b9054600391821b1c908187526020600a81526040882090604051916119b683612948565b805483526119ea6119c960018301612fdf565b948385019586526119dc60028401612fdf565b926040860193845201612fdf565b93846060809501525190519160405195611a0387612948565b86528501526040840152820152611a1a8286613159565b52610a6f8185613159565b6118ff565b602090611a3561316d565b828287010152016118eb565b50346102805760806003193601126102805760043567ffffffffffffffff81116109255760209160ff6040611a7d611aeb9436906004016129f3565b927f82db594318110a04b6349ce48645aa69f0892751bc893d15e61d9e2b9c4630f5815280865281812033825286522054168015611af5575b611abf90613212565b60405190611acc82612948565b4682526024358483015260443560408301526064356060830152613445565b6040519015158152f35b50611abf611b0233612e65565b9050611ab6565b50346102805780600319360112610280576020600354604051908152f35b5034610280578060031936011261028057600b5490611b4582612d0d565b91611b536040519384612978565b808352600b82526020917f0175b7a638427703f0dbe7bb9bbf987a2551717b34e79f33b5b1008d1fa01db9838086015b848410611b9d576040518281528061048e8185018a612c65565b6001918291611bab85612fdf565b8152019201920191908490611b83565b5034610280578060031936011261028057602073ffffffffffffffffffffffffffffffffffffffff60015416604051908152f35b50346102805761079c6040608092611c2b6020611c0b36612c2f565b9391611c18939193613192565b5081875193828580945193849201612a3f565b81016011815203019020908352602052828220908252602052206131b7565b503461028057611c5936612b97565b611c616130ca565b506040518281809451611c7a8160209788809601612a3f565b8101600f8152030190208184528252604083209060405193611c9b8561292c565b8254855260ff60018401541684860152611cb760028401612fdf565b604086015260038301546060860152611ce56005611cd760048601612fdf565b946080880195865201612fdf565b60a086015282515115611d0a575b50505061048e604051928284938452830190612aa5565b604081611d209360029352600a86522001612fdf565b9052388080611cf3565b5034610280576020806003193601126109255760043567ffffffffffffffff81116107495781610b7b611d619236906004016129f3565b8101600e815203019020805490611d7782612d0d565b92611d856040519485612978565b82845280840191855280852094915b838310611da9576040518061048e8782612bc9565b600482600192611db8896131b7565b815201960192019194611d94565b503461028057604060031936011261028057611de0612b51565b3373ffffffffffffffffffffffffffffffffffffffff821603611e0957610966906004356138fa565b60046040517f6697b232000000000000000000000000000000000000000000000000000000008152fd5b50346102805760e06003193601126102805767ffffffffffffffff9060043582811161092557611e679036906004016129f3565b906024359060443584811161092557611e849036906004016129f3565b906064359360ff85168095036109255760a43586811161074957611eac9036906004016129f3565b9560c43590811161074957611ec59036906004016129f3565b957f82db594318110a04b6349ce48645aa69f0892751bc893d15e61d9e2b9c4630f5835260209583875260408420338552875260ff604085205416801561217f575b611f1090613212565b604051611f1c8161292c565b86815287810191825260408101958652606081019460843586526080820193845260a08201998a5287151580612175575b1561028057604051908551918a8181890194611f6a818388612a3f565b8101600f8152030190208982528a526040812092518355611fe6600184019360ff865116947fffffffffffffffffffffffffffffffffffffffffffffffffffffffffffffff009586825416179055611fc68a516002830161328e565b88516003820155611fdb87516004830161328e565b60058d51910161328e565b60ff6040518b818951611ffa818389612a3f565b8101600c8152030190205416156120a3575b5050508596976120876115d0949361207960ff612095956120517fb2fcbe1c1d185ca80230c812e8ddc6d1b10a441d37c49efc02142cb876f5a4b39c8c51908a6135bb565b5116975198519151935195604051998a998a528d8a015260c060408a015260c0890190612a62565b908782036060890152612a62565b908582036080870152612a62565b9083820360a0850152612a62565b600b546801000000000000000081101561169e578060016120c79201600b55612f55565b91909161214957509361207960ff612095958c9d9560016121287fb2fcbe1c1d185ca80230c812e8ddc6d1b10a441d37c49efc02142cb876f5a4b39e9f612087986121168e6115d09f9e61328e565b8c604051938492839251928391612a3f565b8101600c81520301902091825416179055955050509394829a99985061200c565b807f4e487b71000000000000000000000000000000000000000000000000000000006024925280600452fd5b5084511515611f4d565b50611f1061218c33612e65565b9050611f07565b5034610280578060031936011261028057602060405160018152f35b50346102805760406121c036612b97565b6121cb9391936130ca565b50825184818096516121e3816020998a809601612a3f565b8101600f815203019020908252835220906122486005604051936122068561292c565b8054855260ff6001820154168486015261222260028201612fdf565b60408601526003810154606086015261223d60048201612fdf565b608086015201612fdf565b60a083015261048e604051928284938452830190612aa5565b503461028057604060031936011261028057610966600435612281612b51565b908084528360205261229960016040862001546137f3565b613850565b503461028057602060031936011261028057600160406020926004358152808452200154604051908152f35b50346102805760206003193601126102805760206122e9600435612eef565b90546040519160031b1c8152f35b50346102805760406003193601126102805767ffffffffffffffff6004358181116107495761232a9036906004016129f3565b90602491823593828511610280573660238601121561028057846004013592831161028057600794368585881b83010111610925577f82db594318110a04b6349ce48645aa69f0892751bc893d15e61d9e2b9c4630f5825260209582875260408320338452875260ff604084205416801561242f575b6123a990613212565b825b8581106123bc578760405160018152f35b80821b830160807fffffffffffffffffffffffffffffffffffffffffffffffffffffffffffffffdc82360301126116df5790610a6f61242a9260846040519161240483612948565b8b810135835260448101358d840152606481013560408401520135606082015287613445565b6123ab565b506123a961243c33612e65565b90506123a0565b503461028057602060031936011261028057604061048e9161246361316d565b506004358152600a602052206124ad60036040519261248184612948565b8054845261249160018201612fdf565b60208501526124a260028201612fdf565b604085015201612fdf565b6060820152604051918291602083526020830190612b08565b50346102805760206003193601126102805760043567ffffffffffffffff8111610925576124f89036906004016129f3565b60405181519060208181850193612510818387612a3f565b8101600d815203019020805461252581612d0d565b916125336040519384612978565b81835285526020808620869184015b838310612789575050505080519161255983612d0d565b936125676040519586612978565b8385527fffffffffffffffffffffffffffffffffffffffffffffffffffffffffffffffe061259485612d0d565b01865b8181106127725750506125b891602091604051938492839251928391612a3f565b8101600f815203019020906125cb6130ca565b50845b8381106126585784866040519182916020830160208452825180915260408401602060408360051b870101940192905b82821061260d57505050500390f35b91936020612648827fffffffffffffffffffffffffffffffffffffffffffffffffffffffffffffffc060019597998495030186528851612aa5565b96019201920185949391926125fe565b8061266661273e9284613159565b51518088528460205260408820604051906126808261292c565b8054825260ff908160018201541660208401526126cc60056002926126a6848201612fdf565b6040870152600381015460608701526126c160048201612fdf565b608087015201612fdf565b60a08401526080830151511580612764575b612743575b5060208201511690604081015160608201519060a06080840151930151936040519561270e8761292c565b8652602086015260408501526060840152608083015260a08201526127338288613159565b52610a6f8187613159565b6125ce565b61275990848c52600a60205260408c2001612fdf565b6080830152386126e3565b5060408301515115156126de565b60209061277d6130ca565b82828a01015201612597565b6002602060019260405161279c816128e1565b855481526127ab858701612fdf565b83820152815201920192019190612542565b503461028057806003193601126102805760206127d8612dbe565b73ffffffffffffffffffffffffffffffffffffffff60405191168152f35b5034610280576020600319360112610280576004359067ffffffffffffffff821161028057602061282e81610b7b36600487016129f3565b8101600e81520301902054604051908152f35b905034610925576020600319360112610925576004357fffffffff00000000000000000000000000000000000000000000000000000000811680910361074957602092507f7965db0b0000000000000000000000000000000000000000000000000000000081149081156128b7575b5015158152f35b7f01ffc9a700000000000000000000000000000000000000000000000000000000915014386128b0565b6040810190811067ffffffffffffffff8211176128fd57604052565b7f4e487b7100000000000000000000000000000000000000000000000000000000600052604160045260246000fd5b60c0810190811067ffffffffffffffff8211176128fd57604052565b6080810190811067ffffffffffffffff8211176128fd57604052565b67ffffffffffffffff81116128fd57604052565b90601f7fffffffffffffffffffffffffffffffffffffffffffffffffffffffffffffffe0910116810190811067ffffffffffffffff8211176128fd57604052565b67ffffffffffffffff81116128fd57601f017fffffffffffffffffffffffffffffffffffffffffffffffffffffffffffffffe01660200190565b81601f82011215612a3a57803590612a0a826129b9565b92612a186040519485612978565b82845260208383010111612a3a57816000926020809301838601378301015290565b600080fd5b60005b838110612a525750506000910152565b8181015183820152602001612a42565b907fffffffffffffffffffffffffffffffffffffffffffffffffffffffffffffffe0601f602093612a9e81518092818752878088019101612a3f565b0116010190565b612b05918151815260ff602083015116602082015260a0612af4612ad8604085015160c0604086015260c0850190612a62565b6060850151606085015260808501518482036080860152612a62565b9201519060a0818403910152612a62565b90565b612b0591815181526060612b40612b2e6020850151608060208601526080850190612a62565b60408501518482036040860152612a62565b920151906060818403910152612a62565b6024359073ffffffffffffffffffffffffffffffffffffffff82168203612a3a57565b6004359073ffffffffffffffffffffffffffffffffffffffff82168203612a3a57565b6040600319820112612a3a576004359067ffffffffffffffff8211612a3a57612bc2916004016129f3565b9060243590565b6020908160408183019282815285518094520193019160005b828110612bf0575050505090565b9091929382608082612c236001948951606080918051845260208101516020850152604081015160408501520151910152565b01950193929101612be2565b6060600319820112612a3a576004359067ffffffffffffffff8211612a3a57612c5a916004016129f3565b906024359060443590565b908082519081815260208091019281808460051b8301019501936000915b848310612c935750505050505090565b9091929394958480612ccf837fffffffffffffffffffffffffffffffffffffffffffffffffffffffffffffffe086600196030187528a51612a62565b9801930193019194939290612c83565b9181601f84011215612a3a5782359167ffffffffffffffff8311612a3a5760208381860195010111612a3a57565b67ffffffffffffffff81116128fd5760051b60200190565b9080601f83011215612a3a57813590612d3d82612d0d565b92612d4b6040519485612978565b828452602092838086019160051b83010192808411612a3a57848301915b848310612d795750505050505090565b823567ffffffffffffffff8111612a3a578691612d9b848480948901016129f3565b815201920191612d69565b90816020910312612a3a57518015158103612a3a5790565b600654421015612de45773ffffffffffffffffffffffffffffffffffffffff6004541690565b73ffffffffffffffffffffffffffffffffffffffff6005541690565b15612e0757565b60646040517f08c379a000000000000000000000000000000000000000000000000000000000815260206004820152600d60248201527f476f7620464f5242494444454e000000000000000000000000000000000000006044820152fd5b602073ffffffffffffffffffffffffffffffffffffffff6024816001541693600060405195869485937f7ac07dcc0000000000000000000000000000000000000000000000000000000085521660048401525af1908115612ee357600091612ecb575090565b612b05915060203d8111610d6f57610d618183612978565b6040513d6000823e3d90fd5b600854811015612f265760086000527ff3f7a9fe364faab93b216da50a3214154f22a0a2b415b23a84c8169e8b636ee30190600090565b7f4e487b7100000000000000000000000000000000000000000000000000000000600052603260045260246000fd5b600b54811015612f2657600b6000527f0175b7a638427703f0dbe7bb9bbf987a2551717b34e79f33b5b1008d1fa01db90190600090565b90600182811c92168015612fd5575b6020831014612fa657565b7f4e487b7100000000000000000000000000000000000000000000000000000000600052602260045260246000fd5b91607f1691612f9b565b9060405191826000825492612ff384612f8c565b908184526001948581169081600014613062575060011461301f575b505061301d92500383612978565b565b9093915060005260209081600020936000915b81831061304a57505061301d9350820101388061300f565b85548884018501529485019487945091830191613032565b905061301d9550602093507fffffffffffffffffffffffffffffffffffffffffffffffffffffffffffffff0091501682840152151560051b820101388061300f565b6020906130be928260405194838680955193849201612a3f565b82019081520301902090565b604051906130d78261292c565b606060a08360008152600060208201528260408201526000838201528260808201520152565b7fffffffffffffffffffffffffffffffffffffffffffffffffffffffffffffffff811461312a5760010190565b7f4e487b7100000000000000000000000000000000000000000000000000000000600052601160045260246000fd5b8051821015612f265760209160051b010190565b6040519061317a82612948565b60608083600081528160208201528160408201520152565b6040519061319f82612948565b60006060838281528260208201528260408201520152565b906040516131c481612948565b6060600382948054845260018101546020850152600281015460408501520154910152565b8054821015612f265760005260206000209060021b0190600090565b9190820391821161312a57565b1561321957565b60646040517f08c379a000000000000000000000000000000000000000000000000000000000815260206004820152601260248201527f54523a204155544820464f5242494444454e00000000000000000000000000006044820152fd5b818110613282575050565b60008155600101613277565b919091825167ffffffffffffffff81116128fd576132ac8254612f8c565b601f81116133af575b50602080601f831160011461330f575081929394600092613304575b50507fffffffffffffffffffffffffffffffffffffffffffffffffffffffffffffffff8260011b9260031b1c1916179055565b0151905038806132d1565b907fffffffffffffffffffffffffffffffffffffffffffffffffffffffffffffffe08316958460005282600020926000905b88821061339757505083600195969710613360575b505050811b019055565b01517fffffffffffffffffffffffffffffffffffffffffffffffffffffffffffffffff60f88460031b161c19169055388080613356565b80600185968294968601518155019501930190613341565b6133dc90836000526020600020601f840160051c810191602085106133e2575b601f0160051c0190613277565b386132b5565b90915081906133cf565b91906134165780518255602081015160018301556040810151600283015560600151600390910155565b7f4e487b7100000000000000000000000000000000000000000000000000000000600052600060045260246000fd5b80518015612a3a5782516020906134c98280870151946040518281818a019361346f818387612a3f565b810160118152030190209660009785895283526040882087895283526134b88960408a209060606003918051845560208101516001850155604081015160028501550151910155565b604051938492839251928391612a3f565b8101600e815203019020928354926134df613192565b50855b84811061354f5750505050508054916801000000000000000083101561352257508161351791600161351d95940181556131e9565b906133ec565b600190565b807f4e487b7100000000000000000000000000000000000000000000000000000000602492526041600452fd5b61355c61079682886131e9565b8383868351149283613592575b50505061357e57613579906130fd565b6134e2565b935050505061351d939250613517916131e9565b0151149050838338613569565b8054821015612f265760005260206000209060011b0190600090565b9091821515806137e9575b15612a3a57600090838252601290602093828552613638856040926135f6816135f1868a20886130a4565b61328e565b83519080519183818184019461360d818388612a3f565b810160108152030190208a8952835261362886868a2061328e565b8451938492839251928391612a3f565b8101600d81520301902092845b84548110156137685787613659828761359f565b50541461366e57613669906130fd565b613645565b96613679888661359f565b50976136886001809a01612fdf565b948051865181149081613718575b50156136a9575b50505050505050505050565b6000996136bc6136c3936136cf9961359f565b500161328e565b855285528320906130a4565b916136da8354612f8c565b90601f908183116136fa575b50505050553880808080808080808061369d565b838561370f955220910160051c810190613277565b388080806136e6565b9050855161373f8b82818101946137328187858a01612a3f565b8101038084520182612978565b51902085518a81019061375e8c82816137328d87815193849201612a3f565b5190201438613696565b5050519294909390613779846128e1565b83528201928352805490680100000000000000008210156137bc57906137a49160018201815561359f565b93909361214957505182555161301d9160010161328e565b6024857f4e487b710000000000000000000000000000000000000000000000000000000081526041600452fd5b50815115156135c6565b80600052600060205260406000203360005260205260ff60406000205416156138195750565b604490604051907fe2517d3f0000000000000000000000000000000000000000000000000000000082523360048301526024820152fd5b906000918083528260205273ffffffffffffffffffffffffffffffffffffffff6040842092169182845260205260ff604084205416156000146138f55780835282602052604083208284526020526040832060017fffffffffffffffffffffffffffffffffffffffffffffffffffffffffffffff008254161790557f2f8788117e7eff1d82e926ec794901d17c78024a50270940304540a733656f0d339380a4600190565b505090565b906000918083528260205273ffffffffffffffffffffffffffffffffffffffff6040842092169182845260205260ff6040842054166000146138f5578083528260205260408320828452602052604083207fffffffffffffffffffffffffffffffffffffffffffffffffffffffffffffff0081541690557ff6391f5c32d9c69d2a47ea670b442974b53935d1edc7fd64eb21e047a839171b339380a4600190565b906139da57508051156139b057805190602001fd5b60046040517f1425ea42000000000000000000000000000000000000000000000000000000008152fd5b81511580613a32575b6139eb575090565b60249073ffffffffffffffffffffffffffffffffffffffff604051917f9996b315000000000000000000000000000000000000000000000000000000008352166004820152fd5b50803b156139e356fea26469706673582212201ff9dd7a2313556ef36caed96c14c7f73caa8e76b29146e816bcf5599b8daaa664736f6c634300081400332f8788117e7eff1d82e926ec794901d17c78024a50270940304540a733656f0d","linkReferences":{}},"methodIdentifiers":{"CONFIG_ROLE()":"a4d19feb","CONFIG_VERSION()":"34e30097","DEFAULT_ADMIN_ROLE()":"a217fddf","addTxSender(address)":"eebd14af","c3CallerProxy()":"58f2c057","c3Fallback(uint256,bytes,bytes)":"b121f51d","cID()":"99a2f2d7","changeGov(address)":"a962ef1e","dappID()":"c516ad11","delay()":"6a42b8f8","disableTxSender(address)":"f9e4cbaf","doGov(string,string,bytes)":"d60ad41b","doGovBroadcast(string[],string[],bytes)":"dd64b3e6","getAllChainConfig()":"71a4a947","getAllChainIDLength()":"72c93288","getAllChainIDs()":"e27112d5","getAllMultichainTokenConfig(string)":"160dcc6f","getAllMultichainTokens(string)":"8fcb62a3","getAllSwapConfigs(string)":"3c6b1a8f","getAllTokenIDLength()":"a43f37d7","getAllTokenIDs()":"684a10b3","getChainConfig(uint256)":"19ed16dc","getChainIDByIndex(uint256)":"21576975","getMPCPubkey(string)":"9f1cdedd","getMultichainToken(string,uint256)":"b735ab5a","getOriginalTokenConfig(string,uint256)":"339d7ed8","getRoleAdmin(bytes32)":"248a9ca3","getSwapConfig(string,uint256,uint256)":"4da7163c","getSwapConfigAtIndex(string,uint256)":"d825b3ef","getSwapConfigAtIndexRange(string,uint256,uint256)":"c03411ba","getSwapConfigsCount(string)":"06e9a46a","getTokenConfig(string,uint256)":"459511d1","getTokenConfigIfExist(string,uint256)":"acf037f8","getTokenID(uint256,string)":"abad7b5c","getTokenIDByIndex(uint256)":"e828d00f","gov()":"12d43a51","grantRole(bytes32,address)":"2f2ff15d","hasRole(bytes32,address)":"91d14854","isChainIDExist(uint256)":"fd15ea70","isTokenIDExist(string)":"af611ca0","isValidSender(address)":"f01f2b8b","multicall(bytes[])":"ac9650d8","renounceRole(bytes32,address)":"36568abe","revokeRole(bytes32,address)":"d547741f","setChainConfig(uint256,string,string,string)":"95d4105c","setDelay(uint256)":"e177246e","setMPCPubkey(string,string)":"b4d8d47c","setSwapConfig(string,uint256,uint256,uint256)":"6e35edfd","setSwapConfigs(string,(uint256,uint256,uint256,uint256)[])":"1a192d82","setTokenConfig(string,uint256,string,uint8,uint256,string,string)":"34fd0135","supportsInterface(bytes4)":"01ffc9a7"},"id":22}