{"abi":[{"type":"constructor","inputs":[],"stateMutability":"nonpayable"},{"type":"function","name":"allowance","inputs":[{"name":"owner","type":"address","internalType":"address"},{"name":"spender","type":"address","internalType":"address"}],"outputs":[{"name":"","type":"uint256","internalType":"uint256"}],"stateMutability":"view"},{"type":"function","name":"approve","inputs":[{"name":"spender","type":"address","internalType":"address"},{"name":"value","type":"uint256","internalType":"uint256"}],"outputs":[{"name":"","type":"bool","internalType":"bool"}],"stateMutability":"nonpayable"},{"type":"function","name":"balanceOf","inputs":[{"name":"account","type":"address","internalType":"address"}],"outputs":[{"name":"","type":"uint256","internalType":"uint256"}],"stateMutability":"view"},{"type":"function","name":"decimals","inputs":[],"outputs":[{"name":"","type":"uint8","internalType":"uint8"}],"stateMutability":"pure"},{"type":"function","name":"name","inputs":[],"outputs":[{"name":"","type":"string","internalType":"string"}],"stateMutability":"view"},{"type":"function","name":"print","inputs":[{"name":"to","type":"address","internalType":"address"},{"name":"amount","type":"uint256","internalType":"uint256"}],"outputs":[],"stateMutability":"nonpayable"},{"type":"function","name":"symbol","inputs":[],"outputs":[{"name":"","type":"string","internalType":"string"}],"stateMutability":"view"},{"type":"function","name":"totalSupply","inputs":[],"outputs":[{"name":"","type":"uint256","internalType":"uint256"}],"stateMutability":"view"},{"type":"function","name":"transfer","inputs":[{"name":"to","type":"address","internalType":"address"},{"name":"value","type":"uint256","internalType":"uint256"}],"outputs":[{"name":"","type":"bool","internalType":"bool"}],"stateMutability":"nonpayable"},{"type":"function","name":"transferFrom","inputs":[{"name":"from","type":"address","internalType":"address"},{"name":"to","type":"address","internalType":"address"},{"name":"value","type":"uint256","internalType":"uint256"}],"outputs":[{"name":"","type":"bool","internalType":"bool"}],"stateMutability":"nonpayable"},{"type":"event","name":"Approval","inputs":[{"name":"owner","type":"address","indexed":true,"internalType":"address"},{"name":"spender","type":"address","indexed":true,"internalType":"address"},{"name":"value","type":"uint256","indexed":false,"internalType":"uint256"}],"anonymous":false},{"type":"event","name":"Transfer","inputs":[{"name":"from","type":"address","indexed":true,"internalType":"address"},{"name":"to","type":"address","indexed":true,"internalType":"address"},{"name":"value","type":"uint256","indexed":false,"internalType":"uint256"}],"anonymous":false},{"type":"error","name":"ERC20InsufficientAllowance","inputs":[{"name":"spender","type":"address","internalType":"address"},{"name":"allowance","type":"uint256","internalType":"uint256"},{"name":"needed","type":"uint256","internalType":"uint256"}]},{"type":"error","name":"ERC20InsufficientBalance","inputs":[{"name":"sender","type":"address","internalType":"address"},{"name":"balance","type":"uint256","internalType":"uint256"},{"name":"needed","type":"uint256","internalType":"uint256"}]},{"type":"error","name":"ERC20InvalidApprover","inputs":[{"name":"approver","type":"address","internalType":"address"}]},{"type":"error","name":"ERC20InvalidReceiver","inputs":[{"name":"receiver","type":"address","internalType":"address"}]},{"type":"error","name":"ERC20InvalidSender","inputs":[{"name":"sender","type":"address","internalType":"address"}]},{"type":"error","name":"ERC20InvalidSpender","inputs":[{"name":"spender","type":"address","internalType":"address"}]}],"bytecode":{"object":"0x60803462000313576040906001600160401b03908083018281118282101762000213578352600e81526020916d2220a49039ba30b13632b1b7b4b760911b83830152835184810181811083821117620002135785526003908181526244414960e81b8582015283519083821162000213578254916001958684811c9416801562000308575b88851014620002f2578190601f948581116200029c575b508890858311600114620002355760009262000229575b505060001982861b1c191690861b1783555b8051938411620002135760049586548681811c9116801562000208575b82821014620001f357838111620001a8575b50809285116001146200013a57509383949184926000956200012e575b50501b92600019911b1c19161790555b51610b249081620003198239f35b01519350388062000110565b92919084601f1981168860005285600020956000905b898383106200018d575050501062000172575b50505050811b01905562000120565b01519060f884600019921b161c191690553880808062000163565b85870151895590970196948501948893509081019062000150565b87600052816000208480880160051c820192848910620001e9575b0160051c019087905b828110620001dc575050620000f3565b60008155018790620001cc565b92508192620001c3565b602288634e487b7160e01b6000525260246000fd5b90607f1690620000e1565b634e487b7160e01b600052604160045260246000fd5b015190503880620000b2565b90889350601f19831691876000528a6000209260005b8c8282106200028557505084116200026c575b505050811b018355620000c4565b015160001983881b60f8161c191690553880806200025e565b8385015186558c979095019493840193016200024b565b90915085600052886000208580850160051c8201928b8610620002e8575b918a91869594930160051c01915b828110620002d85750506200009b565b600081558594508a9101620002c8565b92508192620002ba565b634e487b7160e01b600052602260045260246000fd5b93607f169362000084565b600080fdfe608060408181526004918236101561001657600080fd5b600092833560e01c91826306fdde03146107be57508163095ea7b3146106b957816318160ddd1461067c57816323b872dd146104f2578163313ce567146104b857816370a082311461045757816395d89b4114610261578163a9059cbb14610212578163ac68553914610109575063dd62ed3e1461009357600080fd5b3461010557807ffffffffffffffffffffffffffffffffffffffffffffffffffffffffffffffffc36011261010557806020926100cd610962565b6100d561098a565b73ffffffffffffffffffffffffffffffffffffffff91821683526001865283832091168252845220549051908152f35b5080fd5b9190503461020e57807ffffffffffffffffffffffffffffffffffffffffffffffffffffffffffffffffc36011261020e57610142610962565b9073ffffffffffffffffffffffffffffffffffffffff60243592169283156101e057600254908382018092116101b4575084927fddf252ad1be2c89b69c2b068fc378daa952ba7f163c4a11628f55a4df523b3ef9260209260025585855284835280852082815401905551908152a380f35b8560116024927f4e487b7100000000000000000000000000000000000000000000000000000000835252fd5b8460249251917fec442f05000000000000000000000000000000000000000000000000000000008352820152fd5b8280fd5b50503461010557807ffffffffffffffffffffffffffffffffffffffffffffffffffffffffffffffffc3601126101055760209061025a610250610962565b60243590336109ad565b5160018152f35b83833461010557817ffffffffffffffffffffffffffffffffffffffffffffffffffffffffffffffffc36011261010557805190828454600181811c9080831692831561044d575b60209384841081146104215783885287959493929181156103c6575060011461034a575b50505003601f017fffffffffffffffffffffffffffffffffffffffffffffffffffffffffffffffe01682019267ffffffffffffffff84118385101761031e575082918261031a9252826108fc565b0390f35b806041867f4e487b71000000000000000000000000000000000000000000000000000000006024945252fd5b8888529193925086917f8a35acfbc15ff81a39ae7d344fd709f28e8600b4aa8c65c6b64bfe7fe36bd19b5b8284106103b057505050907fffffffffffffffffffffffffffffffffffffffffffffffffffffffffffffffe092601f928201019181936102cc565b8054888501870152879450928501928101610375565b7fffffffffffffffffffffffffffffffffffffffffffffffffffffffffffffff0016848701525050151560051b830101905081601f7fffffffffffffffffffffffffffffffffffffffffffffffffffffffffffffffe06102cc565b60248960228c7f4e487b7100000000000000000000000000000000000000000000000000000000835252fd5b91607f16916102a8565b5050346101055760207ffffffffffffffffffffffffffffffffffffffffffffffffffffffffffffffffc360112610105578060209273ffffffffffffffffffffffffffffffffffffffff6104a9610962565b16815280845220549051908152f35b50503461010557817ffffffffffffffffffffffffffffffffffffffffffffffffffffffffffffffffc360112610105576020905160068152f35b905082346106795760607ffffffffffffffffffffffffffffffffffffffffffffffffffffffffffffffffc3601126106795761052c610962565b61053461098a565b916044359373ffffffffffffffffffffffffffffffffffffffff8316808352600160205286832033845260205286832054917fffffffffffffffffffffffffffffffffffffffffffffffffffffffffffffffff830361059c575b60208861025a8989896109ad565b8683106106345781156106055733156105d65750825260016020908152868320338452815291869020908590039055829061025a8761058e565b602490848951917f94280d62000000000000000000000000000000000000000000000000000000008352820152fd5b602490848951917fe602df05000000000000000000000000000000000000000000000000000000008352820152fd5b87517ffb8f41b2000000000000000000000000000000000000000000000000000000008152339181019182526020820193909352604081018790528291506060010390fd5b80fd5b50503461010557817ffffffffffffffffffffffffffffffffffffffffffffffffffffffffffffffffc360112610105576020906002549051908152f35b90503461020e57817ffffffffffffffffffffffffffffffffffffffffffffffffffffffffffffffffc36011261020e576106f1610962565b60243590331561078f5773ffffffffffffffffffffffffffffffffffffffff1691821561076057508083602095338152600187528181208582528752205582519081527f8c5be1e5ebec7d5bd14f71427d1e84f3dd0314c0f7b2291e5b200ac8c7c3b925843392a35160018152f35b602490858551917f94280d62000000000000000000000000000000000000000000000000000000008352820152fd5b602483868651917fe602df05000000000000000000000000000000000000000000000000000000008352820152fd5b8490843461020e57827ffffffffffffffffffffffffffffffffffffffffffffffffffffffffffffffffc36011261020e5782600354600181811c908083169283156108f2575b60209384841081146104215783885287959493929181156103c657506001146108755750505003601f017fffffffffffffffffffffffffffffffffffffffffffffffffffffffffffffffe01682019267ffffffffffffffff84118385101761031e575082918261031a9252826108fc565b600388529193925086917fc2575a0e9e593c00f959f8c92f12db2869c3395a3b0502d05e2516446f71f85b5b8284106108dc57505050907fffffffffffffffffffffffffffffffffffffffffffffffffffffffffffffffe092601f928201019181936102cc565b80548885018701528794509285019281016108a1565b91607f1691610804565b60208082528251818301819052939260005b85811061094e575050507fffffffffffffffffffffffffffffffffffffffffffffffffffffffffffffffe0601f8460006040809697860101520116010190565b81810183015184820160400152820161090e565b6004359073ffffffffffffffffffffffffffffffffffffffff8216820361098557565b600080fd5b6024359073ffffffffffffffffffffffffffffffffffffffff8216820361098557565b9173ffffffffffffffffffffffffffffffffffffffff808416928315610abd5716928315610a8c5760009083825281602052604082205490838210610a34575091604082827fddf252ad1be2c89b69c2b068fc378daa952ba7f163c4a11628f55a4df523b3ef958760209652828652038282205586815220818154019055604051908152a3565b6040517fe450d38c00000000000000000000000000000000000000000000000000000000815273ffffffffffffffffffffffffffffffffffffffff919091166004820152602481019190915260448101839052606490fd5b60246040517fec442f0500000000000000000000000000000000000000000000000000000000815260006004820152fd5b60246040517f96c6fd1e00000000000000000000000000000000000000000000000000000000815260006004820152fdfea2646970667358221220ea38782eb32433f043e802d39edc98665b78972934403c2036268dc594f661d264736f6c63430008140033","linkReferences":{}},"methodIdentifiers":{"allowance(address,address)":"dd62ed3e","approve(address,uint256)":"095ea7b3","balanceOf(address)":"70a08231","decimals()":"313ce567","name()":"06fdde03","print(address,uint256)":"ac685539","symbol()":"95d89b41","totalSupply()":"18160ddd","transfer(address,uint256)":"a9059cbb","transferFrom(address,address,uint256)":"23b872dd"},"id":0}