{"abi":[{"type":"constructor","inputs":[{"name":"_defaultAdmin","type":"address","internalType":"address"},{"name":"_defaultGov","type":"address","internalType":"address"},{"name":"_c3CallContract","type":"address","internalType":"address"}],"stateMutability":"nonpayable"},{"type":"function","name":"DEFAULT_ADMIN_ROLE","inputs":[],"outputs":[{"name":"","type":"bytes32","internalType":"bytes32"}],"stateMutability":"view"},{"type":"function","name":"DELAY","inputs":[],"outputs":[{"name":"","type":"uint256","internalType":"uint256"}],"stateMutability":"view"},{"type":"function","name":"GOV","inputs":[],"outputs":[{"name":"","type":"bytes32","internalType":"bytes32"}],"stateMutability":"view"},{"type":"function","name":"INITIAL_EMISSION_PER_YEAR","inputs":[],"outputs":[{"name":"","type":"uint256","internalType":"uint256"}],"stateMutability":"view"},{"type":"function","name":"allowance","inputs":[{"name":"","type":"address","internalType":"address"},{"name":"","type":"address","internalType":"address"}],"outputs":[{"name":"","type":"uint256","internalType":"uint256"}],"stateMutability":"view"},{"type":"function","name":"applyAdmin","inputs":[],"outputs":[],"stateMutability":"nonpayable"},{"type":"function","name":"applyMinter","inputs":[],"outputs":[],"stateMutability":"nonpayable"},{"type":"function","name":"approve","inputs":[{"name":"spender","type":"address","internalType":"address"},{"name":"value","type":"uint256","internalType":"uint256"}],"outputs":[{"name":"","type":"bool","internalType":"bool"}],"stateMutability":"nonpayable"},{"type":"function","name":"balanceOf","inputs":[{"name":"","type":"address","internalType":"address"}],"outputs":[{"name":"","type":"uint256","internalType":"uint256"}],"stateMutability":"view"},{"type":"function","name":"burn","inputs":[{"name":"from","type":"address","internalType":"address"},{"name":"amount","type":"uint256","internalType":"uint256"}],"outputs":[{"name":"","type":"bool","internalType":"bool"}],"stateMutability":"nonpayable"},{"type":"function","name":"c3CallContract","inputs":[],"outputs":[{"name":"","type":"address","internalType":"address"}],"stateMutability":"view"},{"type":"function","name":"decimals","inputs":[],"outputs":[{"name":"","type":"uint8","internalType":"uint8"}],"stateMutability":"view"},{"type":"function","name":"delayAdmin","inputs":[],"outputs":[{"name":"","type":"uint256","internalType":"uint256"}],"stateMutability":"view"},{"type":"function","name":"delayMinter","inputs":[],"outputs":[{"name":"","type":"uint256","internalType":"uint256"}],"stateMutability":"view"},{"type":"function","name":"deposit","inputs":[{"name":"amount","type":"uint256","internalType":"uint256"},{"name":"to","type":"address","internalType":"address"}],"outputs":[{"name":"","type":"uint256","internalType":"uint256"}],"stateMutability":"nonpayable"},{"type":"function","name":"deposit","inputs":[{"name":"amount","type":"uint256","internalType":"uint256"}],"outputs":[{"name":"","type":"uint256","internalType":"uint256"}],"stateMutability":"nonpayable"},{"type":"function","name":"deposit","inputs":[],"outputs":[{"name":"","type":"uint256","internalType":"uint256"}],"stateMutability":"nonpayable"},{"type":"function","name":"depositVault","inputs":[{"name":"amount","type":"uint256","internalType":"uint256"},{"name":"to","type":"address","internalType":"address"}],"outputs":[{"name":"","type":"uint256","internalType":"uint256"}],"stateMutability":"nonpayable"},{"type":"function","name":"emission_rate","inputs":[],"outputs":[{"name":"","type":"uint256","internalType":"uint256"}],"stateMutability":"view"},{"type":"function","name":"fac","inputs":[],"outputs":[{"name":"","type":"uint256","internalType":"uint256"}],"stateMutability":"view"},{"type":"function","name":"getAllMinters","inputs":[],"outputs":[{"name":"","type":"address[]","internalType":"address[]"}],"stateMutability":"view"},{"type":"function","name":"getRoleAdmin","inputs":[{"name":"role","type":"bytes32","internalType":"bytes32"}],"outputs":[{"name":"","type":"bytes32","internalType":"bytes32"}],"stateMutability":"view"},{"type":"function","name":"grantRole","inputs":[{"name":"role","type":"bytes32","internalType":"bytes32"},{"name":"account","type":"address","internalType":"address"}],"outputs":[],"stateMutability":"nonpayable"},{"type":"function","name":"hasRole","inputs":[{"name":"role","type":"bytes32","internalType":"bytes32"},{"name":"account","type":"address","internalType":"address"}],"outputs":[{"name":"","type":"bool","internalType":"bool"}],"stateMutability":"view"},{"type":"function","name":"initTime","inputs":[],"outputs":[{"name":"","type":"uint256","internalType":"uint256"}],"stateMutability":"view"},{"type":"function","name":"isAdmin","inputs":[{"name":"account","type":"address","internalType":"address"}],"outputs":[{"name":"","type":"bool","internalType":"bool"}],"stateMutability":"view"},{"type":"function","name":"isGov","inputs":[{"name":"account","type":"address","internalType":"address"}],"outputs":[{"name":"","type":"bool","internalType":"bool"}],"stateMutability":"view"},{"type":"function","name":"isMinter","inputs":[{"name":"","type":"address","internalType":"address"}],"outputs":[{"name":"","type":"bool","internalType":"bool"}],"stateMutability":"view"},{"type":"function","name":"mint","inputs":[{"name":"to","type":"address","internalType":"address"},{"name":"amount","type":"uint256","internalType":"uint256"}],"outputs":[{"name":"","type":"bool","internalType":"bool"}],"stateMutability":"nonpayable"},{"type":"function","name":"minters","inputs":[{"name":"","type":"uint256","internalType":"uint256"}],"outputs":[{"name":"","type":"address","internalType":"address"}],"stateMutability":"view"},{"type":"function","name":"name","inputs":[],"outputs":[{"name":"","type":"string","internalType":"string"}],"stateMutability":"view"},{"type":"function","name":"offsetYears","inputs":[],"outputs":[{"name":"","type":"uint256","internalType":"uint256"}],"stateMutability":"view"},{"type":"function","name":"owner","inputs":[],"outputs":[{"name":"","type":"address","internalType":"address"}],"stateMutability":"view"},{"type":"function","name":"pendingAdmin","inputs":[],"outputs":[{"name":"","type":"address","internalType":"address"}],"stateMutability":"view"},{"type":"function","name":"pendingMinter","inputs":[],"outputs":[{"name":"","type":"address","internalType":"address"}],"stateMutability":"view"},{"type":"function","name":"renounceRole","inputs":[{"name":"role","type":"bytes32","internalType":"bytes32"},{"name":"callerConfirmation","type":"address","internalType":"address"}],"outputs":[],"stateMutability":"nonpayable"},{"type":"function","name":"revokeMinter","inputs":[{"name":"_minter","type":"address","internalType":"address"}],"outputs":[],"stateMutability":"nonpayable"},{"type":"function","name":"revokeRole","inputs":[{"name":"role","type":"bytes32","internalType":"bytes32"},{"name":"account","type":"address","internalType":"address"}],"outputs":[],"stateMutability":"nonpayable"},{"type":"function","name":"router","inputs":[],"outputs":[{"name":"","type":"address","internalType":"address"}],"stateMutability":"view"},{"type":"function","name":"setAdmin","inputs":[{"name":"_router","type":"address","internalType":"address"}],"outputs":[],"stateMutability":"nonpayable"},{"type":"function","name":"setGov","inputs":[{"name":"_oldGov","type":"address","internalType":"address"},{"name":"_newGov","type":"address","internalType":"address"}],"outputs":[],"stateMutability":"nonpayable"},{"type":"function","name":"setMinter","inputs":[{"name":"_minter","type":"address","internalType":"address"}],"outputs":[],"stateMutability":"nonpayable"},{"type":"function","name":"supportsInterface","inputs":[{"name":"interfaceId","type":"bytes4","internalType":"bytes4"}],"outputs":[{"name":"","type":"bool","internalType":"bool"}],"stateMutability":"view"},{"type":"function","name":"symbol","inputs":[],"outputs":[{"name":"","type":"string","internalType":"string"}],"stateMutability":"view"},{"type":"function","name":"tokenAlloc","inputs":[],"outputs":[{"name":"","type":"uint256","internalType":"uint256"}],"stateMutability":"nonpayable"},{"type":"function","name":"tokenEmission","inputs":[],"outputs":[{"name":"","type":"uint256","internalType":"uint256"}],"stateMutability":"view"},{"type":"function","name":"tokenEmissionAt","inputs":[{"name":"time","type":"uint256","internalType":"uint256"}],"outputs":[{"name":"","type":"uint256","internalType":"uint256"}],"stateMutability":"view"},{"type":"function","name":"totalSupply","inputs":[],"outputs":[{"name":"","type":"uint256","internalType":"uint256"}],"stateMutability":"view"},{"type":"function","name":"transfer","inputs":[{"name":"to","type":"address","internalType":"address"},{"name":"value","type":"uint256","internalType":"uint256"}],"outputs":[{"name":"","type":"bool","internalType":"bool"}],"stateMutability":"nonpayable"},{"type":"function","name":"transferFrom","inputs":[{"name":"from","type":"address","internalType":"address"},{"name":"to","type":"address","internalType":"address"},{"name":"value","type":"uint256","internalType":"uint256"}],"outputs":[{"name":"","type":"bool","internalType":"bool"}],"stateMutability":"nonpayable"},{"type":"function","name":"underlying","inputs":[],"outputs":[{"name":"","type":"address","internalType":"address"}],"stateMutability":"view"},{"type":"function","name":"underlyingIsMinted","inputs":[],"outputs":[{"name":"","type":"bool","internalType":"bool"}],"stateMutability":"view"},{"type":"function","name":"unsetAdmin","inputs":[],"outputs":[],"stateMutability":"nonpayable"},{"type":"function","name":"withdraw","inputs":[{"name":"amount","type":"uint256","internalType":"uint256"},{"name":"to","type":"address","internalType":"address"}],"outputs":[{"name":"","type":"uint256","internalType":"uint256"}],"stateMutability":"nonpayable"},{"type":"function","name":"withdraw","inputs":[{"name":"amount","type":"uint256","internalType":"uint256"}],"outputs":[{"name":"","type":"uint256","internalType":"uint256"}],"stateMutability":"nonpayable"},{"type":"function","name":"withdraw","inputs":[],"outputs":[{"name":"","type":"uint256","internalType":"uint256"}],"stateMutability":"nonpayable"},{"type":"function","name":"withdrawVault","inputs":[{"name":"from","type":"address","internalType":"address"},{"name":"amount","type":"uint256","internalType":"uint256"},{"name":"to","type":"address","internalType":"address"}],"outputs":[{"name":"","type":"uint256","internalType":"uint256"}],"stateMutability":"nonpayable"},{"type":"event","name":"Approval","inputs":[{"name":"owner","type":"address","indexed":true,"internalType":"address"},{"name":"spender","type":"address","indexed":true,"internalType":"address"},{"name":"value","type":"uint256","indexed":false,"internalType":"uint256"}],"anonymous":false},{"type":"event","name":"LogSwapin","inputs":[{"name":"txhash","type":"bytes32","indexed":true,"internalType":"bytes32"},{"name":"account","type":"address","indexed":true,"internalType":"address"},{"name":"amount","type":"uint256","indexed":false,"internalType":"uint256"}],"anonymous":false},{"type":"event","name":"LogSwapout","inputs":[{"name":"account","type":"address","indexed":true,"internalType":"address"},{"name":"bindaddr","type":"address","indexed":true,"internalType":"address"},{"name":"amount","type":"uint256","indexed":false,"internalType":"uint256"}],"anonymous":false},{"type":"event","name":"RoleAdminChanged","inputs":[{"name":"role","type":"bytes32","indexed":true,"internalType":"bytes32"},{"name":"previousAdminRole","type":"bytes32","indexed":true,"internalType":"bytes32"},{"name":"newAdminRole","type":"bytes32","indexed":true,"internalType":"bytes32"}],"anonymous":false},{"type":"event","name":"RoleGranted","inputs":[{"name":"role","type":"bytes32","indexed":true,"internalType":"bytes32"},{"name":"account","type":"address","indexed":true,"internalType":"address"},{"name":"sender","type":"address","indexed":true,"internalType":"address"}],"anonymous":false},{"type":"event","name":"RoleRevoked","inputs":[{"name":"role","type":"bytes32","indexed":true,"internalType":"bytes32"},{"name":"account","type":"address","indexed":true,"internalType":"address"},{"name":"sender","type":"address","indexed":true,"internalType":"address"}],"anonymous":false},{"type":"event","name":"Transfer","inputs":[{"name":"from","type":"address","indexed":true,"internalType":"address"},{"name":"to","type":"address","indexed":true,"internalType":"address"},{"name":"value","type":"uint256","indexed":false,"internalType":"uint256"}],"anonymous":false},{"type":"event","name":"changeC3CallerContract","inputs":[{"name":"c3CallContract","type":"address","indexed":false,"internalType":"address"}],"anonymous":false},{"type":"error","name":"AccessControlBadConfirmation","inputs":[]},{"type":"error","name":"AccessControlUnauthorizedAccount","inputs":[{"name":"account","type":"address","internalType":"address"},{"name":"neededRole","type":"bytes32","internalType":"bytes32"}]},{"type":"error","name":"AddressEmptyCode","inputs":[{"name":"target","type":"address","internalType":"address"}]},{"type":"error","name":"AddressInsufficientBalance","inputs":[{"name":"account","type":"address","internalType":"address"}]},{"type":"error","name":"FailedInnerCall","inputs":[]},{"type":"error","name":"PRBMath_MulDiv18_Overflow","inputs":[{"name":"x","type":"uint256","internalType":"uint256"},{"name":"y","type":"uint256","internalType":"uint256"}]},{"type":"error","name":"PRBMath_UD60x18_Log_InputTooSmall","inputs":[{"name":"x","type":"uint256","internalType":"UD60x18"}]},{"type":"error","name":"SafeERC20FailedOperation","inputs":[{"name":"token","type":"address","internalType":"address"}]}],"bytecode":{"object":"0x60c0346200065457601f620031a338819003918201601f191683019291906001600160401b03841183851017620005485781606092849260409687528339810103126200065457620000518162000675565b906200006d83620000656020840162000675565b920162000675565b9083516200007b8162000659565b6005815264546865696160d81b60208201528451906200009b8262000659565b600580835264544845494160d81b60208401526201518090558051906001600160401b038211620005485760005490600182811c9216801562000649575b6020831014620005275781601f849311620005e6575b50602090601f83116001146200056a576000926200055e575b50508160011b916000199060031b1c1916176000555b8051906001600160401b038211620005485760015490600182811c921680156200053d575b6020831014620005275781601f849311620004c3575b50602090601f831160011462000449576000926200043d575b50508160011b916000199060031b1c1916176001555b6012608052600060a05260ff199260049360018186541617855560018060a01b0319908160085416600855600080526006602052600187600020918254161790556007546801000000000000000081101562000428576001810180600755811015620004135791620002cd91620002d49493600760005260206000200181815416905560016011556301e187e06012556298968160135560018060a01b0380968184168360155416176015558186168360165416176016551690600f541617600f55426017554260145560008052600e6020526001876000200180547f8eeeb5290718f324aa0965d35cf24b6163c00698ab277824ce00bdf229264ecf809255817fbd79b86ffe0ab8e8776151514217cd7cacd52c909f66475c3af44e129f0b00ff916000838180a4816000528160018a60002001918183549355600080a4620006ae565b506200072f565b50601554169060ff60805116604d8111620003fe57600a0a90629896809180830292830403620003e9578215620003a657507fddf252ad1be2c89b69c2b068fc378daa952ba7f163c4a11628f55a4df523b3ef6020826200033a6000946003546200068a565b60035584845260028252858420620003548282546200068a565b90558551908152a3516129709081620007d382396080518181816111fc0152611b34015260a0518181816106da0152818161094501528181610f4601528181610faa01528181611cfd0152611d5f0152f35b606490602085519162461bcd60e51b8352820152601f60248201527f45524332303a206d696e7420746f20746865207a65726f2061646472657373006044820152fd5b601190634e487b7160e01b6000525260246000fd5b601182634e487b7160e01b6000525260246000fd5b603286634e487b7160e01b6000525260246000fd5b604186634e487b7160e01b6000525260246000fd5b01519050388062000172565b60016000908152600080516020620031838339815191529350601f198516905b818110620004aa575090846001959493921062000490575b505050811b0160015562000188565b015160001960f88460031b161c1916905538808062000481565b9293602060018192878601518155019501930162000469565b600160005290915060008051602062003183833981519152601f840160051c810191602085106200051c575b90601f859493920160051c01905b8181106200050c575062000159565b60008155849350600101620004fd565b9091508190620004ef565b634e487b7160e01b600052602260045260246000fd5b91607f169162000143565b634e487b7160e01b600052604160045260246000fd5b01519050388062000108565b600080805293506000805160206200316383398151915291905b601f1984168510620005ca576001945083601f19811610620005b0575b505050811b016000556200011e565b015160001960f88460031b161c19169055388080620005a1565b8181015183556020948501946001909301929091019062000584565b6000805290915060008051602062003163833981519152601f840160051c810191602085106200063e575b90601f859493920160051c01905b8181106200062e5750620000ef565b600081558493506001016200061f565b909150819062000611565b91607f1691620000d9565b600080fd5b604081019081106001600160401b038211176200054857604052565b51906001600160a01b03821682036200065457565b919082018092116200069857565b634e487b7160e01b600052601160045260246000fd5b6001600160a01b031660008181527fe710864318d4a32f37d6ce54cb3fadbef648dd12d8dbdf53973564d56b7f881c602052604081205490919060ff166200072b57818052600e6020526040822081835260205260408220600160ff198254161790553391600080516020620031438339815191528180a4600190565b5090565b6001600160a01b031660008181527f2e328d830ccd03332f180273fd551f79395208ec7ea1b7285d40325efa7538df60205260408120549091907f8eeeb5290718f324aa0965d35cf24b6163c00698ab277824ce00bdf229264ecf9060ff16620007cd57808352600e6020526040832082845260205260408320600160ff1982541617905560008051602062003143833981519152339380a4600190565b50509056fe60406080815260048036101561001457600080fd5b600091823560e01c91826239d6ec1461190b578262f714ce146118e257826301ffc9a714611840578263041151871461182157826306fdde0314611765578263095ea7b3146116e65782630d707df8146115b757826311756bd114611598578263180cb47f1461155d57826318160ddd1461153e57826323b872dd1461131f578263248a9ca3146112f357826324d7806c146112a1578263267822471461126c5782632e1a7d4d146112495782632f2ff15d14611220578263313ce567146111e257826336568abe146111765782633a93dd09146111575782633ccfd60b1461112d57826340c10f19146110fe5782634e67428d1461107557826351a6de0d14610ff357826369b4117014610fd45782636e553f6514610f6a5782636f307dc314610f19578263704b6c0214610e9357826370a0823114610e4f5782637491246314610e315782638422780014610e115782638623ec7b14610dc1578263884fb0f814610d8c5782638da5cb5b14610d5757826391c5df4914610d2257826391d1485414610cce57826395d89b4114610b985782639dc29fac14610b52578263a045442c14610a73578263a217fddf1461065b578263a9059cbb146109b3578263aa271e1a1461096a578263b6b55f251461090d578263bebbf4d0146108c2578263c3081240146108a3578263c3b3147214610884578263cfbd488514610811578263d06374e31461079f578263d0e30db0146106b1578263d547741f14610676578263d6c797511461065b578263dd62ed3e14610605578263ea8c7907146105e7578263eae60d08146105c8578263f01bfb0b14610423578263f659bbae1461035557508163f887ea401461031c575063fca3b5aa1461029457600080fd5b34610319576020600319360112610319576102ad611969565b73ffffffffffffffffffffffffffffffffffffffff906102d282600854163314611bb6565b166102de811515611c1b565b7fffffffffffffffffffffffff0000000000000000000000000000000000000000600954161760095561031360055442611af0565b600a5580f35b80fd5b90503461035157816003193601126103515760209073ffffffffffffffffffffffffffffffffffffffff600854169051908152f35b5080fd5b9091503461041f578260031936011261041f57828052600e60205281832033845260205260ff8284205416156103c357506103bf906103ba600173ffffffffffffffffffffffffffffffffffffffff6015541692858052600e602052852001546120f8565b6123b1565b5080f35b602060649251917f08c379a0000000000000000000000000000000000000000000000000000000008352820152601460248201527f5265737472696374656420746f2061646d696e730000000000000000000000006044820152fd5b8280fd5b9083346103195780600319360112610319577f8eeeb5290718f324aa0965d35cf24b6163c00698ab277824ce00bdf229264ecf8152600e60205281812033825260205260ff82822054161561056b57601254906104804283611af0565b670de0b6b3a764000092818402918483040361053f576014546104a291611af0565b90818402918483040361053f57836104d16104c992826714057b7ef767814f94859261275e565b02049361275e565b020491601354848102948186041490151715610513576020856104fe866104f88787611ed1565b9061286d565b906105098233611e00565b4260145551908152f35b806011877f4e487b71000000000000000000000000000000000000000000000000000000006024945252fd5b6024836011887f4e487b7100000000000000000000000000000000000000000000000000000000835252fd5b60648360208451917f08c379a0000000000000000000000000000000000000000000000000000000008352820152601960248201527f5265737472696374656420746f2074686520676f76656e6f72000000000000006044820152fd5b8382346103515781600319360112610351576020906011549051908152f35b83823461035157816003193601126103515760209051629896808152f35b83823461035157806003193601126103515780602092610623611969565b61062b611991565b73ffffffffffffffffffffffffffffffffffffffff9182168352600d865283832091168252845220549051908152f35b83823461035157816003193601126103515751908152602090f35b91503461041f578060031936011261041f576103bf91356106ac600161069a611991565b93838752600e602052862001546120f8565b61246b565b90833461031957806003193601126103195773ffffffffffffffffffffffffffffffffffffffff7f000000000000000000000000000000000000000000000000000000000000000016928251907f70a082310000000000000000000000000000000000000000000000000000000082523390820152602081602481875afa91821561079457809261075e575b602084610757856107508130338c61250e565b3390611ce5565b9051908152f35b9091506020823d821161078c575b81610779602093836119b4565b810103126103195750518261075061073d565b3d915061076c565b8351903d90823e3d90fd5b8382346103515760206003193601126103515760ff816020936107c0611969565b7f8eeeb5290718f324aa0965d35cf24b6163c00698ab277824ce00bdf229264ecf8252600e865273ffffffffffffffffffffffffffffffffffffffff83832091168252855220541690519015158152f35b8382346103515760206003193601126103515761082c611969565b73ffffffffffffffffffffffffffffffffffffffff9061085182600854163314611bb6565b168252600660205281207fffffffffffffffffffffffffffffffffffffffffffffffffffffffffffffff00815416905580f35b8382346103515781600319360112610351576020906013549051908152f35b838234610351578160031936011261035157602090600a549051908152f35b908334610319578160031936011261031957506107576020926108e3611991565b9061090773ffffffffffffffffffffffffffffffffffffffff600854163314611bb6565b35611ce5565b90833461031957602060031936011261031957506107576020923561075081303373ffffffffffffffffffffffffffffffffffffffff7f00000000000000000000000000000000000000000000000000000000000000001661250e565b8382346103515760206003193601126103515760ff8160209373ffffffffffffffffffffffffffffffffffffffff6109a0611969565b1681526006855220541690519015158152f35b8382346103515780600319360112610351576109cd611969565b73ffffffffffffffffffffffffffffffffffffffff1660243581151580610a69575b15610a65578260209433815260028652610a188383832054610a138282101561206d565b611ed1565b338252600287528282205583815220610a32828254611af0565b905582519081527fddf252ad1be2c89b69c2b068fc378daa952ba7f163c4a11628f55a4df523b3ef843392a35160018152f35b8380fd5b50308214156109ef565b5082346103195780600319360112610319579080519182906007549182855260208095018093600784527fa66cc928b5edb82af9bd49922954155ab7b0942694bea4ce44661d9a8736c68890845b818110610b285750505081610ad79103826119b4565b83519485948186019282875251809352850193925b828110610afb57505050500390f35b835173ffffffffffffffffffffffffffffffffffffffff1685528695509381019392810192600101610aec565b825473ffffffffffffffffffffffffffffffffffffffff1684529288019260019283019201610ac1565b838234610351578060031936011261035157610b91602092610b8860ff84610b78611969565b9333815260068852205416611c80565b60243590611ede565b5160018152f35b91503461041f578260031936011261041f5780519183600180549182821c928281168015610cc4575b6020958686108214610c985750848852908115610c585750600114610c00575b610bfc8686610bf2828b03836119b4565b5191829182611a24565b0390f35b9295508083527fb10e2d527612073b26eecdfd717e6a320cf44b4afac2b0732d9fcbe2b7fa0cf65b828410610c455750505082610bfc94610bf2928201019438610be1565b8054868501880152928601928101610c28565b7fffffffffffffffffffffffffffffffffffffffffffffffffffffffffffffff001687860152505050151560051b8301019250610bf282610bfc38610be1565b8360226024927f4e487b7100000000000000000000000000000000000000000000000000000000835252fd5b93607f1693610bc1565b9091503461041f578160031936011261041f578160209360ff92610cf0611991565b90358252600e865273ffffffffffffffffffffffffffffffffffffffff83832091168252855220541690519015158152f35b83823461035157816003193601126103515760209073ffffffffffffffffffffffffffffffffffffffff600954169051908152f35b83823461035157816003193601126103515760209073ffffffffffffffffffffffffffffffffffffffff600854169051908152f35b83823461035157816003193601126103515760209073ffffffffffffffffffffffffffffffffffffffff600f54169051908152f35b9091503461041f57602060031936011261041f573591600754831015610319575073ffffffffffffffffffffffffffffffffffffffff610e02602093611a8a565b92905490519260031b1c168152f35b908334610319576020600319360112610319575061075760209235611b2c565b83823461035157816003193601126103515760209061075742611b2c565b838234610351576020600319360112610351578060209273ffffffffffffffffffffffffffffffffffffffff610e83611969565b1681526002845220549051908152f35b833461031957602060031936011261031957610ead611969565b73ffffffffffffffffffffffffffffffffffffffff90610ed282600854163314611bb6565b16610ede811515611c1b565b7fffffffffffffffffffffffff0000000000000000000000000000000000000000600b541617600b55610f1360055442611af0565b600c5580f35b8382346103515781600319360112610351576020905173ffffffffffffffffffffffffffffffffffffffff7f0000000000000000000000000000000000000000000000000000000000000000168152f35b9083346103195781600319360112610319575061075760209235610f8c611991565b90610fcf81303373ffffffffffffffffffffffffffffffffffffffff7f00000000000000000000000000000000000000000000000000000000000000001661250e565b611ce5565b8382346103515781600319360112610351576020906005549051908152f35b8382346103515780600319360112610351576103bf906110706001611016611969565b9261101f611991565b61105f7f8eeeb5290718f324aa0965d35cf24b6163c00698ab277824ce00bdf229264ecf91828952600e60205261105a85858b2001546120f8565b612155565b508652600e602052852001546120f8565b6122da565b833461031957806003193601126103195760085473ffffffffffffffffffffffffffffffffffffffff6110ab8183163314611bb6565b600b54908116801515806110f2575b15610a65577fffffffffffffffffffffffff00000000000000000000000000000000000000008093161760085516600b5580600c5580f35b50600c544210156110ba565b838234610351578060031936011261035157610b9160209261112460ff84610b78611969565b60243590611e00565b83823461035157816003193601126103515761075760209233815260028452823391205433611d45565b8382346103515781600319360112610351576020906010549051908152f35b838234610351578060031936011261035157611190611991565b903373ffffffffffffffffffffffffffffffffffffffff8316036111ba57506103bf91923561246b565b8390517f6697b232000000000000000000000000000000000000000000000000000000008152fd5b8382346103515781600319360112610351576020905160ff7f0000000000000000000000000000000000000000000000000000000000000000168152f35b91503461041f578060031936011261041f576103bf9135611244600161069a611991565b612233565b908334610319576020600319360112610319575061075760209233903533611d45565b83823461035157816003193601126103515760209073ffffffffffffffffffffffffffffffffffffffff600b54169051908152f35b8382346103515760206003193601126103515760ff816020936112c2611969565b818052600e865273ffffffffffffffffffffffffffffffffffffffff83832091168252855220541690519015158152f35b9091503461041f57602060031936011261041f5781602093600192358152600e85522001549051908152f35b9091503461041f57606060031936011261041f5761133b611969565b90611344611991565b6044359073ffffffffffffffffffffffffffffffffffffffff8091169384151580611534575b156115305716913383036113e5575b5060207fddf252ad1be2c89b69c2b068fc378daa952ba7f163c4a11628f55a4df523b3ef91858785849952600284526113bc8383832054610a138282101561206d565b8682526002855282822055868152206113d6828254611af0565b90558551908152a35160018152f35b828652602090600d8252858720338852825285872054907fffffffffffffffffffffffffffffffffffffffffffffffffffffffffffffffff820361142b575b5050611379565b8382106114ae575091856020978893867f8c5be1e5ebec7d5bd14f71427d1e84f3dd0314c0f7b2291e5b200ac8c7c3b925611487867fddf252ad1be2c89b69c2b068fc378daa952ba7f163c4a11628f55a4df523b3ef99611ed1565b92828552600d81528585203386528152838686205585519384523393a39750819350611424565b608490838851917f08c379a0000000000000000000000000000000000000000000000000000000008352820152602560248201527f546865696145524332303a2072657175657374206578636565647320616c6c6f60448201527f77616e63650000000000000000000000000000000000000000000000000000006064820152fd5b8680fd5b503085141561136a565b8382346103515781600319360112610351576020906003549051908152f35b838234610351578160031936011261035157602090517f8eeeb5290718f324aa0965d35cf24b6163c00698ab277824ce00bdf229264ecf8152f35b838234610351578160031936011261035157602090600c549051908152f35b9091503461041f578260031936011261041f5773ffffffffffffffffffffffffffffffffffffffff916115ef83600854163314611bb6565b826009541680158015806116da575b156116d6576116d25784526006602052832060017fffffffffffffffffffffffffffffffffffffffffffffffffffffffffffffff0082541617905581600954169060075490680100000000000000008210156116a657508060016116659201600755611a8a565b909283549160031b92831b921b19161790557fffffffffffffffffffffffff00000000000000000000000000000000000000006009541660095580600a5580f35b8460416024927f4e487b7100000000000000000000000000000000000000000000000000000000835252fd5b8480fd5b8580fd5b50600a544210156115fe565b83823461035157806003193601126103515760209181611704611969565b91602435918291338152600d875273ffffffffffffffffffffffffffffffffffffffff8282209516948582528752205582519081527f8c5be1e5ebec7d5bd14f71427d1e84f3dd0314c0f7b2291e5b200ac8c7c3b925843392a35160018152f35b91503461041f578260031936011261041f578051918380549060019082821c928281168015611817575b6020958686108214610c985750848852908115610c5857506001146117bf57610bfc8686610bf2828b03836119b4565b8080949750527f290decd9548b62a8d60345a988386fc84ba6bc95484008f6362f93160ef3e5635b8284106118045750505082610bfc94610bf2928201019438610be1565b80548685018801529286019281016117e7565b93607f169361178f565b8382346103515781600319360112610351576020906012549051908152f35b9091503461041f57602060031936011261041f5735907fffffffff00000000000000000000000000000000000000000000000000000000821680920361041f57602092507f7965db0b0000000000000000000000000000000000000000000000000000000082149182156118b8575b50519015158152f35b7f01ffc9a700000000000000000000000000000000000000000000000000000000149150386118af565b90833461031957816003193601126103195750610757602092611903611991565b903533611d45565b83823461035157606060031936011261035157611926611969565b6044359273ffffffffffffffffffffffffffffffffffffffff90818516850361031957509261075791611960602095600854163314611bb6565b60243590611d45565b6004359073ffffffffffffffffffffffffffffffffffffffff8216820361198c57565b600080fd5b6024359073ffffffffffffffffffffffffffffffffffffffff8216820361198c57565b90601f7fffffffffffffffffffffffffffffffffffffffffffffffffffffffffffffffe0910116810190811067ffffffffffffffff8211176119f557604052565b7f4e487b7100000000000000000000000000000000000000000000000000000000600052604160045260246000fd5b60208082528251818301819052939260005b858110611a76575050507fffffffffffffffffffffffffffffffffffffffffffffffffffffffffffffffe0601f8460006040809697860101520116010190565b818101830151848201604001528201611a36565b600754811015611ac15760076000527fa66cc928b5edb82af9bd49922954155ab7b0942694bea4ce44661d9a8736c6880190600090565b7f4e487b7100000000000000000000000000000000000000000000000000000000600052603260045260246000fd5b91908201809211611afd57565b7f4e487b7100000000000000000000000000000000000000000000000000000000600052601160045260246000fd5b6013549060ff7f000000000000000000000000000000000000000000000000000000000000000016604d8111611afd57600a0a91828102928184041490151715611afd57611b7c90601254611af0565b908115611b87570490565b7f4e487b7100000000000000000000000000000000000000000000000000000000600052601260045260246000fd5b15611bbd57565b60646040517f08c379a000000000000000000000000000000000000000000000000000000000815260206004820152601560248201527f546865696145524332303a206e6f742041646d696e00000000000000000000006044820152fd5b15611c2257565b60646040517f08c379a000000000000000000000000000000000000000000000000000000000815260206004820152601660248201527f546865696145524332303a2061646472657373283029000000000000000000006044820152fd5b15611c8757565b60646040517f08c379a000000000000000000000000000000000000000000000000000000000815260206004820152601660248201527f546865696145524332303a206e6f74204d696e746572000000000000000000006044820152fd5b9073ffffffffffffffffffffffffffffffffffffffff7f0000000000000000000000000000000000000000000000000000000000000000168015159081611d3a575b501561198c5781611d3791611e00565b90565b905030141538611d27565b909173ffffffffffffffffffffffffffffffffffffffff807f0000000000000000000000000000000000000000000000000000000000000000169283151580611df6575b1561198c5784611d9891611ede565b604051917fa9059cbb00000000000000000000000000000000000000000000000000000000602084015216602482015282604482015260448152608081019181831067ffffffffffffffff8411176119f557611d379260405261258c565b5030841415611d89565b73ffffffffffffffffffffffffffffffffffffffff16908115611e73577fddf252ad1be2c89b69c2b068fc378daa952ba7f163c4a11628f55a4df523b3ef602082611e4f600094600354611af0565b6003558484526002825260408420611e68828254611af0565b9055604051908152a3565b60646040517f08c379a000000000000000000000000000000000000000000000000000000000815260206004820152601f60248201527f45524332303a206d696e7420746f20746865207a65726f2061646472657373006044820152fd5b91908203918211611afd57565b73ffffffffffffffffffffffffffffffffffffffff168015611fe95780600052600260205260406000205491808310611f6557602081611f417fddf252ad1be2c89b69c2b068fc378daa952ba7f163c4a11628f55a4df523b3ef93600096611ed1565b848652600283526040862055611f5981600354611ed1565b600355604051908152a3565b60846040517f08c379a000000000000000000000000000000000000000000000000000000000815260206004820152602260248201527f45524332303a206275726e20616d6f756e7420657863656564732062616c616e60448201527f63650000000000000000000000000000000000000000000000000000000000006064820152fd5b60846040517f08c379a000000000000000000000000000000000000000000000000000000000815260206004820152602160248201527f45524332303a206275726e2066726f6d20746865207a65726f2061646472657360448201527f73000000000000000000000000000000000000000000000000000000000000006064820152fd5b1561207457565b60846040517f08c379a000000000000000000000000000000000000000000000000000000000815260206004820152602b60248201527f546865696145524332303a207472616e7366657220616d6f756e74206578636560448201527f6564732062616c616e63650000000000000000000000000000000000000000006064820152fd5b80600052600e60205260406000203360005260205260ff604060002054161561211e5750565b604490604051907fe2517d3f0000000000000000000000000000000000000000000000000000000082523360048301526024820152fd5b73ffffffffffffffffffffffffffffffffffffffff1660008181527f2e328d830ccd03332f180273fd551f79395208ec7ea1b7285d40325efa7538df60205260408120549091907f8eeeb5290718f324aa0965d35cf24b6163c00698ab277824ce00bdf229264ecf9060ff1661222e57808352600e602052604083208284526020526040832060017fffffffffffffffffffffffffffffffffffffffffffffffffffffffffffffff008254161790557f2f8788117e7eff1d82e926ec794901d17c78024a50270940304540a733656f0d339380a4600190565b505090565b90600091808352600e60205273ffffffffffffffffffffffffffffffffffffffff6040842092169182845260205260ff6040842054161560001461222e57808352600e602052604083208284526020526040832060017fffffffffffffffffffffffffffffffffffffffffffffffffffffffffffffff008254161790557f2f8788117e7eff1d82e926ec794901d17c78024a50270940304540a733656f0d339380a4600190565b73ffffffffffffffffffffffffffffffffffffffff1660008181527f2e328d830ccd03332f180273fd551f79395208ec7ea1b7285d40325efa7538df60205260408120549091907f8eeeb5290718f324aa0965d35cf24b6163c00698ab277824ce00bdf229264ecf9060ff161561222e57808352600e60205260408320828452602052604083207fffffffffffffffffffffffffffffffffffffffffffffffffffffffffffffff0081541690557ff6391f5c32d9c69d2a47ea670b442974b53935d1edc7fd64eb21e047a839171b339380a4600190565b73ffffffffffffffffffffffffffffffffffffffff1660008181527fe710864318d4a32f37d6ce54cb3fadbef648dd12d8dbdf53973564d56b7f881c602052604081205490919060ff161561246757818052600e60205260408220818352602052604082207fffffffffffffffffffffffffffffffffffffffffffffffffffffffffffffff00815416905533917ff6391f5c32d9c69d2a47ea670b442974b53935d1edc7fd64eb21e047a839171b8180a4600190565b5090565b90600091808352600e60205273ffffffffffffffffffffffffffffffffffffffff6040842092169182845260205260ff60408420541660001461222e57808352600e60205260408320828452602052604083207fffffffffffffffffffffffffffffffffffffffffffffffffffffffffffffff0081541690557ff6391f5c32d9c69d2a47ea670b442974b53935d1edc7fd64eb21e047a839171b339380a4600190565b9290604051927f23b872dd00000000000000000000000000000000000000000000000000000000602085015273ffffffffffffffffffffffffffffffffffffffff809216602485015216604483015260648201526064815260a081019181831067ffffffffffffffff8411176119f55761258a9260405261258c565b565b73ffffffffffffffffffffffffffffffffffffffff1690600080826020829451910182865af13d156126b2573d9067ffffffffffffffff82116126855790612614916040519161260460207fffffffffffffffffffffffffffffffffffffffffffffffffffffffffffffffe0601f84011601846119b4565b82523d84602084013e5b846126be565b90815191821515928361265d575b50505061262c5750565b602490604051907f5274afe70000000000000000000000000000000000000000000000000000000082526004820152fd5b8192935090602091810103126103515760200151908115918215036103195750388080612622565b6024837f4e487b710000000000000000000000000000000000000000000000000000000081526041600452fd5b6126149060609061260e565b906126fd57508051156126d357805190602001fd5b60046040517f1425ea42000000000000000000000000000000000000000000000000000000008152fd5b81511580612755575b61270e575090565b60249073ffffffffffffffffffffffffffffffffffffffff604051917f9996b315000000000000000000000000000000000000000000000000000000008352166004820152fd5b50803b15612706565b90670de0b6b3a76400009182811061283c578281046fffffffffffffffffffffffffffffffff811160071b90811c9067ffffffffffffffff821160061b91821c63ffffffff811160051b90811c61ffff811160041b90811c60ff811160031b90811c91600f831160021b92831c936001968760038711811b96871c11961717171717171791848302921c93808514612835576706f05b59d3b2000094855b61280857509193505050565b808291020494671bc16d674ec80000861015612828575b821c94856127fc565b8095930192821c9461281f565b5090925050565b602490604051907f36d32ef00000000000000000000000000000000000000000000000000000000082526004820152fd5b9190917fffffffffffffffffffffffffffffffffffffffffffffffffffffffffffffffff8382098382029182808310920391808303921461292957670de0b6b3a764000090818310156128f257947faccb18165bd6fe31ae1cf318dc5b51eee0e1ba569b88cd74c1773b91fac1066994950990828211900360ee1b910360121c170290565b60449086604051917f5173648d00000000000000000000000000000000000000000000000000000000835260048301526024820152fd5b5050670de0b6b3a76400009004915056fea2646970667358221220b9e00bb1c0f673e1363c4237bd3c47aaef3568f2a5cf66ec6c7809d08fe3241464736f6c634300081400332f8788117e7eff1d82e926ec794901d17c78024a50270940304540a733656f0d290decd9548b62a8d60345a988386fc84ba6bc95484008f6362f93160ef3e563b10e2d527612073b26eecdfd717e6a320cf44b4afac2b0732d9fcbe2b7fa0cf6","linkReferences":{}},"methodIdentifiers":{"DEFAULT_ADMIN_ROLE()":"a217fddf","DELAY()":"69b41170","GOV()":"180cb47f","INITIAL_EMISSION_PER_YEAR()":"ea8c7907","allowance(address,address)":"dd62ed3e","applyAdmin()":"4e67428d","applyMinter()":"0d707df8","approve(address,uint256)":"095ea7b3","balanceOf(address)":"70a08231","burn(address,uint256)":"9dc29fac","c3CallContract()":"884fb0f8","decimals()":"313ce567","delayAdmin()":"11756bd1","delayMinter()":"c3081240","deposit()":"d0e30db0","deposit(uint256)":"b6b55f25","deposit(uint256,address)":"6e553f65","depositVault(uint256,address)":"bebbf4d0","emission_rate()":"3a93dd09","fac()":"c3b31472","getAllMinters()":"a045442c","getRoleAdmin(bytes32)":"248a9ca3","grantRole(bytes32,address)":"2f2ff15d","hasRole(bytes32,address)":"91d14854","initTime()":"04115187","isAdmin(address)":"24d7806c","isGov(address)":"d06374e3","isMinter(address)":"aa271e1a","mint(address,uint256)":"40c10f19","minters(uint256)":"8623ec7b","name()":"06fdde03","offsetYears()":"eae60d08","owner()":"8da5cb5b","pendingAdmin()":"26782247","pendingMinter()":"91c5df49","renounceRole(bytes32,address)":"36568abe","revokeMinter(address)":"cfbd4885","revokeRole(bytes32,address)":"d547741f","router()":"f887ea40","setAdmin(address)":"704b6c02","setGov(address,address)":"51a6de0d","setMinter(address)":"fca3b5aa","supportsInterface(bytes4)":"01ffc9a7","symbol()":"95d89b41","tokenAlloc()":"f01bfb0b","tokenEmission()":"74912463","tokenEmissionAt(uint256)":"84227800","totalSupply()":"18160ddd","transfer(address,uint256)":"a9059cbb","transferFrom(address,address,uint256)":"23b872dd","underlying()":"6f307dc3","underlyingIsMinted()":"d6c79751","unsetAdmin()":"f659bbae","withdraw()":"3ccfd60b","withdraw(uint256)":"2e1a7d4d","withdraw(uint256,address)":"00f714ce","withdrawVault(address,uint256,address)":"0039d6ec"},"id":18}