{"abi":[{"type":"function","name":"addOperator","inputs":[{"name":"_op","type":"address","internalType":"address"}],"outputs":[],"stateMutability":"nonpayable"},{"type":"function","name":"applyGov","inputs":[],"outputs":[],"stateMutability":"nonpayable"},{"type":"function","name":"changeGov","inputs":[{"name":"_gov","type":"address","internalType":"address"}],"outputs":[],"stateMutability":"nonpayable"},{"type":"function","name":"getAllOperators","inputs":[],"outputs":[{"name":"","type":"address[]","internalType":"address[]"}],"stateMutability":"view"},{"type":"function","name":"gov","inputs":[],"outputs":[{"name":"","type":"address","internalType":"address"}],"stateMutability":"view"},{"type":"function","name":"isOperator","inputs":[{"name":"","type":"address","internalType":"address"}],"outputs":[{"name":"","type":"bool","internalType":"bool"}],"stateMutability":"view"},{"type":"function","name":"operators","inputs":[{"name":"","type":"uint256","internalType":"uint256"}],"outputs":[{"name":"","type":"address","internalType":"address"}],"stateMutability":"view"},{"type":"function","name":"pendingGov","inputs":[],"outputs":[{"name":"","type":"address","internalType":"address"}],"stateMutability":"view"},{"type":"function","name":"revokeOperator","inputs":[{"name":"_op","type":"address","internalType":"address"}],"outputs":[],"stateMutability":"nonpayable"},{"type":"event","name":"ApplyGov","inputs":[{"name":"oldGov","type":"address","indexed":true,"internalType":"address"},{"name":"newGov","type":"address","indexed":true,"internalType":"address"},{"name":"timestamp","type":"uint256","indexed":false,"internalType":"uint256"}],"anonymous":false},{"type":"event","name":"ChangeGov","inputs":[{"name":"oldGov","type":"address","indexed":true,"internalType":"address"},{"name":"newGov","type":"address","indexed":true,"internalType":"address"},{"name":"timestamp","type":"uint256","indexed":false,"internalType":"uint256"}],"anonymous":false},{"type":"event","name":"Initialized","inputs":[{"name":"version","type":"uint64","indexed":false,"internalType":"uint64"}],"anonymous":false},{"type":"error","name":"InvalidInitialization","inputs":[]},{"type":"error","name":"NotInitializing","inputs":[]}],"bytecode":{"object":"0x6080806040523461001657610a9d908161001c8239f35b600080fdfe60806040908082526004908136101561001757600080fd5b600092833560e01c91826312d43a51146107365750816325240810146106e3578163459c7695146105d85781636d70f7ae1461056e5781639870d7fe14610388578163a962ef1e146102cc578163d911c6321461016a578163e28d4906146100f9575063fad8b32a1461008957600080fd5b346100f55760207ffffffffffffffffffffffffffffffffffffffffffffffffffffffffffffffffc3601126100f5573573ffffffffffffffffffffffffffffffffffffffff9081811681036100f1576100e96100ee9284541633146107ea565b61084f565b80f35b8280fd5b5080fd5b919050346100f15760207ffffffffffffffffffffffffffffffffffffffffffffffffffffffffffffffffc3601126100f1573591600354831015610167575073ffffffffffffffffffffffffffffffffffffffff610158602093610784565b90549060031b1c169051908152f35b80fd5b9050823461016757807ffffffffffffffffffffffffffffffffffffffffffffffffffffffffffffffffc3601126101675781518091600354938483528360208094018096600385527fc2575a0e9e593c00f959f8c92f12db2869c3395a3b0502d05e2516446f71f85b90855b8782821061029f575050505003601f017fffffffffffffffffffffffffffffffffffffffffffffffffffffffffffffffe01684019567ffffffffffffffff871185881017610273575085815282865292518583018190528594938501939290915b82811061024657505050500390f35b835173ffffffffffffffffffffffffffffffffffffffff1685528695509381019392810192600101610237565b8260416024927f4e487b7100000000000000000000000000000000000000000000000000000000835252fd5b835473ffffffffffffffffffffffffffffffffffffffff16855289955090930192600192830192016101d6565b919050346100f15760207ffffffffffffffffffffffffffffffffffffffffffffffffffffffffffffffffc3601126100f157359073ffffffffffffffffffffffffffffffffffffffff8083168093036103845760207fd098c548c6851f1e61d4e1364996748b40477bb1abe90254bd71352396b2b7be91855416926103528433146107ea565b847fffffffffffffffffffffffff0000000000000000000000000000000000000000600154161760015551428152a380f35b8380fd5b839150346100f557602090817ffffffffffffffffffffffffffffffffffffffffffffffffffffffffffffffffc3601126100f15783359173ffffffffffffffffffffffffffffffffffffffff8084169081850361056a576103ed9086541633146107ea565b801561050f578085526002825260ff838620541661048d57845260029052822080547fffffffffffffffffffffffffffffffffffffffffffffffffffffffffffffff00166001179055600354926801000000000000000084101561027357506104608360016100ee949501600355610784565b90919082549060031b9173ffffffffffffffffffffffffffffffffffffffff809116831b921b1916179055565b608486838551917f08c379a0000000000000000000000000000000000000000000000000000000008352820152602160248201527f433343616c6c65723a204f70657261746f7220616c726561647920657869737460448201527f73000000000000000000000000000000000000000000000000000000000000006064820152fd5b60648683808651927f08c379a000000000000000000000000000000000000000000000000000000000845283015260248201527f433343616c6c65723a204f70657261746f7220697320616464726573732830296044820152fd5b8580fd5b919050346100f15760207ffffffffffffffffffffffffffffffffffffffffffffffffffffffffffffffffc3601126100f1573573ffffffffffffffffffffffffffffffffffffffff81168091036100f157818360ff92602095526002855220541690519015158152f35b8383346100f557817ffffffffffffffffffffffffffffffffffffffffffffffffffffffffffffffffc3601126100f55760015473ffffffffffffffffffffffffffffffffffffffff81169182156106865750602083947fff88f8815b3f9faf85529ba09d2f7ff0d9c726c11cc863fd2451569860142590927fffffffffffffffffffffffff00000000000000000000000000000000000000009085828854161787551660015551428152a380f35b60649060208651917f08c379a0000000000000000000000000000000000000000000000000000000008352820152601760248201527f4333476f763a20656d7074792070656e64696e67476f760000000000000000006044820152fd5b8390346100f557817ffffffffffffffffffffffffffffffffffffffffffffffffffffffffffffffffc3601126100f55760209073ffffffffffffffffffffffffffffffffffffffff600154169051908152f35b8490346100f557817ffffffffffffffffffffffffffffffffffffffffffffffffffffffffffffffffc3601126100f55773ffffffffffffffffffffffffffffffffffffffff60209254168152f35b6003548110156107bb5760036000527fc2575a0e9e593c00f959f8c92f12db2869c3395a3b0502d05e2516446f71f85b0190600090565b7f4e487b7100000000000000000000000000000000000000000000000000000000600052603260045260246000fd5b156107f157565b60646040517f08c379a000000000000000000000000000000000000000000000000000000000815260206004820152600f60248201527f4333476f763a206f6e6c7920476f7600000000000000000000000000000000006044820152fd5b73ffffffffffffffffffffffffffffffffffffffff80911690600090828252600260205260ff60408320541615610a09578282526002602052604082207fffffffffffffffffffffffffffffffffffffffffffffffffffffffffffffff00815416905560038054835b8181106108c757505050505050565b85846108d283610784565b905490861b1c161461093a577fffffffffffffffffffffffffffffffffffffffffffffffffffffffffffffffff811461090d576001016108b8565b6024857f4e487b710000000000000000000000000000000000000000000000000000000081526011600452fd5b909294507fffffffffffffffffffffffffffffffffffffffffffffffffffffffffffffffff939193928381019081116109dc57906104608661097e61098b94610784565b905490881b1c1691610784565b82549081156109af575001916109a083610784565b9091825491841b1b1916905555565b807f4e487b7100000000000000000000000000000000000000000000000000000000602492526031600452fd5b6024837f4e487b710000000000000000000000000000000000000000000000000000000081526011600452fd5b60646040517f08c379a000000000000000000000000000000000000000000000000000000000815260206004820152601c60248201527f433343616c6c65723a204f70657261746f72206e6f7420666f756e64000000006044820152fdfea264697066735822122063d7531f9674dc2a02faecaa501ce07e697bf23fde0afd8ffa0a5178e2f4158064736f6c63430008140033","linkReferences":{}},"methodIdentifiers":{"addOperator(address)":"9870d7fe","applyGov()":"459c7695","changeGov(address)":"a962ef1e","getAllOperators()":"d911c632","gov()":"12d43a51","isOperator(address)":"6d70f7ae","operators(uint256)":"e28d4906","pendingGov()":"25240810","revokeOperator(address)":"fad8b32a"},"id":16}